{
  "_format": "hh-sol-artifact-1",
  "contractName": "MasterChef2Mock",
  "sourceName": "contracts/mock/MasterChef2Mock.sol",
  "abi": [
    {
      "inputs": [
        {
          "internalType": "address",
          "name": "_CAKE",
          "type": "address"
        }
      ],
      "stateMutability": "nonpayable",
      "type": "constructor"
    },
    {
      "anonymous": false,
      "inputs": [
        {
          "indexed": true,
          "internalType": "address",
          "name": "previousOwner",
          "type": "address"
        },
        {
          "indexed": true,
          "internalType": "address",
          "name": "newOwner",
          "type": "address"
        }
      ],
      "name": "OwnershipTransferred",
      "type": "event"
    },
    {
      "inputs": [],
      "name": "CAKE",
      "outputs": [
        {
          "internalType": "address",
          "name": "",
          "type": "address"
        }
      ],
      "stateMutability": "view",
      "type": "function"
    },
    {
      "inputs": [
        {
          "internalType": "bool",
          "name": "",
          "type": "bool"
        }
      ],
      "name": "cakePerBlock",
      "outputs": [
        {
          "internalType": "uint256",
          "name": "",
          "type": "uint256"
        }
      ],
      "stateMutability": "pure",
      "type": "function"
    },
    {
      "inputs": [
        {
          "internalType": "uint256",
          "name": "pool",
          "type": "uint256"
        },
        {
          "internalType": "uint256",
          "name": "amount",
          "type": "uint256"
        }
      ],
      "name": "deposit",
      "outputs": [],
      "stateMutability": "nonpayable",
      "type": "function"
    },
    {
      "inputs": [
        {
          "internalType": "uint256",
          "name": "pool",
          "type": "uint256"
        }
      ],
      "name": "emergencyWithdraw",
      "outputs": [],
      "stateMutability": "nonpayable",
      "type": "function"
    },
    {
      "inputs": [
        {
          "internalType": "uint256",
          "name": "pool",
          "type": "uint256"
        }
      ],
      "name": "lpToken",
      "outputs": [
        {
          "internalType": "address",
          "name": "",
          "type": "address"
        }
      ],
      "stateMutability": "view",
      "type": "function"
    },
    {
      "inputs": [],
      "name": "owner",
      "outputs": [
        {
          "internalType": "address",
          "name": "",
          "type": "address"
        }
      ],
      "stateMutability": "view",
      "type": "function"
    },
    {
      "inputs": [
        {
          "internalType": "uint256",
          "name": "pool",
          "type": "uint256"
        },
        {
          "internalType": "address",
          "name": "user",
          "type": "address"
        }
      ],
      "name": "pendingCake",
      "outputs": [
        {
          "internalType": "uint256",
          "name": "",
          "type": "uint256"
        }
      ],
      "stateMutability": "view",
      "type": "function"
    },
    {
      "inputs": [
        {
          "internalType": "uint256",
          "name": "pool",
          "type": "uint256"
        }
      ],
      "name": "poolInfo",
      "outputs": [
        {
          "components": [
            {
              "internalType": "uint256",
              "name": "accCakePerShare",
              "type": "uint256"
            },
            {
              "internalType": "uint256",
              "name": "lastRewardBlock",
              "type": "uint256"
            },
            {
              "internalType": "uint256",
              "name": "allocPoint",
              "type": "uint256"
            },
            {
              "internalType": "uint256",
              "name": "totalBoostedShare",
              "type": "uint256"
            },
            {
              "internalType": "bool",
              "name": "isRegular",
              "type": "bool"
            }
          ],
          "internalType": "struct IMasterChef2.PoolInfo",
          "name": "",
          "type": "tuple"
        }
      ],
      "stateMutability": "view",
      "type": "function"
    },
    {
      "inputs": [],
      "name": "poolLength",
      "outputs": [
        {
          "internalType": "uint256",
          "name": "",
          "type": "uint256"
        }
      ],
      "stateMutability": "view",
      "type": "function"
    },
    {
      "inputs": [],
      "name": "renounceOwnership",
      "outputs": [],
      "stateMutability": "nonpayable",
      "type": "function"
    },
    {
      "inputs": [
        {
          "internalType": "uint256",
          "name": "pool",
          "type": "uint256"
        },
        {
          "internalType": "address",
          "name": "_lpToken",
          "type": "address"
        }
      ],
      "name": "setPool",
      "outputs": [],
      "stateMutability": "nonpayable",
      "type": "function"
    },
    {
      "inputs": [
        {
          "internalType": "uint256",
          "name": "pool",
          "type": "uint256"
        },
        {
          "internalType": "address",
          "name": "user",
          "type": "address"
        },
        {
          "internalType": "uint256",
          "name": "amount",
          "type": "uint256"
        }
      ],
      "name": "setReward",
      "outputs": [],
      "stateMutability": "nonpayable",
      "type": "function"
    },
    {
      "inputs": [],
      "name": "totalRegularAllocPoint",
      "outputs": [
        {
          "internalType": "uint256",
          "name": "",
          "type": "uint256"
        }
      ],
      "stateMutability": "view",
      "type": "function"
    },
    {
      "inputs": [],
      "name": "totalSpecialAllocPoint",
      "outputs": [
        {
          "internalType": "uint256",
          "name": "",
          "type": "uint256"
        }
      ],
      "stateMutability": "view",
      "type": "function"
    },
    {
      "inputs": [
        {
          "internalType": "address",
          "name": "newOwner",
          "type": "address"
        }
      ],
      "name": "transferOwnership",
      "outputs": [],
      "stateMutability": "nonpayable",
      "type": "function"
    },
    {
      "inputs": [
        {
          "internalType": "uint256",
          "name": "pool",
          "type": "uint256"
        },
        {
          "internalType": "address",
          "name": "user",
          "type": "address"
        }
      ],
      "name": "userInfo",
      "outputs": [
        {
          "components": [
            {
              "internalType": "uint256",
              "name": "amount",
              "type": "uint256"
            },
            {
              "internalType": "uint256",
              "name": "rewardDebt",
              "type": "uint256"
            },
            {
              "internalType": "uint256",
              "name": "boostMultiplier",
              "type": "uint256"
            }
          ],
          "internalType": "struct IMasterChef2.UserInfo",
          "name": "",
          "type": "tuple"
        }
      ],
      "stateMutability": "view",
      "type": "function"
    },
    {
      "inputs": [
        {
          "internalType": "uint256",
          "name": "pool",
          "type": "uint256"
        },
        {
          "internalType": "uint256",
          "name": "amount",
          "type": "uint256"
        }
      ],
      "name": "withdraw",
      "outputs": [],
      "stateMutability": "nonpayable",
      "type": "function"
    }
  ],
  "bytecode": "0x608060405234801561001057600080fd5b506040516113a33803806113a383398101604081905261002f916100ad565b6100383361005d565b600180546001600160a01b0319166001600160a01b03929092169190911790556100dd565b600080546001600160a01b038381166001600160a01b0319831681178455604051919092169283917f8be0079c531659141344cd1fd0a4f28419497f9722a3daafe3b4186f6b6457e09190a35050565b6000602082840312156100bf57600080fd5b81516001600160a01b03811681146100d657600080fd5b9392505050565b6112b7806100ec6000396000f3fe608060405234801561001057600080fd5b506004361061011b5760003560e01c806378ed5d1f116100b2578063c40d337b11610081578063e2bbb15811610066578063e2bbb15814610310578063f2fde38b14610323578063f3a6ee401461033657600080fd5b8063c40d337b146102f4578063cdaffed0146102fd57600080fd5b806378ed5d1f146102625780638da5cb5b1461029857806393f1a40b146102b657806399d7e84a146102eb57600080fd5b8063441a3e70116100ee578063441a3e70146101ed5780634ca6ef28146102025780635312ea8e14610247578063715018a61461025a57600080fd5b8063081e3eda146101205780631175a1dd1461013c5780631526fe27146101825780631e9b828b146101d9575b600080fd5b61012960025481565b6040519081526020015b60405180910390f35b61012961014a3660046110e9565b600091825260076020908152604080842073ffffffffffffffffffffffffffffffffffffffff93909316845291905290206001015490565b6101956101903660046110d0565b610349565b6040516101339190600060a0820190508251825260208301516020830152604083015160408301526060830151606083015260808301511515608083015292915050565b6101296101e7366004611096565b50600090565b6102006101fb36600461114a565b6103d1565b005b6001546102229073ffffffffffffffffffffffffffffffffffffffff1681565b60405173ffffffffffffffffffffffffffffffffffffffff9091168152602001610133565b6102006102553660046110d0565b610590565b6102006105b8565b6102226102703660046110d0565b60009081526006602052604090205473ffffffffffffffffffffffffffffffffffffffff1690565b60005473ffffffffffffffffffffffffffffffffffffffff16610222565b6102c96102c43660046110e9565b610645565b6040805182518152602080840151908201529181015190820152606001610133565b61012960045481565b61012960035481565b61020061030b366004611115565b6106c0565b61020061031e36600461114a565b610777565b61020061033136600461107b565b610884565b6102006103443660046110e9565b6109b1565b61037d6040518060a00160405280600081526020016000815260200160008152602001600081526020016000151581525090565b50600090815260056020908152604091829020825160a081018452815481526001820154928101929092526002810154928201929092526003820154606082015260049091015460ff161515608082015290565b60008281526006602052604090205473ffffffffffffffffffffffffffffffffffffffff1680610488576040517f08c379a000000000000000000000000000000000000000000000000000000000815260206004820152602960248201527f4d617374657243686566324d6f636b3a3a77697468647261773a20706f6f6c2060448201527f6e6f7420666f756e64000000000000000000000000000000000000000000000060648201526084015b60405180910390fd5b6000838152600760209081526040808320338452909152902054821115610531576040517f08c379a000000000000000000000000000000000000000000000000000000000815260206004820152602d60248201527f4d617374657243686566324d6f636b3a3a77697468647261773a20696e73756660448201527f66696369656e742066756e647300000000000000000000000000000000000000606482015260840161047f565b60008381526007602090815260408083203384529091528120805484929061055a9084906111f1565b90915550610581905073ffffffffffffffffffffffffffffffffffffffff82163384610b67565b61058b8333610c3b565b505050565b60008181526007602090815260408083203384529091529020546105b59082906103d1565b50565b60005473ffffffffffffffffffffffffffffffffffffffff163314610639576040517f08c379a000000000000000000000000000000000000000000000000000000000815260206004820181905260248201527f4f776e61626c653a2063616c6c6572206973206e6f7420746865206f776e6572604482015260640161047f565b6106436000610c81565b565b61066960405180606001604052806000815260200160008152602001600081525090565b50600091825260076020908152604080842073ffffffffffffffffffffffffffffffffffffffff93909316845291815291819020815160608101835281548152600182015493810193909352600201549082015290565b60005473ffffffffffffffffffffffffffffffffffffffff163314610741576040517f08c379a000000000000000000000000000000000000000000000000000000000815260206004820181905260248201527f4f776e61626c653a2063616c6c6572206973206e6f7420746865206f776e6572604482015260640161047f565b600092835260076020908152604080852073ffffffffffffffffffffffffffffffffffffffff9094168552929052912060010155565b60008281526006602052604090205473ffffffffffffffffffffffffffffffffffffffff1680610829576040517f08c379a000000000000000000000000000000000000000000000000000000000815260206004820152602860248201527f4d617374657243686566324d6f636b3a3a6465706f7369743a20706f6f6c206e60448201527f6f7420666f756e64000000000000000000000000000000000000000000000000606482015260840161047f565b61084b73ffffffffffffffffffffffffffffffffffffffff8216333085610cf6565b6000838152600760209081526040808320338452909152812080548492906108749084906111d9565b9091555061058b90508333610c3b565b60005473ffffffffffffffffffffffffffffffffffffffff163314610905576040517f08c379a000000000000000000000000000000000000000000000000000000000815260206004820181905260248201527f4f776e61626c653a2063616c6c6572206973206e6f7420746865206f776e6572604482015260640161047f565b73ffffffffffffffffffffffffffffffffffffffff81166109a8576040517f08c379a000000000000000000000000000000000000000000000000000000000815260206004820152602660248201527f4f776e61626c653a206e6577206f776e657220697320746865207a65726f206160448201527f6464726573730000000000000000000000000000000000000000000000000000606482015260840161047f565b6105b581610c81565b60005473ffffffffffffffffffffffffffffffffffffffff163314610a32576040517f08c379a000000000000000000000000000000000000000000000000000000000815260206004820181905260248201527f4f776e61626c653a2063616c6c6572206973206e6f7420746865206f776e6572604482015260640161047f565b73ffffffffffffffffffffffffffffffffffffffff8116610ad5576040517f08c379a000000000000000000000000000000000000000000000000000000000815260206004820152603260248201527f4d617374657243686566324d6f636b3a3a736574506f6f6c3a20696e76616c6960448201527f64206c7020746f6b656e20616464726573730000000000000000000000000000606482015260840161047f565b60008281526006602052604090205473ffffffffffffffffffffffffffffffffffffffff16610b145760028054906000610b0e83611234565b91905055505b60009182526006602052604090912080547fffffffffffffffffffffffff00000000000000000000000000000000000000001673ffffffffffffffffffffffffffffffffffffffff909216919091179055565b60405173ffffffffffffffffffffffffffffffffffffffff831660248201526044810182905261058b9084907fa9059cbb00000000000000000000000000000000000000000000000000000000906064015b604080517fffffffffffffffffffffffffffffffffffffffffffffffffffffffffffffffe08184030181529190526020810180517bffffffffffffffffffffffffffffffffffffffffffffffffffffffff167fffffffff0000000000000000000000000000000000000000000000000000000090931692909217909152610d5a565b600082815260076020908152604080832073ffffffffffffffffffffffffffffffffffffffff858116855292528220600190810180549390555461058b91168383610b67565b6000805473ffffffffffffffffffffffffffffffffffffffff8381167fffffffffffffffffffffffff0000000000000000000000000000000000000000831681178455604051919092169283917f8be0079c531659141344cd1fd0a4f28419497f9722a3daafe3b4186f6b6457e09190a35050565b60405173ffffffffffffffffffffffffffffffffffffffff80851660248301528316604482015260648101829052610d549085907f23b872dd0000000000000000000000000000000000000000000000000000000090608401610bb9565b50505050565b6000610dbc826040518060400160405280602081526020017f5361666545524332303a206c6f772d6c6576656c2063616c6c206661696c65648152508573ffffffffffffffffffffffffffffffffffffffff16610e669092919063ffffffff16565b80519091501561058b5780806020019051810190610dda91906110b3565b61058b576040517f08c379a000000000000000000000000000000000000000000000000000000000815260206004820152602a60248201527f5361666545524332303a204552433230206f7065726174696f6e20646964206e60448201527f6f74207375636365656400000000000000000000000000000000000000000000606482015260840161047f565b6060610e758484600085610e7f565b90505b9392505050565b606082471015610f11576040517f08c379a000000000000000000000000000000000000000000000000000000000815260206004820152602660248201527f416464726573733a20696e73756666696369656e742062616c616e636520666f60448201527f722063616c6c0000000000000000000000000000000000000000000000000000606482015260840161047f565b843b610f79576040517f08c379a000000000000000000000000000000000000000000000000000000000815260206004820152601d60248201527f416464726573733a2063616c6c20746f206e6f6e2d636f6e7472616374000000604482015260640161047f565b6000808673ffffffffffffffffffffffffffffffffffffffff168587604051610fa2919061116c565b60006040518083038185875af1925050503d8060008114610fdf576040519150601f19603f3d011682016040523d82523d6000602084013e610fe4565b606091505b5091509150610ff4828286610fff565b979650505050505050565b6060831561100e575081610e78565b82511561101e5782518084602001fd5b816040517f08c379a000000000000000000000000000000000000000000000000000000000815260040161047f9190611188565b803573ffffffffffffffffffffffffffffffffffffffff8116811461107657600080fd5b919050565b60006020828403121561108d57600080fd5b610e7882611052565b6000602082840312156110a857600080fd5b8135610e788161129c565b6000602082840312156110c557600080fd5b8151610e788161129c565b6000602082840312156110e257600080fd5b5035919050565b600080604083850312156110fc57600080fd5b8235915061110c60208401611052565b90509250929050565b60008060006060848603121561112a57600080fd5b8335925061113a60208501611052565b9150604084013590509250925092565b6000806040838503121561115d57600080fd5b50508035926020909101359150565b6000825161117e818460208701611208565b9190910192915050565b60208152600082518060208401526111a7816040850160208701611208565b601f017fffffffffffffffffffffffffffffffffffffffffffffffffffffffffffffffe0169190910160400192915050565b600082198211156111ec576111ec61126d565b500190565b6000828210156112035761120361126d565b500390565b60005b8381101561122357818101518382015260200161120b565b83811115610d545750506000910152565b60007fffffffffffffffffffffffffffffffffffffffffffffffffffffffffffffffff8214156112665761126661126d565b5060010190565b7f4e487b7100000000000000000000000000000000000000000000000000000000600052601160045260246000fd5b80151581146105b557600080fdfea164736f6c6343000806000a",
  "linkReferences": {},
  "deployedLinkReferences": {}
}