{
  "_format": "hh-sol-artifact-1",
  "contractName": "MasterChef2Mock",
  "sourceName": "contracts/mock/MasterChef2Mock.sol",
  "abi": [
    {
      "inputs": [
        {
          "internalType": "address",
          "name": "_CAKE",
          "type": "address"
        }
      ],
      "stateMutability": "nonpayable",
      "type": "constructor"
    },
    {
      "anonymous": false,
      "inputs": [
        {
          "indexed": true,
          "internalType": "address",
          "name": "previousOwner",
          "type": "address"
        },
        {
          "indexed": true,
          "internalType": "address",
          "name": "newOwner",
          "type": "address"
        }
      ],
      "name": "OwnershipTransferred",
      "type": "event"
    },
    {
      "inputs": [],
      "name": "CAKE",
      "outputs": [
        {
          "internalType": "address",
          "name": "",
          "type": "address"
        }
      ],
      "stateMutability": "view",
      "type": "function"
    },
    {
      "inputs": [
        {
          "internalType": "uint256",
          "name": "pool",
          "type": "uint256"
        },
        {
          "internalType": "uint256",
          "name": "amount",
          "type": "uint256"
        }
      ],
      "name": "deposit",
      "outputs": [],
      "stateMutability": "nonpayable",
      "type": "function"
    },
    {
      "inputs": [
        {
          "internalType": "uint256",
          "name": "pool",
          "type": "uint256"
        }
      ],
      "name": "emergencyWithdraw",
      "outputs": [],
      "stateMutability": "nonpayable",
      "type": "function"
    },
    {
      "inputs": [
        {
          "internalType": "uint256",
          "name": "pool",
          "type": "uint256"
        }
      ],
      "name": "lpToken",
      "outputs": [
        {
          "internalType": "address",
          "name": "",
          "type": "address"
        }
      ],
      "stateMutability": "view",
      "type": "function"
    },
    {
      "inputs": [],
      "name": "owner",
      "outputs": [
        {
          "internalType": "address",
          "name": "",
          "type": "address"
        }
      ],
      "stateMutability": "view",
      "type": "function"
    },
    {
      "inputs": [
        {
          "internalType": "uint256",
          "name": "pool",
          "type": "uint256"
        },
        {
          "internalType": "address",
          "name": "user",
          "type": "address"
        }
      ],
      "name": "pendingCake",
      "outputs": [
        {
          "internalType": "uint256",
          "name": "",
          "type": "uint256"
        }
      ],
      "stateMutability": "view",
      "type": "function"
    },
    {
      "inputs": [
        {
          "internalType": "uint256",
          "name": "pool",
          "type": "uint256"
        }
      ],
      "name": "poolInfo",
      "outputs": [
        {
          "components": [
            {
              "internalType": "uint256",
              "name": "allocPoint",
              "type": "uint256"
            },
            {
              "internalType": "uint256",
              "name": "lastRewardBlock",
              "type": "uint256"
            },
            {
              "internalType": "uint256",
              "name": "accCakePerShare",
              "type": "uint256"
            },
            {
              "internalType": "bool",
              "name": "isRegular",
              "type": "bool"
            }
          ],
          "internalType": "struct IMasterChef2.PoolInfo",
          "name": "",
          "type": "tuple"
        }
      ],
      "stateMutability": "view",
      "type": "function"
    },
    {
      "inputs": [],
      "name": "renounceOwnership",
      "outputs": [],
      "stateMutability": "nonpayable",
      "type": "function"
    },
    {
      "inputs": [
        {
          "internalType": "uint256",
          "name": "pool",
          "type": "uint256"
        },
        {
          "internalType": "address",
          "name": "_lpToken",
          "type": "address"
        }
      ],
      "name": "setPool",
      "outputs": [],
      "stateMutability": "nonpayable",
      "type": "function"
    },
    {
      "inputs": [
        {
          "internalType": "uint256",
          "name": "pool",
          "type": "uint256"
        },
        {
          "internalType": "address",
          "name": "user",
          "type": "address"
        },
        {
          "internalType": "uint256",
          "name": "amount",
          "type": "uint256"
        }
      ],
      "name": "setReward",
      "outputs": [],
      "stateMutability": "nonpayable",
      "type": "function"
    },
    {
      "inputs": [
        {
          "internalType": "address",
          "name": "newOwner",
          "type": "address"
        }
      ],
      "name": "transferOwnership",
      "outputs": [],
      "stateMutability": "nonpayable",
      "type": "function"
    },
    {
      "inputs": [
        {
          "internalType": "uint256",
          "name": "pool",
          "type": "uint256"
        },
        {
          "internalType": "address",
          "name": "user",
          "type": "address"
        }
      ],
      "name": "userInfo",
      "outputs": [
        {
          "components": [
            {
              "internalType": "uint256",
              "name": "amount",
              "type": "uint256"
            },
            {
              "internalType": "uint256",
              "name": "rewardDebt",
              "type": "uint256"
            }
          ],
          "internalType": "struct IMasterChef2.UserInfo",
          "name": "",
          "type": "tuple"
        }
      ],
      "stateMutability": "view",
      "type": "function"
    },
    {
      "inputs": [
        {
          "internalType": "uint256",
          "name": "pool",
          "type": "uint256"
        },
        {
          "internalType": "uint256",
          "name": "amount",
          "type": "uint256"
        }
      ],
      "name": "withdraw",
      "outputs": [],
      "stateMutability": "nonpayable",
      "type": "function"
    }
  ],
  "bytecode": "0x608060405234801561001057600080fd5b506040516111a63803806111a683398101604081905261002f916100ad565b6100383361005d565b600180546001600160a01b0319166001600160a01b03929092169190911790556100dd565b600080546001600160a01b038381166001600160a01b0319831681178455604051919092169283917f8be0079c531659141344cd1fd0a4f28419497f9722a3daafe3b4186f6b6457e09190a35050565b6000602082840312156100bf57600080fd5b81516001600160a01b03811681146100d657600080fd5b9392505050565b6110ba806100ec6000396000f3fe608060405234801561001057600080fd5b50600436106100df5760003560e01c806378ed5d1f1161008c578063cdaffed011610066578063cdaffed0146102d0578063e2bbb158146102e3578063f2fde38b146102f6578063f3a6ee401461030957600080fd5b806378ed5d1f146101fa5780638da5cb5b1461023057806393f1a40b1461024e57600080fd5b80634ca6ef28116100bd5780634ca6ef281461019a5780635312ea8e146101df578063715018a6146101f257600080fd5b80631175a1dd146100e45780631526fe271461013d578063441a3e7014610185575b600080fd5b61012a6100f2366004610f33565b600091825260046020908152604080842073ffffffffffffffffffffffffffffffffffffffff93909316845291905290206001015490565b6040519081526020015b60405180910390f35b61015061014b366004610f1a565b61031c565b604051610134919081518152602080830151908201526040808301519082015260609182015115159181019190915260800190565b610198610193366004610f94565b610390565b005b6001546101ba9073ffffffffffffffffffffffffffffffffffffffff1681565b60405173ffffffffffffffffffffffffffffffffffffffff9091168152602001610134565b6101986101ed366004610f1a565b61054f565b610198610577565b6101ba610208366004610f1a565b60009081526003602052604090205473ffffffffffffffffffffffffffffffffffffffff1690565b60005473ffffffffffffffffffffffffffffffffffffffff166101ba565b6102b561025c366004610f33565b604080518082018252600080825260209182018190529384526004815281842073ffffffffffffffffffffffffffffffffffffffff93909316845291825291829020825180840190935280548352600101549082015290565b60408051825181526020928301519281019290925201610134565b6101986102de366004610f5f565b610604565b6101986102f1366004610f94565b6106bb565b610198610304366004610edd565b6107c8565b610198610317366004610f33565b6108f5565b61034960405180608001604052806000815260200160008152602001600081526020016000151581525090565b5060009081526002602081815260409283902083516080810185528154815260018201549281019290925291820154928101929092526003015460ff161515606082015290565b60008281526003602052604090205473ffffffffffffffffffffffffffffffffffffffff1680610447576040517f08c379a000000000000000000000000000000000000000000000000000000000815260206004820152602960248201527f4d617374657243686566324d6f636b3a3a77697468647261773a20706f6f6c2060448201527f6e6f7420666f756e64000000000000000000000000000000000000000000000060648201526084015b60405180910390fd5b60008381526004602090815260408083203384529091529020548211156104f0576040517f08c379a000000000000000000000000000000000000000000000000000000000815260206004820152602d60248201527f4d617374657243686566324d6f636b3a3a77697468647261773a20696e73756660448201527f66696369656e742066756e647300000000000000000000000000000000000000606482015260840161043e565b60008381526004602090815260408083203384529091528120805484929061051990849061103b565b90915550610540905073ffffffffffffffffffffffffffffffffffffffff821633846109c9565b61054a8333610a9d565b505050565b6000818152600460209081526040808320338452909152902054610574908290610390565b50565b60005473ffffffffffffffffffffffffffffffffffffffff1633146105f8576040517f08c379a000000000000000000000000000000000000000000000000000000000815260206004820181905260248201527f4f776e61626c653a2063616c6c6572206973206e6f7420746865206f776e6572604482015260640161043e565b6106026000610ae3565b565b60005473ffffffffffffffffffffffffffffffffffffffff163314610685576040517f08c379a000000000000000000000000000000000000000000000000000000000815260206004820181905260248201527f4f776e61626c653a2063616c6c6572206973206e6f7420746865206f776e6572604482015260640161043e565b600092835260046020908152604080852073ffffffffffffffffffffffffffffffffffffffff9094168552929052912060010155565b60008281526003602052604090205473ffffffffffffffffffffffffffffffffffffffff168061076d576040517f08c379a000000000000000000000000000000000000000000000000000000000815260206004820152602860248201527f4d617374657243686566324d6f636b3a3a6465706f7369743a20706f6f6c206e60448201527f6f7420666f756e64000000000000000000000000000000000000000000000000606482015260840161043e565b61078f73ffffffffffffffffffffffffffffffffffffffff8216333085610b58565b6000838152600460209081526040808320338452909152812080548492906107b8908490611023565b9091555061054a90508333610a9d565b60005473ffffffffffffffffffffffffffffffffffffffff163314610849576040517f08c379a000000000000000000000000000000000000000000000000000000000815260206004820181905260248201527f4f776e61626c653a2063616c6c6572206973206e6f7420746865206f776e6572604482015260640161043e565b73ffffffffffffffffffffffffffffffffffffffff81166108ec576040517f08c379a000000000000000000000000000000000000000000000000000000000815260206004820152602660248201527f4f776e61626c653a206e6577206f776e657220697320746865207a65726f206160448201527f6464726573730000000000000000000000000000000000000000000000000000606482015260840161043e565b61057481610ae3565b60005473ffffffffffffffffffffffffffffffffffffffff163314610976576040517f08c379a000000000000000000000000000000000000000000000000000000000815260206004820181905260248201527f4f776e61626c653a2063616c6c6572206973206e6f7420746865206f776e6572604482015260640161043e565b60009182526003602052604090912080547fffffffffffffffffffffffff00000000000000000000000000000000000000001673ffffffffffffffffffffffffffffffffffffffff909216919091179055565b60405173ffffffffffffffffffffffffffffffffffffffff831660248201526044810182905261054a9084907fa9059cbb00000000000000000000000000000000000000000000000000000000906064015b604080517fffffffffffffffffffffffffffffffffffffffffffffffffffffffffffffffe08184030181529190526020810180517bffffffffffffffffffffffffffffffffffffffffffffffffffffffff167fffffffff0000000000000000000000000000000000000000000000000000000090931692909217909152610bbc565b600082815260046020908152604080832073ffffffffffffffffffffffffffffffffffffffff858116855292528220600190810180549390555461054a911683836109c9565b6000805473ffffffffffffffffffffffffffffffffffffffff8381167fffffffffffffffffffffffff0000000000000000000000000000000000000000831681178455604051919092169283917f8be0079c531659141344cd1fd0a4f28419497f9722a3daafe3b4186f6b6457e09190a35050565b60405173ffffffffffffffffffffffffffffffffffffffff80851660248301528316604482015260648101829052610bb69085907f23b872dd0000000000000000000000000000000000000000000000000000000090608401610a1b565b50505050565b6000610c1e826040518060400160405280602081526020017f5361666545524332303a206c6f772d6c6576656c2063616c6c206661696c65648152508573ffffffffffffffffffffffffffffffffffffffff16610cc89092919063ffffffff16565b80519091501561054a5780806020019051810190610c3c9190610ef8565b61054a576040517f08c379a000000000000000000000000000000000000000000000000000000000815260206004820152602a60248201527f5361666545524332303a204552433230206f7065726174696f6e20646964206e60448201527f6f74207375636365656400000000000000000000000000000000000000000000606482015260840161043e565b6060610cd78484600085610ce1565b90505b9392505050565b606082471015610d73576040517f08c379a000000000000000000000000000000000000000000000000000000000815260206004820152602660248201527f416464726573733a20696e73756666696369656e742062616c616e636520666f60448201527f722063616c6c0000000000000000000000000000000000000000000000000000606482015260840161043e565b843b610ddb576040517f08c379a000000000000000000000000000000000000000000000000000000000815260206004820152601d60248201527f416464726573733a2063616c6c20746f206e6f6e2d636f6e7472616374000000604482015260640161043e565b6000808673ffffffffffffffffffffffffffffffffffffffff168587604051610e049190610fb6565b60006040518083038185875af1925050503d8060008114610e41576040519150601f19603f3d011682016040523d82523d6000602084013e610e46565b606091505b5091509150610e56828286610e61565b979650505050505050565b60608315610e70575081610cda565b825115610e805782518084602001fd5b816040517f08c379a000000000000000000000000000000000000000000000000000000000815260040161043e9190610fd2565b803573ffffffffffffffffffffffffffffffffffffffff81168114610ed857600080fd5b919050565b600060208284031215610eef57600080fd5b610cda82610eb4565b600060208284031215610f0a57600080fd5b81518015158114610cda57600080fd5b600060208284031215610f2c57600080fd5b5035919050565b60008060408385031215610f4657600080fd5b82359150610f5660208401610eb4565b90509250929050565b600080600060608486031215610f7457600080fd5b83359250610f8460208501610eb4565b9150604084013590509250925092565b60008060408385031215610fa757600080fd5b50508035926020909101359150565b60008251610fc8818460208701611052565b9190910192915050565b6020815260008251806020840152610ff1816040850160208701611052565b601f017fffffffffffffffffffffffffffffffffffffffffffffffffffffffffffffffe0169190910160400192915050565b600082198211156110365761103661107e565b500190565b60008282101561104d5761104d61107e565b500390565b60005b8381101561106d578181015183820152602001611055565b83811115610bb65750506000910152565b7f4e487b7100000000000000000000000000000000000000000000000000000000600052601160045260246000fdfea164736f6c6343000806000a",
  "linkReferences": {},
  "deployedLinkReferences": {}
}