{
  "address": "0x255B62b6a18e5365e4600946c4531a1893ca2CEe",
  "abi": [
    {
      "inputs": [
        {
          "internalType": "address",
          "name": "_info",
          "type": "address"
        }
      ],
      "stateMutability": "nonpayable",
      "type": "constructor"
    },
    {
      "anonymous": false,
      "inputs": [
        {
          "indexed": true,
          "internalType": "address",
          "name": "previousOwner",
          "type": "address"
        },
        {
          "indexed": true,
          "internalType": "address",
          "name": "newOwner",
          "type": "address"
        }
      ],
      "name": "OwnershipTransferred",
      "type": "event"
    },
    {
      "anonymous": false,
      "inputs": [
        {
          "indexed": false,
          "internalType": "int256",
          "name": "protocolFee",
          "type": "int256"
        }
      ],
      "name": "ProtocolFeeChanged",
      "type": "event"
    },
    {
      "inputs": [
        {
          "internalType": "int256",
          "name": "__protocolFee",
          "type": "int256"
        }
      ],
      "name": "changeProtocolFee",
      "outputs": [],
      "stateMutability": "nonpayable",
      "type": "function"
    },
    {
      "inputs": [],
      "name": "deadline",
      "outputs": [
        {
          "internalType": "uint16",
          "name": "",
          "type": "uint16"
        }
      ],
      "stateMutability": "view",
      "type": "function"
    },
    {
      "inputs": [],
      "name": "deposit",
      "outputs": [],
      "stateMutability": "nonpayable",
      "type": "function"
    },
    {
      "inputs": [],
      "name": "emergencyWithdraw",
      "outputs": [],
      "stateMutability": "nonpayable",
      "type": "function"
    },
    {
      "inputs": [],
      "name": "info",
      "outputs": [
        {
          "internalType": "address",
          "name": "",
          "type": "address"
        }
      ],
      "stateMutability": "view",
      "type": "function"
    },
    {
      "inputs": [
        {
          "internalType": "address",
          "name": "_staking",
          "type": "address"
        },
        {
          "internalType": "address",
          "name": "_liquidityRouter",
          "type": "address"
        },
        {
          "internalType": "uint16",
          "name": "_slippage",
          "type": "uint16"
        },
        {
          "internalType": "uint16",
          "name": "_deadline",
          "type": "uint16"
        }
      ],
      "name": "init",
      "outputs": [],
      "stateMutability": "nonpayable",
      "type": "function"
    },
    {
      "inputs": [],
      "name": "liquidityRouter",
      "outputs": [
        {
          "internalType": "address",
          "name": "",
          "type": "address"
        }
      ],
      "stateMutability": "view",
      "type": "function"
    },
    {
      "inputs": [],
      "name": "owner",
      "outputs": [
        {
          "internalType": "address",
          "name": "",
          "type": "address"
        }
      ],
      "stateMutability": "view",
      "type": "function"
    },
    {
      "inputs": [],
      "name": "pause",
      "outputs": [],
      "stateMutability": "nonpayable",
      "type": "function"
    },
    {
      "inputs": [],
      "name": "paused",
      "outputs": [
        {
          "internalType": "bool",
          "name": "",
          "type": "bool"
        }
      ],
      "stateMutability": "view",
      "type": "function"
    },
    {
      "inputs": [],
      "name": "protocolFee",
      "outputs": [
        {
          "internalType": "uint256",
          "name": "",
          "type": "uint256"
        }
      ],
      "stateMutability": "view",
      "type": "function"
    },
    {
      "inputs": [],
      "name": "refund",
      "outputs": [],
      "stateMutability": "nonpayable",
      "type": "function"
    },
    {
      "inputs": [],
      "name": "rewardToken",
      "outputs": [
        {
          "internalType": "contract IERC20",
          "name": "",
          "type": "address"
        }
      ],
      "stateMutability": "view",
      "type": "function"
    },
    {
      "inputs": [
        {
          "internalType": "uint256",
          "name": "gasFee",
          "type": "uint256"
        },
        {
          "internalType": "uint256",
          "name": "_deadline",
          "type": "uint256"
        },
        {
          "components": [
            {
              "internalType": "address[]",
              "name": "path",
              "type": "address[]"
            },
            {
              "internalType": "uint256",
              "name": "outMin",
              "type": "uint256"
            }
          ],
          "internalType": "struct SmartChefInitializableRestake.Swap",
          "name": "swap",
          "type": "tuple"
        }
      ],
      "name": "run",
      "outputs": [],
      "stateMutability": "nonpayable",
      "type": "function"
    },
    {
      "inputs": [],
      "name": "slippage",
      "outputs": [
        {
          "internalType": "uint16",
          "name": "",
          "type": "uint16"
        }
      ],
      "stateMutability": "view",
      "type": "function"
    },
    {
      "inputs": [],
      "name": "staking",
      "outputs": [
        {
          "internalType": "contract ISmartChefInitializable",
          "name": "",
          "type": "address"
        }
      ],
      "stateMutability": "view",
      "type": "function"
    },
    {
      "inputs": [],
      "name": "stakingToken",
      "outputs": [
        {
          "internalType": "contract IERC20",
          "name": "",
          "type": "address"
        }
      ],
      "stateMutability": "view",
      "type": "function"
    },
    {
      "inputs": [
        {
          "internalType": "address",
          "name": "token",
          "type": "address"
        },
        {
          "internalType": "address",
          "name": "recipient",
          "type": "address"
        },
        {
          "internalType": "uint256",
          "name": "amount",
          "type": "uint256"
        }
      ],
      "name": "transfer",
      "outputs": [],
      "stateMutability": "nonpayable",
      "type": "function"
    },
    {
      "inputs": [
        {
          "internalType": "address",
          "name": "newOwner",
          "type": "address"
        }
      ],
      "name": "transferOwnership",
      "outputs": [],
      "stateMutability": "nonpayable",
      "type": "function"
    },
    {
      "inputs": [],
      "name": "unpause",
      "outputs": [],
      "stateMutability": "nonpayable",
      "type": "function"
    }
  ],
  "transactionHash": "0x760f05b5bd52aaa23206d57b28f3206233e64dfecde3e985893a993128a060ff",
  "args": [
    "0x1CeC05129206d9fBEE2e86E1A9294E64f7F86461"
  ],
  "solcInputHash": "34bc26c5ed7c964190b4a01ca837ed09",
  "bytecode": "0x60806040523480156200001157600080fd5b506040516200394b3803806200394b833981016040819052620000349162000069565b600080546001600160a01b039092166001600160a01b031992831617905560018054909116321790556000196002556200009b565b6000602082840312156200007c57600080fd5b81516001600160a01b03811681146200009457600080fd5b9392505050565b6138a080620000ab6000396000f3fe608060405234801561001057600080fd5b506004361061016c5760003560e01c806372f702f3116100cd578063beabacc811610081578063db2e21bc11610066578063db2e21bc14610323578063f2fde38b1461032b578063f7c618c11461033e57600080fd5b8063beabacc814610308578063d0e30db01461031b57600080fd5b80638da5cb5b116100b25780638da5cb5b146102c15780639742b5c3146102df578063b0e21e8a146102f257600080fd5b806372f702f3146102995780638456cb59146102b957600080fd5b80633e032a3b116101245780634cf088d9116101095780634cf088d914610254578063590e1ae3146102795780635c975abb1461028157600080fd5b80633e032a3b146102265780633f4ba83a1461024c57600080fd5b80632470294411610155578063247029441461019957806329dcb0cf146101e3578063370158ea1461021e57600080fd5b806313ead7c6146101715780631b586aff14610186575b600080fd5b61018461017f36600461342a565b61035e565b005b61018461019436600461326e565b61078d565b6004546101b99073ffffffffffffffffffffffffffffffffffffffff1681565b60405173ffffffffffffffffffffffffffffffffffffffff90911681526020015b60405180910390f35b60045461020b90760100000000000000000000000000000000000000000000900461ffff1681565b60405161ffff90911681526020016101da565b6101b9610d45565b60045461020b9074010000000000000000000000000000000000000000900461ffff1681565b610184610ea7565b6003546101b990610100900473ffffffffffffffffffffffffffffffffffffffff1681565b610184611239565b6102896116f1565b60405190151581526020016101da565b6005546101b99073ffffffffffffffffffffffffffffffffffffffff1681565b610184611876565b60015473ffffffffffffffffffffffffffffffffffffffff166101b9565b6101846102ed3660046133c6565b611c20565b6102fa611e5a565b6040519081526020016101da565b6101846103163660046132c6565b612267565b610184612369565b610184612571565b61018461033936600461322d565b61295e565b6006546101b99073ffffffffffffffffffffffffffffffffffffffff1681565b82604051806060016040528060218152602001613873602191396103828282612bbd565b506003546005546040517ff40f0f5200000000000000000000000000000000000000000000000000000000815230600482015261010090920473ffffffffffffffffffffffffffffffffffffffff90811692911690600090839063f40f0f529060240160206040518083038186803b1580156103fd57600080fd5b505afa158015610411573d6000803e3d6000fd5b505050506040513d601f19601f820116820180604052508101906104359190613411565b116104c7576040517f08c379a000000000000000000000000000000000000000000000000000000000815260206004820152602d60248201527f536d61727443686566496e697469616c697a61626c6552657374616b653a3a7260448201527f756e3a206e6f206561726e65640000000000000000000000000000000000000060648201526084015b60405180910390fd5b6040517fb6b55f250000000000000000000000000000000000000000000000000000000081526000600482015273ffffffffffffffffffffffffffffffffffffffff83169063b6b55f2590602401600060405180830381600087803b15801561052f57600080fd5b505af1158015610543573d6000803e3d6000fd5b50506006546040517f70a082310000000000000000000000000000000000000000000000000000000081523060048201526000935073ffffffffffffffffffffffffffffffffffffffff90911691506370a082319060240160206040518083038186803b1580156105b357600080fd5b505afa1580156105c7573d6000803e3d6000fd5b505050506040513d601f19601f820116820180604052508101906105eb9190613411565b6004546006549192506106189173ffffffffffffffffffffffffffffffffffffffff908116911683612e8f565b61063f866000015160405180604001604052808481526020018960200151815250896130ad565b6040517f70a0823100000000000000000000000000000000000000000000000000000000815230600482015260009073ffffffffffffffffffffffffffffffffffffffff8416906370a082319060240160206040518083038186803b1580156106a757600080fd5b505afa1580156106bb573d6000803e3d6000fd5b505050506040513d601f19601f820116820180604052508101906106df9190613411565b905061070273ffffffffffffffffffffffffffffffffffffffff84168583612e8f565b6040517fb6b55f250000000000000000000000000000000000000000000000000000000081526004810182905273ffffffffffffffffffffffffffffffffffffffff85169063b6b55f2590602401600060405180830381600087803b15801561076a57600080fd5b505af115801561077e573d6000803e3d6000fd5b50505050505050505050505050565b60015473ffffffffffffffffffffffffffffffffffffffff166107fd57600180547fffffffffffffffffffffffff000000000000000000000000000000000000000016321790557fffffffffffffffffffffffffffffffffffffffffffffffffffffffffffffffff6002556108a4565b60015473ffffffffffffffffffffffffffffffffffffffff1633146108a4576040517f08c379a000000000000000000000000000000000000000000000000000000000815260206004820152602160248201527f4175746f6d6174653a2063616c6c6572206973206e6f7420746865206f776e6560448201527f720000000000000000000000000000000000000000000000000000000000000060648201526084016104be565b60035460ff1615806108d5575060035473ffffffffffffffffffffffffffffffffffffffff85811661010090920416145b610987576040517f08c379a000000000000000000000000000000000000000000000000000000000815260206004820152604b60248201527f536d61727443686566496e697469616c697a61626c6552657374616b653a3a6960448201527f6e69743a207265696e697469616c697a65207374616b696e672061646472657360648201527f7320666f7262696464656e000000000000000000000000000000000000000000608482015260a4016104be565b6003805473ffffffffffffffffffffffffffffffffffffffff8616610100027fffffffffffffffffffffff0000000000000000000000000000000000000000ff8216811790925560ff91821691161715806109fc575060045473ffffffffffffffffffffffffffffffffffffffff8481169116145b610aae576040517f08c379a000000000000000000000000000000000000000000000000000000000815260206004820152605460248201527f536d61727443686566496e697469616c697a61626c6552657374616b653a3a6960448201527f6e69743a207265696e697469616c697a65206c697175696469747920726f757460648201527f6572206164647265737320666f7262696464656e000000000000000000000000608482015260a4016104be565b6004805461ffff838116760100000000000000000000000000000000000000000000027fffffffffffffffff0000ffffffffffffffffffffffffffffffffffffffffffff91861674010000000000000000000000000000000000000000027fffffffffffffffffffff0000000000000000000000000000000000000000000090931673ffffffffffffffffffffffffffffffffffffffff881617929092171617905560035460ff16610d1457600360019054906101000a900473ffffffffffffffffffffffffffffffffffffffff1673ffffffffffffffffffffffffffffffffffffffff1663cc7a262e6040518163ffffffff1660e01b815260040160206040518083038186803b158015610bc257600080fd5b505afa158015610bd6573d6000803e3d6000fd5b505050506040513d601f19601f82011682018060405250810190610bfa9190613251565b600580547fffffffffffffffffffffffff00000000000000000000000000000000000000001673ffffffffffffffffffffffffffffffffffffffff928316179055600354604080517ff7c618c100000000000000000000000000000000000000000000000000000000815290516101009092049092169163f7c618c1916004808301926020929190829003018186803b158015610c9657600080fd5b505afa158015610caa573d6000803e3d6000fd5b505050506040513d601f19601f82011682018060405250810190610cce9190613251565b600680547fffffffffffffffffffffffff00000000000000000000000000000000000000001673ffffffffffffffffffffffffffffffffffffffff929092169190911790555b5050600380547fffffffffffffffffffffffffffffffffffffffffffffffffffffffffffffff001660011790555050565b6040517f6b8807180000000000000000000000000000000000000000000000000000000081523060048201526000908190731F59Ee3B1ff055Be0b84BcB6D7beAa7f984fFf2e90636b8807189060240160206040518083038186803b158015610dad57600080fd5b505af4158015610dc1573d6000803e3d6000fd5b505050506040513d601f19601f82011682018060405250810190610de59190613251565b905073ffffffffffffffffffffffffffffffffffffffff8116301415610e2357505060005473ffffffffffffffffffffffffffffffffffffffff1690565b8073ffffffffffffffffffffffffffffffffffffffff1663370158ea6040518163ffffffff1660e01b815260040160206040518083038186803b158015610e6957600080fd5b505afa158015610e7d573d6000803e3d6000fd5b505050506040513d601f19601f82011682018060405250810190610ea19190613251565b91505090565b6040517f6b880718000000000000000000000000000000000000000000000000000000008152306004820181905290731F59Ee3B1ff055Be0b84BcB6D7beAa7f984fFf2e90636b8807189060240160206040518083038186803b158015610f0d57600080fd5b505af4158015610f21573d6000803e3d6000fd5b505050506040513d601f19601f82011682018060405250810190610f459190613251565b73ffffffffffffffffffffffffffffffffffffffff1614156110fa576000610f6b610d45565b6040517f21f8a7210000000000000000000000000000000000000000000000000000000081527f689d13d8ed8ef1027633ba26e7121121cf427434450a529548f19bf175974395600482015273ffffffffffffffffffffffffffffffffffffffff91909116906321f8a7219060240160206040518083038186803b158015610ff257600080fd5b505afa158015611006573d6000803e3d6000fd5b505050506040513d601f19601f8201168201806040525081019061102a9190613251565b60015490915073ffffffffffffffffffffffffffffffffffffffff1633148061106857503373ffffffffffffffffffffffffffffffffffffffff8216145b6110f4576040517f08c379a000000000000000000000000000000000000000000000000000000000815260206004820152602260248201527f4175746f6d6174653a2063616c6c6572206973206e6f7420746865207061757360448201527f657200000000000000000000000000000000000000000000000000000000000060648201526084016104be565b506111a1565b60015473ffffffffffffffffffffffffffffffffffffffff1633146111a1576040517f08c379a000000000000000000000000000000000000000000000000000000000815260206004820152602260248201527f4175746f6d6174653a2063616c6c6572206973206e6f7420746865207061757360448201527f657200000000000000000000000000000000000000000000000000000000000060648201526084016104be565b6111a96116f1565b61120f576040517f08c379a000000000000000000000000000000000000000000000000000000000815260206004820152601460248201527f4175746f6d6174653a206e6f742070617573656400000000000000000000000060448201526064016104be565b600180547fffffffffffffffffffffff00ffffffffffffffffffffffffffffffffffffffff169055565b60015473ffffffffffffffffffffffffffffffffffffffff1633146112e0576040517f08c379a000000000000000000000000000000000000000000000000000000000815260206004820152602160248201527f4175746f6d6174653a2063616c6c6572206973206e6f7420746865206f776e6560448201527f720000000000000000000000000000000000000000000000000000000000000060648201526084016104be565b60035473ffffffffffffffffffffffffffffffffffffffff61010090910416600061132060015473ffffffffffffffffffffffffffffffffffffffff1690565b6040517f1959a00200000000000000000000000000000000000000000000000000000000815230600482015290915060009073ffffffffffffffffffffffffffffffffffffffff841690631959a00290602401604080518083038186803b15801561138a57600080fd5b505afa15801561139e573d6000803e3d6000fd5b505050506040513d601f19601f820116820180604052508101906113c291906133df565b80516040517f2e1a7d4d00000000000000000000000000000000000000000000000000000000815291925073ffffffffffffffffffffffffffffffffffffffff851691632e1a7d4d9161141b9160040190815260200190565b600060405180830381600087803b15801561143557600080fd5b505af1158015611449573d6000803e3d6000fd5b50506005546040517f70a0823100000000000000000000000000000000000000000000000000000000815230600482015273ffffffffffffffffffffffffffffffffffffffff909116925063a9059cbb9150849083906370a082319060240160206040518083038186803b1580156114c057600080fd5b505afa1580156114d4573d6000803e3d6000fd5b505050506040513d601f19601f820116820180604052508101906114f89190613411565b6040517fffffffff0000000000000000000000000000000000000000000000000000000060e085901b16815273ffffffffffffffffffffffffffffffffffffffff90921660048301526024820152604401602060405180830381600087803b15801561156357600080fd5b505af1158015611577573d6000803e3d6000fd5b505050506040513d601f19601f8201168201806040525081019061159b91906133a4565b506006546040517f70a0823100000000000000000000000000000000000000000000000000000000815230600482015273ffffffffffffffffffffffffffffffffffffffff9091169063a9059cbb90849083906370a082319060240160206040518083038186803b15801561160f57600080fd5b505afa158015611623573d6000803e3d6000fd5b505050506040513d601f19601f820116820180604052508101906116479190613411565b6040517fffffffff0000000000000000000000000000000000000000000000000000000060e085901b16815273ffffffffffffffffffffffffffffffffffffffff909216600483015260248201526044015b602060405180830381600087803b1580156116b357600080fd5b505af11580156116c7573d6000803e3d6000fd5b505050506040513d601f19601f820116820180604052508101906116eb91906133a4565b50505050565b6040517f6b8807180000000000000000000000000000000000000000000000000000000081523060048201526000908190731F59Ee3B1ff055Be0b84BcB6D7beAa7f984fFf2e90636b8807189060240160206040518083038186803b15801561175957600080fd5b505af415801561176d573d6000803e3d6000fd5b505050506040513d601f19601f820116820180604052508101906117919190613251565b905073ffffffffffffffffffffffffffffffffffffffff81163014156117d457505060015474010000000000000000000000000000000000000000900460ff1690565b60015474010000000000000000000000000000000000000000900460ff1680610ea157508073ffffffffffffffffffffffffffffffffffffffff16635c975abb6040518163ffffffff1660e01b815260040160206040518083038186803b15801561183e57600080fd5b505afa158015611852573d6000803e3d6000fd5b505050506040513d601f19601f82011682018060405250810190610ea191906133a4565b6040517f6b880718000000000000000000000000000000000000000000000000000000008152306004820181905290731F59Ee3B1ff055Be0b84BcB6D7beAa7f984fFf2e90636b8807189060240160206040518083038186803b1580156118dc57600080fd5b505af41580156118f0573d6000803e3d6000fd5b505050506040513d601f19601f820116820180604052508101906119149190613251565b73ffffffffffffffffffffffffffffffffffffffff161415611ac957600061193a610d45565b6040517f21f8a7210000000000000000000000000000000000000000000000000000000081527f689d13d8ed8ef1027633ba26e7121121cf427434450a529548f19bf175974395600482015273ffffffffffffffffffffffffffffffffffffffff91909116906321f8a7219060240160206040518083038186803b1580156119c157600080fd5b505afa1580156119d5573d6000803e3d6000fd5b505050506040513d601f19601f820116820180604052508101906119f99190613251565b60015490915073ffffffffffffffffffffffffffffffffffffffff16331480611a3757503373ffffffffffffffffffffffffffffffffffffffff8216145b611ac3576040517f08c379a000000000000000000000000000000000000000000000000000000000815260206004820152602260248201527f4175746f6d6174653a2063616c6c6572206973206e6f7420746865207061757360448201527f657200000000000000000000000000000000000000000000000000000000000060648201526084016104be565b50611b70565b60015473ffffffffffffffffffffffffffffffffffffffff163314611b70576040517f08c379a000000000000000000000000000000000000000000000000000000000815260206004820152602260248201527f4175746f6d6174653a2063616c6c6572206973206e6f7420746865207061757360448201527f657200000000000000000000000000000000000000000000000000000000000060648201526084016104be565b611b786116f1565b15611bdf576040517f08c379a000000000000000000000000000000000000000000000000000000000815260206004820152601060248201527f4175746f6d6174653a207061757365640000000000000000000000000000000060448201526064016104be565b600180547fffffffffffffffffffffff00ffffffffffffffffffffffffffffffffffffffff1674010000000000000000000000000000000000000000179055565b6040517f6b880718000000000000000000000000000000000000000000000000000000008152306004820152600090731F59Ee3B1ff055Be0b84BcB6D7beAa7f984fFf2e90636b8807189060240160206040518083038186803b158015611c8657600080fd5b505af4158015611c9a573d6000803e3d6000fd5b505050506040513d601f19601f82011682018060405250810190611cbe9190613251565b90503373ffffffffffffffffffffffffffffffffffffffff82163014611d61578173ffffffffffffffffffffffffffffffffffffffff16638da5cb5b6040518163ffffffff1660e01b815260040160206040518083038186803b158015611d2457600080fd5b505afa158015611d38573d6000803e3d6000fd5b505050506040513d601f19601f82011682018060405250810190611d5c9190613251565b611d7b565b60015473ffffffffffffffffffffffffffffffffffffffff165b73ffffffffffffffffffffffffffffffffffffffff1614611e1e576040517f08c379a000000000000000000000000000000000000000000000000000000000815260206004820152603d60248201527f4175746f6d6174653a3a6368616e676550726f746f636f6c4665653a2063616c60448201527f6c6572206973206e6f74207468652070726f746f636f6c206f776e657200000060648201526084016104be565b60028290556040518281527f3c1d43943224e49d951ce8295a5c8332b517083b3f89bed50feae2cb39caebb59060200160405180910390a15050565b6040517f6b8807180000000000000000000000000000000000000000000000000000000081523060048201526000908190731F59Ee3B1ff055Be0b84BcB6D7beAa7f984fFf2e90636b8807189060240160206040518083038186803b158015611ec257600080fd5b505af4158015611ed6573d6000803e3d6000fd5b505050506040513d601f19601f82011682018060405250810190611efa9190613251565b905073ffffffffffffffffffffffffffffffffffffffff81163014801590611f2457506000600254125b15611fa7578073ffffffffffffffffffffffffffffffffffffffff1663b0e21e8a6040518163ffffffff1660e01b815260040160206040518083038186803b158015611f6f57600080fd5b505afa158015611f83573d6000803e3d6000fd5b505050506040513d601f19601f82011682018060405250810190610ea19190613411565b6000611fb1610d45565b905060008060025412611fc657600254612083565b6040517fbd02d0f50000000000000000000000000000000000000000000000000000000081527fa93d95f96a5de25d7a41ddf1f5e8d45cfc929c4838163cf011dab4043a4a40d5600482015273ffffffffffffffffffffffffffffffffffffffff83169063bd02d0f59060240160206040518083038186803b15801561204b57600080fd5b505afa15801561205f573d6000803e3d6000fd5b505050506040513d601f19601f820116820180604052508101906120839190613411565b905080612094576000935050505090565b6040517f21f8a7210000000000000000000000000000000000000000000000000000000081527f65c90423fe7c880476633a7e36521740f87199d233dc56eb4ca6643eb76f605f600482015260009073ffffffffffffffffffffffffffffffffffffffff8416906321f8a7219060240160206040518083038186803b15801561211c57600080fd5b505afa158015612130573d6000803e3d6000fd5b505050506040513d601f19601f820116820180604052508101906121549190613251565b73ffffffffffffffffffffffffffffffffffffffff1663feaf968c6040518163ffffffff1660e01b815260040160a06040518083038186803b15801561219957600080fd5b505afa1580156121ad573d6000803e3d6000fd5b505050506040513d601f19601f820116820180604052508101906121d1919061351b565b50505091505060008113612241576040517f08c379a000000000000000000000000000000000000000000000000000000000815260206004820152601760248201527f4175746f6d6174653a20696e76616c696420707269636500000000000000000060448201526064016104be565b8061225483670de0b6b3a764000061376c565b61225e9190613731565b94505050505090565b60015473ffffffffffffffffffffffffffffffffffffffff16331461230e576040517f08c379a000000000000000000000000000000000000000000000000000000000815260206004820152602160248201527f4175746f6d6174653a2063616c6c6572206973206e6f7420746865206f776e6560448201527f720000000000000000000000000000000000000000000000000000000000000060648201526084016104be565b6040517fa9059cbb00000000000000000000000000000000000000000000000000000000815273ffffffffffffffffffffffffffffffffffffffff83811660048301526024820183905284169063a9059cbb90604401611699565b60015473ffffffffffffffffffffffffffffffffffffffff163314612410576040517f08c379a000000000000000000000000000000000000000000000000000000000815260206004820152602160248201527f4175746f6d6174653a2063616c6c6572206973206e6f7420746865206f776e6560448201527f720000000000000000000000000000000000000000000000000000000000000060648201526084016104be565b6005546040517f70a0823100000000000000000000000000000000000000000000000000000000815230600482015273ffffffffffffffffffffffffffffffffffffffff9091169060009082906370a082319060240160206040518083038186803b15801561247e57600080fd5b505afa158015612492573d6000803e3d6000fd5b505050506040513d601f19601f820116820180604052508101906124b69190613411565b6003549091506124e59073ffffffffffffffffffffffffffffffffffffffff8481169161010090041683612e8f565b6003546040517fb6b55f250000000000000000000000000000000000000000000000000000000081526004810183905261010090910473ffffffffffffffffffffffffffffffffffffffff169063b6b55f2590602401600060405180830381600087803b15801561255557600080fd5b505af1158015612569573d6000803e3d6000fd5b505050505050565b60015473ffffffffffffffffffffffffffffffffffffffff163314612618576040517f08c379a000000000000000000000000000000000000000000000000000000000815260206004820152602160248201527f4175746f6d6174653a2063616c6c6572206973206e6f7420746865206f776e6560448201527f720000000000000000000000000000000000000000000000000000000000000060648201526084016104be565b600061263960015473ffffffffffffffffffffffffffffffffffffffff1690565b9050600360019054906101000a900473ffffffffffffffffffffffffffffffffffffffff1673ffffffffffffffffffffffffffffffffffffffff1663db2e21bc6040518163ffffffff1660e01b8152600401600060405180830381600087803b1580156126a557600080fd5b505af11580156126b9573d6000803e3d6000fd5b50506005546040517f70a0823100000000000000000000000000000000000000000000000000000000815230600482015273ffffffffffffffffffffffffffffffffffffffff909116925063a9059cbb9150839083906370a082319060240160206040518083038186803b15801561273057600080fd5b505afa158015612744573d6000803e3d6000fd5b505050506040513d601f19601f820116820180604052508101906127689190613411565b6040517fffffffff0000000000000000000000000000000000000000000000000000000060e085901b16815273ffffffffffffffffffffffffffffffffffffffff90921660048301526024820152604401602060405180830381600087803b1580156127d357600080fd5b505af11580156127e7573d6000803e3d6000fd5b505050506040513d601f19601f8201168201806040525081019061280b91906133a4565b506006546040517f70a0823100000000000000000000000000000000000000000000000000000000815230600482015273ffffffffffffffffffffffffffffffffffffffff9091169063a9059cbb90839083906370a082319060240160206040518083038186803b15801561287f57600080fd5b505afa158015612893573d6000803e3d6000fd5b505050506040513d601f19601f820116820180604052508101906128b79190613411565b6040517fffffffff0000000000000000000000000000000000000000000000000000000060e085901b16815273ffffffffffffffffffffffffffffffffffffffff90921660048301526024820152604401602060405180830381600087803b15801561292257600080fd5b505af1158015612936573d6000803e3d6000fd5b505050506040513d601f19601f8201168201806040525081019061295a91906133a4565b5050565b60015473ffffffffffffffffffffffffffffffffffffffff163314612a05576040517f08c379a000000000000000000000000000000000000000000000000000000000815260206004820152602160248201527f4175746f6d6174653a2063616c6c6572206973206e6f7420746865206f776e6560448201527f720000000000000000000000000000000000000000000000000000000000000060648201526084016104be565b6040517f6b880718000000000000000000000000000000000000000000000000000000008152306004820181905290731F59Ee3B1ff055Be0b84BcB6D7beAa7f984fFf2e90636b8807189060240160206040518083038186803b158015612a6b57600080fd5b505af4158015612a7f573d6000803e3d6000fd5b505050506040513d601f19601f82011682018060405250810190612aa39190613251565b73ffffffffffffffffffffffffffffffffffffffff1614612b46576040517f08c379a000000000000000000000000000000000000000000000000000000000815260206004820152602160248201527f4175746f6d6174653a206368616e676520746865206f776e6572206661696c6560448201527f640000000000000000000000000000000000000000000000000000000000000060648201526084016104be565b6001805473ffffffffffffffffffffffffffffffffffffffff8381167fffffffffffffffffffffffff0000000000000000000000000000000000000000831681179093556040519116919082907f8be0079c531659141344cd1fd0a4f28419497f9722a3daafe3b4186f6b6457e090600090a35050565b6000612bc76116f1565b15612c2e576040517f08c379a000000000000000000000000000000000000000000000000000000000815260206004820152601060248201527f4175746f6d6174653a207061757365640000000000000000000000000000000060448201526064016104be565b6000612c4f60015473ffffffffffffffffffffffffffffffffffffffff1690565b90503273ffffffffffffffffffffffffffffffffffffffff82161415612c79576000915050612e89565b6000612c83610d45565b6040517f21f8a7210000000000000000000000000000000000000000000000000000000081527fe78c16c6d839536d3155985aab4e9c6013c8c3d446054bcebc48612f359d81f5600482015290915060009073ffffffffffffffffffffffffffffffffffffffff8316906321f8a7219060240160206040518083038186803b158015612d0e57600080fd5b505afa158015612d22573d6000803e3d6000fd5b505050506040513d601f19601f82011682018060405250810190612d469190613251565b905073ffffffffffffffffffffffffffffffffffffffff8116612deb576040517f08c379a000000000000000000000000000000000000000000000000000000000815260206004820152602b60248201527f4175746f6d6174653a3a5f62696c6c3a2062616c616e636520636f6e7472616360448201527f74206e6f7420666f756e6400000000000000000000000000000000000000000060648201526084016104be565b8073ffffffffffffffffffffffffffffffffffffffff1663e578a2258488612e11611e5a565b896040518563ffffffff1660e01b8152600401612e31949392919061356b565b602060405180830381600087803b158015612e4b57600080fd5b505af1158015612e5f573d6000803e3d6000fd5b505050506040513d601f19601f82011682018060405250810190612e839190613411565b93505050505b92915050565b6040517fdd62ed3e00000000000000000000000000000000000000000000000000000000815230600482015273ffffffffffffffffffffffffffffffffffffffff83811660248301526000919085169063dd62ed3e9060440160206040518083038186803b158015612f0057600080fd5b505afa158015612f14573d6000803e3d6000fd5b505050506040513d601f19601f82011682018060405250810190612f389190613411565b90508015801590612f4857508181105b15612ff7576040517f095ea7b300000000000000000000000000000000000000000000000000000000815273ffffffffffffffffffffffffffffffffffffffff84811660048301526000602483015285169063095ea7b390604401602060405180830381600087803b158015612fbd57600080fd5b505af1158015612fd1573d6000803e3d6000fd5b505050506040513d601f19601f82011682018060405250810190612ff591906133a4565b505b8181146116eb576040517f095ea7b300000000000000000000000000000000000000000000000000000000815273ffffffffffffffffffffffffffffffffffffffff84811660048301526024820184905285169063095ea7b390604401602060405180830381600087803b15801561306e57600080fd5b505af1158015613082573d6000803e3d6000fd5b505050506040513d601f19601f820116820180604052508101906130a691906133a4565b5050505050565b82600184516130bc91906137a9565b815181106130cc576130cc6137ef565b602002602001015173ffffffffffffffffffffffffffffffffffffffff16836000815181106130fd576130fd6137ef565b602002602001015173ffffffffffffffffffffffffffffffffffffffff16141561312657505050565b60048054835160208501516040517f38ed173900000000000000000000000000000000000000000000000000000000815273ffffffffffffffffffffffffffffffffffffffff909316936338ed1739936131889392918991309189910161360a565b600060405180830381600087803b1580156131a257600080fd5b505af11580156131b6573d6000803e3d6000fd5b505050506040513d6000823e601f3d9081017fffffffffffffffffffffffffffffffffffffffffffffffffffffffffffffffe01682016040526116eb9190810190613307565b803561ffff8116811461320e57600080fd5b919050565b805169ffffffffffffffffffff8116811461320e57600080fd5b60006020828403121561323f57600080fd5b813561324a8161384d565b9392505050565b60006020828403121561326357600080fd5b815161324a8161384d565b6000806000806080858703121561328457600080fd5b843561328f8161384d565b9350602085013561329f8161384d565b92506132ad604086016131fc565b91506132bb606086016131fc565b905092959194509250565b6000806000606084860312156132db57600080fd5b83356132e68161384d565b925060208401356132f68161384d565b929592945050506040919091013590565b6000602080838503121561331a57600080fd5b825167ffffffffffffffff81111561333157600080fd5b8301601f8101851361334257600080fd5b80516133556133508261370d565b6136be565b80828252848201915084840188868560051b870101111561337557600080fd5b600094505b8385101561339857805183526001949094019391850191850161337a565b50979650505050505050565b6000602082840312156133b657600080fd5b8151801515811461324a57600080fd5b6000602082840312156133d857600080fd5b5035919050565b6000604082840312156133f157600080fd5b6133f9613695565b82518152602083015160208201528091505092915050565b60006020828403121561342357600080fd5b5051919050565b60008060006060848603121561343f57600080fd5b833592506020808501359250604085013567ffffffffffffffff8082111561346657600080fd5b908601906040828903121561347a57600080fd5b613482613695565b82358281111561349157600080fd5b83019150601f820189136134a457600080fd5b81356134b26133508261370d565b8082825286820191508685018c888560051b88010111156134d257600080fd5b600095505b838610156134fe5780356134ea8161384d565b8352600195909501949187019187016134d7565b508084525050508383013584820152809450505050509250925092565b600080600080600060a0868803121561353357600080fd5b61353c86613213565b945060208601519350604086015192506060860151915061355f60808701613213565b90509295509295909350565b73ffffffffffffffffffffffffffffffffffffffff8516815260006020858184015284604084015260806060840152835180608085015260005b818110156135c15785810183015185820160a0015282016135a5565b818111156135d357600060a083870101525b50601f017fffffffffffffffffffffffffffffffffffffffffffffffffffffffffffffffe0169290920160a0019695505050505050565b600060a082018783526020878185015260a0604085015281875180845260c086019150828901935060005b8181101561366757845173ffffffffffffffffffffffffffffffffffffffff1683529383019391830191600101613635565b505073ffffffffffffffffffffffffffffffffffffffff969096166060850152505050608001529392505050565b6040805190810167ffffffffffffffff811182821017156136b8576136b861381e565b60405290565b604051601f82017fffffffffffffffffffffffffffffffffffffffffffffffffffffffffffffffe016810167ffffffffffffffff811182821017156137055761370561381e565b604052919050565b600067ffffffffffffffff8211156137275761372761381e565b5060051b60200190565b600082613767577f4e487b7100000000000000000000000000000000000000000000000000000000600052601260045260246000fd5b500490565b6000817fffffffffffffffffffffffffffffffffffffffffffffffffffffffffffffffff04831182151516156137a4576137a46137c0565b500290565b6000828210156137bb576137bb6137c0565b500390565b7f4e487b7100000000000000000000000000000000000000000000000000000000600052601160045260246000fd5b7f4e487b7100000000000000000000000000000000000000000000000000000000600052603260045260246000fd5b7f4e487b7100000000000000000000000000000000000000000000000000000000600052604160045260246000fd5b73ffffffffffffffffffffffffffffffffffffffff8116811461386f57600080fd5b5056fe50616e63616b6553776170536d61727443686566496e697469616c697a61626c65a164736f6c6343000806000a",
  "deployedBytecode": "0x608060405234801561001057600080fd5b506004361061016c5760003560e01c806372f702f3116100cd578063beabacc811610081578063db2e21bc11610066578063db2e21bc14610323578063f2fde38b1461032b578063f7c618c11461033e57600080fd5b8063beabacc814610308578063d0e30db01461031b57600080fd5b80638da5cb5b116100b25780638da5cb5b146102c15780639742b5c3146102df578063b0e21e8a146102f257600080fd5b806372f702f3146102995780638456cb59146102b957600080fd5b80633e032a3b116101245780634cf088d9116101095780634cf088d914610254578063590e1ae3146102795780635c975abb1461028157600080fd5b80633e032a3b146102265780633f4ba83a1461024c57600080fd5b80632470294411610155578063247029441461019957806329dcb0cf146101e3578063370158ea1461021e57600080fd5b806313ead7c6146101715780631b586aff14610186575b600080fd5b61018461017f36600461342a565b61035e565b005b61018461019436600461326e565b61078d565b6004546101b99073ffffffffffffffffffffffffffffffffffffffff1681565b60405173ffffffffffffffffffffffffffffffffffffffff90911681526020015b60405180910390f35b60045461020b90760100000000000000000000000000000000000000000000900461ffff1681565b60405161ffff90911681526020016101da565b6101b9610d45565b60045461020b9074010000000000000000000000000000000000000000900461ffff1681565b610184610ea7565b6003546101b990610100900473ffffffffffffffffffffffffffffffffffffffff1681565b610184611239565b6102896116f1565b60405190151581526020016101da565b6005546101b99073ffffffffffffffffffffffffffffffffffffffff1681565b610184611876565b60015473ffffffffffffffffffffffffffffffffffffffff166101b9565b6101846102ed3660046133c6565b611c20565b6102fa611e5a565b6040519081526020016101da565b6101846103163660046132c6565b612267565b610184612369565b610184612571565b61018461033936600461322d565b61295e565b6006546101b99073ffffffffffffffffffffffffffffffffffffffff1681565b82604051806060016040528060218152602001613873602191396103828282612bbd565b506003546005546040517ff40f0f5200000000000000000000000000000000000000000000000000000000815230600482015261010090920473ffffffffffffffffffffffffffffffffffffffff90811692911690600090839063f40f0f529060240160206040518083038186803b1580156103fd57600080fd5b505afa158015610411573d6000803e3d6000fd5b505050506040513d601f19601f820116820180604052508101906104359190613411565b116104c7576040517f08c379a000000000000000000000000000000000000000000000000000000000815260206004820152602d60248201527f536d61727443686566496e697469616c697a61626c6552657374616b653a3a7260448201527f756e3a206e6f206561726e65640000000000000000000000000000000000000060648201526084015b60405180910390fd5b6040517fb6b55f250000000000000000000000000000000000000000000000000000000081526000600482015273ffffffffffffffffffffffffffffffffffffffff83169063b6b55f2590602401600060405180830381600087803b15801561052f57600080fd5b505af1158015610543573d6000803e3d6000fd5b50506006546040517f70a082310000000000000000000000000000000000000000000000000000000081523060048201526000935073ffffffffffffffffffffffffffffffffffffffff90911691506370a082319060240160206040518083038186803b1580156105b357600080fd5b505afa1580156105c7573d6000803e3d6000fd5b505050506040513d601f19601f820116820180604052508101906105eb9190613411565b6004546006549192506106189173ffffffffffffffffffffffffffffffffffffffff908116911683612e8f565b61063f866000015160405180604001604052808481526020018960200151815250896130ad565b6040517f70a0823100000000000000000000000000000000000000000000000000000000815230600482015260009073ffffffffffffffffffffffffffffffffffffffff8416906370a082319060240160206040518083038186803b1580156106a757600080fd5b505afa1580156106bb573d6000803e3d6000fd5b505050506040513d601f19601f820116820180604052508101906106df9190613411565b905061070273ffffffffffffffffffffffffffffffffffffffff84168583612e8f565b6040517fb6b55f250000000000000000000000000000000000000000000000000000000081526004810182905273ffffffffffffffffffffffffffffffffffffffff85169063b6b55f2590602401600060405180830381600087803b15801561076a57600080fd5b505af115801561077e573d6000803e3d6000fd5b50505050505050505050505050565b60015473ffffffffffffffffffffffffffffffffffffffff166107fd57600180547fffffffffffffffffffffffff000000000000000000000000000000000000000016321790557fffffffffffffffffffffffffffffffffffffffffffffffffffffffffffffffff6002556108a4565b60015473ffffffffffffffffffffffffffffffffffffffff1633146108a4576040517f08c379a000000000000000000000000000000000000000000000000000000000815260206004820152602160248201527f4175746f6d6174653a2063616c6c6572206973206e6f7420746865206f776e6560448201527f720000000000000000000000000000000000000000000000000000000000000060648201526084016104be565b60035460ff1615806108d5575060035473ffffffffffffffffffffffffffffffffffffffff85811661010090920416145b610987576040517f08c379a000000000000000000000000000000000000000000000000000000000815260206004820152604b60248201527f536d61727443686566496e697469616c697a61626c6552657374616b653a3a6960448201527f6e69743a207265696e697469616c697a65207374616b696e672061646472657360648201527f7320666f7262696464656e000000000000000000000000000000000000000000608482015260a4016104be565b6003805473ffffffffffffffffffffffffffffffffffffffff8616610100027fffffffffffffffffffffff0000000000000000000000000000000000000000ff8216811790925560ff91821691161715806109fc575060045473ffffffffffffffffffffffffffffffffffffffff8481169116145b610aae576040517f08c379a000000000000000000000000000000000000000000000000000000000815260206004820152605460248201527f536d61727443686566496e697469616c697a61626c6552657374616b653a3a6960448201527f6e69743a207265696e697469616c697a65206c697175696469747920726f757460648201527f6572206164647265737320666f7262696464656e000000000000000000000000608482015260a4016104be565b6004805461ffff838116760100000000000000000000000000000000000000000000027fffffffffffffffff0000ffffffffffffffffffffffffffffffffffffffffffff91861674010000000000000000000000000000000000000000027fffffffffffffffffffff0000000000000000000000000000000000000000000090931673ffffffffffffffffffffffffffffffffffffffff881617929092171617905560035460ff16610d1457600360019054906101000a900473ffffffffffffffffffffffffffffffffffffffff1673ffffffffffffffffffffffffffffffffffffffff1663cc7a262e6040518163ffffffff1660e01b815260040160206040518083038186803b158015610bc257600080fd5b505afa158015610bd6573d6000803e3d6000fd5b505050506040513d601f19601f82011682018060405250810190610bfa9190613251565b600580547fffffffffffffffffffffffff00000000000000000000000000000000000000001673ffffffffffffffffffffffffffffffffffffffff928316179055600354604080517ff7c618c100000000000000000000000000000000000000000000000000000000815290516101009092049092169163f7c618c1916004808301926020929190829003018186803b158015610c9657600080fd5b505afa158015610caa573d6000803e3d6000fd5b505050506040513d601f19601f82011682018060405250810190610cce9190613251565b600680547fffffffffffffffffffffffff00000000000000000000000000000000000000001673ffffffffffffffffffffffffffffffffffffffff929092169190911790555b5050600380547fffffffffffffffffffffffffffffffffffffffffffffffffffffffffffffff001660011790555050565b6040517f6b880718000000000000000000000000000000000000000000000000000000008152306004820152600090819073__$0fb85c1a108326fe5c0d8f2f5a241bc0e7$__90636b8807189060240160206040518083038186803b158015610dad57600080fd5b505af4158015610dc1573d6000803e3d6000fd5b505050506040513d601f19601f82011682018060405250810190610de59190613251565b905073ffffffffffffffffffffffffffffffffffffffff8116301415610e2357505060005473ffffffffffffffffffffffffffffffffffffffff1690565b8073ffffffffffffffffffffffffffffffffffffffff1663370158ea6040518163ffffffff1660e01b815260040160206040518083038186803b158015610e6957600080fd5b505afa158015610e7d573d6000803e3d6000fd5b505050506040513d601f19601f82011682018060405250810190610ea19190613251565b91505090565b6040517f6b88071800000000000000000000000000000000000000000000000000000000815230600482018190529073__$0fb85c1a108326fe5c0d8f2f5a241bc0e7$__90636b8807189060240160206040518083038186803b158015610f0d57600080fd5b505af4158015610f21573d6000803e3d6000fd5b505050506040513d601f19601f82011682018060405250810190610f459190613251565b73ffffffffffffffffffffffffffffffffffffffff1614156110fa576000610f6b610d45565b6040517f21f8a7210000000000000000000000000000000000000000000000000000000081527f689d13d8ed8ef1027633ba26e7121121cf427434450a529548f19bf175974395600482015273ffffffffffffffffffffffffffffffffffffffff91909116906321f8a7219060240160206040518083038186803b158015610ff257600080fd5b505afa158015611006573d6000803e3d6000fd5b505050506040513d601f19601f8201168201806040525081019061102a9190613251565b60015490915073ffffffffffffffffffffffffffffffffffffffff1633148061106857503373ffffffffffffffffffffffffffffffffffffffff8216145b6110f4576040517f08c379a000000000000000000000000000000000000000000000000000000000815260206004820152602260248201527f4175746f6d6174653a2063616c6c6572206973206e6f7420746865207061757360448201527f657200000000000000000000000000000000000000000000000000000000000060648201526084016104be565b506111a1565b60015473ffffffffffffffffffffffffffffffffffffffff1633146111a1576040517f08c379a000000000000000000000000000000000000000000000000000000000815260206004820152602260248201527f4175746f6d6174653a2063616c6c6572206973206e6f7420746865207061757360448201527f657200000000000000000000000000000000000000000000000000000000000060648201526084016104be565b6111a96116f1565b61120f576040517f08c379a000000000000000000000000000000000000000000000000000000000815260206004820152601460248201527f4175746f6d6174653a206e6f742070617573656400000000000000000000000060448201526064016104be565b600180547fffffffffffffffffffffff00ffffffffffffffffffffffffffffffffffffffff169055565b60015473ffffffffffffffffffffffffffffffffffffffff1633146112e0576040517f08c379a000000000000000000000000000000000000000000000000000000000815260206004820152602160248201527f4175746f6d6174653a2063616c6c6572206973206e6f7420746865206f776e6560448201527f720000000000000000000000000000000000000000000000000000000000000060648201526084016104be565b60035473ffffffffffffffffffffffffffffffffffffffff61010090910416600061132060015473ffffffffffffffffffffffffffffffffffffffff1690565b6040517f1959a00200000000000000000000000000000000000000000000000000000000815230600482015290915060009073ffffffffffffffffffffffffffffffffffffffff841690631959a00290602401604080518083038186803b15801561138a57600080fd5b505afa15801561139e573d6000803e3d6000fd5b505050506040513d601f19601f820116820180604052508101906113c291906133df565b80516040517f2e1a7d4d00000000000000000000000000000000000000000000000000000000815291925073ffffffffffffffffffffffffffffffffffffffff851691632e1a7d4d9161141b9160040190815260200190565b600060405180830381600087803b15801561143557600080fd5b505af1158015611449573d6000803e3d6000fd5b50506005546040517f70a0823100000000000000000000000000000000000000000000000000000000815230600482015273ffffffffffffffffffffffffffffffffffffffff909116925063a9059cbb9150849083906370a082319060240160206040518083038186803b1580156114c057600080fd5b505afa1580156114d4573d6000803e3d6000fd5b505050506040513d601f19601f820116820180604052508101906114f89190613411565b6040517fffffffff0000000000000000000000000000000000000000000000000000000060e085901b16815273ffffffffffffffffffffffffffffffffffffffff90921660048301526024820152604401602060405180830381600087803b15801561156357600080fd5b505af1158015611577573d6000803e3d6000fd5b505050506040513d601f19601f8201168201806040525081019061159b91906133a4565b506006546040517f70a0823100000000000000000000000000000000000000000000000000000000815230600482015273ffffffffffffffffffffffffffffffffffffffff9091169063a9059cbb90849083906370a082319060240160206040518083038186803b15801561160f57600080fd5b505afa158015611623573d6000803e3d6000fd5b505050506040513d601f19601f820116820180604052508101906116479190613411565b6040517fffffffff0000000000000000000000000000000000000000000000000000000060e085901b16815273ffffffffffffffffffffffffffffffffffffffff909216600483015260248201526044015b602060405180830381600087803b1580156116b357600080fd5b505af11580156116c7573d6000803e3d6000fd5b505050506040513d601f19601f820116820180604052508101906116eb91906133a4565b50505050565b6040517f6b880718000000000000000000000000000000000000000000000000000000008152306004820152600090819073__$0fb85c1a108326fe5c0d8f2f5a241bc0e7$__90636b8807189060240160206040518083038186803b15801561175957600080fd5b505af415801561176d573d6000803e3d6000fd5b505050506040513d601f19601f820116820180604052508101906117919190613251565b905073ffffffffffffffffffffffffffffffffffffffff81163014156117d457505060015474010000000000000000000000000000000000000000900460ff1690565b60015474010000000000000000000000000000000000000000900460ff1680610ea157508073ffffffffffffffffffffffffffffffffffffffff16635c975abb6040518163ffffffff1660e01b815260040160206040518083038186803b15801561183e57600080fd5b505afa158015611852573d6000803e3d6000fd5b505050506040513d601f19601f82011682018060405250810190610ea191906133a4565b6040517f6b88071800000000000000000000000000000000000000000000000000000000815230600482018190529073__$0fb85c1a108326fe5c0d8f2f5a241bc0e7$__90636b8807189060240160206040518083038186803b1580156118dc57600080fd5b505af41580156118f0573d6000803e3d6000fd5b505050506040513d601f19601f820116820180604052508101906119149190613251565b73ffffffffffffffffffffffffffffffffffffffff161415611ac957600061193a610d45565b6040517f21f8a7210000000000000000000000000000000000000000000000000000000081527f689d13d8ed8ef1027633ba26e7121121cf427434450a529548f19bf175974395600482015273ffffffffffffffffffffffffffffffffffffffff91909116906321f8a7219060240160206040518083038186803b1580156119c157600080fd5b505afa1580156119d5573d6000803e3d6000fd5b505050506040513d601f19601f820116820180604052508101906119f99190613251565b60015490915073ffffffffffffffffffffffffffffffffffffffff16331480611a3757503373ffffffffffffffffffffffffffffffffffffffff8216145b611ac3576040517f08c379a000000000000000000000000000000000000000000000000000000000815260206004820152602260248201527f4175746f6d6174653a2063616c6c6572206973206e6f7420746865207061757360448201527f657200000000000000000000000000000000000000000000000000000000000060648201526084016104be565b50611b70565b60015473ffffffffffffffffffffffffffffffffffffffff163314611b70576040517f08c379a000000000000000000000000000000000000000000000000000000000815260206004820152602260248201527f4175746f6d6174653a2063616c6c6572206973206e6f7420746865207061757360448201527f657200000000000000000000000000000000000000000000000000000000000060648201526084016104be565b611b786116f1565b15611bdf576040517f08c379a000000000000000000000000000000000000000000000000000000000815260206004820152601060248201527f4175746f6d6174653a207061757365640000000000000000000000000000000060448201526064016104be565b600180547fffffffffffffffffffffff00ffffffffffffffffffffffffffffffffffffffff1674010000000000000000000000000000000000000000179055565b6040517f6b88071800000000000000000000000000000000000000000000000000000000815230600482015260009073__$0fb85c1a108326fe5c0d8f2f5a241bc0e7$__90636b8807189060240160206040518083038186803b158015611c8657600080fd5b505af4158015611c9a573d6000803e3d6000fd5b505050506040513d601f19601f82011682018060405250810190611cbe9190613251565b90503373ffffffffffffffffffffffffffffffffffffffff82163014611d61578173ffffffffffffffffffffffffffffffffffffffff16638da5cb5b6040518163ffffffff1660e01b815260040160206040518083038186803b158015611d2457600080fd5b505afa158015611d38573d6000803e3d6000fd5b505050506040513d601f19601f82011682018060405250810190611d5c9190613251565b611d7b565b60015473ffffffffffffffffffffffffffffffffffffffff165b73ffffffffffffffffffffffffffffffffffffffff1614611e1e576040517f08c379a000000000000000000000000000000000000000000000000000000000815260206004820152603d60248201527f4175746f6d6174653a3a6368616e676550726f746f636f6c4665653a2063616c60448201527f6c6572206973206e6f74207468652070726f746f636f6c206f776e657200000060648201526084016104be565b60028290556040518281527f3c1d43943224e49d951ce8295a5c8332b517083b3f89bed50feae2cb39caebb59060200160405180910390a15050565b6040517f6b880718000000000000000000000000000000000000000000000000000000008152306004820152600090819073__$0fb85c1a108326fe5c0d8f2f5a241bc0e7$__90636b8807189060240160206040518083038186803b158015611ec257600080fd5b505af4158015611ed6573d6000803e3d6000fd5b505050506040513d601f19601f82011682018060405250810190611efa9190613251565b905073ffffffffffffffffffffffffffffffffffffffff81163014801590611f2457506000600254125b15611fa7578073ffffffffffffffffffffffffffffffffffffffff1663b0e21e8a6040518163ffffffff1660e01b815260040160206040518083038186803b158015611f6f57600080fd5b505afa158015611f83573d6000803e3d6000fd5b505050506040513d601f19601f82011682018060405250810190610ea19190613411565b6000611fb1610d45565b905060008060025412611fc657600254612083565b6040517fbd02d0f50000000000000000000000000000000000000000000000000000000081527fa93d95f96a5de25d7a41ddf1f5e8d45cfc929c4838163cf011dab4043a4a40d5600482015273ffffffffffffffffffffffffffffffffffffffff83169063bd02d0f59060240160206040518083038186803b15801561204b57600080fd5b505afa15801561205f573d6000803e3d6000fd5b505050506040513d601f19601f820116820180604052508101906120839190613411565b905080612094576000935050505090565b6040517f21f8a7210000000000000000000000000000000000000000000000000000000081527f65c90423fe7c880476633a7e36521740f87199d233dc56eb4ca6643eb76f605f600482015260009073ffffffffffffffffffffffffffffffffffffffff8416906321f8a7219060240160206040518083038186803b15801561211c57600080fd5b505afa158015612130573d6000803e3d6000fd5b505050506040513d601f19601f820116820180604052508101906121549190613251565b73ffffffffffffffffffffffffffffffffffffffff1663feaf968c6040518163ffffffff1660e01b815260040160a06040518083038186803b15801561219957600080fd5b505afa1580156121ad573d6000803e3d6000fd5b505050506040513d601f19601f820116820180604052508101906121d1919061351b565b50505091505060008113612241576040517f08c379a000000000000000000000000000000000000000000000000000000000815260206004820152601760248201527f4175746f6d6174653a20696e76616c696420707269636500000000000000000060448201526064016104be565b8061225483670de0b6b3a764000061376c565b61225e9190613731565b94505050505090565b60015473ffffffffffffffffffffffffffffffffffffffff16331461230e576040517f08c379a000000000000000000000000000000000000000000000000000000000815260206004820152602160248201527f4175746f6d6174653a2063616c6c6572206973206e6f7420746865206f776e6560448201527f720000000000000000000000000000000000000000000000000000000000000060648201526084016104be565b6040517fa9059cbb00000000000000000000000000000000000000000000000000000000815273ffffffffffffffffffffffffffffffffffffffff83811660048301526024820183905284169063a9059cbb90604401611699565b60015473ffffffffffffffffffffffffffffffffffffffff163314612410576040517f08c379a000000000000000000000000000000000000000000000000000000000815260206004820152602160248201527f4175746f6d6174653a2063616c6c6572206973206e6f7420746865206f776e6560448201527f720000000000000000000000000000000000000000000000000000000000000060648201526084016104be565b6005546040517f70a0823100000000000000000000000000000000000000000000000000000000815230600482015273ffffffffffffffffffffffffffffffffffffffff9091169060009082906370a082319060240160206040518083038186803b15801561247e57600080fd5b505afa158015612492573d6000803e3d6000fd5b505050506040513d601f19601f820116820180604052508101906124b69190613411565b6003549091506124e59073ffffffffffffffffffffffffffffffffffffffff8481169161010090041683612e8f565b6003546040517fb6b55f250000000000000000000000000000000000000000000000000000000081526004810183905261010090910473ffffffffffffffffffffffffffffffffffffffff169063b6b55f2590602401600060405180830381600087803b15801561255557600080fd5b505af1158015612569573d6000803e3d6000fd5b505050505050565b60015473ffffffffffffffffffffffffffffffffffffffff163314612618576040517f08c379a000000000000000000000000000000000000000000000000000000000815260206004820152602160248201527f4175746f6d6174653a2063616c6c6572206973206e6f7420746865206f776e6560448201527f720000000000000000000000000000000000000000000000000000000000000060648201526084016104be565b600061263960015473ffffffffffffffffffffffffffffffffffffffff1690565b9050600360019054906101000a900473ffffffffffffffffffffffffffffffffffffffff1673ffffffffffffffffffffffffffffffffffffffff1663db2e21bc6040518163ffffffff1660e01b8152600401600060405180830381600087803b1580156126a557600080fd5b505af11580156126b9573d6000803e3d6000fd5b50506005546040517f70a0823100000000000000000000000000000000000000000000000000000000815230600482015273ffffffffffffffffffffffffffffffffffffffff909116925063a9059cbb9150839083906370a082319060240160206040518083038186803b15801561273057600080fd5b505afa158015612744573d6000803e3d6000fd5b505050506040513d601f19601f820116820180604052508101906127689190613411565b6040517fffffffff0000000000000000000000000000000000000000000000000000000060e085901b16815273ffffffffffffffffffffffffffffffffffffffff90921660048301526024820152604401602060405180830381600087803b1580156127d357600080fd5b505af11580156127e7573d6000803e3d6000fd5b505050506040513d601f19601f8201168201806040525081019061280b91906133a4565b506006546040517f70a0823100000000000000000000000000000000000000000000000000000000815230600482015273ffffffffffffffffffffffffffffffffffffffff9091169063a9059cbb90839083906370a082319060240160206040518083038186803b15801561287f57600080fd5b505afa158015612893573d6000803e3d6000fd5b505050506040513d601f19601f820116820180604052508101906128b79190613411565b6040517fffffffff0000000000000000000000000000000000000000000000000000000060e085901b16815273ffffffffffffffffffffffffffffffffffffffff90921660048301526024820152604401602060405180830381600087803b15801561292257600080fd5b505af1158015612936573d6000803e3d6000fd5b505050506040513d601f19601f8201168201806040525081019061295a91906133a4565b5050565b60015473ffffffffffffffffffffffffffffffffffffffff163314612a05576040517f08c379a000000000000000000000000000000000000000000000000000000000815260206004820152602160248201527f4175746f6d6174653a2063616c6c6572206973206e6f7420746865206f776e6560448201527f720000000000000000000000000000000000000000000000000000000000000060648201526084016104be565b6040517f6b88071800000000000000000000000000000000000000000000000000000000815230600482018190529073__$0fb85c1a108326fe5c0d8f2f5a241bc0e7$__90636b8807189060240160206040518083038186803b158015612a6b57600080fd5b505af4158015612a7f573d6000803e3d6000fd5b505050506040513d601f19601f82011682018060405250810190612aa39190613251565b73ffffffffffffffffffffffffffffffffffffffff1614612b46576040517f08c379a000000000000000000000000000000000000000000000000000000000815260206004820152602160248201527f4175746f6d6174653a206368616e676520746865206f776e6572206661696c6560448201527f640000000000000000000000000000000000000000000000000000000000000060648201526084016104be565b6001805473ffffffffffffffffffffffffffffffffffffffff8381167fffffffffffffffffffffffff0000000000000000000000000000000000000000831681179093556040519116919082907f8be0079c531659141344cd1fd0a4f28419497f9722a3daafe3b4186f6b6457e090600090a35050565b6000612bc76116f1565b15612c2e576040517f08c379a000000000000000000000000000000000000000000000000000000000815260206004820152601060248201527f4175746f6d6174653a207061757365640000000000000000000000000000000060448201526064016104be565b6000612c4f60015473ffffffffffffffffffffffffffffffffffffffff1690565b90503273ffffffffffffffffffffffffffffffffffffffff82161415612c79576000915050612e89565b6000612c83610d45565b6040517f21f8a7210000000000000000000000000000000000000000000000000000000081527fe78c16c6d839536d3155985aab4e9c6013c8c3d446054bcebc48612f359d81f5600482015290915060009073ffffffffffffffffffffffffffffffffffffffff8316906321f8a7219060240160206040518083038186803b158015612d0e57600080fd5b505afa158015612d22573d6000803e3d6000fd5b505050506040513d601f19601f82011682018060405250810190612d469190613251565b905073ffffffffffffffffffffffffffffffffffffffff8116612deb576040517f08c379a000000000000000000000000000000000000000000000000000000000815260206004820152602b60248201527f4175746f6d6174653a3a5f62696c6c3a2062616c616e636520636f6e7472616360448201527f74206e6f7420666f756e6400000000000000000000000000000000000000000060648201526084016104be565b8073ffffffffffffffffffffffffffffffffffffffff1663e578a2258488612e11611e5a565b896040518563ffffffff1660e01b8152600401612e31949392919061356b565b602060405180830381600087803b158015612e4b57600080fd5b505af1158015612e5f573d6000803e3d6000fd5b505050506040513d601f19601f82011682018060405250810190612e839190613411565b93505050505b92915050565b6040517fdd62ed3e00000000000000000000000000000000000000000000000000000000815230600482015273ffffffffffffffffffffffffffffffffffffffff83811660248301526000919085169063dd62ed3e9060440160206040518083038186803b158015612f0057600080fd5b505afa158015612f14573d6000803e3d6000fd5b505050506040513d601f19601f82011682018060405250810190612f389190613411565b90508015801590612f4857508181105b15612ff7576040517f095ea7b300000000000000000000000000000000000000000000000000000000815273ffffffffffffffffffffffffffffffffffffffff84811660048301526000602483015285169063095ea7b390604401602060405180830381600087803b158015612fbd57600080fd5b505af1158015612fd1573d6000803e3d6000fd5b505050506040513d601f19601f82011682018060405250810190612ff591906133a4565b505b8181146116eb576040517f095ea7b300000000000000000000000000000000000000000000000000000000815273ffffffffffffffffffffffffffffffffffffffff84811660048301526024820184905285169063095ea7b390604401602060405180830381600087803b15801561306e57600080fd5b505af1158015613082573d6000803e3d6000fd5b505050506040513d601f19601f820116820180604052508101906130a691906133a4565b5050505050565b82600184516130bc91906137a9565b815181106130cc576130cc6137ef565b602002602001015173ffffffffffffffffffffffffffffffffffffffff16836000815181106130fd576130fd6137ef565b602002602001015173ffffffffffffffffffffffffffffffffffffffff16141561312657505050565b60048054835160208501516040517f38ed173900000000000000000000000000000000000000000000000000000000815273ffffffffffffffffffffffffffffffffffffffff909316936338ed1739936131889392918991309189910161360a565b600060405180830381600087803b1580156131a257600080fd5b505af11580156131b6573d6000803e3d6000fd5b505050506040513d6000823e601f3d9081017fffffffffffffffffffffffffffffffffffffffffffffffffffffffffffffffe01682016040526116eb9190810190613307565b803561ffff8116811461320e57600080fd5b919050565b805169ffffffffffffffffffff8116811461320e57600080fd5b60006020828403121561323f57600080fd5b813561324a8161384d565b9392505050565b60006020828403121561326357600080fd5b815161324a8161384d565b6000806000806080858703121561328457600080fd5b843561328f8161384d565b9350602085013561329f8161384d565b92506132ad604086016131fc565b91506132bb606086016131fc565b905092959194509250565b6000806000606084860312156132db57600080fd5b83356132e68161384d565b925060208401356132f68161384d565b929592945050506040919091013590565b6000602080838503121561331a57600080fd5b825167ffffffffffffffff81111561333157600080fd5b8301601f8101851361334257600080fd5b80516133556133508261370d565b6136be565b80828252848201915084840188868560051b870101111561337557600080fd5b600094505b8385101561339857805183526001949094019391850191850161337a565b50979650505050505050565b6000602082840312156133b657600080fd5b8151801515811461324a57600080fd5b6000602082840312156133d857600080fd5b5035919050565b6000604082840312156133f157600080fd5b6133f9613695565b82518152602083015160208201528091505092915050565b60006020828403121561342357600080fd5b5051919050565b60008060006060848603121561343f57600080fd5b833592506020808501359250604085013567ffffffffffffffff8082111561346657600080fd5b908601906040828903121561347a57600080fd5b613482613695565b82358281111561349157600080fd5b83019150601f820189136134a457600080fd5b81356134b26133508261370d565b8082825286820191508685018c888560051b88010111156134d257600080fd5b600095505b838610156134fe5780356134ea8161384d565b8352600195909501949187019187016134d7565b508084525050508383013584820152809450505050509250925092565b600080600080600060a0868803121561353357600080fd5b61353c86613213565b945060208601519350604086015192506060860151915061355f60808701613213565b90509295509295909350565b73ffffffffffffffffffffffffffffffffffffffff8516815260006020858184015284604084015260806060840152835180608085015260005b818110156135c15785810183015185820160a0015282016135a5565b818111156135d357600060a083870101525b50601f017fffffffffffffffffffffffffffffffffffffffffffffffffffffffffffffffe0169290920160a0019695505050505050565b600060a082018783526020878185015260a0604085015281875180845260c086019150828901935060005b8181101561366757845173ffffffffffffffffffffffffffffffffffffffff1683529383019391830191600101613635565b505073ffffffffffffffffffffffffffffffffffffffff969096166060850152505050608001529392505050565b6040805190810167ffffffffffffffff811182821017156136b8576136b861381e565b60405290565b604051601f82017fffffffffffffffffffffffffffffffffffffffffffffffffffffffffffffffe016810167ffffffffffffffff811182821017156137055761370561381e565b604052919050565b600067ffffffffffffffff8211156137275761372761381e565b5060051b60200190565b600082613767577f4e487b7100000000000000000000000000000000000000000000000000000000600052601260045260246000fd5b500490565b6000817fffffffffffffffffffffffffffffffffffffffffffffffffffffffffffffffff04831182151516156137a4576137a46137c0565b500290565b6000828210156137bb576137bb6137c0565b500390565b7f4e487b7100000000000000000000000000000000000000000000000000000000600052601160045260246000fd5b7f4e487b7100000000000000000000000000000000000000000000000000000000600052603260045260246000fd5b7f4e487b7100000000000000000000000000000000000000000000000000000000600052604160045260246000fd5b73ffffffffffffffffffffffffffffffffffffffff8116811461386f57600080fd5b5056fe50616e63616b6553776170536d61727443686566496e697469616c697a61626c65a164736f6c6343000806000a",
  "libraries": {
    "ERC1167": "0x1F59Ee3B1ff055Be0b84BcB6D7beAa7f984fFf2e"
  },
  "devdoc": {
    "kind": "dev",
    "methods": {
      "changeProtocolFee(int256)": {
        "params": {
          "__protocolFee": "New protocol fee."
        }
      },
      "protocolFee()": {
        "returns": {
          "_0": "Current protocol fee."
        }
      },
      "transfer(address,address,uint256)": {
        "params": {
          "amount": "Transferred amount of tokens.",
          "recipient": "Token recipient address.",
          "token": "The address of the token to be transferred."
        }
      },
      "transferOwnership(address)": {
        "details": "Transfers ownership of the contract to a new account (`newOwner`). Can only be called by the current owner."
      }
    },
    "version": 1
  },
  "userdoc": {
    "kind": "user",
    "methods": {
      "changeProtocolFee(int256)": {
        "notice": "Change protocol fee."
      },
      "info()": {
        "notice": "Returns address of Storage contract."
      },
      "owner()": {
        "notice": "Returns the address of the current owner."
      },
      "pause()": {
        "notice": "Pause contract."
      },
      "paused()": {
        "notice": "Returns true if the contract is paused, and false otherwise."
      },
      "transfer(address,address,uint256)": {
        "notice": "Transfer ERC20 token to recipient."
      },
      "unpause()": {
        "notice": "Unpause contract."
      }
    },
    "notice": "Use with simple token only.",
    "version": 1
  },
  "storageLayout": {
    "storage": [
      {
        "astId": 2680,
        "contract": "contracts/SmartChefInitializableRestake.automate.sol:SmartChefInitializableRestake",
        "label": "_info",
        "offset": 0,
        "slot": "0",
        "type": "t_address"
      },
      {
        "astId": 2683,
        "contract": "contracts/SmartChefInitializableRestake.automate.sol:SmartChefInitializableRestake",
        "label": "_owner",
        "offset": 0,
        "slot": "1",
        "type": "t_address"
      },
      {
        "astId": 2686,
        "contract": "contracts/SmartChefInitializableRestake.automate.sol:SmartChefInitializableRestake",
        "label": "_paused",
        "offset": 20,
        "slot": "1",
        "type": "t_bool"
      },
      {
        "astId": 2689,
        "contract": "contracts/SmartChefInitializableRestake.automate.sol:SmartChefInitializableRestake",
        "label": "_protocolFee",
        "offset": 0,
        "slot": "2",
        "type": "t_int256"
      },
      {
        "astId": 2692,
        "contract": "contracts/SmartChefInitializableRestake.automate.sol:SmartChefInitializableRestake",
        "label": "_initialized",
        "offset": 0,
        "slot": "3",
        "type": "t_bool"
      },
      {
        "astId": 2289,
        "contract": "contracts/SmartChefInitializableRestake.automate.sol:SmartChefInitializableRestake",
        "label": "staking",
        "offset": 1,
        "slot": "3",
        "type": "t_contract(ISmartChefInitializable)312"
      },
      {
        "astId": 2291,
        "contract": "contracts/SmartChefInitializableRestake.automate.sol:SmartChefInitializableRestake",
        "label": "liquidityRouter",
        "offset": 0,
        "slot": "4",
        "type": "t_address"
      },
      {
        "astId": 2293,
        "contract": "contracts/SmartChefInitializableRestake.automate.sol:SmartChefInitializableRestake",
        "label": "slippage",
        "offset": 20,
        "slot": "4",
        "type": "t_uint16"
      },
      {
        "astId": 2295,
        "contract": "contracts/SmartChefInitializableRestake.automate.sol:SmartChefInitializableRestake",
        "label": "deadline",
        "offset": 22,
        "slot": "4",
        "type": "t_uint16"
      },
      {
        "astId": 2298,
        "contract": "contracts/SmartChefInitializableRestake.automate.sol:SmartChefInitializableRestake",
        "label": "stakingToken",
        "offset": 0,
        "slot": "5",
        "type": "t_contract(IERC20)123"
      },
      {
        "astId": 2301,
        "contract": "contracts/SmartChefInitializableRestake.automate.sol:SmartChefInitializableRestake",
        "label": "rewardToken",
        "offset": 0,
        "slot": "6",
        "type": "t_contract(IERC20)123"
      }
    ],
    "types": {
      "t_address": {
        "encoding": "inplace",
        "label": "address",
        "numberOfBytes": "20"
      },
      "t_bool": {
        "encoding": "inplace",
        "label": "bool",
        "numberOfBytes": "1"
      },
      "t_contract(IERC20)123": {
        "encoding": "inplace",
        "label": "contract IERC20",
        "numberOfBytes": "20"
      },
      "t_contract(ISmartChefInitializable)312": {
        "encoding": "inplace",
        "label": "contract ISmartChefInitializable",
        "numberOfBytes": "20"
      },
      "t_int256": {
        "encoding": "inplace",
        "label": "int256",
        "numberOfBytes": "32"
      },
      "t_uint16": {
        "encoding": "inplace",
        "label": "uint16",
        "numberOfBytes": "2"
      }
    }
  }
}