{
  "address": "0x9558cae63883E1ae812BDda9376097351B16fFA6",
  "abi": [
    {
      "inputs": [
        {
          "internalType": "address",
          "name": "_info",
          "type": "address"
        }
      ],
      "stateMutability": "nonpayable",
      "type": "constructor"
    },
    {
      "anonymous": false,
      "inputs": [
        {
          "indexed": true,
          "internalType": "address",
          "name": "previousOwner",
          "type": "address"
        },
        {
          "indexed": true,
          "internalType": "address",
          "name": "newOwner",
          "type": "address"
        }
      ],
      "name": "OwnershipTransferred",
      "type": "event"
    },
    {
      "anonymous": false,
      "inputs": [
        {
          "indexed": false,
          "internalType": "int256",
          "name": "protocolFee",
          "type": "int256"
        }
      ],
      "name": "ProtocolFeeChanged",
      "type": "event"
    },
    {
      "inputs": [
        {
          "internalType": "int256",
          "name": "__protocolFee",
          "type": "int256"
        }
      ],
      "name": "changeProtocolFee",
      "outputs": [],
      "stateMutability": "nonpayable",
      "type": "function"
    },
    {
      "inputs": [],
      "name": "deadline",
      "outputs": [
        {
          "internalType": "uint16",
          "name": "",
          "type": "uint16"
        }
      ],
      "stateMutability": "view",
      "type": "function"
    },
    {
      "inputs": [],
      "name": "deposit",
      "outputs": [],
      "stateMutability": "nonpayable",
      "type": "function"
    },
    {
      "inputs": [],
      "name": "emergencyWithdraw",
      "outputs": [],
      "stateMutability": "nonpayable",
      "type": "function"
    },
    {
      "inputs": [],
      "name": "info",
      "outputs": [
        {
          "internalType": "address",
          "name": "",
          "type": "address"
        }
      ],
      "stateMutability": "view",
      "type": "function"
    },
    {
      "inputs": [
        {
          "internalType": "address",
          "name": "_staking",
          "type": "address"
        },
        {
          "internalType": "address",
          "name": "_liquidityRouter",
          "type": "address"
        },
        {
          "internalType": "uint256",
          "name": "_pool",
          "type": "uint256"
        },
        {
          "internalType": "uint16",
          "name": "_slippage",
          "type": "uint16"
        },
        {
          "internalType": "uint16",
          "name": "_deadline",
          "type": "uint16"
        }
      ],
      "name": "init",
      "outputs": [],
      "stateMutability": "nonpayable",
      "type": "function"
    },
    {
      "inputs": [],
      "name": "liquidityRouter",
      "outputs": [
        {
          "internalType": "address",
          "name": "",
          "type": "address"
        }
      ],
      "stateMutability": "view",
      "type": "function"
    },
    {
      "inputs": [],
      "name": "owner",
      "outputs": [
        {
          "internalType": "address",
          "name": "",
          "type": "address"
        }
      ],
      "stateMutability": "view",
      "type": "function"
    },
    {
      "inputs": [],
      "name": "pause",
      "outputs": [],
      "stateMutability": "nonpayable",
      "type": "function"
    },
    {
      "inputs": [],
      "name": "paused",
      "outputs": [
        {
          "internalType": "bool",
          "name": "",
          "type": "bool"
        }
      ],
      "stateMutability": "view",
      "type": "function"
    },
    {
      "inputs": [],
      "name": "pool",
      "outputs": [
        {
          "internalType": "uint256",
          "name": "",
          "type": "uint256"
        }
      ],
      "stateMutability": "view",
      "type": "function"
    },
    {
      "inputs": [],
      "name": "protocolFee",
      "outputs": [
        {
          "internalType": "uint256",
          "name": "",
          "type": "uint256"
        }
      ],
      "stateMutability": "view",
      "type": "function"
    },
    {
      "inputs": [],
      "name": "refund",
      "outputs": [],
      "stateMutability": "nonpayable",
      "type": "function"
    },
    {
      "inputs": [],
      "name": "rewardToken",
      "outputs": [
        {
          "internalType": "contract IERC20",
          "name": "",
          "type": "address"
        }
      ],
      "stateMutability": "view",
      "type": "function"
    },
    {
      "inputs": [
        {
          "internalType": "uint256",
          "name": "gasFee",
          "type": "uint256"
        },
        {
          "internalType": "uint256",
          "name": "_deadline",
          "type": "uint256"
        },
        {
          "components": [
            {
              "internalType": "address[]",
              "name": "path",
              "type": "address[]"
            },
            {
              "internalType": "uint256",
              "name": "outMin",
              "type": "uint256"
            }
          ],
          "internalType": "struct MasterChefLpRestake.Swap",
          "name": "swap0",
          "type": "tuple"
        },
        {
          "components": [
            {
              "internalType": "address[]",
              "name": "path",
              "type": "address[]"
            },
            {
              "internalType": "uint256",
              "name": "outMin",
              "type": "uint256"
            }
          ],
          "internalType": "struct MasterChefLpRestake.Swap",
          "name": "swap1",
          "type": "tuple"
        }
      ],
      "name": "run",
      "outputs": [],
      "stateMutability": "nonpayable",
      "type": "function"
    },
    {
      "inputs": [],
      "name": "slippage",
      "outputs": [
        {
          "internalType": "uint16",
          "name": "",
          "type": "uint16"
        }
      ],
      "stateMutability": "view",
      "type": "function"
    },
    {
      "inputs": [],
      "name": "staking",
      "outputs": [
        {
          "internalType": "contract IMasterChef",
          "name": "",
          "type": "address"
        }
      ],
      "stateMutability": "view",
      "type": "function"
    },
    {
      "inputs": [],
      "name": "stakingToken",
      "outputs": [
        {
          "internalType": "contract IERC20",
          "name": "",
          "type": "address"
        }
      ],
      "stateMutability": "view",
      "type": "function"
    },
    {
      "inputs": [
        {
          "internalType": "address",
          "name": "token",
          "type": "address"
        },
        {
          "internalType": "address",
          "name": "recipient",
          "type": "address"
        },
        {
          "internalType": "uint256",
          "name": "amount",
          "type": "uint256"
        }
      ],
      "name": "transfer",
      "outputs": [],
      "stateMutability": "nonpayable",
      "type": "function"
    },
    {
      "inputs": [
        {
          "internalType": "address",
          "name": "newOwner",
          "type": "address"
        }
      ],
      "name": "transferOwnership",
      "outputs": [],
      "stateMutability": "nonpayable",
      "type": "function"
    },
    {
      "inputs": [],
      "name": "unpause",
      "outputs": [],
      "stateMutability": "nonpayable",
      "type": "function"
    }
  ],
  "transactionHash": "0xb9522417f368d7898231ac0e58489eb068f1d4174486c5fc6eafc819277713b7",
  "args": [
    "0x1CeC05129206d9fBEE2e86E1A9294E64f7F86461"
  ],
  "solcInputHash": "34bc26c5ed7c964190b4a01ca837ed09",
  "bytecode": "0x60806040523480156200001157600080fd5b5060405162003f0038038062003f00833981016040819052620000349162000069565b600080546001600160a01b039092166001600160a01b031992831617905560018054909116321790556000196002556200009b565b6000602082840312156200007c57600080fd5b81516001600160a01b03811681146200009457600080fd5b9392505050565b613e5580620000ab6000396000f3fe608060405234801561001057600080fd5b50600436106101775760003560e01c80638456cb59116100d8578063b838d9141161008c578063db2e21bc11610066578063db2e21bc14610313578063f2fde38b1461031b578063f7c618c11461032e57600080fd5b8063b838d914146102e5578063beabacc8146102f8578063d0e30db01461030b57600080fd5b80638da5cb5b116100bd5780638da5cb5b146102ac5780639742b5c3146102ca578063b0e21e8a146102dd57600080fd5b80638456cb591461029157806388591b271461029957600080fd5b80633f4ba83a1161012f578063590e1ae311610114578063590e1ae3146102495780635c975abb1461025157806372f702f31461026957600080fd5b80633f4ba83a1461021a5780634cf088d91461022457600080fd5b806329dcb0cf1161016057806329dcb0cf146101dd578063370158ea146102045780633e032a3b1461020c57600080fd5b806316f0115b1461017c5780632470294414610198575b600080fd5b61018560055481565b6040519081526020015b60405180910390f35b6004546101b89073ffffffffffffffffffffffffffffffffffffffff1681565b60405173ffffffffffffffffffffffffffffffffffffffff909116815260200161018f565b6006546101f19062010000900461ffff1681565b60405161ffff909116815260200161018f565b6101b861034e565b6006546101f19061ffff1681565b6102226104b0565b005b6003546101b890610100900473ffffffffffffffffffffffffffffffffffffffff1681565b610222610847565b610259610d14565b604051901515815260200161018f565b6006546101b890640100000000900473ffffffffffffffffffffffffffffffffffffffff1681565b610222610e99565b6102226102a7366004613a58565b611243565b60015473ffffffffffffffffffffffffffffffffffffffff166101b8565b6102226102d8366004613968565b611821565b610185611a5b565b6102226102f336600461384c565b611e68565b61022261030636600461380b565b6124b7565b6102226125b9565b6102226127d3565b6102226103293660046137ca565b612bd1565b6007546101b89073ffffffffffffffffffffffffffffffffffffffff1681565b6040517f6b8807180000000000000000000000000000000000000000000000000000000081523060048201526000908190731F59Ee3B1ff055Be0b84BcB6D7beAa7f984fFf2e90636b8807189060240160206040518083038186803b1580156103b657600080fd5b505af41580156103ca573d6000803e3d6000fd5b505050506040513d601f19601f820116820180604052508101906103ee91906137ee565b905073ffffffffffffffffffffffffffffffffffffffff811630141561042c57505060005473ffffffffffffffffffffffffffffffffffffffff1690565b8073ffffffffffffffffffffffffffffffffffffffff1663370158ea6040518163ffffffff1660e01b815260040160206040518083038186803b15801561047257600080fd5b505afa158015610486573d6000803e3d6000fd5b505050506040513d601f19601f820116820180604052508101906104aa91906137ee565b91505090565b6040517f6b880718000000000000000000000000000000000000000000000000000000008152306004820181905290731F59Ee3B1ff055Be0b84BcB6D7beAa7f984fFf2e90636b8807189060240160206040518083038186803b15801561051657600080fd5b505af415801561052a573d6000803e3d6000fd5b505050506040513d601f19601f8201168201806040525081019061054e91906137ee565b73ffffffffffffffffffffffffffffffffffffffff16141561070857600061057461034e565b6040517f21f8a7210000000000000000000000000000000000000000000000000000000081527f689d13d8ed8ef1027633ba26e7121121cf427434450a529548f19bf175974395600482015273ffffffffffffffffffffffffffffffffffffffff91909116906321f8a7219060240160206040518083038186803b1580156105fb57600080fd5b505afa15801561060f573d6000803e3d6000fd5b505050506040513d601f19601f8201168201806040525081019061063391906137ee565b60015490915073ffffffffffffffffffffffffffffffffffffffff1633148061067157503373ffffffffffffffffffffffffffffffffffffffff8216145b610702576040517f08c379a000000000000000000000000000000000000000000000000000000000815260206004820152602260248201527f4175746f6d6174653a2063616c6c6572206973206e6f7420746865207061757360448201527f657200000000000000000000000000000000000000000000000000000000000060648201526084015b60405180910390fd5b506107af565b60015473ffffffffffffffffffffffffffffffffffffffff1633146107af576040517f08c379a000000000000000000000000000000000000000000000000000000000815260206004820152602260248201527f4175746f6d6174653a2063616c6c6572206973206e6f7420746865207061757360448201527f657200000000000000000000000000000000000000000000000000000000000060648201526084016106f9565b6107b7610d14565b61081d576040517f08c379a000000000000000000000000000000000000000000000000000000000815260206004820152601460248201527f4175746f6d6174653a206e6f742070617573656400000000000000000000000060448201526064016106f9565b600180547fffffffffffffffffffffff00ffffffffffffffffffffffffffffffffffffffff169055565b60015473ffffffffffffffffffffffffffffffffffffffff1633146108ee576040517f08c379a000000000000000000000000000000000000000000000000000000000815260206004820152602160248201527f4175746f6d6174653a2063616c6c6572206973206e6f7420746865206f776e6560448201527f720000000000000000000000000000000000000000000000000000000000000060648201526084016106f9565b60035473ffffffffffffffffffffffffffffffffffffffff61010090910416600061092e60015473ffffffffffffffffffffffffffffffffffffffff1690565b6005546040517f93f1a40b000000000000000000000000000000000000000000000000000000008152600481019190915230602482015290915060009073ffffffffffffffffffffffffffffffffffffffff8416906393f1a40b90604401604080518083038186803b1580156109a357600080fd5b505afa1580156109b7573d6000803e3d6000fd5b505050506040513d601f19601f820116820180604052508101906109db91906139f0565b60055481516040517f441a3e700000000000000000000000000000000000000000000000000000000081526004810192909252602482015290915073ffffffffffffffffffffffffffffffffffffffff84169063441a3e7090604401600060405180830381600087803b158015610a5157600080fd5b505af1158015610a65573d6000803e3d6000fd5b50506006546040517f70a0823100000000000000000000000000000000000000000000000000000000815230600482015264010000000090910473ffffffffffffffffffffffffffffffffffffffff16925063a9059cbb9150849083906370a082319060240160206040518083038186803b158015610ae357600080fd5b505afa158015610af7573d6000803e3d6000fd5b505050506040513d601f19601f82011682018060405250810190610b1b9190613a3f565b6040517fffffffff0000000000000000000000000000000000000000000000000000000060e085901b16815273ffffffffffffffffffffffffffffffffffffffff90921660048301526024820152604401602060405180830381600087803b158015610b8657600080fd5b505af1158015610b9a573d6000803e3d6000fd5b505050506040513d601f19601f82011682018060405250810190610bbe9190613946565b506007546040517f70a0823100000000000000000000000000000000000000000000000000000000815230600482015273ffffffffffffffffffffffffffffffffffffffff9091169063a9059cbb90849083906370a082319060240160206040518083038186803b158015610c3257600080fd5b505afa158015610c46573d6000803e3d6000fd5b505050506040513d601f19601f82011682018060405250810190610c6a9190613a3f565b6040517fffffffff0000000000000000000000000000000000000000000000000000000060e085901b16815273ffffffffffffffffffffffffffffffffffffffff909216600483015260248201526044015b602060405180830381600087803b158015610cd657600080fd5b505af1158015610cea573d6000803e3d6000fd5b505050506040513d601f19601f82011682018060405250810190610d0e9190613946565b50505050565b6040517f6b8807180000000000000000000000000000000000000000000000000000000081523060048201526000908190731F59Ee3B1ff055Be0b84BcB6D7beAa7f984fFf2e90636b8807189060240160206040518083038186803b158015610d7c57600080fd5b505af4158015610d90573d6000803e3d6000fd5b505050506040513d601f19601f82011682018060405250810190610db491906137ee565b905073ffffffffffffffffffffffffffffffffffffffff8116301415610df757505060015474010000000000000000000000000000000000000000900460ff1690565b60015474010000000000000000000000000000000000000000900460ff16806104aa57508073ffffffffffffffffffffffffffffffffffffffff16635c975abb6040518163ffffffff1660e01b815260040160206040518083038186803b158015610e6157600080fd5b505afa158015610e75573d6000803e3d6000fd5b505050506040513d601f19601f820116820180604052508101906104aa9190613946565b6040517f6b880718000000000000000000000000000000000000000000000000000000008152306004820181905290731F59Ee3B1ff055Be0b84BcB6D7beAa7f984fFf2e90636b8807189060240160206040518083038186803b158015610eff57600080fd5b505af4158015610f13573d6000803e3d6000fd5b505050506040513d601f19601f82011682018060405250810190610f3791906137ee565b73ffffffffffffffffffffffffffffffffffffffff1614156110ec576000610f5d61034e565b6040517f21f8a7210000000000000000000000000000000000000000000000000000000081527f689d13d8ed8ef1027633ba26e7121121cf427434450a529548f19bf175974395600482015273ffffffffffffffffffffffffffffffffffffffff91909116906321f8a7219060240160206040518083038186803b158015610fe457600080fd5b505afa158015610ff8573d6000803e3d6000fd5b505050506040513d601f19601f8201168201806040525081019061101c91906137ee565b60015490915073ffffffffffffffffffffffffffffffffffffffff1633148061105a57503373ffffffffffffffffffffffffffffffffffffffff8216145b6110e6576040517f08c379a000000000000000000000000000000000000000000000000000000000815260206004820152602260248201527f4175746f6d6174653a2063616c6c6572206973206e6f7420746865207061757360448201527f657200000000000000000000000000000000000000000000000000000000000060648201526084016106f9565b50611193565b60015473ffffffffffffffffffffffffffffffffffffffff163314611193576040517f08c379a000000000000000000000000000000000000000000000000000000000815260206004820152602260248201527f4175746f6d6174653a2063616c6c6572206973206e6f7420746865207061757360448201527f657200000000000000000000000000000000000000000000000000000000000060648201526084016106f9565b61119b610d14565b15611202576040517f08c379a000000000000000000000000000000000000000000000000000000000815260206004820152601060248201527f4175746f6d6174653a207061757365640000000000000000000000000000000060448201526064016106f9565b600180547fffffffffffffffffffffff00ffffffffffffffffffffffffffffffffffffffff1674010000000000000000000000000000000000000000179055565b836040518060400160405280601e81526020017f50616e63616b65537761704d6173746572436865664c7052657374616b6500008152506112848282612e30565b506003546005546040517f1175a1dd000000000000000000000000000000000000000000000000000000008152600481019190915230602482015261010090910473ffffffffffffffffffffffffffffffffffffffff16906000908290631175a1dd9060440160206040518083038186803b15801561130257600080fd5b505afa158015611316573d6000803e3d6000fd5b505050506040513d601f19601f8201168201806040525081019061133a9190613a3f565b116113c7576040517f08c379a000000000000000000000000000000000000000000000000000000000815260206004820152602360248201527f4d6173746572436865664c7052657374616b653a3a72756e3a206e6f2065617260448201527f6e6564000000000000000000000000000000000000000000000000000000000060648201526084016106f9565b6005546040517fe2bbb15800000000000000000000000000000000000000000000000000000000815260048101919091526000602482015273ffffffffffffffffffffffffffffffffffffffff82169063e2bbb15890604401600060405180830381600087803b15801561143a57600080fd5b505af115801561144e573d6000803e3d6000fd5b50506007546040517f70a082310000000000000000000000000000000000000000000000000000000081523060048201526000935073ffffffffffffffffffffffffffffffffffffffff90911691506370a082319060240160206040518083038186803b1580156114be57600080fd5b505afa1580156114d2573d6000803e3d6000fd5b505050506040513d601f19601f820116820180604052508101906114f69190613a3f565b6004546007549192506115239173ffffffffffffffffffffffffffffffffffffffff908116911683613102565b611554866000015160405180604001604052806002856115439190613d07565b815260208a81015191015289613320565b61158f856000015160405180604001604052806002856115749190613d07565b61157e9086613d7f565b815260208981015191015289613320565b6000600660049054906101000a900473ffffffffffffffffffffffffffffffffffffffff1690506116bb8173ffffffffffffffffffffffffffffffffffffffff16630dfe16816040518163ffffffff1660e01b815260040160206040518083038186803b1580156115ff57600080fd5b505afa158015611613573d6000803e3d6000fd5b505050506040513d601f19601f8201168201806040525081019061163791906137ee565b8273ffffffffffffffffffffffffffffffffffffffff1663d21220a76040518163ffffffff1660e01b815260040160206040518083038186803b15801561167d57600080fd5b505afa158015611691573d6000803e3d6000fd5b505050506040513d601f19601f820116820180604052508101906116b591906137ee565b8a61346f565b6040517f70a0823100000000000000000000000000000000000000000000000000000000815230600482015260009073ffffffffffffffffffffffffffffffffffffffff8316906370a082319060240160206040518083038186803b15801561172357600080fd5b505afa158015611737573d6000803e3d6000fd5b505050506040513d601f19601f8201168201806040525081019061175b9190613a3f565b60065490915061178a90640100000000900473ffffffffffffffffffffffffffffffffffffffff168583613102565b6005546040517fe2bbb15800000000000000000000000000000000000000000000000000000000815260048101919091526024810182905273ffffffffffffffffffffffffffffffffffffffff85169063e2bbb15890604401600060405180830381600087803b1580156117fd57600080fd5b505af1158015611811573d6000803e3d6000fd5b5050505050505050505050505050565b6040517f6b880718000000000000000000000000000000000000000000000000000000008152306004820152600090731F59Ee3B1ff055Be0b84BcB6D7beAa7f984fFf2e90636b8807189060240160206040518083038186803b15801561188757600080fd5b505af415801561189b573d6000803e3d6000fd5b505050506040513d601f19601f820116820180604052508101906118bf91906137ee565b90503373ffffffffffffffffffffffffffffffffffffffff82163014611962578173ffffffffffffffffffffffffffffffffffffffff16638da5cb5b6040518163ffffffff1660e01b815260040160206040518083038186803b15801561192557600080fd5b505afa158015611939573d6000803e3d6000fd5b505050506040513d601f19601f8201168201806040525081019061195d91906137ee565b61197c565b60015473ffffffffffffffffffffffffffffffffffffffff165b73ffffffffffffffffffffffffffffffffffffffff1614611a1f576040517f08c379a000000000000000000000000000000000000000000000000000000000815260206004820152603d60248201527f4175746f6d6174653a3a6368616e676550726f746f636f6c4665653a2063616c60448201527f6c6572206973206e6f74207468652070726f746f636f6c206f776e657200000060648201526084016106f9565b60028290556040518281527f3c1d43943224e49d951ce8295a5c8332b517083b3f89bed50feae2cb39caebb59060200160405180910390a15050565b6040517f6b8807180000000000000000000000000000000000000000000000000000000081523060048201526000908190731F59Ee3B1ff055Be0b84BcB6D7beAa7f984fFf2e90636b8807189060240160206040518083038186803b158015611ac357600080fd5b505af4158015611ad7573d6000803e3d6000fd5b505050506040513d601f19601f82011682018060405250810190611afb91906137ee565b905073ffffffffffffffffffffffffffffffffffffffff81163014801590611b2557506000600254125b15611ba8578073ffffffffffffffffffffffffffffffffffffffff1663b0e21e8a6040518163ffffffff1660e01b815260040160206040518083038186803b158015611b7057600080fd5b505afa158015611b84573d6000803e3d6000fd5b505050506040513d601f19601f820116820180604052508101906104aa9190613a3f565b6000611bb261034e565b905060008060025412611bc757600254611c84565b6040517fbd02d0f50000000000000000000000000000000000000000000000000000000081527fa93d95f96a5de25d7a41ddf1f5e8d45cfc929c4838163cf011dab4043a4a40d5600482015273ffffffffffffffffffffffffffffffffffffffff83169063bd02d0f59060240160206040518083038186803b158015611c4c57600080fd5b505afa158015611c60573d6000803e3d6000fd5b505050506040513d601f19601f82011682018060405250810190611c849190613a3f565b905080611c95576000935050505090565b6040517f21f8a7210000000000000000000000000000000000000000000000000000000081527f65c90423fe7c880476633a7e36521740f87199d233dc56eb4ca6643eb76f605f600482015260009073ffffffffffffffffffffffffffffffffffffffff8416906321f8a7219060240160206040518083038186803b158015611d1d57600080fd5b505afa158015611d31573d6000803e3d6000fd5b505050506040513d601f19601f82011682018060405250810190611d5591906137ee565b73ffffffffffffffffffffffffffffffffffffffff1663feaf968c6040518163ffffffff1660e01b815260040160a06040518083038186803b158015611d9a57600080fd5b505afa158015611dae573d6000803e3d6000fd5b505050506040513d601f19601f82011682018060405250810190611dd29190613afd565b50505091505060008113611e42576040517f08c379a000000000000000000000000000000000000000000000000000000000815260206004820152601760248201527f4175746f6d6174653a20696e76616c696420707269636500000000000000000060448201526064016106f9565b80611e5583670de0b6b3a7640000613d42565b611e5f9190613d07565b94505050505090565b60015473ffffffffffffffffffffffffffffffffffffffff16611ed857600180547fffffffffffffffffffffffff000000000000000000000000000000000000000016321790557fffffffffffffffffffffffffffffffffffffffffffffffffffffffffffffffff600255611f7f565b60015473ffffffffffffffffffffffffffffffffffffffff163314611f7f576040517f08c379a000000000000000000000000000000000000000000000000000000000815260206004820152602160248201527f4175746f6d6174653a2063616c6c6572206973206e6f7420746865206f776e6560448201527f720000000000000000000000000000000000000000000000000000000000000060648201526084016106f9565b60035460ff161580611fb0575060035473ffffffffffffffffffffffffffffffffffffffff86811661010090920416145b612062576040517f08c379a000000000000000000000000000000000000000000000000000000000815260206004820152604160248201527f4d6173746572436865664c7052657374616b653a3a696e69743a207265696e6960448201527f7469616c697a65207374616b696e67206164647265737320666f72626964646560648201527f6e00000000000000000000000000000000000000000000000000000000000000608482015260a4016106f9565b6003805473ffffffffffffffffffffffffffffffffffffffff8716610100027fffffffffffffffffffffff0000000000000000000000000000000000000000ff8216811790925560ff91821691161715806120d7575060045473ffffffffffffffffffffffffffffffffffffffff8581169116145b612189576040517f08c379a000000000000000000000000000000000000000000000000000000000815260206004820152604a60248201527f4d6173746572436865664c7052657374616b653a3a696e69743a207265696e6960448201527f7469616c697a65206c697175696469747920726f75746572206164647265737360648201527f20666f7262696464656e00000000000000000000000000000000000000000000608482015260a4016106f9565b600480547fffffffffffffffffffffffff00000000000000000000000000000000000000001673ffffffffffffffffffffffffffffffffffffffff861617905560035460ff1615806121dc575082600554145b612268576040517f08c379a000000000000000000000000000000000000000000000000000000000815260206004820152603c60248201527f4d6173746572436865664c7052657374616b653a3a696e69743a207265696e6960448201527f7469616c697a6520706f6f6c20696e64657820666f7262696464656e0000000060648201526084016106f9565b60058390556006805461ffff83811662010000027fffffffffffffffffffffffffffffffffffffffffffffffffffffffff000000009092169085161717905560035460ff16612485576003546005546040517f1526fe270000000000000000000000000000000000000000000000000000000081526004810191909152600091610100900473ffffffffffffffffffffffffffffffffffffffff1690631526fe279060240160806040518083038186803b15801561232557600080fd5b505afa158015612339573d6000803e3d6000fd5b505050506040513d601f19601f8201168201806040525081019061235d9190613981565b8051600680547fffffffffffffffff0000000000000000000000000000000000000000ffffffff1664010000000073ffffffffffffffffffffffffffffffffffffffff93841602179055600354604080517fdce1748400000000000000000000000000000000000000000000000000000000815290519394506101009091049091169163dce1748491600480820192602092909190829003018186803b15801561240657600080fd5b505afa15801561241a573d6000803e3d6000fd5b505050506040513d601f19601f8201168201806040525081019061243e91906137ee565b600780547fffffffffffffffffffffffff00000000000000000000000000000000000000001673ffffffffffffffffffffffffffffffffffffffff92909216919091179055505b5050600380547fffffffffffffffffffffffffffffffffffffffffffffffffffffffffffffff00166001179055505050565b60015473ffffffffffffffffffffffffffffffffffffffff16331461255e576040517f08c379a000000000000000000000000000000000000000000000000000000000815260206004820152602160248201527f4175746f6d6174653a2063616c6c6572206973206e6f7420746865206f776e6560448201527f720000000000000000000000000000000000000000000000000000000000000060648201526084016106f9565b6040517fa9059cbb00000000000000000000000000000000000000000000000000000000815273ffffffffffffffffffffffffffffffffffffffff83811660048301526024820183905284169063a9059cbb90604401610cbc565b60015473ffffffffffffffffffffffffffffffffffffffff163314612660576040517f08c379a000000000000000000000000000000000000000000000000000000000815260206004820152602160248201527f4175746f6d6174653a2063616c6c6572206973206e6f7420746865206f776e6560448201527f720000000000000000000000000000000000000000000000000000000000000060648201526084016106f9565b6006546040517f70a0823100000000000000000000000000000000000000000000000000000000815230600482015264010000000090910473ffffffffffffffffffffffffffffffffffffffff169060009082906370a082319060240160206040518083038186803b1580156126d557600080fd5b505afa1580156126e9573d6000803e3d6000fd5b505050506040513d601f19601f8201168201806040525081019061270d9190613a3f565b60035490915061273c9073ffffffffffffffffffffffffffffffffffffffff8481169161010090041683613102565b6003546005546040517fe2bbb15800000000000000000000000000000000000000000000000000000000815260048101919091526024810183905261010090910473ffffffffffffffffffffffffffffffffffffffff169063e2bbb15890604401600060405180830381600087803b1580156127b757600080fd5b505af11580156127cb573d6000803e3d6000fd5b505050505050565b60015473ffffffffffffffffffffffffffffffffffffffff16331461287a576040517f08c379a000000000000000000000000000000000000000000000000000000000815260206004820152602160248201527f4175746f6d6174653a2063616c6c6572206973206e6f7420746865206f776e6560448201527f720000000000000000000000000000000000000000000000000000000000000060648201526084016106f9565b600061289b60015473ffffffffffffffffffffffffffffffffffffffff1690565b6003546005546040517f5312ea8e0000000000000000000000000000000000000000000000000000000081526004810191909152919250610100900473ffffffffffffffffffffffffffffffffffffffff1690635312ea8e90602401600060405180830381600087803b15801561291157600080fd5b505af1158015612925573d6000803e3d6000fd5b50506006546040517f70a0823100000000000000000000000000000000000000000000000000000000815230600482015264010000000090910473ffffffffffffffffffffffffffffffffffffffff16925063a9059cbb9150839083906370a082319060240160206040518083038186803b1580156129a357600080fd5b505afa1580156129b7573d6000803e3d6000fd5b505050506040513d601f19601f820116820180604052508101906129db9190613a3f565b6040517fffffffff0000000000000000000000000000000000000000000000000000000060e085901b16815273ffffffffffffffffffffffffffffffffffffffff90921660048301526024820152604401602060405180830381600087803b158015612a4657600080fd5b505af1158015612a5a573d6000803e3d6000fd5b505050506040513d601f19601f82011682018060405250810190612a7e9190613946565b506007546040517f70a0823100000000000000000000000000000000000000000000000000000000815230600482015273ffffffffffffffffffffffffffffffffffffffff9091169063a9059cbb90839083906370a082319060240160206040518083038186803b158015612af257600080fd5b505afa158015612b06573d6000803e3d6000fd5b505050506040513d601f19601f82011682018060405250810190612b2a9190613a3f565b6040517fffffffff0000000000000000000000000000000000000000000000000000000060e085901b16815273ffffffffffffffffffffffffffffffffffffffff90921660048301526024820152604401602060405180830381600087803b158015612b9557600080fd5b505af1158015612ba9573d6000803e3d6000fd5b505050506040513d601f19601f82011682018060405250810190612bcd9190613946565b5050565b60015473ffffffffffffffffffffffffffffffffffffffff163314612c78576040517f08c379a000000000000000000000000000000000000000000000000000000000815260206004820152602160248201527f4175746f6d6174653a2063616c6c6572206973206e6f7420746865206f776e6560448201527f720000000000000000000000000000000000000000000000000000000000000060648201526084016106f9565b6040517f6b880718000000000000000000000000000000000000000000000000000000008152306004820181905290731F59Ee3B1ff055Be0b84BcB6D7beAa7f984fFf2e90636b8807189060240160206040518083038186803b158015612cde57600080fd5b505af4158015612cf2573d6000803e3d6000fd5b505050506040513d601f19601f82011682018060405250810190612d1691906137ee565b73ffffffffffffffffffffffffffffffffffffffff1614612db9576040517f08c379a000000000000000000000000000000000000000000000000000000000815260206004820152602160248201527f4175746f6d6174653a206368616e676520746865206f776e6572206661696c6560448201527f640000000000000000000000000000000000000000000000000000000000000060648201526084016106f9565b6001805473ffffffffffffffffffffffffffffffffffffffff8381167fffffffffffffffffffffffff0000000000000000000000000000000000000000831681179093556040519116919082907f8be0079c531659141344cd1fd0a4f28419497f9722a3daafe3b4186f6b6457e090600090a35050565b6000612e3a610d14565b15612ea1576040517f08c379a000000000000000000000000000000000000000000000000000000000815260206004820152601060248201527f4175746f6d6174653a207061757365640000000000000000000000000000000060448201526064016106f9565b6000612ec260015473ffffffffffffffffffffffffffffffffffffffff1690565b90503273ffffffffffffffffffffffffffffffffffffffff82161415612eec5760009150506130fc565b6000612ef661034e565b6040517f21f8a7210000000000000000000000000000000000000000000000000000000081527fe78c16c6d839536d3155985aab4e9c6013c8c3d446054bcebc48612f359d81f5600482015290915060009073ffffffffffffffffffffffffffffffffffffffff8316906321f8a7219060240160206040518083038186803b158015612f8157600080fd5b505afa158015612f95573d6000803e3d6000fd5b505050506040513d601f19601f82011682018060405250810190612fb991906137ee565b905073ffffffffffffffffffffffffffffffffffffffff811661305e576040517f08c379a000000000000000000000000000000000000000000000000000000000815260206004820152602b60248201527f4175746f6d6174653a3a5f62696c6c3a2062616c616e636520636f6e7472616360448201527f74206e6f7420666f756e6400000000000000000000000000000000000000000060648201526084016106f9565b8073ffffffffffffffffffffffffffffffffffffffff1663e578a2258488613084611a5b565b896040518563ffffffff1660e01b81526004016130a49493929190613b41565b602060405180830381600087803b1580156130be57600080fd5b505af11580156130d2573d6000803e3d6000fd5b505050506040513d601f19601f820116820180604052508101906130f69190613a3f565b93505050505b92915050565b6040517fdd62ed3e00000000000000000000000000000000000000000000000000000000815230600482015273ffffffffffffffffffffffffffffffffffffffff83811660248301526000919085169063dd62ed3e9060440160206040518083038186803b15801561317357600080fd5b505afa158015613187573d6000803e3d6000fd5b505050506040513d601f19601f820116820180604052508101906131ab9190613a3f565b905080158015906131bb57508181105b1561326a576040517f095ea7b300000000000000000000000000000000000000000000000000000000815273ffffffffffffffffffffffffffffffffffffffff84811660048301526000602483015285169063095ea7b390604401602060405180830381600087803b15801561323057600080fd5b505af1158015613244573d6000803e3d6000fd5b505050506040513d601f19601f820116820180604052508101906132689190613946565b505b818114610d0e576040517f095ea7b300000000000000000000000000000000000000000000000000000000815273ffffffffffffffffffffffffffffffffffffffff84811660048301526024820184905285169063095ea7b390604401602060405180830381600087803b1580156132e157600080fd5b505af11580156132f5573d6000803e3d6000fd5b505050506040513d601f19601f820116820180604052508101906133199190613946565b5050505050565b826001845161332f9190613d7f565b8151811061333f5761333f613dc5565b602002602001015173ffffffffffffffffffffffffffffffffffffffff168360008151811061337057613370613dc5565b602002602001015173ffffffffffffffffffffffffffffffffffffffff16141561339957505050565b60048054835160208501516040517f38ed173900000000000000000000000000000000000000000000000000000000815273ffffffffffffffffffffffffffffffffffffffff909316936338ed1739936133fb93929189913091899101613be0565b600060405180830381600087803b15801561341557600080fd5b505af1158015613429573d6000803e3d6000fd5b505050506040513d6000823e601f3d9081017fffffffffffffffffffffffffffffffffffffffffffffffffffffffffffffffe0168201604052610d0e91908101906138ae565b600480546040517f70a08231000000000000000000000000000000000000000000000000000000008152309281019290925273ffffffffffffffffffffffffffffffffffffffff908116916000918616906370a082319060240160206040518083038186803b1580156134e157600080fd5b505afa1580156134f5573d6000803e3d6000fd5b505050506040513d601f19601f820116820180604052508101906135199190613a3f565b6040517f70a0823100000000000000000000000000000000000000000000000000000000815230600482015290915060009073ffffffffffffffffffffffffffffffffffffffff8616906370a082319060240160206040518083038186803b15801561358457600080fd5b505afa158015613598573d6000803e3d6000fd5b505050506040513d601f19601f820116820180604052508101906135bc9190613a3f565b90506135df73ffffffffffffffffffffffffffffffffffffffff87168484613102565b61360073ffffffffffffffffffffffffffffffffffffffff86168483613102565b6040517fe8e3370000000000000000000000000000000000000000000000000000000000815273ffffffffffffffffffffffffffffffffffffffff87811660048301528681166024830152604482018490526064820183905260006084830181905260a48301523060c483015260e4820186905284169063e8e337009061010401606060405180830381600087803b15801561369b57600080fd5b505af11580156136af573d6000803e3d6000fd5b505050506040513d601f19601f820116820180604052508101906136d39190613acf565b505050505050505050565b6000604082840312156136f057600080fd5b6136f8613c6b565b9050813567ffffffffffffffff81111561371157600080fd5b8201601f8101841361372257600080fd5b8035602061373761373283613ce3565b613c94565b80838252828201915082850188848660051b880101111561375757600080fd5b600095505b8486101561378357803561376f81613e23565b83526001959095019491830191830161375c565b5085525093840135938301939093525092915050565b803561ffff811681146137ab57600080fd5b919050565b805169ffffffffffffffffffff811681146137ab57600080fd5b6000602082840312156137dc57600080fd5b81356137e781613e23565b9392505050565b60006020828403121561380057600080fd5b81516137e781613e23565b60008060006060848603121561382057600080fd5b833561382b81613e23565b9250602084013561383b81613e23565b929592945050506040919091013590565b600080600080600060a0868803121561386457600080fd5b853561386f81613e23565b9450602086013561387f81613e23565b93506040860135925061389460608701613799565b91506138a260808701613799565b90509295509295909350565b600060208083850312156138c157600080fd5b825167ffffffffffffffff8111156138d857600080fd5b8301601f810185136138e957600080fd5b80516138f761373282613ce3565b80828252848201915084840188868560051b870101111561391757600080fd5b600094505b8385101561393a57805183526001949094019391850191850161391c565b50979650505050505050565b60006020828403121561395857600080fd5b815180151581146137e757600080fd5b60006020828403121561397a57600080fd5b5035919050565b60006080828403121561399357600080fd5b6040516080810181811067ffffffffffffffff821117156139b6576139b6613df4565b60405282516139c481613e23565b808252506020830151602082015260408301516040820152606083015160608201528091505092915050565b600060408284031215613a0257600080fd5b6040516040810181811067ffffffffffffffff82111715613a2557613a25613df4565b604052825181526020928301519281019290925250919050565b600060208284031215613a5157600080fd5b5051919050565b60008060008060808587031215613a6e57600080fd5b8435935060208501359250604085013567ffffffffffffffff80821115613a9457600080fd5b613aa0888389016136de565b93506060870135915080821115613ab657600080fd5b50613ac3878288016136de565b91505092959194509250565b600080600060608486031215613ae457600080fd5b8351925060208401519150604084015190509250925092565b600080600080600060a08688031215613b1557600080fd5b613b1e866137b0565b94506020860151935060408601519250606086015191506138a2608087016137b0565b73ffffffffffffffffffffffffffffffffffffffff8516815260006020858184015284604084015260806060840152835180608085015260005b81811015613b975785810183015185820160a001528201613b7b565b81811115613ba957600060a083870101525b50601f017fffffffffffffffffffffffffffffffffffffffffffffffffffffffffffffffe0169290920160a0019695505050505050565b600060a082018783526020878185015260a0604085015281875180845260c086019150828901935060005b81811015613c3d57845173ffffffffffffffffffffffffffffffffffffffff1683529383019391830191600101613c0b565b505073ffffffffffffffffffffffffffffffffffffffff969096166060850152505050608001529392505050565b6040805190810167ffffffffffffffff81118282101715613c8e57613c8e613df4565b60405290565b604051601f82017fffffffffffffffffffffffffffffffffffffffffffffffffffffffffffffffe016810167ffffffffffffffff81118282101715613cdb57613cdb613df4565b604052919050565b600067ffffffffffffffff821115613cfd57613cfd613df4565b5060051b60200190565b600082613d3d577f4e487b7100000000000000000000000000000000000000000000000000000000600052601260045260246000fd5b500490565b6000817fffffffffffffffffffffffffffffffffffffffffffffffffffffffffffffffff0483118215151615613d7a57613d7a613d96565b500290565b600082821015613d9157613d91613d96565b500390565b7f4e487b7100000000000000000000000000000000000000000000000000000000600052601160045260246000fd5b7f4e487b7100000000000000000000000000000000000000000000000000000000600052603260045260246000fd5b7f4e487b7100000000000000000000000000000000000000000000000000000000600052604160045260246000fd5b73ffffffffffffffffffffffffffffffffffffffff81168114613e4557600080fd5b5056fea164736f6c6343000806000a",
  "deployedBytecode": "0x608060405234801561001057600080fd5b50600436106101775760003560e01c80638456cb59116100d8578063b838d9141161008c578063db2e21bc11610066578063db2e21bc14610313578063f2fde38b1461031b578063f7c618c11461032e57600080fd5b8063b838d914146102e5578063beabacc8146102f8578063d0e30db01461030b57600080fd5b80638da5cb5b116100bd5780638da5cb5b146102ac5780639742b5c3146102ca578063b0e21e8a146102dd57600080fd5b80638456cb591461029157806388591b271461029957600080fd5b80633f4ba83a1161012f578063590e1ae311610114578063590e1ae3146102495780635c975abb1461025157806372f702f31461026957600080fd5b80633f4ba83a1461021a5780634cf088d91461022457600080fd5b806329dcb0cf1161016057806329dcb0cf146101dd578063370158ea146102045780633e032a3b1461020c57600080fd5b806316f0115b1461017c5780632470294414610198575b600080fd5b61018560055481565b6040519081526020015b60405180910390f35b6004546101b89073ffffffffffffffffffffffffffffffffffffffff1681565b60405173ffffffffffffffffffffffffffffffffffffffff909116815260200161018f565b6006546101f19062010000900461ffff1681565b60405161ffff909116815260200161018f565b6101b861034e565b6006546101f19061ffff1681565b6102226104b0565b005b6003546101b890610100900473ffffffffffffffffffffffffffffffffffffffff1681565b610222610847565b610259610d14565b604051901515815260200161018f565b6006546101b890640100000000900473ffffffffffffffffffffffffffffffffffffffff1681565b610222610e99565b6102226102a7366004613a58565b611243565b60015473ffffffffffffffffffffffffffffffffffffffff166101b8565b6102226102d8366004613968565b611821565b610185611a5b565b6102226102f336600461384c565b611e68565b61022261030636600461380b565b6124b7565b6102226125b9565b6102226127d3565b6102226103293660046137ca565b612bd1565b6007546101b89073ffffffffffffffffffffffffffffffffffffffff1681565b6040517f6b880718000000000000000000000000000000000000000000000000000000008152306004820152600090819073__$0fb85c1a108326fe5c0d8f2f5a241bc0e7$__90636b8807189060240160206040518083038186803b1580156103b657600080fd5b505af41580156103ca573d6000803e3d6000fd5b505050506040513d601f19601f820116820180604052508101906103ee91906137ee565b905073ffffffffffffffffffffffffffffffffffffffff811630141561042c57505060005473ffffffffffffffffffffffffffffffffffffffff1690565b8073ffffffffffffffffffffffffffffffffffffffff1663370158ea6040518163ffffffff1660e01b815260040160206040518083038186803b15801561047257600080fd5b505afa158015610486573d6000803e3d6000fd5b505050506040513d601f19601f820116820180604052508101906104aa91906137ee565b91505090565b6040517f6b88071800000000000000000000000000000000000000000000000000000000815230600482018190529073__$0fb85c1a108326fe5c0d8f2f5a241bc0e7$__90636b8807189060240160206040518083038186803b15801561051657600080fd5b505af415801561052a573d6000803e3d6000fd5b505050506040513d601f19601f8201168201806040525081019061054e91906137ee565b73ffffffffffffffffffffffffffffffffffffffff16141561070857600061057461034e565b6040517f21f8a7210000000000000000000000000000000000000000000000000000000081527f689d13d8ed8ef1027633ba26e7121121cf427434450a529548f19bf175974395600482015273ffffffffffffffffffffffffffffffffffffffff91909116906321f8a7219060240160206040518083038186803b1580156105fb57600080fd5b505afa15801561060f573d6000803e3d6000fd5b505050506040513d601f19601f8201168201806040525081019061063391906137ee565b60015490915073ffffffffffffffffffffffffffffffffffffffff1633148061067157503373ffffffffffffffffffffffffffffffffffffffff8216145b610702576040517f08c379a000000000000000000000000000000000000000000000000000000000815260206004820152602260248201527f4175746f6d6174653a2063616c6c6572206973206e6f7420746865207061757360448201527f657200000000000000000000000000000000000000000000000000000000000060648201526084015b60405180910390fd5b506107af565b60015473ffffffffffffffffffffffffffffffffffffffff1633146107af576040517f08c379a000000000000000000000000000000000000000000000000000000000815260206004820152602260248201527f4175746f6d6174653a2063616c6c6572206973206e6f7420746865207061757360448201527f657200000000000000000000000000000000000000000000000000000000000060648201526084016106f9565b6107b7610d14565b61081d576040517f08c379a000000000000000000000000000000000000000000000000000000000815260206004820152601460248201527f4175746f6d6174653a206e6f742070617573656400000000000000000000000060448201526064016106f9565b600180547fffffffffffffffffffffff00ffffffffffffffffffffffffffffffffffffffff169055565b60015473ffffffffffffffffffffffffffffffffffffffff1633146108ee576040517f08c379a000000000000000000000000000000000000000000000000000000000815260206004820152602160248201527f4175746f6d6174653a2063616c6c6572206973206e6f7420746865206f776e6560448201527f720000000000000000000000000000000000000000000000000000000000000060648201526084016106f9565b60035473ffffffffffffffffffffffffffffffffffffffff61010090910416600061092e60015473ffffffffffffffffffffffffffffffffffffffff1690565b6005546040517f93f1a40b000000000000000000000000000000000000000000000000000000008152600481019190915230602482015290915060009073ffffffffffffffffffffffffffffffffffffffff8416906393f1a40b90604401604080518083038186803b1580156109a357600080fd5b505afa1580156109b7573d6000803e3d6000fd5b505050506040513d601f19601f820116820180604052508101906109db91906139f0565b60055481516040517f441a3e700000000000000000000000000000000000000000000000000000000081526004810192909252602482015290915073ffffffffffffffffffffffffffffffffffffffff84169063441a3e7090604401600060405180830381600087803b158015610a5157600080fd5b505af1158015610a65573d6000803e3d6000fd5b50506006546040517f70a0823100000000000000000000000000000000000000000000000000000000815230600482015264010000000090910473ffffffffffffffffffffffffffffffffffffffff16925063a9059cbb9150849083906370a082319060240160206040518083038186803b158015610ae357600080fd5b505afa158015610af7573d6000803e3d6000fd5b505050506040513d601f19601f82011682018060405250810190610b1b9190613a3f565b6040517fffffffff0000000000000000000000000000000000000000000000000000000060e085901b16815273ffffffffffffffffffffffffffffffffffffffff90921660048301526024820152604401602060405180830381600087803b158015610b8657600080fd5b505af1158015610b9a573d6000803e3d6000fd5b505050506040513d601f19601f82011682018060405250810190610bbe9190613946565b506007546040517f70a0823100000000000000000000000000000000000000000000000000000000815230600482015273ffffffffffffffffffffffffffffffffffffffff9091169063a9059cbb90849083906370a082319060240160206040518083038186803b158015610c3257600080fd5b505afa158015610c46573d6000803e3d6000fd5b505050506040513d601f19601f82011682018060405250810190610c6a9190613a3f565b6040517fffffffff0000000000000000000000000000000000000000000000000000000060e085901b16815273ffffffffffffffffffffffffffffffffffffffff909216600483015260248201526044015b602060405180830381600087803b158015610cd657600080fd5b505af1158015610cea573d6000803e3d6000fd5b505050506040513d601f19601f82011682018060405250810190610d0e9190613946565b50505050565b6040517f6b880718000000000000000000000000000000000000000000000000000000008152306004820152600090819073__$0fb85c1a108326fe5c0d8f2f5a241bc0e7$__90636b8807189060240160206040518083038186803b158015610d7c57600080fd5b505af4158015610d90573d6000803e3d6000fd5b505050506040513d601f19601f82011682018060405250810190610db491906137ee565b905073ffffffffffffffffffffffffffffffffffffffff8116301415610df757505060015474010000000000000000000000000000000000000000900460ff1690565b60015474010000000000000000000000000000000000000000900460ff16806104aa57508073ffffffffffffffffffffffffffffffffffffffff16635c975abb6040518163ffffffff1660e01b815260040160206040518083038186803b158015610e6157600080fd5b505afa158015610e75573d6000803e3d6000fd5b505050506040513d601f19601f820116820180604052508101906104aa9190613946565b6040517f6b88071800000000000000000000000000000000000000000000000000000000815230600482018190529073__$0fb85c1a108326fe5c0d8f2f5a241bc0e7$__90636b8807189060240160206040518083038186803b158015610eff57600080fd5b505af4158015610f13573d6000803e3d6000fd5b505050506040513d601f19601f82011682018060405250810190610f3791906137ee565b73ffffffffffffffffffffffffffffffffffffffff1614156110ec576000610f5d61034e565b6040517f21f8a7210000000000000000000000000000000000000000000000000000000081527f689d13d8ed8ef1027633ba26e7121121cf427434450a529548f19bf175974395600482015273ffffffffffffffffffffffffffffffffffffffff91909116906321f8a7219060240160206040518083038186803b158015610fe457600080fd5b505afa158015610ff8573d6000803e3d6000fd5b505050506040513d601f19601f8201168201806040525081019061101c91906137ee565b60015490915073ffffffffffffffffffffffffffffffffffffffff1633148061105a57503373ffffffffffffffffffffffffffffffffffffffff8216145b6110e6576040517f08c379a000000000000000000000000000000000000000000000000000000000815260206004820152602260248201527f4175746f6d6174653a2063616c6c6572206973206e6f7420746865207061757360448201527f657200000000000000000000000000000000000000000000000000000000000060648201526084016106f9565b50611193565b60015473ffffffffffffffffffffffffffffffffffffffff163314611193576040517f08c379a000000000000000000000000000000000000000000000000000000000815260206004820152602260248201527f4175746f6d6174653a2063616c6c6572206973206e6f7420746865207061757360448201527f657200000000000000000000000000000000000000000000000000000000000060648201526084016106f9565b61119b610d14565b15611202576040517f08c379a000000000000000000000000000000000000000000000000000000000815260206004820152601060248201527f4175746f6d6174653a207061757365640000000000000000000000000000000060448201526064016106f9565b600180547fffffffffffffffffffffff00ffffffffffffffffffffffffffffffffffffffff1674010000000000000000000000000000000000000000179055565b836040518060400160405280601e81526020017f50616e63616b65537761704d6173746572436865664c7052657374616b6500008152506112848282612e30565b506003546005546040517f1175a1dd000000000000000000000000000000000000000000000000000000008152600481019190915230602482015261010090910473ffffffffffffffffffffffffffffffffffffffff16906000908290631175a1dd9060440160206040518083038186803b15801561130257600080fd5b505afa158015611316573d6000803e3d6000fd5b505050506040513d601f19601f8201168201806040525081019061133a9190613a3f565b116113c7576040517f08c379a000000000000000000000000000000000000000000000000000000000815260206004820152602360248201527f4d6173746572436865664c7052657374616b653a3a72756e3a206e6f2065617260448201527f6e6564000000000000000000000000000000000000000000000000000000000060648201526084016106f9565b6005546040517fe2bbb15800000000000000000000000000000000000000000000000000000000815260048101919091526000602482015273ffffffffffffffffffffffffffffffffffffffff82169063e2bbb15890604401600060405180830381600087803b15801561143a57600080fd5b505af115801561144e573d6000803e3d6000fd5b50506007546040517f70a082310000000000000000000000000000000000000000000000000000000081523060048201526000935073ffffffffffffffffffffffffffffffffffffffff90911691506370a082319060240160206040518083038186803b1580156114be57600080fd5b505afa1580156114d2573d6000803e3d6000fd5b505050506040513d601f19601f820116820180604052508101906114f69190613a3f565b6004546007549192506115239173ffffffffffffffffffffffffffffffffffffffff908116911683613102565b611554866000015160405180604001604052806002856115439190613d07565b815260208a81015191015289613320565b61158f856000015160405180604001604052806002856115749190613d07565b61157e9086613d7f565b815260208981015191015289613320565b6000600660049054906101000a900473ffffffffffffffffffffffffffffffffffffffff1690506116bb8173ffffffffffffffffffffffffffffffffffffffff16630dfe16816040518163ffffffff1660e01b815260040160206040518083038186803b1580156115ff57600080fd5b505afa158015611613573d6000803e3d6000fd5b505050506040513d601f19601f8201168201806040525081019061163791906137ee565b8273ffffffffffffffffffffffffffffffffffffffff1663d21220a76040518163ffffffff1660e01b815260040160206040518083038186803b15801561167d57600080fd5b505afa158015611691573d6000803e3d6000fd5b505050506040513d601f19601f820116820180604052508101906116b591906137ee565b8a61346f565b6040517f70a0823100000000000000000000000000000000000000000000000000000000815230600482015260009073ffffffffffffffffffffffffffffffffffffffff8316906370a082319060240160206040518083038186803b15801561172357600080fd5b505afa158015611737573d6000803e3d6000fd5b505050506040513d601f19601f8201168201806040525081019061175b9190613a3f565b60065490915061178a90640100000000900473ffffffffffffffffffffffffffffffffffffffff168583613102565b6005546040517fe2bbb15800000000000000000000000000000000000000000000000000000000815260048101919091526024810182905273ffffffffffffffffffffffffffffffffffffffff85169063e2bbb15890604401600060405180830381600087803b1580156117fd57600080fd5b505af1158015611811573d6000803e3d6000fd5b5050505050505050505050505050565b6040517f6b88071800000000000000000000000000000000000000000000000000000000815230600482015260009073__$0fb85c1a108326fe5c0d8f2f5a241bc0e7$__90636b8807189060240160206040518083038186803b15801561188757600080fd5b505af415801561189b573d6000803e3d6000fd5b505050506040513d601f19601f820116820180604052508101906118bf91906137ee565b90503373ffffffffffffffffffffffffffffffffffffffff82163014611962578173ffffffffffffffffffffffffffffffffffffffff16638da5cb5b6040518163ffffffff1660e01b815260040160206040518083038186803b15801561192557600080fd5b505afa158015611939573d6000803e3d6000fd5b505050506040513d601f19601f8201168201806040525081019061195d91906137ee565b61197c565b60015473ffffffffffffffffffffffffffffffffffffffff165b73ffffffffffffffffffffffffffffffffffffffff1614611a1f576040517f08c379a000000000000000000000000000000000000000000000000000000000815260206004820152603d60248201527f4175746f6d6174653a3a6368616e676550726f746f636f6c4665653a2063616c60448201527f6c6572206973206e6f74207468652070726f746f636f6c206f776e657200000060648201526084016106f9565b60028290556040518281527f3c1d43943224e49d951ce8295a5c8332b517083b3f89bed50feae2cb39caebb59060200160405180910390a15050565b6040517f6b880718000000000000000000000000000000000000000000000000000000008152306004820152600090819073__$0fb85c1a108326fe5c0d8f2f5a241bc0e7$__90636b8807189060240160206040518083038186803b158015611ac357600080fd5b505af4158015611ad7573d6000803e3d6000fd5b505050506040513d601f19601f82011682018060405250810190611afb91906137ee565b905073ffffffffffffffffffffffffffffffffffffffff81163014801590611b2557506000600254125b15611ba8578073ffffffffffffffffffffffffffffffffffffffff1663b0e21e8a6040518163ffffffff1660e01b815260040160206040518083038186803b158015611b7057600080fd5b505afa158015611b84573d6000803e3d6000fd5b505050506040513d601f19601f820116820180604052508101906104aa9190613a3f565b6000611bb261034e565b905060008060025412611bc757600254611c84565b6040517fbd02d0f50000000000000000000000000000000000000000000000000000000081527fa93d95f96a5de25d7a41ddf1f5e8d45cfc929c4838163cf011dab4043a4a40d5600482015273ffffffffffffffffffffffffffffffffffffffff83169063bd02d0f59060240160206040518083038186803b158015611c4c57600080fd5b505afa158015611c60573d6000803e3d6000fd5b505050506040513d601f19601f82011682018060405250810190611c849190613a3f565b905080611c95576000935050505090565b6040517f21f8a7210000000000000000000000000000000000000000000000000000000081527f65c90423fe7c880476633a7e36521740f87199d233dc56eb4ca6643eb76f605f600482015260009073ffffffffffffffffffffffffffffffffffffffff8416906321f8a7219060240160206040518083038186803b158015611d1d57600080fd5b505afa158015611d31573d6000803e3d6000fd5b505050506040513d601f19601f82011682018060405250810190611d5591906137ee565b73ffffffffffffffffffffffffffffffffffffffff1663feaf968c6040518163ffffffff1660e01b815260040160a06040518083038186803b158015611d9a57600080fd5b505afa158015611dae573d6000803e3d6000fd5b505050506040513d601f19601f82011682018060405250810190611dd29190613afd565b50505091505060008113611e42576040517f08c379a000000000000000000000000000000000000000000000000000000000815260206004820152601760248201527f4175746f6d6174653a20696e76616c696420707269636500000000000000000060448201526064016106f9565b80611e5583670de0b6b3a7640000613d42565b611e5f9190613d07565b94505050505090565b60015473ffffffffffffffffffffffffffffffffffffffff16611ed857600180547fffffffffffffffffffffffff000000000000000000000000000000000000000016321790557fffffffffffffffffffffffffffffffffffffffffffffffffffffffffffffffff600255611f7f565b60015473ffffffffffffffffffffffffffffffffffffffff163314611f7f576040517f08c379a000000000000000000000000000000000000000000000000000000000815260206004820152602160248201527f4175746f6d6174653a2063616c6c6572206973206e6f7420746865206f776e6560448201527f720000000000000000000000000000000000000000000000000000000000000060648201526084016106f9565b60035460ff161580611fb0575060035473ffffffffffffffffffffffffffffffffffffffff86811661010090920416145b612062576040517f08c379a000000000000000000000000000000000000000000000000000000000815260206004820152604160248201527f4d6173746572436865664c7052657374616b653a3a696e69743a207265696e6960448201527f7469616c697a65207374616b696e67206164647265737320666f72626964646560648201527f6e00000000000000000000000000000000000000000000000000000000000000608482015260a4016106f9565b6003805473ffffffffffffffffffffffffffffffffffffffff8716610100027fffffffffffffffffffffff0000000000000000000000000000000000000000ff8216811790925560ff91821691161715806120d7575060045473ffffffffffffffffffffffffffffffffffffffff8581169116145b612189576040517f08c379a000000000000000000000000000000000000000000000000000000000815260206004820152604a60248201527f4d6173746572436865664c7052657374616b653a3a696e69743a207265696e6960448201527f7469616c697a65206c697175696469747920726f75746572206164647265737360648201527f20666f7262696464656e00000000000000000000000000000000000000000000608482015260a4016106f9565b600480547fffffffffffffffffffffffff00000000000000000000000000000000000000001673ffffffffffffffffffffffffffffffffffffffff861617905560035460ff1615806121dc575082600554145b612268576040517f08c379a000000000000000000000000000000000000000000000000000000000815260206004820152603c60248201527f4d6173746572436865664c7052657374616b653a3a696e69743a207265696e6960448201527f7469616c697a6520706f6f6c20696e64657820666f7262696464656e0000000060648201526084016106f9565b60058390556006805461ffff83811662010000027fffffffffffffffffffffffffffffffffffffffffffffffffffffffff000000009092169085161717905560035460ff16612485576003546005546040517f1526fe270000000000000000000000000000000000000000000000000000000081526004810191909152600091610100900473ffffffffffffffffffffffffffffffffffffffff1690631526fe279060240160806040518083038186803b15801561232557600080fd5b505afa158015612339573d6000803e3d6000fd5b505050506040513d601f19601f8201168201806040525081019061235d9190613981565b8051600680547fffffffffffffffff0000000000000000000000000000000000000000ffffffff1664010000000073ffffffffffffffffffffffffffffffffffffffff93841602179055600354604080517fdce1748400000000000000000000000000000000000000000000000000000000815290519394506101009091049091169163dce1748491600480820192602092909190829003018186803b15801561240657600080fd5b505afa15801561241a573d6000803e3d6000fd5b505050506040513d601f19601f8201168201806040525081019061243e91906137ee565b600780547fffffffffffffffffffffffff00000000000000000000000000000000000000001673ffffffffffffffffffffffffffffffffffffffff92909216919091179055505b5050600380547fffffffffffffffffffffffffffffffffffffffffffffffffffffffffffffff00166001179055505050565b60015473ffffffffffffffffffffffffffffffffffffffff16331461255e576040517f08c379a000000000000000000000000000000000000000000000000000000000815260206004820152602160248201527f4175746f6d6174653a2063616c6c6572206973206e6f7420746865206f776e6560448201527f720000000000000000000000000000000000000000000000000000000000000060648201526084016106f9565b6040517fa9059cbb00000000000000000000000000000000000000000000000000000000815273ffffffffffffffffffffffffffffffffffffffff83811660048301526024820183905284169063a9059cbb90604401610cbc565b60015473ffffffffffffffffffffffffffffffffffffffff163314612660576040517f08c379a000000000000000000000000000000000000000000000000000000000815260206004820152602160248201527f4175746f6d6174653a2063616c6c6572206973206e6f7420746865206f776e6560448201527f720000000000000000000000000000000000000000000000000000000000000060648201526084016106f9565b6006546040517f70a0823100000000000000000000000000000000000000000000000000000000815230600482015264010000000090910473ffffffffffffffffffffffffffffffffffffffff169060009082906370a082319060240160206040518083038186803b1580156126d557600080fd5b505afa1580156126e9573d6000803e3d6000fd5b505050506040513d601f19601f8201168201806040525081019061270d9190613a3f565b60035490915061273c9073ffffffffffffffffffffffffffffffffffffffff8481169161010090041683613102565b6003546005546040517fe2bbb15800000000000000000000000000000000000000000000000000000000815260048101919091526024810183905261010090910473ffffffffffffffffffffffffffffffffffffffff169063e2bbb15890604401600060405180830381600087803b1580156127b757600080fd5b505af11580156127cb573d6000803e3d6000fd5b505050505050565b60015473ffffffffffffffffffffffffffffffffffffffff16331461287a576040517f08c379a000000000000000000000000000000000000000000000000000000000815260206004820152602160248201527f4175746f6d6174653a2063616c6c6572206973206e6f7420746865206f776e6560448201527f720000000000000000000000000000000000000000000000000000000000000060648201526084016106f9565b600061289b60015473ffffffffffffffffffffffffffffffffffffffff1690565b6003546005546040517f5312ea8e0000000000000000000000000000000000000000000000000000000081526004810191909152919250610100900473ffffffffffffffffffffffffffffffffffffffff1690635312ea8e90602401600060405180830381600087803b15801561291157600080fd5b505af1158015612925573d6000803e3d6000fd5b50506006546040517f70a0823100000000000000000000000000000000000000000000000000000000815230600482015264010000000090910473ffffffffffffffffffffffffffffffffffffffff16925063a9059cbb9150839083906370a082319060240160206040518083038186803b1580156129a357600080fd5b505afa1580156129b7573d6000803e3d6000fd5b505050506040513d601f19601f820116820180604052508101906129db9190613a3f565b6040517fffffffff0000000000000000000000000000000000000000000000000000000060e085901b16815273ffffffffffffffffffffffffffffffffffffffff90921660048301526024820152604401602060405180830381600087803b158015612a4657600080fd5b505af1158015612a5a573d6000803e3d6000fd5b505050506040513d601f19601f82011682018060405250810190612a7e9190613946565b506007546040517f70a0823100000000000000000000000000000000000000000000000000000000815230600482015273ffffffffffffffffffffffffffffffffffffffff9091169063a9059cbb90839083906370a082319060240160206040518083038186803b158015612af257600080fd5b505afa158015612b06573d6000803e3d6000fd5b505050506040513d601f19601f82011682018060405250810190612b2a9190613a3f565b6040517fffffffff0000000000000000000000000000000000000000000000000000000060e085901b16815273ffffffffffffffffffffffffffffffffffffffff90921660048301526024820152604401602060405180830381600087803b158015612b9557600080fd5b505af1158015612ba9573d6000803e3d6000fd5b505050506040513d601f19601f82011682018060405250810190612bcd9190613946565b5050565b60015473ffffffffffffffffffffffffffffffffffffffff163314612c78576040517f08c379a000000000000000000000000000000000000000000000000000000000815260206004820152602160248201527f4175746f6d6174653a2063616c6c6572206973206e6f7420746865206f776e6560448201527f720000000000000000000000000000000000000000000000000000000000000060648201526084016106f9565b6040517f6b88071800000000000000000000000000000000000000000000000000000000815230600482018190529073__$0fb85c1a108326fe5c0d8f2f5a241bc0e7$__90636b8807189060240160206040518083038186803b158015612cde57600080fd5b505af4158015612cf2573d6000803e3d6000fd5b505050506040513d601f19601f82011682018060405250810190612d1691906137ee565b73ffffffffffffffffffffffffffffffffffffffff1614612db9576040517f08c379a000000000000000000000000000000000000000000000000000000000815260206004820152602160248201527f4175746f6d6174653a206368616e676520746865206f776e6572206661696c6560448201527f640000000000000000000000000000000000000000000000000000000000000060648201526084016106f9565b6001805473ffffffffffffffffffffffffffffffffffffffff8381167fffffffffffffffffffffffff0000000000000000000000000000000000000000831681179093556040519116919082907f8be0079c531659141344cd1fd0a4f28419497f9722a3daafe3b4186f6b6457e090600090a35050565b6000612e3a610d14565b15612ea1576040517f08c379a000000000000000000000000000000000000000000000000000000000815260206004820152601060248201527f4175746f6d6174653a207061757365640000000000000000000000000000000060448201526064016106f9565b6000612ec260015473ffffffffffffffffffffffffffffffffffffffff1690565b90503273ffffffffffffffffffffffffffffffffffffffff82161415612eec5760009150506130fc565b6000612ef661034e565b6040517f21f8a7210000000000000000000000000000000000000000000000000000000081527fe78c16c6d839536d3155985aab4e9c6013c8c3d446054bcebc48612f359d81f5600482015290915060009073ffffffffffffffffffffffffffffffffffffffff8316906321f8a7219060240160206040518083038186803b158015612f8157600080fd5b505afa158015612f95573d6000803e3d6000fd5b505050506040513d601f19601f82011682018060405250810190612fb991906137ee565b905073ffffffffffffffffffffffffffffffffffffffff811661305e576040517f08c379a000000000000000000000000000000000000000000000000000000000815260206004820152602b60248201527f4175746f6d6174653a3a5f62696c6c3a2062616c616e636520636f6e7472616360448201527f74206e6f7420666f756e6400000000000000000000000000000000000000000060648201526084016106f9565b8073ffffffffffffffffffffffffffffffffffffffff1663e578a2258488613084611a5b565b896040518563ffffffff1660e01b81526004016130a49493929190613b41565b602060405180830381600087803b1580156130be57600080fd5b505af11580156130d2573d6000803e3d6000fd5b505050506040513d601f19601f820116820180604052508101906130f69190613a3f565b93505050505b92915050565b6040517fdd62ed3e00000000000000000000000000000000000000000000000000000000815230600482015273ffffffffffffffffffffffffffffffffffffffff83811660248301526000919085169063dd62ed3e9060440160206040518083038186803b15801561317357600080fd5b505afa158015613187573d6000803e3d6000fd5b505050506040513d601f19601f820116820180604052508101906131ab9190613a3f565b905080158015906131bb57508181105b1561326a576040517f095ea7b300000000000000000000000000000000000000000000000000000000815273ffffffffffffffffffffffffffffffffffffffff84811660048301526000602483015285169063095ea7b390604401602060405180830381600087803b15801561323057600080fd5b505af1158015613244573d6000803e3d6000fd5b505050506040513d601f19601f820116820180604052508101906132689190613946565b505b818114610d0e576040517f095ea7b300000000000000000000000000000000000000000000000000000000815273ffffffffffffffffffffffffffffffffffffffff84811660048301526024820184905285169063095ea7b390604401602060405180830381600087803b1580156132e157600080fd5b505af11580156132f5573d6000803e3d6000fd5b505050506040513d601f19601f820116820180604052508101906133199190613946565b5050505050565b826001845161332f9190613d7f565b8151811061333f5761333f613dc5565b602002602001015173ffffffffffffffffffffffffffffffffffffffff168360008151811061337057613370613dc5565b602002602001015173ffffffffffffffffffffffffffffffffffffffff16141561339957505050565b60048054835160208501516040517f38ed173900000000000000000000000000000000000000000000000000000000815273ffffffffffffffffffffffffffffffffffffffff909316936338ed1739936133fb93929189913091899101613be0565b600060405180830381600087803b15801561341557600080fd5b505af1158015613429573d6000803e3d6000fd5b505050506040513d6000823e601f3d9081017fffffffffffffffffffffffffffffffffffffffffffffffffffffffffffffffe0168201604052610d0e91908101906138ae565b600480546040517f70a08231000000000000000000000000000000000000000000000000000000008152309281019290925273ffffffffffffffffffffffffffffffffffffffff908116916000918616906370a082319060240160206040518083038186803b1580156134e157600080fd5b505afa1580156134f5573d6000803e3d6000fd5b505050506040513d601f19601f820116820180604052508101906135199190613a3f565b6040517f70a0823100000000000000000000000000000000000000000000000000000000815230600482015290915060009073ffffffffffffffffffffffffffffffffffffffff8616906370a082319060240160206040518083038186803b15801561358457600080fd5b505afa158015613598573d6000803e3d6000fd5b505050506040513d601f19601f820116820180604052508101906135bc9190613a3f565b90506135df73ffffffffffffffffffffffffffffffffffffffff87168484613102565b61360073ffffffffffffffffffffffffffffffffffffffff86168483613102565b6040517fe8e3370000000000000000000000000000000000000000000000000000000000815273ffffffffffffffffffffffffffffffffffffffff87811660048301528681166024830152604482018490526064820183905260006084830181905260a48301523060c483015260e4820186905284169063e8e337009061010401606060405180830381600087803b15801561369b57600080fd5b505af11580156136af573d6000803e3d6000fd5b505050506040513d601f19601f820116820180604052508101906136d39190613acf565b505050505050505050565b6000604082840312156136f057600080fd5b6136f8613c6b565b9050813567ffffffffffffffff81111561371157600080fd5b8201601f8101841361372257600080fd5b8035602061373761373283613ce3565b613c94565b80838252828201915082850188848660051b880101111561375757600080fd5b600095505b8486101561378357803561376f81613e23565b83526001959095019491830191830161375c565b5085525093840135938301939093525092915050565b803561ffff811681146137ab57600080fd5b919050565b805169ffffffffffffffffffff811681146137ab57600080fd5b6000602082840312156137dc57600080fd5b81356137e781613e23565b9392505050565b60006020828403121561380057600080fd5b81516137e781613e23565b60008060006060848603121561382057600080fd5b833561382b81613e23565b9250602084013561383b81613e23565b929592945050506040919091013590565b600080600080600060a0868803121561386457600080fd5b853561386f81613e23565b9450602086013561387f81613e23565b93506040860135925061389460608701613799565b91506138a260808701613799565b90509295509295909350565b600060208083850312156138c157600080fd5b825167ffffffffffffffff8111156138d857600080fd5b8301601f810185136138e957600080fd5b80516138f761373282613ce3565b80828252848201915084840188868560051b870101111561391757600080fd5b600094505b8385101561393a57805183526001949094019391850191850161391c565b50979650505050505050565b60006020828403121561395857600080fd5b815180151581146137e757600080fd5b60006020828403121561397a57600080fd5b5035919050565b60006080828403121561399357600080fd5b6040516080810181811067ffffffffffffffff821117156139b6576139b6613df4565b60405282516139c481613e23565b808252506020830151602082015260408301516040820152606083015160608201528091505092915050565b600060408284031215613a0257600080fd5b6040516040810181811067ffffffffffffffff82111715613a2557613a25613df4565b604052825181526020928301519281019290925250919050565b600060208284031215613a5157600080fd5b5051919050565b60008060008060808587031215613a6e57600080fd5b8435935060208501359250604085013567ffffffffffffffff80821115613a9457600080fd5b613aa0888389016136de565b93506060870135915080821115613ab657600080fd5b50613ac3878288016136de565b91505092959194509250565b600080600060608486031215613ae457600080fd5b8351925060208401519150604084015190509250925092565b600080600080600060a08688031215613b1557600080fd5b613b1e866137b0565b94506020860151935060408601519250606086015191506138a2608087016137b0565b73ffffffffffffffffffffffffffffffffffffffff8516815260006020858184015284604084015260806060840152835180608085015260005b81811015613b975785810183015185820160a001528201613b7b565b81811115613ba957600060a083870101525b50601f017fffffffffffffffffffffffffffffffffffffffffffffffffffffffffffffffe0169290920160a0019695505050505050565b600060a082018783526020878185015260a0604085015281875180845260c086019150828901935060005b81811015613c3d57845173ffffffffffffffffffffffffffffffffffffffff1683529383019391830191600101613c0b565b505073ffffffffffffffffffffffffffffffffffffffff969096166060850152505050608001529392505050565b6040805190810167ffffffffffffffff81118282101715613c8e57613c8e613df4565b60405290565b604051601f82017fffffffffffffffffffffffffffffffffffffffffffffffffffffffffffffffe016810167ffffffffffffffff81118282101715613cdb57613cdb613df4565b604052919050565b600067ffffffffffffffff821115613cfd57613cfd613df4565b5060051b60200190565b600082613d3d577f4e487b7100000000000000000000000000000000000000000000000000000000600052601260045260246000fd5b500490565b6000817fffffffffffffffffffffffffffffffffffffffffffffffffffffffffffffffff0483118215151615613d7a57613d7a613d96565b500290565b600082821015613d9157613d91613d96565b500390565b7f4e487b7100000000000000000000000000000000000000000000000000000000600052601160045260246000fd5b7f4e487b7100000000000000000000000000000000000000000000000000000000600052603260045260246000fd5b7f4e487b7100000000000000000000000000000000000000000000000000000000600052604160045260246000fd5b73ffffffffffffffffffffffffffffffffffffffff81168114613e4557600080fd5b5056fea164736f6c6343000806000a",
  "libraries": {
    "ERC1167": "0x1F59Ee3B1ff055Be0b84BcB6D7beAa7f984fFf2e"
  },
  "devdoc": {
    "kind": "dev",
    "methods": {
      "changeProtocolFee(int256)": {
        "params": {
          "__protocolFee": "New protocol fee."
        }
      },
      "protocolFee()": {
        "returns": {
          "_0": "Current protocol fee."
        }
      },
      "transfer(address,address,uint256)": {
        "params": {
          "amount": "Transferred amount of tokens.",
          "recipient": "Token recipient address.",
          "token": "The address of the token to be transferred."
        }
      },
      "transferOwnership(address)": {
        "details": "Transfers ownership of the contract to a new account (`newOwner`). Can only be called by the current owner."
      }
    },
    "version": 1
  },
  "userdoc": {
    "kind": "user",
    "methods": {
      "changeProtocolFee(int256)": {
        "notice": "Change protocol fee."
      },
      "info()": {
        "notice": "Returns address of Storage contract."
      },
      "owner()": {
        "notice": "Returns the address of the current owner."
      },
      "pause()": {
        "notice": "Pause contract."
      },
      "paused()": {
        "notice": "Returns true if the contract is paused, and false otherwise."
      },
      "transfer(address,address,uint256)": {
        "notice": "Transfer ERC20 token to recipient."
      },
      "unpause()": {
        "notice": "Unpause contract."
      }
    },
    "notice": "Use with LP token only.",
    "version": 1
  },
  "storageLayout": {
    "storage": [
      {
        "astId": 2680,
        "contract": "contracts/MasterChefLpRestake.automate.sol:MasterChefLpRestake",
        "label": "_info",
        "offset": 0,
        "slot": "0",
        "type": "t_address"
      },
      {
        "astId": 2683,
        "contract": "contracts/MasterChefLpRestake.automate.sol:MasterChefLpRestake",
        "label": "_owner",
        "offset": 0,
        "slot": "1",
        "type": "t_address"
      },
      {
        "astId": 2686,
        "contract": "contracts/MasterChefLpRestake.automate.sol:MasterChefLpRestake",
        "label": "_paused",
        "offset": 20,
        "slot": "1",
        "type": "t_bool"
      },
      {
        "astId": 2689,
        "contract": "contracts/MasterChefLpRestake.automate.sol:MasterChefLpRestake",
        "label": "_protocolFee",
        "offset": 0,
        "slot": "2",
        "type": "t_int256"
      },
      {
        "astId": 2692,
        "contract": "contracts/MasterChefLpRestake.automate.sol:MasterChefLpRestake",
        "label": "_initialized",
        "offset": 0,
        "slot": "3",
        "type": "t_bool"
      },
      {
        "astId": 1310,
        "contract": "contracts/MasterChefLpRestake.automate.sol:MasterChefLpRestake",
        "label": "staking",
        "offset": 1,
        "slot": "3",
        "type": "t_contract(IMasterChef)191"
      },
      {
        "astId": 1312,
        "contract": "contracts/MasterChefLpRestake.automate.sol:MasterChefLpRestake",
        "label": "liquidityRouter",
        "offset": 0,
        "slot": "4",
        "type": "t_address"
      },
      {
        "astId": 1314,
        "contract": "contracts/MasterChefLpRestake.automate.sol:MasterChefLpRestake",
        "label": "pool",
        "offset": 0,
        "slot": "5",
        "type": "t_uint256"
      },
      {
        "astId": 1316,
        "contract": "contracts/MasterChefLpRestake.automate.sol:MasterChefLpRestake",
        "label": "slippage",
        "offset": 0,
        "slot": "6",
        "type": "t_uint16"
      },
      {
        "astId": 1318,
        "contract": "contracts/MasterChefLpRestake.automate.sol:MasterChefLpRestake",
        "label": "deadline",
        "offset": 2,
        "slot": "6",
        "type": "t_uint16"
      },
      {
        "astId": 1321,
        "contract": "contracts/MasterChefLpRestake.automate.sol:MasterChefLpRestake",
        "label": "stakingToken",
        "offset": 4,
        "slot": "6",
        "type": "t_contract(IERC20)123"
      },
      {
        "astId": 1324,
        "contract": "contracts/MasterChefLpRestake.automate.sol:MasterChefLpRestake",
        "label": "rewardToken",
        "offset": 0,
        "slot": "7",
        "type": "t_contract(IERC20)123"
      }
    ],
    "types": {
      "t_address": {
        "encoding": "inplace",
        "label": "address",
        "numberOfBytes": "20"
      },
      "t_bool": {
        "encoding": "inplace",
        "label": "bool",
        "numberOfBytes": "1"
      },
      "t_contract(IERC20)123": {
        "encoding": "inplace",
        "label": "contract IERC20",
        "numberOfBytes": "20"
      },
      "t_contract(IMasterChef)191": {
        "encoding": "inplace",
        "label": "contract IMasterChef",
        "numberOfBytes": "20"
      },
      "t_int256": {
        "encoding": "inplace",
        "label": "int256",
        "numberOfBytes": "32"
      },
      "t_uint16": {
        "encoding": "inplace",
        "label": "uint16",
        "numberOfBytes": "2"
      },
      "t_uint256": {
        "encoding": "inplace",
        "label": "uint256",
        "numberOfBytes": "32"
      }
    }
  }
}