{
  "address": "0xd526BbCa04D23EE0BA8ABb855AF230b7C32ff04B",
  "abi": [
    {
      "inputs": [
        {
          "internalType": "address",
          "name": "_info",
          "type": "address"
        }
      ],
      "stateMutability": "nonpayable",
      "type": "constructor"
    },
    {
      "anonymous": false,
      "inputs": [
        {
          "indexed": true,
          "internalType": "address",
          "name": "previousOwner",
          "type": "address"
        },
        {
          "indexed": true,
          "internalType": "address",
          "name": "newOwner",
          "type": "address"
        }
      ],
      "name": "OwnershipTransferred",
      "type": "event"
    },
    {
      "anonymous": false,
      "inputs": [
        {
          "indexed": false,
          "internalType": "int256",
          "name": "protocolFee",
          "type": "int256"
        }
      ],
      "name": "ProtocolFeeChanged",
      "type": "event"
    },
    {
      "inputs": [
        {
          "internalType": "int256",
          "name": "__protocolFee",
          "type": "int256"
        }
      ],
      "name": "changeProtocolFee",
      "outputs": [],
      "stateMutability": "nonpayable",
      "type": "function"
    },
    {
      "inputs": [],
      "name": "deadline",
      "outputs": [
        {
          "internalType": "uint16",
          "name": "",
          "type": "uint16"
        }
      ],
      "stateMutability": "view",
      "type": "function"
    },
    {
      "inputs": [
        {
          "internalType": "uint256",
          "name": "amount",
          "type": "uint256"
        }
      ],
      "name": "deposit",
      "outputs": [],
      "stateMutability": "nonpayable",
      "type": "function"
    },
    {
      "inputs": [],
      "name": "emergencyWithdraw",
      "outputs": [],
      "stateMutability": "nonpayable",
      "type": "function"
    },
    {
      "inputs": [],
      "name": "info",
      "outputs": [
        {
          "internalType": "address",
          "name": "",
          "type": "address"
        }
      ],
      "stateMutability": "view",
      "type": "function"
    },
    {
      "inputs": [
        {
          "internalType": "address",
          "name": "_staking",
          "type": "address"
        },
        {
          "internalType": "address",
          "name": "_liquidityRouter",
          "type": "address"
        },
        {
          "internalType": "uint256",
          "name": "_pool",
          "type": "uint256"
        },
        {
          "internalType": "uint16",
          "name": "_slippage",
          "type": "uint16"
        },
        {
          "internalType": "uint16",
          "name": "_deadline",
          "type": "uint16"
        }
      ],
      "name": "init",
      "outputs": [],
      "stateMutability": "nonpayable",
      "type": "function"
    },
    {
      "inputs": [],
      "name": "liquidityRouter",
      "outputs": [
        {
          "internalType": "address",
          "name": "",
          "type": "address"
        }
      ],
      "stateMutability": "view",
      "type": "function"
    },
    {
      "inputs": [],
      "name": "owner",
      "outputs": [
        {
          "internalType": "address",
          "name": "",
          "type": "address"
        }
      ],
      "stateMutability": "view",
      "type": "function"
    },
    {
      "inputs": [],
      "name": "pause",
      "outputs": [],
      "stateMutability": "nonpayable",
      "type": "function"
    },
    {
      "inputs": [],
      "name": "paused",
      "outputs": [
        {
          "internalType": "bool",
          "name": "",
          "type": "bool"
        }
      ],
      "stateMutability": "view",
      "type": "function"
    },
    {
      "inputs": [],
      "name": "pool",
      "outputs": [
        {
          "internalType": "uint256",
          "name": "",
          "type": "uint256"
        }
      ],
      "stateMutability": "view",
      "type": "function"
    },
    {
      "inputs": [],
      "name": "protocolFee",
      "outputs": [
        {
          "internalType": "uint256",
          "name": "",
          "type": "uint256"
        }
      ],
      "stateMutability": "view",
      "type": "function"
    },
    {
      "inputs": [],
      "name": "refund",
      "outputs": [],
      "stateMutability": "nonpayable",
      "type": "function"
    },
    {
      "inputs": [],
      "name": "rewardToken",
      "outputs": [
        {
          "internalType": "contract IERC20",
          "name": "",
          "type": "address"
        }
      ],
      "stateMutability": "view",
      "type": "function"
    },
    {
      "inputs": [
        {
          "internalType": "uint256",
          "name": "gasFee",
          "type": "uint256"
        },
        {
          "internalType": "uint256",
          "name": "_deadline",
          "type": "uint256"
        },
        {
          "components": [
            {
              "internalType": "address[]",
              "name": "path",
              "type": "address[]"
            },
            {
              "internalType": "uint256",
              "name": "outMin",
              "type": "uint256"
            }
          ],
          "internalType": "struct MasterChef2SingleRestake.Swap",
          "name": "swap",
          "type": "tuple"
        }
      ],
      "name": "run",
      "outputs": [],
      "stateMutability": "nonpayable",
      "type": "function"
    },
    {
      "inputs": [
        {
          "internalType": "uint256",
          "name": "gasFee",
          "type": "uint256"
        },
        {
          "internalType": "uint256",
          "name": "_deadline",
          "type": "uint256"
        }
      ],
      "name": "runStopLoss",
      "outputs": [],
      "stateMutability": "nonpayable",
      "type": "function"
    },
    {
      "inputs": [
        {
          "internalType": "address[]",
          "name": "path",
          "type": "address[]"
        },
        {
          "internalType": "uint256",
          "name": "amountOut",
          "type": "uint256"
        },
        {
          "internalType": "uint256",
          "name": "amountOutMin",
          "type": "uint256"
        }
      ],
      "name": "setStopLoss",
      "outputs": [],
      "stateMutability": "nonpayable",
      "type": "function"
    },
    {
      "inputs": [],
      "name": "slippage",
      "outputs": [
        {
          "internalType": "uint16",
          "name": "",
          "type": "uint16"
        }
      ],
      "stateMutability": "view",
      "type": "function"
    },
    {
      "inputs": [],
      "name": "staking",
      "outputs": [
        {
          "internalType": "contract IMasterChef2",
          "name": "",
          "type": "address"
        }
      ],
      "stateMutability": "view",
      "type": "function"
    },
    {
      "inputs": [],
      "name": "stakingToken",
      "outputs": [
        {
          "internalType": "contract IERC20",
          "name": "",
          "type": "address"
        }
      ],
      "stateMutability": "view",
      "type": "function"
    },
    {
      "inputs": [],
      "name": "stopLoss",
      "outputs": [
        {
          "internalType": "uint256",
          "name": "amountOut",
          "type": "uint256"
        },
        {
          "internalType": "uint256",
          "name": "amountOutMin",
          "type": "uint256"
        }
      ],
      "stateMutability": "view",
      "type": "function"
    },
    {
      "inputs": [
        {
          "internalType": "address",
          "name": "token",
          "type": "address"
        },
        {
          "internalType": "address",
          "name": "recipient",
          "type": "address"
        },
        {
          "internalType": "uint256",
          "name": "amount",
          "type": "uint256"
        }
      ],
      "name": "transfer",
      "outputs": [],
      "stateMutability": "nonpayable",
      "type": "function"
    },
    {
      "inputs": [
        {
          "internalType": "address",
          "name": "newOwner",
          "type": "address"
        }
      ],
      "name": "transferOwnership",
      "outputs": [],
      "stateMutability": "nonpayable",
      "type": "function"
    },
    {
      "inputs": [],
      "name": "unpause",
      "outputs": [],
      "stateMutability": "nonpayable",
      "type": "function"
    }
  ],
  "transactionHash": "0x45a2fd981d8f8b0996234ea0e55c255b07f5c32226e63e165fa031c0e4aeed11",
  "args": [
    "0x1CeC05129206d9fBEE2e86E1A9294E64f7F86461"
  ],
  "numDeployments": 1,
  "solcInputHash": "5e9300ba31ebfc28d100654ef9261bd7",
  "bytecode": "0x60806040523480156200001157600080fd5b506040516200497238038062004972833981016040819052620000349162000069565b600080546001600160a01b039092166001600160a01b031992831617905560018054909116321790556000196002556200009b565b6000602082840312156200007c57600080fd5b81516001600160a01b03811681146200009457600080fd5b9392505050565b6148c780620000ab6000396000f3fe608060405234801561001057600080fd5b50600436106101985760003560e01c80638456cb59116100e3578063b6b55f251161008c578063db2e21bc11610066578063db2e21bc14610388578063f2fde38b14610390578063f7c618c1146103a357600080fd5b8063b6b55f251461034f578063b838d91414610362578063beabacc81461037557600080fd5b80639327d80a116100bd5780639327d80a146103215780639742b5c314610334578063b0e21e8a1461034757600080fd5b80638456cb59146102e85780638c3d8faf146102f05780638da5cb5b1461030357600080fd5b80633f4ba83a11610145578063590e1ae31161011f578063590e1ae3146102a05780635c975abb146102a857806372f702f3146102c057600080fd5b80633f4ba83a146102505780634cf088d914610258578063527a15651461027d57600080fd5b806329dcb0cf1161017657806329dcb0cf14610213578063370158ea1461023a5780633e032a3b1461024257600080fd5b806313ead7c61461019d57806316f0115b146101b257806324702944146101ce575b600080fd5b6101b06101ab3660046143d9565b6103c3565b005b6101bb60055481565b6040519081526020015b60405180910390f35b6004546101ee9073ffffffffffffffffffffffffffffffffffffffff1681565b60405173ffffffffffffffffffffffffffffffffffffffff90911681526020016101c5565b6006546102279062010000900461ffff1681565b60405161ffff90911681526020016101c5565b6101ee61081d565b6006546102279061ffff1681565b6101b061097f565b6003546101ee90610100900473ffffffffffffffffffffffffffffffffffffffff1681565b600954600a5461028b919082565b604080519283526020830191909152016101c5565b6101b0610d11565b6102b06110d8565b60405190151581526020016101c5565b6006546101ee90640100000000900473ffffffffffffffffffffffffffffffffffffffff1681565b6101b061125d565b6101b06102fe3660046141e8565b611607565b60015473ffffffffffffffffffffffffffffffffffffffff166101ee565b6101b061032f3660046143b7565b611731565b6101b0610342366004614329565b611abf565b6101bb611cf9565b6101b061035d366004614329565b612106565b6101b0610370366004614186565b61229d565b6101b0610383366004614145565b612914565b6101b0612a69565b6101b061039e36600461410b565b612c81565b6007546101ee9073ffffffffffffffffffffffffffffffffffffffff1681565b82604051806060016040528060238152602001614874602391396103e78282612ee0565b50600354600480546005546040517f1175a1dd0000000000000000000000000000000000000000000000000000000081529283015230602483015273ffffffffffffffffffffffffffffffffffffffff61010090930483169216906000908390631175a1dd9060440160206040518083038186803b15801561046857600080fd5b505afa15801561047c573d6000803e3d6000fd5b505050506040513d601f19601f820116820180604052508101906104a0919061439e565b11610532576040517f08c379a000000000000000000000000000000000000000000000000000000000815260206004820152602860248201527f4d6173746572436865663253696e676c6552657374616b653a3a72756e3a206e60448201527f6f206561726e656400000000000000000000000000000000000000000000000060648201526084015b60405180910390fd5b6005546040517fe2bbb15800000000000000000000000000000000000000000000000000000000815260048101919091526000602482015273ffffffffffffffffffffffffffffffffffffffff83169063e2bbb15890604401600060405180830381600087803b1580156105a557600080fd5b505af11580156105b9573d6000803e3d6000fd5b50506007546040517f70a082310000000000000000000000000000000000000000000000000000000081523060048201526000935073ffffffffffffffffffffffffffffffffffffffff90911691506370a082319060240160206040518083038186803b15801561062957600080fd5b505afa15801561063d573d6000803e3d6000fd5b505050506040513d601f19601f82011682018060405250810190610661919061439e565b6007549091506106889073ffffffffffffffffffffffffffffffffffffffff1683836131b2565b602086015186516106b59173ffffffffffffffffffffffffffffffffffffffff851691849190308c6133c1565b506006546040517f70a0823100000000000000000000000000000000000000000000000000000000815230600482015264010000000090910473ffffffffffffffffffffffffffffffffffffffff169060009082906370a082319060240160206040518083038186803b15801561072b57600080fd5b505afa15801561073f573d6000803e3d6000fd5b505050506040513d601f19601f82011682018060405250810190610763919061439e565b905061078673ffffffffffffffffffffffffffffffffffffffff831686836131b2565b6005546040517fe2bbb15800000000000000000000000000000000000000000000000000000000815260048101919091526024810182905273ffffffffffffffffffffffffffffffffffffffff86169063e2bbb15890604401600060405180830381600087803b1580156107f957600080fd5b505af115801561080d573d6000803e3d6000fd5b5050505050505050505050505050565b6040517f6b8807180000000000000000000000000000000000000000000000000000000081523060048201526000908190731F59Ee3B1ff055Be0b84BcB6D7beAa7f984fFf2e90636b8807189060240160206040518083038186803b15801561088557600080fd5b505af4158015610899573d6000803e3d6000fd5b505050506040513d601f19601f820116820180604052508101906108bd9190614128565b905073ffffffffffffffffffffffffffffffffffffffff81163014156108fb57505060005473ffffffffffffffffffffffffffffffffffffffff1690565b8073ffffffffffffffffffffffffffffffffffffffff1663370158ea6040518163ffffffff1660e01b815260040160206040518083038186803b15801561094157600080fd5b505afa158015610955573d6000803e3d6000fd5b505050506040513d601f19601f820116820180604052508101906109799190614128565b91505090565b6040517f6b880718000000000000000000000000000000000000000000000000000000008152306004820181905290731F59Ee3B1ff055Be0b84BcB6D7beAa7f984fFf2e90636b8807189060240160206040518083038186803b1580156109e557600080fd5b505af41580156109f9573d6000803e3d6000fd5b505050506040513d601f19601f82011682018060405250810190610a1d9190614128565b73ffffffffffffffffffffffffffffffffffffffff161415610bd2576000610a4361081d565b6040517f21f8a7210000000000000000000000000000000000000000000000000000000081527f689d13d8ed8ef1027633ba26e7121121cf427434450a529548f19bf175974395600482015273ffffffffffffffffffffffffffffffffffffffff91909116906321f8a7219060240160206040518083038186803b158015610aca57600080fd5b505afa158015610ade573d6000803e3d6000fd5b505050506040513d601f19601f82011682018060405250810190610b029190614128565b60015490915073ffffffffffffffffffffffffffffffffffffffff16331480610b4057503373ffffffffffffffffffffffffffffffffffffffff8216145b610bcc576040517f08c379a000000000000000000000000000000000000000000000000000000000815260206004820152602260248201527f4175746f6d6174653a2063616c6c6572206973206e6f7420746865207061757360448201527f65720000000000000000000000000000000000000000000000000000000000006064820152608401610529565b50610c79565b60015473ffffffffffffffffffffffffffffffffffffffff163314610c79576040517f08c379a000000000000000000000000000000000000000000000000000000000815260206004820152602260248201527f4175746f6d6174653a2063616c6c6572206973206e6f7420746865207061757360448201527f65720000000000000000000000000000000000000000000000000000000000006064820152608401610529565b610c816110d8565b610ce7576040517f08c379a000000000000000000000000000000000000000000000000000000000815260206004820152601460248201527f4175746f6d6174653a206e6f74207061757365640000000000000000000000006044820152606401610529565b600180547fffffffffffffffffffffff00ffffffffffffffffffffffffffffffffffffffff169055565b60015473ffffffffffffffffffffffffffffffffffffffff163314610db8576040517f08c379a000000000000000000000000000000000000000000000000000000000815260206004820152602160248201527f4175746f6d6174653a2063616c6c6572206973206e6f7420746865206f776e6560448201527f72000000000000000000000000000000000000000000000000000000000000006064820152608401610529565b60035473ffffffffffffffffffffffffffffffffffffffff610100909104166000610df860015473ffffffffffffffffffffffffffffffffffffffff1690565b6005546040517f93f1a40b000000000000000000000000000000000000000000000000000000008152600481019190915230602482015290915060009073ffffffffffffffffffffffffffffffffffffffff8416906393f1a40b9060440160606040518083038186803b158015610e6e57600080fd5b505afa158015610e82573d6000803e3d6000fd5b505050506040513d601f19601f82011682018060405250810190610ea69190614342565b60055481516040517f441a3e700000000000000000000000000000000000000000000000000000000081526004810192909252602482015290915073ffffffffffffffffffffffffffffffffffffffff84169063441a3e7090604401600060405180830381600087803b158015610f1c57600080fd5b505af1158015610f30573d6000803e3d6000fd5b50506006546040517f70a0823100000000000000000000000000000000000000000000000000000000815230600482015261100b935085925064010000000090910473ffffffffffffffffffffffffffffffffffffffff16906370a08231906024015b60206040518083038186803b158015610fab57600080fd5b505afa158015610fbf573d6000803e3d6000fd5b505050506040513d601f19601f82011682018060405250810190610fe3919061439e565b600654640100000000900473ffffffffffffffffffffffffffffffffffffffff169190613511565b6007546040517f70a082310000000000000000000000000000000000000000000000000000000081523060048201526110d391849173ffffffffffffffffffffffffffffffffffffffff909116906370a08231906024015b60206040518083038186803b15801561107b57600080fd5b505afa15801561108f573d6000803e3d6000fd5b505050506040513d601f19601f820116820180604052508101906110b3919061439e565b60075473ffffffffffffffffffffffffffffffffffffffff169190613511565b505050565b6040517f6b8807180000000000000000000000000000000000000000000000000000000081523060048201526000908190731F59Ee3B1ff055Be0b84BcB6D7beAa7f984fFf2e90636b8807189060240160206040518083038186803b15801561114057600080fd5b505af4158015611154573d6000803e3d6000fd5b505050506040513d601f19601f820116820180604052508101906111789190614128565b905073ffffffffffffffffffffffffffffffffffffffff81163014156111bb57505060015474010000000000000000000000000000000000000000900460ff1690565b60015474010000000000000000000000000000000000000000900460ff168061097957508073ffffffffffffffffffffffffffffffffffffffff16635c975abb6040518163ffffffff1660e01b815260040160206040518083038186803b15801561122557600080fd5b505afa158015611239573d6000803e3d6000fd5b505050506040513d601f19601f820116820180604052508101906109799190614307565b6040517f6b880718000000000000000000000000000000000000000000000000000000008152306004820181905290731F59Ee3B1ff055Be0b84BcB6D7beAa7f984fFf2e90636b8807189060240160206040518083038186803b1580156112c357600080fd5b505af41580156112d7573d6000803e3d6000fd5b505050506040513d601f19601f820116820180604052508101906112fb9190614128565b73ffffffffffffffffffffffffffffffffffffffff1614156114b057600061132161081d565b6040517f21f8a7210000000000000000000000000000000000000000000000000000000081527f689d13d8ed8ef1027633ba26e7121121cf427434450a529548f19bf175974395600482015273ffffffffffffffffffffffffffffffffffffffff91909116906321f8a7219060240160206040518083038186803b1580156113a857600080fd5b505afa1580156113bc573d6000803e3d6000fd5b505050506040513d601f19601f820116820180604052508101906113e09190614128565b60015490915073ffffffffffffffffffffffffffffffffffffffff1633148061141e57503373ffffffffffffffffffffffffffffffffffffffff8216145b6114aa576040517f08c379a000000000000000000000000000000000000000000000000000000000815260206004820152602260248201527f4175746f6d6174653a2063616c6c6572206973206e6f7420746865207061757360448201527f65720000000000000000000000000000000000000000000000000000000000006064820152608401610529565b50611557565b60015473ffffffffffffffffffffffffffffffffffffffff163314611557576040517f08c379a000000000000000000000000000000000000000000000000000000000815260206004820152602260248201527f4175746f6d6174653a2063616c6c6572206973206e6f7420746865207061757360448201527f65720000000000000000000000000000000000000000000000000000000000006064820152608401610529565b61155f6110d8565b156115c6576040517f08c379a000000000000000000000000000000000000000000000000000000000815260206004820152601060248201527f4175746f6d6174653a20706175736564000000000000000000000000000000006044820152606401610529565b600180547fffffffffffffffffffffff00ffffffffffffffffffffffffffffffffffffffff1674010000000000000000000000000000000000000000179055565b60015473ffffffffffffffffffffffffffffffffffffffff1633146116ae576040517f08c379a000000000000000000000000000000000000000000000000000000000815260206004820152602160248201527f4175746f6d6174653a2063616c6c6572206973206e6f7420746865206f776e6560448201527f72000000000000000000000000000000000000000000000000000000000000006064820152608401610529565b6040518060600160405280858580806020026020016040519081016040528093929190818152602001838360200280828437600092019190915250505090825250602080820185905260409091018390528151805160089261171492849291019061403b565b506020820151600182015560409091015160029091015550505050565b81604051806060016040528060248152602001614897602491396117558282612ee0565b506003546005546040517f93f1a40b0000000000000000000000000000000000000000000000000000000081526004810182905230602482015261010090920473ffffffffffffffffffffffffffffffffffffffff169163441a3e70919083906393f1a40b9060440160606040518083038186803b1580156117d657600080fd5b505afa1580156117ea573d6000803e3d6000fd5b505050506040513d601f19601f8201168201806040525081019061180e9190614342565b5160405160e084901b7fffffffff0000000000000000000000000000000000000000000000000000000016815260048101929092526024820152604401600060405180830381600087803b15801561186557600080fd5b505af1158015611879573d6000803e3d6000fd5b5060009250600191506118899050565b6040519080825280602002602001820160405280156118b2578160200160208202803683370190505b509050600660049054906101000a900473ffffffffffffffffffffffffffffffffffffffff16816000815181106118eb576118eb6147f3565b73ffffffffffffffffffffffffffffffffffffffff928316602091820292909201015260045461192091600891168387613567565b600061194160015473ffffffffffffffffffffffffffffffffffffffff1690565b6008805491925060009161195790600190614761565b81548110611967576119676147f3565b6000918252602090912001546040517f70a0823100000000000000000000000000000000000000000000000000000000815230600482015273ffffffffffffffffffffffffffffffffffffffff9091169150611a3890839083906370a082319060240160206040518083038186803b1580156119e257600080fd5b505afa1580156119f6573d6000803e3d6000fd5b505050506040513d601f19601f82011682018060405250810190611a1a919061439e565b73ffffffffffffffffffffffffffffffffffffffff84169190613511565b60075473ffffffffffffffffffffffffffffffffffffffff828116911614611ab6576007546040517f70a08231000000000000000000000000000000000000000000000000000000008152306004820152611ab691849173ffffffffffffffffffffffffffffffffffffffff909116906370a0823190602401611063565b50505050505050565b6040517f6b880718000000000000000000000000000000000000000000000000000000008152306004820152600090731F59Ee3B1ff055Be0b84BcB6D7beAa7f984fFf2e90636b8807189060240160206040518083038186803b158015611b2557600080fd5b505af4158015611b39573d6000803e3d6000fd5b505050506040513d601f19601f82011682018060405250810190611b5d9190614128565b90503373ffffffffffffffffffffffffffffffffffffffff82163014611c00578173ffffffffffffffffffffffffffffffffffffffff16638da5cb5b6040518163ffffffff1660e01b815260040160206040518083038186803b158015611bc357600080fd5b505afa158015611bd7573d6000803e3d6000fd5b505050506040513d601f19601f82011682018060405250810190611bfb9190614128565b611c1a565b60015473ffffffffffffffffffffffffffffffffffffffff165b73ffffffffffffffffffffffffffffffffffffffff1614611cbd576040517f08c379a000000000000000000000000000000000000000000000000000000000815260206004820152603d60248201527f4175746f6d6174653a3a6368616e676550726f746f636f6c4665653a2063616c60448201527f6c6572206973206e6f74207468652070726f746f636f6c206f776e65720000006064820152608401610529565b60028290556040518281527f3c1d43943224e49d951ce8295a5c8332b517083b3f89bed50feae2cb39caebb59060200160405180910390a15050565b6040517f6b8807180000000000000000000000000000000000000000000000000000000081523060048201526000908190731F59Ee3B1ff055Be0b84BcB6D7beAa7f984fFf2e90636b8807189060240160206040518083038186803b158015611d6157600080fd5b505af4158015611d75573d6000803e3d6000fd5b505050506040513d601f19601f82011682018060405250810190611d999190614128565b905073ffffffffffffffffffffffffffffffffffffffff81163014801590611dc357506000600254125b15611e46578073ffffffffffffffffffffffffffffffffffffffff1663b0e21e8a6040518163ffffffff1660e01b815260040160206040518083038186803b158015611e0e57600080fd5b505afa158015611e22573d6000803e3d6000fd5b505050506040513d601f19601f82011682018060405250810190610979919061439e565b6000611e5061081d565b905060008060025412611e6557600254611f22565b6040517fbd02d0f50000000000000000000000000000000000000000000000000000000081527fa93d95f96a5de25d7a41ddf1f5e8d45cfc929c4838163cf011dab4043a4a40d5600482015273ffffffffffffffffffffffffffffffffffffffff83169063bd02d0f59060240160206040518083038186803b158015611eea57600080fd5b505afa158015611efe573d6000803e3d6000fd5b505050506040513d601f19601f82011682018060405250810190611f22919061439e565b905080611f33576000935050505090565b6040517f21f8a7210000000000000000000000000000000000000000000000000000000081527f65c90423fe7c880476633a7e36521740f87199d233dc56eb4ca6643eb76f605f600482015260009073ffffffffffffffffffffffffffffffffffffffff8416906321f8a7219060240160206040518083038186803b158015611fbb57600080fd5b505afa158015611fcf573d6000803e3d6000fd5b505050506040513d601f19601f82011682018060405250810190611ff39190614128565b73ffffffffffffffffffffffffffffffffffffffff1663feaf968c6040518163ffffffff1660e01b815260040160a06040518083038186803b15801561203857600080fd5b505afa15801561204c573d6000803e3d6000fd5b505050506040513d601f19601f8201168201806040525081019061207091906144ca565b505050915050600081136120e0576040517f08c379a000000000000000000000000000000000000000000000000000000000815260206004820152601760248201527f4175746f6d6174653a20696e76616c69642070726963650000000000000000006044820152606401610529565b806120f383670de0b6b3a7640000614724565b6120fd91906146e9565b94505050505090565b60015473ffffffffffffffffffffffffffffffffffffffff1633146121ad576040517f08c379a000000000000000000000000000000000000000000000000000000000815260206004820152602160248201527f4175746f6d6174653a2063616c6c6572206973206e6f7420746865206f776e6560448201527f72000000000000000000000000000000000000000000000000000000000000006064820152608401610529565b600654640100000000900473ffffffffffffffffffffffffffffffffffffffff166121da81333085613ce5565b6003546122069073ffffffffffffffffffffffffffffffffffffffff83811691610100900416846131b2565b6003546005546040517fe2bbb15800000000000000000000000000000000000000000000000000000000815260048101919091526024810184905261010090910473ffffffffffffffffffffffffffffffffffffffff169063e2bbb15890604401600060405180830381600087803b15801561228157600080fd5b505af1158015612295573d6000803e3d6000fd5b505050505050565b60015473ffffffffffffffffffffffffffffffffffffffff1661230d57600180547fffffffffffffffffffffffff000000000000000000000000000000000000000016321790557fffffffffffffffffffffffffffffffffffffffffffffffffffffffffffffffff6002556123b4565b60015473ffffffffffffffffffffffffffffffffffffffff1633146123b4576040517f08c379a000000000000000000000000000000000000000000000000000000000815260206004820152602160248201527f4175746f6d6174653a2063616c6c6572206973206e6f7420746865206f776e6560448201527f72000000000000000000000000000000000000000000000000000000000000006064820152608401610529565b60035460ff1615806123e5575060035473ffffffffffffffffffffffffffffffffffffffff86811661010090920416145b612497576040517f08c379a000000000000000000000000000000000000000000000000000000000815260206004820152604660248201527f4d6173746572436865663253696e676c6552657374616b653a3a696e69743a2060448201527f7265696e697469616c697a65207374616b696e67206164647265737320666f7260648201527f62696464656e0000000000000000000000000000000000000000000000000000608482015260a401610529565b6003805473ffffffffffffffffffffffffffffffffffffffff8716610100027fffffffffffffffffffffff0000000000000000000000000000000000000000ff8216811790925560ff918216911617158061250c575060045473ffffffffffffffffffffffffffffffffffffffff8581169116145b6125be576040517f08c379a000000000000000000000000000000000000000000000000000000000815260206004820152604f60248201527f4d6173746572436865663253696e676c6552657374616b653a3a696e69743a2060448201527f7265696e697469616c697a65206c697175696469747920726f7574657220616460648201527f647265737320666f7262696464656e0000000000000000000000000000000000608482015260a401610529565b600480547fffffffffffffffffffffffff00000000000000000000000000000000000000001673ffffffffffffffffffffffffffffffffffffffff861617905560035460ff161580612611575082600554145b6126c3576040517f08c379a000000000000000000000000000000000000000000000000000000000815260206004820152604160248201527f4d6173746572436865663253696e676c6552657374616b653a3a696e69743a2060448201527f7265696e697469616c697a6520706f6f6c20696e64657820666f72626964646560648201527f6e00000000000000000000000000000000000000000000000000000000000000608482015260a401610529565b60058390556006805461ffff83811662010000027fffffffffffffffffffffffffffffffffffffffffffffffffffffffff000000009092169085161717905560035460ff166128e2576003546005546040517f78ed5d1f0000000000000000000000000000000000000000000000000000000081526004810191909152600091610100900473ffffffffffffffffffffffffffffffffffffffff16906378ed5d1f9060240160206040518083038186803b15801561278057600080fd5b505afa158015612794573d6000803e3d6000fd5b505050506040513d601f19601f820116820180604052508101906127b89190614128565b905080600660046101000a81548173ffffffffffffffffffffffffffffffffffffffff021916908373ffffffffffffffffffffffffffffffffffffffff160217905550600360019054906101000a900473ffffffffffffffffffffffffffffffffffffffff1673ffffffffffffffffffffffffffffffffffffffff16634ca6ef286040518163ffffffff1660e01b815260040160206040518083038186803b15801561286357600080fd5b505afa158015612877573d6000803e3d6000fd5b505050506040513d601f19601f8201168201806040525081019061289b9190614128565b600780547fffffffffffffffffffffffff00000000000000000000000000000000000000001673ffffffffffffffffffffffffffffffffffffffff92909216919091179055505b5050600380547fffffffffffffffffffffffffffffffffffffffffffffffffffffffffffffff00166001179055505050565b60015473ffffffffffffffffffffffffffffffffffffffff1633146129bb576040517f08c379a000000000000000000000000000000000000000000000000000000000815260206004820152602160248201527f4175746f6d6174653a2063616c6c6572206973206e6f7420746865206f776e6560448201527f72000000000000000000000000000000000000000000000000000000000000006064820152608401610529565b6040517fa9059cbb00000000000000000000000000000000000000000000000000000000815273ffffffffffffffffffffffffffffffffffffffff83811660048301526024820183905284169063a9059cbb90604401602060405180830381600087803b158015612a2b57600080fd5b505af1158015612a3f573d6000803e3d6000fd5b505050506040513d601f19601f82011682018060405250810190612a639190614307565b50505050565b60015473ffffffffffffffffffffffffffffffffffffffff163314612b10576040517f08c379a000000000000000000000000000000000000000000000000000000000815260206004820152602160248201527f4175746f6d6174653a2063616c6c6572206973206e6f7420746865206f776e6560448201527f72000000000000000000000000000000000000000000000000000000000000006064820152608401610529565b6000612b3160015473ffffffffffffffffffffffffffffffffffffffff1690565b6003546005546040517f5312ea8e0000000000000000000000000000000000000000000000000000000081526004810191909152919250610100900473ffffffffffffffffffffffffffffffffffffffff1690635312ea8e90602401600060405180830381600087803b158015612ba757600080fd5b505af1158015612bbb573d6000803e3d6000fd5b50506006546040517f70a08231000000000000000000000000000000000000000000000000000000008152306004820152612c22935084925064010000000090910473ffffffffffffffffffffffffffffffffffffffff16906370a0823190602401610f93565b6007546040517f70a08231000000000000000000000000000000000000000000000000000000008152306004820152612c7e91839173ffffffffffffffffffffffffffffffffffffffff909116906370a0823190602401611063565b50565b60015473ffffffffffffffffffffffffffffffffffffffff163314612d28576040517f08c379a000000000000000000000000000000000000000000000000000000000815260206004820152602160248201527f4175746f6d6174653a2063616c6c6572206973206e6f7420746865206f776e6560448201527f72000000000000000000000000000000000000000000000000000000000000006064820152608401610529565b6040517f6b880718000000000000000000000000000000000000000000000000000000008152306004820181905290731F59Ee3B1ff055Be0b84BcB6D7beAa7f984fFf2e90636b8807189060240160206040518083038186803b158015612d8e57600080fd5b505af4158015612da2573d6000803e3d6000fd5b505050506040513d601f19601f82011682018060405250810190612dc69190614128565b73ffffffffffffffffffffffffffffffffffffffff1614612e69576040517f08c379a000000000000000000000000000000000000000000000000000000000815260206004820152602160248201527f4175746f6d6174653a206368616e676520746865206f776e6572206661696c6560448201527f64000000000000000000000000000000000000000000000000000000000000006064820152608401610529565b6001805473ffffffffffffffffffffffffffffffffffffffff8381167fffffffffffffffffffffffff0000000000000000000000000000000000000000831681179093556040519116919082907f8be0079c531659141344cd1fd0a4f28419497f9722a3daafe3b4186f6b6457e090600090a35050565b6000612eea6110d8565b15612f51576040517f08c379a000000000000000000000000000000000000000000000000000000000815260206004820152601060248201527f4175746f6d6174653a20706175736564000000000000000000000000000000006044820152606401610529565b6000612f7260015473ffffffffffffffffffffffffffffffffffffffff1690565b90503273ffffffffffffffffffffffffffffffffffffffff82161415612f9c5760009150506131ac565b6000612fa661081d565b6040517f21f8a7210000000000000000000000000000000000000000000000000000000081527fe78c16c6d839536d3155985aab4e9c6013c8c3d446054bcebc48612f359d81f5600482015290915060009073ffffffffffffffffffffffffffffffffffffffff8316906321f8a7219060240160206040518083038186803b15801561303157600080fd5b505afa158015613045573d6000803e3d6000fd5b505050506040513d601f19601f820116820180604052508101906130699190614128565b905073ffffffffffffffffffffffffffffffffffffffff811661310e576040517f08c379a000000000000000000000000000000000000000000000000000000000815260206004820152602b60248201527f4175746f6d6174653a3a5f62696c6c3a2062616c616e636520636f6e7472616360448201527f74206e6f7420666f756e640000000000000000000000000000000000000000006064820152608401610529565b8073ffffffffffffffffffffffffffffffffffffffff1663e578a2258488613134611cf9565b896040518563ffffffff1660e01b81526004016131549493929190614574565b602060405180830381600087803b15801561316e57600080fd5b505af1158015613182573d6000803e3d6000fd5b505050506040513d601f19601f820116820180604052508101906131a6919061439e565b93505050505b92915050565b80158061326157506040517fdd62ed3e00000000000000000000000000000000000000000000000000000000815230600482015273ffffffffffffffffffffffffffffffffffffffff838116602483015284169063dd62ed3e9060440160206040518083038186803b15801561322757600080fd5b505afa15801561323b573d6000803e3d6000fd5b505050506040513d601f19601f8201168201806040525081019061325f919061439e565b155b6132ed576040517f08c379a000000000000000000000000000000000000000000000000000000000815260206004820152603660248201527f5361666545524332303a20617070726f76652066726f6d206e6f6e2d7a65726f60448201527f20746f206e6f6e2d7a65726f20616c6c6f77616e6365000000000000000000006064820152608401610529565b60405173ffffffffffffffffffffffffffffffffffffffff83166024820152604481018290526110d39084907f095ea7b300000000000000000000000000000000000000000000000000000000906064015b604080517fffffffffffffffffffffffffffffffffffffffffffffffffffffffffffffffe08184030181529190526020810180517bffffffffffffffffffffffffffffffffffffffffffffffffffffffff167fffffffff0000000000000000000000000000000000000000000000000000000090931692909217909152613d43565b606083600185516133d29190614761565b815181106133e2576133e26147f3565b602002602001015173ffffffffffffffffffffffffffffffffffffffff1684600081518110613413576134136147f3565b602002602001015173ffffffffffffffffffffffffffffffffffffffff1614613507576040517f38ed173900000000000000000000000000000000000000000000000000000000815273ffffffffffffffffffffffffffffffffffffffff8816906338ed17399061349090899089908990899089906004016145c2565b600060405180830381600087803b1580156134aa57600080fd5b505af11580156134be573d6000803e3d6000fd5b505050506040513d6000823e601f3d9081017fffffffffffffffffffffffffffffffffffffffffffffffffffffffffffffffe0168201604052613504919081019061426a565b90505b9695505050505050565b60405173ffffffffffffffffffffffffffffffffffffffff83166024820152604481018290526110d39084907fa9059cbb000000000000000000000000000000000000000000000000000000009060640161333f565b8354600110801561357c575060008460010154115b613608576040517f08c379a000000000000000000000000000000000000000000000000000000000815260206004820152602160248201527f53746f704c6f73733a3a72756e3a2073746f70206c6f73732064697361626c6560448201527f64000000000000000000000000000000000000000000000000000000000000006064820152608401610529565b6101008251111561369b576040517f08c379a000000000000000000000000000000000000000000000000000000000815260206004820152602160248201527f53746f704c6f73733a3a72756e3a20746f6f206d616e7920696e20746f6b656e60448201527f73000000000000000000000000000000000000000000000000000000000000006064820152608401610529565b60005b82518160ff1610156138f0576000838260ff16815181106136c1576136c16147f3565b60200260200101519050856000016000815481106136e1576136e16147f3565b60009182526020909120015473ffffffffffffffffffffffffffffffffffffffff8281169116141561371357506138de565b6040517f70a0823100000000000000000000000000000000000000000000000000000000815230600482015260009073ffffffffffffffffffffffffffffffffffffffff8316906370a082319060240160206040518083038186803b15801561377b57600080fd5b505afa15801561378f573d6000803e3d6000fd5b505050506040513d601f19601f820116820180604052508101906137b3919061439e565b9050806137c15750506138de565b60408051600280825260608201835260009260208301908036833701905050905082816000815181106137f6576137f66147f3565b602002602001019073ffffffffffffffffffffffffffffffffffffffff16908173ffffffffffffffffffffffffffffffffffffffff168152505087600001600081548110613846576138466147f3565b9060005260206000200160009054906101000a900473ffffffffffffffffffffffffffffffffffffffff1681600181518110613884576138846147f3565b73ffffffffffffffffffffffffffffffffffffffff92831660209182029290920101526138b490841688846131b2565b6138d973ffffffffffffffffffffffffffffffffffffffff881683600084308a6133c1565b505050505b806138e8816147a4565b91505061369e565b50600084600001600081548110613909576139096147f3565b60009182526020822001546040517f70a0823100000000000000000000000000000000000000000000000000000000815230600482015273ffffffffffffffffffffffffffffffffffffffff909116925082906370a082319060240160206040518083038186803b15801561397d57600080fd5b505afa158015613991573d6000803e3d6000fd5b505050506040513d601f19601f820116820180604052508101906139b5919061439e565b865490915060009087906139cb90600190614761565b815481106139db576139db6147f3565b60009182526020909120015473ffffffffffffffffffffffffffffffffffffffff848116911614613c135760008211613a96576040517f08c379a000000000000000000000000000000000000000000000000000000000815260206004820152603160248201527f53746f704c6f73733a3a72756e3a20696e73756666696369656e742062616c6160448201527f6e6365206f66206261736520746f6b656e0000000000000000000000000000006064820152608401610529565b613ab773ffffffffffffffffffffffffffffffffffffffff841687846131b2565b6000613b4f8389600201548a600001805480602002602001604051908101604052809291908181526020018280548015613b2757602002820191906000526020600020905b815473ffffffffffffffffffffffffffffffffffffffff168152600190910190602001808311613afc575b50505073ffffffffffffffffffffffffffffffffffffffff8d1694939291503090508a6133c1565b90508060018251613b609190614761565b81518110613b7057613b706147f3565b602002602001015191508760010154821115613c0d576040517f08c379a0000000000000000000000000000000000000000000000000000000008152602060048201526024808201527f53746f704c6f73733a3a72756e3a20696e76616c6964206f757470757420616d60448201527f6f756e74000000000000000000000000000000000000000000000000000000006064820152608401610529565b50613ca9565b8190508660010154811115613ca9576040517f08c379a0000000000000000000000000000000000000000000000000000000008152602060048201526024808201527f53746f704c6f73733a3a72756e3a20696e76616c6964206f757470757420616d60448201527f6f756e74000000000000000000000000000000000000000000000000000000006064820152608401610529565b6040518181527ff22ed879bd57fced893edba2366c8143c0d7c2e585eafd2521c2832159d557f19060200160405180910390a150505050505050565b60405173ffffffffffffffffffffffffffffffffffffffff80851660248301528316604482015260648101829052612a639085907f23b872dd000000000000000000000000000000000000000000000000000000009060840161333f565b6000613da5826040518060400160405280602081526020017f5361666545524332303a206c6f772d6c6576656c2063616c6c206661696c65648152508573ffffffffffffffffffffffffffffffffffffffff16613e4f9092919063ffffffff16565b8051909150156110d35780806020019051810190613dc39190614307565b6110d3576040517f08c379a000000000000000000000000000000000000000000000000000000000815260206004820152602a60248201527f5361666545524332303a204552433230206f7065726174696f6e20646964206e60448201527f6f742073756363656564000000000000000000000000000000000000000000006064820152608401610529565b6060613e5e8484600085613e68565b90505b9392505050565b606082471015613efa576040517f08c379a000000000000000000000000000000000000000000000000000000000815260206004820152602660248201527f416464726573733a20696e73756666696369656e742062616c616e636520666f60448201527f722063616c6c00000000000000000000000000000000000000000000000000006064820152608401610529565b843b613f62576040517f08c379a000000000000000000000000000000000000000000000000000000000815260206004820152601d60248201527f416464726573733a2063616c6c20746f206e6f6e2d636f6e74726163740000006044820152606401610529565b6000808673ffffffffffffffffffffffffffffffffffffffff168587604051613f8b9190614558565b60006040518083038185875af1925050503d8060008114613fc8576040519150601f19603f3d011682016040523d82523d6000602084013e613fcd565b606091505b5091509150613fdd828286613fe8565b979650505050505050565b60608315613ff7575081613e61565b8251156140075782518084602001fd5b816040517f08c379a000000000000000000000000000000000000000000000000000000000815260040161052991906145af565b8280548282559060005260206000209081019282156140b5579160200282015b828111156140b557825182547fffffffffffffffffffffffff00000000000000000000000000000000000000001673ffffffffffffffffffffffffffffffffffffffff90911617825560209092019160019091019061405b565b506140c19291506140c5565b5090565b5b808211156140c157600081556001016140c6565b803561ffff811681146140ec57600080fd5b919050565b805169ffffffffffffffffffff811681146140ec57600080fd5b60006020828403121561411d57600080fd5b8135613e6181614851565b60006020828403121561413a57600080fd5b8151613e6181614851565b60008060006060848603121561415a57600080fd5b833561416581614851565b9250602084013561417581614851565b929592945050506040919091013590565b600080600080600060a0868803121561419e57600080fd5b85356141a981614851565b945060208601356141b981614851565b9350604086013592506141ce606087016140da565b91506141dc608087016140da565b90509295509295909350565b600080600080606085870312156141fe57600080fd5b843567ffffffffffffffff8082111561421657600080fd5b818701915087601f83011261422a57600080fd5b81358181111561423957600080fd5b8860208260051b850101111561424e57600080fd5b6020928301999098509187013596604001359550909350505050565b6000602080838503121561427d57600080fd5b825167ffffffffffffffff81111561429457600080fd5b8301601f810185136142a557600080fd5b80516142b86142b3826146c5565b614676565b80828252848201915084840188868560051b87010111156142d857600080fd5b600094505b838510156142fb5780518352600194909401939185019185016142dd565b50979650505050505050565b60006020828403121561431957600080fd5b81518015158114613e6157600080fd5b60006020828403121561433b57600080fd5b5035919050565b60006060828403121561435457600080fd5b6040516060810181811067ffffffffffffffff8211171561437757614377614822565b80604052508251815260208301516020820152604083015160408201528091505092915050565b6000602082840312156143b057600080fd5b5051919050565b600080604083850312156143ca57600080fd5b50508035926020909101359150565b6000806000606084860312156143ee57600080fd5b833592506020808501359250604085013567ffffffffffffffff8082111561441557600080fd5b908601906040828903121561442957600080fd5b61443161464d565b82358281111561444057600080fd5b83019150601f8201891361445357600080fd5b81356144616142b3826146c5565b8082825286820191508685018c888560051b880101111561448157600080fd5b600095505b838610156144ad57803561449981614851565b835260019590950194918701918701614486565b508084525050508383013584820152809450505050509250925092565b600080600080600060a086880312156144e257600080fd5b6144eb866140f1565b94506020860151935060408601519250606086015191506141dc608087016140f1565b60008151808452614526816020860160208601614778565b601f017fffffffffffffffffffffffffffffffffffffffffffffffffffffffffffffffe0169290920160200192915050565b6000825161456a818460208701614778565b9190910192915050565b73ffffffffffffffffffffffffffffffffffffffff85168152836020820152826040820152608060608201526000613507608083018461450e565b602081526000613e61602083018461450e565b600060a082018783526020878185015260a0604085015281875180845260c086019150828901935060005b8181101561461f57845173ffffffffffffffffffffffffffffffffffffffff16835293830193918301916001016145ed565b505073ffffffffffffffffffffffffffffffffffffffff969096166060850152505050608001529392505050565b6040805190810167ffffffffffffffff8111828210171561467057614670614822565b60405290565b604051601f82017fffffffffffffffffffffffffffffffffffffffffffffffffffffffffffffffe016810167ffffffffffffffff811182821017156146bd576146bd614822565b604052919050565b600067ffffffffffffffff8211156146df576146df614822565b5060051b60200190565b60008261471f577f4e487b7100000000000000000000000000000000000000000000000000000000600052601260045260246000fd5b500490565b6000817fffffffffffffffffffffffffffffffffffffffffffffffffffffffffffffffff048311821515161561475c5761475c6147c4565b500290565b600082821015614773576147736147c4565b500390565b60005b8381101561479357818101518382015260200161477b565b83811115612a635750506000910152565b600060ff821660ff8114156147bb576147bb6147c4565b60010192915050565b7f4e487b7100000000000000000000000000000000000000000000000000000000600052601160045260246000fd5b7f4e487b7100000000000000000000000000000000000000000000000000000000600052603260045260246000fd5b7f4e487b7100000000000000000000000000000000000000000000000000000000600052604160045260246000fd5b73ffffffffffffffffffffffffffffffffffffffff81168114612c7e57600080fdfe50616e63616b65537761704d6173746572436865663253696e676c6552657374616b6550616e63616b65537761704d6173746572436865663253696e676c6553746f704c6f7373a164736f6c6343000806000a",
  "deployedBytecode": "0x608060405234801561001057600080fd5b50600436106101985760003560e01c80638456cb59116100e3578063b6b55f251161008c578063db2e21bc11610066578063db2e21bc14610388578063f2fde38b14610390578063f7c618c1146103a357600080fd5b8063b6b55f251461034f578063b838d91414610362578063beabacc81461037557600080fd5b80639327d80a116100bd5780639327d80a146103215780639742b5c314610334578063b0e21e8a1461034757600080fd5b80638456cb59146102e85780638c3d8faf146102f05780638da5cb5b1461030357600080fd5b80633f4ba83a11610145578063590e1ae31161011f578063590e1ae3146102a05780635c975abb146102a857806372f702f3146102c057600080fd5b80633f4ba83a146102505780634cf088d914610258578063527a15651461027d57600080fd5b806329dcb0cf1161017657806329dcb0cf14610213578063370158ea1461023a5780633e032a3b1461024257600080fd5b806313ead7c61461019d57806316f0115b146101b257806324702944146101ce575b600080fd5b6101b06101ab3660046143d9565b6103c3565b005b6101bb60055481565b6040519081526020015b60405180910390f35b6004546101ee9073ffffffffffffffffffffffffffffffffffffffff1681565b60405173ffffffffffffffffffffffffffffffffffffffff90911681526020016101c5565b6006546102279062010000900461ffff1681565b60405161ffff90911681526020016101c5565b6101ee61081d565b6006546102279061ffff1681565b6101b061097f565b6003546101ee90610100900473ffffffffffffffffffffffffffffffffffffffff1681565b600954600a5461028b919082565b604080519283526020830191909152016101c5565b6101b0610d11565b6102b06110d8565b60405190151581526020016101c5565b6006546101ee90640100000000900473ffffffffffffffffffffffffffffffffffffffff1681565b6101b061125d565b6101b06102fe3660046141e8565b611607565b60015473ffffffffffffffffffffffffffffffffffffffff166101ee565b6101b061032f3660046143b7565b611731565b6101b0610342366004614329565b611abf565b6101bb611cf9565b6101b061035d366004614329565b612106565b6101b0610370366004614186565b61229d565b6101b0610383366004614145565b612914565b6101b0612a69565b6101b061039e36600461410b565b612c81565b6007546101ee9073ffffffffffffffffffffffffffffffffffffffff1681565b82604051806060016040528060238152602001614874602391396103e78282612ee0565b50600354600480546005546040517f1175a1dd0000000000000000000000000000000000000000000000000000000081529283015230602483015273ffffffffffffffffffffffffffffffffffffffff61010090930483169216906000908390631175a1dd9060440160206040518083038186803b15801561046857600080fd5b505afa15801561047c573d6000803e3d6000fd5b505050506040513d601f19601f820116820180604052508101906104a0919061439e565b11610532576040517f08c379a000000000000000000000000000000000000000000000000000000000815260206004820152602860248201527f4d6173746572436865663253696e676c6552657374616b653a3a72756e3a206e60448201527f6f206561726e656400000000000000000000000000000000000000000000000060648201526084015b60405180910390fd5b6005546040517fe2bbb15800000000000000000000000000000000000000000000000000000000815260048101919091526000602482015273ffffffffffffffffffffffffffffffffffffffff83169063e2bbb15890604401600060405180830381600087803b1580156105a557600080fd5b505af11580156105b9573d6000803e3d6000fd5b50506007546040517f70a082310000000000000000000000000000000000000000000000000000000081523060048201526000935073ffffffffffffffffffffffffffffffffffffffff90911691506370a082319060240160206040518083038186803b15801561062957600080fd5b505afa15801561063d573d6000803e3d6000fd5b505050506040513d601f19601f82011682018060405250810190610661919061439e565b6007549091506106889073ffffffffffffffffffffffffffffffffffffffff1683836131b2565b602086015186516106b59173ffffffffffffffffffffffffffffffffffffffff851691849190308c6133c1565b506006546040517f70a0823100000000000000000000000000000000000000000000000000000000815230600482015264010000000090910473ffffffffffffffffffffffffffffffffffffffff169060009082906370a082319060240160206040518083038186803b15801561072b57600080fd5b505afa15801561073f573d6000803e3d6000fd5b505050506040513d601f19601f82011682018060405250810190610763919061439e565b905061078673ffffffffffffffffffffffffffffffffffffffff831686836131b2565b6005546040517fe2bbb15800000000000000000000000000000000000000000000000000000000815260048101919091526024810182905273ffffffffffffffffffffffffffffffffffffffff86169063e2bbb15890604401600060405180830381600087803b1580156107f957600080fd5b505af115801561080d573d6000803e3d6000fd5b5050505050505050505050505050565b6040517f6b880718000000000000000000000000000000000000000000000000000000008152306004820152600090819073__$0fb85c1a108326fe5c0d8f2f5a241bc0e7$__90636b8807189060240160206040518083038186803b15801561088557600080fd5b505af4158015610899573d6000803e3d6000fd5b505050506040513d601f19601f820116820180604052508101906108bd9190614128565b905073ffffffffffffffffffffffffffffffffffffffff81163014156108fb57505060005473ffffffffffffffffffffffffffffffffffffffff1690565b8073ffffffffffffffffffffffffffffffffffffffff1663370158ea6040518163ffffffff1660e01b815260040160206040518083038186803b15801561094157600080fd5b505afa158015610955573d6000803e3d6000fd5b505050506040513d601f19601f820116820180604052508101906109799190614128565b91505090565b6040517f6b88071800000000000000000000000000000000000000000000000000000000815230600482018190529073__$0fb85c1a108326fe5c0d8f2f5a241bc0e7$__90636b8807189060240160206040518083038186803b1580156109e557600080fd5b505af41580156109f9573d6000803e3d6000fd5b505050506040513d601f19601f82011682018060405250810190610a1d9190614128565b73ffffffffffffffffffffffffffffffffffffffff161415610bd2576000610a4361081d565b6040517f21f8a7210000000000000000000000000000000000000000000000000000000081527f689d13d8ed8ef1027633ba26e7121121cf427434450a529548f19bf175974395600482015273ffffffffffffffffffffffffffffffffffffffff91909116906321f8a7219060240160206040518083038186803b158015610aca57600080fd5b505afa158015610ade573d6000803e3d6000fd5b505050506040513d601f19601f82011682018060405250810190610b029190614128565b60015490915073ffffffffffffffffffffffffffffffffffffffff16331480610b4057503373ffffffffffffffffffffffffffffffffffffffff8216145b610bcc576040517f08c379a000000000000000000000000000000000000000000000000000000000815260206004820152602260248201527f4175746f6d6174653a2063616c6c6572206973206e6f7420746865207061757360448201527f65720000000000000000000000000000000000000000000000000000000000006064820152608401610529565b50610c79565b60015473ffffffffffffffffffffffffffffffffffffffff163314610c79576040517f08c379a000000000000000000000000000000000000000000000000000000000815260206004820152602260248201527f4175746f6d6174653a2063616c6c6572206973206e6f7420746865207061757360448201527f65720000000000000000000000000000000000000000000000000000000000006064820152608401610529565b610c816110d8565b610ce7576040517f08c379a000000000000000000000000000000000000000000000000000000000815260206004820152601460248201527f4175746f6d6174653a206e6f74207061757365640000000000000000000000006044820152606401610529565b600180547fffffffffffffffffffffff00ffffffffffffffffffffffffffffffffffffffff169055565b60015473ffffffffffffffffffffffffffffffffffffffff163314610db8576040517f08c379a000000000000000000000000000000000000000000000000000000000815260206004820152602160248201527f4175746f6d6174653a2063616c6c6572206973206e6f7420746865206f776e6560448201527f72000000000000000000000000000000000000000000000000000000000000006064820152608401610529565b60035473ffffffffffffffffffffffffffffffffffffffff610100909104166000610df860015473ffffffffffffffffffffffffffffffffffffffff1690565b6005546040517f93f1a40b000000000000000000000000000000000000000000000000000000008152600481019190915230602482015290915060009073ffffffffffffffffffffffffffffffffffffffff8416906393f1a40b9060440160606040518083038186803b158015610e6e57600080fd5b505afa158015610e82573d6000803e3d6000fd5b505050506040513d601f19601f82011682018060405250810190610ea69190614342565b60055481516040517f441a3e700000000000000000000000000000000000000000000000000000000081526004810192909252602482015290915073ffffffffffffffffffffffffffffffffffffffff84169063441a3e7090604401600060405180830381600087803b158015610f1c57600080fd5b505af1158015610f30573d6000803e3d6000fd5b50506006546040517f70a0823100000000000000000000000000000000000000000000000000000000815230600482015261100b935085925064010000000090910473ffffffffffffffffffffffffffffffffffffffff16906370a08231906024015b60206040518083038186803b158015610fab57600080fd5b505afa158015610fbf573d6000803e3d6000fd5b505050506040513d601f19601f82011682018060405250810190610fe3919061439e565b600654640100000000900473ffffffffffffffffffffffffffffffffffffffff169190613511565b6007546040517f70a082310000000000000000000000000000000000000000000000000000000081523060048201526110d391849173ffffffffffffffffffffffffffffffffffffffff909116906370a08231906024015b60206040518083038186803b15801561107b57600080fd5b505afa15801561108f573d6000803e3d6000fd5b505050506040513d601f19601f820116820180604052508101906110b3919061439e565b60075473ffffffffffffffffffffffffffffffffffffffff169190613511565b505050565b6040517f6b880718000000000000000000000000000000000000000000000000000000008152306004820152600090819073__$0fb85c1a108326fe5c0d8f2f5a241bc0e7$__90636b8807189060240160206040518083038186803b15801561114057600080fd5b505af4158015611154573d6000803e3d6000fd5b505050506040513d601f19601f820116820180604052508101906111789190614128565b905073ffffffffffffffffffffffffffffffffffffffff81163014156111bb57505060015474010000000000000000000000000000000000000000900460ff1690565b60015474010000000000000000000000000000000000000000900460ff168061097957508073ffffffffffffffffffffffffffffffffffffffff16635c975abb6040518163ffffffff1660e01b815260040160206040518083038186803b15801561122557600080fd5b505afa158015611239573d6000803e3d6000fd5b505050506040513d601f19601f820116820180604052508101906109799190614307565b6040517f6b88071800000000000000000000000000000000000000000000000000000000815230600482018190529073__$0fb85c1a108326fe5c0d8f2f5a241bc0e7$__90636b8807189060240160206040518083038186803b1580156112c357600080fd5b505af41580156112d7573d6000803e3d6000fd5b505050506040513d601f19601f820116820180604052508101906112fb9190614128565b73ffffffffffffffffffffffffffffffffffffffff1614156114b057600061132161081d565b6040517f21f8a7210000000000000000000000000000000000000000000000000000000081527f689d13d8ed8ef1027633ba26e7121121cf427434450a529548f19bf175974395600482015273ffffffffffffffffffffffffffffffffffffffff91909116906321f8a7219060240160206040518083038186803b1580156113a857600080fd5b505afa1580156113bc573d6000803e3d6000fd5b505050506040513d601f19601f820116820180604052508101906113e09190614128565b60015490915073ffffffffffffffffffffffffffffffffffffffff1633148061141e57503373ffffffffffffffffffffffffffffffffffffffff8216145b6114aa576040517f08c379a000000000000000000000000000000000000000000000000000000000815260206004820152602260248201527f4175746f6d6174653a2063616c6c6572206973206e6f7420746865207061757360448201527f65720000000000000000000000000000000000000000000000000000000000006064820152608401610529565b50611557565b60015473ffffffffffffffffffffffffffffffffffffffff163314611557576040517f08c379a000000000000000000000000000000000000000000000000000000000815260206004820152602260248201527f4175746f6d6174653a2063616c6c6572206973206e6f7420746865207061757360448201527f65720000000000000000000000000000000000000000000000000000000000006064820152608401610529565b61155f6110d8565b156115c6576040517f08c379a000000000000000000000000000000000000000000000000000000000815260206004820152601060248201527f4175746f6d6174653a20706175736564000000000000000000000000000000006044820152606401610529565b600180547fffffffffffffffffffffff00ffffffffffffffffffffffffffffffffffffffff1674010000000000000000000000000000000000000000179055565b60015473ffffffffffffffffffffffffffffffffffffffff1633146116ae576040517f08c379a000000000000000000000000000000000000000000000000000000000815260206004820152602160248201527f4175746f6d6174653a2063616c6c6572206973206e6f7420746865206f776e6560448201527f72000000000000000000000000000000000000000000000000000000000000006064820152608401610529565b6040518060600160405280858580806020026020016040519081016040528093929190818152602001838360200280828437600092019190915250505090825250602080820185905260409091018390528151805160089261171492849291019061403b565b506020820151600182015560409091015160029091015550505050565b81604051806060016040528060248152602001614897602491396117558282612ee0565b506003546005546040517f93f1a40b0000000000000000000000000000000000000000000000000000000081526004810182905230602482015261010090920473ffffffffffffffffffffffffffffffffffffffff169163441a3e70919083906393f1a40b9060440160606040518083038186803b1580156117d657600080fd5b505afa1580156117ea573d6000803e3d6000fd5b505050506040513d601f19601f8201168201806040525081019061180e9190614342565b5160405160e084901b7fffffffff0000000000000000000000000000000000000000000000000000000016815260048101929092526024820152604401600060405180830381600087803b15801561186557600080fd5b505af1158015611879573d6000803e3d6000fd5b5060009250600191506118899050565b6040519080825280602002602001820160405280156118b2578160200160208202803683370190505b509050600660049054906101000a900473ffffffffffffffffffffffffffffffffffffffff16816000815181106118eb576118eb6147f3565b73ffffffffffffffffffffffffffffffffffffffff928316602091820292909201015260045461192091600891168387613567565b600061194160015473ffffffffffffffffffffffffffffffffffffffff1690565b6008805491925060009161195790600190614761565b81548110611967576119676147f3565b6000918252602090912001546040517f70a0823100000000000000000000000000000000000000000000000000000000815230600482015273ffffffffffffffffffffffffffffffffffffffff9091169150611a3890839083906370a082319060240160206040518083038186803b1580156119e257600080fd5b505afa1580156119f6573d6000803e3d6000fd5b505050506040513d601f19601f82011682018060405250810190611a1a919061439e565b73ffffffffffffffffffffffffffffffffffffffff84169190613511565b60075473ffffffffffffffffffffffffffffffffffffffff828116911614611ab6576007546040517f70a08231000000000000000000000000000000000000000000000000000000008152306004820152611ab691849173ffffffffffffffffffffffffffffffffffffffff909116906370a0823190602401611063565b50505050505050565b6040517f6b88071800000000000000000000000000000000000000000000000000000000815230600482015260009073__$0fb85c1a108326fe5c0d8f2f5a241bc0e7$__90636b8807189060240160206040518083038186803b158015611b2557600080fd5b505af4158015611b39573d6000803e3d6000fd5b505050506040513d601f19601f82011682018060405250810190611b5d9190614128565b90503373ffffffffffffffffffffffffffffffffffffffff82163014611c00578173ffffffffffffffffffffffffffffffffffffffff16638da5cb5b6040518163ffffffff1660e01b815260040160206040518083038186803b158015611bc357600080fd5b505afa158015611bd7573d6000803e3d6000fd5b505050506040513d601f19601f82011682018060405250810190611bfb9190614128565b611c1a565b60015473ffffffffffffffffffffffffffffffffffffffff165b73ffffffffffffffffffffffffffffffffffffffff1614611cbd576040517f08c379a000000000000000000000000000000000000000000000000000000000815260206004820152603d60248201527f4175746f6d6174653a3a6368616e676550726f746f636f6c4665653a2063616c60448201527f6c6572206973206e6f74207468652070726f746f636f6c206f776e65720000006064820152608401610529565b60028290556040518281527f3c1d43943224e49d951ce8295a5c8332b517083b3f89bed50feae2cb39caebb59060200160405180910390a15050565b6040517f6b880718000000000000000000000000000000000000000000000000000000008152306004820152600090819073__$0fb85c1a108326fe5c0d8f2f5a241bc0e7$__90636b8807189060240160206040518083038186803b158015611d6157600080fd5b505af4158015611d75573d6000803e3d6000fd5b505050506040513d601f19601f82011682018060405250810190611d999190614128565b905073ffffffffffffffffffffffffffffffffffffffff81163014801590611dc357506000600254125b15611e46578073ffffffffffffffffffffffffffffffffffffffff1663b0e21e8a6040518163ffffffff1660e01b815260040160206040518083038186803b158015611e0e57600080fd5b505afa158015611e22573d6000803e3d6000fd5b505050506040513d601f19601f82011682018060405250810190610979919061439e565b6000611e5061081d565b905060008060025412611e6557600254611f22565b6040517fbd02d0f50000000000000000000000000000000000000000000000000000000081527fa93d95f96a5de25d7a41ddf1f5e8d45cfc929c4838163cf011dab4043a4a40d5600482015273ffffffffffffffffffffffffffffffffffffffff83169063bd02d0f59060240160206040518083038186803b158015611eea57600080fd5b505afa158015611efe573d6000803e3d6000fd5b505050506040513d601f19601f82011682018060405250810190611f22919061439e565b905080611f33576000935050505090565b6040517f21f8a7210000000000000000000000000000000000000000000000000000000081527f65c90423fe7c880476633a7e36521740f87199d233dc56eb4ca6643eb76f605f600482015260009073ffffffffffffffffffffffffffffffffffffffff8416906321f8a7219060240160206040518083038186803b158015611fbb57600080fd5b505afa158015611fcf573d6000803e3d6000fd5b505050506040513d601f19601f82011682018060405250810190611ff39190614128565b73ffffffffffffffffffffffffffffffffffffffff1663feaf968c6040518163ffffffff1660e01b815260040160a06040518083038186803b15801561203857600080fd5b505afa15801561204c573d6000803e3d6000fd5b505050506040513d601f19601f8201168201806040525081019061207091906144ca565b505050915050600081136120e0576040517f08c379a000000000000000000000000000000000000000000000000000000000815260206004820152601760248201527f4175746f6d6174653a20696e76616c69642070726963650000000000000000006044820152606401610529565b806120f383670de0b6b3a7640000614724565b6120fd91906146e9565b94505050505090565b60015473ffffffffffffffffffffffffffffffffffffffff1633146121ad576040517f08c379a000000000000000000000000000000000000000000000000000000000815260206004820152602160248201527f4175746f6d6174653a2063616c6c6572206973206e6f7420746865206f776e6560448201527f72000000000000000000000000000000000000000000000000000000000000006064820152608401610529565b600654640100000000900473ffffffffffffffffffffffffffffffffffffffff166121da81333085613ce5565b6003546122069073ffffffffffffffffffffffffffffffffffffffff83811691610100900416846131b2565b6003546005546040517fe2bbb15800000000000000000000000000000000000000000000000000000000815260048101919091526024810184905261010090910473ffffffffffffffffffffffffffffffffffffffff169063e2bbb15890604401600060405180830381600087803b15801561228157600080fd5b505af1158015612295573d6000803e3d6000fd5b505050505050565b60015473ffffffffffffffffffffffffffffffffffffffff1661230d57600180547fffffffffffffffffffffffff000000000000000000000000000000000000000016321790557fffffffffffffffffffffffffffffffffffffffffffffffffffffffffffffffff6002556123b4565b60015473ffffffffffffffffffffffffffffffffffffffff1633146123b4576040517f08c379a000000000000000000000000000000000000000000000000000000000815260206004820152602160248201527f4175746f6d6174653a2063616c6c6572206973206e6f7420746865206f776e6560448201527f72000000000000000000000000000000000000000000000000000000000000006064820152608401610529565b60035460ff1615806123e5575060035473ffffffffffffffffffffffffffffffffffffffff86811661010090920416145b612497576040517f08c379a000000000000000000000000000000000000000000000000000000000815260206004820152604660248201527f4d6173746572436865663253696e676c6552657374616b653a3a696e69743a2060448201527f7265696e697469616c697a65207374616b696e67206164647265737320666f7260648201527f62696464656e0000000000000000000000000000000000000000000000000000608482015260a401610529565b6003805473ffffffffffffffffffffffffffffffffffffffff8716610100027fffffffffffffffffffffff0000000000000000000000000000000000000000ff8216811790925560ff918216911617158061250c575060045473ffffffffffffffffffffffffffffffffffffffff8581169116145b6125be576040517f08c379a000000000000000000000000000000000000000000000000000000000815260206004820152604f60248201527f4d6173746572436865663253696e676c6552657374616b653a3a696e69743a2060448201527f7265696e697469616c697a65206c697175696469747920726f7574657220616460648201527f647265737320666f7262696464656e0000000000000000000000000000000000608482015260a401610529565b600480547fffffffffffffffffffffffff00000000000000000000000000000000000000001673ffffffffffffffffffffffffffffffffffffffff861617905560035460ff161580612611575082600554145b6126c3576040517f08c379a000000000000000000000000000000000000000000000000000000000815260206004820152604160248201527f4d6173746572436865663253696e676c6552657374616b653a3a696e69743a2060448201527f7265696e697469616c697a6520706f6f6c20696e64657820666f72626964646560648201527f6e00000000000000000000000000000000000000000000000000000000000000608482015260a401610529565b60058390556006805461ffff83811662010000027fffffffffffffffffffffffffffffffffffffffffffffffffffffffff000000009092169085161717905560035460ff166128e2576003546005546040517f78ed5d1f0000000000000000000000000000000000000000000000000000000081526004810191909152600091610100900473ffffffffffffffffffffffffffffffffffffffff16906378ed5d1f9060240160206040518083038186803b15801561278057600080fd5b505afa158015612794573d6000803e3d6000fd5b505050506040513d601f19601f820116820180604052508101906127b89190614128565b905080600660046101000a81548173ffffffffffffffffffffffffffffffffffffffff021916908373ffffffffffffffffffffffffffffffffffffffff160217905550600360019054906101000a900473ffffffffffffffffffffffffffffffffffffffff1673ffffffffffffffffffffffffffffffffffffffff16634ca6ef286040518163ffffffff1660e01b815260040160206040518083038186803b15801561286357600080fd5b505afa158015612877573d6000803e3d6000fd5b505050506040513d601f19601f8201168201806040525081019061289b9190614128565b600780547fffffffffffffffffffffffff00000000000000000000000000000000000000001673ffffffffffffffffffffffffffffffffffffffff92909216919091179055505b5050600380547fffffffffffffffffffffffffffffffffffffffffffffffffffffffffffffff00166001179055505050565b60015473ffffffffffffffffffffffffffffffffffffffff1633146129bb576040517f08c379a000000000000000000000000000000000000000000000000000000000815260206004820152602160248201527f4175746f6d6174653a2063616c6c6572206973206e6f7420746865206f776e6560448201527f72000000000000000000000000000000000000000000000000000000000000006064820152608401610529565b6040517fa9059cbb00000000000000000000000000000000000000000000000000000000815273ffffffffffffffffffffffffffffffffffffffff83811660048301526024820183905284169063a9059cbb90604401602060405180830381600087803b158015612a2b57600080fd5b505af1158015612a3f573d6000803e3d6000fd5b505050506040513d601f19601f82011682018060405250810190612a639190614307565b50505050565b60015473ffffffffffffffffffffffffffffffffffffffff163314612b10576040517f08c379a000000000000000000000000000000000000000000000000000000000815260206004820152602160248201527f4175746f6d6174653a2063616c6c6572206973206e6f7420746865206f776e6560448201527f72000000000000000000000000000000000000000000000000000000000000006064820152608401610529565b6000612b3160015473ffffffffffffffffffffffffffffffffffffffff1690565b6003546005546040517f5312ea8e0000000000000000000000000000000000000000000000000000000081526004810191909152919250610100900473ffffffffffffffffffffffffffffffffffffffff1690635312ea8e90602401600060405180830381600087803b158015612ba757600080fd5b505af1158015612bbb573d6000803e3d6000fd5b50506006546040517f70a08231000000000000000000000000000000000000000000000000000000008152306004820152612c22935084925064010000000090910473ffffffffffffffffffffffffffffffffffffffff16906370a0823190602401610f93565b6007546040517f70a08231000000000000000000000000000000000000000000000000000000008152306004820152612c7e91839173ffffffffffffffffffffffffffffffffffffffff909116906370a0823190602401611063565b50565b60015473ffffffffffffffffffffffffffffffffffffffff163314612d28576040517f08c379a000000000000000000000000000000000000000000000000000000000815260206004820152602160248201527f4175746f6d6174653a2063616c6c6572206973206e6f7420746865206f776e6560448201527f72000000000000000000000000000000000000000000000000000000000000006064820152608401610529565b6040517f6b88071800000000000000000000000000000000000000000000000000000000815230600482018190529073__$0fb85c1a108326fe5c0d8f2f5a241bc0e7$__90636b8807189060240160206040518083038186803b158015612d8e57600080fd5b505af4158015612da2573d6000803e3d6000fd5b505050506040513d601f19601f82011682018060405250810190612dc69190614128565b73ffffffffffffffffffffffffffffffffffffffff1614612e69576040517f08c379a000000000000000000000000000000000000000000000000000000000815260206004820152602160248201527f4175746f6d6174653a206368616e676520746865206f776e6572206661696c6560448201527f64000000000000000000000000000000000000000000000000000000000000006064820152608401610529565b6001805473ffffffffffffffffffffffffffffffffffffffff8381167fffffffffffffffffffffffff0000000000000000000000000000000000000000831681179093556040519116919082907f8be0079c531659141344cd1fd0a4f28419497f9722a3daafe3b4186f6b6457e090600090a35050565b6000612eea6110d8565b15612f51576040517f08c379a000000000000000000000000000000000000000000000000000000000815260206004820152601060248201527f4175746f6d6174653a20706175736564000000000000000000000000000000006044820152606401610529565b6000612f7260015473ffffffffffffffffffffffffffffffffffffffff1690565b90503273ffffffffffffffffffffffffffffffffffffffff82161415612f9c5760009150506131ac565b6000612fa661081d565b6040517f21f8a7210000000000000000000000000000000000000000000000000000000081527fe78c16c6d839536d3155985aab4e9c6013c8c3d446054bcebc48612f359d81f5600482015290915060009073ffffffffffffffffffffffffffffffffffffffff8316906321f8a7219060240160206040518083038186803b15801561303157600080fd5b505afa158015613045573d6000803e3d6000fd5b505050506040513d601f19601f820116820180604052508101906130699190614128565b905073ffffffffffffffffffffffffffffffffffffffff811661310e576040517f08c379a000000000000000000000000000000000000000000000000000000000815260206004820152602b60248201527f4175746f6d6174653a3a5f62696c6c3a2062616c616e636520636f6e7472616360448201527f74206e6f7420666f756e640000000000000000000000000000000000000000006064820152608401610529565b8073ffffffffffffffffffffffffffffffffffffffff1663e578a2258488613134611cf9565b896040518563ffffffff1660e01b81526004016131549493929190614574565b602060405180830381600087803b15801561316e57600080fd5b505af1158015613182573d6000803e3d6000fd5b505050506040513d601f19601f820116820180604052508101906131a6919061439e565b93505050505b92915050565b80158061326157506040517fdd62ed3e00000000000000000000000000000000000000000000000000000000815230600482015273ffffffffffffffffffffffffffffffffffffffff838116602483015284169063dd62ed3e9060440160206040518083038186803b15801561322757600080fd5b505afa15801561323b573d6000803e3d6000fd5b505050506040513d601f19601f8201168201806040525081019061325f919061439e565b155b6132ed576040517f08c379a000000000000000000000000000000000000000000000000000000000815260206004820152603660248201527f5361666545524332303a20617070726f76652066726f6d206e6f6e2d7a65726f60448201527f20746f206e6f6e2d7a65726f20616c6c6f77616e6365000000000000000000006064820152608401610529565b60405173ffffffffffffffffffffffffffffffffffffffff83166024820152604481018290526110d39084907f095ea7b300000000000000000000000000000000000000000000000000000000906064015b604080517fffffffffffffffffffffffffffffffffffffffffffffffffffffffffffffffe08184030181529190526020810180517bffffffffffffffffffffffffffffffffffffffffffffffffffffffff167fffffffff0000000000000000000000000000000000000000000000000000000090931692909217909152613d43565b606083600185516133d29190614761565b815181106133e2576133e26147f3565b602002602001015173ffffffffffffffffffffffffffffffffffffffff1684600081518110613413576134136147f3565b602002602001015173ffffffffffffffffffffffffffffffffffffffff1614613507576040517f38ed173900000000000000000000000000000000000000000000000000000000815273ffffffffffffffffffffffffffffffffffffffff8816906338ed17399061349090899089908990899089906004016145c2565b600060405180830381600087803b1580156134aa57600080fd5b505af11580156134be573d6000803e3d6000fd5b505050506040513d6000823e601f3d9081017fffffffffffffffffffffffffffffffffffffffffffffffffffffffffffffffe0168201604052613504919081019061426a565b90505b9695505050505050565b60405173ffffffffffffffffffffffffffffffffffffffff83166024820152604481018290526110d39084907fa9059cbb000000000000000000000000000000000000000000000000000000009060640161333f565b8354600110801561357c575060008460010154115b613608576040517f08c379a000000000000000000000000000000000000000000000000000000000815260206004820152602160248201527f53746f704c6f73733a3a72756e3a2073746f70206c6f73732064697361626c6560448201527f64000000000000000000000000000000000000000000000000000000000000006064820152608401610529565b6101008251111561369b576040517f08c379a000000000000000000000000000000000000000000000000000000000815260206004820152602160248201527f53746f704c6f73733a3a72756e3a20746f6f206d616e7920696e20746f6b656e60448201527f73000000000000000000000000000000000000000000000000000000000000006064820152608401610529565b60005b82518160ff1610156138f0576000838260ff16815181106136c1576136c16147f3565b60200260200101519050856000016000815481106136e1576136e16147f3565b60009182526020909120015473ffffffffffffffffffffffffffffffffffffffff8281169116141561371357506138de565b6040517f70a0823100000000000000000000000000000000000000000000000000000000815230600482015260009073ffffffffffffffffffffffffffffffffffffffff8316906370a082319060240160206040518083038186803b15801561377b57600080fd5b505afa15801561378f573d6000803e3d6000fd5b505050506040513d601f19601f820116820180604052508101906137b3919061439e565b9050806137c15750506138de565b60408051600280825260608201835260009260208301908036833701905050905082816000815181106137f6576137f66147f3565b602002602001019073ffffffffffffffffffffffffffffffffffffffff16908173ffffffffffffffffffffffffffffffffffffffff168152505087600001600081548110613846576138466147f3565b9060005260206000200160009054906101000a900473ffffffffffffffffffffffffffffffffffffffff1681600181518110613884576138846147f3565b73ffffffffffffffffffffffffffffffffffffffff92831660209182029290920101526138b490841688846131b2565b6138d973ffffffffffffffffffffffffffffffffffffffff881683600084308a6133c1565b505050505b806138e8816147a4565b91505061369e565b50600084600001600081548110613909576139096147f3565b60009182526020822001546040517f70a0823100000000000000000000000000000000000000000000000000000000815230600482015273ffffffffffffffffffffffffffffffffffffffff909116925082906370a082319060240160206040518083038186803b15801561397d57600080fd5b505afa158015613991573d6000803e3d6000fd5b505050506040513d601f19601f820116820180604052508101906139b5919061439e565b865490915060009087906139cb90600190614761565b815481106139db576139db6147f3565b60009182526020909120015473ffffffffffffffffffffffffffffffffffffffff848116911614613c135760008211613a96576040517f08c379a000000000000000000000000000000000000000000000000000000000815260206004820152603160248201527f53746f704c6f73733a3a72756e3a20696e73756666696369656e742062616c6160448201527f6e6365206f66206261736520746f6b656e0000000000000000000000000000006064820152608401610529565b613ab773ffffffffffffffffffffffffffffffffffffffff841687846131b2565b6000613b4f8389600201548a600001805480602002602001604051908101604052809291908181526020018280548015613b2757602002820191906000526020600020905b815473ffffffffffffffffffffffffffffffffffffffff168152600190910190602001808311613afc575b50505073ffffffffffffffffffffffffffffffffffffffff8d1694939291503090508a6133c1565b90508060018251613b609190614761565b81518110613b7057613b706147f3565b602002602001015191508760010154821115613c0d576040517f08c379a0000000000000000000000000000000000000000000000000000000008152602060048201526024808201527f53746f704c6f73733a3a72756e3a20696e76616c6964206f757470757420616d60448201527f6f756e74000000000000000000000000000000000000000000000000000000006064820152608401610529565b50613ca9565b8190508660010154811115613ca9576040517f08c379a0000000000000000000000000000000000000000000000000000000008152602060048201526024808201527f53746f704c6f73733a3a72756e3a20696e76616c6964206f757470757420616d60448201527f6f756e74000000000000000000000000000000000000000000000000000000006064820152608401610529565b6040518181527ff22ed879bd57fced893edba2366c8143c0d7c2e585eafd2521c2832159d557f19060200160405180910390a150505050505050565b60405173ffffffffffffffffffffffffffffffffffffffff80851660248301528316604482015260648101829052612a639085907f23b872dd000000000000000000000000000000000000000000000000000000009060840161333f565b6000613da5826040518060400160405280602081526020017f5361666545524332303a206c6f772d6c6576656c2063616c6c206661696c65648152508573ffffffffffffffffffffffffffffffffffffffff16613e4f9092919063ffffffff16565b8051909150156110d35780806020019051810190613dc39190614307565b6110d3576040517f08c379a000000000000000000000000000000000000000000000000000000000815260206004820152602a60248201527f5361666545524332303a204552433230206f7065726174696f6e20646964206e60448201527f6f742073756363656564000000000000000000000000000000000000000000006064820152608401610529565b6060613e5e8484600085613e68565b90505b9392505050565b606082471015613efa576040517f08c379a000000000000000000000000000000000000000000000000000000000815260206004820152602660248201527f416464726573733a20696e73756666696369656e742062616c616e636520666f60448201527f722063616c6c00000000000000000000000000000000000000000000000000006064820152608401610529565b843b613f62576040517f08c379a000000000000000000000000000000000000000000000000000000000815260206004820152601d60248201527f416464726573733a2063616c6c20746f206e6f6e2d636f6e74726163740000006044820152606401610529565b6000808673ffffffffffffffffffffffffffffffffffffffff168587604051613f8b9190614558565b60006040518083038185875af1925050503d8060008114613fc8576040519150601f19603f3d011682016040523d82523d6000602084013e613fcd565b606091505b5091509150613fdd828286613fe8565b979650505050505050565b60608315613ff7575081613e61565b8251156140075782518084602001fd5b816040517f08c379a000000000000000000000000000000000000000000000000000000000815260040161052991906145af565b8280548282559060005260206000209081019282156140b5579160200282015b828111156140b557825182547fffffffffffffffffffffffff00000000000000000000000000000000000000001673ffffffffffffffffffffffffffffffffffffffff90911617825560209092019160019091019061405b565b506140c19291506140c5565b5090565b5b808211156140c157600081556001016140c6565b803561ffff811681146140ec57600080fd5b919050565b805169ffffffffffffffffffff811681146140ec57600080fd5b60006020828403121561411d57600080fd5b8135613e6181614851565b60006020828403121561413a57600080fd5b8151613e6181614851565b60008060006060848603121561415a57600080fd5b833561416581614851565b9250602084013561417581614851565b929592945050506040919091013590565b600080600080600060a0868803121561419e57600080fd5b85356141a981614851565b945060208601356141b981614851565b9350604086013592506141ce606087016140da565b91506141dc608087016140da565b90509295509295909350565b600080600080606085870312156141fe57600080fd5b843567ffffffffffffffff8082111561421657600080fd5b818701915087601f83011261422a57600080fd5b81358181111561423957600080fd5b8860208260051b850101111561424e57600080fd5b6020928301999098509187013596604001359550909350505050565b6000602080838503121561427d57600080fd5b825167ffffffffffffffff81111561429457600080fd5b8301601f810185136142a557600080fd5b80516142b86142b3826146c5565b614676565b80828252848201915084840188868560051b87010111156142d857600080fd5b600094505b838510156142fb5780518352600194909401939185019185016142dd565b50979650505050505050565b60006020828403121561431957600080fd5b81518015158114613e6157600080fd5b60006020828403121561433b57600080fd5b5035919050565b60006060828403121561435457600080fd5b6040516060810181811067ffffffffffffffff8211171561437757614377614822565b80604052508251815260208301516020820152604083015160408201528091505092915050565b6000602082840312156143b057600080fd5b5051919050565b600080604083850312156143ca57600080fd5b50508035926020909101359150565b6000806000606084860312156143ee57600080fd5b833592506020808501359250604085013567ffffffffffffffff8082111561441557600080fd5b908601906040828903121561442957600080fd5b61443161464d565b82358281111561444057600080fd5b83019150601f8201891361445357600080fd5b81356144616142b3826146c5565b8082825286820191508685018c888560051b880101111561448157600080fd5b600095505b838610156144ad57803561449981614851565b835260019590950194918701918701614486565b508084525050508383013584820152809450505050509250925092565b600080600080600060a086880312156144e257600080fd5b6144eb866140f1565b94506020860151935060408601519250606086015191506141dc608087016140f1565b60008151808452614526816020860160208601614778565b601f017fffffffffffffffffffffffffffffffffffffffffffffffffffffffffffffffe0169290920160200192915050565b6000825161456a818460208701614778565b9190910192915050565b73ffffffffffffffffffffffffffffffffffffffff85168152836020820152826040820152608060608201526000613507608083018461450e565b602081526000613e61602083018461450e565b600060a082018783526020878185015260a0604085015281875180845260c086019150828901935060005b8181101561461f57845173ffffffffffffffffffffffffffffffffffffffff16835293830193918301916001016145ed565b505073ffffffffffffffffffffffffffffffffffffffff969096166060850152505050608001529392505050565b6040805190810167ffffffffffffffff8111828210171561467057614670614822565b60405290565b604051601f82017fffffffffffffffffffffffffffffffffffffffffffffffffffffffffffffffe016810167ffffffffffffffff811182821017156146bd576146bd614822565b604052919050565b600067ffffffffffffffff8211156146df576146df614822565b5060051b60200190565b60008261471f577f4e487b7100000000000000000000000000000000000000000000000000000000600052601260045260246000fd5b500490565b6000817fffffffffffffffffffffffffffffffffffffffffffffffffffffffffffffffff048311821515161561475c5761475c6147c4565b500290565b600082821015614773576147736147c4565b500390565b60005b8381101561479357818101518382015260200161477b565b83811115612a635750506000910152565b600060ff821660ff8114156147bb576147bb6147c4565b60010192915050565b7f4e487b7100000000000000000000000000000000000000000000000000000000600052601160045260246000fd5b7f4e487b7100000000000000000000000000000000000000000000000000000000600052603260045260246000fd5b7f4e487b7100000000000000000000000000000000000000000000000000000000600052604160045260246000fd5b73ffffffffffffffffffffffffffffffffffffffff81168114612c7e57600080fdfe50616e63616b65537761704d6173746572436865663253696e676c6552657374616b6550616e63616b65537761704d6173746572436865663253696e676c6553746f704c6f7373a164736f6c6343000806000a",
  "libraries": {
    "ERC1167": "0x1F59Ee3B1ff055Be0b84BcB6D7beAa7f984fFf2e"
  },
  "devdoc": {
    "kind": "dev",
    "methods": {
      "changeProtocolFee(int256)": {
        "params": {
          "__protocolFee": "New protocol fee."
        }
      },
      "protocolFee()": {
        "returns": {
          "_0": "Current protocol fee."
        }
      },
      "transfer(address,address,uint256)": {
        "params": {
          "amount": "Transferred amount of tokens.",
          "recipient": "Token recipient address.",
          "token": "The address of the token to be transferred."
        }
      },
      "transferOwnership(address)": {
        "details": "Transfers ownership of the contract to a new account (`newOwner`). Can only be called by the current owner."
      }
    },
    "version": 1
  },
  "userdoc": {
    "kind": "user",
    "methods": {
      "changeProtocolFee(int256)": {
        "notice": "Change protocol fee."
      },
      "info()": {
        "notice": "Returns address of Storage contract."
      },
      "owner()": {
        "notice": "Returns the address of the current owner."
      },
      "pause()": {
        "notice": "Pause contract."
      },
      "paused()": {
        "notice": "Returns true if the contract is paused, and false otherwise."
      },
      "transfer(address,address,uint256)": {
        "notice": "Transfer ERC20 token to recipient."
      },
      "unpause()": {
        "notice": "Unpause contract."
      }
    },
    "notice": "Use with simple token only.",
    "version": 1
  },
  "storageLayout": {
    "storage": [
      {
        "astId": 3899,
        "contract": "contracts/MasterChef2SingleRestake.automate.sol:MasterChef2SingleRestake",
        "label": "_info",
        "offset": 0,
        "slot": "0",
        "type": "t_address"
      },
      {
        "astId": 3902,
        "contract": "contracts/MasterChef2SingleRestake.automate.sol:MasterChef2SingleRestake",
        "label": "_owner",
        "offset": 0,
        "slot": "1",
        "type": "t_address"
      },
      {
        "astId": 3905,
        "contract": "contracts/MasterChef2SingleRestake.automate.sol:MasterChef2SingleRestake",
        "label": "_paused",
        "offset": 20,
        "slot": "1",
        "type": "t_bool"
      },
      {
        "astId": 3908,
        "contract": "contracts/MasterChef2SingleRestake.automate.sol:MasterChef2SingleRestake",
        "label": "_protocolFee",
        "offset": 0,
        "slot": "2",
        "type": "t_int256"
      },
      {
        "astId": 3911,
        "contract": "contracts/MasterChef2SingleRestake.automate.sol:MasterChef2SingleRestake",
        "label": "_initialized",
        "offset": 0,
        "slot": "3",
        "type": "t_bool"
      },
      {
        "astId": 1635,
        "contract": "contracts/MasterChef2SingleRestake.automate.sol:MasterChef2SingleRestake",
        "label": "staking",
        "offset": 1,
        "slot": "3",
        "type": "t_contract(IMasterChef2)939"
      },
      {
        "astId": 1637,
        "contract": "contracts/MasterChef2SingleRestake.automate.sol:MasterChef2SingleRestake",
        "label": "liquidityRouter",
        "offset": 0,
        "slot": "4",
        "type": "t_address"
      },
      {
        "astId": 1639,
        "contract": "contracts/MasterChef2SingleRestake.automate.sol:MasterChef2SingleRestake",
        "label": "pool",
        "offset": 0,
        "slot": "5",
        "type": "t_uint256"
      },
      {
        "astId": 1641,
        "contract": "contracts/MasterChef2SingleRestake.automate.sol:MasterChef2SingleRestake",
        "label": "slippage",
        "offset": 0,
        "slot": "6",
        "type": "t_uint16"
      },
      {
        "astId": 1643,
        "contract": "contracts/MasterChef2SingleRestake.automate.sol:MasterChef2SingleRestake",
        "label": "deadline",
        "offset": 2,
        "slot": "6",
        "type": "t_uint16"
      },
      {
        "astId": 1646,
        "contract": "contracts/MasterChef2SingleRestake.automate.sol:MasterChef2SingleRestake",
        "label": "stakingToken",
        "offset": 4,
        "slot": "6",
        "type": "t_contract(IERC20)227"
      },
      {
        "astId": 1649,
        "contract": "contracts/MasterChef2SingleRestake.automate.sol:MasterChef2SingleRestake",
        "label": "rewardToken",
        "offset": 0,
        "slot": "7",
        "type": "t_contract(IERC20)227"
      },
      {
        "astId": 1652,
        "contract": "contracts/MasterChef2SingleRestake.automate.sol:MasterChef2SingleRestake",
        "label": "stopLoss",
        "offset": 0,
        "slot": "8",
        "type": "t_struct(Order)5573_storage"
      }
    ],
    "types": {
      "t_address": {
        "encoding": "inplace",
        "label": "address",
        "numberOfBytes": "20"
      },
      "t_array(t_address)dyn_storage": {
        "base": "t_address",
        "encoding": "dynamic_array",
        "label": "address[]",
        "numberOfBytes": "32"
      },
      "t_bool": {
        "encoding": "inplace",
        "label": "bool",
        "numberOfBytes": "1"
      },
      "t_contract(IERC20)227": {
        "encoding": "inplace",
        "label": "contract IERC20",
        "numberOfBytes": "20"
      },
      "t_contract(IMasterChef2)939": {
        "encoding": "inplace",
        "label": "contract IMasterChef2",
        "numberOfBytes": "20"
      },
      "t_int256": {
        "encoding": "inplace",
        "label": "int256",
        "numberOfBytes": "32"
      },
      "t_struct(Order)5573_storage": {
        "encoding": "inplace",
        "label": "struct StopLoss.Order",
        "members": [
          {
            "astId": 5568,
            "contract": "contracts/MasterChef2SingleRestake.automate.sol:MasterChef2SingleRestake",
            "label": "path",
            "offset": 0,
            "slot": "0",
            "type": "t_array(t_address)dyn_storage"
          },
          {
            "astId": 5570,
            "contract": "contracts/MasterChef2SingleRestake.automate.sol:MasterChef2SingleRestake",
            "label": "amountOut",
            "offset": 0,
            "slot": "1",
            "type": "t_uint256"
          },
          {
            "astId": 5572,
            "contract": "contracts/MasterChef2SingleRestake.automate.sol:MasterChef2SingleRestake",
            "label": "amountOutMin",
            "offset": 0,
            "slot": "2",
            "type": "t_uint256"
          }
        ],
        "numberOfBytes": "96"
      },
      "t_uint16": {
        "encoding": "inplace",
        "label": "uint16",
        "numberOfBytes": "2"
      },
      "t_uint256": {
        "encoding": "inplace",
        "label": "uint256",
        "numberOfBytes": "32"
      }
    }
  }
}