{
  "_format": "hh-sol-artifact-1",
  "contractName": "MasterChefSingleRestake",
  "sourceName": "contracts/MasterChefSingleRestake.automate.sol",
  "abi": [
    {
      "inputs": [
        {
          "internalType": "address",
          "name": "_info",
          "type": "address"
        }
      ],
      "stateMutability": "nonpayable",
      "type": "constructor"
    },
    {
      "anonymous": false,
      "inputs": [
        {
          "indexed": true,
          "internalType": "address",
          "name": "previousOwner",
          "type": "address"
        },
        {
          "indexed": true,
          "internalType": "address",
          "name": "newOwner",
          "type": "address"
        }
      ],
      "name": "OwnershipTransferred",
      "type": "event"
    },
    {
      "anonymous": false,
      "inputs": [
        {
          "indexed": false,
          "internalType": "int256",
          "name": "protocolFee",
          "type": "int256"
        }
      ],
      "name": "ProtocolFeeChanged",
      "type": "event"
    },
    {
      "inputs": [
        {
          "internalType": "int256",
          "name": "__protocolFee",
          "type": "int256"
        }
      ],
      "name": "changeProtocolFee",
      "outputs": [],
      "stateMutability": "nonpayable",
      "type": "function"
    },
    {
      "inputs": [],
      "name": "deadline",
      "outputs": [
        {
          "internalType": "uint16",
          "name": "",
          "type": "uint16"
        }
      ],
      "stateMutability": "view",
      "type": "function"
    },
    {
      "inputs": [],
      "name": "deposit",
      "outputs": [],
      "stateMutability": "nonpayable",
      "type": "function"
    },
    {
      "inputs": [],
      "name": "emergencyWithdraw",
      "outputs": [],
      "stateMutability": "nonpayable",
      "type": "function"
    },
    {
      "inputs": [],
      "name": "info",
      "outputs": [
        {
          "internalType": "address",
          "name": "",
          "type": "address"
        }
      ],
      "stateMutability": "view",
      "type": "function"
    },
    {
      "inputs": [
        {
          "internalType": "address",
          "name": "_staking",
          "type": "address"
        },
        {
          "internalType": "address",
          "name": "_liquidityRouter",
          "type": "address"
        },
        {
          "internalType": "uint256",
          "name": "_pool",
          "type": "uint256"
        },
        {
          "internalType": "uint16",
          "name": "_slippage",
          "type": "uint16"
        },
        {
          "internalType": "uint16",
          "name": "_deadline",
          "type": "uint16"
        }
      ],
      "name": "init",
      "outputs": [],
      "stateMutability": "nonpayable",
      "type": "function"
    },
    {
      "inputs": [],
      "name": "liquidityRouter",
      "outputs": [
        {
          "internalType": "address",
          "name": "",
          "type": "address"
        }
      ],
      "stateMutability": "view",
      "type": "function"
    },
    {
      "inputs": [],
      "name": "owner",
      "outputs": [
        {
          "internalType": "address",
          "name": "",
          "type": "address"
        }
      ],
      "stateMutability": "view",
      "type": "function"
    },
    {
      "inputs": [],
      "name": "pause",
      "outputs": [],
      "stateMutability": "nonpayable",
      "type": "function"
    },
    {
      "inputs": [],
      "name": "paused",
      "outputs": [
        {
          "internalType": "bool",
          "name": "",
          "type": "bool"
        }
      ],
      "stateMutability": "view",
      "type": "function"
    },
    {
      "inputs": [],
      "name": "pool",
      "outputs": [
        {
          "internalType": "uint256",
          "name": "",
          "type": "uint256"
        }
      ],
      "stateMutability": "view",
      "type": "function"
    },
    {
      "inputs": [],
      "name": "protocolFee",
      "outputs": [
        {
          "internalType": "uint256",
          "name": "",
          "type": "uint256"
        }
      ],
      "stateMutability": "view",
      "type": "function"
    },
    {
      "inputs": [],
      "name": "refund",
      "outputs": [],
      "stateMutability": "nonpayable",
      "type": "function"
    },
    {
      "inputs": [],
      "name": "rewardToken",
      "outputs": [
        {
          "internalType": "contract IERC20",
          "name": "",
          "type": "address"
        }
      ],
      "stateMutability": "view",
      "type": "function"
    },
    {
      "inputs": [
        {
          "internalType": "uint256",
          "name": "gasFee",
          "type": "uint256"
        },
        {
          "internalType": "uint256",
          "name": "_deadline",
          "type": "uint256"
        },
        {
          "components": [
            {
              "internalType": "address[]",
              "name": "path",
              "type": "address[]"
            },
            {
              "internalType": "uint256",
              "name": "outMin",
              "type": "uint256"
            }
          ],
          "internalType": "struct MasterChefSingleRestake.Swap",
          "name": "swap",
          "type": "tuple"
        }
      ],
      "name": "run",
      "outputs": [],
      "stateMutability": "nonpayable",
      "type": "function"
    },
    {
      "inputs": [],
      "name": "slippage",
      "outputs": [
        {
          "internalType": "uint16",
          "name": "",
          "type": "uint16"
        }
      ],
      "stateMutability": "view",
      "type": "function"
    },
    {
      "inputs": [],
      "name": "staking",
      "outputs": [
        {
          "internalType": "contract IMasterChef",
          "name": "",
          "type": "address"
        }
      ],
      "stateMutability": "view",
      "type": "function"
    },
    {
      "inputs": [],
      "name": "stakingToken",
      "outputs": [
        {
          "internalType": "contract IERC20",
          "name": "",
          "type": "address"
        }
      ],
      "stateMutability": "view",
      "type": "function"
    },
    {
      "inputs": [
        {
          "internalType": "address",
          "name": "token",
          "type": "address"
        },
        {
          "internalType": "address",
          "name": "recipient",
          "type": "address"
        },
        {
          "internalType": "uint256",
          "name": "amount",
          "type": "uint256"
        }
      ],
      "name": "transfer",
      "outputs": [],
      "stateMutability": "nonpayable",
      "type": "function"
    },
    {
      "inputs": [
        {
          "internalType": "address",
          "name": "newOwner",
          "type": "address"
        }
      ],
      "name": "transferOwnership",
      "outputs": [],
      "stateMutability": "nonpayable",
      "type": "function"
    },
    {
      "inputs": [],
      "name": "unpause",
      "outputs": [],
      "stateMutability": "nonpayable",
      "type": "function"
    }
  ],
  "bytecode": "0x60806040523480156200001157600080fd5b5060405162003cb538038062003cb5833981016040819052620000349162000069565b600080546001600160a01b039092166001600160a01b031992831617905560018054909116321790556000196002556200009b565b6000602082840312156200007c57600080fd5b81516001600160a01b03811681146200009457600080fd5b9392505050565b613c0a80620000ab6000396000f3fe608060405234801561001057600080fd5b50600436106101775760003560e01c806372f702f3116100d8578063b838d9141161008c578063db2e21bc11610066578063db2e21bc14610313578063f2fde38b1461031b578063f7c618c11461032e57600080fd5b8063b838d914146102e5578063beabacc8146102f8578063d0e30db01461030b57600080fd5b80638da5cb5b116100bd5780638da5cb5b146102ac5780639742b5c3146102ca578063b0e21e8a146102dd57600080fd5b806372f702f31461027c5780638456cb59146102a457600080fd5b80633e032a3b1161012f5780634cf088d9116101145780634cf088d914610237578063590e1ae31461025c5780635c975abb1461026457600080fd5b80633e032a3b146102215780633f4ba83a1461022f57600080fd5b8063247029441161016057806324702944146101ad57806329dcb0cf146101f2578063370158ea1461021957600080fd5b806313ead7c61461017c57806316f0115b14610191575b600080fd5b61018f61018a3660046137a0565b61034e565b005b61019a60055481565b6040519081526020015b60405180910390f35b6004546101cd9073ffffffffffffffffffffffffffffffffffffffff1681565b60405173ffffffffffffffffffffffffffffffffffffffff90911681526020016101a4565b6006546102069062010000900461ffff1681565b60405161ffff90911681526020016101a4565b6101cd6108be565b6006546102069061ffff1681565b61018f610a20565b6003546101cd90610100900473ffffffffffffffffffffffffffffffffffffffff1681565b61018f610db2565b61026c611317565b60405190151581526020016101a4565b6006546101cd90640100000000900473ffffffffffffffffffffffffffffffffffffffff1681565b61018f61149c565b60015473ffffffffffffffffffffffffffffffffffffffff166101cd565b61018f6102d83660046136cd565b611846565b61019a611a80565b61018f6102f33660046135ac565b611e8d565b61018f61030636600461356b565b6124de565b61018f6125e0565b61018f612861565b61018f61032936600461352a565b612c5b565b6007546101cd9073ffffffffffffffffffffffffffffffffffffffff1681565b82604051806060016040528060218152602001613bdd602191396103728282612eba565b506003546006546005546040517f1175a1dd000000000000000000000000000000000000000000000000000000008152600481019190915230602482015261010090920473ffffffffffffffffffffffffffffffffffffffff9081169264010000000090920416906000908390631175a1dd9060440160206040518083038186803b15801561040057600080fd5b505afa158015610414573d6000803e3d6000fd5b505050506040513d601f19601f820116820180604052508101906104389190613787565b116104ca576040517f08c379a000000000000000000000000000000000000000000000000000000000815260206004820152602760248201527f4d61737465724368656653696e676c6552657374616b653a3a72756e3a206e6f60448201527f206561726e65640000000000000000000000000000000000000000000000000060648201526084015b60405180910390fd5b600554610556576040517f41441d3b0000000000000000000000000000000000000000000000000000000081526000600482015273ffffffffffffffffffffffffffffffffffffffff8316906341441d3b90602401600060405180830381600087803b15801561053957600080fd5b505af115801561054d573d6000803e3d6000fd5b505050506105e2565b6005546040517fe2bbb15800000000000000000000000000000000000000000000000000000000815260048101919091526000602482015273ffffffffffffffffffffffffffffffffffffffff83169063e2bbb15890604401600060405180830381600087803b1580156105c957600080fd5b505af11580156105dd573d6000803e3d6000fd5b505050505b6007546040517f70a0823100000000000000000000000000000000000000000000000000000000815230600482015260009173ffffffffffffffffffffffffffffffffffffffff16906370a082319060240160206040518083038186803b15801561064c57600080fd5b505afa158015610660573d6000803e3d6000fd5b505050506040513d601f19601f820116820180604052508101906106849190613787565b6004546007549192506106b19173ffffffffffffffffffffffffffffffffffffffff90811691168361318c565b6106d8866000015160405180604001604052808481526020018960200151815250896133aa565b6040517f70a0823100000000000000000000000000000000000000000000000000000000815230600482015260009073ffffffffffffffffffffffffffffffffffffffff8416906370a082319060240160206040518083038186803b15801561074057600080fd5b505afa158015610754573d6000803e3d6000fd5b505050506040513d601f19601f820116820180604052508101906107789190613787565b905061079b73ffffffffffffffffffffffffffffffffffffffff8416858361318c565b600554610827576040517f41441d3b0000000000000000000000000000000000000000000000000000000081526004810182905273ffffffffffffffffffffffffffffffffffffffff8516906341441d3b90602401600060405180830381600087803b15801561080a57600080fd5b505af115801561081e573d6000803e3d6000fd5b505050506108b3565b6005546040517fe2bbb15800000000000000000000000000000000000000000000000000000000815260048101919091526024810182905273ffffffffffffffffffffffffffffffffffffffff85169063e2bbb15890604401600060405180830381600087803b15801561089a57600080fd5b505af11580156108ae573d6000803e3d6000fd5b505050505b505050505050505050565b6040517f6b880718000000000000000000000000000000000000000000000000000000008152306004820152600090819073__$0fb85c1a108326fe5c0d8f2f5a241bc0e7$__90636b8807189060240160206040518083038186803b15801561092657600080fd5b505af415801561093a573d6000803e3d6000fd5b505050506040513d601f19601f8201168201806040525081019061095e919061354e565b905073ffffffffffffffffffffffffffffffffffffffff811630141561099c57505060005473ffffffffffffffffffffffffffffffffffffffff1690565b8073ffffffffffffffffffffffffffffffffffffffff1663370158ea6040518163ffffffff1660e01b815260040160206040518083038186803b1580156109e257600080fd5b505afa1580156109f6573d6000803e3d6000fd5b505050506040513d601f19601f82011682018060405250810190610a1a919061354e565b91505090565b6040517f6b88071800000000000000000000000000000000000000000000000000000000815230600482018190529073__$0fb85c1a108326fe5c0d8f2f5a241bc0e7$__90636b8807189060240160206040518083038186803b158015610a8657600080fd5b505af4158015610a9a573d6000803e3d6000fd5b505050506040513d601f19601f82011682018060405250810190610abe919061354e565b73ffffffffffffffffffffffffffffffffffffffff161415610c73576000610ae46108be565b6040517f21f8a7210000000000000000000000000000000000000000000000000000000081527f689d13d8ed8ef1027633ba26e7121121cf427434450a529548f19bf175974395600482015273ffffffffffffffffffffffffffffffffffffffff91909116906321f8a7219060240160206040518083038186803b158015610b6b57600080fd5b505afa158015610b7f573d6000803e3d6000fd5b505050506040513d601f19601f82011682018060405250810190610ba3919061354e565b60015490915073ffffffffffffffffffffffffffffffffffffffff16331480610be157503373ffffffffffffffffffffffffffffffffffffffff8216145b610c6d576040517f08c379a000000000000000000000000000000000000000000000000000000000815260206004820152602260248201527f4175746f6d6174653a2063616c6c6572206973206e6f7420746865207061757360448201527f657200000000000000000000000000000000000000000000000000000000000060648201526084016104c1565b50610d1a565b60015473ffffffffffffffffffffffffffffffffffffffff163314610d1a576040517f08c379a000000000000000000000000000000000000000000000000000000000815260206004820152602260248201527f4175746f6d6174653a2063616c6c6572206973206e6f7420746865207061757360448201527f657200000000000000000000000000000000000000000000000000000000000060648201526084016104c1565b610d22611317565b610d88576040517f08c379a000000000000000000000000000000000000000000000000000000000815260206004820152601460248201527f4175746f6d6174653a206e6f742070617573656400000000000000000000000060448201526064016104c1565b600180547fffffffffffffffffffffff00ffffffffffffffffffffffffffffffffffffffff169055565b60015473ffffffffffffffffffffffffffffffffffffffff163314610e59576040517f08c379a000000000000000000000000000000000000000000000000000000000815260206004820152602160248201527f4175746f6d6174653a2063616c6c6572206973206e6f7420746865206f776e6560448201527f720000000000000000000000000000000000000000000000000000000000000060648201526084016104c1565b60035473ffffffffffffffffffffffffffffffffffffffff610100909104166000610e9960015473ffffffffffffffffffffffffffffffffffffffff1690565b6005546040517f93f1a40b000000000000000000000000000000000000000000000000000000008152600481019190915230602482015290915060009073ffffffffffffffffffffffffffffffffffffffff8416906393f1a40b90604401604080518083038186803b158015610f0e57600080fd5b505afa158015610f22573d6000803e3d6000fd5b505050506040513d601f19601f82011682018060405250810190610f469190613755565b905060055460001415610fdb5780516040517f1058d281000000000000000000000000000000000000000000000000000000008152600481019190915273ffffffffffffffffffffffffffffffffffffffff841690631058d28190602401600060405180830381600087803b158015610fbe57600080fd5b505af1158015610fd2573d6000803e3d6000fd5b5050505061106c565b60055481516040517f441a3e7000000000000000000000000000000000000000000000000000000000815273ffffffffffffffffffffffffffffffffffffffff86169263441a3e709261103992600401918252602082015260400190565b600060405180830381600087803b15801561105357600080fd5b505af1158015611067573d6000803e3d6000fd5b505050505b6006546040517f70a0823100000000000000000000000000000000000000000000000000000000815230600482015264010000000090910473ffffffffffffffffffffffffffffffffffffffff169063a9059cbb90849083906370a082319060240160206040518083038186803b1580156110e657600080fd5b505afa1580156110fa573d6000803e3d6000fd5b505050506040513d601f19601f8201168201806040525081019061111e9190613787565b6040517fffffffff0000000000000000000000000000000000000000000000000000000060e085901b16815273ffffffffffffffffffffffffffffffffffffffff90921660048301526024820152604401602060405180830381600087803b15801561118957600080fd5b505af115801561119d573d6000803e3d6000fd5b505050506040513d601f19601f820116820180604052508101906111c191906136ab565b506007546040517f70a0823100000000000000000000000000000000000000000000000000000000815230600482015273ffffffffffffffffffffffffffffffffffffffff9091169063a9059cbb90849083906370a082319060240160206040518083038186803b15801561123557600080fd5b505afa158015611249573d6000803e3d6000fd5b505050506040513d601f19601f8201168201806040525081019061126d9190613787565b6040517fffffffff0000000000000000000000000000000000000000000000000000000060e085901b16815273ffffffffffffffffffffffffffffffffffffffff909216600483015260248201526044015b602060405180830381600087803b1580156112d957600080fd5b505af11580156112ed573d6000803e3d6000fd5b505050506040513d601f19601f8201168201806040525081019061131191906136ab565b50505050565b6040517f6b880718000000000000000000000000000000000000000000000000000000008152306004820152600090819073__$0fb85c1a108326fe5c0d8f2f5a241bc0e7$__90636b8807189060240160206040518083038186803b15801561137f57600080fd5b505af4158015611393573d6000803e3d6000fd5b505050506040513d601f19601f820116820180604052508101906113b7919061354e565b905073ffffffffffffffffffffffffffffffffffffffff81163014156113fa57505060015474010000000000000000000000000000000000000000900460ff1690565b60015474010000000000000000000000000000000000000000900460ff1680610a1a57508073ffffffffffffffffffffffffffffffffffffffff16635c975abb6040518163ffffffff1660e01b815260040160206040518083038186803b15801561146457600080fd5b505afa158015611478573d6000803e3d6000fd5b505050506040513d601f19601f82011682018060405250810190610a1a91906136ab565b6040517f6b88071800000000000000000000000000000000000000000000000000000000815230600482018190529073__$0fb85c1a108326fe5c0d8f2f5a241bc0e7$__90636b8807189060240160206040518083038186803b15801561150257600080fd5b505af4158015611516573d6000803e3d6000fd5b505050506040513d601f19601f8201168201806040525081019061153a919061354e565b73ffffffffffffffffffffffffffffffffffffffff1614156116ef5760006115606108be565b6040517f21f8a7210000000000000000000000000000000000000000000000000000000081527f689d13d8ed8ef1027633ba26e7121121cf427434450a529548f19bf175974395600482015273ffffffffffffffffffffffffffffffffffffffff91909116906321f8a7219060240160206040518083038186803b1580156115e757600080fd5b505afa1580156115fb573d6000803e3d6000fd5b505050506040513d601f19601f8201168201806040525081019061161f919061354e565b60015490915073ffffffffffffffffffffffffffffffffffffffff1633148061165d57503373ffffffffffffffffffffffffffffffffffffffff8216145b6116e9576040517f08c379a000000000000000000000000000000000000000000000000000000000815260206004820152602260248201527f4175746f6d6174653a2063616c6c6572206973206e6f7420746865207061757360448201527f657200000000000000000000000000000000000000000000000000000000000060648201526084016104c1565b50611796565b60015473ffffffffffffffffffffffffffffffffffffffff163314611796576040517f08c379a000000000000000000000000000000000000000000000000000000000815260206004820152602260248201527f4175746f6d6174653a2063616c6c6572206973206e6f7420746865207061757360448201527f657200000000000000000000000000000000000000000000000000000000000060648201526084016104c1565b61179e611317565b15611805576040517f08c379a000000000000000000000000000000000000000000000000000000000815260206004820152601060248201527f4175746f6d6174653a207061757365640000000000000000000000000000000060448201526064016104c1565b600180547fffffffffffffffffffffff00ffffffffffffffffffffffffffffffffffffffff1674010000000000000000000000000000000000000000179055565b6040517f6b88071800000000000000000000000000000000000000000000000000000000815230600482015260009073__$0fb85c1a108326fe5c0d8f2f5a241bc0e7$__90636b8807189060240160206040518083038186803b1580156118ac57600080fd5b505af41580156118c0573d6000803e3d6000fd5b505050506040513d601f19601f820116820180604052508101906118e4919061354e565b90503373ffffffffffffffffffffffffffffffffffffffff82163014611987578173ffffffffffffffffffffffffffffffffffffffff16638da5cb5b6040518163ffffffff1660e01b815260040160206040518083038186803b15801561194a57600080fd5b505afa15801561195e573d6000803e3d6000fd5b505050506040513d601f19601f82011682018060405250810190611982919061354e565b6119a1565b60015473ffffffffffffffffffffffffffffffffffffffff165b73ffffffffffffffffffffffffffffffffffffffff1614611a44576040517f08c379a000000000000000000000000000000000000000000000000000000000815260206004820152603d60248201527f4175746f6d6174653a3a6368616e676550726f746f636f6c4665653a2063616c60448201527f6c6572206973206e6f74207468652070726f746f636f6c206f776e657200000060648201526084016104c1565b60028290556040518281527f3c1d43943224e49d951ce8295a5c8332b517083b3f89bed50feae2cb39caebb59060200160405180910390a15050565b6040517f6b880718000000000000000000000000000000000000000000000000000000008152306004820152600090819073__$0fb85c1a108326fe5c0d8f2f5a241bc0e7$__90636b8807189060240160206040518083038186803b158015611ae857600080fd5b505af4158015611afc573d6000803e3d6000fd5b505050506040513d601f19601f82011682018060405250810190611b20919061354e565b905073ffffffffffffffffffffffffffffffffffffffff81163014801590611b4a57506000600254125b15611bcd578073ffffffffffffffffffffffffffffffffffffffff1663b0e21e8a6040518163ffffffff1660e01b815260040160206040518083038186803b158015611b9557600080fd5b505afa158015611ba9573d6000803e3d6000fd5b505050506040513d601f19601f82011682018060405250810190610a1a9190613787565b6000611bd76108be565b905060008060025412611bec57600254611ca9565b6040517fbd02d0f50000000000000000000000000000000000000000000000000000000081527fa93d95f96a5de25d7a41ddf1f5e8d45cfc929c4838163cf011dab4043a4a40d5600482015273ffffffffffffffffffffffffffffffffffffffff83169063bd02d0f59060240160206040518083038186803b158015611c7157600080fd5b505afa158015611c85573d6000803e3d6000fd5b505050506040513d601f19601f82011682018060405250810190611ca99190613787565b905080611cba576000935050505090565b6040517f21f8a7210000000000000000000000000000000000000000000000000000000081527f65c90423fe7c880476633a7e36521740f87199d233dc56eb4ca6643eb76f605f600482015260009073ffffffffffffffffffffffffffffffffffffffff8416906321f8a7219060240160206040518083038186803b158015611d4257600080fd5b505afa158015611d56573d6000803e3d6000fd5b505050506040513d601f19601f82011682018060405250810190611d7a919061354e565b73ffffffffffffffffffffffffffffffffffffffff1663feaf968c6040518163ffffffff1660e01b815260040160a06040518083038186803b158015611dbf57600080fd5b505afa158015611dd3573d6000803e3d6000fd5b505050506040513d601f19601f82011682018060405250810190611df79190613891565b50505091505060008113611e67576040517f08c379a000000000000000000000000000000000000000000000000000000000815260206004820152601760248201527f4175746f6d6174653a20696e76616c696420707269636500000000000000000060448201526064016104c1565b80611e7a83670de0b6b3a7640000613ad6565b611e849190613a9b565b94505050505090565b60015473ffffffffffffffffffffffffffffffffffffffff16611efd57600180547fffffffffffffffffffffffff000000000000000000000000000000000000000016321790557fffffffffffffffffffffffffffffffffffffffffffffffffffffffffffffffff600255611fa4565b60015473ffffffffffffffffffffffffffffffffffffffff163314611fa4576040517f08c379a000000000000000000000000000000000000000000000000000000000815260206004820152602160248201527f4175746f6d6174653a2063616c6c6572206973206e6f7420746865206f776e6560448201527f720000000000000000000000000000000000000000000000000000000000000060648201526084016104c1565b60035460ff161580611fd5575060035473ffffffffffffffffffffffffffffffffffffffff86811661010090920416145b612087576040517f08c379a000000000000000000000000000000000000000000000000000000000815260206004820152604560248201527f4d61737465724368656653696e676c6552657374616b653a3a696e69743a207260448201527f65696e697469616c697a65207374616b696e67206164647265737320666f726260648201527f696464656e000000000000000000000000000000000000000000000000000000608482015260a4016104c1565b6003805473ffffffffffffffffffffffffffffffffffffffff8716610100027fffffffffffffffffffffff0000000000000000000000000000000000000000ff8216811790925560ff91821691161715806120fc575060045473ffffffffffffffffffffffffffffffffffffffff8581169116145b6121ae576040517f08c379a000000000000000000000000000000000000000000000000000000000815260206004820152604e60248201527f4d61737465724368656653696e676c6552657374616b653a3a696e69743a207260448201527f65696e697469616c697a65206c697175696469747920726f757465722061646460648201527f7265737320666f7262696464656e000000000000000000000000000000000000608482015260a4016104c1565b600480547fffffffffffffffffffffffff00000000000000000000000000000000000000001673ffffffffffffffffffffffffffffffffffffffff861617905560035460ff161580612201575082600554145b61228f57604080517f08c379a00000000000000000000000000000000000000000000000000000000081526020600482015260248101919091527f4d61737465724368656653696e676c6552657374616b653a3a696e69743a207260448201527f65696e697469616c697a6520706f6f6c20696e64657820666f7262696464656e60648201526084016104c1565b60058390556006805461ffff83811662010000027fffffffffffffffffffffffffffffffffffffffffffffffffffffffff000000009092169085161717905560035460ff166124ac576003546005546040517f1526fe270000000000000000000000000000000000000000000000000000000081526004810191909152600091610100900473ffffffffffffffffffffffffffffffffffffffff1690631526fe279060240160806040518083038186803b15801561234c57600080fd5b505afa158015612360573d6000803e3d6000fd5b505050506040513d601f19601f8201168201806040525081019061238491906136e6565b8051600680547fffffffffffffffff0000000000000000000000000000000000000000ffffffff1664010000000073ffffffffffffffffffffffffffffffffffffffff93841602179055600354604080517fdce1748400000000000000000000000000000000000000000000000000000000815290519394506101009091049091169163dce1748491600480820192602092909190829003018186803b15801561242d57600080fd5b505afa158015612441573d6000803e3d6000fd5b505050506040513d601f19601f82011682018060405250810190612465919061354e565b600780547fffffffffffffffffffffffff00000000000000000000000000000000000000001673ffffffffffffffffffffffffffffffffffffffff92909216919091179055505b5050600380547fffffffffffffffffffffffffffffffffffffffffffffffffffffffffffffff00166001179055505050565b60015473ffffffffffffffffffffffffffffffffffffffff163314612585576040517f08c379a000000000000000000000000000000000000000000000000000000000815260206004820152602160248201527f4175746f6d6174653a2063616c6c6572206973206e6f7420746865206f776e6560448201527f720000000000000000000000000000000000000000000000000000000000000060648201526084016104c1565b6040517fa9059cbb00000000000000000000000000000000000000000000000000000000815273ffffffffffffffffffffffffffffffffffffffff83811660048301526024820183905284169063a9059cbb906044016112bf565b60015473ffffffffffffffffffffffffffffffffffffffff163314612687576040517f08c379a000000000000000000000000000000000000000000000000000000000815260206004820152602160248201527f4175746f6d6174653a2063616c6c6572206973206e6f7420746865206f776e6560448201527f720000000000000000000000000000000000000000000000000000000000000060648201526084016104c1565b6006546040517f70a0823100000000000000000000000000000000000000000000000000000000815230600482015264010000000090910473ffffffffffffffffffffffffffffffffffffffff169060009082906370a082319060240160206040518083038186803b1580156126fc57600080fd5b505afa158015612710573d6000803e3d6000fd5b505050506040513d601f19601f820116820180604052508101906127349190613787565b6003549091506127639073ffffffffffffffffffffffffffffffffffffffff848116916101009004168361318c565b6005546127f7576003546040517f41441d3b0000000000000000000000000000000000000000000000000000000081526004810183905261010090910473ffffffffffffffffffffffffffffffffffffffff16906341441d3b906024015b600060405180830381600087803b1580156127db57600080fd5b505af11580156127ef573d6000803e3d6000fd5b505050505050565b6003546005546040517fe2bbb15800000000000000000000000000000000000000000000000000000000815260048101919091526024810183905261010090910473ffffffffffffffffffffffffffffffffffffffff169063e2bbb158906044016127c1565b5050565b60015473ffffffffffffffffffffffffffffffffffffffff163314612908576040517f08c379a000000000000000000000000000000000000000000000000000000000815260206004820152602160248201527f4175746f6d6174653a2063616c6c6572206973206e6f7420746865206f776e6560448201527f720000000000000000000000000000000000000000000000000000000000000060648201526084016104c1565b600061292960015473ffffffffffffffffffffffffffffffffffffffff1690565b6003546005546040517f5312ea8e0000000000000000000000000000000000000000000000000000000081526004810191909152919250610100900473ffffffffffffffffffffffffffffffffffffffff1690635312ea8e90602401600060405180830381600087803b15801561299f57600080fd5b505af11580156129b3573d6000803e3d6000fd5b50506006546040517f70a0823100000000000000000000000000000000000000000000000000000000815230600482015264010000000090910473ffffffffffffffffffffffffffffffffffffffff16925063a9059cbb9150839083906370a082319060240160206040518083038186803b158015612a3157600080fd5b505afa158015612a45573d6000803e3d6000fd5b505050506040513d601f19601f82011682018060405250810190612a699190613787565b6040517fffffffff0000000000000000000000000000000000000000000000000000000060e085901b16815273ffffffffffffffffffffffffffffffffffffffff90921660048301526024820152604401602060405180830381600087803b158015612ad457600080fd5b505af1158015612ae8573d6000803e3d6000fd5b505050506040513d601f19601f82011682018060405250810190612b0c91906136ab565b506007546040517f70a0823100000000000000000000000000000000000000000000000000000000815230600482015273ffffffffffffffffffffffffffffffffffffffff9091169063a9059cbb90839083906370a082319060240160206040518083038186803b158015612b8057600080fd5b505afa158015612b94573d6000803e3d6000fd5b505050506040513d601f19601f82011682018060405250810190612bb89190613787565b6040517fffffffff0000000000000000000000000000000000000000000000000000000060e085901b16815273ffffffffffffffffffffffffffffffffffffffff90921660048301526024820152604401602060405180830381600087803b158015612c2357600080fd5b505af1158015612c37573d6000803e3d6000fd5b505050506040513d601f19601f8201168201806040525081019061285d91906136ab565b60015473ffffffffffffffffffffffffffffffffffffffff163314612d02576040517f08c379a000000000000000000000000000000000000000000000000000000000815260206004820152602160248201527f4175746f6d6174653a2063616c6c6572206973206e6f7420746865206f776e6560448201527f720000000000000000000000000000000000000000000000000000000000000060648201526084016104c1565b6040517f6b88071800000000000000000000000000000000000000000000000000000000815230600482018190529073__$0fb85c1a108326fe5c0d8f2f5a241bc0e7$__90636b8807189060240160206040518083038186803b158015612d6857600080fd5b505af4158015612d7c573d6000803e3d6000fd5b505050506040513d601f19601f82011682018060405250810190612da0919061354e565b73ffffffffffffffffffffffffffffffffffffffff1614612e43576040517f08c379a000000000000000000000000000000000000000000000000000000000815260206004820152602160248201527f4175746f6d6174653a206368616e676520746865206f776e6572206661696c6560448201527f640000000000000000000000000000000000000000000000000000000000000060648201526084016104c1565b6001805473ffffffffffffffffffffffffffffffffffffffff8381167fffffffffffffffffffffffff0000000000000000000000000000000000000000831681179093556040519116919082907f8be0079c531659141344cd1fd0a4f28419497f9722a3daafe3b4186f6b6457e090600090a35050565b6000612ec4611317565b15612f2b576040517f08c379a000000000000000000000000000000000000000000000000000000000815260206004820152601060248201527f4175746f6d6174653a207061757365640000000000000000000000000000000060448201526064016104c1565b6000612f4c60015473ffffffffffffffffffffffffffffffffffffffff1690565b90503273ffffffffffffffffffffffffffffffffffffffff82161415612f76576000915050613186565b6000612f806108be565b6040517f21f8a7210000000000000000000000000000000000000000000000000000000081527fe78c16c6d839536d3155985aab4e9c6013c8c3d446054bcebc48612f359d81f5600482015290915060009073ffffffffffffffffffffffffffffffffffffffff8316906321f8a7219060240160206040518083038186803b15801561300b57600080fd5b505afa15801561301f573d6000803e3d6000fd5b505050506040513d601f19601f82011682018060405250810190613043919061354e565b905073ffffffffffffffffffffffffffffffffffffffff81166130e8576040517f08c379a000000000000000000000000000000000000000000000000000000000815260206004820152602b60248201527f4175746f6d6174653a3a5f62696c6c3a2062616c616e636520636f6e7472616360448201527f74206e6f7420666f756e6400000000000000000000000000000000000000000060648201526084016104c1565b8073ffffffffffffffffffffffffffffffffffffffff1663e578a225848861310e611a80565b896040518563ffffffff1660e01b815260040161312e94939291906138d5565b602060405180830381600087803b15801561314857600080fd5b505af115801561315c573d6000803e3d6000fd5b505050506040513d601f19601f820116820180604052508101906131809190613787565b93505050505b92915050565b6040517fdd62ed3e00000000000000000000000000000000000000000000000000000000815230600482015273ffffffffffffffffffffffffffffffffffffffff83811660248301526000919085169063dd62ed3e9060440160206040518083038186803b1580156131fd57600080fd5b505afa158015613211573d6000803e3d6000fd5b505050506040513d601f19601f820116820180604052508101906132359190613787565b9050801580159061324557508181105b156132f4576040517f095ea7b300000000000000000000000000000000000000000000000000000000815273ffffffffffffffffffffffffffffffffffffffff84811660048301526000602483015285169063095ea7b390604401602060405180830381600087803b1580156132ba57600080fd5b505af11580156132ce573d6000803e3d6000fd5b505050506040513d601f19601f820116820180604052508101906132f291906136ab565b505b818114611311576040517f095ea7b300000000000000000000000000000000000000000000000000000000815273ffffffffffffffffffffffffffffffffffffffff84811660048301526024820184905285169063095ea7b390604401602060405180830381600087803b15801561336b57600080fd5b505af115801561337f573d6000803e3d6000fd5b505050506040513d601f19601f820116820180604052508101906133a391906136ab565b5050505050565b82600184516133b99190613b13565b815181106133c9576133c9613b59565b602002602001015173ffffffffffffffffffffffffffffffffffffffff16836000815181106133fa576133fa613b59565b602002602001015173ffffffffffffffffffffffffffffffffffffffff16141561342357505050565b60048054835160208501516040517f38ed173900000000000000000000000000000000000000000000000000000000815273ffffffffffffffffffffffffffffffffffffffff909316936338ed17399361348593929189913091899101613974565b600060405180830381600087803b15801561349f57600080fd5b505af11580156134b3573d6000803e3d6000fd5b505050506040513d6000823e601f3d9081017fffffffffffffffffffffffffffffffffffffffffffffffffffffffffffffffe0168201604052611311919081019061360e565b803561ffff8116811461350b57600080fd5b919050565b805169ffffffffffffffffffff8116811461350b57600080fd5b60006020828403121561353c57600080fd5b813561354781613bb7565b9392505050565b60006020828403121561356057600080fd5b815161354781613bb7565b60008060006060848603121561358057600080fd5b833561358b81613bb7565b9250602084013561359b81613bb7565b929592945050506040919091013590565b600080600080600060a086880312156135c457600080fd5b85356135cf81613bb7565b945060208601356135df81613bb7565b9350604086013592506135f4606087016134f9565b9150613602608087016134f9565b90509295509295909350565b6000602080838503121561362157600080fd5b825167ffffffffffffffff81111561363857600080fd5b8301601f8101851361364957600080fd5b805161365c61365782613a77565b613a28565b80828252848201915084840188868560051b870101111561367c57600080fd5b600094505b8385101561369f578051835260019490940193918501918501613681565b50979650505050505050565b6000602082840312156136bd57600080fd5b8151801515811461354757600080fd5b6000602082840312156136df57600080fd5b5035919050565b6000608082840312156136f857600080fd5b6040516080810181811067ffffffffffffffff8211171561371b5761371b613b88565b604052825161372981613bb7565b808252506020830151602082015260408301516040820152606083015160608201528091505092915050565b60006040828403121561376757600080fd5b61376f6139ff565b82518152602083015160208201528091505092915050565b60006020828403121561379957600080fd5b5051919050565b6000806000606084860312156137b557600080fd5b833592506020808501359250604085013567ffffffffffffffff808211156137dc57600080fd5b90860190604082890312156137f057600080fd5b6137f86139ff565b82358281111561380757600080fd5b83019150601f8201891361381a57600080fd5b813561382861365782613a77565b8082825286820191508685018c888560051b880101111561384857600080fd5b600095505b8386101561387457803561386081613bb7565b83526001959095019491870191870161384d565b508084525050508383013584820152809450505050509250925092565b600080600080600060a086880312156138a957600080fd5b6138b286613510565b945060208601519350604086015192506060860151915061360260808701613510565b73ffffffffffffffffffffffffffffffffffffffff8516815260006020858184015284604084015260806060840152835180608085015260005b8181101561392b5785810183015185820160a00152820161390f565b8181111561393d57600060a083870101525b50601f017fffffffffffffffffffffffffffffffffffffffffffffffffffffffffffffffe0169290920160a0019695505050505050565b600060a082018783526020878185015260a0604085015281875180845260c086019150828901935060005b818110156139d157845173ffffffffffffffffffffffffffffffffffffffff168352938301939183019160010161399f565b505073ffffffffffffffffffffffffffffffffffffffff969096166060850152505050608001529392505050565b6040805190810167ffffffffffffffff81118282101715613a2257613a22613b88565b60405290565b604051601f82017fffffffffffffffffffffffffffffffffffffffffffffffffffffffffffffffe016810167ffffffffffffffff81118282101715613a6f57613a6f613b88565b604052919050565b600067ffffffffffffffff821115613a9157613a91613b88565b5060051b60200190565b600082613ad1577f4e487b7100000000000000000000000000000000000000000000000000000000600052601260045260246000fd5b500490565b6000817fffffffffffffffffffffffffffffffffffffffffffffffffffffffffffffffff0483118215151615613b0e57613b0e613b2a565b500290565b600082821015613b2557613b25613b2a565b500390565b7f4e487b7100000000000000000000000000000000000000000000000000000000600052601160045260246000fd5b7f4e487b7100000000000000000000000000000000000000000000000000000000600052603260045260246000fd5b7f4e487b7100000000000000000000000000000000000000000000000000000000600052604160045260246000fd5b73ffffffffffffffffffffffffffffffffffffffff81168114613bd957600080fd5b5056fe427363417065537761704d61737465724368656653696e676c6552657374616b65a164736f6c6343000806000a",
  "linkReferences": {
    "contracts/utils/DFH/proxy/ERC1167.sol": {
      "ERC1167": [
        {
          "length": 20,
          "start": 2460
        },
        {
          "length": 20,
          "start": 2812
        },
        {
          "length": 20,
          "start": 5109
        },
        {
          "length": 20,
          "start": 5496
        },
        {
          "length": 20,
          "start": 6434
        },
        {
          "length": 20,
          "start": 7006
        },
        {
          "length": 20,
          "start": 11742
        }
      ]
    }
  },
  "deployedLinkReferences": {
    "contracts/utils/DFH/proxy/ERC1167.sol": {
      "ERC1167": [
        {
          "length": 20,
          "start": 2289
        },
        {
          "length": 20,
          "start": 2641
        },
        {
          "length": 20,
          "start": 4938
        },
        {
          "length": 20,
          "start": 5325
        },
        {
          "length": 20,
          "start": 6263
        },
        {
          "length": 20,
          "start": 6835
        },
        {
          "length": 20,
          "start": 11571
        }
      ]
    }
  }
}