{
  "_format": "hh-sol-artifact-1",
  "contractName": "MasterChef2LpRestake",
  "sourceName": "contracts/MasterChef2LpRestake.automate.sol",
  "abi": [
    {
      "inputs": [
        {
          "internalType": "address",
          "name": "_info",
          "type": "address"
        }
      ],
      "stateMutability": "nonpayable",
      "type": "constructor"
    },
    {
      "anonymous": false,
      "inputs": [
        {
          "indexed": true,
          "internalType": "address",
          "name": "previousOwner",
          "type": "address"
        },
        {
          "indexed": true,
          "internalType": "address",
          "name": "newOwner",
          "type": "address"
        }
      ],
      "name": "OwnershipTransferred",
      "type": "event"
    },
    {
      "anonymous": false,
      "inputs": [
        {
          "indexed": false,
          "internalType": "int256",
          "name": "protocolFee",
          "type": "int256"
        }
      ],
      "name": "ProtocolFeeChanged",
      "type": "event"
    },
    {
      "inputs": [
        {
          "internalType": "int256",
          "name": "__protocolFee",
          "type": "int256"
        }
      ],
      "name": "changeProtocolFee",
      "outputs": [],
      "stateMutability": "nonpayable",
      "type": "function"
    },
    {
      "inputs": [],
      "name": "deadline",
      "outputs": [
        {
          "internalType": "uint16",
          "name": "",
          "type": "uint16"
        }
      ],
      "stateMutability": "view",
      "type": "function"
    },
    {
      "inputs": [],
      "name": "deposit",
      "outputs": [],
      "stateMutability": "nonpayable",
      "type": "function"
    },
    {
      "inputs": [],
      "name": "emergencyWithdraw",
      "outputs": [],
      "stateMutability": "nonpayable",
      "type": "function"
    },
    {
      "inputs": [],
      "name": "info",
      "outputs": [
        {
          "internalType": "address",
          "name": "",
          "type": "address"
        }
      ],
      "stateMutability": "view",
      "type": "function"
    },
    {
      "inputs": [
        {
          "internalType": "address",
          "name": "_staking",
          "type": "address"
        },
        {
          "internalType": "address",
          "name": "_liquidityRouter",
          "type": "address"
        },
        {
          "internalType": "uint256",
          "name": "_pool",
          "type": "uint256"
        },
        {
          "internalType": "uint16",
          "name": "_slippage",
          "type": "uint16"
        },
        {
          "internalType": "uint16",
          "name": "_deadline",
          "type": "uint16"
        }
      ],
      "name": "init",
      "outputs": [],
      "stateMutability": "nonpayable",
      "type": "function"
    },
    {
      "inputs": [],
      "name": "liquidityRouter",
      "outputs": [
        {
          "internalType": "address",
          "name": "",
          "type": "address"
        }
      ],
      "stateMutability": "view",
      "type": "function"
    },
    {
      "inputs": [],
      "name": "owner",
      "outputs": [
        {
          "internalType": "address",
          "name": "",
          "type": "address"
        }
      ],
      "stateMutability": "view",
      "type": "function"
    },
    {
      "inputs": [],
      "name": "pause",
      "outputs": [],
      "stateMutability": "nonpayable",
      "type": "function"
    },
    {
      "inputs": [],
      "name": "paused",
      "outputs": [
        {
          "internalType": "bool",
          "name": "",
          "type": "bool"
        }
      ],
      "stateMutability": "view",
      "type": "function"
    },
    {
      "inputs": [],
      "name": "pool",
      "outputs": [
        {
          "internalType": "uint256",
          "name": "",
          "type": "uint256"
        }
      ],
      "stateMutability": "view",
      "type": "function"
    },
    {
      "inputs": [],
      "name": "protocolFee",
      "outputs": [
        {
          "internalType": "uint256",
          "name": "",
          "type": "uint256"
        }
      ],
      "stateMutability": "view",
      "type": "function"
    },
    {
      "inputs": [],
      "name": "refund",
      "outputs": [],
      "stateMutability": "nonpayable",
      "type": "function"
    },
    {
      "inputs": [],
      "name": "rewardToken",
      "outputs": [
        {
          "internalType": "contract IERC20",
          "name": "",
          "type": "address"
        }
      ],
      "stateMutability": "view",
      "type": "function"
    },
    {
      "inputs": [
        {
          "internalType": "uint256",
          "name": "gasFee",
          "type": "uint256"
        },
        {
          "internalType": "uint256",
          "name": "_deadline",
          "type": "uint256"
        },
        {
          "components": [
            {
              "internalType": "address[]",
              "name": "path",
              "type": "address[]"
            },
            {
              "internalType": "uint256",
              "name": "outMin",
              "type": "uint256"
            }
          ],
          "internalType": "struct MasterChef2LpRestake.Swap",
          "name": "swap0",
          "type": "tuple"
        },
        {
          "components": [
            {
              "internalType": "address[]",
              "name": "path",
              "type": "address[]"
            },
            {
              "internalType": "uint256",
              "name": "outMin",
              "type": "uint256"
            }
          ],
          "internalType": "struct MasterChef2LpRestake.Swap",
          "name": "swap1",
          "type": "tuple"
        }
      ],
      "name": "run",
      "outputs": [],
      "stateMutability": "nonpayable",
      "type": "function"
    },
    {
      "inputs": [
        {
          "internalType": "uint256",
          "name": "gasFee",
          "type": "uint256"
        },
        {
          "internalType": "uint256",
          "name": "_deadline",
          "type": "uint256"
        }
      ],
      "name": "runStopLoss",
      "outputs": [],
      "stateMutability": "nonpayable",
      "type": "function"
    },
    {
      "inputs": [
        {
          "internalType": "address[]",
          "name": "path",
          "type": "address[]"
        },
        {
          "internalType": "uint256",
          "name": "amountOut",
          "type": "uint256"
        },
        {
          "internalType": "uint256",
          "name": "amountOutMin",
          "type": "uint256"
        }
      ],
      "name": "setStopLoss",
      "outputs": [],
      "stateMutability": "nonpayable",
      "type": "function"
    },
    {
      "inputs": [],
      "name": "slippage",
      "outputs": [
        {
          "internalType": "uint16",
          "name": "",
          "type": "uint16"
        }
      ],
      "stateMutability": "view",
      "type": "function"
    },
    {
      "inputs": [],
      "name": "staking",
      "outputs": [
        {
          "internalType": "contract IMasterChef2",
          "name": "",
          "type": "address"
        }
      ],
      "stateMutability": "view",
      "type": "function"
    },
    {
      "inputs": [],
      "name": "stakingToken",
      "outputs": [
        {
          "internalType": "contract IERC20",
          "name": "",
          "type": "address"
        }
      ],
      "stateMutability": "view",
      "type": "function"
    },
    {
      "inputs": [],
      "name": "stopLoss",
      "outputs": [
        {
          "internalType": "uint256",
          "name": "amountOut",
          "type": "uint256"
        },
        {
          "internalType": "uint256",
          "name": "amountOutMin",
          "type": "uint256"
        }
      ],
      "stateMutability": "view",
      "type": "function"
    },
    {
      "inputs": [
        {
          "internalType": "address",
          "name": "token",
          "type": "address"
        },
        {
          "internalType": "address",
          "name": "recipient",
          "type": "address"
        },
        {
          "internalType": "uint256",
          "name": "amount",
          "type": "uint256"
        }
      ],
      "name": "transfer",
      "outputs": [],
      "stateMutability": "nonpayable",
      "type": "function"
    },
    {
      "inputs": [
        {
          "internalType": "address",
          "name": "newOwner",
          "type": "address"
        }
      ],
      "name": "transferOwnership",
      "outputs": [],
      "stateMutability": "nonpayable",
      "type": "function"
    },
    {
      "inputs": [],
      "name": "unpause",
      "outputs": [],
      "stateMutability": "nonpayable",
      "type": "function"
    }
  ],
  "bytecode": "0x60806040523480156200001157600080fd5b50604051620050c1380380620050c1833981016040819052620000349162000069565b600080546001600160a01b039092166001600160a01b031992831617905560018054909116321790556000196002556200009b565b6000602082840312156200007c57600080fd5b81516001600160a01b03811681146200009457600080fd5b9392505050565b61501680620000ab6000396000f3fe608060405234801561001057600080fd5b50600436106101985760003560e01c806388591b27116100e3578063b838d9141161008c578063db2e21bc11610066578063db2e21bc1461037d578063f2fde38b14610385578063f7c618c11461039857600080fd5b8063b838d9141461034f578063beabacc814610362578063d0e30db01461037557600080fd5b80639327d80a116100bd5780639327d80a146103215780639742b5c314610334578063b0e21e8a1461034757600080fd5b806388591b27146102dd5780638c3d8faf146102f05780638da5cb5b1461030357600080fd5b80634cf088d9116101455780635c975abb1161011f5780635c975abb1461029557806372f702f3146102ad5780638456cb59146102d557600080fd5b80634cf088d91461024a578063527a15651461026a578063590e1ae31461028d57600080fd5b8063370158ea11610176578063370158ea1461022a5780633e032a3b146102325780633f4ba83a1461024057600080fd5b806316f0115b1461019d57806324702944146101b957806329dcb0cf14610203575b600080fd5b6101a660055481565b6040519081526020015b60405180910390f35b6003546101de90610100900473ffffffffffffffffffffffffffffffffffffffff1681565b60405173ffffffffffffffffffffffffffffffffffffffff90911681526020016101b0565b6006546102179062010000900461ffff1681565b60405161ffff90911681526020016101b0565b6101de6103b8565b6006546102179061ffff1681565b61024861051a565b005b6004546101de9073ffffffffffffffffffffffffffffffffffffffff1681565b600954600a54610278919082565b604080519283526020830191909152016101b0565b6102486108b1565b61029d610c71565b60405190151581526020016101b0565b6006546101de90640100000000900473ffffffffffffffffffffffffffffffffffffffff1681565b610248610df6565b6102486102eb366004614bbb565b6111a0565b6102486102fe3660046149b8565b6117a7565b60015473ffffffffffffffffffffffffffffffffffffffff166101de565b61024861032f366004614b75565b6118d1565b610248610342366004614af4565b611cda565b6101a6611f14565b61024861035d366004614956565b612321565b610248610370366004614915565b612964565b610248612ab9565b610248612cc5565b6102486103933660046148db565b612ed7565b6007546101de9073ffffffffffffffffffffffffffffffffffffffff1681565b6040517f6b880718000000000000000000000000000000000000000000000000000000008152306004820152600090819073__$0fb85c1a108326fe5c0d8f2f5a241bc0e7$__90636b8807189060240160206040518083038186803b15801561042057600080fd5b505af4158015610434573d6000803e3d6000fd5b505050506040513d601f19601f8201168201806040525081019061045891906148f8565b905073ffffffffffffffffffffffffffffffffffffffff811630141561049657505060005473ffffffffffffffffffffffffffffffffffffffff1690565b8073ffffffffffffffffffffffffffffffffffffffff1663370158ea6040518163ffffffff1660e01b815260040160206040518083038186803b1580156104dc57600080fd5b505afa1580156104f0573d6000803e3d6000fd5b505050506040513d601f19601f8201168201806040525081019061051491906148f8565b91505090565b6040517f6b88071800000000000000000000000000000000000000000000000000000000815230600482018190529073__$0fb85c1a108326fe5c0d8f2f5a241bc0e7$__90636b8807189060240160206040518083038186803b15801561058057600080fd5b505af4158015610594573d6000803e3d6000fd5b505050506040513d601f19601f820116820180604052508101906105b891906148f8565b73ffffffffffffffffffffffffffffffffffffffff1614156107725760006105de6103b8565b6040517f21f8a7210000000000000000000000000000000000000000000000000000000081527f689d13d8ed8ef1027633ba26e7121121cf427434450a529548f19bf175974395600482015273ffffffffffffffffffffffffffffffffffffffff91909116906321f8a7219060240160206040518083038186803b15801561066557600080fd5b505afa158015610679573d6000803e3d6000fd5b505050506040513d601f19601f8201168201806040525081019061069d91906148f8565b60015490915073ffffffffffffffffffffffffffffffffffffffff163314806106db57503373ffffffffffffffffffffffffffffffffffffffff8216145b61076c576040517f08c379a000000000000000000000000000000000000000000000000000000000815260206004820152602260248201527f4175746f6d6174653a2063616c6c6572206973206e6f7420746865207061757360448201527f657200000000000000000000000000000000000000000000000000000000000060648201526084015b60405180910390fd5b50610819565b60015473ffffffffffffffffffffffffffffffffffffffff163314610819576040517f08c379a000000000000000000000000000000000000000000000000000000000815260206004820152602260248201527f4175746f6d6174653a2063616c6c6572206973206e6f7420746865207061757360448201527f65720000000000000000000000000000000000000000000000000000000000006064820152608401610763565b610821610c71565b610887576040517f08c379a000000000000000000000000000000000000000000000000000000000815260206004820152601460248201527f4175746f6d6174653a206e6f74207061757365640000000000000000000000006044820152606401610763565b600180547fffffffffffffffffffffff00ffffffffffffffffffffffffffffffffffffffff169055565b60015473ffffffffffffffffffffffffffffffffffffffff163314610958576040517f08c379a000000000000000000000000000000000000000000000000000000000815260206004820152602160248201527f4175746f6d6174653a2063616c6c6572206973206e6f7420746865206f776e6560448201527f72000000000000000000000000000000000000000000000000000000000000006064820152608401610763565b60045473ffffffffffffffffffffffffffffffffffffffff16600061099260015473ffffffffffffffffffffffffffffffffffffffff1690565b6005546040517f93f1a40b000000000000000000000000000000000000000000000000000000008152600481019190915230602482015290915060009073ffffffffffffffffffffffffffffffffffffffff8416906393f1a40b90604401604080518083038186803b158015610a0757600080fd5b505afa158015610a1b573d6000803e3d6000fd5b505050506040513d601f19601f82011682018060405250810190610a3f9190614b0d565b60055481516040517f441a3e700000000000000000000000000000000000000000000000000000000081526004810192909252602482015290915073ffffffffffffffffffffffffffffffffffffffff84169063441a3e7090604401600060405180830381600087803b158015610ab557600080fd5b505af1158015610ac9573d6000803e3d6000fd5b50506006546040517f70a08231000000000000000000000000000000000000000000000000000000008152306004820152610ba4935085925064010000000090910473ffffffffffffffffffffffffffffffffffffffff16906370a08231906024015b60206040518083038186803b158015610b4457600080fd5b505afa158015610b58573d6000803e3d6000fd5b505050506040513d601f19601f82011682018060405250810190610b7c9190614b5c565b600654640100000000900473ffffffffffffffffffffffffffffffffffffffff169190613136565b6007546040517f70a08231000000000000000000000000000000000000000000000000000000008152306004820152610c6c91849173ffffffffffffffffffffffffffffffffffffffff909116906370a08231906024015b60206040518083038186803b158015610c1457600080fd5b505afa158015610c28573d6000803e3d6000fd5b505050506040513d601f19601f82011682018060405250810190610c4c9190614b5c565b60075473ffffffffffffffffffffffffffffffffffffffff169190613136565b505050565b6040517f6b880718000000000000000000000000000000000000000000000000000000008152306004820152600090819073__$0fb85c1a108326fe5c0d8f2f5a241bc0e7$__90636b8807189060240160206040518083038186803b158015610cd957600080fd5b505af4158015610ced573d6000803e3d6000fd5b505050506040513d601f19601f82011682018060405250810190610d1191906148f8565b905073ffffffffffffffffffffffffffffffffffffffff8116301415610d5457505060015474010000000000000000000000000000000000000000900460ff1690565b60015474010000000000000000000000000000000000000000900460ff168061051457508073ffffffffffffffffffffffffffffffffffffffff16635c975abb6040518163ffffffff1660e01b815260040160206040518083038186803b158015610dbe57600080fd5b505afa158015610dd2573d6000803e3d6000fd5b505050506040513d601f19601f820116820180604052508101906105149190614ad2565b6040517f6b88071800000000000000000000000000000000000000000000000000000000815230600482018190529073__$0fb85c1a108326fe5c0d8f2f5a241bc0e7$__90636b8807189060240160206040518083038186803b158015610e5c57600080fd5b505af4158015610e70573d6000803e3d6000fd5b505050506040513d601f19601f82011682018060405250810190610e9491906148f8565b73ffffffffffffffffffffffffffffffffffffffff161415611049576000610eba6103b8565b6040517f21f8a7210000000000000000000000000000000000000000000000000000000081527f689d13d8ed8ef1027633ba26e7121121cf427434450a529548f19bf175974395600482015273ffffffffffffffffffffffffffffffffffffffff91909116906321f8a7219060240160206040518083038186803b158015610f4157600080fd5b505afa158015610f55573d6000803e3d6000fd5b505050506040513d601f19601f82011682018060405250810190610f7991906148f8565b60015490915073ffffffffffffffffffffffffffffffffffffffff16331480610fb757503373ffffffffffffffffffffffffffffffffffffffff8216145b611043576040517f08c379a000000000000000000000000000000000000000000000000000000000815260206004820152602260248201527f4175746f6d6174653a2063616c6c6572206973206e6f7420746865207061757360448201527f65720000000000000000000000000000000000000000000000000000000000006064820152608401610763565b506110f0565b60015473ffffffffffffffffffffffffffffffffffffffff1633146110f0576040517f08c379a000000000000000000000000000000000000000000000000000000000815260206004820152602260248201527f4175746f6d6174653a2063616c6c6572206973206e6f7420746865207061757360448201527f65720000000000000000000000000000000000000000000000000000000000006064820152608401610763565b6110f8610c71565b1561115f576040517f08c379a000000000000000000000000000000000000000000000000000000000815260206004820152601060248201527f4175746f6d6174653a20706175736564000000000000000000000000000000006044820152606401610763565b600180547fffffffffffffffffffffff00ffffffffffffffffffffffffffffffffffffffff1674010000000000000000000000000000000000000000179055565b836040518060400160405280601f81526020017f50616e63616b65537761704d617374657243686566324c7052657374616b65008152506111e1828261320a565b50600480546003546005546040517f1175a1dd0000000000000000000000000000000000000000000000000000000081529384015230602484015273ffffffffffffffffffffffffffffffffffffffff91821692610100909104909116906000908390631175a1dd9060440160206040518083038186803b15801561126557600080fd5b505afa158015611279573d6000803e3d6000fd5b505050506040513d601f19601f8201168201806040525081019061129d9190614b5c565b11611329576040517f08c379a0000000000000000000000000000000000000000000000000000000008152602060048201526024808201527f4d617374657243686566324c7052657374616b653a3a72756e3a206e6f20656160448201527f726e6564000000000000000000000000000000000000000000000000000000006064820152608401610763565b6005546040517fe2bbb15800000000000000000000000000000000000000000000000000000000815260048101919091526000602482015273ffffffffffffffffffffffffffffffffffffffff83169063e2bbb15890604401600060405180830381600087803b15801561139c57600080fd5b505af11580156113b0573d6000803e3d6000fd5b50506007546040517f70a082310000000000000000000000000000000000000000000000000000000081523060048201526000935073ffffffffffffffffffffffffffffffffffffffff90911691506370a082319060240160206040518083038186803b15801561142057600080fd5b505afa158015611434573d6000803e3d6000fd5b505050506040513d601f19601f820116820180604052508101906114589190614b5c565b60075490915061147f9073ffffffffffffffffffffffffffffffffffffffff1683836134dc565b6114b561148d600283614e7f565b6020890151895173ffffffffffffffffffffffffffffffffffffffff8616929190308d61366d565b506114f66114c4600283614e7f565b6114ce9083614ef7565b6020880151885173ffffffffffffffffffffffffffffffffffffffff8616929190308d61366d565b506000600660049054906101000a900473ffffffffffffffffffffffffffffffffffffffff16905061163d8173ffffffffffffffffffffffffffffffffffffffff16630dfe16816040518163ffffffff1660e01b815260040160206040518083038186803b15801561156757600080fd5b505afa15801561157b573d6000803e3d6000fd5b505050506040513d601f19601f8201168201806040525081019061159f91906148f8565b8273ffffffffffffffffffffffffffffffffffffffff1663d21220a76040518163ffffffff1660e01b815260040160206040518083038186803b1580156115e557600080fd5b505afa1580156115f9573d6000803e3d6000fd5b505050506040513d601f19601f8201168201806040525081019061161d91906148f8565b73ffffffffffffffffffffffffffffffffffffffff86169190308d6137bd565b50506040517f70a082310000000000000000000000000000000000000000000000000000000081523060048201526000915073ffffffffffffffffffffffffffffffffffffffff8316906370a082319060240160206040518083038186803b1580156116a857600080fd5b505afa1580156116bc573d6000803e3d6000fd5b505050506040513d601f19601f820116820180604052508101906116e09190614b5c565b60065490915061170f90640100000000900473ffffffffffffffffffffffffffffffffffffffff1686836134dc565b6005546040517fe2bbb15800000000000000000000000000000000000000000000000000000000815260048101919091526024810182905273ffffffffffffffffffffffffffffffffffffffff86169063e2bbb15890604401600060405180830381600087803b15801561178257600080fd5b505af1158015611796573d6000803e3d6000fd5b505050505050505050505050505050565b60015473ffffffffffffffffffffffffffffffffffffffff16331461184e576040517f08c379a000000000000000000000000000000000000000000000000000000000815260206004820152602160248201527f4175746f6d6174653a2063616c6c6572206973206e6f7420746865206f776e6560448201527f72000000000000000000000000000000000000000000000000000000000000006064820152608401610763565b604051806060016040528085858080602002602001604051908101604052809392919081815260200183836020028082843760009201919091525050509082525060208082018590526040909101839052815180516008926118b4928492910190614750565b506020820151600182015560409091015160029091015550505050565b816040518060400160405280602081526020017f50616e63616b65537761704d617374657243686566324c7053746f704c6f7373815250611912828261320a565b50600480546005546040517f93f1a40b00000000000000000000000000000000000000000000000000000000815292830181905230602484015273ffffffffffffffffffffffffffffffffffffffff9091169163441a3e70919083906393f1a40b90604401604080518083038186803b15801561198e57600080fd5b505afa1580156119a2573d6000803e3d6000fd5b505050506040513d601f19601f820116820180604052508101906119c69190614b0d565b5160405160e084901b7fffffffff0000000000000000000000000000000000000000000000000000000016815260048101929092526024820152604401600060405180830381600087803b158015611a1d57600080fd5b505af1158015611a31573d6000803e3d6000fd5b505060065460035460009350839250611a739161010090910473ffffffffffffffffffffffffffffffffffffffff908116916401000000009004163088613a32565b5050604080516002808252606082018352939550919350600092906020830190803683370190505090508281600081518110611ab157611ab1614f89565b602002602001019073ffffffffffffffffffffffffffffffffffffffff16908173ffffffffffffffffffffffffffffffffffffffff16815250508181600181518110611aff57611aff614f89565b73ffffffffffffffffffffffffffffffffffffffff9283166020918202929092010152600354611b39916008916101009004168389613cda565b6000611b5a60015473ffffffffffffffffffffffffffffffffffffffff1690565b60088054919250600091611b7090600190614ef7565b81548110611b8057611b80614f89565b6000918252602090912001546040517f70a0823100000000000000000000000000000000000000000000000000000000815230600482015273ffffffffffffffffffffffffffffffffffffffff9091169150611c5190839083906370a082319060240160206040518083038186803b158015611bfb57600080fd5b505afa158015611c0f573d6000803e3d6000fd5b505050506040513d601f19601f82011682018060405250810190611c339190614b5c565b73ffffffffffffffffffffffffffffffffffffffff84169190613136565b60075473ffffffffffffffffffffffffffffffffffffffff828116911614611ccf576007546040517f70a08231000000000000000000000000000000000000000000000000000000008152306004820152611ccf91849173ffffffffffffffffffffffffffffffffffffffff909116906370a0823190602401610bfc565b505050505050505050565b6040517f6b88071800000000000000000000000000000000000000000000000000000000815230600482015260009073__$0fb85c1a108326fe5c0d8f2f5a241bc0e7$__90636b8807189060240160206040518083038186803b158015611d4057600080fd5b505af4158015611d54573d6000803e3d6000fd5b505050506040513d601f19601f82011682018060405250810190611d7891906148f8565b90503373ffffffffffffffffffffffffffffffffffffffff82163014611e1b578173ffffffffffffffffffffffffffffffffffffffff16638da5cb5b6040518163ffffffff1660e01b815260040160206040518083038186803b158015611dde57600080fd5b505afa158015611df2573d6000803e3d6000fd5b505050506040513d601f19601f82011682018060405250810190611e1691906148f8565b611e35565b60015473ffffffffffffffffffffffffffffffffffffffff165b73ffffffffffffffffffffffffffffffffffffffff1614611ed8576040517f08c379a000000000000000000000000000000000000000000000000000000000815260206004820152603d60248201527f4175746f6d6174653a3a6368616e676550726f746f636f6c4665653a2063616c60448201527f6c6572206973206e6f74207468652070726f746f636f6c206f776e65720000006064820152608401610763565b60028290556040518281527f3c1d43943224e49d951ce8295a5c8332b517083b3f89bed50feae2cb39caebb59060200160405180910390a15050565b6040517f6b880718000000000000000000000000000000000000000000000000000000008152306004820152600090819073__$0fb85c1a108326fe5c0d8f2f5a241bc0e7$__90636b8807189060240160206040518083038186803b158015611f7c57600080fd5b505af4158015611f90573d6000803e3d6000fd5b505050506040513d601f19601f82011682018060405250810190611fb491906148f8565b905073ffffffffffffffffffffffffffffffffffffffff81163014801590611fde57506000600254125b15612061578073ffffffffffffffffffffffffffffffffffffffff1663b0e21e8a6040518163ffffffff1660e01b815260040160206040518083038186803b15801561202957600080fd5b505afa15801561203d573d6000803e3d6000fd5b505050506040513d601f19601f820116820180604052508101906105149190614b5c565b600061206b6103b8565b9050600080600254126120805760025461213d565b6040517fbd02d0f50000000000000000000000000000000000000000000000000000000081527fa93d95f96a5de25d7a41ddf1f5e8d45cfc929c4838163cf011dab4043a4a40d5600482015273ffffffffffffffffffffffffffffffffffffffff83169063bd02d0f59060240160206040518083038186803b15801561210557600080fd5b505afa158015612119573d6000803e3d6000fd5b505050506040513d601f19601f8201168201806040525081019061213d9190614b5c565b90508061214e576000935050505090565b6040517f21f8a7210000000000000000000000000000000000000000000000000000000081527f65c90423fe7c880476633a7e36521740f87199d233dc56eb4ca6643eb76f605f600482015260009073ffffffffffffffffffffffffffffffffffffffff8416906321f8a7219060240160206040518083038186803b1580156121d657600080fd5b505afa1580156121ea573d6000803e3d6000fd5b505050506040513d601f19601f8201168201806040525081019061220e91906148f8565b73ffffffffffffffffffffffffffffffffffffffff1663feaf968c6040518163ffffffff1660e01b815260040160a06040518083038186803b15801561225357600080fd5b505afa158015612267573d6000803e3d6000fd5b505050506040513d601f19601f8201168201806040525081019061228b9190614c60565b505050915050600081136122fb576040517f08c379a000000000000000000000000000000000000000000000000000000000815260206004820152601760248201527f4175746f6d6174653a20696e76616c69642070726963650000000000000000006044820152606401610763565b8061230e83670de0b6b3a7640000614eba565b6123189190614e7f565b94505050505090565b60015473ffffffffffffffffffffffffffffffffffffffff1661239157600180547fffffffffffffffffffffffff000000000000000000000000000000000000000016321790557fffffffffffffffffffffffffffffffffffffffffffffffffffffffffffffffff600255612438565b60015473ffffffffffffffffffffffffffffffffffffffff163314612438576040517f08c379a000000000000000000000000000000000000000000000000000000000815260206004820152602160248201527f4175746f6d6174653a2063616c6c6572206973206e6f7420746865206f776e6560448201527f72000000000000000000000000000000000000000000000000000000000000006064820152608401610763565b60035460ff161580612464575060045473ffffffffffffffffffffffffffffffffffffffff8681169116145b612516576040517f08c379a000000000000000000000000000000000000000000000000000000000815260206004820152604260248201527f4d617374657243686566324c7052657374616b653a3a696e69743a207265696e60448201527f697469616c697a65207374616b696e67206164647265737320666f726269646460648201527f656e000000000000000000000000000000000000000000000000000000000000608482015260a401610763565b600480547fffffffffffffffffffffffff00000000000000000000000000000000000000001673ffffffffffffffffffffffffffffffffffffffff871617905560035460ff161580612587575060035473ffffffffffffffffffffffffffffffffffffffff85811661010090920416145b612639576040517f08c379a000000000000000000000000000000000000000000000000000000000815260206004820152604b60248201527f4d617374657243686566324c7052657374616b653a3a696e69743a207265696e60448201527f697469616c697a65206c697175696469747920726f757465722061646472657360648201527f7320666f7262696464656e000000000000000000000000000000000000000000608482015260a401610763565b6003805473ffffffffffffffffffffffffffffffffffffffff8616610100027fffffffffffffffffffffff0000000000000000000000000000000000000000ff8216811790925560ff9182169116171580612695575082600554145b612721576040517f08c379a000000000000000000000000000000000000000000000000000000000815260206004820152603d60248201527f4d617374657243686566324c7052657374616b653a3a696e69743a207265696e60448201527f697469616c697a6520706f6f6c20696e64657820666f7262696464656e0000006064820152608401610763565b60058390556006805461ffff83811662010000027fffffffffffffffffffffffffffffffffffffffffffffffffffffffff000000009092169085161717905560035460ff1661293257600480546005546040517f78ed5d1f0000000000000000000000000000000000000000000000000000000081529283015260009173ffffffffffffffffffffffffffffffffffffffff909116906378ed5d1f9060240160206040518083038186803b1580156127d857600080fd5b505afa1580156127ec573d6000803e3d6000fd5b505050506040513d601f19601f8201168201806040525081019061281091906148f8565b6006805473ffffffffffffffffffffffffffffffffffffffff808416640100000000027fffffffffffffffff0000000000000000000000000000000000000000ffffffff9092169190911790915560048054604080517f4ca6ef280000000000000000000000000000000000000000000000000000000081529051949550921692634ca6ef28928083019260209291829003018186803b1580156128b357600080fd5b505afa1580156128c7573d6000803e3d6000fd5b505050506040513d601f19601f820116820180604052508101906128eb91906148f8565b600780547fffffffffffffffffffffffff00000000000000000000000000000000000000001673ffffffffffffffffffffffffffffffffffffffff92909216919091179055505b5050600380547fffffffffffffffffffffffffffffffffffffffffffffffffffffffffffffff00166001179055505050565b60015473ffffffffffffffffffffffffffffffffffffffff163314612a0b576040517f08c379a000000000000000000000000000000000000000000000000000000000815260206004820152602160248201527f4175746f6d6174653a2063616c6c6572206973206e6f7420746865206f776e6560448201527f72000000000000000000000000000000000000000000000000000000000000006064820152608401610763565b6040517fa9059cbb00000000000000000000000000000000000000000000000000000000815273ffffffffffffffffffffffffffffffffffffffff83811660048301526024820183905284169063a9059cbb90604401602060405180830381600087803b158015612a7b57600080fd5b505af1158015612a8f573d6000803e3d6000fd5b505050506040513d601f19601f82011682018060405250810190612ab39190614ad2565b50505050565b60015473ffffffffffffffffffffffffffffffffffffffff163314612b60576040517f08c379a000000000000000000000000000000000000000000000000000000000815260206004820152602160248201527f4175746f6d6174653a2063616c6c6572206973206e6f7420746865206f776e6560448201527f72000000000000000000000000000000000000000000000000000000000000006064820152608401610763565b6006546040517f70a0823100000000000000000000000000000000000000000000000000000000815230600482015264010000000090910473ffffffffffffffffffffffffffffffffffffffff169060009082906370a082319060240160206040518083038186803b158015612bd557600080fd5b505afa158015612be9573d6000803e3d6000fd5b505050506040513d601f19601f82011682018060405250810190612c0d9190614b5c565b600454909150612c379073ffffffffffffffffffffffffffffffffffffffff8481169116836134dc565b600480546005546040517fe2bbb158000000000000000000000000000000000000000000000000000000008152928301526024820183905273ffffffffffffffffffffffffffffffffffffffff169063e2bbb15890604401600060405180830381600087803b158015612ca957600080fd5b505af1158015612cbd573d6000803e3d6000fd5b505050505050565b60015473ffffffffffffffffffffffffffffffffffffffff163314612d6c576040517f08c379a000000000000000000000000000000000000000000000000000000000815260206004820152602160248201527f4175746f6d6174653a2063616c6c6572206973206e6f7420746865206f776e6560448201527f72000000000000000000000000000000000000000000000000000000000000006064820152608401610763565b6000612d8d60015473ffffffffffffffffffffffffffffffffffffffff1690565b600480546005546040517f5312ea8e0000000000000000000000000000000000000000000000000000000081529283015291925073ffffffffffffffffffffffffffffffffffffffff90911690635312ea8e90602401600060405180830381600087803b158015612dfd57600080fd5b505af1158015612e11573d6000803e3d6000fd5b50506006546040517f70a08231000000000000000000000000000000000000000000000000000000008152306004820152612e78935084925064010000000090910473ffffffffffffffffffffffffffffffffffffffff16906370a0823190602401610b2c565b6007546040517f70a08231000000000000000000000000000000000000000000000000000000008152306004820152612ed491839173ffffffffffffffffffffffffffffffffffffffff909116906370a0823190602401610bfc565b50565b60015473ffffffffffffffffffffffffffffffffffffffff163314612f7e576040517f08c379a000000000000000000000000000000000000000000000000000000000815260206004820152602160248201527f4175746f6d6174653a2063616c6c6572206973206e6f7420746865206f776e6560448201527f72000000000000000000000000000000000000000000000000000000000000006064820152608401610763565b6040517f6b88071800000000000000000000000000000000000000000000000000000000815230600482018190529073__$0fb85c1a108326fe5c0d8f2f5a241bc0e7$__90636b8807189060240160206040518083038186803b158015612fe457600080fd5b505af4158015612ff8573d6000803e3d6000fd5b505050506040513d601f19601f8201168201806040525081019061301c91906148f8565b73ffffffffffffffffffffffffffffffffffffffff16146130bf576040517f08c379a000000000000000000000000000000000000000000000000000000000815260206004820152602160248201527f4175746f6d6174653a206368616e676520746865206f776e6572206661696c6560448201527f64000000000000000000000000000000000000000000000000000000000000006064820152608401610763565b6001805473ffffffffffffffffffffffffffffffffffffffff8381167fffffffffffffffffffffffff0000000000000000000000000000000000000000831681179093556040519116919082907f8be0079c531659141344cd1fd0a4f28419497f9722a3daafe3b4186f6b6457e090600090a35050565b60405173ffffffffffffffffffffffffffffffffffffffff8316602482015260448101829052610c6c9084907fa9059cbb00000000000000000000000000000000000000000000000000000000906064015b604080517fffffffffffffffffffffffffffffffffffffffffffffffffffffffffffffffe08184030181529190526020810180517bffffffffffffffffffffffffffffffffffffffffffffffffffffffff167fffffffff0000000000000000000000000000000000000000000000000000000090931692909217909152614458565b6000613214610c71565b1561327b576040517f08c379a000000000000000000000000000000000000000000000000000000000815260206004820152601060248201527f4175746f6d6174653a20706175736564000000000000000000000000000000006044820152606401610763565b600061329c60015473ffffffffffffffffffffffffffffffffffffffff1690565b90503273ffffffffffffffffffffffffffffffffffffffff821614156132c65760009150506134d6565b60006132d06103b8565b6040517f21f8a7210000000000000000000000000000000000000000000000000000000081527fe78c16c6d839536d3155985aab4e9c6013c8c3d446054bcebc48612f359d81f5600482015290915060009073ffffffffffffffffffffffffffffffffffffffff8316906321f8a7219060240160206040518083038186803b15801561335b57600080fd5b505afa15801561336f573d6000803e3d6000fd5b505050506040513d601f19601f8201168201806040525081019061339391906148f8565b905073ffffffffffffffffffffffffffffffffffffffff8116613438576040517f08c379a000000000000000000000000000000000000000000000000000000000815260206004820152602b60248201527f4175746f6d6174653a3a5f62696c6c3a2062616c616e636520636f6e7472616360448201527f74206e6f7420666f756e640000000000000000000000000000000000000000006064820152608401610763565b8073ffffffffffffffffffffffffffffffffffffffff1663e578a225848861345e611f14565b896040518563ffffffff1660e01b815260040161347e9493929190614d0a565b602060405180830381600087803b15801561349857600080fd5b505af11580156134ac573d6000803e3d6000fd5b505050506040513d601f19601f820116820180604052508101906134d09190614b5c565b93505050505b92915050565b80158061358b57506040517fdd62ed3e00000000000000000000000000000000000000000000000000000000815230600482015273ffffffffffffffffffffffffffffffffffffffff838116602483015284169063dd62ed3e9060440160206040518083038186803b15801561355157600080fd5b505afa158015613565573d6000803e3d6000fd5b505050506040513d601f19601f820116820180604052508101906135899190614b5c565b155b613617576040517f08c379a000000000000000000000000000000000000000000000000000000000815260206004820152603660248201527f5361666545524332303a20617070726f76652066726f6d206e6f6e2d7a65726f60448201527f20746f206e6f6e2d7a65726f20616c6c6f77616e6365000000000000000000006064820152608401610763565b60405173ffffffffffffffffffffffffffffffffffffffff8316602482015260448101829052610c6c9084907f095ea7b30000000000000000000000000000000000000000000000000000000090606401613188565b6060836001855161367e9190614ef7565b8151811061368e5761368e614f89565b602002602001015173ffffffffffffffffffffffffffffffffffffffff16846000815181106136bf576136bf614f89565b602002602001015173ffffffffffffffffffffffffffffffffffffffff16146137b3576040517f38ed173900000000000000000000000000000000000000000000000000000000815273ffffffffffffffffffffffffffffffffffffffff8816906338ed17399061373c9089908990899089908990600401614d58565b600060405180830381600087803b15801561375657600080fd5b505af115801561376a573d6000803e3d6000fd5b505050506040513d6000823e601f3d9081017fffffffffffffffffffffffffffffffffffffffffffffffffffffffffffffffe01682016040526137b09190810190614a3a565b90505b9695505050505050565b6040517f70a0823100000000000000000000000000000000000000000000000000000000815230600482015260009081908190819073ffffffffffffffffffffffffffffffffffffffff8916906370a082319060240160206040518083038186803b15801561382b57600080fd5b505afa15801561383f573d6000803e3d6000fd5b505050506040513d601f19601f820116820180604052508101906138639190614b5c565b6040517f70a0823100000000000000000000000000000000000000000000000000000000815230600482015290915060009073ffffffffffffffffffffffffffffffffffffffff8916906370a082319060240160206040518083038186803b1580156138ce57600080fd5b505afa1580156138e2573d6000803e3d6000fd5b505050506040513d601f19601f820116820180604052508101906139069190614b5c565b905061392973ffffffffffffffffffffffffffffffffffffffff8a168b846134dc565b61394a73ffffffffffffffffffffffffffffffffffffffff89168b836134dc565b6040517fe8e3370000000000000000000000000000000000000000000000000000000000815273ffffffffffffffffffffffffffffffffffffffff8a811660048301528981166024830152604482018490526064820183905260006084830181905260a483015288811660c483015260e482018890528b169063e8e337009061010401606060405180830381600087803b1580156139e757600080fd5b505af11580156139fb573d6000803e3d6000fd5b505050506040513d601f19601f82011682018060405250810190613a1f9190614c32565b9450945094505050955095509592505050565b6000806000808673ffffffffffffffffffffffffffffffffffffffff16630dfe16816040518163ffffffff1660e01b815260040160206040518083038186803b158015613a7e57600080fd5b505afa158015613a92573d6000803e3d6000fd5b505050506040513d601f19601f82011682018060405250810190613ab691906148f8565b93508673ffffffffffffffffffffffffffffffffffffffff1663d21220a76040518163ffffffff1660e01b815260040160206040518083038186803b158015613afe57600080fd5b505afa158015613b12573d6000803e3d6000fd5b505050506040513d601f19601f82011682018060405250810190613b3691906148f8565b6040517f70a0823100000000000000000000000000000000000000000000000000000000815230600482015290935060009073ffffffffffffffffffffffffffffffffffffffff8916906370a082319060240160206040518083038186803b158015613ba157600080fd5b505afa158015613bb5573d6000803e3d6000fd5b505050506040513d601f19601f82011682018060405250810190613bd99190614b5c565b9050613bfc73ffffffffffffffffffffffffffffffffffffffff89168a836134dc565b6040517fbaa2abde00000000000000000000000000000000000000000000000000000000815273ffffffffffffffffffffffffffffffffffffffff8681166004830152858116602483015260448201839052600060648301819052608483015288811660a483015260c482018890528a169063baa2abde9060e4016040805180830381600087803b158015613c9057600080fd5b505af1158015613ca4573d6000803e3d6000fd5b505050506040513d601f19601f82011682018060405250810190613cc89190614b97565b959a9499509750939550919350505050565b83546001108015613cef575060008460010154115b613d7b576040517f08c379a000000000000000000000000000000000000000000000000000000000815260206004820152602160248201527f53746f704c6f73733a3a72756e3a2073746f70206c6f73732064697361626c6560448201527f64000000000000000000000000000000000000000000000000000000000000006064820152608401610763565b61010082511115613e0e576040517f08c379a000000000000000000000000000000000000000000000000000000000815260206004820152602160248201527f53746f704c6f73733a3a72756e3a20746f6f206d616e7920696e20746f6b656e60448201527f73000000000000000000000000000000000000000000000000000000000000006064820152608401610763565b60005b82518160ff161015614063576000838260ff1681518110613e3457613e34614f89565b6020026020010151905085600001600081548110613e5457613e54614f89565b60009182526020909120015473ffffffffffffffffffffffffffffffffffffffff82811691161415613e865750614051565b6040517f70a0823100000000000000000000000000000000000000000000000000000000815230600482015260009073ffffffffffffffffffffffffffffffffffffffff8316906370a082319060240160206040518083038186803b158015613eee57600080fd5b505afa158015613f02573d6000803e3d6000fd5b505050506040513d601f19601f82011682018060405250810190613f269190614b5c565b905080613f34575050614051565b6040805160028082526060820183526000926020830190803683370190505090508281600081518110613f6957613f69614f89565b602002602001019073ffffffffffffffffffffffffffffffffffffffff16908173ffffffffffffffffffffffffffffffffffffffff168152505087600001600081548110613fb957613fb9614f89565b9060005260206000200160009054906101000a900473ffffffffffffffffffffffffffffffffffffffff1681600181518110613ff757613ff7614f89565b73ffffffffffffffffffffffffffffffffffffffff928316602091820292909201015261402790841688846134dc565b61404c73ffffffffffffffffffffffffffffffffffffffff881683600084308a61366d565b505050505b8061405b81614f3a565b915050613e11565b5060008460000160008154811061407c5761407c614f89565b60009182526020822001546040517f70a0823100000000000000000000000000000000000000000000000000000000815230600482015273ffffffffffffffffffffffffffffffffffffffff909116925082906370a082319060240160206040518083038186803b1580156140f057600080fd5b505afa158015614104573d6000803e3d6000fd5b505050506040513d601f19601f820116820180604052508101906141289190614b5c565b8654909150600090879061413e90600190614ef7565b8154811061414e5761414e614f89565b60009182526020909120015473ffffffffffffffffffffffffffffffffffffffff8481169116146143865760008211614209576040517f08c379a000000000000000000000000000000000000000000000000000000000815260206004820152603160248201527f53746f704c6f73733a3a72756e3a20696e73756666696369656e742062616c6160448201527f6e6365206f66206261736520746f6b656e0000000000000000000000000000006064820152608401610763565b61422a73ffffffffffffffffffffffffffffffffffffffff841687846134dc565b60006142c28389600201548a60000180548060200260200160405190810160405280929190818152602001828054801561429a57602002820191906000526020600020905b815473ffffffffffffffffffffffffffffffffffffffff16815260019091019060200180831161426f575b50505073ffffffffffffffffffffffffffffffffffffffff8d1694939291503090508a61366d565b905080600182516142d39190614ef7565b815181106142e3576142e3614f89565b602002602001015191508760010154821115614380576040517f08c379a0000000000000000000000000000000000000000000000000000000008152602060048201526024808201527f53746f704c6f73733a3a72756e3a20696e76616c6964206f757470757420616d60448201527f6f756e74000000000000000000000000000000000000000000000000000000006064820152608401610763565b5061441c565b819050866001015481111561441c576040517f08c379a0000000000000000000000000000000000000000000000000000000008152602060048201526024808201527f53746f704c6f73733a3a72756e3a20696e76616c6964206f757470757420616d60448201527f6f756e74000000000000000000000000000000000000000000000000000000006064820152608401610763565b6040518181527ff22ed879bd57fced893edba2366c8143c0d7c2e585eafd2521c2832159d557f19060200160405180910390a150505050505050565b60006144ba826040518060400160405280602081526020017f5361666545524332303a206c6f772d6c6576656c2063616c6c206661696c65648152508573ffffffffffffffffffffffffffffffffffffffff166145649092919063ffffffff16565b805190915015610c6c57808060200190518101906144d89190614ad2565b610c6c576040517f08c379a000000000000000000000000000000000000000000000000000000000815260206004820152602a60248201527f5361666545524332303a204552433230206f7065726174696f6e20646964206e60448201527f6f742073756363656564000000000000000000000000000000000000000000006064820152608401610763565b6060614573848460008561457d565b90505b9392505050565b60608247101561460f576040517f08c379a000000000000000000000000000000000000000000000000000000000815260206004820152602660248201527f416464726573733a20696e73756666696369656e742062616c616e636520666f60448201527f722063616c6c00000000000000000000000000000000000000000000000000006064820152608401610763565b843b614677576040517f08c379a000000000000000000000000000000000000000000000000000000000815260206004820152601d60248201527f416464726573733a2063616c6c20746f206e6f6e2d636f6e74726163740000006044820152606401610763565b6000808673ffffffffffffffffffffffffffffffffffffffff1685876040516146a09190614cee565b60006040518083038185875af1925050503d80600081146146dd576040519150601f19603f3d011682016040523d82523d6000602084013e6146e2565b606091505b50915091506146f28282866146fd565b979650505050505050565b6060831561470c575081614576565b82511561471c5782518084602001fd5b816040517f08c379a00000000000000000000000000000000000000000000000000000000081526004016107639190614d45565b8280548282559060005260206000209081019282156147ca579160200282015b828111156147ca57825182547fffffffffffffffffffffffff00000000000000000000000000000000000000001673ffffffffffffffffffffffffffffffffffffffff909116178255602090920191600190910190614770565b506147d69291506147da565b5090565b5b808211156147d657600081556001016147db565b60006040828403121561480157600080fd5b614809614de3565b9050813567ffffffffffffffff81111561482257600080fd5b8201601f8101841361483357600080fd5b8035602061484861484383614e5b565b614e0c565b80838252828201915082850188848660051b880101111561486857600080fd5b600095505b8486101561489457803561488081614fe7565b83526001959095019491830191830161486d565b5085525093840135938301939093525092915050565b803561ffff811681146148bc57600080fd5b919050565b805169ffffffffffffffffffff811681146148bc57600080fd5b6000602082840312156148ed57600080fd5b813561457681614fe7565b60006020828403121561490a57600080fd5b815161457681614fe7565b60008060006060848603121561492a57600080fd5b833561493581614fe7565b9250602084013561494581614fe7565b929592945050506040919091013590565b600080600080600060a0868803121561496e57600080fd5b853561497981614fe7565b9450602086013561498981614fe7565b93506040860135925061499e606087016148aa565b91506149ac608087016148aa565b90509295509295909350565b600080600080606085870312156149ce57600080fd5b843567ffffffffffffffff808211156149e657600080fd5b818701915087601f8301126149fa57600080fd5b813581811115614a0957600080fd5b8860208260051b8501011115614a1e57600080fd5b6020928301999098509187013596604001359550909350505050565b60006020808385031215614a4d57600080fd5b825167ffffffffffffffff811115614a6457600080fd5b8301601f81018513614a7557600080fd5b8051614a8361484382614e5b565b80828252848201915084840188868560051b8701011115614aa357600080fd5b600094505b83851015614ac6578051835260019490940193918501918501614aa8565b50979650505050505050565b600060208284031215614ae457600080fd5b8151801515811461457657600080fd5b600060208284031215614b0657600080fd5b5035919050565b600060408284031215614b1f57600080fd5b6040516040810181811067ffffffffffffffff82111715614b4257614b42614fb8565b604052825181526020928301519281019290925250919050565b600060208284031215614b6e57600080fd5b5051919050565b60008060408385031215614b8857600080fd5b50508035926020909101359150565b60008060408385031215614baa57600080fd5b505080516020909101519092909150565b60008060008060808587031215614bd157600080fd5b8435935060208501359250604085013567ffffffffffffffff80821115614bf757600080fd5b614c03888389016147ef565b93506060870135915080821115614c1957600080fd5b50614c26878288016147ef565b91505092959194509250565b600080600060608486031215614c4757600080fd5b8351925060208401519150604084015190509250925092565b600080600080600060a08688031215614c7857600080fd5b614c81866148c1565b94506020860151935060408601519250606086015191506149ac608087016148c1565b60008151808452614cbc816020860160208601614f0e565b601f017fffffffffffffffffffffffffffffffffffffffffffffffffffffffffffffffe0169290920160200192915050565b60008251614d00818460208701614f0e565b9190910192915050565b73ffffffffffffffffffffffffffffffffffffffff851681528360208201528260408201526080606082015260006137b36080830184614ca4565b6020815260006145766020830184614ca4565b600060a082018783526020878185015260a0604085015281875180845260c086019150828901935060005b81811015614db557845173ffffffffffffffffffffffffffffffffffffffff1683529383019391830191600101614d83565b505073ffffffffffffffffffffffffffffffffffffffff969096166060850152505050608001529392505050565b6040805190810167ffffffffffffffff81118282101715614e0657614e06614fb8565b60405290565b604051601f82017fffffffffffffffffffffffffffffffffffffffffffffffffffffffffffffffe016810167ffffffffffffffff81118282101715614e5357614e53614fb8565b604052919050565b600067ffffffffffffffff821115614e7557614e75614fb8565b5060051b60200190565b600082614eb5577f4e487b7100000000000000000000000000000000000000000000000000000000600052601260045260246000fd5b500490565b6000817fffffffffffffffffffffffffffffffffffffffffffffffffffffffffffffffff0483118215151615614ef257614ef2614f5a565b500290565b600082821015614f0957614f09614f5a565b500390565b60005b83811015614f29578181015183820152602001614f11565b83811115612ab35750506000910152565b600060ff821660ff811415614f5157614f51614f5a565b60010192915050565b7f4e487b7100000000000000000000000000000000000000000000000000000000600052601160045260246000fd5b7f4e487b7100000000000000000000000000000000000000000000000000000000600052603260045260246000fd5b7f4e487b7100000000000000000000000000000000000000000000000000000000600052604160045260246000fd5b73ffffffffffffffffffffffffffffffffffffffff81168114612ed457600080fdfea164736f6c6343000806000a",
  "linkReferences": {
    "contracts/utils/DFH/proxy/ERC1167.sol": {
      "ERC1167": [
        {
          "length": 20,
          "start": 1174
        },
        {
          "length": 20,
          "start": 1526
        },
        {
          "length": 20,
          "start": 3407
        },
        {
          "length": 20,
          "start": 3794
        },
        {
          "length": 20,
          "start": 7606
        },
        {
          "length": 20,
          "start": 8178
        },
        {
          "length": 20,
          "start": 12378
        }
      ]
    }
  },
  "deployedLinkReferences": {
    "contracts/utils/DFH/proxy/ERC1167.sol": {
      "ERC1167": [
        {
          "length": 20,
          "start": 1003
        },
        {
          "length": 20,
          "start": 1355
        },
        {
          "length": 20,
          "start": 3236
        },
        {
          "length": 20,
          "start": 3623
        },
        {
          "length": 20,
          "start": 7435
        },
        {
          "length": 20,
          "start": 8007
        },
        {
          "length": 20,
          "start": 12207
        }
      ]
    }
  }
}