{
  "_format": "hh-sol-artifact-1",
  "contractName": "MasterChef2LpRestake",
  "sourceName": "contracts/MasterChef2LpRestake.automate.sol",
  "abi": [
    {
      "inputs": [
        {
          "internalType": "address",
          "name": "_info",
          "type": "address"
        }
      ],
      "stateMutability": "nonpayable",
      "type": "constructor"
    },
    {
      "anonymous": false,
      "inputs": [
        {
          "indexed": true,
          "internalType": "address",
          "name": "previousOwner",
          "type": "address"
        },
        {
          "indexed": true,
          "internalType": "address",
          "name": "newOwner",
          "type": "address"
        }
      ],
      "name": "OwnershipTransferred",
      "type": "event"
    },
    {
      "anonymous": false,
      "inputs": [
        {
          "indexed": false,
          "internalType": "int256",
          "name": "protocolFee",
          "type": "int256"
        }
      ],
      "name": "ProtocolFeeChanged",
      "type": "event"
    },
    {
      "inputs": [
        {
          "internalType": "int256",
          "name": "__protocolFee",
          "type": "int256"
        }
      ],
      "name": "changeProtocolFee",
      "outputs": [],
      "stateMutability": "nonpayable",
      "type": "function"
    },
    {
      "inputs": [],
      "name": "deadline",
      "outputs": [
        {
          "internalType": "uint16",
          "name": "",
          "type": "uint16"
        }
      ],
      "stateMutability": "view",
      "type": "function"
    },
    {
      "inputs": [
        {
          "internalType": "uint256",
          "name": "amount",
          "type": "uint256"
        }
      ],
      "name": "deposit",
      "outputs": [],
      "stateMutability": "nonpayable",
      "type": "function"
    },
    {
      "inputs": [],
      "name": "emergencyWithdraw",
      "outputs": [],
      "stateMutability": "nonpayable",
      "type": "function"
    },
    {
      "inputs": [],
      "name": "info",
      "outputs": [
        {
          "internalType": "address",
          "name": "",
          "type": "address"
        }
      ],
      "stateMutability": "view",
      "type": "function"
    },
    {
      "inputs": [
        {
          "internalType": "address",
          "name": "_staking",
          "type": "address"
        },
        {
          "internalType": "address",
          "name": "_liquidityRouter",
          "type": "address"
        },
        {
          "internalType": "uint256",
          "name": "_pool",
          "type": "uint256"
        },
        {
          "internalType": "uint16",
          "name": "_slippage",
          "type": "uint16"
        },
        {
          "internalType": "uint16",
          "name": "_deadline",
          "type": "uint16"
        }
      ],
      "name": "init",
      "outputs": [],
      "stateMutability": "nonpayable",
      "type": "function"
    },
    {
      "inputs": [],
      "name": "liquidityRouter",
      "outputs": [
        {
          "internalType": "address",
          "name": "",
          "type": "address"
        }
      ],
      "stateMutability": "view",
      "type": "function"
    },
    {
      "inputs": [],
      "name": "owner",
      "outputs": [
        {
          "internalType": "address",
          "name": "",
          "type": "address"
        }
      ],
      "stateMutability": "view",
      "type": "function"
    },
    {
      "inputs": [],
      "name": "pause",
      "outputs": [],
      "stateMutability": "nonpayable",
      "type": "function"
    },
    {
      "inputs": [],
      "name": "paused",
      "outputs": [
        {
          "internalType": "bool",
          "name": "",
          "type": "bool"
        }
      ],
      "stateMutability": "view",
      "type": "function"
    },
    {
      "inputs": [],
      "name": "pool",
      "outputs": [
        {
          "internalType": "uint256",
          "name": "",
          "type": "uint256"
        }
      ],
      "stateMutability": "view",
      "type": "function"
    },
    {
      "inputs": [],
      "name": "protocolFee",
      "outputs": [
        {
          "internalType": "uint256",
          "name": "",
          "type": "uint256"
        }
      ],
      "stateMutability": "view",
      "type": "function"
    },
    {
      "inputs": [],
      "name": "refund",
      "outputs": [],
      "stateMutability": "nonpayable",
      "type": "function"
    },
    {
      "inputs": [],
      "name": "rewardToken",
      "outputs": [
        {
          "internalType": "contract IERC20",
          "name": "",
          "type": "address"
        }
      ],
      "stateMutability": "view",
      "type": "function"
    },
    {
      "inputs": [
        {
          "internalType": "uint256",
          "name": "gasFee",
          "type": "uint256"
        },
        {
          "internalType": "uint256",
          "name": "_deadline",
          "type": "uint256"
        },
        {
          "components": [
            {
              "internalType": "address[]",
              "name": "path",
              "type": "address[]"
            },
            {
              "internalType": "uint256",
              "name": "outMin",
              "type": "uint256"
            }
          ],
          "internalType": "struct MasterChef2LpRestake.Swap",
          "name": "swap0",
          "type": "tuple"
        },
        {
          "components": [
            {
              "internalType": "address[]",
              "name": "path",
              "type": "address[]"
            },
            {
              "internalType": "uint256",
              "name": "outMin",
              "type": "uint256"
            }
          ],
          "internalType": "struct MasterChef2LpRestake.Swap",
          "name": "swap1",
          "type": "tuple"
        }
      ],
      "name": "run",
      "outputs": [],
      "stateMutability": "nonpayable",
      "type": "function"
    },
    {
      "inputs": [
        {
          "internalType": "uint256",
          "name": "gasFee",
          "type": "uint256"
        },
        {
          "internalType": "uint256",
          "name": "_deadline",
          "type": "uint256"
        }
      ],
      "name": "runStopLoss",
      "outputs": [],
      "stateMutability": "nonpayable",
      "type": "function"
    },
    {
      "inputs": [
        {
          "internalType": "address[]",
          "name": "path",
          "type": "address[]"
        },
        {
          "internalType": "uint256",
          "name": "amountOut",
          "type": "uint256"
        },
        {
          "internalType": "uint256",
          "name": "amountOutMin",
          "type": "uint256"
        }
      ],
      "name": "setStopLoss",
      "outputs": [],
      "stateMutability": "nonpayable",
      "type": "function"
    },
    {
      "inputs": [],
      "name": "slippage",
      "outputs": [
        {
          "internalType": "uint16",
          "name": "",
          "type": "uint16"
        }
      ],
      "stateMutability": "view",
      "type": "function"
    },
    {
      "inputs": [],
      "name": "staking",
      "outputs": [
        {
          "internalType": "contract IMasterChef2",
          "name": "",
          "type": "address"
        }
      ],
      "stateMutability": "view",
      "type": "function"
    },
    {
      "inputs": [],
      "name": "stakingToken",
      "outputs": [
        {
          "internalType": "contract IERC20",
          "name": "",
          "type": "address"
        }
      ],
      "stateMutability": "view",
      "type": "function"
    },
    {
      "inputs": [],
      "name": "stopLoss",
      "outputs": [
        {
          "internalType": "uint256",
          "name": "amountOut",
          "type": "uint256"
        },
        {
          "internalType": "uint256",
          "name": "amountOutMin",
          "type": "uint256"
        }
      ],
      "stateMutability": "view",
      "type": "function"
    },
    {
      "inputs": [
        {
          "internalType": "address",
          "name": "token",
          "type": "address"
        },
        {
          "internalType": "address",
          "name": "recipient",
          "type": "address"
        },
        {
          "internalType": "uint256",
          "name": "amount",
          "type": "uint256"
        }
      ],
      "name": "transfer",
      "outputs": [],
      "stateMutability": "nonpayable",
      "type": "function"
    },
    {
      "inputs": [
        {
          "internalType": "address",
          "name": "newOwner",
          "type": "address"
        }
      ],
      "name": "transferOwnership",
      "outputs": [],
      "stateMutability": "nonpayable",
      "type": "function"
    },
    {
      "inputs": [],
      "name": "unpause",
      "outputs": [],
      "stateMutability": "nonpayable",
      "type": "function"
    }
  ],
  "bytecode": "0x60806040523480156200001157600080fd5b506040516200532838038062005328833981016040819052620000349162000069565b600080546001600160a01b039092166001600160a01b031992831617905560018054909116321790556000196002556200009b565b6000602082840312156200007c57600080fd5b81516001600160a01b03811681146200009457600080fd5b9392505050565b61527d80620000ab6000396000f3fe608060405234801561001057600080fd5b50600436106101985760003560e01c806388591b27116100e3578063b6b55f251161008c578063db2e21bc11610066578063db2e21bc14610388578063f2fde38b14610390578063f7c618c1146103a357600080fd5b8063b6b55f251461034f578063b838d91414610362578063beabacc81461037557600080fd5b80639327d80a116100bd5780639327d80a146103215780639742b5c314610334578063b0e21e8a1461034757600080fd5b806388591b27146102dd5780638c3d8faf146102f05780638da5cb5b1461030357600080fd5b80634cf088d9116101455780635c975abb1161011f5780635c975abb1461029557806372f702f3146102ad5780638456cb59146102d557600080fd5b80634cf088d91461024a578063527a15651461026a578063590e1ae31461028d57600080fd5b8063370158ea11610176578063370158ea1461022a5780633e032a3b146102325780633f4ba83a1461024057600080fd5b806316f0115b1461019d57806324702944146101b957806329dcb0cf14610203575b600080fd5b6101a660055481565b6040519081526020015b60405180910390f35b6003546101de90610100900473ffffffffffffffffffffffffffffffffffffffff1681565b60405173ffffffffffffffffffffffffffffffffffffffff90911681526020016101b0565b6006546102179062010000900461ffff1681565b60405161ffff90911681526020016101b0565b6101de6103c3565b6006546102179061ffff1681565b610248610525565b005b6004546101de9073ffffffffffffffffffffffffffffffffffffffff1681565b600954600a54610278919082565b604080519283526020830191909152016101b0565b6102486108bc565b61029d610c7d565b60405190151581526020016101b0565b6006546101de90640100000000900473ffffffffffffffffffffffffffffffffffffffff1681565b610248610e02565b6102486102eb366004614e22565b6111ac565b6102486102fe366004614c12565b6117b3565b60015473ffffffffffffffffffffffffffffffffffffffff166101de565b61024861032f366004614ddc565b6118dd565b610248610342366004614d4e565b611ce7565b6101a6611f21565b61024861035d366004614d4e565b61232e565b610248610370366004614bb0565b6124b7565b610248610383366004614b6f565b612afa565b610248612c4f565b61024861039e366004614b35565b612e61565b6007546101de9073ffffffffffffffffffffffffffffffffffffffff1681565b6040517f6b880718000000000000000000000000000000000000000000000000000000008152306004820152600090819073__$0fb85c1a108326fe5c0d8f2f5a241bc0e7$__90636b8807189060240160206040518083038186803b15801561042b57600080fd5b505af415801561043f573d6000803e3d6000fd5b505050506040513d601f19601f820116820180604052508101906104639190614b52565b905073ffffffffffffffffffffffffffffffffffffffff81163014156104a157505060005473ffffffffffffffffffffffffffffffffffffffff1690565b8073ffffffffffffffffffffffffffffffffffffffff1663370158ea6040518163ffffffff1660e01b815260040160206040518083038186803b1580156104e757600080fd5b505afa1580156104fb573d6000803e3d6000fd5b505050506040513d601f19601f8201168201806040525081019061051f9190614b52565b91505090565b6040517f6b88071800000000000000000000000000000000000000000000000000000000815230600482018190529073__$0fb85c1a108326fe5c0d8f2f5a241bc0e7$__90636b8807189060240160206040518083038186803b15801561058b57600080fd5b505af415801561059f573d6000803e3d6000fd5b505050506040513d601f19601f820116820180604052508101906105c39190614b52565b73ffffffffffffffffffffffffffffffffffffffff16141561077d5760006105e96103c3565b6040517f21f8a7210000000000000000000000000000000000000000000000000000000081527f689d13d8ed8ef1027633ba26e7121121cf427434450a529548f19bf175974395600482015273ffffffffffffffffffffffffffffffffffffffff91909116906321f8a7219060240160206040518083038186803b15801561067057600080fd5b505afa158015610684573d6000803e3d6000fd5b505050506040513d601f19601f820116820180604052508101906106a89190614b52565b60015490915073ffffffffffffffffffffffffffffffffffffffff163314806106e657503373ffffffffffffffffffffffffffffffffffffffff8216145b610777576040517f08c379a000000000000000000000000000000000000000000000000000000000815260206004820152602260248201527f4175746f6d6174653a2063616c6c6572206973206e6f7420746865207061757360448201527f657200000000000000000000000000000000000000000000000000000000000060648201526084015b60405180910390fd5b50610824565b60015473ffffffffffffffffffffffffffffffffffffffff163314610824576040517f08c379a000000000000000000000000000000000000000000000000000000000815260206004820152602260248201527f4175746f6d6174653a2063616c6c6572206973206e6f7420746865207061757360448201527f6572000000000000000000000000000000000000000000000000000000000000606482015260840161076e565b61082c610c7d565b610892576040517f08c379a000000000000000000000000000000000000000000000000000000000815260206004820152601460248201527f4175746f6d6174653a206e6f7420706175736564000000000000000000000000604482015260640161076e565b600180547fffffffffffffffffffffff00ffffffffffffffffffffffffffffffffffffffff169055565b60015473ffffffffffffffffffffffffffffffffffffffff163314610963576040517f08c379a000000000000000000000000000000000000000000000000000000000815260206004820152602160248201527f4175746f6d6174653a2063616c6c6572206973206e6f7420746865206f776e6560448201527f7200000000000000000000000000000000000000000000000000000000000000606482015260840161076e565b60045473ffffffffffffffffffffffffffffffffffffffff16600061099d60015473ffffffffffffffffffffffffffffffffffffffff1690565b6005546040517f93f1a40b000000000000000000000000000000000000000000000000000000008152600481019190915230602482015290915060009073ffffffffffffffffffffffffffffffffffffffff8416906393f1a40b9060440160606040518083038186803b158015610a1357600080fd5b505afa158015610a27573d6000803e3d6000fd5b505050506040513d601f19601f82011682018060405250810190610a4b9190614d67565b60055481516040517f441a3e700000000000000000000000000000000000000000000000000000000081526004810192909252602482015290915073ffffffffffffffffffffffffffffffffffffffff84169063441a3e7090604401600060405180830381600087803b158015610ac157600080fd5b505af1158015610ad5573d6000803e3d6000fd5b50506006546040517f70a08231000000000000000000000000000000000000000000000000000000008152306004820152610bb0935085925064010000000090910473ffffffffffffffffffffffffffffffffffffffff16906370a08231906024015b60206040518083038186803b158015610b5057600080fd5b505afa158015610b64573d6000803e3d6000fd5b505050506040513d601f19601f82011682018060405250810190610b889190614dc3565b600654640100000000900473ffffffffffffffffffffffffffffffffffffffff1691906130c0565b6007546040517f70a08231000000000000000000000000000000000000000000000000000000008152306004820152610c7891849173ffffffffffffffffffffffffffffffffffffffff909116906370a08231906024015b60206040518083038186803b158015610c2057600080fd5b505afa158015610c34573d6000803e3d6000fd5b505050506040513d601f19601f82011682018060405250810190610c589190614dc3565b60075473ffffffffffffffffffffffffffffffffffffffff1691906130c0565b505050565b6040517f6b880718000000000000000000000000000000000000000000000000000000008152306004820152600090819073__$0fb85c1a108326fe5c0d8f2f5a241bc0e7$__90636b8807189060240160206040518083038186803b158015610ce557600080fd5b505af4158015610cf9573d6000803e3d6000fd5b505050506040513d601f19601f82011682018060405250810190610d1d9190614b52565b905073ffffffffffffffffffffffffffffffffffffffff8116301415610d6057505060015474010000000000000000000000000000000000000000900460ff1690565b60015474010000000000000000000000000000000000000000900460ff168061051f57508073ffffffffffffffffffffffffffffffffffffffff16635c975abb6040518163ffffffff1660e01b815260040160206040518083038186803b158015610dca57600080fd5b505afa158015610dde573d6000803e3d6000fd5b505050506040513d601f19601f8201168201806040525081019061051f9190614d2c565b6040517f6b88071800000000000000000000000000000000000000000000000000000000815230600482018190529073__$0fb85c1a108326fe5c0d8f2f5a241bc0e7$__90636b8807189060240160206040518083038186803b158015610e6857600080fd5b505af4158015610e7c573d6000803e3d6000fd5b505050506040513d601f19601f82011682018060405250810190610ea09190614b52565b73ffffffffffffffffffffffffffffffffffffffff161415611055576000610ec66103c3565b6040517f21f8a7210000000000000000000000000000000000000000000000000000000081527f689d13d8ed8ef1027633ba26e7121121cf427434450a529548f19bf175974395600482015273ffffffffffffffffffffffffffffffffffffffff91909116906321f8a7219060240160206040518083038186803b158015610f4d57600080fd5b505afa158015610f61573d6000803e3d6000fd5b505050506040513d601f19601f82011682018060405250810190610f859190614b52565b60015490915073ffffffffffffffffffffffffffffffffffffffff16331480610fc357503373ffffffffffffffffffffffffffffffffffffffff8216145b61104f576040517f08c379a000000000000000000000000000000000000000000000000000000000815260206004820152602260248201527f4175746f6d6174653a2063616c6c6572206973206e6f7420746865207061757360448201527f6572000000000000000000000000000000000000000000000000000000000000606482015260840161076e565b506110fc565b60015473ffffffffffffffffffffffffffffffffffffffff1633146110fc576040517f08c379a000000000000000000000000000000000000000000000000000000000815260206004820152602260248201527f4175746f6d6174653a2063616c6c6572206973206e6f7420746865207061757360448201527f6572000000000000000000000000000000000000000000000000000000000000606482015260840161076e565b611104610c7d565b1561116b576040517f08c379a000000000000000000000000000000000000000000000000000000000815260206004820152601060248201527f4175746f6d6174653a2070617573656400000000000000000000000000000000604482015260640161076e565b600180547fffffffffffffffffffffff00ffffffffffffffffffffffffffffffffffffffff1674010000000000000000000000000000000000000000179055565b836040518060400160405280601f81526020017f50616e63616b65537761704d617374657243686566324c7052657374616b65008152506111ed8282613194565b50600480546003546005546040517f1175a1dd0000000000000000000000000000000000000000000000000000000081529384015230602484015273ffffffffffffffffffffffffffffffffffffffff91821692610100909104909116906000908390631175a1dd9060440160206040518083038186803b15801561127157600080fd5b505afa158015611285573d6000803e3d6000fd5b505050506040513d601f19601f820116820180604052508101906112a99190614dc3565b11611335576040517f08c379a0000000000000000000000000000000000000000000000000000000008152602060048201526024808201527f4d617374657243686566324c7052657374616b653a3a72756e3a206e6f20656160448201527f726e656400000000000000000000000000000000000000000000000000000000606482015260840161076e565b6005546040517fe2bbb15800000000000000000000000000000000000000000000000000000000815260048101919091526000602482015273ffffffffffffffffffffffffffffffffffffffff83169063e2bbb15890604401600060405180830381600087803b1580156113a857600080fd5b505af11580156113bc573d6000803e3d6000fd5b50506007546040517f70a082310000000000000000000000000000000000000000000000000000000081523060048201526000935073ffffffffffffffffffffffffffffffffffffffff90911691506370a082319060240160206040518083038186803b15801561142c57600080fd5b505afa158015611440573d6000803e3d6000fd5b505050506040513d601f19601f820116820180604052508101906114649190614dc3565b60075490915061148b9073ffffffffffffffffffffffffffffffffffffffff168383613466565b6114c16114996002836150e6565b6020890151895173ffffffffffffffffffffffffffffffffffffffff8616929190308d6135f7565b506115026114d06002836150e6565b6114da908361515e565b6020880151885173ffffffffffffffffffffffffffffffffffffffff8616929190308d6135f7565b506000600660049054906101000a900473ffffffffffffffffffffffffffffffffffffffff1690506116498173ffffffffffffffffffffffffffffffffffffffff16630dfe16816040518163ffffffff1660e01b815260040160206040518083038186803b15801561157357600080fd5b505afa158015611587573d6000803e3d6000fd5b505050506040513d601f19601f820116820180604052508101906115ab9190614b52565b8273ffffffffffffffffffffffffffffffffffffffff1663d21220a76040518163ffffffff1660e01b815260040160206040518083038186803b1580156115f157600080fd5b505afa158015611605573d6000803e3d6000fd5b505050506040513d601f19601f820116820180604052508101906116299190614b52565b73ffffffffffffffffffffffffffffffffffffffff86169190308d613747565b50506040517f70a082310000000000000000000000000000000000000000000000000000000081523060048201526000915073ffffffffffffffffffffffffffffffffffffffff8316906370a082319060240160206040518083038186803b1580156116b457600080fd5b505afa1580156116c8573d6000803e3d6000fd5b505050506040513d601f19601f820116820180604052508101906116ec9190614dc3565b60065490915061171b90640100000000900473ffffffffffffffffffffffffffffffffffffffff168683613466565b6005546040517fe2bbb15800000000000000000000000000000000000000000000000000000000815260048101919091526024810182905273ffffffffffffffffffffffffffffffffffffffff86169063e2bbb15890604401600060405180830381600087803b15801561178e57600080fd5b505af11580156117a2573d6000803e3d6000fd5b505050505050505050505050505050565b60015473ffffffffffffffffffffffffffffffffffffffff16331461185a576040517f08c379a000000000000000000000000000000000000000000000000000000000815260206004820152602160248201527f4175746f6d6174653a2063616c6c6572206973206e6f7420746865206f776e6560448201527f7200000000000000000000000000000000000000000000000000000000000000606482015260840161076e565b604051806060016040528085858080602002602001604051908101604052809392919081815260200183836020028082843760009201919091525050509082525060208082018590526040909101839052815180516008926118c09284929101906149aa565b506020820151600182015560409091015160029091015550505050565b816040518060400160405280602081526020017f50616e63616b65537761704d617374657243686566324c7053746f704c6f737381525061191e8282613194565b50600480546005546040517f93f1a40b00000000000000000000000000000000000000000000000000000000815292830181905230602484015273ffffffffffffffffffffffffffffffffffffffff9091169163441a3e70919083906393f1a40b9060440160606040518083038186803b15801561199b57600080fd5b505afa1580156119af573d6000803e3d6000fd5b505050506040513d601f19601f820116820180604052508101906119d39190614d67565b5160405160e084901b7fffffffff0000000000000000000000000000000000000000000000000000000016815260048101929092526024820152604401600060405180830381600087803b158015611a2a57600080fd5b505af1158015611a3e573d6000803e3d6000fd5b505060065460035460009350839250611a809161010090910473ffffffffffffffffffffffffffffffffffffffff908116916401000000009004163088613b5d565b5050604080516002808252606082018352939550919350600092906020830190803683370190505090508281600081518110611abe57611abe6151f0565b602002602001019073ffffffffffffffffffffffffffffffffffffffff16908173ffffffffffffffffffffffffffffffffffffffff16815250508181600181518110611b0c57611b0c6151f0565b73ffffffffffffffffffffffffffffffffffffffff9283166020918202929092010152600354611b46916008916101009004168389613ed6565b6000611b6760015473ffffffffffffffffffffffffffffffffffffffff1690565b60088054919250600091611b7d9060019061515e565b81548110611b8d57611b8d6151f0565b6000918252602090912001546040517f70a0823100000000000000000000000000000000000000000000000000000000815230600482015273ffffffffffffffffffffffffffffffffffffffff9091169150611c5e90839083906370a082319060240160206040518083038186803b158015611c0857600080fd5b505afa158015611c1c573d6000803e3d6000fd5b505050506040513d601f19601f82011682018060405250810190611c409190614dc3565b73ffffffffffffffffffffffffffffffffffffffff841691906130c0565b60075473ffffffffffffffffffffffffffffffffffffffff828116911614611cdc576007546040517f70a08231000000000000000000000000000000000000000000000000000000008152306004820152611cdc91849173ffffffffffffffffffffffffffffffffffffffff909116906370a0823190602401610c08565b505050505050505050565b6040517f6b88071800000000000000000000000000000000000000000000000000000000815230600482015260009073__$0fb85c1a108326fe5c0d8f2f5a241bc0e7$__90636b8807189060240160206040518083038186803b158015611d4d57600080fd5b505af4158015611d61573d6000803e3d6000fd5b505050506040513d601f19601f82011682018060405250810190611d859190614b52565b90503373ffffffffffffffffffffffffffffffffffffffff82163014611e28578173ffffffffffffffffffffffffffffffffffffffff16638da5cb5b6040518163ffffffff1660e01b815260040160206040518083038186803b158015611deb57600080fd5b505afa158015611dff573d6000803e3d6000fd5b505050506040513d601f19601f82011682018060405250810190611e239190614b52565b611e42565b60015473ffffffffffffffffffffffffffffffffffffffff165b73ffffffffffffffffffffffffffffffffffffffff1614611ee5576040517f08c379a000000000000000000000000000000000000000000000000000000000815260206004820152603d60248201527f4175746f6d6174653a3a6368616e676550726f746f636f6c4665653a2063616c60448201527f6c6572206973206e6f74207468652070726f746f636f6c206f776e6572000000606482015260840161076e565b60028290556040518281527f3c1d43943224e49d951ce8295a5c8332b517083b3f89bed50feae2cb39caebb59060200160405180910390a15050565b6040517f6b880718000000000000000000000000000000000000000000000000000000008152306004820152600090819073__$0fb85c1a108326fe5c0d8f2f5a241bc0e7$__90636b8807189060240160206040518083038186803b158015611f8957600080fd5b505af4158015611f9d573d6000803e3d6000fd5b505050506040513d601f19601f82011682018060405250810190611fc19190614b52565b905073ffffffffffffffffffffffffffffffffffffffff81163014801590611feb57506000600254125b1561206e578073ffffffffffffffffffffffffffffffffffffffff1663b0e21e8a6040518163ffffffff1660e01b815260040160206040518083038186803b15801561203657600080fd5b505afa15801561204a573d6000803e3d6000fd5b505050506040513d601f19601f8201168201806040525081019061051f9190614dc3565b60006120786103c3565b90506000806002541261208d5760025461214a565b6040517fbd02d0f50000000000000000000000000000000000000000000000000000000081527fa93d95f96a5de25d7a41ddf1f5e8d45cfc929c4838163cf011dab4043a4a40d5600482015273ffffffffffffffffffffffffffffffffffffffff83169063bd02d0f59060240160206040518083038186803b15801561211257600080fd5b505afa158015612126573d6000803e3d6000fd5b505050506040513d601f19601f8201168201806040525081019061214a9190614dc3565b90508061215b576000935050505090565b6040517f21f8a7210000000000000000000000000000000000000000000000000000000081527f65c90423fe7c880476633a7e36521740f87199d233dc56eb4ca6643eb76f605f600482015260009073ffffffffffffffffffffffffffffffffffffffff8416906321f8a7219060240160206040518083038186803b1580156121e357600080fd5b505afa1580156121f7573d6000803e3d6000fd5b505050506040513d601f19601f8201168201806040525081019061221b9190614b52565b73ffffffffffffffffffffffffffffffffffffffff1663feaf968c6040518163ffffffff1660e01b815260040160a06040518083038186803b15801561226057600080fd5b505afa158015612274573d6000803e3d6000fd5b505050506040513d601f19601f820116820180604052508101906122989190614ec7565b50505091505060008113612308576040517f08c379a000000000000000000000000000000000000000000000000000000000815260206004820152601760248201527f4175746f6d6174653a20696e76616c6964207072696365000000000000000000604482015260640161076e565b8061231b83670de0b6b3a7640000615121565b61232591906150e6565b94505050505090565b60015473ffffffffffffffffffffffffffffffffffffffff1633146123d5576040517f08c379a000000000000000000000000000000000000000000000000000000000815260206004820152602160248201527f4175746f6d6174653a2063616c6c6572206973206e6f7420746865206f776e6560448201527f7200000000000000000000000000000000000000000000000000000000000000606482015260840161076e565b600654640100000000900473ffffffffffffffffffffffffffffffffffffffff1661240281333085614654565b6004546124299073ffffffffffffffffffffffffffffffffffffffff838116911684613466565b600480546005546040517fe2bbb158000000000000000000000000000000000000000000000000000000008152928301526024820184905273ffffffffffffffffffffffffffffffffffffffff169063e2bbb15890604401600060405180830381600087803b15801561249b57600080fd5b505af11580156124af573d6000803e3d6000fd5b505050505050565b60015473ffffffffffffffffffffffffffffffffffffffff1661252757600180547fffffffffffffffffffffffff000000000000000000000000000000000000000016321790557fffffffffffffffffffffffffffffffffffffffffffffffffffffffffffffffff6002556125ce565b60015473ffffffffffffffffffffffffffffffffffffffff1633146125ce576040517f08c379a000000000000000000000000000000000000000000000000000000000815260206004820152602160248201527f4175746f6d6174653a2063616c6c6572206973206e6f7420746865206f776e6560448201527f7200000000000000000000000000000000000000000000000000000000000000606482015260840161076e565b60035460ff1615806125fa575060045473ffffffffffffffffffffffffffffffffffffffff8681169116145b6126ac576040517f08c379a000000000000000000000000000000000000000000000000000000000815260206004820152604260248201527f4d617374657243686566324c7052657374616b653a3a696e69743a207265696e60448201527f697469616c697a65207374616b696e67206164647265737320666f726269646460648201527f656e000000000000000000000000000000000000000000000000000000000000608482015260a40161076e565b600480547fffffffffffffffffffffffff00000000000000000000000000000000000000001673ffffffffffffffffffffffffffffffffffffffff871617905560035460ff16158061271d575060035473ffffffffffffffffffffffffffffffffffffffff85811661010090920416145b6127cf576040517f08c379a000000000000000000000000000000000000000000000000000000000815260206004820152604b60248201527f4d617374657243686566324c7052657374616b653a3a696e69743a207265696e60448201527f697469616c697a65206c697175696469747920726f757465722061646472657360648201527f7320666f7262696464656e000000000000000000000000000000000000000000608482015260a40161076e565b6003805473ffffffffffffffffffffffffffffffffffffffff8616610100027fffffffffffffffffffffff0000000000000000000000000000000000000000ff8216811790925560ff918216911617158061282b575082600554145b6128b7576040517f08c379a000000000000000000000000000000000000000000000000000000000815260206004820152603d60248201527f4d617374657243686566324c7052657374616b653a3a696e69743a207265696e60448201527f697469616c697a6520706f6f6c20696e64657820666f7262696464656e000000606482015260840161076e565b60058390556006805461ffff83811662010000027fffffffffffffffffffffffffffffffffffffffffffffffffffffffff000000009092169085161717905560035460ff16612ac857600480546005546040517f78ed5d1f0000000000000000000000000000000000000000000000000000000081529283015260009173ffffffffffffffffffffffffffffffffffffffff909116906378ed5d1f9060240160206040518083038186803b15801561296e57600080fd5b505afa158015612982573d6000803e3d6000fd5b505050506040513d601f19601f820116820180604052508101906129a69190614b52565b6006805473ffffffffffffffffffffffffffffffffffffffff808416640100000000027fffffffffffffffff0000000000000000000000000000000000000000ffffffff9092169190911790915560048054604080517f4ca6ef280000000000000000000000000000000000000000000000000000000081529051949550921692634ca6ef28928083019260209291829003018186803b158015612a4957600080fd5b505afa158015612a5d573d6000803e3d6000fd5b505050506040513d601f19601f82011682018060405250810190612a819190614b52565b600780547fffffffffffffffffffffffff00000000000000000000000000000000000000001673ffffffffffffffffffffffffffffffffffffffff92909216919091179055505b5050600380547fffffffffffffffffffffffffffffffffffffffffffffffffffffffffffffff00166001179055505050565b60015473ffffffffffffffffffffffffffffffffffffffff163314612ba1576040517f08c379a000000000000000000000000000000000000000000000000000000000815260206004820152602160248201527f4175746f6d6174653a2063616c6c6572206973206e6f7420746865206f776e6560448201527f7200000000000000000000000000000000000000000000000000000000000000606482015260840161076e565b6040517fa9059cbb00000000000000000000000000000000000000000000000000000000815273ffffffffffffffffffffffffffffffffffffffff83811660048301526024820183905284169063a9059cbb90604401602060405180830381600087803b158015612c1157600080fd5b505af1158015612c25573d6000803e3d6000fd5b505050506040513d601f19601f82011682018060405250810190612c499190614d2c565b50505050565b60015473ffffffffffffffffffffffffffffffffffffffff163314612cf6576040517f08c379a000000000000000000000000000000000000000000000000000000000815260206004820152602160248201527f4175746f6d6174653a2063616c6c6572206973206e6f7420746865206f776e6560448201527f7200000000000000000000000000000000000000000000000000000000000000606482015260840161076e565b6000612d1760015473ffffffffffffffffffffffffffffffffffffffff1690565b600480546005546040517f5312ea8e0000000000000000000000000000000000000000000000000000000081529283015291925073ffffffffffffffffffffffffffffffffffffffff90911690635312ea8e90602401600060405180830381600087803b158015612d8757600080fd5b505af1158015612d9b573d6000803e3d6000fd5b50506006546040517f70a08231000000000000000000000000000000000000000000000000000000008152306004820152612e02935084925064010000000090910473ffffffffffffffffffffffffffffffffffffffff16906370a0823190602401610b38565b6007546040517f70a08231000000000000000000000000000000000000000000000000000000008152306004820152612e5e91839173ffffffffffffffffffffffffffffffffffffffff909116906370a0823190602401610c08565b50565b60015473ffffffffffffffffffffffffffffffffffffffff163314612f08576040517f08c379a000000000000000000000000000000000000000000000000000000000815260206004820152602160248201527f4175746f6d6174653a2063616c6c6572206973206e6f7420746865206f776e6560448201527f7200000000000000000000000000000000000000000000000000000000000000606482015260840161076e565b6040517f6b88071800000000000000000000000000000000000000000000000000000000815230600482018190529073__$0fb85c1a108326fe5c0d8f2f5a241bc0e7$__90636b8807189060240160206040518083038186803b158015612f6e57600080fd5b505af4158015612f82573d6000803e3d6000fd5b505050506040513d601f19601f82011682018060405250810190612fa69190614b52565b73ffffffffffffffffffffffffffffffffffffffff1614613049576040517f08c379a000000000000000000000000000000000000000000000000000000000815260206004820152602160248201527f4175746f6d6174653a206368616e676520746865206f776e6572206661696c6560448201527f6400000000000000000000000000000000000000000000000000000000000000606482015260840161076e565b6001805473ffffffffffffffffffffffffffffffffffffffff8381167fffffffffffffffffffffffff0000000000000000000000000000000000000000831681179093556040519116919082907f8be0079c531659141344cd1fd0a4f28419497f9722a3daafe3b4186f6b6457e090600090a35050565b60405173ffffffffffffffffffffffffffffffffffffffff8316602482015260448101829052610c789084907fa9059cbb00000000000000000000000000000000000000000000000000000000906064015b604080517fffffffffffffffffffffffffffffffffffffffffffffffffffffffffffffffe08184030181529190526020810180517bffffffffffffffffffffffffffffffffffffffffffffffffffffffff167fffffffff00000000000000000000000000000000000000000000000000000000909316929092179091526146b2565b600061319e610c7d565b15613205576040517f08c379a000000000000000000000000000000000000000000000000000000000815260206004820152601060248201527f4175746f6d6174653a2070617573656400000000000000000000000000000000604482015260640161076e565b600061322660015473ffffffffffffffffffffffffffffffffffffffff1690565b90503273ffffffffffffffffffffffffffffffffffffffff82161415613250576000915050613460565b600061325a6103c3565b6040517f21f8a7210000000000000000000000000000000000000000000000000000000081527fe78c16c6d839536d3155985aab4e9c6013c8c3d446054bcebc48612f359d81f5600482015290915060009073ffffffffffffffffffffffffffffffffffffffff8316906321f8a7219060240160206040518083038186803b1580156132e557600080fd5b505afa1580156132f9573d6000803e3d6000fd5b505050506040513d601f19601f8201168201806040525081019061331d9190614b52565b905073ffffffffffffffffffffffffffffffffffffffff81166133c2576040517f08c379a000000000000000000000000000000000000000000000000000000000815260206004820152602b60248201527f4175746f6d6174653a3a5f62696c6c3a2062616c616e636520636f6e7472616360448201527f74206e6f7420666f756e64000000000000000000000000000000000000000000606482015260840161076e565b8073ffffffffffffffffffffffffffffffffffffffff1663e578a22584886133e8611f21565b896040518563ffffffff1660e01b81526004016134089493929190614f71565b602060405180830381600087803b15801561342257600080fd5b505af1158015613436573d6000803e3d6000fd5b505050506040513d601f19601f8201168201806040525081019061345a9190614dc3565b93505050505b92915050565b80158061351557506040517fdd62ed3e00000000000000000000000000000000000000000000000000000000815230600482015273ffffffffffffffffffffffffffffffffffffffff838116602483015284169063dd62ed3e9060440160206040518083038186803b1580156134db57600080fd5b505afa1580156134ef573d6000803e3d6000fd5b505050506040513d601f19601f820116820180604052508101906135139190614dc3565b155b6135a1576040517f08c379a000000000000000000000000000000000000000000000000000000000815260206004820152603660248201527f5361666545524332303a20617070726f76652066726f6d206e6f6e2d7a65726f60448201527f20746f206e6f6e2d7a65726f20616c6c6f77616e636500000000000000000000606482015260840161076e565b60405173ffffffffffffffffffffffffffffffffffffffff8316602482015260448101829052610c789084907f095ea7b30000000000000000000000000000000000000000000000000000000090606401613112565b60608360018551613608919061515e565b81518110613618576136186151f0565b602002602001015173ffffffffffffffffffffffffffffffffffffffff1684600081518110613649576136496151f0565b602002602001015173ffffffffffffffffffffffffffffffffffffffff161461373d576040517f38ed173900000000000000000000000000000000000000000000000000000000815273ffffffffffffffffffffffffffffffffffffffff8816906338ed1739906136c69089908990899089908990600401614fbf565b600060405180830381600087803b1580156136e057600080fd5b505af11580156136f4573d6000803e3d6000fd5b505050506040513d6000823e601f3d9081017fffffffffffffffffffffffffffffffffffffffffffffffffffffffffffffffe016820160405261373a9190810190614c94565b90505b9695505050505050565b6040517f70a0823100000000000000000000000000000000000000000000000000000000815230600482015260009081908190819073ffffffffffffffffffffffffffffffffffffffff8916906370a082319060240160206040518083038186803b1580156137b557600080fd5b505afa1580156137c9573d6000803e3d6000fd5b505050506040513d601f19601f820116820180604052508101906137ed9190614dc3565b6040517fdd62ed3e00000000000000000000000000000000000000000000000000000000815230600482015273ffffffffffffffffffffffffffffffffffffffff8b811660248301529192506000918a169063dd62ed3e9060440160206040518083038186803b15801561386057600080fd5b505afa158015613874573d6000803e3d6000fd5b505050506040513d601f19601f820116820180604052508101906138989190614dc3565b11156138c0576138c073ffffffffffffffffffffffffffffffffffffffff89168a6000613466565b6138e173ffffffffffffffffffffffffffffffffffffffff89168a83613466565b6040517f70a0823100000000000000000000000000000000000000000000000000000000815230600482015260009073ffffffffffffffffffffffffffffffffffffffff8916906370a082319060240160206040518083038186803b15801561394957600080fd5b505afa15801561395d573d6000803e3d6000fd5b505050506040513d601f19601f820116820180604052508101906139819190614dc3565b6040517fdd62ed3e00000000000000000000000000000000000000000000000000000000815230600482015273ffffffffffffffffffffffffffffffffffffffff8c811660248301529192506000918a169063dd62ed3e9060440160206040518083038186803b1580156139f457600080fd5b505afa158015613a08573d6000803e3d6000fd5b505050506040513d601f19601f82011682018060405250810190613a2c9190614dc3565b1115613a5457613a5473ffffffffffffffffffffffffffffffffffffffff89168b6000613466565b613a7573ffffffffffffffffffffffffffffffffffffffff89168b83613466565b6040517fe8e3370000000000000000000000000000000000000000000000000000000000815273ffffffffffffffffffffffffffffffffffffffff8a811660048301528981166024830152604482018490526064820183905260006084830181905260a483015288811660c483015260e482018890528b169063e8e337009061010401606060405180830381600087803b158015613b1257600080fd5b505af1158015613b26573d6000803e3d6000fd5b505050506040513d601f19601f82011682018060405250810190613b4a9190614e99565b9450945094505050955095509592505050565b6000806000808673ffffffffffffffffffffffffffffffffffffffff16630dfe16816040518163ffffffff1660e01b815260040160206040518083038186803b158015613ba957600080fd5b505afa158015613bbd573d6000803e3d6000fd5b505050506040513d601f19601f82011682018060405250810190613be19190614b52565b93508673ffffffffffffffffffffffffffffffffffffffff1663d21220a76040518163ffffffff1660e01b815260040160206040518083038186803b158015613c2957600080fd5b505afa158015613c3d573d6000803e3d6000fd5b505050506040513d601f19601f82011682018060405250810190613c619190614b52565b6040517f70a0823100000000000000000000000000000000000000000000000000000000815230600482015290935060009073ffffffffffffffffffffffffffffffffffffffff8916906370a082319060240160206040518083038186803b158015613ccc57600080fd5b505afa158015613ce0573d6000803e3d6000fd5b505050506040513d601f19601f82011682018060405250810190613d049190614dc3565b6040517fdd62ed3e00000000000000000000000000000000000000000000000000000000815230600482015273ffffffffffffffffffffffffffffffffffffffff8b811660248301529192506000918a169063dd62ed3e9060440160206040518083038186803b158015613d7757600080fd5b505afa158015613d8b573d6000803e3d6000fd5b505050506040513d601f19601f82011682018060405250810190613daf9190614dc3565b1115613dd757613dd773ffffffffffffffffffffffffffffffffffffffff89168a6000613466565b613df873ffffffffffffffffffffffffffffffffffffffff89168a83613466565b6040517fbaa2abde00000000000000000000000000000000000000000000000000000000815273ffffffffffffffffffffffffffffffffffffffff8681166004830152858116602483015260448201839052600060648301819052608483015288811660a483015260c482018890528a169063baa2abde9060e4016040805180830381600087803b158015613e8c57600080fd5b505af1158015613ea0573d6000803e3d6000fd5b505050506040513d601f19601f82011682018060405250810190613ec49190614dfe565b959a9499509750939550919350505050565b83546001108015613eeb575060008460010154115b613f77576040517f08c379a000000000000000000000000000000000000000000000000000000000815260206004820152602160248201527f53746f704c6f73733a3a72756e3a2073746f70206c6f73732064697361626c6560448201527f6400000000000000000000000000000000000000000000000000000000000000606482015260840161076e565b6101008251111561400a576040517f08c379a000000000000000000000000000000000000000000000000000000000815260206004820152602160248201527f53746f704c6f73733a3a72756e3a20746f6f206d616e7920696e20746f6b656e60448201527f7300000000000000000000000000000000000000000000000000000000000000606482015260840161076e565b60005b82518160ff16101561425f576000838260ff1681518110614030576140306151f0565b6020026020010151905085600001600081548110614050576140506151f0565b60009182526020909120015473ffffffffffffffffffffffffffffffffffffffff82811691161415614082575061424d565b6040517f70a0823100000000000000000000000000000000000000000000000000000000815230600482015260009073ffffffffffffffffffffffffffffffffffffffff8316906370a082319060240160206040518083038186803b1580156140ea57600080fd5b505afa1580156140fe573d6000803e3d6000fd5b505050506040513d601f19601f820116820180604052508101906141229190614dc3565b90508061413057505061424d565b6040805160028082526060820183526000926020830190803683370190505090508281600081518110614165576141656151f0565b602002602001019073ffffffffffffffffffffffffffffffffffffffff16908173ffffffffffffffffffffffffffffffffffffffff1681525050876000016000815481106141b5576141b56151f0565b9060005260206000200160009054906101000a900473ffffffffffffffffffffffffffffffffffffffff16816001815181106141f3576141f36151f0565b73ffffffffffffffffffffffffffffffffffffffff92831660209182029290920101526142239084168884613466565b61424873ffffffffffffffffffffffffffffffffffffffff881683600084308a6135f7565b505050505b80614257816151a1565b91505061400d565b50600084600001600081548110614278576142786151f0565b60009182526020822001546040517f70a0823100000000000000000000000000000000000000000000000000000000815230600482015273ffffffffffffffffffffffffffffffffffffffff909116925082906370a082319060240160206040518083038186803b1580156142ec57600080fd5b505afa158015614300573d6000803e3d6000fd5b505050506040513d601f19601f820116820180604052508101906143249190614dc3565b8654909150600090879061433a9060019061515e565b8154811061434a5761434a6151f0565b60009182526020909120015473ffffffffffffffffffffffffffffffffffffffff8481169116146145825760008211614405576040517f08c379a000000000000000000000000000000000000000000000000000000000815260206004820152603160248201527f53746f704c6f73733a3a72756e3a20696e73756666696369656e742062616c6160448201527f6e6365206f66206261736520746f6b656e000000000000000000000000000000606482015260840161076e565b61442673ffffffffffffffffffffffffffffffffffffffff84168784613466565b60006144be8389600201548a60000180548060200260200160405190810160405280929190818152602001828054801561449657602002820191906000526020600020905b815473ffffffffffffffffffffffffffffffffffffffff16815260019091019060200180831161446b575b50505073ffffffffffffffffffffffffffffffffffffffff8d1694939291503090508a6135f7565b905080600182516144cf919061515e565b815181106144df576144df6151f0565b60200260200101519150876001015482111561457c576040517f08c379a0000000000000000000000000000000000000000000000000000000008152602060048201526024808201527f53746f704c6f73733a3a72756e3a20696e76616c6964206f757470757420616d60448201527f6f756e7400000000000000000000000000000000000000000000000000000000606482015260840161076e565b50614618565b8190508660010154811115614618576040517f08c379a0000000000000000000000000000000000000000000000000000000008152602060048201526024808201527f53746f704c6f73733a3a72756e3a20696e76616c6964206f757470757420616d60448201527f6f756e7400000000000000000000000000000000000000000000000000000000606482015260840161076e565b6040518181527ff22ed879bd57fced893edba2366c8143c0d7c2e585eafd2521c2832159d557f19060200160405180910390a150505050505050565b60405173ffffffffffffffffffffffffffffffffffffffff80851660248301528316604482015260648101829052612c499085907f23b872dd0000000000000000000000000000000000000000000000000000000090608401613112565b6000614714826040518060400160405280602081526020017f5361666545524332303a206c6f772d6c6576656c2063616c6c206661696c65648152508573ffffffffffffffffffffffffffffffffffffffff166147be9092919063ffffffff16565b805190915015610c7857808060200190518101906147329190614d2c565b610c78576040517f08c379a000000000000000000000000000000000000000000000000000000000815260206004820152602a60248201527f5361666545524332303a204552433230206f7065726174696f6e20646964206e60448201527f6f74207375636365656400000000000000000000000000000000000000000000606482015260840161076e565b60606147cd84846000856147d7565b90505b9392505050565b606082471015614869576040517f08c379a000000000000000000000000000000000000000000000000000000000815260206004820152602660248201527f416464726573733a20696e73756666696369656e742062616c616e636520666f60448201527f722063616c6c0000000000000000000000000000000000000000000000000000606482015260840161076e565b843b6148d1576040517f08c379a000000000000000000000000000000000000000000000000000000000815260206004820152601d60248201527f416464726573733a2063616c6c20746f206e6f6e2d636f6e7472616374000000604482015260640161076e565b6000808673ffffffffffffffffffffffffffffffffffffffff1685876040516148fa9190614f55565b60006040518083038185875af1925050503d8060008114614937576040519150601f19603f3d011682016040523d82523d6000602084013e61493c565b606091505b509150915061494c828286614957565b979650505050505050565b606083156149665750816147d0565b8251156149765782518084602001fd5b816040517f08c379a000000000000000000000000000000000000000000000000000000000815260040161076e9190614fac565b828054828255906000526020600020908101928215614a24579160200282015b82811115614a2457825182547fffffffffffffffffffffffff00000000000000000000000000000000000000001673ffffffffffffffffffffffffffffffffffffffff9091161782556020909201916001909101906149ca565b50614a30929150614a34565b5090565b5b80821115614a305760008155600101614a35565b600060408284031215614a5b57600080fd5b614a6361504a565b9050813567ffffffffffffffff811115614a7c57600080fd5b8201601f81018413614a8d57600080fd5b80356020614aa2614a9d836150c2565b615073565b80838252828201915082850188848660051b8801011115614ac257600080fd5b600095505b84861015614aee578035614ada8161524e565b835260019590950194918301918301614ac7565b5085525093840135938301939093525092915050565b803561ffff81168114614b1657600080fd5b919050565b805169ffffffffffffffffffff81168114614b1657600080fd5b600060208284031215614b4757600080fd5b81356147d08161524e565b600060208284031215614b6457600080fd5b81516147d08161524e565b600080600060608486031215614b8457600080fd5b8335614b8f8161524e565b92506020840135614b9f8161524e565b929592945050506040919091013590565b600080600080600060a08688031215614bc857600080fd5b8535614bd38161524e565b94506020860135614be38161524e565b935060408601359250614bf860608701614b04565b9150614c0660808701614b04565b90509295509295909350565b60008060008060608587031215614c2857600080fd5b843567ffffffffffffffff80821115614c4057600080fd5b818701915087601f830112614c5457600080fd5b813581811115614c6357600080fd5b8860208260051b8501011115614c7857600080fd5b6020928301999098509187013596604001359550909350505050565b60006020808385031215614ca757600080fd5b825167ffffffffffffffff811115614cbe57600080fd5b8301601f81018513614ccf57600080fd5b8051614cdd614a9d826150c2565b80828252848201915084840188868560051b8701011115614cfd57600080fd5b600094505b83851015614d20578051835260019490940193918501918501614d02565b50979650505050505050565b600060208284031215614d3e57600080fd5b815180151581146147d057600080fd5b600060208284031215614d6057600080fd5b5035919050565b600060608284031215614d7957600080fd5b6040516060810181811067ffffffffffffffff82111715614d9c57614d9c61521f565b80604052508251815260208301516020820152604083015160408201528091505092915050565b600060208284031215614dd557600080fd5b5051919050565b60008060408385031215614def57600080fd5b50508035926020909101359150565b60008060408385031215614e1157600080fd5b505080516020909101519092909150565b60008060008060808587031215614e3857600080fd5b8435935060208501359250604085013567ffffffffffffffff80821115614e5e57600080fd5b614e6a88838901614a49565b93506060870135915080821115614e8057600080fd5b50614e8d87828801614a49565b91505092959194509250565b600080600060608486031215614eae57600080fd5b8351925060208401519150604084015190509250925092565b600080600080600060a08688031215614edf57600080fd5b614ee886614b1b565b9450602086015193506040860151925060608601519150614c0660808701614b1b565b60008151808452614f23816020860160208601615175565b601f017fffffffffffffffffffffffffffffffffffffffffffffffffffffffffffffffe0169290920160200192915050565b60008251614f67818460208701615175565b9190910192915050565b73ffffffffffffffffffffffffffffffffffffffff8516815283602082015282604082015260806060820152600061373d6080830184614f0b565b6020815260006147d06020830184614f0b565b600060a082018783526020878185015260a0604085015281875180845260c086019150828901935060005b8181101561501c57845173ffffffffffffffffffffffffffffffffffffffff1683529383019391830191600101614fea565b505073ffffffffffffffffffffffffffffffffffffffff969096166060850152505050608001529392505050565b6040805190810167ffffffffffffffff8111828210171561506d5761506d61521f565b60405290565b604051601f82017fffffffffffffffffffffffffffffffffffffffffffffffffffffffffffffffe016810167ffffffffffffffff811182821017156150ba576150ba61521f565b604052919050565b600067ffffffffffffffff8211156150dc576150dc61521f565b5060051b60200190565b60008261511c577f4e487b7100000000000000000000000000000000000000000000000000000000600052601260045260246000fd5b500490565b6000817fffffffffffffffffffffffffffffffffffffffffffffffffffffffffffffffff0483118215151615615159576151596151c1565b500290565b600082821015615170576151706151c1565b500390565b60005b83811015615190578181015183820152602001615178565b83811115612c495750506000910152565b600060ff821660ff8114156151b8576151b86151c1565b60010192915050565b7f4e487b7100000000000000000000000000000000000000000000000000000000600052601160045260246000fd5b7f4e487b7100000000000000000000000000000000000000000000000000000000600052603260045260246000fd5b7f4e487b7100000000000000000000000000000000000000000000000000000000600052604160045260246000fd5b73ffffffffffffffffffffffffffffffffffffffff81168114612e5e57600080fdfea164736f6c6343000806000a",
  "linkReferences": {
    "contracts/utils/DFH/proxy/ERC1167.sol": {
      "ERC1167": [
        {
          "length": 20,
          "start": 1185
        },
        {
          "length": 20,
          "start": 1537
        },
        {
          "length": 20,
          "start": 3419
        },
        {
          "length": 20,
          "start": 3806
        },
        {
          "length": 20,
          "start": 7619
        },
        {
          "length": 20,
          "start": 8191
        },
        {
          "length": 20,
          "start": 12260
        }
      ]
    }
  },
  "deployedLinkReferences": {
    "contracts/utils/DFH/proxy/ERC1167.sol": {
      "ERC1167": [
        {
          "length": 20,
          "start": 1014
        },
        {
          "length": 20,
          "start": 1366
        },
        {
          "length": 20,
          "start": 3248
        },
        {
          "length": 20,
          "start": 3635
        },
        {
          "length": 20,
          "start": 7448
        },
        {
          "length": 20,
          "start": 8020
        },
        {
          "length": 20,
          "start": 12089
        }
      ]
    }
  }
}