{
  "_format": "hh-sol-artifact-1",
  "contractName": "Test",
  "sourceName": "contracts/Test.sol",
  "abi": [
    {
      "inputs": [
        {
          "internalType": "address",
          "name": "_positionManager",
          "type": "address"
        },
        {
          "internalType": "address",
          "name": "_liquidityRouter",
          "type": "address"
        }
      ],
      "stateMutability": "nonpayable",
      "type": "constructor"
    },
    {
      "inputs": [
        {
          "internalType": "uint256",
          "name": "tokenId",
          "type": "uint256"
        }
      ],
      "name": "burn",
      "outputs": [],
      "stateMutability": "nonpayable",
      "type": "function"
    },
    {
      "inputs": [],
      "name": "liquidityRouter",
      "outputs": [
        {
          "internalType": "address",
          "name": "",
          "type": "address"
        }
      ],
      "stateMutability": "view",
      "type": "function"
    },
    {
      "inputs": [
        {
          "internalType": "address",
          "name": "",
          "type": "address"
        },
        {
          "internalType": "address",
          "name": "",
          "type": "address"
        },
        {
          "internalType": "uint256",
          "name": "",
          "type": "uint256"
        },
        {
          "internalType": "bytes",
          "name": "",
          "type": "bytes"
        }
      ],
      "name": "onERC721Received",
      "outputs": [
        {
          "internalType": "bytes4",
          "name": "",
          "type": "bytes4"
        }
      ],
      "stateMutability": "nonpayable",
      "type": "function"
    },
    {
      "inputs": [],
      "name": "positionManager",
      "outputs": [
        {
          "internalType": "address",
          "name": "",
          "type": "address"
        }
      ],
      "stateMutability": "view",
      "type": "function"
    },
    {
      "inputs": [
        {
          "internalType": "uint256",
          "name": "amountIn",
          "type": "uint256"
        },
        {
          "internalType": "address[]",
          "name": "path",
          "type": "address[]"
        }
      ],
      "name": "swap",
      "outputs": [],
      "stateMutability": "nonpayable",
      "type": "function"
    }
  ],
  "bytecode": "0x608060405234801561001057600080fd5b5060405161152038038061152083398101604081905261002f9161007c565b600080546001600160a01b039384166001600160a01b031991821617909155600180549290931691161790556100af565b80516001600160a01b038116811461007757600080fd5b919050565b6000806040838503121561008f57600080fd5b61009883610060565b91506100a660208401610060565b90509250929050565b611462806100be6000396000f3fe608060405234801561001057600080fd5b50600436106100675760003560e01c806342966c681161005057806342966c681461011f578063791b98bc14610134578063e34b5c821461015457600080fd5b8063150b7a021461006c57806324702944146100da575b600080fd5b6100a461007a366004610f4a565b7f150b7a023d4804d13e8c85fb27262cb750cf6ba9f9dd3bb30d90f482ceeb4b1f95945050505050565b6040517fffffffff0000000000000000000000000000000000000000000000000000000090911681526020015b60405180910390f35b6001546100fa9073ffffffffffffffffffffffffffffffffffffffff1681565b60405173ffffffffffffffffffffffffffffffffffffffff90911681526020016100d1565b61013261012d36600461100b565b610167565b005b6000546100fa9073ffffffffffffffffffffffffffffffffffffffff1681565b61013261016236600461103d565b610632565b600080546040517f99fbab880000000000000000000000000000000000000000000000000000000081526004810184905273ffffffffffffffffffffffffffffffffffffffff90911691908190819084906399fbab88906024016101806040518083038186803b1580156101da57600080fd5b505afa1580156101ee573d6000803e3d6000fd5b505050506040513d601f19601f820116820180604052508101906102129190611157565b5050505097505050509450945050508373ffffffffffffffffffffffffffffffffffffffff166342842e0e3330886040518463ffffffff1660e01b815260040161028a9392919073ffffffffffffffffffffffffffffffffffffffff9384168152919092166020820152604081019190915260600190565b600060405180830381600087803b1580156102a457600080fd5b505af11580156102b8573d6000803e3d6000fd5b50506040805160a0810182528881526fffffffffffffffffffffffffffffffff85811660208301908152600083850181815260608501918252426080860190815295517f0c49ccbe00000000000000000000000000000000000000000000000000000000815294516004860152915190921660248401525160448301525160648201529051608482015273ffffffffffffffffffffffffffffffffffffffff87169250630c49ccbe915060a4016040805180830381600087803b15801561037e57600080fd5b505af1158015610392573d6000803e3d6000fd5b505050506040513d601f19601f820116820180604052508101906103b69190611133565b50506040805160808101825286815230602082019081526fffffffffffffffffffffffffffffffff8284018181526060840182815294517ffc6f786500000000000000000000000000000000000000000000000000000000815293516004850152915173ffffffffffffffffffffffffffffffffffffffff9081166024850152915181166044840152925190921660648201529085169063fc6f7865906084016040805180830381600087803b15801561046f57600080fd5b505af1158015610483573d6000803e3d6000fd5b505050506040513d601f19601f820116820180604052508101906104a79190611133565b50506040517f70a0823100000000000000000000000000000000000000000000000000000000815230600482015261056a90339073ffffffffffffffffffffffffffffffffffffffff8616906370a082319060240160206040518083038186803b15801561051457600080fd5b505afa158015610528573d6000803e3d6000fd5b505050506040513d601f19601f8201168201806040525081019061054c9190611024565b73ffffffffffffffffffffffffffffffffffffffff8616919061091f565b6040517f70a0823100000000000000000000000000000000000000000000000000000000815230600482015261062b90339073ffffffffffffffffffffffffffffffffffffffff8516906370a082319060240160206040518083038186803b1580156105d557600080fd5b505afa1580156105e9573d6000803e3d6000fd5b505050506040513d601f19601f8201168201806040525081019061060d9190611024565b73ffffffffffffffffffffffffffffffffffffffff8516919061091f565b5050505050565b6106793330848460008151811061064b5761064b6113d2565b602002602001015173ffffffffffffffffffffffffffffffffffffffff166109f8909392919063ffffffff16565b60015481516106d99173ffffffffffffffffffffffffffffffffffffffff1690849084906000906106ac576106ac6113d2565b602002602001015173ffffffffffffffffffffffffffffffffffffffff16610a5c9092919063ffffffff16565b6000816000815181106106ee576106ee6113d2565b6020026020010151604051602001610731919060609190911b7fffffffffffffffffffffffffffffffffffffffff00000000000000000000000016815260140190565b604080517fffffffffffffffffffffffffffffffffffffffffffffffffffffffffffffffe0818403018152919052905060015b82518110156108515781610bb8848381518110610783576107836113d2565b60200260200101516040516020016107f192919060e89290921b7fffffff000000000000000000000000000000000000000000000000000000000016825260601b7fffffffffffffffffffffffffffffffffffffffff00000000000000000000000016600382015260170190565b604080517fffffffffffffffffffffffffffffffffffffffffffffffffffffffffffffffe08184030181529082905261082d929160200161129e565b6040516020818303038152906040529150808061084990611372565b915050610764565b506040805160a0810182528281523360208201524281830152606081018590526000608082015260015491517fc04b8d59000000000000000000000000000000000000000000000000000000008152909173ffffffffffffffffffffffffffffffffffffffff169063c04b8d59906108cd9084906004016112e0565b602060405180830381600087803b1580156108e757600080fd5b505af11580156108fb573d6000803e3d6000fd5b505050506040513d601f19601f8201168201806040525081019061062b9190611024565b60405173ffffffffffffffffffffffffffffffffffffffff83166024820152604481018290526109f39084907fa9059cbb00000000000000000000000000000000000000000000000000000000906064015b604080517fffffffffffffffffffffffffffffffffffffffffffffffffffffffffffffffe08184030181529190526020810180517bffffffffffffffffffffffffffffffffffffffffffffffffffffffff167fffffffff0000000000000000000000000000000000000000000000000000000090931692909217909152610bf2565b505050565b60405173ffffffffffffffffffffffffffffffffffffffff80851660248301528316604482015260648101829052610a569085907f23b872dd0000000000000000000000000000000000000000000000000000000090608401610971565b50505050565b801580610b0b57506040517fdd62ed3e00000000000000000000000000000000000000000000000000000000815230600482015273ffffffffffffffffffffffffffffffffffffffff838116602483015284169063dd62ed3e9060440160206040518083038186803b158015610ad157600080fd5b505afa158015610ae5573d6000803e3d6000fd5b505050506040513d601f19601f82011682018060405250810190610b099190611024565b155b610b9c576040517f08c379a000000000000000000000000000000000000000000000000000000000815260206004820152603660248201527f5361666545524332303a20617070726f76652066726f6d206e6f6e2d7a65726f60448201527f20746f206e6f6e2d7a65726f20616c6c6f77616e63650000000000000000000060648201526084015b60405180910390fd5b60405173ffffffffffffffffffffffffffffffffffffffff83166024820152604481018290526109f39084907f095ea7b30000000000000000000000000000000000000000000000000000000090606401610971565b6000610c54826040518060400160405280602081526020017f5361666545524332303a206c6f772d6c6576656c2063616c6c206661696c65648152508573ffffffffffffffffffffffffffffffffffffffff16610cfe9092919063ffffffff16565b8051909150156109f35780806020019051810190610c729190610fe9565b6109f3576040517f08c379a000000000000000000000000000000000000000000000000000000000815260206004820152602a60248201527f5361666545524332303a204552433230206f7065726174696f6e20646964206e60448201527f6f742073756363656564000000000000000000000000000000000000000000006064820152608401610b93565b6060610d0d8484600085610d17565b90505b9392505050565b606082471015610da9576040517f08c379a000000000000000000000000000000000000000000000000000000000815260206004820152602660248201527f416464726573733a20696e73756666696369656e742062616c616e636520666f60448201527f722063616c6c00000000000000000000000000000000000000000000000000006064820152608401610b93565b843b610e11576040517f08c379a000000000000000000000000000000000000000000000000000000000815260206004820152601d60248201527f416464726573733a2063616c6c20746f206e6f6e2d636f6e74726163740000006044820152606401610b93565b6000808673ffffffffffffffffffffffffffffffffffffffff168587604051610e3a9190611282565b60006040518083038185875af1925050503d8060008114610e77576040519150601f19603f3d011682016040523d82523d6000602084013e610e7c565b606091505b5091509150610e8c828286610e97565b979650505050505050565b60608315610ea6575081610d10565b825115610eb65782518084602001fd5b816040517f08c379a0000000000000000000000000000000000000000000000000000000008152600401610b9391906112cd565b8035610ef581611430565b919050565b8051610ef581611430565b8051600281900b8114610ef557600080fd5b80516fffffffffffffffffffffffffffffffff81168114610ef557600080fd5b805162ffffff81168114610ef557600080fd5b600080600080600060808688031215610f6257600080fd5b8535610f6d81611430565b94506020860135610f7d81611430565b935060408601359250606086013567ffffffffffffffff80821115610fa157600080fd5b818801915088601f830112610fb557600080fd5b813581811115610fc457600080fd5b896020828501011115610fd657600080fd5b9699959850939650602001949392505050565b600060208284031215610ffb57600080fd5b81518015158114610d1057600080fd5b60006020828403121561101d57600080fd5b5035919050565b60006020828403121561103657600080fd5b5051919050565b6000806040838503121561105057600080fd5b8235915060208084013567ffffffffffffffff8082111561107057600080fd5b818601915086601f83011261108457600080fd5b81358181111561109657611096611401565b8060051b6040517fffffffffffffffffffffffffffffffffffffffffffffffffffffffffffffffe0603f830116810181811085821117156110d9576110d9611401565b604052828152858101935084860182860187018b10156110f857600080fd5b600095505b838610156111225761110e81610eea565b8552600195909501949386019386016110fd565b508096505050505050509250929050565b6000806040838503121561114657600080fd5b505080516020909101519092909150565b6000806000806000806000806000806000806101808d8f03121561117a57600080fd5b8c516bffffffffffffffffffffffff8116811461119657600080fd5b9b506111a460208e01610efa565b9a506111b260408e01610efa565b99506111c060608e01610efa565b98506111ce60808e01610f37565b97506111dc60a08e01610f05565b96506111ea60c08e01610f05565b95506111f860e08e01610f17565b94506101008d015193506101208d015192506112176101408e01610f17565b91506112266101608e01610f17565b90509295989b509295989b509295989b565b60008151808452611250816020860160208601611346565b601f017fffffffffffffffffffffffffffffffffffffffffffffffffffffffffffffffe0169290920160200192915050565b60008251611294818460208701611346565b9190910192915050565b600083516112b0818460208801611346565b8351908301906112c4818360208801611346565b01949350505050565b602081526000610d106020830184611238565b602081526000825160a060208401526112fc60c0840182611238565b905073ffffffffffffffffffffffffffffffffffffffff60208501511660408401526040840151606084015260608401516080840152608084015160a08401528091505092915050565b60005b83811015611361578181015183820152602001611349565b83811115610a565750506000910152565b60007fffffffffffffffffffffffffffffffffffffffffffffffffffffffffffffffff8214156113cb577f4e487b7100000000000000000000000000000000000000000000000000000000600052601160045260246000fd5b5060010190565b7f4e487b7100000000000000000000000000000000000000000000000000000000600052603260045260246000fd5b7f4e487b7100000000000000000000000000000000000000000000000000000000600052604160045260246000fd5b73ffffffffffffffffffffffffffffffffffffffff8116811461145257600080fd5b5056fea164736f6c6343000806000a",
  "linkReferences": {},
  "deployedLinkReferences": {}
}