{
  "address": "0x15089FAD4e5a8332c3219Aa81DA4a4089B3C21bD",
  "abi": [
    {
      "inputs": [
        {
          "internalType": "address",
          "name": "_info",
          "type": "address"
        }
      ],
      "stateMutability": "nonpayable",
      "type": "constructor"
    },
    {
      "anonymous": false,
      "inputs": [
        {
          "indexed": true,
          "internalType": "address",
          "name": "previousOwner",
          "type": "address"
        },
        {
          "indexed": true,
          "internalType": "address",
          "name": "newOwner",
          "type": "address"
        }
      ],
      "name": "OwnershipTransferred",
      "type": "event"
    },
    {
      "anonymous": false,
      "inputs": [
        {
          "indexed": false,
          "internalType": "int256",
          "name": "protocolFee",
          "type": "int256"
        }
      ],
      "name": "ProtocolFeeChanged",
      "type": "event"
    },
    {
      "inputs": [
        {
          "internalType": "int256",
          "name": "__protocolFee",
          "type": "int256"
        }
      ],
      "name": "changeProtocolFee",
      "outputs": [],
      "stateMutability": "nonpayable",
      "type": "function"
    },
    {
      "inputs": [],
      "name": "deadline",
      "outputs": [
        {
          "internalType": "uint16",
          "name": "",
          "type": "uint16"
        }
      ],
      "stateMutability": "view",
      "type": "function"
    },
    {
      "inputs": [],
      "name": "deposit",
      "outputs": [],
      "stateMutability": "nonpayable",
      "type": "function"
    },
    {
      "inputs": [],
      "name": "info",
      "outputs": [
        {
          "internalType": "address",
          "name": "",
          "type": "address"
        }
      ],
      "stateMutability": "view",
      "type": "function"
    },
    {
      "inputs": [
        {
          "internalType": "address",
          "name": "_staking",
          "type": "address"
        },
        {
          "internalType": "uint16",
          "name": "_slippage",
          "type": "uint16"
        },
        {
          "internalType": "uint16",
          "name": "_deadline",
          "type": "uint16"
        }
      ],
      "name": "init",
      "outputs": [],
      "stateMutability": "nonpayable",
      "type": "function"
    },
    {
      "inputs": [],
      "name": "owner",
      "outputs": [
        {
          "internalType": "address",
          "name": "",
          "type": "address"
        }
      ],
      "stateMutability": "view",
      "type": "function"
    },
    {
      "inputs": [],
      "name": "pause",
      "outputs": [],
      "stateMutability": "nonpayable",
      "type": "function"
    },
    {
      "inputs": [],
      "name": "paused",
      "outputs": [
        {
          "internalType": "bool",
          "name": "",
          "type": "bool"
        }
      ],
      "stateMutability": "view",
      "type": "function"
    },
    {
      "inputs": [],
      "name": "protocolFee",
      "outputs": [
        {
          "internalType": "uint256",
          "name": "",
          "type": "uint256"
        }
      ],
      "stateMutability": "view",
      "type": "function"
    },
    {
      "inputs": [],
      "name": "refund",
      "outputs": [],
      "stateMutability": "nonpayable",
      "type": "function"
    },
    {
      "inputs": [
        {
          "internalType": "uint256",
          "name": "gasFee",
          "type": "uint256"
        },
        {
          "internalType": "uint256",
          "name": "_deadline",
          "type": "uint256"
        },
        {
          "internalType": "uint256[2]",
          "name": "_outMin",
          "type": "uint256[2]"
        }
      ],
      "name": "run",
      "outputs": [],
      "stateMutability": "nonpayable",
      "type": "function"
    },
    {
      "inputs": [],
      "name": "slippage",
      "outputs": [
        {
          "internalType": "uint16",
          "name": "",
          "type": "uint16"
        }
      ],
      "stateMutability": "view",
      "type": "function"
    },
    {
      "inputs": [],
      "name": "staking",
      "outputs": [
        {
          "internalType": "contract IStaking",
          "name": "",
          "type": "address"
        }
      ],
      "stateMutability": "view",
      "type": "function"
    },
    {
      "inputs": [
        {
          "internalType": "address",
          "name": "token",
          "type": "address"
        },
        {
          "internalType": "address",
          "name": "recipient",
          "type": "address"
        },
        {
          "internalType": "uint256",
          "name": "amount",
          "type": "uint256"
        }
      ],
      "name": "transfer",
      "outputs": [],
      "stateMutability": "nonpayable",
      "type": "function"
    },
    {
      "inputs": [
        {
          "internalType": "address",
          "name": "newOwner",
          "type": "address"
        }
      ],
      "name": "transferOwnership",
      "outputs": [],
      "stateMutability": "nonpayable",
      "type": "function"
    },
    {
      "inputs": [],
      "name": "unpause",
      "outputs": [],
      "stateMutability": "nonpayable",
      "type": "function"
    }
  ],
  "transactionHash": "0xdf7027c62f1145147b0ff015285dfafb40a2d42b79a17f5302ce02d29bcd9f2b",
  "args": [
    "0xD4346c51F818B776116Ae39c857DdD07269a5CaD"
  ],
  "solcInputHash": "fe7f78fe34bf8e76c63d8aa702a6568f",
  "bytecode": "0x60806040523480156200001157600080fd5b506040516200292c3803806200292c833981016040819052620000349162000069565b600080546001600160a01b039092166001600160a01b031992831617905560018054909116321790556000196002556200009b565b6000602082840312156200007c57600080fd5b81516001600160a01b03811681146200009457600080fd5b9392505050565b61288180620000ab6000396000f3fe608060405234801561001057600080fd5b50600436106101005760003560e01c80638456cb5911610097578063beabacc811610066578063beabacc8146101f9578063d0e30db01461020c578063dd92555114610214578063f2fde38b1461022757600080fd5b80638456cb59146101b75780638da5cb5b146101bf5780639742b5c3146101d0578063b0e21e8a146101e357600080fd5b80633f4ba83a116100d35780633f4ba83a1461017c5780634cf088d914610184578063590e1ae3146101975780635c975abb1461019f57600080fd5b806307748e421461010557806329dcb0cf1461011a578063370158ea146101475780633e032a3b14610167575b600080fd5b6101186101133660046123a1565b61023a565b005b60035461012f90600160b01b900461ffff1681565b60405161ffff90911681526020015b60405180910390f35b61014f6102de565b6040516001600160a01b03909116815260200161013e565b60035461012f90600160a01b900461ffff1681565b610118610400565b60035461014f906001600160a01b031681565b610118610601565b6101a7610993565b604051901515815260200161013e565b610118610ac3565b6001546001600160a01b031661014f565b6101186101de3660046124b5565b610cc7565b6101eb610e9a565b60405190815260200161013e565b610118610207366004612360565b611201565b6101186112b3565b6101186102223660046124e7565b611449565b610118610235366004612326565b611bc9565b6001546001600160a01b031661026757600180546001600160a01b0319163217905560001960025561029a565b6001546001600160a01b0316331461029a5760405162461bcd60e51b815260040161029190612674565b60405180910390fd5b600380546001600160a01b03949094166001600160b01b031990941693909317600160a01b61ffff938416021761ffff60b01b1916600160b01b9190921602179055565b604051630d7100e360e31b815230600482015260009081907326902B32F1AE6B130c0287B4b8E86F3a62df605190636b8807189060240160206040518083038186803b15801561032d57600080fd5b505af4158015610341573d6000803e3d6000fd5b505050506040513d601f19601f820116820180604052508101906103659190612343565b90506001600160a01b0381163014156103895750506000546001600160a01b031690565b806001600160a01b031663370158ea6040518163ffffffff1660e01b815260040160206040518083038186803b1580156103c257600080fd5b505afa1580156103d6573d6000803e3d6000fd5b505050506040513d601f19601f820116820180604052508101906103fa9190612343565b91505090565b604051630d7100e360e31b81523060048201819052907326902B32F1AE6B130c0287B4b8E86F3a62df605190636b8807189060240160206040518083038186803b15801561044d57600080fd5b505af4158015610461573d6000803e3d6000fd5b505050506040513d601f19601f820116820180604052508101906104859190612343565b6001600160a01b0316141561057d57600061049e6102de565b6040516321f8a72160e01b81527f689d13d8ed8ef1027633ba26e7121121cf427434450a529548f19bf17597439560048201526001600160a01b0391909116906321f8a7219060240160206040518083038186803b1580156104ff57600080fd5b505afa158015610513573d6000803e3d6000fd5b505050506040513d601f19601f820116820180604052508101906105379190612343565b6001549091506001600160a01b031633148061055b5750336001600160a01b038216145b6105775760405162461bcd60e51b8152600401610291906126b5565b506105a7565b6001546001600160a01b031633146105a75760405162461bcd60e51b8152600401610291906126b5565b6105af610993565b6105f25760405162461bcd60e51b8152602060048201526014602482015273105d5d1bdb585d194e881b9bdd081c185d5cd95960621b6044820152606401610291565b6001805460ff60a01b19169055565b6001546001600160a01b0316331461062b5760405162461bcd60e51b815260040161029190612674565b600354604080516374fd6c7760e11b815290516001600160a01b0390921691829163e9fad8ee91600480830192600092919082900301818387803b15801561067257600080fd5b505af1158015610686573d6000803e3d6000fd5b50505050600061069e6001546001600160a01b031690565b90506000826001600160a01b03166372f702f36040518163ffffffff1660e01b815260040160206040518083038186803b1580156106db57600080fd5b505afa1580156106ef573d6000803e3d6000fd5b505050506040513d601f19601f820116820180604052508101906107139190612343565b6040516370a0823160e01b81523060048201529091506001600160a01b0382169063a9059cbb90849083906370a082319060240160206040518083038186803b15801561075f57600080fd5b505afa158015610773573d6000803e3d6000fd5b505050506040513d601f19601f8201168201806040525081019061079791906124ce565b6040516001600160e01b031960e085901b1681526001600160a01b0390921660048301526024820152604401602060405180830381600087803b1580156107dd57600080fd5b505af11580156107f1573d6000803e3d6000fd5b505050506040513d601f19601f820116820180604052508101906108159190612493565b506000836001600160a01b031663d1af0c7d6040518163ffffffff1660e01b815260040160206040518083038186803b15801561085157600080fd5b505afa158015610865573d6000803e3d6000fd5b505050506040513d601f19601f820116820180604052508101906108899190612343565b6040516370a0823160e01b81523060048201529091506001600160a01b0382169063a9059cbb90859083906370a082319060240160206040518083038186803b1580156108d557600080fd5b505afa1580156108e9573d6000803e3d6000fd5b505050506040513d601f19601f8201168201806040525081019061090d91906124ce565b6040516001600160e01b031960e085901b1681526001600160a01b03909216600483015260248201526044015b602060405180830381600087803b15801561095457600080fd5b505af1158015610968573d6000803e3d6000fd5b505050506040513d601f19601f8201168201806040525081019061098c9190612493565b5050505050565b604051630d7100e360e31b815230600482015260009081907326902B32F1AE6B130c0287B4b8E86F3a62df605190636b8807189060240160206040518083038186803b1580156109e257600080fd5b505af41580156109f6573d6000803e3d6000fd5b505050506040513d601f19601f82011682018060405250810190610a1a9190612343565b90506001600160a01b038116301415610a3f575050600154600160a01b900460ff1690565b600154600160a01b900460ff16806103fa5750806001600160a01b0316635c975abb6040518163ffffffff1660e01b815260040160206040518083038186803b158015610a8b57600080fd5b505afa158015610a9f573d6000803e3d6000fd5b505050506040513d601f19601f820116820180604052508101906103fa9190612493565b604051630d7100e360e31b81523060048201819052907326902B32F1AE6B130c0287B4b8E86F3a62df605190636b8807189060240160206040518083038186803b158015610b1057600080fd5b505af4158015610b24573d6000803e3d6000fd5b505050506040513d601f19601f82011682018060405250810190610b489190612343565b6001600160a01b03161415610c40576000610b616102de565b6040516321f8a72160e01b81527f689d13d8ed8ef1027633ba26e7121121cf427434450a529548f19bf17597439560048201526001600160a01b0391909116906321f8a7219060240160206040518083038186803b158015610bc257600080fd5b505afa158015610bd6573d6000803e3d6000fd5b505050506040513d601f19601f82011682018060405250810190610bfa9190612343565b6001549091506001600160a01b0316331480610c1e5750336001600160a01b038216145b610c3a5760405162461bcd60e51b8152600401610291906126b5565b50610c6a565b6001546001600160a01b03163314610c6a5760405162461bcd60e51b8152600401610291906126b5565b610c72610993565b15610cb25760405162461bcd60e51b815260206004820152601060248201526f105d5d1bdb585d194e881c185d5cd95960821b6044820152606401610291565b6001805460ff60a01b1916600160a01b179055565b604051630d7100e360e31b81523060048201526000907326902B32F1AE6B130c0287B4b8E86F3a62df605190636b8807189060240160206040518083038186803b158015610d1457600080fd5b505af4158015610d28573d6000803e3d6000fd5b505050506040513d601f19601f82011682018060405250810190610d4c9190612343565b9050336001600160a01b0382163014610dd557816001600160a01b0316638da5cb5b6040518163ffffffff1660e01b815260040160206040518083038186803b158015610d9857600080fd5b505afa158015610dac573d6000803e3d6000fd5b505050506040513d601f19601f82011682018060405250810190610dd09190612343565b610de2565b6001546001600160a01b03165b6001600160a01b031614610e5e5760405162461bcd60e51b815260206004820152603d60248201527f4175746f6d6174653a3a6368616e676550726f746f636f6c4665653a2063616c60448201527f6c6572206973206e6f74207468652070726f746f636f6c206f776e65720000006064820152608401610291565b60028290556040518281527f3c1d43943224e49d951ce8295a5c8332b517083b3f89bed50feae2cb39caebb59060200160405180910390a15050565b604051630d7100e360e31b815230600482015260009081907326902B32F1AE6B130c0287B4b8E86F3a62df605190636b8807189060240160206040518083038186803b158015610ee957600080fd5b505af4158015610efd573d6000803e3d6000fd5b505050506040513d601f19601f82011682018060405250810190610f219190612343565b90506001600160a01b0381163014801590610f3e57506000600254125b15610fb457806001600160a01b031663b0e21e8a6040518163ffffffff1660e01b815260040160206040518083038186803b158015610f7c57600080fd5b505afa158015610f90573d6000803e3d6000fd5b505050506040513d601f19601f820116820180604052508101906103fa91906124ce565b6000610fbe6102de565b905060008060025412610fd35760025461106a565b60405163bd02d0f560e01b81527fa93d95f96a5de25d7a41ddf1f5e8d45cfc929c4838163cf011dab4043a4a40d560048201526001600160a01b0383169063bd02d0f59060240160206040518083038186803b15801561103257600080fd5b505afa158015611046573d6000803e3d6000fd5b505050506040513d601f19601f8201168201806040525081019061106a91906124ce565b90508061107b576000935050505090565b6040516321f8a72160e01b81527f65c90423fe7c880476633a7e36521740f87199d233dc56eb4ca6643eb76f605f60048201526000906001600160a01b038416906321f8a7219060240160206040518083038186803b1580156110dd57600080fd5b505afa1580156110f1573d6000803e3d6000fd5b505050506040513d601f19601f820116820180604052508101906111159190612343565b6001600160a01b031663feaf968c6040518163ffffffff1660e01b815260040160a06040518083038186803b15801561114d57600080fd5b505afa158015611161573d6000803e3d6000fd5b505050506040513d601f19601f8201168201806040525081019061118591906125b1565b505050915050600081136111db5760405162461bcd60e51b815260206004820152601760248201527f4175746f6d6174653a20696e76616c69642070726963650000000000000000006044820152606401610291565b806111ee83670de0b6b3a76400006127bb565b6111f89190612799565b94505050505090565b6001546001600160a01b0316331461122b5760405162461bcd60e51b815260040161029190612674565b60405163a9059cbb60e01b81526001600160a01b0383811660048301526024820183905284169063a9059cbb90604401602060405180830381600087803b15801561127557600080fd5b505af1158015611289573d6000803e3d6000fd5b505050506040513d601f19601f820116820180604052508101906112ad9190612493565b50505050565b6001546001600160a01b031633146112dd5760405162461bcd60e51b815260040161029190612674565b600354604080516372f702f360e01b815290516001600160a01b039092169160009183916372f702f391600480820192602092909190829003018186803b15801561132757600080fd5b505afa15801561133b573d6000803e3d6000fd5b505050506040513d601f19601f8201168201806040525081019061135f9190612343565b90506113746001600160a01b03821683611d2a565b6040516370a0823160e01b81523060048201526001600160a01b038084169163a694fc3a918416906370a082319060240160206040518083038186803b1580156113bd57600080fd5b505afa1580156113d1573d6000803e3d6000fd5b505050506040513d601f19601f820116820180604052508101906113f591906124ce565b6040518263ffffffff1660e01b815260040161141391815260200190565b600060405180830381600087803b15801561142d57600080fd5b505af1158015611441573d6000803e3d6000fd5b505050505050565b826040518060400160405280601d81526020017f426f6e646170706574697453796e7468657469784c5052657374616b6500000081525061148a8282611d3b565b506003546040516246613160e11b81523060048201526001600160a01b03909116906000908290628cc2629060240160206040518083038186803b1580156114d157600080fd5b505afa1580156114e5573d6000803e3d6000fd5b505050506040513d601f19601f8201168201806040525081019061150991906124ce565b116115685760405162461bcd60e51b815260206004820152602960248201527f53796e746865746978556e69737761704c7052657374616b653a3a72756e3a206044820152681b9bc819585c9b995960ba1b6064820152608401610291565b60006115726102de565b6040516321f8a72160e01b81527fa446c21f636a27494eaafaffc073cc3325d32c4efaa774c3f2a297ebef86980360048201526001600160a01b0391909116906321f8a7219060240160206040518083038186803b1580156115d357600080fd5b505afa1580156115e7573d6000803e3d6000fd5b505050506040513d601f19601f8201168201806040525081019061160b9190612343565b90506001600160a01b0381166116935760405162461bcd60e51b815260206004820152604160248201527f53796e746865746978556e69737761704c7052657374616b653a3a72756e3a2060448201527f756e697377617020726f7574657220636f6e7472616374206e6f7420666f756e6064820152601960fa1b608482015260a401610291565b816001600160a01b0316633d18b9126040518163ffffffff1660e01b8152600401600060405180830381600087803b1580156116ce57600080fd5b505af11580156116e2573d6000803e3d6000fd5b505050506000826001600160a01b031663d1af0c7d6040518163ffffffff1660e01b815260040160206040518083038186803b15801561172157600080fd5b505afa158015611735573d6000803e3d6000fd5b505050506040513d601f19601f820116820180604052508101906117599190612343565b6040516370a0823160e01b81523060048201529091506000906001600160a01b038316906370a082319060240160206040518083038186803b15801561179e57600080fd5b505afa1580156117b2573d6000803e3d6000fd5b505050506040513d601f19601f820116820180604052508101906117d691906124ce565b90506117eb6001600160a01b03831684611d2a565b6000846001600160a01b03166372f702f36040518163ffffffff1660e01b815260040160206040518083038186803b15801561182657600080fd5b505afa15801561183a573d6000803e3d6000fd5b505050506040513d601f19601f8201168201806040525081019061185e9190612343565b905060006040518060400160405280836001600160a01b0316630dfe16816040518163ffffffff1660e01b815260040160206040518083038186803b1580156118a657600080fd5b505afa1580156118ba573d6000803e3d6000fd5b505050506040513d601f19601f820116820180604052508101906118de9190612343565b6001600160a01b03166001600160a01b03168152602001836001600160a01b031663d21220a76040518163ffffffff1660e01b815260040160206040518083038186803b15801561192e57600080fd5b505afa158015611942573d6000803e3d6000fd5b505050506040513d601f19601f820116820180604052508101906119669190612343565b6001600160a01b039081169091526040805160e0810182528883166080820190815288841660a0830152845190931660c082015281518083019092529293506000929182916119d29190806119bc60028b612799565b81526020018f60005b602002015190528f611f60565b8152602001611a6560405180606001604052808a6001600160a01b03166001600160a01b03168152602001896001600160a01b03166001600160a01b0316815260200186600160028110611a2857611a28612807565b60200201516001600160a01b031690526040805180820190915280611a4e60028b612799565b611a58908b6127da565b81526020018f60016119c5565b81526020016000815260200160008152509050611ad76040518060600160405280886001600160a01b03166001600160a01b0316815260200184600060028110611ab157611ab1612807565b602090810291909101516001600160a01b0390811683528682015116910152828d6120d6565b611aea6001600160a01b03841688611d2a565b6040516370a0823160e01b81523060048201526001600160a01b038089169163a694fc3a918616906370a082319060240160206040518083038186803b158015611b3357600080fd5b505afa158015611b47573d6000803e3d6000fd5b505050506040513d601f19601f82011682018060405250810190611b6b91906124ce565b6040518263ffffffff1660e01b8152600401611b8991815260200190565b600060405180830381600087803b158015611ba357600080fd5b505af1158015611bb7573d6000803e3d6000fd5b50505050505050505050505050505050565b6001546001600160a01b03163314611bf35760405162461bcd60e51b815260040161029190612674565b604051630d7100e360e31b81523060048201819052907326902B32F1AE6B130c0287B4b8E86F3a62df605190636b8807189060240160206040518083038186803b158015611c4057600080fd5b505af4158015611c54573d6000803e3d6000fd5b505050506040513d601f19601f82011682018060405250810190611c789190612343565b6001600160a01b031614611cd85760405162461bcd60e51b815260206004820152602160248201527f4175746f6d6174653a206368616e676520746865206f776e6572206661696c656044820152601960fa1b6064820152608401610291565b600180546001600160a01b038381166001600160a01b0319831681179093556040519116919082907f8be0079c531659141344cd1fd0a4f28419497f9722a3daafe3b4186f6b6457e090600090a35050565b611d37828260001961219d565b5050565b6000611d45610993565b15611d855760405162461bcd60e51b815260206004820152601060248201526f105d5d1bdb585d194e881c185d5cd95960821b6044820152606401610291565b6000611d996001546001600160a01b031690565b9050326001600160a01b0382161415611db6576000915050611f5a565b6000611dc06102de565b6040516321f8a72160e01b81527fe78c16c6d839536d3155985aab4e9c6013c8c3d446054bcebc48612f359d81f560048201529091506000906001600160a01b038316906321f8a7219060240160206040518083038186803b158015611e2557600080fd5b505afa158015611e39573d6000803e3d6000fd5b505050506040513d601f19601f82011682018060405250810190611e5d9190612343565b90506001600160a01b038116611ec95760405162461bcd60e51b815260206004820152602b60248201527f4175746f6d6174653a3a5f62696c6c3a2062616c616e636520636f6e7472616360448201526a1d081b9bdd08199bdd5b9960aa1b6064820152608401610291565b806001600160a01b031663e578a2258488611ee2610e9a565b896040518563ffffffff1660e01b8152600401611f029493929190612601565b602060405180830381600087803b158015611f1c57600080fd5b505af1158015611f30573d6000803e3d6000fd5b505050506040513d601f19601f82011682018060405250810190611f5491906124ce565b93505050505b92915050565b604083015160208401516000916001600160a01b0391821691161415611f88575081516120cf565b604080516002808252606082018352600092602083019080368337019050509050846001602002015181600081518110611fc457611fc4612807565b6001600160a01b0390921660209283029190910190910152846002602002015181600181518110611ff757611ff7612807565b6001600160a01b0392831660209182029290920101528551604087015161201f921690611d2a565b8451845160208601516040516338ed173960e01b81526001600160a01b03909316926338ed17399261205b929091869030908a906004016126f7565b600060405180830381600087803b15801561207557600080fd5b505af1158015612089573d6000803e3d6000fd5b505050506040513d6000823e601f3d908101601f191682016040526120b191908101906123e6565b6001815181106120c3576120c3612807565b60200260200101519150505b9392505050565b8251602080850151604080870151865193870151878301516060890151935162e8e33760e81b81526001600160a01b039586166004820152928516602484015260448301959095526064820152608481019390935260a48301523060c483015260e482018490529091169063e8e337009061010401606060405180830381600087803b15801561216557600080fd5b505af1158015612179573d6000803e3d6000fd5b505050506040513d601f19601f820116820180604052508101906114419190612583565b604051636eb1769f60e11b81523060048201526001600160a01b0383811660248301526000919085169063dd62ed3e9060440160206040518083038186803b1580156121e857600080fd5b505afa1580156121fc573d6000803e3d6000fd5b505050506040513d601f19601f8201168201806040525081019061222091906124ce565b9050801580159061223057508181105b156122b95760405163095ea7b360e01b81526001600160a01b0384811660048301526000602483015285169063095ea7b390604401602060405180830381600087803b15801561227f57600080fd5b505af1158015612293573d6000803e3d6000fd5b505050506040513d601f19601f820116820180604052508101906122b79190612493565b505b8181146112ad5760405163095ea7b360e01b81526001600160a01b0384811660048301526024820184905285169063095ea7b39060440161093a565b803561ffff8116811461230757600080fd5b919050565b805169ffffffffffffffffffff8116811461230757600080fd5b60006020828403121561233857600080fd5b81356120cf81612833565b60006020828403121561235557600080fd5b81516120cf81612833565b60008060006060848603121561237557600080fd5b833561238081612833565b9250602084013561239081612833565b929592945050506040919091013590565b6000806000606084860312156123b657600080fd5b83356123c181612833565b92506123cf602085016122f5565b91506123dd604085016122f5565b90509250925092565b600060208083850312156123f957600080fd5b825167ffffffffffffffff8082111561241157600080fd5b818501915085601f83011261242557600080fd5b8151818111156124375761243761281d565b8060051b9150612448848301612768565b8181528481019084860184860187018a101561246357600080fd5b600095505b83861015612486578051835260019590950194918601918601612468565b5098975050505050505050565b6000602082840312156124a557600080fd5b815180151581146120cf57600080fd5b6000602082840312156124c757600080fd5b5035919050565b6000602082840312156124e057600080fd5b5051919050565b6000806000608084860312156124fc57600080fd5b83359250602080850135925085605f86011261251757600080fd5b6040516040810181811067ffffffffffffffff8211171561253a5761253a61281d565b806040525080604087018860808901111561255457600080fd5b60005b600281101561257457813583529184019190840190600101612557565b50505080925050509250925092565b60008060006060848603121561259857600080fd5b8351925060208401519150604084015190509250925092565b600080600080600060a086880312156125c957600080fd5b6125d28661230c565b94506020860151935060408601519250606086015191506125f56080870161230c565b90509295509295909350565b60018060a01b038516815260006020858184015284604084015260806060840152835180608085015260005b818110156126495785810183015185820160a00152820161262d565b8181111561265b57600060a083870101525b50601f01601f19169290920160a0019695505050505050565b60208082526021908201527f4175746f6d6174653a2063616c6c6572206973206e6f7420746865206f776e656040820152603960f91b606082015260800190565b60208082526022908201527f4175746f6d6174653a2063616c6c6572206973206e6f7420746865207061757360408201526132b960f11b606082015260800190565b600060a082018783526020878185015260a0604085015281875180845260c086019150828901935060005b818110156127475784516001600160a01b031683529383019391830191600101612722565b50506001600160a01b03969096166060850152505050608001529392505050565b604051601f8201601f1916810167ffffffffffffffff811182821017156127915761279161281d565b604052919050565b6000826127b657634e487b7160e01b600052601260045260246000fd5b500490565b60008160001904831182151516156127d5576127d56127f1565b500290565b6000828210156127ec576127ec6127f1565b500390565b634e487b7160e01b600052601160045260246000fd5b634e487b7160e01b600052603260045260246000fd5b634e487b7160e01b600052604160045260246000fd5b6001600160a01b038116811461284857600080fd5b5056fea2646970667358221220a1f24b481d1dcba663b4bf22692d5b1db3bdae1242cef5879fa2714487d288a564736f6c63430008060033",
  "deployedBytecode": "0x608060405234801561001057600080fd5b50600436106101005760003560e01c80638456cb5911610097578063beabacc811610066578063beabacc8146101f9578063d0e30db01461020c578063dd92555114610214578063f2fde38b1461022757600080fd5b80638456cb59146101b75780638da5cb5b146101bf5780639742b5c3146101d0578063b0e21e8a146101e357600080fd5b80633f4ba83a116100d35780633f4ba83a1461017c5780634cf088d914610184578063590e1ae3146101975780635c975abb1461019f57600080fd5b806307748e421461010557806329dcb0cf1461011a578063370158ea146101475780633e032a3b14610167575b600080fd5b6101186101133660046123a1565b61023a565b005b60035461012f90600160b01b900461ffff1681565b60405161ffff90911681526020015b60405180910390f35b61014f6102de565b6040516001600160a01b03909116815260200161013e565b60035461012f90600160a01b900461ffff1681565b610118610400565b60035461014f906001600160a01b031681565b610118610601565b6101a7610993565b604051901515815260200161013e565b610118610ac3565b6001546001600160a01b031661014f565b6101186101de3660046124b5565b610cc7565b6101eb610e9a565b60405190815260200161013e565b610118610207366004612360565b611201565b6101186112b3565b6101186102223660046124e7565b611449565b610118610235366004612326565b611bc9565b6001546001600160a01b031661026757600180546001600160a01b0319163217905560001960025561029a565b6001546001600160a01b0316331461029a5760405162461bcd60e51b815260040161029190612674565b60405180910390fd5b600380546001600160a01b03949094166001600160b01b031990941693909317600160a01b61ffff938416021761ffff60b01b1916600160b01b9190921602179055565b604051630d7100e360e31b8152306004820152600090819073__$0bac19a4f6859fb91e3c64d76ce49d598f$__90636b8807189060240160206040518083038186803b15801561032d57600080fd5b505af4158015610341573d6000803e3d6000fd5b505050506040513d601f19601f820116820180604052508101906103659190612343565b90506001600160a01b0381163014156103895750506000546001600160a01b031690565b806001600160a01b031663370158ea6040518163ffffffff1660e01b815260040160206040518083038186803b1580156103c257600080fd5b505afa1580156103d6573d6000803e3d6000fd5b505050506040513d601f19601f820116820180604052508101906103fa9190612343565b91505090565b604051630d7100e360e31b815230600482018190529073__$0bac19a4f6859fb91e3c64d76ce49d598f$__90636b8807189060240160206040518083038186803b15801561044d57600080fd5b505af4158015610461573d6000803e3d6000fd5b505050506040513d601f19601f820116820180604052508101906104859190612343565b6001600160a01b0316141561057d57600061049e6102de565b6040516321f8a72160e01b81527f689d13d8ed8ef1027633ba26e7121121cf427434450a529548f19bf17597439560048201526001600160a01b0391909116906321f8a7219060240160206040518083038186803b1580156104ff57600080fd5b505afa158015610513573d6000803e3d6000fd5b505050506040513d601f19601f820116820180604052508101906105379190612343565b6001549091506001600160a01b031633148061055b5750336001600160a01b038216145b6105775760405162461bcd60e51b8152600401610291906126b5565b506105a7565b6001546001600160a01b031633146105a75760405162461bcd60e51b8152600401610291906126b5565b6105af610993565b6105f25760405162461bcd60e51b8152602060048201526014602482015273105d5d1bdb585d194e881b9bdd081c185d5cd95960621b6044820152606401610291565b6001805460ff60a01b19169055565b6001546001600160a01b0316331461062b5760405162461bcd60e51b815260040161029190612674565b600354604080516374fd6c7760e11b815290516001600160a01b0390921691829163e9fad8ee91600480830192600092919082900301818387803b15801561067257600080fd5b505af1158015610686573d6000803e3d6000fd5b50505050600061069e6001546001600160a01b031690565b90506000826001600160a01b03166372f702f36040518163ffffffff1660e01b815260040160206040518083038186803b1580156106db57600080fd5b505afa1580156106ef573d6000803e3d6000fd5b505050506040513d601f19601f820116820180604052508101906107139190612343565b6040516370a0823160e01b81523060048201529091506001600160a01b0382169063a9059cbb90849083906370a082319060240160206040518083038186803b15801561075f57600080fd5b505afa158015610773573d6000803e3d6000fd5b505050506040513d601f19601f8201168201806040525081019061079791906124ce565b6040516001600160e01b031960e085901b1681526001600160a01b0390921660048301526024820152604401602060405180830381600087803b1580156107dd57600080fd5b505af11580156107f1573d6000803e3d6000fd5b505050506040513d601f19601f820116820180604052508101906108159190612493565b506000836001600160a01b031663d1af0c7d6040518163ffffffff1660e01b815260040160206040518083038186803b15801561085157600080fd5b505afa158015610865573d6000803e3d6000fd5b505050506040513d601f19601f820116820180604052508101906108899190612343565b6040516370a0823160e01b81523060048201529091506001600160a01b0382169063a9059cbb90859083906370a082319060240160206040518083038186803b1580156108d557600080fd5b505afa1580156108e9573d6000803e3d6000fd5b505050506040513d601f19601f8201168201806040525081019061090d91906124ce565b6040516001600160e01b031960e085901b1681526001600160a01b03909216600483015260248201526044015b602060405180830381600087803b15801561095457600080fd5b505af1158015610968573d6000803e3d6000fd5b505050506040513d601f19601f8201168201806040525081019061098c9190612493565b5050505050565b604051630d7100e360e31b8152306004820152600090819073__$0bac19a4f6859fb91e3c64d76ce49d598f$__90636b8807189060240160206040518083038186803b1580156109e257600080fd5b505af41580156109f6573d6000803e3d6000fd5b505050506040513d601f19601f82011682018060405250810190610a1a9190612343565b90506001600160a01b038116301415610a3f575050600154600160a01b900460ff1690565b600154600160a01b900460ff16806103fa5750806001600160a01b0316635c975abb6040518163ffffffff1660e01b815260040160206040518083038186803b158015610a8b57600080fd5b505afa158015610a9f573d6000803e3d6000fd5b505050506040513d601f19601f820116820180604052508101906103fa9190612493565b604051630d7100e360e31b815230600482018190529073__$0bac19a4f6859fb91e3c64d76ce49d598f$__90636b8807189060240160206040518083038186803b158015610b1057600080fd5b505af4158015610b24573d6000803e3d6000fd5b505050506040513d601f19601f82011682018060405250810190610b489190612343565b6001600160a01b03161415610c40576000610b616102de565b6040516321f8a72160e01b81527f689d13d8ed8ef1027633ba26e7121121cf427434450a529548f19bf17597439560048201526001600160a01b0391909116906321f8a7219060240160206040518083038186803b158015610bc257600080fd5b505afa158015610bd6573d6000803e3d6000fd5b505050506040513d601f19601f82011682018060405250810190610bfa9190612343565b6001549091506001600160a01b0316331480610c1e5750336001600160a01b038216145b610c3a5760405162461bcd60e51b8152600401610291906126b5565b50610c6a565b6001546001600160a01b03163314610c6a5760405162461bcd60e51b8152600401610291906126b5565b610c72610993565b15610cb25760405162461bcd60e51b815260206004820152601060248201526f105d5d1bdb585d194e881c185d5cd95960821b6044820152606401610291565b6001805460ff60a01b1916600160a01b179055565b604051630d7100e360e31b815230600482015260009073__$0bac19a4f6859fb91e3c64d76ce49d598f$__90636b8807189060240160206040518083038186803b158015610d1457600080fd5b505af4158015610d28573d6000803e3d6000fd5b505050506040513d601f19601f82011682018060405250810190610d4c9190612343565b9050336001600160a01b0382163014610dd557816001600160a01b0316638da5cb5b6040518163ffffffff1660e01b815260040160206040518083038186803b158015610d9857600080fd5b505afa158015610dac573d6000803e3d6000fd5b505050506040513d601f19601f82011682018060405250810190610dd09190612343565b610de2565b6001546001600160a01b03165b6001600160a01b031614610e5e5760405162461bcd60e51b815260206004820152603d60248201527f4175746f6d6174653a3a6368616e676550726f746f636f6c4665653a2063616c60448201527f6c6572206973206e6f74207468652070726f746f636f6c206f776e65720000006064820152608401610291565b60028290556040518281527f3c1d43943224e49d951ce8295a5c8332b517083b3f89bed50feae2cb39caebb59060200160405180910390a15050565b604051630d7100e360e31b8152306004820152600090819073__$0bac19a4f6859fb91e3c64d76ce49d598f$__90636b8807189060240160206040518083038186803b158015610ee957600080fd5b505af4158015610efd573d6000803e3d6000fd5b505050506040513d601f19601f82011682018060405250810190610f219190612343565b90506001600160a01b0381163014801590610f3e57506000600254125b15610fb457806001600160a01b031663b0e21e8a6040518163ffffffff1660e01b815260040160206040518083038186803b158015610f7c57600080fd5b505afa158015610f90573d6000803e3d6000fd5b505050506040513d601f19601f820116820180604052508101906103fa91906124ce565b6000610fbe6102de565b905060008060025412610fd35760025461106a565b60405163bd02d0f560e01b81527fa93d95f96a5de25d7a41ddf1f5e8d45cfc929c4838163cf011dab4043a4a40d560048201526001600160a01b0383169063bd02d0f59060240160206040518083038186803b15801561103257600080fd5b505afa158015611046573d6000803e3d6000fd5b505050506040513d601f19601f8201168201806040525081019061106a91906124ce565b90508061107b576000935050505090565b6040516321f8a72160e01b81527f65c90423fe7c880476633a7e36521740f87199d233dc56eb4ca6643eb76f605f60048201526000906001600160a01b038416906321f8a7219060240160206040518083038186803b1580156110dd57600080fd5b505afa1580156110f1573d6000803e3d6000fd5b505050506040513d601f19601f820116820180604052508101906111159190612343565b6001600160a01b031663feaf968c6040518163ffffffff1660e01b815260040160a06040518083038186803b15801561114d57600080fd5b505afa158015611161573d6000803e3d6000fd5b505050506040513d601f19601f8201168201806040525081019061118591906125b1565b505050915050600081136111db5760405162461bcd60e51b815260206004820152601760248201527f4175746f6d6174653a20696e76616c69642070726963650000000000000000006044820152606401610291565b806111ee83670de0b6b3a76400006127bb565b6111f89190612799565b94505050505090565b6001546001600160a01b0316331461122b5760405162461bcd60e51b815260040161029190612674565b60405163a9059cbb60e01b81526001600160a01b0383811660048301526024820183905284169063a9059cbb90604401602060405180830381600087803b15801561127557600080fd5b505af1158015611289573d6000803e3d6000fd5b505050506040513d601f19601f820116820180604052508101906112ad9190612493565b50505050565b6001546001600160a01b031633146112dd5760405162461bcd60e51b815260040161029190612674565b600354604080516372f702f360e01b815290516001600160a01b039092169160009183916372f702f391600480820192602092909190829003018186803b15801561132757600080fd5b505afa15801561133b573d6000803e3d6000fd5b505050506040513d601f19601f8201168201806040525081019061135f9190612343565b90506113746001600160a01b03821683611d2a565b6040516370a0823160e01b81523060048201526001600160a01b038084169163a694fc3a918416906370a082319060240160206040518083038186803b1580156113bd57600080fd5b505afa1580156113d1573d6000803e3d6000fd5b505050506040513d601f19601f820116820180604052508101906113f591906124ce565b6040518263ffffffff1660e01b815260040161141391815260200190565b600060405180830381600087803b15801561142d57600080fd5b505af1158015611441573d6000803e3d6000fd5b505050505050565b826040518060400160405280601d81526020017f426f6e646170706574697453796e7468657469784c5052657374616b6500000081525061148a8282611d3b565b506003546040516246613160e11b81523060048201526001600160a01b03909116906000908290628cc2629060240160206040518083038186803b1580156114d157600080fd5b505afa1580156114e5573d6000803e3d6000fd5b505050506040513d601f19601f8201168201806040525081019061150991906124ce565b116115685760405162461bcd60e51b815260206004820152602960248201527f53796e746865746978556e69737761704c7052657374616b653a3a72756e3a206044820152681b9bc819585c9b995960ba1b6064820152608401610291565b60006115726102de565b6040516321f8a72160e01b81527fa446c21f636a27494eaafaffc073cc3325d32c4efaa774c3f2a297ebef86980360048201526001600160a01b0391909116906321f8a7219060240160206040518083038186803b1580156115d357600080fd5b505afa1580156115e7573d6000803e3d6000fd5b505050506040513d601f19601f8201168201806040525081019061160b9190612343565b90506001600160a01b0381166116935760405162461bcd60e51b815260206004820152604160248201527f53796e746865746978556e69737761704c7052657374616b653a3a72756e3a2060448201527f756e697377617020726f7574657220636f6e7472616374206e6f7420666f756e6064820152601960fa1b608482015260a401610291565b816001600160a01b0316633d18b9126040518163ffffffff1660e01b8152600401600060405180830381600087803b1580156116ce57600080fd5b505af11580156116e2573d6000803e3d6000fd5b505050506000826001600160a01b031663d1af0c7d6040518163ffffffff1660e01b815260040160206040518083038186803b15801561172157600080fd5b505afa158015611735573d6000803e3d6000fd5b505050506040513d601f19601f820116820180604052508101906117599190612343565b6040516370a0823160e01b81523060048201529091506000906001600160a01b038316906370a082319060240160206040518083038186803b15801561179e57600080fd5b505afa1580156117b2573d6000803e3d6000fd5b505050506040513d601f19601f820116820180604052508101906117d691906124ce565b90506117eb6001600160a01b03831684611d2a565b6000846001600160a01b03166372f702f36040518163ffffffff1660e01b815260040160206040518083038186803b15801561182657600080fd5b505afa15801561183a573d6000803e3d6000fd5b505050506040513d601f19601f8201168201806040525081019061185e9190612343565b905060006040518060400160405280836001600160a01b0316630dfe16816040518163ffffffff1660e01b815260040160206040518083038186803b1580156118a657600080fd5b505afa1580156118ba573d6000803e3d6000fd5b505050506040513d601f19601f820116820180604052508101906118de9190612343565b6001600160a01b03166001600160a01b03168152602001836001600160a01b031663d21220a76040518163ffffffff1660e01b815260040160206040518083038186803b15801561192e57600080fd5b505afa158015611942573d6000803e3d6000fd5b505050506040513d601f19601f820116820180604052508101906119669190612343565b6001600160a01b039081169091526040805160e0810182528883166080820190815288841660a0830152845190931660c082015281518083019092529293506000929182916119d29190806119bc60028b612799565b81526020018f60005b602002015190528f611f60565b8152602001611a6560405180606001604052808a6001600160a01b03166001600160a01b03168152602001896001600160a01b03166001600160a01b0316815260200186600160028110611a2857611a28612807565b60200201516001600160a01b031690526040805180820190915280611a4e60028b612799565b611a58908b6127da565b81526020018f60016119c5565b81526020016000815260200160008152509050611ad76040518060600160405280886001600160a01b03166001600160a01b0316815260200184600060028110611ab157611ab1612807565b602090810291909101516001600160a01b0390811683528682015116910152828d6120d6565b611aea6001600160a01b03841688611d2a565b6040516370a0823160e01b81523060048201526001600160a01b038089169163a694fc3a918616906370a082319060240160206040518083038186803b158015611b3357600080fd5b505afa158015611b47573d6000803e3d6000fd5b505050506040513d601f19601f82011682018060405250810190611b6b91906124ce565b6040518263ffffffff1660e01b8152600401611b8991815260200190565b600060405180830381600087803b158015611ba357600080fd5b505af1158015611bb7573d6000803e3d6000fd5b50505050505050505050505050505050565b6001546001600160a01b03163314611bf35760405162461bcd60e51b815260040161029190612674565b604051630d7100e360e31b815230600482018190529073__$0bac19a4f6859fb91e3c64d76ce49d598f$__90636b8807189060240160206040518083038186803b158015611c4057600080fd5b505af4158015611c54573d6000803e3d6000fd5b505050506040513d601f19601f82011682018060405250810190611c789190612343565b6001600160a01b031614611cd85760405162461bcd60e51b815260206004820152602160248201527f4175746f6d6174653a206368616e676520746865206f776e6572206661696c656044820152601960fa1b6064820152608401610291565b600180546001600160a01b038381166001600160a01b0319831681179093556040519116919082907f8be0079c531659141344cd1fd0a4f28419497f9722a3daafe3b4186f6b6457e090600090a35050565b611d37828260001961219d565b5050565b6000611d45610993565b15611d855760405162461bcd60e51b815260206004820152601060248201526f105d5d1bdb585d194e881c185d5cd95960821b6044820152606401610291565b6000611d996001546001600160a01b031690565b9050326001600160a01b0382161415611db6576000915050611f5a565b6000611dc06102de565b6040516321f8a72160e01b81527fe78c16c6d839536d3155985aab4e9c6013c8c3d446054bcebc48612f359d81f560048201529091506000906001600160a01b038316906321f8a7219060240160206040518083038186803b158015611e2557600080fd5b505afa158015611e39573d6000803e3d6000fd5b505050506040513d601f19601f82011682018060405250810190611e5d9190612343565b90506001600160a01b038116611ec95760405162461bcd60e51b815260206004820152602b60248201527f4175746f6d6174653a3a5f62696c6c3a2062616c616e636520636f6e7472616360448201526a1d081b9bdd08199bdd5b9960aa1b6064820152608401610291565b806001600160a01b031663e578a2258488611ee2610e9a565b896040518563ffffffff1660e01b8152600401611f029493929190612601565b602060405180830381600087803b158015611f1c57600080fd5b505af1158015611f30573d6000803e3d6000fd5b505050506040513d601f19601f82011682018060405250810190611f5491906124ce565b93505050505b92915050565b604083015160208401516000916001600160a01b0391821691161415611f88575081516120cf565b604080516002808252606082018352600092602083019080368337019050509050846001602002015181600081518110611fc457611fc4612807565b6001600160a01b0390921660209283029190910190910152846002602002015181600181518110611ff757611ff7612807565b6001600160a01b0392831660209182029290920101528551604087015161201f921690611d2a565b8451845160208601516040516338ed173960e01b81526001600160a01b03909316926338ed17399261205b929091869030908a906004016126f7565b600060405180830381600087803b15801561207557600080fd5b505af1158015612089573d6000803e3d6000fd5b505050506040513d6000823e601f3d908101601f191682016040526120b191908101906123e6565b6001815181106120c3576120c3612807565b60200260200101519150505b9392505050565b8251602080850151604080870151865193870151878301516060890151935162e8e33760e81b81526001600160a01b039586166004820152928516602484015260448301959095526064820152608481019390935260a48301523060c483015260e482018490529091169063e8e337009061010401606060405180830381600087803b15801561216557600080fd5b505af1158015612179573d6000803e3d6000fd5b505050506040513d601f19601f820116820180604052508101906114419190612583565b604051636eb1769f60e11b81523060048201526001600160a01b0383811660248301526000919085169063dd62ed3e9060440160206040518083038186803b1580156121e857600080fd5b505afa1580156121fc573d6000803e3d6000fd5b505050506040513d601f19601f8201168201806040525081019061222091906124ce565b9050801580159061223057508181105b156122b95760405163095ea7b360e01b81526001600160a01b0384811660048301526000602483015285169063095ea7b390604401602060405180830381600087803b15801561227f57600080fd5b505af1158015612293573d6000803e3d6000fd5b505050506040513d601f19601f820116820180604052508101906122b79190612493565b505b8181146112ad5760405163095ea7b360e01b81526001600160a01b0384811660048301526024820184905285169063095ea7b39060440161093a565b803561ffff8116811461230757600080fd5b919050565b805169ffffffffffffffffffff8116811461230757600080fd5b60006020828403121561233857600080fd5b81356120cf81612833565b60006020828403121561235557600080fd5b81516120cf81612833565b60008060006060848603121561237557600080fd5b833561238081612833565b9250602084013561239081612833565b929592945050506040919091013590565b6000806000606084860312156123b657600080fd5b83356123c181612833565b92506123cf602085016122f5565b91506123dd604085016122f5565b90509250925092565b600060208083850312156123f957600080fd5b825167ffffffffffffffff8082111561241157600080fd5b818501915085601f83011261242557600080fd5b8151818111156124375761243761281d565b8060051b9150612448848301612768565b8181528481019084860184860187018a101561246357600080fd5b600095505b83861015612486578051835260019590950194918601918601612468565b5098975050505050505050565b6000602082840312156124a557600080fd5b815180151581146120cf57600080fd5b6000602082840312156124c757600080fd5b5035919050565b6000602082840312156124e057600080fd5b5051919050565b6000806000608084860312156124fc57600080fd5b83359250602080850135925085605f86011261251757600080fd5b6040516040810181811067ffffffffffffffff8211171561253a5761253a61281d565b806040525080604087018860808901111561255457600080fd5b60005b600281101561257457813583529184019190840190600101612557565b50505080925050509250925092565b60008060006060848603121561259857600080fd5b8351925060208401519150604084015190509250925092565b600080600080600060a086880312156125c957600080fd5b6125d28661230c565b94506020860151935060408601519250606086015191506125f56080870161230c565b90509295509295909350565b60018060a01b038516815260006020858184015284604084015260806060840152835180608085015260005b818110156126495785810183015185820160a00152820161262d565b8181111561265b57600060a083870101525b50601f01601f19169290920160a0019695505050505050565b60208082526021908201527f4175746f6d6174653a2063616c6c6572206973206e6f7420746865206f776e656040820152603960f91b606082015260800190565b60208082526022908201527f4175746f6d6174653a2063616c6c6572206973206e6f7420746865207061757360408201526132b960f11b606082015260800190565b600060a082018783526020878185015260a0604085015281875180845260c086019150828901935060005b818110156127475784516001600160a01b031683529383019391830191600101612722565b50506001600160a01b03969096166060850152505050608001529392505050565b604051601f8201601f1916810167ffffffffffffffff811182821017156127915761279161281d565b604052919050565b6000826127b657634e487b7160e01b600052601260045260246000fd5b500490565b60008160001904831182151516156127d5576127d56127f1565b500290565b6000828210156127ec576127ec6127f1565b500390565b634e487b7160e01b600052601160045260246000fd5b634e487b7160e01b600052603260045260246000fd5b634e487b7160e01b600052604160045260246000fd5b6001600160a01b038116811461284857600080fd5b5056fea2646970667358221220a1f24b481d1dcba663b4bf22692d5b1db3bdae1242cef5879fa2714487d288a564736f6c63430008060033",
  "libraries": {
    "ERC1167": "0x26902B32F1AE6B130c0287B4b8E86F3a62df6051"
  },
  "devdoc": {
    "kind": "dev",
    "methods": {
      "changeProtocolFee(int256)": {
        "params": {
          "__protocolFee": "New protocol fee."
        }
      },
      "protocolFee()": {
        "returns": {
          "_0": "Current protocol fee."
        }
      },
      "transfer(address,address,uint256)": {
        "params": {
          "amount": "Transferred amount of tokens.",
          "recipient": "Token recipient address.",
          "token": "The address of the token to be transferred."
        }
      },
      "transferOwnership(address)": {
        "details": "Transfers ownership of the contract to a new account (`newOwner`). Can only be called by the current owner."
      }
    },
    "version": 1
  },
  "userdoc": {
    "kind": "user",
    "methods": {
      "changeProtocolFee(int256)": {
        "notice": "Change protocol fee."
      },
      "info()": {
        "notice": "Returns address of Storage contract."
      },
      "owner()": {
        "notice": "Returns the address of the current owner."
      },
      "pause()": {
        "notice": "Pause contract."
      },
      "paused()": {
        "notice": "Returns true if the contract is paused, and false otherwise."
      },
      "transfer(address,address,uint256)": {
        "notice": "Transfer ERC20 token to recipient."
      },
      "unpause()": {
        "notice": "Unpause contract."
      }
    },
    "version": 1
  },
  "storageLayout": {
    "storage": [
      {
        "astId": 1786,
        "contract": "automates/bondappetit/SynthetixUniswapLpRestake.automate.sol:SynthetixUniswapLpRestake",
        "label": "_info",
        "offset": 0,
        "slot": "0",
        "type": "t_address"
      },
      {
        "astId": 1789,
        "contract": "automates/bondappetit/SynthetixUniswapLpRestake.automate.sol:SynthetixUniswapLpRestake",
        "label": "_owner",
        "offset": 0,
        "slot": "1",
        "type": "t_address"
      },
      {
        "astId": 1792,
        "contract": "automates/bondappetit/SynthetixUniswapLpRestake.automate.sol:SynthetixUniswapLpRestake",
        "label": "_paused",
        "offset": 20,
        "slot": "1",
        "type": "t_bool"
      },
      {
        "astId": 1795,
        "contract": "automates/bondappetit/SynthetixUniswapLpRestake.automate.sol:SynthetixUniswapLpRestake",
        "label": "_protocolFee",
        "offset": 0,
        "slot": "2",
        "type": "t_int256"
      },
      {
        "astId": 823,
        "contract": "automates/bondappetit/SynthetixUniswapLpRestake.automate.sol:SynthetixUniswapLpRestake",
        "label": "staking",
        "offset": 0,
        "slot": "3",
        "type": "t_contract(IStaking)2896"
      },
      {
        "astId": 825,
        "contract": "automates/bondappetit/SynthetixUniswapLpRestake.automate.sol:SynthetixUniswapLpRestake",
        "label": "slippage",
        "offset": 20,
        "slot": "3",
        "type": "t_uint16"
      },
      {
        "astId": 827,
        "contract": "automates/bondappetit/SynthetixUniswapLpRestake.automate.sol:SynthetixUniswapLpRestake",
        "label": "deadline",
        "offset": 22,
        "slot": "3",
        "type": "t_uint16"
      }
    ],
    "types": {
      "t_address": {
        "encoding": "inplace",
        "label": "address",
        "numberOfBytes": "20"
      },
      "t_bool": {
        "encoding": "inplace",
        "label": "bool",
        "numberOfBytes": "1"
      },
      "t_contract(IStaking)2896": {
        "encoding": "inplace",
        "label": "contract IStaking",
        "numberOfBytes": "20"
      },
      "t_int256": {
        "encoding": "inplace",
        "label": "int256",
        "numberOfBytes": "32"
      },
      "t_uint16": {
        "encoding": "inplace",
        "label": "uint16",
        "numberOfBytes": "2"
      }
    }
  }
}