{
  "_format": "hh-sol-artifact-1",
  "contractName": "GaugeUniswapRestake",
  "sourceName": "automates/curve/GaugeUniswapRestake.automate.sol",
  "abi": [
    {
      "inputs": [
        {
          "internalType": "address",
          "name": "_info",
          "type": "address"
        }
      ],
      "stateMutability": "nonpayable",
      "type": "constructor"
    },
    {
      "anonymous": false,
      "inputs": [
        {
          "indexed": true,
          "internalType": "address",
          "name": "previousOwner",
          "type": "address"
        },
        {
          "indexed": true,
          "internalType": "address",
          "name": "newOwner",
          "type": "address"
        }
      ],
      "name": "OwnershipTransferred",
      "type": "event"
    },
    {
      "anonymous": false,
      "inputs": [
        {
          "indexed": false,
          "internalType": "int256",
          "name": "protocolFee",
          "type": "int256"
        }
      ],
      "name": "ProtocolFeeChanged",
      "type": "event"
    },
    {
      "inputs": [
        {
          "internalType": "uint256",
          "name": "amount",
          "type": "uint256"
        }
      ],
      "name": "calcTokenAmount",
      "outputs": [
        {
          "internalType": "uint256",
          "name": "",
          "type": "uint256"
        }
      ],
      "stateMutability": "view",
      "type": "function"
    },
    {
      "inputs": [
        {
          "internalType": "int256",
          "name": "__protocolFee",
          "type": "int256"
        }
      ],
      "name": "changeProtocolFee",
      "outputs": [],
      "stateMutability": "nonpayable",
      "type": "function"
    },
    {
      "inputs": [],
      "name": "deadline",
      "outputs": [
        {
          "internalType": "uint16",
          "name": "",
          "type": "uint16"
        }
      ],
      "stateMutability": "view",
      "type": "function"
    },
    {
      "inputs": [],
      "name": "deposit",
      "outputs": [],
      "stateMutability": "nonpayable",
      "type": "function"
    },
    {
      "inputs": [],
      "name": "info",
      "outputs": [
        {
          "internalType": "address",
          "name": "",
          "type": "address"
        }
      ],
      "stateMutability": "view",
      "type": "function"
    },
    {
      "inputs": [
        {
          "internalType": "address",
          "name": "_staking",
          "type": "address"
        },
        {
          "internalType": "address",
          "name": "_liquidityRouter",
          "type": "address"
        },
        {
          "internalType": "address",
          "name": "_swapToken",
          "type": "address"
        },
        {
          "internalType": "uint16",
          "name": "_slippage",
          "type": "uint16"
        },
        {
          "internalType": "uint16",
          "name": "_deadline",
          "type": "uint16"
        }
      ],
      "name": "init",
      "outputs": [],
      "stateMutability": "nonpayable",
      "type": "function"
    },
    {
      "inputs": [],
      "name": "liquidityRouter",
      "outputs": [
        {
          "internalType": "address",
          "name": "",
          "type": "address"
        }
      ],
      "stateMutability": "view",
      "type": "function"
    },
    {
      "inputs": [],
      "name": "owner",
      "outputs": [
        {
          "internalType": "address",
          "name": "",
          "type": "address"
        }
      ],
      "stateMutability": "view",
      "type": "function"
    },
    {
      "inputs": [],
      "name": "pause",
      "outputs": [],
      "stateMutability": "nonpayable",
      "type": "function"
    },
    {
      "inputs": [],
      "name": "paused",
      "outputs": [
        {
          "internalType": "bool",
          "name": "",
          "type": "bool"
        }
      ],
      "stateMutability": "view",
      "type": "function"
    },
    {
      "inputs": [],
      "name": "protocolFee",
      "outputs": [
        {
          "internalType": "uint256",
          "name": "",
          "type": "uint256"
        }
      ],
      "stateMutability": "view",
      "type": "function"
    },
    {
      "inputs": [],
      "name": "refund",
      "outputs": [],
      "stateMutability": "nonpayable",
      "type": "function"
    },
    {
      "inputs": [
        {
          "internalType": "uint256",
          "name": "gasFee",
          "type": "uint256"
        },
        {
          "internalType": "uint256",
          "name": "_deadline",
          "type": "uint256"
        },
        {
          "internalType": "uint256",
          "name": "swapOutMin",
          "type": "uint256"
        },
        {
          "internalType": "uint256",
          "name": "lpOutMin",
          "type": "uint256"
        }
      ],
      "name": "run",
      "outputs": [],
      "stateMutability": "nonpayable",
      "type": "function"
    },
    {
      "inputs": [],
      "name": "slippage",
      "outputs": [
        {
          "internalType": "uint16",
          "name": "",
          "type": "uint16"
        }
      ],
      "stateMutability": "view",
      "type": "function"
    },
    {
      "inputs": [],
      "name": "staking",
      "outputs": [
        {
          "internalType": "contract IGauge",
          "name": "",
          "type": "address"
        }
      ],
      "stateMutability": "view",
      "type": "function"
    },
    {
      "inputs": [],
      "name": "swapToken",
      "outputs": [
        {
          "internalType": "address",
          "name": "",
          "type": "address"
        }
      ],
      "stateMutability": "view",
      "type": "function"
    },
    {
      "inputs": [
        {
          "internalType": "address",
          "name": "token",
          "type": "address"
        },
        {
          "internalType": "address",
          "name": "recipient",
          "type": "address"
        },
        {
          "internalType": "uint256",
          "name": "amount",
          "type": "uint256"
        }
      ],
      "name": "transfer",
      "outputs": [],
      "stateMutability": "nonpayable",
      "type": "function"
    },
    {
      "inputs": [
        {
          "internalType": "address",
          "name": "newOwner",
          "type": "address"
        }
      ],
      "name": "transferOwnership",
      "outputs": [],
      "stateMutability": "nonpayable",
      "type": "function"
    },
    {
      "inputs": [],
      "name": "unpause",
      "outputs": [],
      "stateMutability": "nonpayable",
      "type": "function"
    }
  ],
  "bytecode": "0x60806040523480156200001157600080fd5b5060405162003da838038062003da8833981016040819052620000349162000069565b600080546001600160a01b039092166001600160a01b031992831617905560018054909116321790556000196002556200009b565b6000602082840312156200007c57600080fd5b81516001600160a01b03811681146200009457600080fd5b9392505050565b613cfd80620000ab6000396000f3fe608060405234801561001057600080fd5b50600436106101515760003560e01c806360d20ccc116100cd578063b0e21e8a11610081578063d0e30db011610066578063d0e30db0146102ee578063dc73e49c146102f6578063f2fde38b1461031657600080fd5b8063b0e21e8a146102d3578063beabacc8146102db57600080fd5b80638456cb59116100b25780638456cb591461029a5780638da5cb5b146102a25780639742b5c3146102c057600080fd5b806360d20ccc146102665780637b7902dd1461027957600080fd5b80633e032a3b116101245780634cf088d9116101095780634cf088d914610226578063590e1ae3146102465780635c975abb1461024e57600080fd5b80633e032a3b146101f85780633f4ba83a1461021e57600080fd5b806315509d2b14610156578063247029441461016b57806329dcb0cf146101b5578063370158ea146101f0575b600080fd5b610169610164366004613901565b610329565b005b60045461018b9073ffffffffffffffffffffffffffffffffffffffff1681565b60405173ffffffffffffffffffffffffffffffffffffffff90911681526020015b60405180910390f35b6005546101dd90760100000000000000000000000000000000000000000000900461ffff1681565b60405161ffff90911681526020016101ac565b61018b6107cb565b6005546101dd9074010000000000000000000000000000000000000000900461ffff1681565b61016961092d565b60035461018b9073ffffffffffffffffffffffffffffffffffffffff1681565b610169610cc4565b61025661131a565b60405190151581526020016101ac565b6101696102743660046136c2565b61149f565b61028c6102873660046138cf565b611a60565b6040519081526020016101ac565b610169611cb1565b60015473ffffffffffffffffffffffffffffffffffffffff1661018b565b6101696102ce3660046138cf565b61205b565b61028c612295565b6101696102e936600461372d565b6126a2565b6101696127f7565b60055461018b9073ffffffffffffffffffffffffffffffffffffffff1681565b610169610324366004613681565b6129f6565b836040518060400160405280601881526020017f43757276654761756765556e697377617052657374616b65000000000000000081525061036a8282612c55565b50600354604080517f07546172000000000000000000000000000000000000000000000000000000008152905173ffffffffffffffffffffffffffffffffffffffff909216916000918391630754617291600480820192602092909190829003018186803b1580156103db57600080fd5b505afa1580156103ef573d6000803e3d6000fd5b505050506040513d601f19601f8201168201806040525081019061041391906136a5565b6003546040517f6a62784200000000000000000000000000000000000000000000000000000000815273ffffffffffffffffffffffffffffffffffffffff9182166004820152919250821690636a62784290602401600060405180830381600087803b15801561048257600080fd5b505af1158015610496573d6000803e3d6000fd5b5050505060008273ffffffffffffffffffffffffffffffffffffffff166376d8b1176040518163ffffffff1660e01b815260040160206040518083038186803b1580156104e257600080fd5b505afa1580156104f6573d6000803e3d6000fd5b505050506040513d601f19601f8201168201806040525081019061051a91906136a5565b6040517f70a0823100000000000000000000000000000000000000000000000000000000815230600482015290915060009073ffffffffffffffffffffffffffffffffffffffff8316906370a082319060240160206040518083038186803b15801561058557600080fd5b505afa158015610599573d6000803e3d6000fd5b505050506040513d601f19601f820116820180604052508101906105bd91906138e8565b6004549091506105e79073ffffffffffffffffffffffffffffffffffffffff848116911683612f27565b6040805180820190915273ffffffffffffffffffffffffffffffffffffffff808416825260055416602082015260009061062390838b8d613145565b6007546005549192506106509173ffffffffffffffffffffffffffffffffffffffff908116911683612f27565b6007546106749073ffffffffffffffffffffffffffffffffffffffff16828a6132c0565b6006546040517f70a0823100000000000000000000000000000000000000000000000000000000815230600482015260009173ffffffffffffffffffffffffffffffffffffffff16906370a082319060240160206040518083038186803b1580156106de57600080fd5b505afa1580156106f2573d6000803e3d6000fd5b505050506040513d601f19601f8201168201806040525081019061071691906138e8565b60065490915061073d9073ffffffffffffffffffffffffffffffffffffffff168783612f27565b6040517fb6b55f250000000000000000000000000000000000000000000000000000000081526004810182905273ffffffffffffffffffffffffffffffffffffffff87169063b6b55f2590602401600060405180830381600087803b1580156107a557600080fd5b505af11580156107b9573d6000803e3d6000fd5b50505050505050505050505050505050565b6040517f6b880718000000000000000000000000000000000000000000000000000000008152306004820152600090819073__$0bac19a4f6859fb91e3c64d76ce49d598f$__90636b8807189060240160206040518083038186803b15801561083357600080fd5b505af4158015610847573d6000803e3d6000fd5b505050506040513d601f19601f8201168201806040525081019061086b91906136a5565b905073ffffffffffffffffffffffffffffffffffffffff81163014156108a957505060005473ffffffffffffffffffffffffffffffffffffffff1690565b8073ffffffffffffffffffffffffffffffffffffffff1663370158ea6040518163ffffffff1660e01b815260040160206040518083038186803b1580156108ef57600080fd5b505afa158015610903573d6000803e3d6000fd5b505050506040513d601f19601f8201168201806040525081019061092791906136a5565b91505090565b6040517f6b88071800000000000000000000000000000000000000000000000000000000815230600482018190529073__$0bac19a4f6859fb91e3c64d76ce49d598f$__90636b8807189060240160206040518083038186803b15801561099357600080fd5b505af41580156109a7573d6000803e3d6000fd5b505050506040513d601f19601f820116820180604052508101906109cb91906136a5565b73ffffffffffffffffffffffffffffffffffffffff161415610b855760006109f16107cb565b6040517f21f8a7210000000000000000000000000000000000000000000000000000000081527f689d13d8ed8ef1027633ba26e7121121cf427434450a529548f19bf175974395600482015273ffffffffffffffffffffffffffffffffffffffff91909116906321f8a7219060240160206040518083038186803b158015610a7857600080fd5b505afa158015610a8c573d6000803e3d6000fd5b505050506040513d601f19601f82011682018060405250810190610ab091906136a5565b60015490915073ffffffffffffffffffffffffffffffffffffffff16331480610aee57503373ffffffffffffffffffffffffffffffffffffffff8216145b610b7f576040517f08c379a000000000000000000000000000000000000000000000000000000000815260206004820152602260248201527f4175746f6d6174653a2063616c6c6572206973206e6f7420746865207061757360448201527f657200000000000000000000000000000000000000000000000000000000000060648201526084015b60405180910390fd5b50610c2c565b60015473ffffffffffffffffffffffffffffffffffffffff163314610c2c576040517f08c379a000000000000000000000000000000000000000000000000000000000815260206004820152602260248201527f4175746f6d6174653a2063616c6c6572206973206e6f7420746865207061757360448201527f65720000000000000000000000000000000000000000000000000000000000006064820152608401610b76565b610c3461131a565b610c9a576040517f08c379a000000000000000000000000000000000000000000000000000000000815260206004820152601460248201527f4175746f6d6174653a206e6f74207061757365640000000000000000000000006044820152606401610b76565b600180547fffffffffffffffffffffff00ffffffffffffffffffffffffffffffffffffffff169055565b60015473ffffffffffffffffffffffffffffffffffffffff163314610d6b576040517f08c379a000000000000000000000000000000000000000000000000000000000815260206004820152602160248201527f4175746f6d6174653a2063616c6c6572206973206e6f7420746865206f776e6560448201527f72000000000000000000000000000000000000000000000000000000000000006064820152608401610b76565b6000610d8c60015473ffffffffffffffffffffffffffffffffffffffff1690565b6003546040517f70a0823100000000000000000000000000000000000000000000000000000000815230600482015291925073ffffffffffffffffffffffffffffffffffffffff169060009082906370a082319060240160206040518083038186803b158015610dfb57600080fd5b505afa158015610e0f573d6000803e3d6000fd5b505050506040513d601f19601f82011682018060405250810190610e3391906138e8565b90508015610ebc576040517f2e1a7d4d0000000000000000000000000000000000000000000000000000000081526004810182905273ffffffffffffffffffffffffffffffffffffffff831690632e1a7d4d90602401600060405180830381600087803b158015610ea357600080fd5b505af1158015610eb7573d6000803e3d6000fd5b505050505b6006546040517f70a0823100000000000000000000000000000000000000000000000000000000815230600482015260009173ffffffffffffffffffffffffffffffffffffffff16906370a082319060240160206040518083038186803b158015610f2657600080fd5b505afa158015610f3a573d6000803e3d6000fd5b505050506040513d601f19601f82011682018060405250810190610f5e91906138e8565b90508015611014576006546040517fa9059cbb00000000000000000000000000000000000000000000000000000000815273ffffffffffffffffffffffffffffffffffffffff8681166004830152602482018490529091169063a9059cbb90604401602060405180830381600087803b158015610fda57600080fd5b505af1158015610fee573d6000803e3d6000fd5b505050506040513d601f19601f8201168201806040525081019061101291906138ad565b505b600354604080517f07546172000000000000000000000000000000000000000000000000000000008152905160009273ffffffffffffffffffffffffffffffffffffffff16916307546172916004808301926020929190829003018186803b15801561107f57600080fd5b505afa158015611093573d6000803e3d6000fd5b505050506040513d601f19601f820116820180604052508101906110b791906136a5565b6040517f6a62784200000000000000000000000000000000000000000000000000000000815273ffffffffffffffffffffffffffffffffffffffff868116600483015291925090821690636a62784290602401600060405180830381600087803b15801561112457600080fd5b505af1158015611138573d6000803e3d6000fd5b5050505060008473ffffffffffffffffffffffffffffffffffffffff166376d8b1176040518163ffffffff1660e01b815260040160206040518083038186803b15801561118457600080fd5b505afa158015611198573d6000803e3d6000fd5b505050506040513d601f19601f820116820180604052508101906111bc91906136a5565b6040517f70a0823100000000000000000000000000000000000000000000000000000000815230600482015290915060009073ffffffffffffffffffffffffffffffffffffffff8316906370a082319060240160206040518083038186803b15801561122757600080fd5b505afa15801561123b573d6000803e3d6000fd5b505050506040513d601f19601f8201168201806040525081019061125f91906138e8565b90508015611311576040517fa9059cbb00000000000000000000000000000000000000000000000000000000815273ffffffffffffffffffffffffffffffffffffffff88811660048301526024820183905283169063a9059cbb90604401602060405180830381600087803b1580156112d757600080fd5b505af11580156112eb573d6000803e3d6000fd5b505050506040513d601f19601f8201168201806040525081019061130f91906138ad565b505b50505050505050565b6040517f6b880718000000000000000000000000000000000000000000000000000000008152306004820152600090819073__$0bac19a4f6859fb91e3c64d76ce49d598f$__90636b8807189060240160206040518083038186803b15801561138257600080fd5b505af4158015611396573d6000803e3d6000fd5b505050506040513d601f19601f820116820180604052508101906113ba91906136a5565b905073ffffffffffffffffffffffffffffffffffffffff81163014156113fd57505060015474010000000000000000000000000000000000000000900460ff1690565b60015474010000000000000000000000000000000000000000900460ff168061092757508073ffffffffffffffffffffffffffffffffffffffff16635c975abb6040518163ffffffff1660e01b815260040160206040518083038186803b15801561146757600080fd5b505afa15801561147b573d6000803e3d6000fd5b505050506040513d601f19601f8201168201806040525081019061092791906138ad565b60015473ffffffffffffffffffffffffffffffffffffffff1661150f57600180547fffffffffffffffffffffffff000000000000000000000000000000000000000016321790557fffffffffffffffffffffffffffffffffffffffffffffffffffffffffffffffff6002556115b6565b60015473ffffffffffffffffffffffffffffffffffffffff1633146115b6576040517f08c379a000000000000000000000000000000000000000000000000000000000815260206004820152602160248201527f4175746f6d6174653a2063616c6c6572206973206e6f7420746865206f776e6560448201527f72000000000000000000000000000000000000000000000000000000000000006064820152608401610b76565b60006115c0613546565b6003805473ffffffffffffffffffffffffffffffffffffffff808a167fffffffffffffffffffffffff00000000000000000000000000000000000000009283168117909355600480548a831693169290921782556005805461ffff888116760100000000000000000000000000000000000000000000027fffffffffffffffff0000ffffffffffffffffffffffffffffffffffffffffffff918b1674010000000000000000000000000000000000000000027fffffffffffffffffffff00000000000000000000000000000000000000000000909316948c16949094179190911716919091179055604080517f82c63066000000000000000000000000000000000000000000000000000000008152905193945091926382c63066928083019260209291829003018186803b1580156116f857600080fd5b505afa15801561170c573d6000803e3d6000fd5b505050506040513d601f19601f8201168201806040525081019061173091906136a5565b600680547fffffffffffffffffffffffff00000000000000000000000000000000000000001673ffffffffffffffffffffffffffffffffffffffff9283169081179091556040517fbdf475c300000000000000000000000000000000000000000000000000000000815260048101919091529082169063bdf475c39060240160206040518083038186803b1580156117c757600080fd5b505afa1580156117db573d6000803e3d6000fd5b505050506040513d601f19601f820116820180604052508101906117ff91906136a5565b600780547fffffffffffffffffffffffff00000000000000000000000000000000000000001673ffffffffffffffffffffffffffffffffffffffff9283169081179091556040517f9ac90d3d0000000000000000000000000000000000000000000000000000000081526004810191909152600091831690639ac90d3d906024016101006040518083038186803b15801561189957600080fd5b505afa1580156118ad573d6000803e3d6000fd5b505050506040513d601f19601f820116820180604052508101906118d1919061376e565b90505b60075460097401000000000000000000000000000000000000000090910460ff1610156113115760075460087401000000000000000000000000000000000000000090910460ff16106119a9576040517f08c379a000000000000000000000000000000000000000000000000000000000815260206004820152603560248201527f4761756765556e697377617052657374616b653a3a696e69743a20696e76616c60448201527f6964207377617020746f6b656e206164647265737300000000000000000000006064820152608401610b76565b60075473ffffffffffffffffffffffffffffffffffffffff861690829074010000000000000000000000000000000000000000900460ff16600881106119f1576119f1613c6d565b602002015173ffffffffffffffffffffffffffffffffffffffff161415611a1757611311565b6007805474010000000000000000000000000000000000000000900460ff16906014611a4283613c1e565b91906101000a81548160ff021916908360ff160217905550506118d4565b60075460009073ffffffffffffffffffffffffffffffffffffffff1681611a85613546565b6040517f940494f100000000000000000000000000000000000000000000000000000000815273ffffffffffffffffffffffffffffffffffffffff84811660048301529192509082169063940494f19060240160206040518083038186803b158015611af057600080fd5b505afa158015611b04573d6000803e3d6000fd5b505050506040513d601f19601f82011682018060405250810190611b2891906138e8565b60031415611c1d57611b38613614565b6007548590829074010000000000000000000000000000000000000000900460ff1660038110611b6a57611b6a613c6d565b60200201526040517f3883e11900000000000000000000000000000000000000000000000000000000815273ffffffffffffffffffffffffffffffffffffffff841690633883e11990611bc4908490600190600401613a94565b60206040518083038186803b158015611bdc57600080fd5b505afa158015611bf0573d6000803e3d6000fd5b505050506040513d601f19601f82011682018060405250810190611c1491906138e8565b95945050505050565b611c25613632565b6007548590829074010000000000000000000000000000000000000000900460ff1660028110611c5757611c57613c6d565b60200201526040517fed8e84f300000000000000000000000000000000000000000000000000000000815273ffffffffffffffffffffffffffffffffffffffff84169063ed8e84f390611bc4908490600190600401613a5c565b6040517f6b88071800000000000000000000000000000000000000000000000000000000815230600482018190529073__$0bac19a4f6859fb91e3c64d76ce49d598f$__90636b8807189060240160206040518083038186803b158015611d1757600080fd5b505af4158015611d2b573d6000803e3d6000fd5b505050506040513d601f19601f82011682018060405250810190611d4f91906136a5565b73ffffffffffffffffffffffffffffffffffffffff161415611f04576000611d756107cb565b6040517f21f8a7210000000000000000000000000000000000000000000000000000000081527f689d13d8ed8ef1027633ba26e7121121cf427434450a529548f19bf175974395600482015273ffffffffffffffffffffffffffffffffffffffff91909116906321f8a7219060240160206040518083038186803b158015611dfc57600080fd5b505afa158015611e10573d6000803e3d6000fd5b505050506040513d601f19601f82011682018060405250810190611e3491906136a5565b60015490915073ffffffffffffffffffffffffffffffffffffffff16331480611e7257503373ffffffffffffffffffffffffffffffffffffffff8216145b611efe576040517f08c379a000000000000000000000000000000000000000000000000000000000815260206004820152602260248201527f4175746f6d6174653a2063616c6c6572206973206e6f7420746865207061757360448201527f65720000000000000000000000000000000000000000000000000000000000006064820152608401610b76565b50611fab565b60015473ffffffffffffffffffffffffffffffffffffffff163314611fab576040517f08c379a000000000000000000000000000000000000000000000000000000000815260206004820152602260248201527f4175746f6d6174653a2063616c6c6572206973206e6f7420746865207061757360448201527f65720000000000000000000000000000000000000000000000000000000000006064820152608401610b76565b611fb361131a565b1561201a576040517f08c379a000000000000000000000000000000000000000000000000000000000815260206004820152601060248201527f4175746f6d6174653a20706175736564000000000000000000000000000000006044820152606401610b76565b600180547fffffffffffffffffffffff00ffffffffffffffffffffffffffffffffffffffff1674010000000000000000000000000000000000000000179055565b6040517f6b88071800000000000000000000000000000000000000000000000000000000815230600482015260009073__$0bac19a4f6859fb91e3c64d76ce49d598f$__90636b8807189060240160206040518083038186803b1580156120c157600080fd5b505af41580156120d5573d6000803e3d6000fd5b505050506040513d601f19601f820116820180604052508101906120f991906136a5565b90503373ffffffffffffffffffffffffffffffffffffffff8216301461219c578173ffffffffffffffffffffffffffffffffffffffff16638da5cb5b6040518163ffffffff1660e01b815260040160206040518083038186803b15801561215f57600080fd5b505afa158015612173573d6000803e3d6000fd5b505050506040513d601f19601f8201168201806040525081019061219791906136a5565b6121b6565b60015473ffffffffffffffffffffffffffffffffffffffff165b73ffffffffffffffffffffffffffffffffffffffff1614612259576040517f08c379a000000000000000000000000000000000000000000000000000000000815260206004820152603d60248201527f4175746f6d6174653a3a6368616e676550726f746f636f6c4665653a2063616c60448201527f6c6572206973206e6f74207468652070726f746f636f6c206f776e65720000006064820152608401610b76565b60028290556040518281527f3c1d43943224e49d951ce8295a5c8332b517083b3f89bed50feae2cb39caebb59060200160405180910390a15050565b6040517f6b880718000000000000000000000000000000000000000000000000000000008152306004820152600090819073__$0bac19a4f6859fb91e3c64d76ce49d598f$__90636b8807189060240160206040518083038186803b1580156122fd57600080fd5b505af4158015612311573d6000803e3d6000fd5b505050506040513d601f19601f8201168201806040525081019061233591906136a5565b905073ffffffffffffffffffffffffffffffffffffffff8116301480159061235f57506000600254125b156123e2578073ffffffffffffffffffffffffffffffffffffffff1663b0e21e8a6040518163ffffffff1660e01b815260040160206040518083038186803b1580156123aa57600080fd5b505afa1580156123be573d6000803e3d6000fd5b505050506040513d601f19601f8201168201806040525081019061092791906138e8565b60006123ec6107cb565b905060008060025412612401576002546124be565b6040517fbd02d0f50000000000000000000000000000000000000000000000000000000081527fa93d95f96a5de25d7a41ddf1f5e8d45cfc929c4838163cf011dab4043a4a40d5600482015273ffffffffffffffffffffffffffffffffffffffff83169063bd02d0f59060240160206040518083038186803b15801561248657600080fd5b505afa15801561249a573d6000803e3d6000fd5b505050506040513d601f19601f820116820180604052508101906124be91906138e8565b9050806124cf576000935050505090565b6040517f21f8a7210000000000000000000000000000000000000000000000000000000081527f65c90423fe7c880476633a7e36521740f87199d233dc56eb4ca6643eb76f605f600482015260009073ffffffffffffffffffffffffffffffffffffffff8416906321f8a7219060240160206040518083038186803b15801561255757600080fd5b505afa15801561256b573d6000803e3d6000fd5b505050506040513d601f19601f8201168201806040525081019061258f91906136a5565b73ffffffffffffffffffffffffffffffffffffffff1663feaf968c6040518163ffffffff1660e01b815260040160a06040518083038186803b1580156125d457600080fd5b505afa1580156125e8573d6000803e3d6000fd5b505050506040513d601f19601f8201168201806040525081019061260c9190613933565b5050509150506000811361267c576040517f08c379a000000000000000000000000000000000000000000000000000000000815260206004820152601760248201527f4175746f6d6174653a20696e76616c69642070726963650000000000000000006044820152606401610b76565b8061268f83670de0b6b3a7640000613be1565b6126999190613ba6565b94505050505090565b60015473ffffffffffffffffffffffffffffffffffffffff163314612749576040517f08c379a000000000000000000000000000000000000000000000000000000000815260206004820152602160248201527f4175746f6d6174653a2063616c6c6572206973206e6f7420746865206f776e6560448201527f72000000000000000000000000000000000000000000000000000000000000006064820152608401610b76565b6040517fa9059cbb00000000000000000000000000000000000000000000000000000000815273ffffffffffffffffffffffffffffffffffffffff83811660048301526024820183905284169063a9059cbb90604401602060405180830381600087803b1580156127b957600080fd5b505af11580156127cd573d6000803e3d6000fd5b505050506040513d601f19601f820116820180604052508101906127f191906138ad565b50505050565b60015473ffffffffffffffffffffffffffffffffffffffff16331461289e576040517f08c379a000000000000000000000000000000000000000000000000000000000815260206004820152602160248201527f4175746f6d6174653a2063616c6c6572206973206e6f7420746865206f776e6560448201527f72000000000000000000000000000000000000000000000000000000000000006064820152608401610b76565b6006546040517f70a0823100000000000000000000000000000000000000000000000000000000815230600482015273ffffffffffffffffffffffffffffffffffffffff9091169060009082906370a082319060240160206040518083038186803b15801561290c57600080fd5b505afa158015612920573d6000803e3d6000fd5b505050506040513d601f19601f8201168201806040525081019061294491906138e8565b60035490915061296e9073ffffffffffffffffffffffffffffffffffffffff848116911683612f27565b6003546040517fb6b55f250000000000000000000000000000000000000000000000000000000081526004810183905273ffffffffffffffffffffffffffffffffffffffff9091169063b6b55f2590602401600060405180830381600087803b1580156129da57600080fd5b505af11580156129ee573d6000803e3d6000fd5b505050505050565b60015473ffffffffffffffffffffffffffffffffffffffff163314612a9d576040517f08c379a000000000000000000000000000000000000000000000000000000000815260206004820152602160248201527f4175746f6d6174653a2063616c6c6572206973206e6f7420746865206f776e6560448201527f72000000000000000000000000000000000000000000000000000000000000006064820152608401610b76565b6040517f6b88071800000000000000000000000000000000000000000000000000000000815230600482018190529073__$0bac19a4f6859fb91e3c64d76ce49d598f$__90636b8807189060240160206040518083038186803b158015612b0357600080fd5b505af4158015612b17573d6000803e3d6000fd5b505050506040513d601f19601f82011682018060405250810190612b3b91906136a5565b73ffffffffffffffffffffffffffffffffffffffff1614612bde576040517f08c379a000000000000000000000000000000000000000000000000000000000815260206004820152602160248201527f4175746f6d6174653a206368616e676520746865206f776e6572206661696c6560448201527f64000000000000000000000000000000000000000000000000000000000000006064820152608401610b76565b6001805473ffffffffffffffffffffffffffffffffffffffff8381167fffffffffffffffffffffffff0000000000000000000000000000000000000000831681179093556040519116919082907f8be0079c531659141344cd1fd0a4f28419497f9722a3daafe3b4186f6b6457e090600090a35050565b6000612c5f61131a565b15612cc6576040517f08c379a000000000000000000000000000000000000000000000000000000000815260206004820152601060248201527f4175746f6d6174653a20706175736564000000000000000000000000000000006044820152606401610b76565b6000612ce760015473ffffffffffffffffffffffffffffffffffffffff1690565b90503273ffffffffffffffffffffffffffffffffffffffff82161415612d11576000915050612f21565b6000612d1b6107cb565b6040517f21f8a7210000000000000000000000000000000000000000000000000000000081527fe78c16c6d839536d3155985aab4e9c6013c8c3d446054bcebc48612f359d81f5600482015290915060009073ffffffffffffffffffffffffffffffffffffffff8316906321f8a7219060240160206040518083038186803b158015612da657600080fd5b505afa158015612dba573d6000803e3d6000fd5b505050506040513d601f19601f82011682018060405250810190612dde91906136a5565b905073ffffffffffffffffffffffffffffffffffffffff8116612e83576040517f08c379a000000000000000000000000000000000000000000000000000000000815260206004820152602b60248201527f4175746f6d6174653a3a5f62696c6c3a2062616c616e636520636f6e7472616360448201527f74206e6f7420666f756e640000000000000000000000000000000000000000006064820152608401610b76565b8073ffffffffffffffffffffffffffffffffffffffff1663e578a2258488612ea9612295565b896040518563ffffffff1660e01b8152600401612ec994939291906139bd565b602060405180830381600087803b158015612ee357600080fd5b505af1158015612ef7573d6000803e3d6000fd5b505050506040513d601f19601f82011682018060405250810190612f1b91906138e8565b93505050505b92915050565b6040517fdd62ed3e00000000000000000000000000000000000000000000000000000000815230600482015273ffffffffffffffffffffffffffffffffffffffff83811660248301526000919085169063dd62ed3e9060440160206040518083038186803b158015612f9857600080fd5b505afa158015612fac573d6000803e3d6000fd5b505050506040513d601f19601f82011682018060405250810190612fd091906138e8565b90508015801590612fe057508181105b1561308f576040517f095ea7b300000000000000000000000000000000000000000000000000000000815273ffffffffffffffffffffffffffffffffffffffff84811660048301526000602483015285169063095ea7b390604401602060405180830381600087803b15801561305557600080fd5b505af1158015613069573d6000803e3d6000fd5b505050506040513d601f19601f8201168201806040525081019061308d91906138ad565b505b8181146127f1576040517f095ea7b300000000000000000000000000000000000000000000000000000000815273ffffffffffffffffffffffffffffffffffffffff84811660048301526024820184905285169063095ea7b390604401602060405180830381600087803b15801561310657600080fd5b505af115801561311a573d6000803e3d6000fd5b505050506040513d601f19601f8201168201806040525081019061313e91906138ad565b5050505050565b604080516002808252606082018352600092839291906020830190803683375050875182519293509183915060009061318057613180613c6d565b73ffffffffffffffffffffffffffffffffffffffff929092166020928302919091018201528601518151829060019081106131bd576131bd613c6d565b73ffffffffffffffffffffffffffffffffffffffff9283166020918202929092010152600480546040517f38ed17390000000000000000000000000000000000000000000000000000000081529216916338ed1739916132279189918991879130918b9101613acc565b600060405180830381600087803b15801561324157600080fd5b505af1158015613255573d6000803e3d6000fd5b505050506040513d6000823e601f3d9081017fffffffffffffffffffffffffffffffffffffffffffffffffffffffffffffffe016820160405261329b9190810190613800565b6001815181106132ad576132ad613c6d565b6020026020010151915050949350505050565b60006132ca613546565b6040517f940494f100000000000000000000000000000000000000000000000000000000815273ffffffffffffffffffffffffffffffffffffffff86811660048301529192509082169063940494f19060240160206040518083038186803b15801561333557600080fd5b505afa158015613349573d6000803e3d6000fd5b505050506040513d601f19601f8201168201806040525081019061336d91906138e8565b600314156134615761337d613614565b6007548490829074010000000000000000000000000000000000000000900460ff16600381106133af576133af613c6d565b60200201526040517f4515cef300000000000000000000000000000000000000000000000000000000815273ffffffffffffffffffffffffffffffffffffffff861690634515cef3906134089084908790600401613ab1565b602060405180830381600087803b15801561342257600080fd5b505af1158015613436573d6000803e3d6000fd5b505050506040513d601f19601f8201168201806040525081019061345a91906138e8565b50506127f1565b613469613632565b6007548490829074010000000000000000000000000000000000000000900460ff166002811061349b5761349b613c6d565b60200201526040517f0b4c7e4d00000000000000000000000000000000000000000000000000000000815273ffffffffffffffffffffffffffffffffffffffff861690630b4c7e4d906134f49084908790600401613a79565b602060405180830381600087803b15801561350e57600080fd5b505af1158015613522573d6000803e3d6000fd5b505050506040513d601f19601f820116820180604052508101906129ee91906138e8565b60006135506107cb565b6040517f21f8a7210000000000000000000000000000000000000000000000000000000081527fe3afe40301d08e5458680c2ac903d4fddf0931e5e1a5c6d9e21328d89e8d8e7c600482015273ffffffffffffffffffffffffffffffffffffffff91909116906321f8a7219060240160206040518083038186803b1580156135d757600080fd5b505afa1580156135eb573d6000803e3d6000fd5b505050506040513d601f19601f8201168201806040525081019061360f91906136a5565b905090565b60405180606001604052806003906020820280368337509192915050565b60405180604001604052806002906020820280368337509192915050565b803561ffff8116811461366257600080fd5b919050565b805169ffffffffffffffffffff8116811461366257600080fd5b60006020828403121561369357600080fd5b813561369e81613ccb565b9392505050565b6000602082840312156136b757600080fd5b815161369e81613ccb565b600080600080600060a086880312156136da57600080fd5b85356136e581613ccb565b945060208601356136f581613ccb565b9350604086013561370581613ccb565b925061371360608701613650565b915061372160808701613650565b90509295509295909350565b60008060006060848603121561374257600080fd5b833561374d81613ccb565b9250602084013561375d81613ccb565b929592945050506040919091013590565b600061010080838503121561378257600080fd5b83601f84011261379157600080fd5b60405181810181811067ffffffffffffffff821117156137b3576137b3613c9c565b60405280848381018710156137c757600080fd5b600093505b60088410156137f55780516137e081613ccb565b825260019390930192602091820191016137cc565b509095945050505050565b6000602080838503121561381357600080fd5b825167ffffffffffffffff8082111561382b57600080fd5b818501915085601f83011261383f57600080fd5b81518181111561385157613851613c9c565b8060051b9150613862848301613b57565b8181528481019084860184860187018a101561387d57600080fd5b600095505b838610156138a0578051835260019590950194918601918601613882565b5098975050505050505050565b6000602082840312156138bf57600080fd5b8151801515811461369e57600080fd5b6000602082840312156138e157600080fd5b5035919050565b6000602082840312156138fa57600080fd5b5051919050565b6000806000806080858703121561391757600080fd5b5050823594602084013594506040840135936060013592509050565b600080600080600060a0868803121561394b57600080fd5b61395486613667565b945060208601519350604086015192506060860151915061372160808701613667565b8060005b60028110156127f157815184526020938401939091019060010161397b565b8060005b60038110156127f157815184526020938401939091019060010161399e565b73ffffffffffffffffffffffffffffffffffffffff8516815260006020858184015284604084015260806060840152835180608085015260005b81811015613a135785810183015185820160a0015282016139f7565b81811115613a2557600060a083870101525b50601f017fffffffffffffffffffffffffffffffffffffffffffffffffffffffffffffffe0169290920160a0019695505050505050565b60608101613a6a8285613977565b82151560408301529392505050565b60608101613a878285613977565b8260408301529392505050565b60808101613aa2828561399a565b82151560608301529392505050565b60808101613abf828561399a565b8260608301529392505050565b600060a082018783526020878185015260a0604085015281875180845260c086019150828901935060005b81811015613b2957845173ffffffffffffffffffffffffffffffffffffffff1683529383019391830191600101613af7565b505073ffffffffffffffffffffffffffffffffffffffff969096166060850152505050608001529392505050565b604051601f82017fffffffffffffffffffffffffffffffffffffffffffffffffffffffffffffffe016810167ffffffffffffffff81118282101715613b9e57613b9e613c9c565b604052919050565b600082613bdc577f4e487b7100000000000000000000000000000000000000000000000000000000600052601260045260246000fd5b500490565b6000817fffffffffffffffffffffffffffffffffffffffffffffffffffffffffffffffff0483118215151615613c1957613c19613c3e565b500290565b600060ff821660ff811415613c3557613c35613c3e565b60010192915050565b7f4e487b7100000000000000000000000000000000000000000000000000000000600052601160045260246000fd5b7f4e487b7100000000000000000000000000000000000000000000000000000000600052603260045260246000fd5b7f4e487b7100000000000000000000000000000000000000000000000000000000600052604160045260246000fd5b73ffffffffffffffffffffffffffffffffffffffff81168114613ced57600080fd5b5056fea164736f6c6343000806000a",
  "linkReferences": {
    "automates/utils/DFH/proxy/ERC1167.sol": {
      "ERC1167": [
        {
          "length": 20,
          "start": 2217
        },
        {
          "length": 20,
          "start": 2569
        },
        {
          "length": 20,
          "start": 5112
        },
        {
          "length": 20,
          "start": 7565
        },
        {
          "length": 20,
          "start": 8503
        },
        {
          "length": 20,
          "start": 9075
        },
        {
          "length": 20,
          "start": 11129
        }
      ]
    }
  },
  "deployedLinkReferences": {
    "automates/utils/DFH/proxy/ERC1167.sol": {
      "ERC1167": [
        {
          "length": 20,
          "start": 2046
        },
        {
          "length": 20,
          "start": 2398
        },
        {
          "length": 20,
          "start": 4941
        },
        {
          "length": 20,
          "start": 7394
        },
        {
          "length": 20,
          "start": 8332
        },
        {
          "length": 20,
          "start": 8904
        },
        {
          "length": 20,
          "start": 10958
        }
      ]
    }
  }
}