{
  "_format": "hh-sol-artifact-1",
  "contractName": "GaugeUniswapRestake",
  "sourceName": "automates/curve/GaugeUniswapRestake.automate.sol",
  "abi": [
    {
      "inputs": [
        {
          "internalType": "address",
          "name": "_info",
          "type": "address"
        }
      ],
      "stateMutability": "nonpayable",
      "type": "constructor"
    },
    {
      "anonymous": false,
      "inputs": [
        {
          "indexed": true,
          "internalType": "address",
          "name": "previousOwner",
          "type": "address"
        },
        {
          "indexed": true,
          "internalType": "address",
          "name": "newOwner",
          "type": "address"
        }
      ],
      "name": "OwnershipTransferred",
      "type": "event"
    },
    {
      "anonymous": false,
      "inputs": [
        {
          "indexed": false,
          "internalType": "int256",
          "name": "protocolFee",
          "type": "int256"
        }
      ],
      "name": "ProtocolFeeChanged",
      "type": "event"
    },
    {
      "inputs": [
        {
          "internalType": "uint256",
          "name": "amount",
          "type": "uint256"
        }
      ],
      "name": "calcTokenAmount",
      "outputs": [
        {
          "internalType": "uint256",
          "name": "",
          "type": "uint256"
        }
      ],
      "stateMutability": "view",
      "type": "function"
    },
    {
      "inputs": [
        {
          "internalType": "int256",
          "name": "__protocolFee",
          "type": "int256"
        }
      ],
      "name": "changeProtocolFee",
      "outputs": [],
      "stateMutability": "nonpayable",
      "type": "function"
    },
    {
      "inputs": [],
      "name": "deadline",
      "outputs": [
        {
          "internalType": "uint16",
          "name": "",
          "type": "uint16"
        }
      ],
      "stateMutability": "view",
      "type": "function"
    },
    {
      "inputs": [],
      "name": "deposit",
      "outputs": [],
      "stateMutability": "nonpayable",
      "type": "function"
    },
    {
      "inputs": [],
      "name": "info",
      "outputs": [
        {
          "internalType": "address",
          "name": "",
          "type": "address"
        }
      ],
      "stateMutability": "view",
      "type": "function"
    },
    {
      "inputs": [
        {
          "internalType": "address",
          "name": "_staking",
          "type": "address"
        },
        {
          "internalType": "address",
          "name": "_swapToken",
          "type": "address"
        },
        {
          "internalType": "uint16",
          "name": "_slippage",
          "type": "uint16"
        },
        {
          "internalType": "uint16",
          "name": "_deadline",
          "type": "uint16"
        }
      ],
      "name": "init",
      "outputs": [],
      "stateMutability": "nonpayable",
      "type": "function"
    },
    {
      "inputs": [],
      "name": "owner",
      "outputs": [
        {
          "internalType": "address",
          "name": "",
          "type": "address"
        }
      ],
      "stateMutability": "view",
      "type": "function"
    },
    {
      "inputs": [],
      "name": "pause",
      "outputs": [],
      "stateMutability": "nonpayable",
      "type": "function"
    },
    {
      "inputs": [],
      "name": "paused",
      "outputs": [
        {
          "internalType": "bool",
          "name": "",
          "type": "bool"
        }
      ],
      "stateMutability": "view",
      "type": "function"
    },
    {
      "inputs": [],
      "name": "protocolFee",
      "outputs": [
        {
          "internalType": "uint256",
          "name": "",
          "type": "uint256"
        }
      ],
      "stateMutability": "view",
      "type": "function"
    },
    {
      "inputs": [],
      "name": "refund",
      "outputs": [],
      "stateMutability": "nonpayable",
      "type": "function"
    },
    {
      "inputs": [
        {
          "internalType": "uint256",
          "name": "gasFee",
          "type": "uint256"
        },
        {
          "internalType": "uint256",
          "name": "_deadline",
          "type": "uint256"
        },
        {
          "internalType": "uint256",
          "name": "swapOutMin",
          "type": "uint256"
        },
        {
          "internalType": "uint256",
          "name": "lpOutMin",
          "type": "uint256"
        }
      ],
      "name": "run",
      "outputs": [],
      "stateMutability": "nonpayable",
      "type": "function"
    },
    {
      "inputs": [],
      "name": "slippage",
      "outputs": [
        {
          "internalType": "uint16",
          "name": "",
          "type": "uint16"
        }
      ],
      "stateMutability": "view",
      "type": "function"
    },
    {
      "inputs": [],
      "name": "staking",
      "outputs": [
        {
          "internalType": "contract IGauge",
          "name": "",
          "type": "address"
        }
      ],
      "stateMutability": "view",
      "type": "function"
    },
    {
      "inputs": [],
      "name": "swapToken",
      "outputs": [
        {
          "internalType": "address",
          "name": "",
          "type": "address"
        }
      ],
      "stateMutability": "view",
      "type": "function"
    },
    {
      "inputs": [
        {
          "internalType": "address",
          "name": "token",
          "type": "address"
        },
        {
          "internalType": "address",
          "name": "recipient",
          "type": "address"
        },
        {
          "internalType": "uint256",
          "name": "amount",
          "type": "uint256"
        }
      ],
      "name": "transfer",
      "outputs": [],
      "stateMutability": "nonpayable",
      "type": "function"
    },
    {
      "inputs": [
        {
          "internalType": "address",
          "name": "newOwner",
          "type": "address"
        }
      ],
      "name": "transferOwnership",
      "outputs": [],
      "stateMutability": "nonpayable",
      "type": "function"
    },
    {
      "inputs": [],
      "name": "unpause",
      "outputs": [],
      "stateMutability": "nonpayable",
      "type": "function"
    }
  ],
  "bytecode": "0x60806040523480156200001157600080fd5b506040516200407738038062004077833981016040819052620000349162000069565b600080546001600160a01b039092166001600160a01b031992831617905560018054909116321790556000196002556200009b565b6000602082840312156200007c57600080fd5b81516001600160a01b03811681146200009457600080fd5b9392505050565b613fcc80620000ab6000396000f3fe608060405234801561001057600080fd5b50600436106101365760003560e01c80637b7902dd116100b2578063b0e21e8a11610081578063d0e30db011610066578063d0e30db0146102b3578063dc73e49c146102bb578063f2fde38b146102db57600080fd5b8063b0e21e8a14610298578063beabacc8146102a057600080fd5b80637b7902dd1461023e5780638456cb591461025f5780638da5cb5b146102675780639742b5c31461028557600080fd5b80633e032a3b116101095780634cf088d9116100ee5780634cf088d9146101fe578063590e1ae31461021e5780635c975abb1461022657600080fd5b80633e032a3b146101d05780633f4ba83a146101f657600080fd5b806315509d2b1461013b5780631b586aff1461015057806329dcb0cf14610163578063370158ea146101a3575b600080fd5b61014e610149366004613bc4565b6102ee565b005b61014e61015e366004613998565b610a06565b60045461018b90760100000000000000000000000000000000000000000000900461ffff1681565b60405161ffff90911681526020015b60405180910390f35b6101ab610fc1565b60405173ffffffffffffffffffffffffffffffffffffffff909116815260200161019a565b60045461018b9074010000000000000000000000000000000000000000900461ffff1681565b61014e611123565b6003546101ab9073ffffffffffffffffffffffffffffffffffffffff1681565b61014e6114b5565b61022e611bb9565b604051901515815260200161019a565b61025161024c366004613b92565b611d3e565b60405190815260200161019a565b61014e611f8f565b60015473ffffffffffffffffffffffffffffffffffffffff166101ab565b61014e610293366004613b92565b612339565b610251612573565b61014e6102ae3660046139f0565b612980565b61014e612ad5565b6004546101ab9073ffffffffffffffffffffffffffffffffffffffff1681565b61014e6102e9366004613957565b612c9d565b836040518060400160405280601881526020017f43757276654761756765556e697377617052657374616b65000000000000000081525061032f8282612efc565b50600354604080517f07546172000000000000000000000000000000000000000000000000000000008152905173ffffffffffffffffffffffffffffffffffffffff909216916000918391630754617291600480820192602092909190829003018186803b1580156103a057600080fd5b505afa1580156103b4573d6000803e3d6000fd5b505050506040513d601f19601f820116820180604052508101906103d8919061397b565b6040517f8b752bb000000000000000000000000000000000000000000000000000000000815230600482015273ffffffffffffffffffffffffffffffffffffffff8481166024830152919250600091831690638b752bb09060440160206040518083038186803b15801561044b57600080fd5b505afa15801561045f573d6000803e3d6000fd5b505050506040513d601f19601f820116820180604052508101906104839190613bab565b11610515576040517f08c379a000000000000000000000000000000000000000000000000000000000815260206004820152602360248201527f4761756765556e697377617052657374616b653a3a72756e3a206e6f2065617260448201527f6e6564000000000000000000000000000000000000000000000000000000000060648201526084015b60405180910390fd5b600061051f610fc1565b6040517f21f8a7210000000000000000000000000000000000000000000000000000000081527fa446c21f636a27494eaafaffc073cc3325d32c4efaa774c3f2a297ebef869803600482015273ffffffffffffffffffffffffffffffffffffffff91909116906321f8a7219060240160206040518083038186803b1580156105a657600080fd5b505afa1580156105ba573d6000803e3d6000fd5b505050506040513d601f19601f820116820180604052508101906105de919061397b565b905073ffffffffffffffffffffffffffffffffffffffff8116610683576040517f08c379a000000000000000000000000000000000000000000000000000000000815260206004820152603b60248201527f4761756765556e697377617052657374616b653a3a72756e3a20756e6973776160448201527f7020726f7574657220636f6e7472616374206e6f7420666f756e640000000000606482015260840161050c565b6003546040517f6a62784200000000000000000000000000000000000000000000000000000000815273ffffffffffffffffffffffffffffffffffffffff918216600482015290831690636a62784290602401600060405180830381600087803b1580156106f057600080fd5b505af1158015610704573d6000803e3d6000fd5b5050505060008373ffffffffffffffffffffffffffffffffffffffff166376d8b1176040518163ffffffff1660e01b815260040160206040518083038186803b15801561075057600080fd5b505afa158015610764573d6000803e3d6000fd5b505050506040513d601f19601f82011682018060405250810190610788919061397b565b6040517f70a0823100000000000000000000000000000000000000000000000000000000815230600482015290915060009073ffffffffffffffffffffffffffffffffffffffff8316906370a082319060240160206040518083038186803b1580156107f357600080fd5b505afa158015610807573d6000803e3d6000fd5b505050506040513d601f19601f8201168201806040525081019061082b9190613bab565b905061084d73ffffffffffffffffffffffffffffffffffffffff8316846131ce565b6040805180820190915273ffffffffffffffffffffffffffffffffffffffff808416825260045416602082015260009061088b908590848d8f6131fd565b6006546004549192506108b79173ffffffffffffffffffffffffffffffffffffffff90811691166131ce565b6006546108db9073ffffffffffffffffffffffffffffffffffffffff16828b613378565b6005546108fe9073ffffffffffffffffffffffffffffffffffffffff16876131ce565b6005546040517f70a0823100000000000000000000000000000000000000000000000000000000815230600482015273ffffffffffffffffffffffffffffffffffffffff8881169263b6b55f25929116906370a082319060240160206040518083038186803b15801561097057600080fd5b505afa158015610984573d6000803e3d6000fd5b505050506040513d601f19601f820116820180604052508101906109a89190613bab565b6040518263ffffffff1660e01b81526004016109c691815260200190565b600060405180830381600087803b1580156109e057600080fd5b505af11580156109f4573d6000803e3d6000fd5b50505050505050505050505050505050565b60015473ffffffffffffffffffffffffffffffffffffffff16610a7657600180547fffffffffffffffffffffffff000000000000000000000000000000000000000016321790557fffffffffffffffffffffffffffffffffffffffffffffffffffffffffffffffff600255610b1d565b60015473ffffffffffffffffffffffffffffffffffffffff163314610b1d576040517f08c379a000000000000000000000000000000000000000000000000000000000815260206004820152602160248201527f4175746f6d6174653a2063616c6c6572206973206e6f7420746865206f776e6560448201527f7200000000000000000000000000000000000000000000000000000000000000606482015260840161050c565b6000610b276135fe565b6003805473ffffffffffffffffffffffffffffffffffffffff8089167fffffffffffffffffffffffff000000000000000000000000000000000000000090921682179092556004805461ffff878116760100000000000000000000000000000000000000000000027fffffffffffffffff0000ffffffffffffffffffffffffffffffffffffffffffff918a1674010000000000000000000000000000000000000000027fffffffffffffffffffff00000000000000000000000000000000000000000000909316958b16959095179190911716929092178255604080517f82c63066000000000000000000000000000000000000000000000000000000008152905193945090926382c6306692828101926020929190829003018186803b158015610c5157600080fd5b505afa158015610c65573d6000803e3d6000fd5b505050506040513d601f19601f82011682018060405250810190610c89919061397b565b600580547fffffffffffffffffffffffff00000000000000000000000000000000000000001673ffffffffffffffffffffffffffffffffffffffff9283169081179091556040517fbdf475c300000000000000000000000000000000000000000000000000000000815260048101919091529082169063bdf475c39060240160206040518083038186803b158015610d2057600080fd5b505afa158015610d34573d6000803e3d6000fd5b505050506040513d601f19601f82011682018060405250810190610d58919061397b565b600680547fffffffffffffffffffffffff00000000000000000000000000000000000000001673ffffffffffffffffffffffffffffffffffffffff9283169081179091556040517f9ac90d3d0000000000000000000000000000000000000000000000000000000081526004810191909152600091831690639ac90d3d906024016101006040518083038186803b158015610df257600080fd5b505afa158015610e06573d6000803e3d6000fd5b505050506040513d601f19601f82011682018060405250810190610e2a9190613a31565b90505b60065460097401000000000000000000000000000000000000000090910460ff161015610fb95760065460087401000000000000000000000000000000000000000090910460ff1610610f02576040517f08c379a000000000000000000000000000000000000000000000000000000000815260206004820152603560248201527f4761756765556e697377617052657374616b653a3a696e69743a20696e76616c60448201527f6964207377617020746f6b656e20616464726573730000000000000000000000606482015260840161050c565b60065473ffffffffffffffffffffffffffffffffffffffff861690829074010000000000000000000000000000000000000000900460ff1660088110610f4a57610f4a613f3c565b602002015173ffffffffffffffffffffffffffffffffffffffff161415610f7057610fb9565b6006805474010000000000000000000000000000000000000000900460ff16906014610f9b83613eed565b91906101000a81548160ff021916908360ff16021790555050610e2d565b505050505050565b6040517f6b880718000000000000000000000000000000000000000000000000000000008152306004820152600090819073__$0bac19a4f6859fb91e3c64d76ce49d598f$__90636b8807189060240160206040518083038186803b15801561102957600080fd5b505af415801561103d573d6000803e3d6000fd5b505050506040513d601f19601f82011682018060405250810190611061919061397b565b905073ffffffffffffffffffffffffffffffffffffffff811630141561109f57505060005473ffffffffffffffffffffffffffffffffffffffff1690565b8073ffffffffffffffffffffffffffffffffffffffff1663370158ea6040518163ffffffff1660e01b815260040160206040518083038186803b1580156110e557600080fd5b505afa1580156110f9573d6000803e3d6000fd5b505050506040513d601f19601f8201168201806040525081019061111d919061397b565b91505090565b6040517f6b88071800000000000000000000000000000000000000000000000000000000815230600482018190529073__$0bac19a4f6859fb91e3c64d76ce49d598f$__90636b8807189060240160206040518083038186803b15801561118957600080fd5b505af415801561119d573d6000803e3d6000fd5b505050506040513d601f19601f820116820180604052508101906111c1919061397b565b73ffffffffffffffffffffffffffffffffffffffff1614156113765760006111e7610fc1565b6040517f21f8a7210000000000000000000000000000000000000000000000000000000081527f689d13d8ed8ef1027633ba26e7121121cf427434450a529548f19bf175974395600482015273ffffffffffffffffffffffffffffffffffffffff91909116906321f8a7219060240160206040518083038186803b15801561126e57600080fd5b505afa158015611282573d6000803e3d6000fd5b505050506040513d601f19601f820116820180604052508101906112a6919061397b565b60015490915073ffffffffffffffffffffffffffffffffffffffff163314806112e457503373ffffffffffffffffffffffffffffffffffffffff8216145b611370576040517f08c379a000000000000000000000000000000000000000000000000000000000815260206004820152602260248201527f4175746f6d6174653a2063616c6c6572206973206e6f7420746865207061757360448201527f6572000000000000000000000000000000000000000000000000000000000000606482015260840161050c565b5061141d565b60015473ffffffffffffffffffffffffffffffffffffffff16331461141d576040517f08c379a000000000000000000000000000000000000000000000000000000000815260206004820152602260248201527f4175746f6d6174653a2063616c6c6572206973206e6f7420746865207061757360448201527f6572000000000000000000000000000000000000000000000000000000000000606482015260840161050c565b611425611bb9565b61148b576040517f08c379a000000000000000000000000000000000000000000000000000000000815260206004820152601460248201527f4175746f6d6174653a206e6f7420706175736564000000000000000000000000604482015260640161050c565b600180547fffffffffffffffffffffff00ffffffffffffffffffffffffffffffffffffffff169055565b60015473ffffffffffffffffffffffffffffffffffffffff16331461155c576040517f08c379a000000000000000000000000000000000000000000000000000000000815260206004820152602160248201527f4175746f6d6174653a2063616c6c6572206973206e6f7420746865206f776e6560448201527f7200000000000000000000000000000000000000000000000000000000000000606482015260840161050c565b600061157d60015473ffffffffffffffffffffffffffffffffffffffff1690565b6003546040517f70a0823100000000000000000000000000000000000000000000000000000000815230600482015291925073ffffffffffffffffffffffffffffffffffffffff169060009082906370a082319060240160206040518083038186803b1580156115ec57600080fd5b505afa158015611600573d6000803e3d6000fd5b505050506040513d601f19601f820116820180604052508101906116249190613bab565b905080156116ad576040517f2e1a7d4d0000000000000000000000000000000000000000000000000000000081526004810182905273ffffffffffffffffffffffffffffffffffffffff831690632e1a7d4d90602401600060405180830381600087803b15801561169457600080fd5b505af11580156116a8573d6000803e3d6000fd5b505050505b6005546040517f70a0823100000000000000000000000000000000000000000000000000000000815230600482015260009173ffffffffffffffffffffffffffffffffffffffff16906370a082319060240160206040518083038186803b15801561171757600080fd5b505afa15801561172b573d6000803e3d6000fd5b505050506040513d601f19601f8201168201806040525081019061174f9190613bab565b90508015611805576005546040517fa9059cbb00000000000000000000000000000000000000000000000000000000815273ffffffffffffffffffffffffffffffffffffffff8681166004830152602482018490529091169063a9059cbb90604401602060405180830381600087803b1580156117cb57600080fd5b505af11580156117df573d6000803e3d6000fd5b505050506040513d601f19601f820116820180604052508101906118039190613b70565b505b600354604080517f07546172000000000000000000000000000000000000000000000000000000008152905160009273ffffffffffffffffffffffffffffffffffffffff16916307546172916004808301926020929190829003018186803b15801561187057600080fd5b505afa158015611884573d6000803e3d6000fd5b505050506040513d601f19601f820116820180604052508101906118a8919061397b565b6040517f8b752bb000000000000000000000000000000000000000000000000000000000815230600482015273ffffffffffffffffffffffffffffffffffffffff8681166024830152919250600091831690638b752bb09060440160206040518083038186803b15801561191b57600080fd5b505afa15801561192f573d6000803e3d6000fd5b505050506040513d601f19601f820116820180604052508101906119539190613bab565b11156119db576040517f6a62784200000000000000000000000000000000000000000000000000000000815273ffffffffffffffffffffffffffffffffffffffff8581166004830152821690636a62784290602401600060405180830381600087803b1580156119c257600080fd5b505af11580156119d6573d6000803e3d6000fd5b505050505b60008473ffffffffffffffffffffffffffffffffffffffff166376d8b1176040518163ffffffff1660e01b815260040160206040518083038186803b158015611a2357600080fd5b505afa158015611a37573d6000803e3d6000fd5b505050506040513d601f19601f82011682018060405250810190611a5b919061397b565b6040517f70a0823100000000000000000000000000000000000000000000000000000000815230600482015290915060009073ffffffffffffffffffffffffffffffffffffffff8316906370a082319060240160206040518083038186803b158015611ac657600080fd5b505afa158015611ada573d6000803e3d6000fd5b505050506040513d601f19601f82011682018060405250810190611afe9190613bab565b90508015611bb0576040517fa9059cbb00000000000000000000000000000000000000000000000000000000815273ffffffffffffffffffffffffffffffffffffffff88811660048301526024820183905283169063a9059cbb90604401602060405180830381600087803b158015611b7657600080fd5b505af1158015611b8a573d6000803e3d6000fd5b505050506040513d601f19601f82011682018060405250810190611bae9190613b70565b505b50505050505050565b6040517f6b880718000000000000000000000000000000000000000000000000000000008152306004820152600090819073__$0bac19a4f6859fb91e3c64d76ce49d598f$__90636b8807189060240160206040518083038186803b158015611c2157600080fd5b505af4158015611c35573d6000803e3d6000fd5b505050506040513d601f19601f82011682018060405250810190611c59919061397b565b905073ffffffffffffffffffffffffffffffffffffffff8116301415611c9c57505060015474010000000000000000000000000000000000000000900460ff1690565b60015474010000000000000000000000000000000000000000900460ff168061111d57508073ffffffffffffffffffffffffffffffffffffffff16635c975abb6040518163ffffffff1660e01b815260040160206040518083038186803b158015611d0657600080fd5b505afa158015611d1a573d6000803e3d6000fd5b505050506040513d601f19601f8201168201806040525081019061111d9190613b70565b60065460009073ffffffffffffffffffffffffffffffffffffffff1681611d636135fe565b6040517f940494f100000000000000000000000000000000000000000000000000000000815273ffffffffffffffffffffffffffffffffffffffff84811660048301529192509082169063940494f19060240160206040518083038186803b158015611dce57600080fd5b505afa158015611de2573d6000803e3d6000fd5b505050506040513d601f19601f82011682018060405250810190611e069190613bab565b60031415611efb57611e166138ea565b6006548590829074010000000000000000000000000000000000000000900460ff1660038110611e4857611e48613f3c565b60200201526040517f3883e11900000000000000000000000000000000000000000000000000000000815273ffffffffffffffffffffffffffffffffffffffff841690633883e11990611ea2908490600190600401613d63565b60206040518083038186803b158015611eba57600080fd5b505afa158015611ece573d6000803e3d6000fd5b505050506040513d601f19601f82011682018060405250810190611ef29190613bab565b95945050505050565b611f03613908565b6006548590829074010000000000000000000000000000000000000000900460ff1660028110611f3557611f35613f3c565b60200201526040517fed8e84f300000000000000000000000000000000000000000000000000000000815273ffffffffffffffffffffffffffffffffffffffff84169063ed8e84f390611ea2908490600190600401613d2b565b6040517f6b88071800000000000000000000000000000000000000000000000000000000815230600482018190529073__$0bac19a4f6859fb91e3c64d76ce49d598f$__90636b8807189060240160206040518083038186803b158015611ff557600080fd5b505af4158015612009573d6000803e3d6000fd5b505050506040513d601f19601f8201168201806040525081019061202d919061397b565b73ffffffffffffffffffffffffffffffffffffffff1614156121e2576000612053610fc1565b6040517f21f8a7210000000000000000000000000000000000000000000000000000000081527f689d13d8ed8ef1027633ba26e7121121cf427434450a529548f19bf175974395600482015273ffffffffffffffffffffffffffffffffffffffff91909116906321f8a7219060240160206040518083038186803b1580156120da57600080fd5b505afa1580156120ee573d6000803e3d6000fd5b505050506040513d601f19601f82011682018060405250810190612112919061397b565b60015490915073ffffffffffffffffffffffffffffffffffffffff1633148061215057503373ffffffffffffffffffffffffffffffffffffffff8216145b6121dc576040517f08c379a000000000000000000000000000000000000000000000000000000000815260206004820152602260248201527f4175746f6d6174653a2063616c6c6572206973206e6f7420746865207061757360448201527f6572000000000000000000000000000000000000000000000000000000000000606482015260840161050c565b50612289565b60015473ffffffffffffffffffffffffffffffffffffffff163314612289576040517f08c379a000000000000000000000000000000000000000000000000000000000815260206004820152602260248201527f4175746f6d6174653a2063616c6c6572206973206e6f7420746865207061757360448201527f6572000000000000000000000000000000000000000000000000000000000000606482015260840161050c565b612291611bb9565b156122f8576040517f08c379a000000000000000000000000000000000000000000000000000000000815260206004820152601060248201527f4175746f6d6174653a2070617573656400000000000000000000000000000000604482015260640161050c565b600180547fffffffffffffffffffffff00ffffffffffffffffffffffffffffffffffffffff1674010000000000000000000000000000000000000000179055565b6040517f6b88071800000000000000000000000000000000000000000000000000000000815230600482015260009073__$0bac19a4f6859fb91e3c64d76ce49d598f$__90636b8807189060240160206040518083038186803b15801561239f57600080fd5b505af41580156123b3573d6000803e3d6000fd5b505050506040513d601f19601f820116820180604052508101906123d7919061397b565b90503373ffffffffffffffffffffffffffffffffffffffff8216301461247a578173ffffffffffffffffffffffffffffffffffffffff16638da5cb5b6040518163ffffffff1660e01b815260040160206040518083038186803b15801561243d57600080fd5b505afa158015612451573d6000803e3d6000fd5b505050506040513d601f19601f82011682018060405250810190612475919061397b565b612494565b60015473ffffffffffffffffffffffffffffffffffffffff165b73ffffffffffffffffffffffffffffffffffffffff1614612537576040517f08c379a000000000000000000000000000000000000000000000000000000000815260206004820152603d60248201527f4175746f6d6174653a3a6368616e676550726f746f636f6c4665653a2063616c60448201527f6c6572206973206e6f74207468652070726f746f636f6c206f776e6572000000606482015260840161050c565b60028290556040518281527f3c1d43943224e49d951ce8295a5c8332b517083b3f89bed50feae2cb39caebb59060200160405180910390a15050565b6040517f6b880718000000000000000000000000000000000000000000000000000000008152306004820152600090819073__$0bac19a4f6859fb91e3c64d76ce49d598f$__90636b8807189060240160206040518083038186803b1580156125db57600080fd5b505af41580156125ef573d6000803e3d6000fd5b505050506040513d601f19601f82011682018060405250810190612613919061397b565b905073ffffffffffffffffffffffffffffffffffffffff8116301480159061263d57506000600254125b156126c0578073ffffffffffffffffffffffffffffffffffffffff1663b0e21e8a6040518163ffffffff1660e01b815260040160206040518083038186803b15801561268857600080fd5b505afa15801561269c573d6000803e3d6000fd5b505050506040513d601f19601f8201168201806040525081019061111d9190613bab565b60006126ca610fc1565b9050600080600254126126df5760025461279c565b6040517fbd02d0f50000000000000000000000000000000000000000000000000000000081527fa93d95f96a5de25d7a41ddf1f5e8d45cfc929c4838163cf011dab4043a4a40d5600482015273ffffffffffffffffffffffffffffffffffffffff83169063bd02d0f59060240160206040518083038186803b15801561276457600080fd5b505afa158015612778573d6000803e3d6000fd5b505050506040513d601f19601f8201168201806040525081019061279c9190613bab565b9050806127ad576000935050505090565b6040517f21f8a7210000000000000000000000000000000000000000000000000000000081527f65c90423fe7c880476633a7e36521740f87199d233dc56eb4ca6643eb76f605f600482015260009073ffffffffffffffffffffffffffffffffffffffff8416906321f8a7219060240160206040518083038186803b15801561283557600080fd5b505afa158015612849573d6000803e3d6000fd5b505050506040513d601f19601f8201168201806040525081019061286d919061397b565b73ffffffffffffffffffffffffffffffffffffffff1663feaf968c6040518163ffffffff1660e01b815260040160a06040518083038186803b1580156128b257600080fd5b505afa1580156128c6573d6000803e3d6000fd5b505050506040513d601f19601f820116820180604052508101906128ea9190613bf6565b5050509150506000811361295a576040517f08c379a000000000000000000000000000000000000000000000000000000000815260206004820152601760248201527f4175746f6d6174653a20696e76616c6964207072696365000000000000000000604482015260640161050c565b8061296d83670de0b6b3a7640000613eb0565b6129779190613e75565b94505050505090565b60015473ffffffffffffffffffffffffffffffffffffffff163314612a27576040517f08c379a000000000000000000000000000000000000000000000000000000000815260206004820152602160248201527f4175746f6d6174653a2063616c6c6572206973206e6f7420746865206f776e6560448201527f7200000000000000000000000000000000000000000000000000000000000000606482015260840161050c565b6040517fa9059cbb00000000000000000000000000000000000000000000000000000000815273ffffffffffffffffffffffffffffffffffffffff83811660048301526024820183905284169063a9059cbb90604401602060405180830381600087803b158015612a9757600080fd5b505af1158015612aab573d6000803e3d6000fd5b505050506040513d601f19601f82011682018060405250810190612acf9190613b70565b50505050565b60015473ffffffffffffffffffffffffffffffffffffffff163314612b7c576040517f08c379a000000000000000000000000000000000000000000000000000000000815260206004820152602160248201527f4175746f6d6174653a2063616c6c6572206973206e6f7420746865206f776e6560448201527f7200000000000000000000000000000000000000000000000000000000000000606482015260840161050c565b600354600554612ba59173ffffffffffffffffffffffffffffffffffffffff91821691166131ce565b6003546005546040517f70a0823100000000000000000000000000000000000000000000000000000000815230600482015273ffffffffffffffffffffffffffffffffffffffff9283169263b6b55f259216906370a082319060240160206040518083038186803b158015612c1957600080fd5b505afa158015612c2d573d6000803e3d6000fd5b505050506040513d601f19601f82011682018060405250810190612c519190613bab565b6040518263ffffffff1660e01b8152600401612c6f91815260200190565b600060405180830381600087803b158015612c8957600080fd5b505af1158015612acf573d6000803e3d6000fd5b60015473ffffffffffffffffffffffffffffffffffffffff163314612d44576040517f08c379a000000000000000000000000000000000000000000000000000000000815260206004820152602160248201527f4175746f6d6174653a2063616c6c6572206973206e6f7420746865206f776e6560448201527f7200000000000000000000000000000000000000000000000000000000000000606482015260840161050c565b6040517f6b88071800000000000000000000000000000000000000000000000000000000815230600482018190529073__$0bac19a4f6859fb91e3c64d76ce49d598f$__90636b8807189060240160206040518083038186803b158015612daa57600080fd5b505af4158015612dbe573d6000803e3d6000fd5b505050506040513d601f19601f82011682018060405250810190612de2919061397b565b73ffffffffffffffffffffffffffffffffffffffff1614612e85576040517f08c379a000000000000000000000000000000000000000000000000000000000815260206004820152602160248201527f4175746f6d6174653a206368616e676520746865206f776e6572206661696c6560448201527f6400000000000000000000000000000000000000000000000000000000000000606482015260840161050c565b6001805473ffffffffffffffffffffffffffffffffffffffff8381167fffffffffffffffffffffffff0000000000000000000000000000000000000000831681179093556040519116919082907f8be0079c531659141344cd1fd0a4f28419497f9722a3daafe3b4186f6b6457e090600090a35050565b6000612f06611bb9565b15612f6d576040517f08c379a000000000000000000000000000000000000000000000000000000000815260206004820152601060248201527f4175746f6d6174653a2070617573656400000000000000000000000000000000604482015260640161050c565b6000612f8e60015473ffffffffffffffffffffffffffffffffffffffff1690565b90503273ffffffffffffffffffffffffffffffffffffffff82161415612fb85760009150506131c8565b6000612fc2610fc1565b6040517f21f8a7210000000000000000000000000000000000000000000000000000000081527fe78c16c6d839536d3155985aab4e9c6013c8c3d446054bcebc48612f359d81f5600482015290915060009073ffffffffffffffffffffffffffffffffffffffff8316906321f8a7219060240160206040518083038186803b15801561304d57600080fd5b505afa158015613061573d6000803e3d6000fd5b505050506040513d601f19601f82011682018060405250810190613085919061397b565b905073ffffffffffffffffffffffffffffffffffffffff811661312a576040517f08c379a000000000000000000000000000000000000000000000000000000000815260206004820152602b60248201527f4175746f6d6174653a3a5f62696c6c3a2062616c616e636520636f6e7472616360448201527f74206e6f7420666f756e64000000000000000000000000000000000000000000606482015260840161050c565b8073ffffffffffffffffffffffffffffffffffffffff1663e578a2258488613150612573565b896040518563ffffffff1660e01b81526004016131709493929190613c8c565b602060405180830381600087803b15801561318a57600080fd5b505af115801561319e573d6000803e3d6000fd5b505050506040513d601f19601f820116820180604052508101906131c29190613bab565b93505050505b92915050565b6131f982827fffffffffffffffffffffffffffffffffffffffffffffffffffffffffffffffff6136cc565b5050565b604080516002808252606082018352600092839291906020830190803683375050875182519293509183915060009061323857613238613f3c565b73ffffffffffffffffffffffffffffffffffffffff9290921660209283029190910182015286015181518290600190811061327557613275613f3c565b73ffffffffffffffffffffffffffffffffffffffff92831660209182029290920101526040517f38ed1739000000000000000000000000000000000000000000000000000000008152908816906338ed1739906132de9088908890869030908a90600401613d9b565b600060405180830381600087803b1580156132f857600080fd5b505af115801561330c573d6000803e3d6000fd5b505050506040513d6000823e601f3d9081017fffffffffffffffffffffffffffffffffffffffffffffffffffffffffffffffe01682016040526133529190810190613ac3565b60018151811061336457613364613f3c565b602002602001015191505095945050505050565b60006133826135fe565b6040517f940494f100000000000000000000000000000000000000000000000000000000815273ffffffffffffffffffffffffffffffffffffffff86811660048301529192509082169063940494f19060240160206040518083038186803b1580156133ed57600080fd5b505afa158015613401573d6000803e3d6000fd5b505050506040513d601f19601f820116820180604052508101906134259190613bab565b60031415613519576134356138ea565b6006548490829074010000000000000000000000000000000000000000900460ff166003811061346757613467613f3c565b60200201526040517f4515cef300000000000000000000000000000000000000000000000000000000815273ffffffffffffffffffffffffffffffffffffffff861690634515cef3906134c09084908790600401613d80565b602060405180830381600087803b1580156134da57600080fd5b505af11580156134ee573d6000803e3d6000fd5b505050506040513d601f19601f820116820180604052508101906135129190613bab565b5050612acf565b613521613908565b6006548490829074010000000000000000000000000000000000000000900460ff166002811061355357613553613f3c565b60200201526040517f0b4c7e4d00000000000000000000000000000000000000000000000000000000815273ffffffffffffffffffffffffffffffffffffffff861690630b4c7e4d906135ac9084908790600401613d48565b602060405180830381600087803b1580156135c657600080fd5b505af11580156135da573d6000803e3d6000fd5b505050506040513d601f19601f82011682018060405250810190610fb99190613bab565b6000613608610fc1565b6040517f21f8a7210000000000000000000000000000000000000000000000000000000081527fe3afe40301d08e5458680c2ac903d4fddf0931e5e1a5c6d9e21328d89e8d8e7c600482015273ffffffffffffffffffffffffffffffffffffffff91909116906321f8a7219060240160206040518083038186803b15801561368f57600080fd5b505afa1580156136a3573d6000803e3d6000fd5b505050506040513d601f19601f820116820180604052508101906136c7919061397b565b905090565b6040517fdd62ed3e00000000000000000000000000000000000000000000000000000000815230600482015273ffffffffffffffffffffffffffffffffffffffff83811660248301526000919085169063dd62ed3e9060440160206040518083038186803b15801561373d57600080fd5b505afa158015613751573d6000803e3d6000fd5b505050506040513d601f19601f820116820180604052508101906137759190613bab565b9050801580159061378557508181105b15613834576040517f095ea7b300000000000000000000000000000000000000000000000000000000815273ffffffffffffffffffffffffffffffffffffffff84811660048301526000602483015285169063095ea7b390604401602060405180830381600087803b1580156137fa57600080fd5b505af115801561380e573d6000803e3d6000fd5b505050506040513d601f19601f820116820180604052508101906138329190613b70565b505b818114612acf576040517f095ea7b300000000000000000000000000000000000000000000000000000000815273ffffffffffffffffffffffffffffffffffffffff84811660048301526024820184905285169063095ea7b390604401602060405180830381600087803b1580156138ab57600080fd5b505af11580156138bf573d6000803e3d6000fd5b505050506040513d601f19601f820116820180604052508101906138e39190613b70565b5050505050565b60405180606001604052806003906020820280368337509192915050565b60405180604001604052806002906020820280368337509192915050565b803561ffff8116811461393857600080fd5b919050565b805169ffffffffffffffffffff8116811461393857600080fd5b60006020828403121561396957600080fd5b813561397481613f9a565b9392505050565b60006020828403121561398d57600080fd5b815161397481613f9a565b600080600080608085870312156139ae57600080fd5b84356139b981613f9a565b935060208501356139c981613f9a565b92506139d760408601613926565b91506139e560608601613926565b905092959194509250565b600080600060608486031215613a0557600080fd5b8335613a1081613f9a565b92506020840135613a2081613f9a565b929592945050506040919091013590565b6000610100808385031215613a4557600080fd5b83601f840112613a5457600080fd5b60405181810181811067ffffffffffffffff82111715613a7657613a76613f6b565b6040528084838101871015613a8a57600080fd5b600093505b6008841015613ab8578051613aa381613f9a565b82526001939093019260209182019101613a8f565b509095945050505050565b60006020808385031215613ad657600080fd5b825167ffffffffffffffff80821115613aee57600080fd5b818501915085601f830112613b0257600080fd5b815181811115613b1457613b14613f6b565b8060051b9150613b25848301613e26565b8181528481019084860184860187018a1015613b4057600080fd5b600095505b83861015613b63578051835260019590950194918601918601613b45565b5098975050505050505050565b600060208284031215613b8257600080fd5b8151801515811461397457600080fd5b600060208284031215613ba457600080fd5b5035919050565b600060208284031215613bbd57600080fd5b5051919050565b60008060008060808587031215613bda57600080fd5b5050823594602084013594506040840135936060013592509050565b600080600080600060a08688031215613c0e57600080fd5b613c178661393d565b9450602086015193506040860151925060608601519150613c3a6080870161393d565b90509295509295909350565b8060005b6002811015612acf578151845260209384019390910190600101613c4a565b8060005b6003811015612acf578151845260209384019390910190600101613c6d565b73ffffffffffffffffffffffffffffffffffffffff8516815260006020858184015284604084015260806060840152835180608085015260005b81811015613ce25785810183015185820160a001528201613cc6565b81811115613cf457600060a083870101525b50601f017fffffffffffffffffffffffffffffffffffffffffffffffffffffffffffffffe0169290920160a0019695505050505050565b60608101613d398285613c46565b82151560408301529392505050565b60608101613d568285613c46565b8260408301529392505050565b60808101613d718285613c69565b82151560608301529392505050565b60808101613d8e8285613c69565b8260608301529392505050565b600060a082018783526020878185015260a0604085015281875180845260c086019150828901935060005b81811015613df857845173ffffffffffffffffffffffffffffffffffffffff1683529383019391830191600101613dc6565b505073ffffffffffffffffffffffffffffffffffffffff969096166060850152505050608001529392505050565b604051601f82017fffffffffffffffffffffffffffffffffffffffffffffffffffffffffffffffe016810167ffffffffffffffff81118282101715613e6d57613e6d613f6b565b604052919050565b600082613eab577f4e487b7100000000000000000000000000000000000000000000000000000000600052601260045260246000fd5b500490565b6000817fffffffffffffffffffffffffffffffffffffffffffffffffffffffffffffffff0483118215151615613ee857613ee8613f0d565b500290565b600060ff821660ff811415613f0457613f04613f0d565b60010192915050565b7f4e487b7100000000000000000000000000000000000000000000000000000000600052601160045260246000fd5b7f4e487b7100000000000000000000000000000000000000000000000000000000600052603260045260246000fd5b7f4e487b7100000000000000000000000000000000000000000000000000000000600052604160045260246000fd5b73ffffffffffffffffffffffffffffffffffffffff81168114613fbc57600080fd5b5056fea164736f6c6343000806000a",
  "linkReferences": {
    "automates/utils/DFH/proxy/ERC1167.sol": {
      "ERC1167": [
        {
          "length": 20,
          "start": 4255
        },
        {
          "length": 20,
          "start": 4607
        },
        {
          "length": 20,
          "start": 7319
        },
        {
          "length": 20,
          "start": 8299
        },
        {
          "length": 20,
          "start": 9237
        },
        {
          "length": 20,
          "start": 9809
        },
        {
          "length": 20,
          "start": 11808
        }
      ]
    }
  },
  "deployedLinkReferences": {
    "automates/utils/DFH/proxy/ERC1167.sol": {
      "ERC1167": [
        {
          "length": 20,
          "start": 4084
        },
        {
          "length": 20,
          "start": 4436
        },
        {
          "length": 20,
          "start": 7148
        },
        {
          "length": 20,
          "start": 8128
        },
        {
          "length": 20,
          "start": 9066
        },
        {
          "length": 20,
          "start": 9638
        },
        {
          "length": 20,
          "start": 11637
        }
      ]
    }
  }
}