{
  "_format": "hh-sol-artifact-1",
  "contractName": "SynthetixUniswapLpRestake",
  "sourceName": "automates/curve/GaugeUniswapRestake.automate.sol",
  "abi": [
    {
      "inputs": [
        {
          "internalType": "address",
          "name": "_info",
          "type": "address"
        }
      ],
      "stateMutability": "nonpayable",
      "type": "constructor"
    },
    {
      "anonymous": false,
      "inputs": [
        {
          "indexed": true,
          "internalType": "address",
          "name": "previousOwner",
          "type": "address"
        },
        {
          "indexed": true,
          "internalType": "address",
          "name": "newOwner",
          "type": "address"
        }
      ],
      "name": "OwnershipTransferred",
      "type": "event"
    },
    {
      "anonymous": false,
      "inputs": [
        {
          "indexed": false,
          "internalType": "int256",
          "name": "protocolFee",
          "type": "int256"
        }
      ],
      "name": "ProtocolFeeChanged",
      "type": "event"
    },
    {
      "inputs": [
        {
          "internalType": "int256",
          "name": "__protocolFee",
          "type": "int256"
        }
      ],
      "name": "changeProtocolFee",
      "outputs": [],
      "stateMutability": "nonpayable",
      "type": "function"
    },
    {
      "inputs": [],
      "name": "deadline",
      "outputs": [
        {
          "internalType": "uint16",
          "name": "",
          "type": "uint16"
        }
      ],
      "stateMutability": "view",
      "type": "function"
    },
    {
      "inputs": [],
      "name": "deposit",
      "outputs": [],
      "stateMutability": "nonpayable",
      "type": "function"
    },
    {
      "inputs": [],
      "name": "info",
      "outputs": [
        {
          "internalType": "address",
          "name": "",
          "type": "address"
        }
      ],
      "stateMutability": "view",
      "type": "function"
    },
    {
      "inputs": [
        {
          "internalType": "address",
          "name": "_staking",
          "type": "address"
        },
        {
          "internalType": "address",
          "name": "_swapToken",
          "type": "address"
        },
        {
          "internalType": "uint16",
          "name": "_slippage",
          "type": "uint16"
        },
        {
          "internalType": "uint16",
          "name": "_deadline",
          "type": "uint16"
        }
      ],
      "name": "init",
      "outputs": [],
      "stateMutability": "nonpayable",
      "type": "function"
    },
    {
      "inputs": [],
      "name": "owner",
      "outputs": [
        {
          "internalType": "address",
          "name": "",
          "type": "address"
        }
      ],
      "stateMutability": "view",
      "type": "function"
    },
    {
      "inputs": [],
      "name": "pause",
      "outputs": [],
      "stateMutability": "nonpayable",
      "type": "function"
    },
    {
      "inputs": [],
      "name": "paused",
      "outputs": [
        {
          "internalType": "bool",
          "name": "",
          "type": "bool"
        }
      ],
      "stateMutability": "view",
      "type": "function"
    },
    {
      "inputs": [],
      "name": "protocolFee",
      "outputs": [
        {
          "internalType": "uint256",
          "name": "",
          "type": "uint256"
        }
      ],
      "stateMutability": "view",
      "type": "function"
    },
    {
      "inputs": [],
      "name": "refund",
      "outputs": [],
      "stateMutability": "nonpayable",
      "type": "function"
    },
    {
      "inputs": [
        {
          "internalType": "uint256",
          "name": "gasFee",
          "type": "uint256"
        },
        {
          "internalType": "uint256",
          "name": "_deadline",
          "type": "uint256"
        },
        {
          "internalType": "uint256",
          "name": "swapOutMin",
          "type": "uint256"
        },
        {
          "internalType": "uint256",
          "name": "lpOutMin",
          "type": "uint256"
        }
      ],
      "name": "run",
      "outputs": [],
      "stateMutability": "nonpayable",
      "type": "function"
    },
    {
      "inputs": [],
      "name": "slippage",
      "outputs": [
        {
          "internalType": "uint16",
          "name": "",
          "type": "uint16"
        }
      ],
      "stateMutability": "view",
      "type": "function"
    },
    {
      "inputs": [],
      "name": "staking",
      "outputs": [
        {
          "internalType": "contract IGauge",
          "name": "",
          "type": "address"
        }
      ],
      "stateMutability": "view",
      "type": "function"
    },
    {
      "inputs": [],
      "name": "swapToken",
      "outputs": [
        {
          "internalType": "address",
          "name": "",
          "type": "address"
        }
      ],
      "stateMutability": "view",
      "type": "function"
    },
    {
      "inputs": [
        {
          "internalType": "address",
          "name": "token",
          "type": "address"
        },
        {
          "internalType": "address",
          "name": "recipient",
          "type": "address"
        },
        {
          "internalType": "uint256",
          "name": "amount",
          "type": "uint256"
        }
      ],
      "name": "transfer",
      "outputs": [],
      "stateMutability": "nonpayable",
      "type": "function"
    },
    {
      "inputs": [
        {
          "internalType": "address",
          "name": "newOwner",
          "type": "address"
        }
      ],
      "name": "transferOwnership",
      "outputs": [],
      "stateMutability": "nonpayable",
      "type": "function"
    },
    {
      "inputs": [],
      "name": "unpause",
      "outputs": [],
      "stateMutability": "nonpayable",
      "type": "function"
    }
  ],
  "bytecode": "0x60806040523480156200001157600080fd5b506040516200391138038062003911833981016040819052620000349162000069565b600080546001600160a01b039092166001600160a01b031992831617905560018054909116321790556000196002556200009b565b6000602082840312156200007c57600080fd5b81516001600160a01b03811681146200009457600080fd5b9392505050565b61386680620000ab6000396000f3fe608060405234801561001057600080fd5b506004361061011b5760003560e01c80635c975abb116100b2578063b0e21e8a11610081578063d0e30db011610066578063d0e30db014610285578063dc73e49c1461028d578063f2fde38b146102ad57600080fd5b8063b0e21e8a1461025c578063beabacc81461027257600080fd5b80635c975abb1461020b5780638456cb59146102235780638da5cb5b1461022b5780639742b5c31461024957600080fd5b80633e032a3b116100ee5780633e032a3b146101b55780633f4ba83a146101db5780634cf088d9146101e3578063590e1ae31461020357600080fd5b806315509d2b146101205780631b586aff1461013557806329dcb0cf14610148578063370158ea14610188575b600080fd5b61013361012e36600461351b565b6102c0565b005b61013361014336600461334b565b6109af565b60045461017090760100000000000000000000000000000000000000000000900461ffff1681565b60405161ffff90911681526020015b60405180910390f35b610190610d60565b60405173ffffffffffffffffffffffffffffffffffffffff909116815260200161017f565b6004546101709074010000000000000000000000000000000000000000900461ffff1681565b610133610ec2565b6003546101909073ffffffffffffffffffffffffffffffffffffffff1681565b610133611254565b6102136118e3565b604051901515815260200161017f565b610133611a68565b60015473ffffffffffffffffffffffffffffffffffffffff16610190565b6101336102573660046134e9565b611e12565b61026461204c565b60405190815260200161017f565b6101336102803660046133a3565b612459565b6101336125ae565b6004546101909073ffffffffffffffffffffffffffffffffffffffff1681565b6101336102bb36600461330a565b612812565b836040518060400160405280601881526020017f43757276654761756765556e697377617052657374616b6500000000000000008152506103018282612a71565b50600354604080517f07546172000000000000000000000000000000000000000000000000000000008152905173ffffffffffffffffffffffffffffffffffffffff909216916000918391630754617291600480820192602092909190829003018186803b15801561037257600080fd5b505afa158015610386573d6000803e3d6000fd5b505050506040513d601f19601f820116820180604052508101906103aa919061332e565b6040517f8b752bb000000000000000000000000000000000000000000000000000000000815230600482015273ffffffffffffffffffffffffffffffffffffffff8481166024830152919250600091831690638b752bb09060440160206040518083038186803b15801561041d57600080fd5b505afa158015610431573d6000803e3d6000fd5b505050506040513d601f19601f820116820180604052508101906104559190613502565b116104e7576040517f08c379a000000000000000000000000000000000000000000000000000000000815260206004820152602360248201527f4761756765556e697377617052657374616b653a3a72756e3a206e6f2065617260448201527f6e6564000000000000000000000000000000000000000000000000000000000060648201526084015b60405180910390fd5b60006104f1610d60565b6040517f21f8a7210000000000000000000000000000000000000000000000000000000081527fa446c21f636a27494eaafaffc073cc3325d32c4efaa774c3f2a297ebef869803600482015273ffffffffffffffffffffffffffffffffffffffff91909116906321f8a7219060240160206040518083038186803b15801561057857600080fd5b505afa15801561058c573d6000803e3d6000fd5b505050506040513d601f19601f820116820180604052508101906105b0919061332e565b905073ffffffffffffffffffffffffffffffffffffffff8116610655576040517f08c379a000000000000000000000000000000000000000000000000000000000815260206004820152603b60248201527f4761756765556e697377617052657374616b653a3a72756e3a20756e6973776160448201527f7020726f7574657220636f6e7472616374206e6f7420666f756e64000000000060648201526084016104de565b6003546040517f6a62784200000000000000000000000000000000000000000000000000000000815273ffffffffffffffffffffffffffffffffffffffff918216600482015290831690636a62784290602401600060405180830381600087803b1580156106c257600080fd5b505af11580156106d6573d6000803e3d6000fd5b5050505060008373ffffffffffffffffffffffffffffffffffffffff166376d8b1176040518163ffffffff1660e01b815260040160206040518083038186803b15801561072257600080fd5b505afa158015610736573d6000803e3d6000fd5b505050506040513d601f19601f8201168201806040525081019061075a919061332e565b6040517f70a0823100000000000000000000000000000000000000000000000000000000815230600482015290915060009073ffffffffffffffffffffffffffffffffffffffff8316906370a082319060240160206040518083038186803b1580156107c557600080fd5b505afa1580156107d9573d6000803e3d6000fd5b505050506040513d601f19601f820116820180604052508101906107fd9190613502565b905061081f73ffffffffffffffffffffffffffffffffffffffff831684612d43565b6040805180820190915273ffffffffffffffffffffffffffffffffffffffff808416825260045416602082015260009061085d908590848d8f612d72565b6007549091506108849073ffffffffffffffffffffffffffffffffffffffff16828b612eed565b6006546108a79073ffffffffffffffffffffffffffffffffffffffff1687612d43565b6006546040517f70a0823100000000000000000000000000000000000000000000000000000000815230600482015273ffffffffffffffffffffffffffffffffffffffff8881169263b6b55f25929116906370a082319060240160206040518083038186803b15801561091957600080fd5b505afa15801561092d573d6000803e3d6000fd5b505050506040513d601f19601f820116820180604052508101906109519190613502565b6040518263ffffffff1660e01b815260040161096f91815260200190565b600060405180830381600087803b15801561098957600080fd5b505af115801561099d573d6000803e3d6000fd5b50505050505050505050505050505050565b60015473ffffffffffffffffffffffffffffffffffffffff16610a1f57600180547fffffffffffffffffffffffff000000000000000000000000000000000000000016321790557fffffffffffffffffffffffffffffffffffffffffffffffffffffffffffffffff600255610ac6565b60015473ffffffffffffffffffffffffffffffffffffffff163314610ac6576040517f08c379a000000000000000000000000000000000000000000000000000000000815260206004820152602160248201527f4175746f6d6174653a2063616c6c6572206973206e6f7420746865206f776e6560448201527f720000000000000000000000000000000000000000000000000000000000000060648201526084016104de565b6003805473ffffffffffffffffffffffffffffffffffffffff8087167fffffffffffffffffffffffff000000000000000000000000000000000000000092831681179093556004805461ffff868116760100000000000000000000000000000000000000000000027fffffffffffffffff0000ffffffffffffffffffffffffffffffffffffffffffff91891674010000000000000000000000000000000000000000027fffffffffffffffffffff00000000000000000000000000000000000000000000909316948a16949094179190911716919091178155600580549092167390e00ace148ca3b23ac1bc8c240c2a7dd9c2d7f517909155604080517f82c6306600000000000000000000000000000000000000000000000000000000815290516382c6306692828101926020929190829003018186803b158015610c0b57600080fd5b505afa158015610c1f573d6000803e3d6000fd5b505050506040513d601f19601f82011682018060405250810190610c43919061332e565b600680547fffffffffffffffffffffffff00000000000000000000000000000000000000001673ffffffffffffffffffffffffffffffffffffffff9283169081179091556005546040517fbdf475c300000000000000000000000000000000000000000000000000000000815260048101929092529091169063bdf475c39060240160206040518083038186803b158015610cdd57600080fd5b505afa158015610cf1573d6000803e3d6000fd5b505050506040513d601f19601f82011682018060405250810190610d15919061332e565b600780547fffffffffffffffffffffffff00000000000000000000000000000000000000001673ffffffffffffffffffffffffffffffffffffffff9290921691909117905550505050565b6040517f6b880718000000000000000000000000000000000000000000000000000000008152306004820152600090819073__$0bac19a4f6859fb91e3c64d76ce49d598f$__90636b8807189060240160206040518083038186803b158015610dc857600080fd5b505af4158015610ddc573d6000803e3d6000fd5b505050506040513d601f19601f82011682018060405250810190610e00919061332e565b905073ffffffffffffffffffffffffffffffffffffffff8116301415610e3e57505060005473ffffffffffffffffffffffffffffffffffffffff1690565b8073ffffffffffffffffffffffffffffffffffffffff1663370158ea6040518163ffffffff1660e01b815260040160206040518083038186803b158015610e8457600080fd5b505afa158015610e98573d6000803e3d6000fd5b505050506040513d601f19601f82011682018060405250810190610ebc919061332e565b91505090565b6040517f6b88071800000000000000000000000000000000000000000000000000000000815230600482018190529073__$0bac19a4f6859fb91e3c64d76ce49d598f$__90636b8807189060240160206040518083038186803b158015610f2857600080fd5b505af4158015610f3c573d6000803e3d6000fd5b505050506040513d601f19601f82011682018060405250810190610f60919061332e565b73ffffffffffffffffffffffffffffffffffffffff161415611115576000610f86610d60565b6040517f21f8a7210000000000000000000000000000000000000000000000000000000081527f689d13d8ed8ef1027633ba26e7121121cf427434450a529548f19bf175974395600482015273ffffffffffffffffffffffffffffffffffffffff91909116906321f8a7219060240160206040518083038186803b15801561100d57600080fd5b505afa158015611021573d6000803e3d6000fd5b505050506040513d601f19601f82011682018060405250810190611045919061332e565b60015490915073ffffffffffffffffffffffffffffffffffffffff1633148061108357503373ffffffffffffffffffffffffffffffffffffffff8216145b61110f576040517f08c379a000000000000000000000000000000000000000000000000000000000815260206004820152602260248201527f4175746f6d6174653a2063616c6c6572206973206e6f7420746865207061757360448201527f657200000000000000000000000000000000000000000000000000000000000060648201526084016104de565b506111bc565b60015473ffffffffffffffffffffffffffffffffffffffff1633146111bc576040517f08c379a000000000000000000000000000000000000000000000000000000000815260206004820152602260248201527f4175746f6d6174653a2063616c6c6572206973206e6f7420746865207061757360448201527f657200000000000000000000000000000000000000000000000000000000000060648201526084016104de565b6111c46118e3565b61122a576040517f08c379a000000000000000000000000000000000000000000000000000000000815260206004820152601460248201527f4175746f6d6174653a206e6f742070617573656400000000000000000000000060448201526064016104de565b600180547fffffffffffffffffffffff00ffffffffffffffffffffffffffffffffffffffff169055565b60015473ffffffffffffffffffffffffffffffffffffffff1633146112fb576040517f08c379a000000000000000000000000000000000000000000000000000000000815260206004820152602160248201527f4175746f6d6174653a2063616c6c6572206973206e6f7420746865206f776e6560448201527f720000000000000000000000000000000000000000000000000000000000000060648201526084016104de565b600061131c60015473ffffffffffffffffffffffffffffffffffffffff1690565b6003546040517f70a0823100000000000000000000000000000000000000000000000000000000815230600482015291925073ffffffffffffffffffffffffffffffffffffffff16908190632e1a7d4d9082906370a082319060240160206040518083038186803b15801561139057600080fd5b505afa1580156113a4573d6000803e3d6000fd5b505050506040513d601f19601f820116820180604052508101906113c89190613502565b6040518263ffffffff1660e01b81526004016113e691815260200190565b600060405180830381600087803b15801561140057600080fd5b505af1158015611414573d6000803e3d6000fd5b5050505060008173ffffffffffffffffffffffffffffffffffffffff166382c630666040518163ffffffff1660e01b815260040160206040518083038186803b15801561146057600080fd5b505afa158015611474573d6000803e3d6000fd5b505050506040513d601f19601f82011682018060405250810190611498919061332e565b6040517f70a0823100000000000000000000000000000000000000000000000000000000815230600482015290915073ffffffffffffffffffffffffffffffffffffffff82169063a9059cbb90859083906370a082319060240160206040518083038186803b15801561150a57600080fd5b505afa15801561151e573d6000803e3d6000fd5b505050506040513d601f19601f820116820180604052508101906115429190613502565b6040517fffffffff0000000000000000000000000000000000000000000000000000000060e085901b16815273ffffffffffffffffffffffffffffffffffffffff90921660048301526024820152604401602060405180830381600087803b1580156115ad57600080fd5b505af11580156115c1573d6000803e3d6000fd5b505050506040513d601f19601f820116820180604052508101906115e591906134c7565b50600354604080517f07546172000000000000000000000000000000000000000000000000000000008152905160009273ffffffffffffffffffffffffffffffffffffffff16916307546172916004808301926020929190829003018186803b15801561165157600080fd5b505afa158015611665573d6000803e3d6000fd5b505050506040513d601f19601f82011682018060405250810190611689919061332e565b6040517f6a62784200000000000000000000000000000000000000000000000000000000815273ffffffffffffffffffffffffffffffffffffffff858116600483015291925090821690636a62784290602401600060405180830381600087803b1580156116f657600080fd5b505af115801561170a573d6000803e3d6000fd5b5050505060008373ffffffffffffffffffffffffffffffffffffffff166376d8b1176040518163ffffffff1660e01b815260040160206040518083038186803b15801561175657600080fd5b505afa15801561176a573d6000803e3d6000fd5b505050506040513d601f19601f8201168201806040525081019061178e919061332e565b6040517f70a0823100000000000000000000000000000000000000000000000000000000815230600482015290915073ffffffffffffffffffffffffffffffffffffffff82169063a9059cbb90879083906370a082319060240160206040518083038186803b15801561180057600080fd5b505afa158015611814573d6000803e3d6000fd5b505050506040513d601f19601f820116820180604052508101906118389190613502565b6040517fffffffff0000000000000000000000000000000000000000000000000000000060e085901b16815273ffffffffffffffffffffffffffffffffffffffff90921660048301526024820152604401602060405180830381600087803b1580156118a357600080fd5b505af11580156118b7573d6000803e3d6000fd5b505050506040513d601f19601f820116820180604052508101906118db91906134c7565b505050505050565b6040517f6b880718000000000000000000000000000000000000000000000000000000008152306004820152600090819073__$0bac19a4f6859fb91e3c64d76ce49d598f$__90636b8807189060240160206040518083038186803b15801561194b57600080fd5b505af415801561195f573d6000803e3d6000fd5b505050506040513d601f19601f82011682018060405250810190611983919061332e565b905073ffffffffffffffffffffffffffffffffffffffff81163014156119c657505060015474010000000000000000000000000000000000000000900460ff1690565b60015474010000000000000000000000000000000000000000900460ff1680610ebc57508073ffffffffffffffffffffffffffffffffffffffff16635c975abb6040518163ffffffff1660e01b815260040160206040518083038186803b158015611a3057600080fd5b505afa158015611a44573d6000803e3d6000fd5b505050506040513d601f19601f82011682018060405250810190610ebc91906134c7565b6040517f6b88071800000000000000000000000000000000000000000000000000000000815230600482018190529073__$0bac19a4f6859fb91e3c64d76ce49d598f$__90636b8807189060240160206040518083038186803b158015611ace57600080fd5b505af4158015611ae2573d6000803e3d6000fd5b505050506040513d601f19601f82011682018060405250810190611b06919061332e565b73ffffffffffffffffffffffffffffffffffffffff161415611cbb576000611b2c610d60565b6040517f21f8a7210000000000000000000000000000000000000000000000000000000081527f689d13d8ed8ef1027633ba26e7121121cf427434450a529548f19bf175974395600482015273ffffffffffffffffffffffffffffffffffffffff91909116906321f8a7219060240160206040518083038186803b158015611bb357600080fd5b505afa158015611bc7573d6000803e3d6000fd5b505050506040513d601f19601f82011682018060405250810190611beb919061332e565b60015490915073ffffffffffffffffffffffffffffffffffffffff16331480611c2957503373ffffffffffffffffffffffffffffffffffffffff8216145b611cb5576040517f08c379a000000000000000000000000000000000000000000000000000000000815260206004820152602260248201527f4175746f6d6174653a2063616c6c6572206973206e6f7420746865207061757360448201527f657200000000000000000000000000000000000000000000000000000000000060648201526084016104de565b50611d62565b60015473ffffffffffffffffffffffffffffffffffffffff163314611d62576040517f08c379a000000000000000000000000000000000000000000000000000000000815260206004820152602260248201527f4175746f6d6174653a2063616c6c6572206973206e6f7420746865207061757360448201527f657200000000000000000000000000000000000000000000000000000000000060648201526084016104de565b611d6a6118e3565b15611dd1576040517f08c379a000000000000000000000000000000000000000000000000000000000815260206004820152601060248201527f4175746f6d6174653a207061757365640000000000000000000000000000000060448201526064016104de565b600180547fffffffffffffffffffffff00ffffffffffffffffffffffffffffffffffffffff1674010000000000000000000000000000000000000000179055565b6040517f6b88071800000000000000000000000000000000000000000000000000000000815230600482015260009073__$0bac19a4f6859fb91e3c64d76ce49d598f$__90636b8807189060240160206040518083038186803b158015611e7857600080fd5b505af4158015611e8c573d6000803e3d6000fd5b505050506040513d601f19601f82011682018060405250810190611eb0919061332e565b90503373ffffffffffffffffffffffffffffffffffffffff82163014611f53578173ffffffffffffffffffffffffffffffffffffffff16638da5cb5b6040518163ffffffff1660e01b815260040160206040518083038186803b158015611f1657600080fd5b505afa158015611f2a573d6000803e3d6000fd5b505050506040513d601f19601f82011682018060405250810190611f4e919061332e565b611f6d565b60015473ffffffffffffffffffffffffffffffffffffffff165b73ffffffffffffffffffffffffffffffffffffffff1614612010576040517f08c379a000000000000000000000000000000000000000000000000000000000815260206004820152603d60248201527f4175746f6d6174653a3a6368616e676550726f746f636f6c4665653a2063616c60448201527f6c6572206973206e6f74207468652070726f746f636f6c206f776e657200000060648201526084016104de565b60028290556040518281527f3c1d43943224e49d951ce8295a5c8332b517083b3f89bed50feae2cb39caebb59060200160405180910390a15050565b6040517f6b880718000000000000000000000000000000000000000000000000000000008152306004820152600090819073__$0bac19a4f6859fb91e3c64d76ce49d598f$__90636b8807189060240160206040518083038186803b1580156120b457600080fd5b505af41580156120c8573d6000803e3d6000fd5b505050506040513d601f19601f820116820180604052508101906120ec919061332e565b905073ffffffffffffffffffffffffffffffffffffffff8116301480159061211657506000600254125b15612199578073ffffffffffffffffffffffffffffffffffffffff1663b0e21e8a6040518163ffffffff1660e01b815260040160206040518083038186803b15801561216157600080fd5b505afa158015612175573d6000803e3d6000fd5b505050506040513d601f19601f82011682018060405250810190610ebc9190613502565b60006121a3610d60565b9050600080600254126121b857600254612275565b6040517fbd02d0f50000000000000000000000000000000000000000000000000000000081527fa93d95f96a5de25d7a41ddf1f5e8d45cfc929c4838163cf011dab4043a4a40d5600482015273ffffffffffffffffffffffffffffffffffffffff83169063bd02d0f59060240160206040518083038186803b15801561223d57600080fd5b505afa158015612251573d6000803e3d6000fd5b505050506040513d601f19601f820116820180604052508101906122759190613502565b905080612286576000935050505090565b6040517f21f8a7210000000000000000000000000000000000000000000000000000000081527f65c90423fe7c880476633a7e36521740f87199d233dc56eb4ca6643eb76f605f600482015260009073ffffffffffffffffffffffffffffffffffffffff8416906321f8a7219060240160206040518083038186803b15801561230e57600080fd5b505afa158015612322573d6000803e3d6000fd5b505050506040513d601f19601f82011682018060405250810190612346919061332e565b73ffffffffffffffffffffffffffffffffffffffff1663feaf968c6040518163ffffffff1660e01b815260040160a06040518083038186803b15801561238b57600080fd5b505afa15801561239f573d6000803e3d6000fd5b505050506040513d601f19601f820116820180604052508101906123c3919061354d565b50505091505060008113612433576040517f08c379a000000000000000000000000000000000000000000000000000000000815260206004820152601760248201527f4175746f6d6174653a20696e76616c696420707269636500000000000000000060448201526064016104de565b8061244683670de0b6b3a7640000613772565b6124509190613737565b94505050505090565b60015473ffffffffffffffffffffffffffffffffffffffff163314612500576040517f08c379a000000000000000000000000000000000000000000000000000000000815260206004820152602160248201527f4175746f6d6174653a2063616c6c6572206973206e6f7420746865206f776e6560448201527f720000000000000000000000000000000000000000000000000000000000000060648201526084016104de565b6040517fa9059cbb00000000000000000000000000000000000000000000000000000000815273ffffffffffffffffffffffffffffffffffffffff83811660048301526024820183905284169063a9059cbb90604401602060405180830381600087803b15801561257057600080fd5b505af1158015612584573d6000803e3d6000fd5b505050506040513d601f19601f820116820180604052508101906125a891906134c7565b50505050565b60015473ffffffffffffffffffffffffffffffffffffffff163314612655576040517f08c379a000000000000000000000000000000000000000000000000000000000815260206004820152602160248201527f4175746f6d6174653a2063616c6c6572206973206e6f7420746865206f776e6560448201527f720000000000000000000000000000000000000000000000000000000000000060648201526084016104de565b600354604080517f82c63066000000000000000000000000000000000000000000000000000000008152905173ffffffffffffffffffffffffffffffffffffffff9092169160009183916382c6306691600480820192602092909190829003018186803b1580156126c557600080fd5b505afa1580156126d9573d6000803e3d6000fd5b505050506040513d601f19601f820116820180604052508101906126fd919061332e565b905061271f73ffffffffffffffffffffffffffffffffffffffff821683612d43565b6040517f70a0823100000000000000000000000000000000000000000000000000000000815230600482015273ffffffffffffffffffffffffffffffffffffffff8084169163b6b55f25918416906370a082319060240160206040518083038186803b15801561278e57600080fd5b505afa1580156127a2573d6000803e3d6000fd5b505050506040513d601f19601f820116820180604052508101906127c69190613502565b6040518263ffffffff1660e01b81526004016127e491815260200190565b600060405180830381600087803b1580156127fe57600080fd5b505af11580156118db573d6000803e3d6000fd5b60015473ffffffffffffffffffffffffffffffffffffffff1633146128b9576040517f08c379a000000000000000000000000000000000000000000000000000000000815260206004820152602160248201527f4175746f6d6174653a2063616c6c6572206973206e6f7420746865206f776e6560448201527f720000000000000000000000000000000000000000000000000000000000000060648201526084016104de565b6040517f6b88071800000000000000000000000000000000000000000000000000000000815230600482018190529073__$0bac19a4f6859fb91e3c64d76ce49d598f$__90636b8807189060240160206040518083038186803b15801561291f57600080fd5b505af4158015612933573d6000803e3d6000fd5b505050506040513d601f19601f82011682018060405250810190612957919061332e565b73ffffffffffffffffffffffffffffffffffffffff16146129fa576040517f08c379a000000000000000000000000000000000000000000000000000000000815260206004820152602160248201527f4175746f6d6174653a206368616e676520746865206f776e6572206661696c6560448201527f640000000000000000000000000000000000000000000000000000000000000060648201526084016104de565b6001805473ffffffffffffffffffffffffffffffffffffffff8381167fffffffffffffffffffffffff0000000000000000000000000000000000000000831681179093556040519116919082907f8be0079c531659141344cd1fd0a4f28419497f9722a3daafe3b4186f6b6457e090600090a35050565b6000612a7b6118e3565b15612ae2576040517f08c379a000000000000000000000000000000000000000000000000000000000815260206004820152601060248201527f4175746f6d6174653a207061757365640000000000000000000000000000000060448201526064016104de565b6000612b0360015473ffffffffffffffffffffffffffffffffffffffff1690565b90503273ffffffffffffffffffffffffffffffffffffffff82161415612b2d576000915050612d3d565b6000612b37610d60565b6040517f21f8a7210000000000000000000000000000000000000000000000000000000081527fe78c16c6d839536d3155985aab4e9c6013c8c3d446054bcebc48612f359d81f5600482015290915060009073ffffffffffffffffffffffffffffffffffffffff8316906321f8a7219060240160206040518083038186803b158015612bc257600080fd5b505afa158015612bd6573d6000803e3d6000fd5b505050506040513d601f19601f82011682018060405250810190612bfa919061332e565b905073ffffffffffffffffffffffffffffffffffffffff8116612c9f576040517f08c379a000000000000000000000000000000000000000000000000000000000815260206004820152602b60248201527f4175746f6d6174653a3a5f62696c6c3a2062616c616e636520636f6e7472616360448201527f74206e6f7420666f756e6400000000000000000000000000000000000000000060648201526084016104de565b8073ffffffffffffffffffffffffffffffffffffffff1663e578a2258488612cc561204c565b896040518563ffffffff1660e01b8152600401612ce5949392919061359d565b602060405180830381600087803b158015612cff57600080fd5b505af1158015612d13573d6000803e3d6000fd5b505050506040513d601f19601f82011682018060405250810190612d379190613502565b93505050505b92915050565b612d6e82827fffffffffffffffffffffffffffffffffffffffffffffffffffffffffffffffff6130bb565b5050565b6040805160028082526060820183526000928392919060208301908036833750508751825192935091839150600090612dad57612dad6137d6565b73ffffffffffffffffffffffffffffffffffffffff92909216602092830291909101820152860151815182906001908110612dea57612dea6137d6565b73ffffffffffffffffffffffffffffffffffffffff92831660209182029290920101526040517f38ed1739000000000000000000000000000000000000000000000000000000008152908816906338ed173990612e539088908890869030908a906004016136ac565b600060405180830381600087803b158015612e6d57600080fd5b505af1158015612e81573d6000803e3d6000fd5b505050506040513d6000823e601f3d9081017fffffffffffffffffffffffffffffffffffffffffffffffffffffffffffffffe0168201604052612ec791908101906133e4565b600181518110612ed957612ed96137d6565b602002602001015191505095945050505050565b6005546040517f940494f100000000000000000000000000000000000000000000000000000000815273ffffffffffffffffffffffffffffffffffffffff85811660048301529091169063940494f19060240160206040518083038186803b158015612f5857600080fd5b505afa158015612f6c573d6000803e3d6000fd5b505050506040513d601f19601f82011682018060405250810190612f909190613502565b6003141561305657604080516060810182528381526000602082018190528183015290517f4515cef300000000000000000000000000000000000000000000000000000000815273ffffffffffffffffffffffffffffffffffffffff851691634515cef39161300491908590600401613674565b602060405180830381600087803b15801561301e57600080fd5b505af1158015613032573d6000803e3d6000fd5b505050506040513d601f19601f820116820180604052508101906125a89190613502565b6040805180820182528381526000602082015290517f0b4c7e4d00000000000000000000000000000000000000000000000000000000815273ffffffffffffffffffffffffffffffffffffffff851691630b4c7e4d916130049190859060040161363c565b6040517fdd62ed3e00000000000000000000000000000000000000000000000000000000815230600482015273ffffffffffffffffffffffffffffffffffffffff83811660248301526000919085169063dd62ed3e9060440160206040518083038186803b15801561312c57600080fd5b505afa158015613140573d6000803e3d6000fd5b505050506040513d601f19601f820116820180604052508101906131649190613502565b9050801580159061317457508181105b15613223576040517f095ea7b300000000000000000000000000000000000000000000000000000000815273ffffffffffffffffffffffffffffffffffffffff84811660048301526000602483015285169063095ea7b390604401602060405180830381600087803b1580156131e957600080fd5b505af11580156131fd573d6000803e3d6000fd5b505050506040513d601f19601f8201168201806040525081019061322191906134c7565b505b8181146125a8576040517f095ea7b300000000000000000000000000000000000000000000000000000000815273ffffffffffffffffffffffffffffffffffffffff84811660048301526024820184905285169063095ea7b390604401602060405180830381600087803b15801561329a57600080fd5b505af11580156132ae573d6000803e3d6000fd5b505050506040513d601f19601f820116820180604052508101906132d291906134c7565b5050505050565b803561ffff811681146132eb57600080fd5b919050565b805169ffffffffffffffffffff811681146132eb57600080fd5b60006020828403121561331c57600080fd5b813561332781613834565b9392505050565b60006020828403121561334057600080fd5b815161332781613834565b6000806000806080858703121561336157600080fd5b843561336c81613834565b9350602085013561337c81613834565b925061338a604086016132d9565b9150613398606086016132d9565b905092959194509250565b6000806000606084860312156133b857600080fd5b83356133c381613834565b925060208401356133d381613834565b929592945050506040919091013590565b600060208083850312156133f757600080fd5b825167ffffffffffffffff8082111561340f57600080fd5b818501915085601f83011261342357600080fd5b81518181111561343557613435613805565b8060051b6040517fffffffffffffffffffffffffffffffffffffffffffffffffffffffffffffffe0603f8301168101818110858211171561347857613478613805565b604052828152858101935084860182860187018a101561349757600080fd5b600095505b838610156134ba57805185526001959095019493860193860161349c565b5098975050505050505050565b6000602082840312156134d957600080fd5b8151801515811461332757600080fd5b6000602082840312156134fb57600080fd5b5035919050565b60006020828403121561351457600080fd5b5051919050565b6000806000806080858703121561353157600080fd5b5050823594602084013594506040840135936060013592509050565b600080600080600060a0868803121561356557600080fd5b61356e866132f0565b9450602086015193506040860151925060608601519150613591608087016132f0565b90509295509295909350565b73ffffffffffffffffffffffffffffffffffffffff8516815260006020858184015284604084015260806060840152835180608085015260005b818110156135f35785810183015185820160a0015282016135d7565b8181111561360557600060a083870101525b50601f017fffffffffffffffffffffffffffffffffffffffffffffffffffffffffffffffe0169290920160a0019695505050505050565b60608101818460005b6002811015613664578151835260209283019290910190600101613645565b5050508260408301529392505050565b60808101818460005b600381101561369c57815183526020928301929091019060010161367d565b5050508260608301529392505050565b600060a082018783526020878185015260a0604085015281875180845260c086019150828901935060005b8181101561370957845173ffffffffffffffffffffffffffffffffffffffff16835293830193918301916001016136d7565b505073ffffffffffffffffffffffffffffffffffffffff969096166060850152505050608001529392505050565b60008261376d577f4e487b7100000000000000000000000000000000000000000000000000000000600052601260045260246000fd5b500490565b6000817fffffffffffffffffffffffffffffffffffffffffffffffffffffffffffffffff04831182151516156137d1577f4e487b7100000000000000000000000000000000000000000000000000000000600052601160045260246000fd5b500290565b7f4e487b7100000000000000000000000000000000000000000000000000000000600052603260045260246000fd5b7f4e487b7100000000000000000000000000000000000000000000000000000000600052604160045260246000fd5b73ffffffffffffffffffffffffffffffffffffffff8116811461385657600080fd5b5056fea164736f6c6343000806000a",
  "linkReferences": {
    "automates/utils/DFH/proxy/ERC1167.sol": {
      "ERC1167": [
        {
          "length": 20,
          "start": 3646
        },
        {
          "length": 20,
          "start": 3998
        },
        {
          "length": 20,
          "start": 6593
        },
        {
          "length": 20,
          "start": 6980
        },
        {
          "length": 20,
          "start": 7918
        },
        {
          "length": 20,
          "start": 8490
        },
        {
          "length": 20,
          "start": 10645
        }
      ]
    }
  },
  "deployedLinkReferences": {
    "automates/utils/DFH/proxy/ERC1167.sol": {
      "ERC1167": [
        {
          "length": 20,
          "start": 3475
        },
        {
          "length": 20,
          "start": 3827
        },
        {
          "length": 20,
          "start": 6422
        },
        {
          "length": 20,
          "start": 6809
        },
        {
          "length": 20,
          "start": 7747
        },
        {
          "length": 20,
          "start": 8319
        },
        {
          "length": 20,
          "start": 10474
        }
      ]
    }
  }
}