{
  "_format": "hh-sol-artifact-1",
  "contractName": "MinterMock",
  "sourceName": "automates/curve/mock/MinterMock.sol",
  "abi": [
    {
      "inputs": [
        {
          "internalType": "address",
          "name": "_crv",
          "type": "address"
        }
      ],
      "stateMutability": "nonpayable",
      "type": "constructor"
    },
    {
      "inputs": [],
      "name": "crv",
      "outputs": [
        {
          "internalType": "contract IERC20",
          "name": "",
          "type": "address"
        }
      ],
      "stateMutability": "view",
      "type": "function"
    },
    {
      "inputs": [
        {
          "internalType": "address",
          "name": "gauge",
          "type": "address"
        }
      ],
      "name": "mint",
      "outputs": [],
      "stateMutability": "nonpayable",
      "type": "function"
    },
    {
      "inputs": [
        {
          "internalType": "address",
          "name": "",
          "type": "address"
        },
        {
          "internalType": "address",
          "name": "",
          "type": "address"
        }
      ],
      "name": "minted",
      "outputs": [
        {
          "internalType": "uint256",
          "name": "",
          "type": "uint256"
        }
      ],
      "stateMutability": "view",
      "type": "function"
    },
    {
      "inputs": [
        {
          "internalType": "address",
          "name": "wallet",
          "type": "address"
        },
        {
          "internalType": "address",
          "name": "gauge",
          "type": "address"
        },
        {
          "internalType": "uint256",
          "name": "amount",
          "type": "uint256"
        }
      ],
      "name": "setMinted",
      "outputs": [],
      "stateMutability": "nonpayable",
      "type": "function"
    }
  ],
  "bytecode": "0x608060405234801561001057600080fd5b5060405161037e38038061037e83398101604081905261002f91610054565b600080546001600160a01b0319166001600160a01b0392909216919091179055610084565b60006020828403121561006657600080fd5b81516001600160a01b038116811461007d57600080fd5b9392505050565b6102eb806100936000396000f3fe608060405234801561001057600080fd5b506004361061004c5760003560e01c8063484935a2146100515780636a4874a11461009a5780636a627842146100e45780638b752bb0146100f7575b600080fd5b61009861005f366004610280565b73ffffffffffffffffffffffffffffffffffffffff92831660009081526001602090815260408083209490951682529290925291902055565b005b6000546100ba9073ffffffffffffffffffffffffffffffffffffffff1681565b60405173ffffffffffffffffffffffffffffffffffffffff90911681526020015b60405180910390f35b6100986100f236600461022b565b610130565b61012261010536600461024d565b600160209081526000928352604080842090915290825290205481565b6040519081526020016100db565b33600081815260016020908152604080832073ffffffffffffffffffffffffffffffffffffffff86811685529252808320805490849055925490517fa9059cbb000000000000000000000000000000000000000000000000000000008152600481019490945260248401839052919291169063a9059cbb90604401602060405180830381600087803b1580156101c557600080fd5b505af11580156101d9573d6000803e3d6000fd5b505050506040513d601f19601f820116820180604052508101906101fd91906102bc565b505050565b803573ffffffffffffffffffffffffffffffffffffffff8116811461022657600080fd5b919050565b60006020828403121561023d57600080fd5b61024682610202565b9392505050565b6000806040838503121561026057600080fd5b61026983610202565b915061027760208401610202565b90509250929050565b60008060006060848603121561029557600080fd5b61029e84610202565b92506102ac60208501610202565b9150604084013590509250925092565b6000602082840312156102ce57600080fd5b8151801515811461024657600080fdfea164736f6c6343000806000a",
  "linkReferences": {},
  "deployedLinkReferences": {}
}