{
  "address": "0xdcEBCae8c537c30a43DCC336278220d99540C00B",
  "abi": [
    {
      "inputs": [
        {
          "internalType": "address",
          "name": "_info",
          "type": "address"
        }
      ],
      "stateMutability": "nonpayable",
      "type": "constructor"
    },
    {
      "anonymous": false,
      "inputs": [
        {
          "indexed": false,
          "internalType": "uint256",
          "name": "tokenId",
          "type": "uint256"
        }
      ],
      "name": "Deposit",
      "type": "event"
    },
    {
      "anonymous": false,
      "inputs": [
        {
          "indexed": true,
          "internalType": "address",
          "name": "previousOwner",
          "type": "address"
        },
        {
          "indexed": true,
          "internalType": "address",
          "name": "newOwner",
          "type": "address"
        }
      ],
      "name": "OwnershipTransferred",
      "type": "event"
    },
    {
      "anonymous": false,
      "inputs": [
        {
          "indexed": false,
          "internalType": "int256",
          "name": "protocolFee",
          "type": "int256"
        }
      ],
      "name": "ProtocolFeeChanged",
      "type": "event"
    },
    {
      "anonymous": false,
      "inputs": [
        {
          "indexed": false,
          "internalType": "uint256",
          "name": "tokenId",
          "type": "uint256"
        }
      ],
      "name": "Refund",
      "type": "event"
    },
    {
      "inputs": [
        {
          "internalType": "int256",
          "name": "__protocolFee",
          "type": "int256"
        }
      ],
      "name": "changeProtocolFee",
      "outputs": [],
      "stateMutability": "nonpayable",
      "type": "function"
    },
    {
      "inputs": [],
      "name": "deadline",
      "outputs": [
        {
          "internalType": "uint16",
          "name": "",
          "type": "uint16"
        }
      ],
      "stateMutability": "view",
      "type": "function"
    },
    {
      "inputs": [
        {
          "internalType": "uint256",
          "name": "_tokenId",
          "type": "uint256"
        }
      ],
      "name": "deposit",
      "outputs": [],
      "stateMutability": "nonpayable",
      "type": "function"
    },
    {
      "inputs": [],
      "name": "info",
      "outputs": [
        {
          "internalType": "address",
          "name": "",
          "type": "address"
        }
      ],
      "stateMutability": "view",
      "type": "function"
    },
    {
      "inputs": [
        {
          "internalType": "address",
          "name": "_positionManager",
          "type": "address"
        },
        {
          "internalType": "address",
          "name": "_liquidityRouter",
          "type": "address"
        },
        {
          "internalType": "address",
          "name": "_pool",
          "type": "address"
        },
        {
          "internalType": "uint16",
          "name": "_deadline",
          "type": "uint16"
        }
      ],
      "name": "init",
      "outputs": [],
      "stateMutability": "nonpayable",
      "type": "function"
    },
    {
      "inputs": [],
      "name": "liquidityRouter",
      "outputs": [
        {
          "internalType": "address",
          "name": "",
          "type": "address"
        }
      ],
      "stateMutability": "view",
      "type": "function"
    },
    {
      "inputs": [
        {
          "internalType": "address",
          "name": "",
          "type": "address"
        },
        {
          "internalType": "address",
          "name": "",
          "type": "address"
        },
        {
          "internalType": "uint256",
          "name": "",
          "type": "uint256"
        },
        {
          "internalType": "bytes",
          "name": "",
          "type": "bytes"
        }
      ],
      "name": "onERC721Received",
      "outputs": [
        {
          "internalType": "bytes4",
          "name": "",
          "type": "bytes4"
        }
      ],
      "stateMutability": "pure",
      "type": "function"
    },
    {
      "inputs": [],
      "name": "owner",
      "outputs": [
        {
          "internalType": "address",
          "name": "",
          "type": "address"
        }
      ],
      "stateMutability": "view",
      "type": "function"
    },
    {
      "inputs": [],
      "name": "pause",
      "outputs": [],
      "stateMutability": "nonpayable",
      "type": "function"
    },
    {
      "inputs": [],
      "name": "paused",
      "outputs": [
        {
          "internalType": "bool",
          "name": "",
          "type": "bool"
        }
      ],
      "stateMutability": "view",
      "type": "function"
    },
    {
      "inputs": [],
      "name": "pool",
      "outputs": [
        {
          "internalType": "address",
          "name": "",
          "type": "address"
        }
      ],
      "stateMutability": "view",
      "type": "function"
    },
    {
      "inputs": [],
      "name": "positionManager",
      "outputs": [
        {
          "internalType": "address",
          "name": "",
          "type": "address"
        }
      ],
      "stateMutability": "view",
      "type": "function"
    },
    {
      "inputs": [],
      "name": "protocolFee",
      "outputs": [
        {
          "internalType": "uint256",
          "name": "",
          "type": "uint256"
        }
      ],
      "stateMutability": "view",
      "type": "function"
    },
    {
      "inputs": [
        {
          "internalType": "uint256",
          "name": "gasFee",
          "type": "uint256"
        },
        {
          "internalType": "int24",
          "name": "tickLower",
          "type": "int24"
        },
        {
          "internalType": "int24",
          "name": "tickUpper",
          "type": "int24"
        },
        {
          "internalType": "uint256",
          "name": "_deadline",
          "type": "uint256"
        }
      ],
      "name": "rebalance",
      "outputs": [],
      "stateMutability": "nonpayable",
      "type": "function"
    },
    {
      "inputs": [],
      "name": "refund",
      "outputs": [],
      "stateMutability": "nonpayable",
      "type": "function"
    },
    {
      "inputs": [
        {
          "internalType": "uint256",
          "name": "gasFee",
          "type": "uint256"
        },
        {
          "internalType": "uint256",
          "name": "_deadline",
          "type": "uint256"
        }
      ],
      "name": "run",
      "outputs": [],
      "stateMutability": "nonpayable",
      "type": "function"
    },
    {
      "inputs": [
        {
          "internalType": "uint256",
          "name": "gasFee",
          "type": "uint256"
        },
        {
          "internalType": "uint256",
          "name": "_deadline",
          "type": "uint256"
        }
      ],
      "name": "runStopLoss",
      "outputs": [],
      "stateMutability": "nonpayable",
      "type": "function"
    },
    {
      "inputs": [
        {
          "internalType": "address[]",
          "name": "path",
          "type": "address[]"
        },
        {
          "internalType": "uint24",
          "name": "fee",
          "type": "uint24"
        },
        {
          "internalType": "uint256",
          "name": "amountOut",
          "type": "uint256"
        },
        {
          "internalType": "uint256",
          "name": "amountOutMin",
          "type": "uint256"
        }
      ],
      "name": "setStopLoss",
      "outputs": [],
      "stateMutability": "nonpayable",
      "type": "function"
    },
    {
      "inputs": [],
      "name": "stopLoss",
      "outputs": [
        {
          "internalType": "uint24",
          "name": "fee",
          "type": "uint24"
        },
        {
          "internalType": "uint256",
          "name": "amountOut",
          "type": "uint256"
        },
        {
          "internalType": "uint256",
          "name": "amountOutMin",
          "type": "uint256"
        }
      ],
      "stateMutability": "view",
      "type": "function"
    },
    {
      "inputs": [],
      "name": "tokenId",
      "outputs": [
        {
          "internalType": "uint256",
          "name": "",
          "type": "uint256"
        }
      ],
      "stateMutability": "view",
      "type": "function"
    },
    {
      "inputs": [
        {
          "internalType": "address",
          "name": "token",
          "type": "address"
        },
        {
          "internalType": "address",
          "name": "recipient",
          "type": "address"
        },
        {
          "internalType": "uint256",
          "name": "amount",
          "type": "uint256"
        }
      ],
      "name": "transfer",
      "outputs": [],
      "stateMutability": "nonpayable",
      "type": "function"
    },
    {
      "inputs": [
        {
          "internalType": "address",
          "name": "newOwner",
          "type": "address"
        }
      ],
      "name": "transferOwnership",
      "outputs": [],
      "stateMutability": "nonpayable",
      "type": "function"
    },
    {
      "inputs": [],
      "name": "unpause",
      "outputs": [],
      "stateMutability": "nonpayable",
      "type": "function"
    }
  ],
  "transactionHash": "0xbf2e91fa55cd17f578be555d7062cf3a5c35d09564d9c234ed5dd0ffed86dc33",
  "args": [
    "0xB0E5922Bf9F0AEac7f00198a5fe4ff59Be81225f"
  ],
  "numDeployments": 1,
  "solcInputHash": "d3622fc3a398fa89c2c1a7142e1cb3a0",
  "bytecode": "0x60806040523480156200001157600080fd5b506040516200586638038062005866833981016040819052620000349162000069565b600080546001600160a01b039092166001600160a01b031992831617905560018054909116321790556000196002556200009b565b6000602082840312156200007c57600080fd5b81516001600160a01b03811681146200009457600080fd5b9392505050565b6157bb80620000ab6000396000f3fe608060405234801561001057600080fd5b506004361061018d5760003560e01c80637357f5d2116100e3578063b0e21e8a1161008c578063beabacc811610066578063beabacc8146103cc578063f2fde38b146103df578063f7d5e2d8146103f257600080fd5b8063b0e21e8a1461039e578063b6b55f25146103a6578063bc68d6b0146103b957600080fd5b80638da5cb5b116100bd5780638da5cb5b1461035a5780639327d80a146103785780639742b5c31461038b57600080fd5b80637357f5d21461031a578063791b98bc1461032d5780638456cb591461035257600080fd5b8063370158ea11610145578063590e1ae31161011f578063590e1ae3146102e75780635b848627146102ef5780635c975abb1461030257600080fd5b8063370158ea1461029d5780633f4ba83a146102a5578063527a1565146102af57600080fd5b806317d70f7c1161017657806317d70f7c14610245578063247029441461025c57806329dcb0cf1461027c57600080fd5b8063150b7a021461019257806316f0115b14610200575b600080fd5b6101ca6101a0366004615029565b7f150b7a023d4804d13e8c85fb27262cb750cf6ba9f9dd3bb30d90f482ceeb4b1f95945050505050565b6040517fffffffff0000000000000000000000000000000000000000000000000000000090911681526020015b60405180910390f35b6005546102209073ffffffffffffffffffffffffffffffffffffffff1681565b60405173ffffffffffffffffffffffffffffffffffffffff90911681526020016101f7565b61024e60065481565b6040519081526020016101f7565b6004546102209073ffffffffffffffffffffffffffffffffffffffff1681565b60075461028a9061ffff1681565b60405161ffff90911681526020016101f7565b610220610405565b6102ad610567565b005b600954600a54600b546102c69262ffffff16919083565b6040805162ffffff90941684526020840192909252908201526060016101f7565b6102ad6108fe565b6102ad6102fd36600461525d565b610eda565b61030a6111af565b60405190151581526020016101f7565b6102ad6103283660046152a5565b611334565b60035461022090610100900473ffffffffffffffffffffffffffffffffffffffff1681565b6102ad611afa565b60015473ffffffffffffffffffffffffffffffffffffffff16610220565b6102ad6103863660046152a5565b611ea4565b6102ad6103993660046151f6565b612603565b61024e61283d565b6102ad6103b43660046151f6565b612c4a565b6102ad6103c7366004614f85565b6132e5565b6102ad6103da366004614fe8565b613759565b6102ad6103ed366004614f4b565b6138ae565b6102ad6104003660046150c8565b613b0d565b6040517f6b8807180000000000000000000000000000000000000000000000000000000081523060048201526000908190737ecFCbdeb6f195030B9Bf2ECc402f6d5433d116D90636b8807189060240160206040518083038186803b15801561046d57600080fd5b505af4158015610481573d6000803e3d6000fd5b505050506040513d601f19601f820116820180604052508101906104a59190614f68565b905073ffffffffffffffffffffffffffffffffffffffff81163014156104e357505060005473ffffffffffffffffffffffffffffffffffffffff1690565b8073ffffffffffffffffffffffffffffffffffffffff1663370158ea6040518163ffffffff1660e01b815260040160206040518083038186803b15801561052957600080fd5b505afa15801561053d573d6000803e3d6000fd5b505050506040513d601f19601f820116820180604052508101906105619190614f68565b91505090565b6040517f6b880718000000000000000000000000000000000000000000000000000000008152306004820181905290737ecFCbdeb6f195030B9Bf2ECc402f6d5433d116D90636b8807189060240160206040518083038186803b1580156105cd57600080fd5b505af41580156105e1573d6000803e3d6000fd5b505050506040513d601f19601f820116820180604052508101906106059190614f68565b73ffffffffffffffffffffffffffffffffffffffff1614156107bf57600061062b610405565b6040517f21f8a7210000000000000000000000000000000000000000000000000000000081527f689d13d8ed8ef1027633ba26e7121121cf427434450a529548f19bf175974395600482015273ffffffffffffffffffffffffffffffffffffffff91909116906321f8a7219060240160206040518083038186803b1580156106b257600080fd5b505afa1580156106c6573d6000803e3d6000fd5b505050506040513d601f19601f820116820180604052508101906106ea9190614f68565b60015490915073ffffffffffffffffffffffffffffffffffffffff1633148061072857503373ffffffffffffffffffffffffffffffffffffffff8216145b6107b9576040517f08c379a000000000000000000000000000000000000000000000000000000000815260206004820152602260248201527f4175746f6d6174653a2063616c6c6572206973206e6f7420746865207061757360448201527f657200000000000000000000000000000000000000000000000000000000000060648201526084015b60405180910390fd5b50610866565b60015473ffffffffffffffffffffffffffffffffffffffff163314610866576040517f08c379a000000000000000000000000000000000000000000000000000000000815260206004820152602260248201527f4175746f6d6174653a2063616c6c6572206973206e6f7420746865207061757360448201527f657200000000000000000000000000000000000000000000000000000000000060648201526084016107b0565b61086e6111af565b6108d4576040517f08c379a000000000000000000000000000000000000000000000000000000000815260206004820152601460248201527f4175746f6d6174653a206e6f742070617573656400000000000000000000000060448201526064016107b0565b600180547fffffffffffffffffffffff00ffffffffffffffffffffffffffffffffffffffff169055565b60015473ffffffffffffffffffffffffffffffffffffffff1633146109a5576040517f08c379a000000000000000000000000000000000000000000000000000000000815260206004820152602160248201527f4175746f6d6174653a2063616c6c6572206973206e6f7420746865206f776e6560448201527f720000000000000000000000000000000000000000000000000000000000000060648201526084016107b0565b60065480610a35576040517f08c379a000000000000000000000000000000000000000000000000000000000815260206004820152602760248201527f52657374616b653a3a726566756e643a20746f6b656e20616c7265616479207260448201527f6566756e6465640000000000000000000000000000000000000000000000000060648201526084016107b0565b6000610a5660015473ffffffffffffffffffffffffffffffffffffffff1690565b6003546040517f42842e0e00000000000000000000000000000000000000000000000000000000815230600482015273ffffffffffffffffffffffffffffffffffffffff8084166024830152604482018690529293506101009091049091169081906342842e0e90606401600060405180830381600087803b158015610adb57600080fd5b505af1158015610aef573d6000803e3d6000fd5b50506040517f99fbab88000000000000000000000000000000000000000000000000000000008152600481018690526000925082915073ffffffffffffffffffffffffffffffffffffffff8416906399fbab88906024016101806040518083038186803b158015610b5f57600080fd5b505afa158015610b73573d6000803e3d6000fd5b505050506040513d601f19601f82011682018060405250810190610b97919061533b565b5050505050505050935093505050600073ffffffffffffffffffffffffffffffffffffffff168273ffffffffffffffffffffffffffffffffffffffff161415610c62576040517f08c379a000000000000000000000000000000000000000000000000000000000815260206004820152602760248201527f52657374616b653a3a726566756e643a20696e76616c696420746f6b656e302060448201527f616464726573730000000000000000000000000000000000000000000000000060648201526084016107b0565b73ffffffffffffffffffffffffffffffffffffffff8116610d05576040517f08c379a000000000000000000000000000000000000000000000000000000000815260206004820152602760248201527f52657374616b653a3a726566756e643a20696e76616c696420746f6b656e312060448201527f616464726573730000000000000000000000000000000000000000000000000060648201526084016107b0565b6040517f70a0823100000000000000000000000000000000000000000000000000000000815230600482015260009073ffffffffffffffffffffffffffffffffffffffff8416906370a082319060240160206040518083038186803b158015610d6d57600080fd5b505afa158015610d81573d6000803e3d6000fd5b505050506040513d601f19601f82011682018060405250810190610da59190615244565b6040517f70a0823100000000000000000000000000000000000000000000000000000000815230600482015290915060009073ffffffffffffffffffffffffffffffffffffffff8416906370a082319060240160206040518083038186803b158015610e1057600080fd5b505afa158015610e24573d6000803e3d6000fd5b505050506040513d601f19601f82011682018060405250810190610e489190615244565b90508115610e7157610e7173ffffffffffffffffffffffffffffffffffffffff85168784613c4f565b8015610e9857610e9873ffffffffffffffffffffffffffffffffffffffff84168783613c4f565b60006006556040518781527f2e1897b0591d764356194f7a795238a87c1987c7a877568e50d829d547c92b97906020015b60405180910390a150505050505050565b836040518060400160405280601981526020017f556e6973776170563352657374616b65526562616c616e636500000000000000815250610f1b8282613d28565b5060065480610fac576040517f08c379a000000000000000000000000000000000000000000000000000000000815260206004820152602a60248201527f52657374616b653a3a726562616c616e63653a20746f6b656e20616c7265616460448201527f7920726566756e6465640000000000000000000000000000000000000000000060648201526084016107b0565b6040805160a081018252600288810b825287810b60208301908152600354610100900473ffffffffffffffffffffffffffffffffffffffff908116848601908152600480548316606087019081526080870189815297517f7543f16a0000000000000000000000000000000000000000000000000000000081528751870b92810192909252935190940b6024850152518116604484015290511660648201529151608483015260a4820186905290600090738586719c29A043C8305252de4DFfE94F4324559090637543f16a9060c40160206040518083038186803b15801561109457600080fd5b505af41580156110a8573d6000803e3d6000fd5b505050506040513d601f19601f820116820180604052508101906110cc9190615244565b60035490915073ffffffffffffffffffffffffffffffffffffffff610100909104166342842e0e3061111360015473ffffffffffffffffffffffffffffffffffffffff1690565b6040517fffffffff0000000000000000000000000000000000000000000000000000000060e085901b16815273ffffffffffffffffffffffffffffffffffffffff92831660048201529116602482015260448101869052606401600060405180830381600087803b15801561118757600080fd5b505af115801561119b573d6000803e3d6000fd5b505050600691909155505050505050505050565b6040517f6b8807180000000000000000000000000000000000000000000000000000000081523060048201526000908190737ecFCbdeb6f195030B9Bf2ECc402f6d5433d116D90636b8807189060240160206040518083038186803b15801561121757600080fd5b505af415801561122b573d6000803e3d6000fd5b505050506040513d601f19601f8201168201806040525081019061124f9190614f68565b905073ffffffffffffffffffffffffffffffffffffffff811630141561129257505060015474010000000000000000000000000000000000000000900460ff1690565b60015474010000000000000000000000000000000000000000900460ff168061056157508073ffffffffffffffffffffffffffffffffffffffff16635c975abb6040518163ffffffff1660e01b815260040160206040518083038186803b1580156112fc57600080fd5b505afa158015611310573d6000803e3d6000fd5b505050506040513d601f19601f8201168201806040525081019061056191906151d4565b6006546113c3576040517f08c379a000000000000000000000000000000000000000000000000000000000815260206004820152602c60248201527f52657374616b653a3a746f6b656e4465706f73697465643a20746f6b656e206e60448201527f6f74206465706f7369746564000000000000000000000000000000000000000060648201526084016107b0565b6003546006546040517f6352211e0000000000000000000000000000000000000000000000000000000081523092610100900473ffffffffffffffffffffffffffffffffffffffff1691636352211e91611424919060040190815260200190565b60206040518083038186803b15801561143c57600080fd5b505afa158015611450573d6000803e3d6000fd5b505050506040513d601f19601f820116820180604052508101906114749190614f68565b73ffffffffffffffffffffffffffffffffffffffff1614611517576040517f08c379a000000000000000000000000000000000000000000000000000000000815260206004820152602760248201527f52657374616b653a3a746f6b656e4465706f73697465643a20746f6b656e207260448201527f6566756e6465640000000000000000000000000000000000000000000000000060648201526084016107b0565b816040518060400160405280601081526020017f556e6973776170563352657374616b65000000000000000000000000000000008152506115588282613d28565b506006546003546040517f99fbab880000000000000000000000000000000000000000000000000000000081526004810183905261010090910473ffffffffffffffffffffffffffffffffffffffff1690600090819083906399fbab88906024016101806040518083038186803b1580156115d257600080fd5b505afa1580156115e6573d6000803e3d6000fd5b505050506040513d601f19601f8201168201806040525081019061160a919061533b565b5050604080516080810182528f81523060208201526fffffffffffffffffffffffffffffffff818301819052606082015290517ffc6f7865000000000000000000000000000000000000000000000000000000008152989c50969a505073ffffffffffffffffffffffffffffffffffffffff8c16985063fc6f7865975061169a9660040194506155099350505050565b6040805180830381600087803b1580156116b357600080fd5b505af11580156116c7573d6000803e3d6000fd5b505050506040513d601f19601f820116820180604052508101906116eb91906152c7565b50506040517f70a0823100000000000000000000000000000000000000000000000000000000815230600482015260009073ffffffffffffffffffffffffffffffffffffffff8416906370a082319060240160206040518083038186803b15801561175557600080fd5b505afa158015611769573d6000803e3d6000fd5b505050506040513d601f19601f8201168201806040525081019061178d9190615244565b6040517f70a0823100000000000000000000000000000000000000000000000000000000815230600482015290915060009073ffffffffffffffffffffffffffffffffffffffff8416906370a082319060240160206040518083038186803b1580156117f857600080fd5b505afa15801561180c573d6000803e3d6000fd5b505050506040513d601f19601f820116820180604052508101906118309190615244565b905060008211806118415750600081115b6118a7576040517f08c379a000000000000000000000000000000000000000000000000000000000815260206004820152601760248201527f52657374616b653a3a72756e3a206e6f206561726e656400000000000000000060448201526064016107b0565b6040517f095ea7b300000000000000000000000000000000000000000000000000000000815273ffffffffffffffffffffffffffffffffffffffff86811660048301526024820184905285169063095ea7b390604401602060405180830381600087803b15801561191757600080fd5b505af115801561192b573d6000803e3d6000fd5b505050506040513d601f19601f8201168201806040525081019061194f91906151d4565b506040517f095ea7b300000000000000000000000000000000000000000000000000000000815273ffffffffffffffffffffffffffffffffffffffff86811660048301526024820183905284169063095ea7b390604401602060405180830381600087803b1580156119c057600080fd5b505af11580156119d4573d6000803e3d6000fd5b505050506040513d601f19601f820116820180604052508101906119f891906151d4565b506040805160c081018252878152602081018481528183018481526000606084018181526080850191825260a085018f815295517f219f5d1700000000000000000000000000000000000000000000000000000000815294516004860152925160248501529051604484015290516064830152516084820152905160a482015273ffffffffffffffffffffffffffffffffffffffff86169063219f5d179060c401606060405180830381600087803b158015611ab357600080fd5b505af1158015611ac7573d6000803e3d6000fd5b505050506040513d601f19601f82011682018060405250810190611aeb919061520f565b50505050505050505050505050565b6040517f6b880718000000000000000000000000000000000000000000000000000000008152306004820181905290737ecFCbdeb6f195030B9Bf2ECc402f6d5433d116D90636b8807189060240160206040518083038186803b158015611b6057600080fd5b505af4158015611b74573d6000803e3d6000fd5b505050506040513d601f19601f82011682018060405250810190611b989190614f68565b73ffffffffffffffffffffffffffffffffffffffff161415611d4d576000611bbe610405565b6040517f21f8a7210000000000000000000000000000000000000000000000000000000081527f689d13d8ed8ef1027633ba26e7121121cf427434450a529548f19bf175974395600482015273ffffffffffffffffffffffffffffffffffffffff91909116906321f8a7219060240160206040518083038186803b158015611c4557600080fd5b505afa158015611c59573d6000803e3d6000fd5b505050506040513d601f19601f82011682018060405250810190611c7d9190614f68565b60015490915073ffffffffffffffffffffffffffffffffffffffff16331480611cbb57503373ffffffffffffffffffffffffffffffffffffffff8216145b611d47576040517f08c379a000000000000000000000000000000000000000000000000000000000815260206004820152602260248201527f4175746f6d6174653a2063616c6c6572206973206e6f7420746865207061757360448201527f657200000000000000000000000000000000000000000000000000000000000060648201526084016107b0565b50611df4565b60015473ffffffffffffffffffffffffffffffffffffffff163314611df4576040517f08c379a000000000000000000000000000000000000000000000000000000000815260206004820152602260248201527f4175746f6d6174653a2063616c6c6572206973206e6f7420746865207061757360448201527f657200000000000000000000000000000000000000000000000000000000000060648201526084016107b0565b611dfc6111af565b15611e63576040517f08c379a000000000000000000000000000000000000000000000000000000000815260206004820152601060248201527f4175746f6d6174653a207061757365640000000000000000000000000000000060448201526064016107b0565b600180547fffffffffffffffffffffff00ffffffffffffffffffffffffffffffffffffffff1674010000000000000000000000000000000000000000179055565b600654611f33576040517f08c379a000000000000000000000000000000000000000000000000000000000815260206004820152602c60248201527f52657374616b653a3a746f6b656e4465706f73697465643a20746f6b656e206e60448201527f6f74206465706f7369746564000000000000000000000000000000000000000060648201526084016107b0565b6003546006546040517f6352211e0000000000000000000000000000000000000000000000000000000081523092610100900473ffffffffffffffffffffffffffffffffffffffff1691636352211e91611f94919060040190815260200190565b60206040518083038186803b158015611fac57600080fd5b505afa158015611fc0573d6000803e3d6000fd5b505050506040513d601f19601f82011682018060405250810190611fe49190614f68565b73ffffffffffffffffffffffffffffffffffffffff1614612087576040517f08c379a000000000000000000000000000000000000000000000000000000000815260206004820152602760248201527f52657374616b653a3a746f6b656e4465706f73697465643a20746f6b656e207260448201527f6566756e6465640000000000000000000000000000000000000000000000000060648201526084016107b0565b816040518060400160405280601881526020017f556e6973776170563352657374616b6553746f704c6f737300000000000000008152506120c88282613d28565b506006546003546040517f99fbab880000000000000000000000000000000000000000000000000000000081526004810183905261010090910473ffffffffffffffffffffffffffffffffffffffff16906000908190819084906399fbab88906024016101806040518083038186803b15801561214457600080fd5b505afa158015612158573d6000803e3d6000fd5b505050506040513d601f19601f8201168201806040525081019061217c919061533b565b5050505097505050509450945050506000816fffffffffffffffffffffffffffffffff161161222d576040517f08c379a000000000000000000000000000000000000000000000000000000000815260206004820152602a60248201527f52657374616b653a3a72756e53746f704c6f73733a20746f6b656e20616c726560448201527f61647920636c6f7365640000000000000000000000000000000000000000000060648201526084016107b0565b6040805160a0810182528681526fffffffffffffffffffffffffffffffff83811660208301908152600083850181815260608501918252608085018e815295517f0c49ccbe00000000000000000000000000000000000000000000000000000000815294516004860152915190921660248401525160448301525160648201529051608482015273ffffffffffffffffffffffffffffffffffffffff851690630c49ccbe9060a4016040805180830381600087803b1580156122ee57600080fd5b505af1158015612302573d6000803e3d6000fd5b505050506040513d601f19601f8201168201806040525081019061232691906152c7565b50506040805160808101825286815230602082019081526fffffffffffffffffffffffffffffffff8284018181526060840182815294517ffc6f786500000000000000000000000000000000000000000000000000000000815293516004850152915173ffffffffffffffffffffffffffffffffffffffff9081166024850152915181166044840152925190921660648201529085169063fc6f7865906084016040805180830381600087803b1580156123df57600080fd5b505af11580156123f3573d6000803e3d6000fd5b505050506040513d601f19601f8201168201806040525081019061241791906152c7565b5050604080516002808252606082018352600092602083019080368337019050509050838160008151811061244e5761244e61570b565b602002602001019073ffffffffffffffffffffffffffffffffffffffff16908173ffffffffffffffffffffffffffffffffffffffff1681525050828160018151811061249c5761249c61570b565b73ffffffffffffffffffffffffffffffffffffffff92831660209182029290920101526004546124d19160089116838c613ffa565b60088054600091906124e590600190615640565b815481106124f5576124f561570b565b60009182526020909120015473ffffffffffffffffffffffffffffffffffffffff1690506125f661253b60015473ffffffffffffffffffffffffffffffffffffffff1690565b6040517f70a0823100000000000000000000000000000000000000000000000000000000815230600482015273ffffffffffffffffffffffffffffffffffffffff8416906370a082319060240160206040518083038186803b1580156125a057600080fd5b505afa1580156125b4573d6000803e3d6000fd5b505050506040513d601f19601f820116820180604052508101906125d89190615244565b73ffffffffffffffffffffffffffffffffffffffff84169190613c4f565b5050505050505050505050565b6040517f6b880718000000000000000000000000000000000000000000000000000000008152306004820152600090737ecFCbdeb6f195030B9Bf2ECc402f6d5433d116D90636b8807189060240160206040518083038186803b15801561266957600080fd5b505af415801561267d573d6000803e3d6000fd5b505050506040513d601f19601f820116820180604052508101906126a19190614f68565b90503373ffffffffffffffffffffffffffffffffffffffff82163014612744578173ffffffffffffffffffffffffffffffffffffffff16638da5cb5b6040518163ffffffff1660e01b815260040160206040518083038186803b15801561270757600080fd5b505afa15801561271b573d6000803e3d6000fd5b505050506040513d601f19601f8201168201806040525081019061273f9190614f68565b61275e565b60015473ffffffffffffffffffffffffffffffffffffffff165b73ffffffffffffffffffffffffffffffffffffffff1614612801576040517f08c379a000000000000000000000000000000000000000000000000000000000815260206004820152603d60248201527f4175746f6d6174653a3a6368616e676550726f746f636f6c4665653a2063616c60448201527f6c6572206973206e6f74207468652070726f746f636f6c206f776e657200000060648201526084016107b0565b60028290556040518281527f3c1d43943224e49d951ce8295a5c8332b517083b3f89bed50feae2cb39caebb59060200160405180910390a15050565b6040517f6b8807180000000000000000000000000000000000000000000000000000000081523060048201526000908190737ecFCbdeb6f195030B9Bf2ECc402f6d5433d116D90636b8807189060240160206040518083038186803b1580156128a557600080fd5b505af41580156128b9573d6000803e3d6000fd5b505050506040513d601f19601f820116820180604052508101906128dd9190614f68565b905073ffffffffffffffffffffffffffffffffffffffff8116301480159061290757506000600254125b1561298a578073ffffffffffffffffffffffffffffffffffffffff1663b0e21e8a6040518163ffffffff1660e01b815260040160206040518083038186803b15801561295257600080fd5b505afa158015612966573d6000803e3d6000fd5b505050506040513d601f19601f820116820180604052508101906105619190615244565b6000612994610405565b9050600080600254126129a957600254612a66565b6040517fbd02d0f50000000000000000000000000000000000000000000000000000000081527fa93d95f96a5de25d7a41ddf1f5e8d45cfc929c4838163cf011dab4043a4a40d5600482015273ffffffffffffffffffffffffffffffffffffffff83169063bd02d0f59060240160206040518083038186803b158015612a2e57600080fd5b505afa158015612a42573d6000803e3d6000fd5b505050506040513d601f19601f82011682018060405250810190612a669190615244565b905080612a77576000935050505090565b6040517f21f8a7210000000000000000000000000000000000000000000000000000000081527f65c90423fe7c880476633a7e36521740f87199d233dc56eb4ca6643eb76f605f600482015260009073ffffffffffffffffffffffffffffffffffffffff8416906321f8a7219060240160206040518083038186803b158015612aff57600080fd5b505afa158015612b13573d6000803e3d6000fd5b505050506040513d601f19601f82011682018060405250810190612b379190614f68565b73ffffffffffffffffffffffffffffffffffffffff1663feaf968c6040518163ffffffff1660e01b815260040160a06040518083038186803b158015612b7c57600080fd5b505afa158015612b90573d6000803e3d6000fd5b505050506040513d601f19601f82011682018060405250810190612bb491906152eb565b50505091505060008113612c24576040517f08c379a000000000000000000000000000000000000000000000000000000000815260206004820152601760248201527f4175746f6d6174653a20696e76616c696420707269636500000000000000000060448201526064016107b0565b80612c3783670de0b6b3a7640000615603565b612c4191906155c8565b94505050505090565b60015473ffffffffffffffffffffffffffffffffffffffff163314612cf1576040517f08c379a000000000000000000000000000000000000000000000000000000000815260206004820152602160248201527f4175746f6d6174653a2063616c6c6572206973206e6f7420746865206f776e6560448201527f720000000000000000000000000000000000000000000000000000000000000060648201526084016107b0565b60065415612d81576040517f08c379a000000000000000000000000000000000000000000000000000000000815260206004820152602960248201527f52657374616b653a3a6465706f7369743a20746f6b656e20616c72656164792060448201527f6465706f7369746564000000000000000000000000000000000000000000000060648201526084016107b0565b60068190556003546040517f99fbab880000000000000000000000000000000000000000000000000000000081526004810183905261010090910473ffffffffffffffffffffffffffffffffffffffff16906000908190819084906399fbab88906024016101806040518083038186803b158015612dfe57600080fd5b505afa158015612e12573d6000803e3d6000fd5b505050506040513d601f19601f82011682018060405250810190612e36919061533b565b505050505050509450945094505050600073ffffffffffffffffffffffffffffffffffffffff168373ffffffffffffffffffffffffffffffffffffffff161415612f02576040517f08c379a000000000000000000000000000000000000000000000000000000000815260206004820152602860248201527f52657374616b653a3a6465706f7369743a20696e76616c696420746f6b656e3060448201527f206164647265737300000000000000000000000000000000000000000000000060648201526084016107b0565b73ffffffffffffffffffffffffffffffffffffffff8216612fa5576040517f08c379a000000000000000000000000000000000000000000000000000000000815260206004820152602860248201527f52657374616b653a3a6465706f7369743a20696e76616c696420746f6b656e3160448201527f206164647265737300000000000000000000000000000000000000000000000060648201526084016107b0565b60008473ffffffffffffffffffffffffffffffffffffffff1663c45a01556040518163ffffffff1660e01b8152600401602060405180830381600087803b158015612fef57600080fd5b505af1158015613003573d6000803e3d6000fd5b505050506040513d601f19601f820116820180604052508101906130279190614f68565b6040517f1698ee8200000000000000000000000000000000000000000000000000000000815273ffffffffffffffffffffffffffffffffffffffff8681166004830152858116602483015262ffffff851660448301529190911690631698ee8290606401602060405180830381600087803b1580156130a557600080fd5b505af11580156130b9573d6000803e3d6000fd5b505050506040513d601f19601f820116820180604052508101906130dd9190614f68565b60055490915073ffffffffffffffffffffffffffffffffffffffff80831691161461318a576040517f08c379a000000000000000000000000000000000000000000000000000000000815260206004820152602660248201527f52657374616b653a3a6465706f7369743a20696e76616c696420706f6f6c206160448201527f646472657373000000000000000000000000000000000000000000000000000060648201526084016107b0565b6006546040517f42842e0e000000000000000000000000000000000000000000000000000000008152336004820152306024820152604481019190915273ffffffffffffffffffffffffffffffffffffffff8616906342842e0e90606401600060405180830381600087803b15801561320257600080fd5b505af1158015613216573d6000803e3d6000fd5b50506006546040517f095ea7b3000000000000000000000000000000000000000000000000000000008152336004820152602481019190915273ffffffffffffffffffffffffffffffffffffffff8816925063095ea7b39150604401600060405180830381600087803b15801561328c57600080fd5b505af11580156132a0573d6000803e3d6000fd5b505050507f4d6ce1e535dbade1c23defba91e23b8f791ce5edc0cc320257a2b364e4e38426866040516132d591815260200190565b60405180910390a1505050505050565b60015473ffffffffffffffffffffffffffffffffffffffff1661335557600180547fffffffffffffffffffffffff000000000000000000000000000000000000000016321790557fffffffffffffffffffffffffffffffffffffffffffffffffffffffffffffffff6002556133fc565b60015473ffffffffffffffffffffffffffffffffffffffff1633146133fc576040517f08c379a000000000000000000000000000000000000000000000000000000000815260206004820152602160248201527f4175746f6d6174653a2063616c6c6572206973206e6f7420746865206f776e6560448201527f720000000000000000000000000000000000000000000000000000000000000060648201526084016107b0565b60035460ff16158061342d575060035473ffffffffffffffffffffffffffffffffffffffff85811661010090920416145b6134b9576040517f08c379a000000000000000000000000000000000000000000000000000000000815260206004820152603e60248201527f52657374616b653a3a696e69743a207265696e697469616c697a6520706f736960448201527f74696f6e206d616e61676572206164647265737320666f7262696464656e000060648201526084016107b0565b6003805473ffffffffffffffffffffffffffffffffffffffff8616610100027fffffffffffffffffffffff0000000000000000000000000000000000000000ff8216811790925560ff918216911617158061352e575060045473ffffffffffffffffffffffffffffffffffffffff8481169116145b6135ba576040517f08c379a000000000000000000000000000000000000000000000000000000000815260206004820152603e60248201527f52657374616b653a3a696e69743a207265696e697469616c697a65206c69717560448201527f696469747920726f75746572206164647265737320666f7262696464656e000060648201526084016107b0565b600480547fffffffffffffffffffffffff00000000000000000000000000000000000000001673ffffffffffffffffffffffffffffffffffffffff851617905560035460ff161580613626575060055473ffffffffffffffffffffffffffffffffffffffff8381169116145b6136b2576040517f08c379a000000000000000000000000000000000000000000000000000000000815260206004820152603260248201527f52657374616b653a3a696e69743a207265696e697469616c697a6520706f6f6c60448201527f206164647265737320666f7262696464656e000000000000000000000000000060648201526084016107b0565b600580547fffffffffffffffffffffffff00000000000000000000000000000000000000001673ffffffffffffffffffffffffffffffffffffffff9390931692909217909155600780547fffffffffffffffffffffffffffffffffffffffffffffffffffffffffffff00001661ffff9092169190911790555050600380547fffffffffffffffffffffffffffffffffffffffffffffffffffffffffffffff00166001179055565b60015473ffffffffffffffffffffffffffffffffffffffff163314613800576040517f08c379a000000000000000000000000000000000000000000000000000000000815260206004820152602160248201527f4175746f6d6174653a2063616c6c6572206973206e6f7420746865206f776e6560448201527f720000000000000000000000000000000000000000000000000000000000000060648201526084016107b0565b6040517fa9059cbb00000000000000000000000000000000000000000000000000000000815273ffffffffffffffffffffffffffffffffffffffff83811660048301526024820183905284169063a9059cbb90604401602060405180830381600087803b15801561387057600080fd5b505af1158015613884573d6000803e3d6000fd5b505050506040513d601f19601f820116820180604052508101906138a891906151d4565b50505050565b60015473ffffffffffffffffffffffffffffffffffffffff163314613955576040517f08c379a000000000000000000000000000000000000000000000000000000000815260206004820152602160248201527f4175746f6d6174653a2063616c6c6572206973206e6f7420746865206f776e6560448201527f720000000000000000000000000000000000000000000000000000000000000060648201526084016107b0565b6040517f6b880718000000000000000000000000000000000000000000000000000000008152306004820181905290737ecFCbdeb6f195030B9Bf2ECc402f6d5433d116D90636b8807189060240160206040518083038186803b1580156139bb57600080fd5b505af41580156139cf573d6000803e3d6000fd5b505050506040513d601f19601f820116820180604052508101906139f39190614f68565b73ffffffffffffffffffffffffffffffffffffffff1614613a96576040517f08c379a000000000000000000000000000000000000000000000000000000000815260206004820152602160248201527f4175746f6d6174653a206368616e676520746865206f776e6572206661696c6560448201527f640000000000000000000000000000000000000000000000000000000000000060648201526084016107b0565b6001805473ffffffffffffffffffffffffffffffffffffffff8381167fffffffffffffffffffffffff0000000000000000000000000000000000000000831681179093556040519116919082907f8be0079c531659141344cd1fd0a4f28419497f9722a3daafe3b4186f6b6457e090600090a35050565b60015473ffffffffffffffffffffffffffffffffffffffff163314613bb4576040517f08c379a000000000000000000000000000000000000000000000000000000000815260206004820152602160248201527f4175746f6d6174653a2063616c6c6572206973206e6f7420746865206f776e6560448201527f720000000000000000000000000000000000000000000000000000000000000060648201526084016107b0565b60405180608001604052808581526020018462ffffff1681526020018381526020018281525060086000820151816000019080519060200190613bf8929190614e36565b5060208201516001820180547fffffffffffffffffffffffffffffffffffffffffffffffffffffffffff0000001662ffffff9092169190911790556040820151600282015560609091015160039091015550505050565b60405173ffffffffffffffffffffffffffffffffffffffff8316602482015260448101829052613d239084907fa9059cbb00000000000000000000000000000000000000000000000000000000906064015b604080517fffffffffffffffffffffffffffffffffffffffffffffffffffffffffffffffe08184030181529190526020810180517bffffffffffffffffffffffffffffffffffffffffffffffffffffffff167fffffffff00000000000000000000000000000000000000000000000000000000909316929092179091526149ad565b505050565b6000613d326111af565b15613d99576040517f08c379a000000000000000000000000000000000000000000000000000000000815260206004820152601060248201527f4175746f6d6174653a207061757365640000000000000000000000000000000060448201526064016107b0565b6000613dba60015473ffffffffffffffffffffffffffffffffffffffff1690565b90503273ffffffffffffffffffffffffffffffffffffffff82161415613de4576000915050613ff4565b6000613dee610405565b6040517f21f8a7210000000000000000000000000000000000000000000000000000000081527fe78c16c6d839536d3155985aab4e9c6013c8c3d446054bcebc48612f359d81f5600482015290915060009073ffffffffffffffffffffffffffffffffffffffff8316906321f8a7219060240160206040518083038186803b158015613e7957600080fd5b505afa158015613e8d573d6000803e3d6000fd5b505050506040513d601f19601f82011682018060405250810190613eb19190614f68565b905073ffffffffffffffffffffffffffffffffffffffff8116613f56576040517f08c379a000000000000000000000000000000000000000000000000000000000815260206004820152602b60248201527f4175746f6d6174653a3a5f62696c6c3a2062616c616e636520636f6e7472616360448201527f74206e6f7420666f756e6400000000000000000000000000000000000000000060648201526084016107b0565b8073ffffffffffffffffffffffffffffffffffffffff1663e578a2258488613f7c61283d565b896040518563ffffffff1660e01b8152600401613f9c94939291906154b1565b602060405180830381600087803b158015613fb657600080fd5b505af1158015613fca573d6000803e3d6000fd5b505050506040513d601f19601f82011682018060405250810190613fee9190615244565b93505050505b92915050565b8354600110801561400f575060008460020154115b61409b576040517f08c379a000000000000000000000000000000000000000000000000000000000815260206004820152602160248201527f53746f704c6f73733a3a72756e3a2073746f70206c6f73732064697361626c6560448201527f640000000000000000000000000000000000000000000000000000000000000060648201526084016107b0565b61010082511115614108576040517f08c379a000000000000000000000000000000000000000000000000000000000815260206004820152601e60248201527f53746f704c6f73733a3a72756e3a20746f6f206d616e7920746f6b656e73000060448201526064016107b0565b60005b82518160ff1610156143fc576000838260ff168151811061412e5761412e61570b565b602002602001015190508560000160008154811061414e5761414e61570b565b60009182526020909120015473ffffffffffffffffffffffffffffffffffffffff8281169116141561418057506143ea565b6040517f70a0823100000000000000000000000000000000000000000000000000000000815230600482015260009073ffffffffffffffffffffffffffffffffffffffff8316906370a082319060240160206040518083038186803b1580156141e857600080fd5b505afa1580156141fc573d6000803e3d6000fd5b505050506040513d601f19601f820116820180604052508101906142209190615244565b90508061422e5750506143ea565b61424f73ffffffffffffffffffffffffffffffffffffffff83168783614ab9565b8573ffffffffffffffffffffffffffffffffffffffff1663c04b8d596040518060a00160405280858b60010160009054906101000a900462ffffff168c6000016000815481106142a1576142a161570b565b6000918252602091829020015460405161433794939273ffffffffffffffffffffffffffffffffffffffff9092169101606093841b7fffffffffffffffffffffffffffffffffffffffff000000000000000000000000908116825260e89390931b7fffffff0000000000000000000000000000000000000000000000000000000000166014820152921b166017820152602b0190565b60405160208183030381529060405281526020013073ffffffffffffffffffffffffffffffffffffffff16815260200187815260200184815260200160008152506040518263ffffffff1660e01b81526004016143949190615562565b602060405180830381600087803b1580156143ae57600080fd5b505af11580156143c2573d6000803e3d6000fd5b505050506040513d601f19601f820116820180604052508101906143e69190615244565b5050505b806143f4816156bc565b91505061410b565b506000846000016000815481106144155761441561570b565b60009182526020822001546040517f70a0823100000000000000000000000000000000000000000000000000000000815230600482015273ffffffffffffffffffffffffffffffffffffffff909116925082906370a082319060240160206040518083038186803b15801561448957600080fd5b505afa15801561449d573d6000803e3d6000fd5b505050506040513d601f19601f820116820180604052508101906144c19190615244565b865490915060009087906144d790600190615640565b815481106144e7576144e761570b565b60009182526020909120015473ffffffffffffffffffffffffffffffffffffffff8481169116146148e757600082116145a2576040517f08c379a000000000000000000000000000000000000000000000000000000000815260206004820152603160248201527f53746f704c6f73733a3a72756e3a20696e73756666696369656e742062616c6160448201527f6e6365206f66206261736520746f6b656e00000000000000000000000000000060648201526084016107b0565b6145c373ffffffffffffffffffffffffffffffffffffffff84168784614ab9565b6000876000016000815481106145db576145db61570b565b600091825260209182902001546040516146399273ffffffffffffffffffffffffffffffffffffffff909216910160609190911b7fffffffffffffffffffffffffffffffffffffffff00000000000000000000000016815260140190565b604080517fffffffffffffffffffffffffffffffffffffffffffffffffffffffffffffffe0818403018152919052905060015b885481101561477f5760018901548954839162ffffff16908b90849081106146965761469661570b565b6000918252602091829020015460405161471f939273ffffffffffffffffffffffffffffffffffffffff909216910160e89290921b7fffffff000000000000000000000000000000000000000000000000000000000016825260601b7fffffffffffffffffffffffffffffffffffffffff00000000000000000000000016600382015260170190565b604080517fffffffffffffffffffffffffffffffffffffffffffffffffffffffffffffffe08184030181529082905261475b9291602001615482565b6040516020818303038152906040529150808061477790615683565b91505061466c565b506040805160a0810182528281523060208201528082018790526060810185905260038a0154608082015290517fc04b8d5900000000000000000000000000000000000000000000000000000000815273ffffffffffffffffffffffffffffffffffffffff89169163c04b8d59916147fa9190600401615562565b602060405180830381600087803b15801561481457600080fd5b505af1158015614828573d6000803e3d6000fd5b505050506040513d601f19601f8201168201806040525081019061484c9190615244565b915087600201548211156148e1576040517f08c379a0000000000000000000000000000000000000000000000000000000008152602060048201526024808201527f53746f704c6f73733a3a72756e3a20696e76616c6964206f757470757420616d60448201527f6f756e740000000000000000000000000000000000000000000000000000000060648201526084016107b0565b5061497d565b819050866002015481111561497d576040517f08c379a0000000000000000000000000000000000000000000000000000000008152602060048201526024808201527f53746f704c6f73733a3a72756e3a20696e76616c6964206f757470757420616d60448201527f6f756e740000000000000000000000000000000000000000000000000000000060648201526084016107b0565b6040518181527ff22ed879bd57fced893edba2366c8143c0d7c2e585eafd2521c2832159d557f190602001610ec9565b6000614a0f826040518060400160405280602081526020017f5361666545524332303a206c6f772d6c6576656c2063616c6c206661696c65648152508573ffffffffffffffffffffffffffffffffffffffff16614c4a9092919063ffffffff16565b805190915015613d235780806020019051810190614a2d91906151d4565b613d23576040517f08c379a000000000000000000000000000000000000000000000000000000000815260206004820152602a60248201527f5361666545524332303a204552433230206f7065726174696f6e20646964206e60448201527f6f7420737563636565640000000000000000000000000000000000000000000060648201526084016107b0565b801580614b6857506040517fdd62ed3e00000000000000000000000000000000000000000000000000000000815230600482015273ffffffffffffffffffffffffffffffffffffffff838116602483015284169063dd62ed3e9060440160206040518083038186803b158015614b2e57600080fd5b505afa158015614b42573d6000803e3d6000fd5b505050506040513d601f19601f82011682018060405250810190614b669190615244565b155b614bf4576040517f08c379a000000000000000000000000000000000000000000000000000000000815260206004820152603660248201527f5361666545524332303a20617070726f76652066726f6d206e6f6e2d7a65726f60448201527f20746f206e6f6e2d7a65726f20616c6c6f77616e63650000000000000000000060648201526084016107b0565b60405173ffffffffffffffffffffffffffffffffffffffff8316602482015260448101829052613d239084907f095ea7b30000000000000000000000000000000000000000000000000000000090606401613ca1565b6060614c598484600085614c63565b90505b9392505050565b606082471015614cf5576040517f08c379a000000000000000000000000000000000000000000000000000000000815260206004820152602660248201527f416464726573733a20696e73756666696369656e742062616c616e636520666f60448201527f722063616c6c000000000000000000000000000000000000000000000000000060648201526084016107b0565b843b614d5d576040517f08c379a000000000000000000000000000000000000000000000000000000000815260206004820152601d60248201527f416464726573733a2063616c6c20746f206e6f6e2d636f6e747261637400000060448201526064016107b0565b6000808673ffffffffffffffffffffffffffffffffffffffff168587604051614d869190615466565b60006040518083038185875af1925050503d8060008114614dc3576040519150601f19603f3d011682016040523d82523d6000602084013e614dc8565b606091505b5091509150614dd8828286614de3565b979650505050505050565b60608315614df2575081614c5c565b825115614e025782518084602001fd5b816040517f08c379a00000000000000000000000000000000000000000000000000000000081526004016107b091906154f6565b828054828255906000526020600020908101928215614eb0579160200282015b82811115614eb057825182547fffffffffffffffffffffffff00000000000000000000000000000000000000001673ffffffffffffffffffffffffffffffffffffffff909116178255602090920191600190910190614e56565b50614ebc929150614ec0565b5090565b5b80821115614ebc5760008155600101614ec1565b8035614ee081615769565b919050565b8051614ee081615769565b8051614ee08161578e565b80516fffffffffffffffffffffffffffffffff81168114614ee057600080fd5b8035614ee08161579d565b8051614ee08161579d565b805169ffffffffffffffffffff81168114614ee057600080fd5b600060208284031215614f5d57600080fd5b8135614c5c81615769565b600060208284031215614f7a57600080fd5b8151614c5c81615769565b60008060008060808587031215614f9b57600080fd5b8435614fa681615769565b93506020850135614fb681615769565b92506040850135614fc681615769565b9150606085013561ffff81168114614fdd57600080fd5b939692955090935050565b600080600060608486031215614ffd57600080fd5b833561500881615769565b9250602084013561501881615769565b929592945050506040919091013590565b60008060008060006080868803121561504157600080fd5b853561504c81615769565b9450602086013561505c81615769565b935060408601359250606086013567ffffffffffffffff8082111561508057600080fd5b818801915088601f83011261509457600080fd5b8135818111156150a357600080fd5b8960208285010111156150b557600080fd5b9699959850939650602001949392505050565b600080600080608085870312156150de57600080fd5b843567ffffffffffffffff808211156150f657600080fd5b818701915087601f83011261510a57600080fd5b813560208282111561511e5761511e61573a565b8160051b6040517fffffffffffffffffffffffffffffffffffffffffffffffffffffffffffffffe0603f830116810181811086821117156151615761516161573a565b604052838152828101945085830182870184018d101561518057600080fd5b600096505b848710156151aa5761519681614ed5565b865260019690960195948301948301615185565b5098506151ba9050898201614f1b565b979a97995050505060408601359560600135949350505050565b6000602082840312156151e657600080fd5b81518015158114614c5c57600080fd5b60006020828403121561520857600080fd5b5035919050565b60008060006060848603121561522457600080fd5b61522d84614efb565b925060208401519150604084015190509250925092565b60006020828403121561525657600080fd5b5051919050565b6000806000806080858703121561527357600080fd5b8435935060208501356152858161578e565b925060408501356152958161578e565b9396929550929360600135925050565b600080604083850312156152b857600080fd5b50508035926020909101359150565b600080604083850312156152da57600080fd5b505080516020909101519092909150565b600080600080600060a0868803121561530357600080fd5b61530c86614f31565b945060208601519350604086015192506060860151915061532f60808701614f31565b90509295509295909350565b6000806000806000806000806000806000806101808d8f03121561535e57600080fd5b8c516bffffffffffffffffffffffff8116811461537a57600080fd5b9b5061538860208e01614ee5565b9a5061539660408e01614ee5565b99506153a460608e01614ee5565b98506153b260808e01614f26565b97506153c060a08e01614ef0565b96506153ce60c08e01614ef0565b95506153dc60e08e01614efb565b94506101008d015193506101208d015192506153fb6101408e01614efb565b915061540a6101608e01614efb565b90509295989b509295989b509295989b565b60008151808452615434816020860160208601615657565b601f017fffffffffffffffffffffffffffffffffffffffffffffffffffffffffffffffe0169290920160200192915050565b60008251615478818460208701615657565b9190910192915050565b60008351615494818460208801615657565b8351908301906154a8818360208801615657565b01949350505050565b73ffffffffffffffffffffffffffffffffffffffff851681528360208201528260408201526080606082015260006154ec608083018461541c565b9695505050505050565b602081526000614c5c602083018461541c565b8151815260208083015173ffffffffffffffffffffffffffffffffffffffff16908201526040808301516fffffffffffffffffffffffffffffffff90811691830191909152606092830151169181019190915260800190565b602081526000825160a0602084015261557e60c084018261541c565b905073ffffffffffffffffffffffffffffffffffffffff60208501511660408401526040840151606084015260608401516080840152608084015160a08401528091505092915050565b6000826155fe577f4e487b7100000000000000000000000000000000000000000000000000000000600052601260045260246000fd5b500490565b6000817fffffffffffffffffffffffffffffffffffffffffffffffffffffffffffffffff048311821515161561563b5761563b6156dc565b500290565b600082821015615652576156526156dc565b500390565b60005b8381101561567257818101518382015260200161565a565b838111156138a85750506000910152565b60007fffffffffffffffffffffffffffffffffffffffffffffffffffffffffffffffff8214156156b5576156b56156dc565b5060010190565b600060ff821660ff8114156156d3576156d36156dc565b60010192915050565b7f4e487b7100000000000000000000000000000000000000000000000000000000600052601160045260246000fd5b7f4e487b7100000000000000000000000000000000000000000000000000000000600052603260045260246000fd5b7f4e487b7100000000000000000000000000000000000000000000000000000000600052604160045260246000fd5b73ffffffffffffffffffffffffffffffffffffffff8116811461578b57600080fd5b50565b8060020b811461578b57600080fd5b62ffffff8116811461578b57600080fdfea164736f6c6343000806000a",
  "deployedBytecode": "0x608060405234801561001057600080fd5b506004361061018d5760003560e01c80637357f5d2116100e3578063b0e21e8a1161008c578063beabacc811610066578063beabacc8146103cc578063f2fde38b146103df578063f7d5e2d8146103f257600080fd5b8063b0e21e8a1461039e578063b6b55f25146103a6578063bc68d6b0146103b957600080fd5b80638da5cb5b116100bd5780638da5cb5b1461035a5780639327d80a146103785780639742b5c31461038b57600080fd5b80637357f5d21461031a578063791b98bc1461032d5780638456cb591461035257600080fd5b8063370158ea11610145578063590e1ae31161011f578063590e1ae3146102e75780635b848627146102ef5780635c975abb1461030257600080fd5b8063370158ea1461029d5780633f4ba83a146102a5578063527a1565146102af57600080fd5b806317d70f7c1161017657806317d70f7c14610245578063247029441461025c57806329dcb0cf1461027c57600080fd5b8063150b7a021461019257806316f0115b14610200575b600080fd5b6101ca6101a0366004615029565b7f150b7a023d4804d13e8c85fb27262cb750cf6ba9f9dd3bb30d90f482ceeb4b1f95945050505050565b6040517fffffffff0000000000000000000000000000000000000000000000000000000090911681526020015b60405180910390f35b6005546102209073ffffffffffffffffffffffffffffffffffffffff1681565b60405173ffffffffffffffffffffffffffffffffffffffff90911681526020016101f7565b61024e60065481565b6040519081526020016101f7565b6004546102209073ffffffffffffffffffffffffffffffffffffffff1681565b60075461028a9061ffff1681565b60405161ffff90911681526020016101f7565b610220610405565b6102ad610567565b005b600954600a54600b546102c69262ffffff16919083565b6040805162ffffff90941684526020840192909252908201526060016101f7565b6102ad6108fe565b6102ad6102fd36600461525d565b610eda565b61030a6111af565b60405190151581526020016101f7565b6102ad6103283660046152a5565b611334565b60035461022090610100900473ffffffffffffffffffffffffffffffffffffffff1681565b6102ad611afa565b60015473ffffffffffffffffffffffffffffffffffffffff16610220565b6102ad6103863660046152a5565b611ea4565b6102ad6103993660046151f6565b612603565b61024e61283d565b6102ad6103b43660046151f6565b612c4a565b6102ad6103c7366004614f85565b6132e5565b6102ad6103da366004614fe8565b613759565b6102ad6103ed366004614f4b565b6138ae565b6102ad6104003660046150c8565b613b0d565b6040517f6b880718000000000000000000000000000000000000000000000000000000008152306004820152600090819073__$0fb85c1a108326fe5c0d8f2f5a241bc0e7$__90636b8807189060240160206040518083038186803b15801561046d57600080fd5b505af4158015610481573d6000803e3d6000fd5b505050506040513d601f19601f820116820180604052508101906104a59190614f68565b905073ffffffffffffffffffffffffffffffffffffffff81163014156104e357505060005473ffffffffffffffffffffffffffffffffffffffff1690565b8073ffffffffffffffffffffffffffffffffffffffff1663370158ea6040518163ffffffff1660e01b815260040160206040518083038186803b15801561052957600080fd5b505afa15801561053d573d6000803e3d6000fd5b505050506040513d601f19601f820116820180604052508101906105619190614f68565b91505090565b6040517f6b88071800000000000000000000000000000000000000000000000000000000815230600482018190529073__$0fb85c1a108326fe5c0d8f2f5a241bc0e7$__90636b8807189060240160206040518083038186803b1580156105cd57600080fd5b505af41580156105e1573d6000803e3d6000fd5b505050506040513d601f19601f820116820180604052508101906106059190614f68565b73ffffffffffffffffffffffffffffffffffffffff1614156107bf57600061062b610405565b6040517f21f8a7210000000000000000000000000000000000000000000000000000000081527f689d13d8ed8ef1027633ba26e7121121cf427434450a529548f19bf175974395600482015273ffffffffffffffffffffffffffffffffffffffff91909116906321f8a7219060240160206040518083038186803b1580156106b257600080fd5b505afa1580156106c6573d6000803e3d6000fd5b505050506040513d601f19601f820116820180604052508101906106ea9190614f68565b60015490915073ffffffffffffffffffffffffffffffffffffffff1633148061072857503373ffffffffffffffffffffffffffffffffffffffff8216145b6107b9576040517f08c379a000000000000000000000000000000000000000000000000000000000815260206004820152602260248201527f4175746f6d6174653a2063616c6c6572206973206e6f7420746865207061757360448201527f657200000000000000000000000000000000000000000000000000000000000060648201526084015b60405180910390fd5b50610866565b60015473ffffffffffffffffffffffffffffffffffffffff163314610866576040517f08c379a000000000000000000000000000000000000000000000000000000000815260206004820152602260248201527f4175746f6d6174653a2063616c6c6572206973206e6f7420746865207061757360448201527f657200000000000000000000000000000000000000000000000000000000000060648201526084016107b0565b61086e6111af565b6108d4576040517f08c379a000000000000000000000000000000000000000000000000000000000815260206004820152601460248201527f4175746f6d6174653a206e6f742070617573656400000000000000000000000060448201526064016107b0565b600180547fffffffffffffffffffffff00ffffffffffffffffffffffffffffffffffffffff169055565b60015473ffffffffffffffffffffffffffffffffffffffff1633146109a5576040517f08c379a000000000000000000000000000000000000000000000000000000000815260206004820152602160248201527f4175746f6d6174653a2063616c6c6572206973206e6f7420746865206f776e6560448201527f720000000000000000000000000000000000000000000000000000000000000060648201526084016107b0565b60065480610a35576040517f08c379a000000000000000000000000000000000000000000000000000000000815260206004820152602760248201527f52657374616b653a3a726566756e643a20746f6b656e20616c7265616479207260448201527f6566756e6465640000000000000000000000000000000000000000000000000060648201526084016107b0565b6000610a5660015473ffffffffffffffffffffffffffffffffffffffff1690565b6003546040517f42842e0e00000000000000000000000000000000000000000000000000000000815230600482015273ffffffffffffffffffffffffffffffffffffffff8084166024830152604482018690529293506101009091049091169081906342842e0e90606401600060405180830381600087803b158015610adb57600080fd5b505af1158015610aef573d6000803e3d6000fd5b50506040517f99fbab88000000000000000000000000000000000000000000000000000000008152600481018690526000925082915073ffffffffffffffffffffffffffffffffffffffff8416906399fbab88906024016101806040518083038186803b158015610b5f57600080fd5b505afa158015610b73573d6000803e3d6000fd5b505050506040513d601f19601f82011682018060405250810190610b97919061533b565b5050505050505050935093505050600073ffffffffffffffffffffffffffffffffffffffff168273ffffffffffffffffffffffffffffffffffffffff161415610c62576040517f08c379a000000000000000000000000000000000000000000000000000000000815260206004820152602760248201527f52657374616b653a3a726566756e643a20696e76616c696420746f6b656e302060448201527f616464726573730000000000000000000000000000000000000000000000000060648201526084016107b0565b73ffffffffffffffffffffffffffffffffffffffff8116610d05576040517f08c379a000000000000000000000000000000000000000000000000000000000815260206004820152602760248201527f52657374616b653a3a726566756e643a20696e76616c696420746f6b656e312060448201527f616464726573730000000000000000000000000000000000000000000000000060648201526084016107b0565b6040517f70a0823100000000000000000000000000000000000000000000000000000000815230600482015260009073ffffffffffffffffffffffffffffffffffffffff8416906370a082319060240160206040518083038186803b158015610d6d57600080fd5b505afa158015610d81573d6000803e3d6000fd5b505050506040513d601f19601f82011682018060405250810190610da59190615244565b6040517f70a0823100000000000000000000000000000000000000000000000000000000815230600482015290915060009073ffffffffffffffffffffffffffffffffffffffff8416906370a082319060240160206040518083038186803b158015610e1057600080fd5b505afa158015610e24573d6000803e3d6000fd5b505050506040513d601f19601f82011682018060405250810190610e489190615244565b90508115610e7157610e7173ffffffffffffffffffffffffffffffffffffffff85168784613c4f565b8015610e9857610e9873ffffffffffffffffffffffffffffffffffffffff84168783613c4f565b60006006556040518781527f2e1897b0591d764356194f7a795238a87c1987c7a877568e50d829d547c92b97906020015b60405180910390a150505050505050565b836040518060400160405280601981526020017f556e6973776170563352657374616b65526562616c616e636500000000000000815250610f1b8282613d28565b5060065480610fac576040517f08c379a000000000000000000000000000000000000000000000000000000000815260206004820152602a60248201527f52657374616b653a3a726562616c616e63653a20746f6b656e20616c7265616460448201527f7920726566756e6465640000000000000000000000000000000000000000000060648201526084016107b0565b6040805160a081018252600288810b825287810b60208301908152600354610100900473ffffffffffffffffffffffffffffffffffffffff908116848601908152600480548316606087019081526080870189815297517f7543f16a0000000000000000000000000000000000000000000000000000000081528751870b92810192909252935190940b6024850152518116604484015290511660648201529151608483015260a482018690529060009073__$e3a82572beb2321576194f1773b382d2bf$__90637543f16a9060c40160206040518083038186803b15801561109457600080fd5b505af41580156110a8573d6000803e3d6000fd5b505050506040513d601f19601f820116820180604052508101906110cc9190615244565b60035490915073ffffffffffffffffffffffffffffffffffffffff610100909104166342842e0e3061111360015473ffffffffffffffffffffffffffffffffffffffff1690565b6040517fffffffff0000000000000000000000000000000000000000000000000000000060e085901b16815273ffffffffffffffffffffffffffffffffffffffff92831660048201529116602482015260448101869052606401600060405180830381600087803b15801561118757600080fd5b505af115801561119b573d6000803e3d6000fd5b505050600691909155505050505050505050565b6040517f6b880718000000000000000000000000000000000000000000000000000000008152306004820152600090819073__$0fb85c1a108326fe5c0d8f2f5a241bc0e7$__90636b8807189060240160206040518083038186803b15801561121757600080fd5b505af415801561122b573d6000803e3d6000fd5b505050506040513d601f19601f8201168201806040525081019061124f9190614f68565b905073ffffffffffffffffffffffffffffffffffffffff811630141561129257505060015474010000000000000000000000000000000000000000900460ff1690565b60015474010000000000000000000000000000000000000000900460ff168061056157508073ffffffffffffffffffffffffffffffffffffffff16635c975abb6040518163ffffffff1660e01b815260040160206040518083038186803b1580156112fc57600080fd5b505afa158015611310573d6000803e3d6000fd5b505050506040513d601f19601f8201168201806040525081019061056191906151d4565b6006546113c3576040517f08c379a000000000000000000000000000000000000000000000000000000000815260206004820152602c60248201527f52657374616b653a3a746f6b656e4465706f73697465643a20746f6b656e206e60448201527f6f74206465706f7369746564000000000000000000000000000000000000000060648201526084016107b0565b6003546006546040517f6352211e0000000000000000000000000000000000000000000000000000000081523092610100900473ffffffffffffffffffffffffffffffffffffffff1691636352211e91611424919060040190815260200190565b60206040518083038186803b15801561143c57600080fd5b505afa158015611450573d6000803e3d6000fd5b505050506040513d601f19601f820116820180604052508101906114749190614f68565b73ffffffffffffffffffffffffffffffffffffffff1614611517576040517f08c379a000000000000000000000000000000000000000000000000000000000815260206004820152602760248201527f52657374616b653a3a746f6b656e4465706f73697465643a20746f6b656e207260448201527f6566756e6465640000000000000000000000000000000000000000000000000060648201526084016107b0565b816040518060400160405280601081526020017f556e6973776170563352657374616b65000000000000000000000000000000008152506115588282613d28565b506006546003546040517f99fbab880000000000000000000000000000000000000000000000000000000081526004810183905261010090910473ffffffffffffffffffffffffffffffffffffffff1690600090819083906399fbab88906024016101806040518083038186803b1580156115d257600080fd5b505afa1580156115e6573d6000803e3d6000fd5b505050506040513d601f19601f8201168201806040525081019061160a919061533b565b5050604080516080810182528f81523060208201526fffffffffffffffffffffffffffffffff818301819052606082015290517ffc6f7865000000000000000000000000000000000000000000000000000000008152989c50969a505073ffffffffffffffffffffffffffffffffffffffff8c16985063fc6f7865975061169a9660040194506155099350505050565b6040805180830381600087803b1580156116b357600080fd5b505af11580156116c7573d6000803e3d6000fd5b505050506040513d601f19601f820116820180604052508101906116eb91906152c7565b50506040517f70a0823100000000000000000000000000000000000000000000000000000000815230600482015260009073ffffffffffffffffffffffffffffffffffffffff8416906370a082319060240160206040518083038186803b15801561175557600080fd5b505afa158015611769573d6000803e3d6000fd5b505050506040513d601f19601f8201168201806040525081019061178d9190615244565b6040517f70a0823100000000000000000000000000000000000000000000000000000000815230600482015290915060009073ffffffffffffffffffffffffffffffffffffffff8416906370a082319060240160206040518083038186803b1580156117f857600080fd5b505afa15801561180c573d6000803e3d6000fd5b505050506040513d601f19601f820116820180604052508101906118309190615244565b905060008211806118415750600081115b6118a7576040517f08c379a000000000000000000000000000000000000000000000000000000000815260206004820152601760248201527f52657374616b653a3a72756e3a206e6f206561726e656400000000000000000060448201526064016107b0565b6040517f095ea7b300000000000000000000000000000000000000000000000000000000815273ffffffffffffffffffffffffffffffffffffffff86811660048301526024820184905285169063095ea7b390604401602060405180830381600087803b15801561191757600080fd5b505af115801561192b573d6000803e3d6000fd5b505050506040513d601f19601f8201168201806040525081019061194f91906151d4565b506040517f095ea7b300000000000000000000000000000000000000000000000000000000815273ffffffffffffffffffffffffffffffffffffffff86811660048301526024820183905284169063095ea7b390604401602060405180830381600087803b1580156119c057600080fd5b505af11580156119d4573d6000803e3d6000fd5b505050506040513d601f19601f820116820180604052508101906119f891906151d4565b506040805160c081018252878152602081018481528183018481526000606084018181526080850191825260a085018f815295517f219f5d1700000000000000000000000000000000000000000000000000000000815294516004860152925160248501529051604484015290516064830152516084820152905160a482015273ffffffffffffffffffffffffffffffffffffffff86169063219f5d179060c401606060405180830381600087803b158015611ab357600080fd5b505af1158015611ac7573d6000803e3d6000fd5b505050506040513d601f19601f82011682018060405250810190611aeb919061520f565b50505050505050505050505050565b6040517f6b88071800000000000000000000000000000000000000000000000000000000815230600482018190529073__$0fb85c1a108326fe5c0d8f2f5a241bc0e7$__90636b8807189060240160206040518083038186803b158015611b6057600080fd5b505af4158015611b74573d6000803e3d6000fd5b505050506040513d601f19601f82011682018060405250810190611b989190614f68565b73ffffffffffffffffffffffffffffffffffffffff161415611d4d576000611bbe610405565b6040517f21f8a7210000000000000000000000000000000000000000000000000000000081527f689d13d8ed8ef1027633ba26e7121121cf427434450a529548f19bf175974395600482015273ffffffffffffffffffffffffffffffffffffffff91909116906321f8a7219060240160206040518083038186803b158015611c4557600080fd5b505afa158015611c59573d6000803e3d6000fd5b505050506040513d601f19601f82011682018060405250810190611c7d9190614f68565b60015490915073ffffffffffffffffffffffffffffffffffffffff16331480611cbb57503373ffffffffffffffffffffffffffffffffffffffff8216145b611d47576040517f08c379a000000000000000000000000000000000000000000000000000000000815260206004820152602260248201527f4175746f6d6174653a2063616c6c6572206973206e6f7420746865207061757360448201527f657200000000000000000000000000000000000000000000000000000000000060648201526084016107b0565b50611df4565b60015473ffffffffffffffffffffffffffffffffffffffff163314611df4576040517f08c379a000000000000000000000000000000000000000000000000000000000815260206004820152602260248201527f4175746f6d6174653a2063616c6c6572206973206e6f7420746865207061757360448201527f657200000000000000000000000000000000000000000000000000000000000060648201526084016107b0565b611dfc6111af565b15611e63576040517f08c379a000000000000000000000000000000000000000000000000000000000815260206004820152601060248201527f4175746f6d6174653a207061757365640000000000000000000000000000000060448201526064016107b0565b600180547fffffffffffffffffffffff00ffffffffffffffffffffffffffffffffffffffff1674010000000000000000000000000000000000000000179055565b600654611f33576040517f08c379a000000000000000000000000000000000000000000000000000000000815260206004820152602c60248201527f52657374616b653a3a746f6b656e4465706f73697465643a20746f6b656e206e60448201527f6f74206465706f7369746564000000000000000000000000000000000000000060648201526084016107b0565b6003546006546040517f6352211e0000000000000000000000000000000000000000000000000000000081523092610100900473ffffffffffffffffffffffffffffffffffffffff1691636352211e91611f94919060040190815260200190565b60206040518083038186803b158015611fac57600080fd5b505afa158015611fc0573d6000803e3d6000fd5b505050506040513d601f19601f82011682018060405250810190611fe49190614f68565b73ffffffffffffffffffffffffffffffffffffffff1614612087576040517f08c379a000000000000000000000000000000000000000000000000000000000815260206004820152602760248201527f52657374616b653a3a746f6b656e4465706f73697465643a20746f6b656e207260448201527f6566756e6465640000000000000000000000000000000000000000000000000060648201526084016107b0565b816040518060400160405280601881526020017f556e6973776170563352657374616b6553746f704c6f737300000000000000008152506120c88282613d28565b506006546003546040517f99fbab880000000000000000000000000000000000000000000000000000000081526004810183905261010090910473ffffffffffffffffffffffffffffffffffffffff16906000908190819084906399fbab88906024016101806040518083038186803b15801561214457600080fd5b505afa158015612158573d6000803e3d6000fd5b505050506040513d601f19601f8201168201806040525081019061217c919061533b565b5050505097505050509450945050506000816fffffffffffffffffffffffffffffffff161161222d576040517f08c379a000000000000000000000000000000000000000000000000000000000815260206004820152602a60248201527f52657374616b653a3a72756e53746f704c6f73733a20746f6b656e20616c726560448201527f61647920636c6f7365640000000000000000000000000000000000000000000060648201526084016107b0565b6040805160a0810182528681526fffffffffffffffffffffffffffffffff83811660208301908152600083850181815260608501918252608085018e815295517f0c49ccbe00000000000000000000000000000000000000000000000000000000815294516004860152915190921660248401525160448301525160648201529051608482015273ffffffffffffffffffffffffffffffffffffffff851690630c49ccbe9060a4016040805180830381600087803b1580156122ee57600080fd5b505af1158015612302573d6000803e3d6000fd5b505050506040513d601f19601f8201168201806040525081019061232691906152c7565b50506040805160808101825286815230602082019081526fffffffffffffffffffffffffffffffff8284018181526060840182815294517ffc6f786500000000000000000000000000000000000000000000000000000000815293516004850152915173ffffffffffffffffffffffffffffffffffffffff9081166024850152915181166044840152925190921660648201529085169063fc6f7865906084016040805180830381600087803b1580156123df57600080fd5b505af11580156123f3573d6000803e3d6000fd5b505050506040513d601f19601f8201168201806040525081019061241791906152c7565b5050604080516002808252606082018352600092602083019080368337019050509050838160008151811061244e5761244e61570b565b602002602001019073ffffffffffffffffffffffffffffffffffffffff16908173ffffffffffffffffffffffffffffffffffffffff1681525050828160018151811061249c5761249c61570b565b73ffffffffffffffffffffffffffffffffffffffff92831660209182029290920101526004546124d19160089116838c613ffa565b60088054600091906124e590600190615640565b815481106124f5576124f561570b565b60009182526020909120015473ffffffffffffffffffffffffffffffffffffffff1690506125f661253b60015473ffffffffffffffffffffffffffffffffffffffff1690565b6040517f70a0823100000000000000000000000000000000000000000000000000000000815230600482015273ffffffffffffffffffffffffffffffffffffffff8416906370a082319060240160206040518083038186803b1580156125a057600080fd5b505afa1580156125b4573d6000803e3d6000fd5b505050506040513d601f19601f820116820180604052508101906125d89190615244565b73ffffffffffffffffffffffffffffffffffffffff84169190613c4f565b5050505050505050505050565b6040517f6b88071800000000000000000000000000000000000000000000000000000000815230600482015260009073__$0fb85c1a108326fe5c0d8f2f5a241bc0e7$__90636b8807189060240160206040518083038186803b15801561266957600080fd5b505af415801561267d573d6000803e3d6000fd5b505050506040513d601f19601f820116820180604052508101906126a19190614f68565b90503373ffffffffffffffffffffffffffffffffffffffff82163014612744578173ffffffffffffffffffffffffffffffffffffffff16638da5cb5b6040518163ffffffff1660e01b815260040160206040518083038186803b15801561270757600080fd5b505afa15801561271b573d6000803e3d6000fd5b505050506040513d601f19601f8201168201806040525081019061273f9190614f68565b61275e565b60015473ffffffffffffffffffffffffffffffffffffffff165b73ffffffffffffffffffffffffffffffffffffffff1614612801576040517f08c379a000000000000000000000000000000000000000000000000000000000815260206004820152603d60248201527f4175746f6d6174653a3a6368616e676550726f746f636f6c4665653a2063616c60448201527f6c6572206973206e6f74207468652070726f746f636f6c206f776e657200000060648201526084016107b0565b60028290556040518281527f3c1d43943224e49d951ce8295a5c8332b517083b3f89bed50feae2cb39caebb59060200160405180910390a15050565b6040517f6b880718000000000000000000000000000000000000000000000000000000008152306004820152600090819073__$0fb85c1a108326fe5c0d8f2f5a241bc0e7$__90636b8807189060240160206040518083038186803b1580156128a557600080fd5b505af41580156128b9573d6000803e3d6000fd5b505050506040513d601f19601f820116820180604052508101906128dd9190614f68565b905073ffffffffffffffffffffffffffffffffffffffff8116301480159061290757506000600254125b1561298a578073ffffffffffffffffffffffffffffffffffffffff1663b0e21e8a6040518163ffffffff1660e01b815260040160206040518083038186803b15801561295257600080fd5b505afa158015612966573d6000803e3d6000fd5b505050506040513d601f19601f820116820180604052508101906105619190615244565b6000612994610405565b9050600080600254126129a957600254612a66565b6040517fbd02d0f50000000000000000000000000000000000000000000000000000000081527fa93d95f96a5de25d7a41ddf1f5e8d45cfc929c4838163cf011dab4043a4a40d5600482015273ffffffffffffffffffffffffffffffffffffffff83169063bd02d0f59060240160206040518083038186803b158015612a2e57600080fd5b505afa158015612a42573d6000803e3d6000fd5b505050506040513d601f19601f82011682018060405250810190612a669190615244565b905080612a77576000935050505090565b6040517f21f8a7210000000000000000000000000000000000000000000000000000000081527f65c90423fe7c880476633a7e36521740f87199d233dc56eb4ca6643eb76f605f600482015260009073ffffffffffffffffffffffffffffffffffffffff8416906321f8a7219060240160206040518083038186803b158015612aff57600080fd5b505afa158015612b13573d6000803e3d6000fd5b505050506040513d601f19601f82011682018060405250810190612b379190614f68565b73ffffffffffffffffffffffffffffffffffffffff1663feaf968c6040518163ffffffff1660e01b815260040160a06040518083038186803b158015612b7c57600080fd5b505afa158015612b90573d6000803e3d6000fd5b505050506040513d601f19601f82011682018060405250810190612bb491906152eb565b50505091505060008113612c24576040517f08c379a000000000000000000000000000000000000000000000000000000000815260206004820152601760248201527f4175746f6d6174653a20696e76616c696420707269636500000000000000000060448201526064016107b0565b80612c3783670de0b6b3a7640000615603565b612c4191906155c8565b94505050505090565b60015473ffffffffffffffffffffffffffffffffffffffff163314612cf1576040517f08c379a000000000000000000000000000000000000000000000000000000000815260206004820152602160248201527f4175746f6d6174653a2063616c6c6572206973206e6f7420746865206f776e6560448201527f720000000000000000000000000000000000000000000000000000000000000060648201526084016107b0565b60065415612d81576040517f08c379a000000000000000000000000000000000000000000000000000000000815260206004820152602960248201527f52657374616b653a3a6465706f7369743a20746f6b656e20616c72656164792060448201527f6465706f7369746564000000000000000000000000000000000000000000000060648201526084016107b0565b60068190556003546040517f99fbab880000000000000000000000000000000000000000000000000000000081526004810183905261010090910473ffffffffffffffffffffffffffffffffffffffff16906000908190819084906399fbab88906024016101806040518083038186803b158015612dfe57600080fd5b505afa158015612e12573d6000803e3d6000fd5b505050506040513d601f19601f82011682018060405250810190612e36919061533b565b505050505050509450945094505050600073ffffffffffffffffffffffffffffffffffffffff168373ffffffffffffffffffffffffffffffffffffffff161415612f02576040517f08c379a000000000000000000000000000000000000000000000000000000000815260206004820152602860248201527f52657374616b653a3a6465706f7369743a20696e76616c696420746f6b656e3060448201527f206164647265737300000000000000000000000000000000000000000000000060648201526084016107b0565b73ffffffffffffffffffffffffffffffffffffffff8216612fa5576040517f08c379a000000000000000000000000000000000000000000000000000000000815260206004820152602860248201527f52657374616b653a3a6465706f7369743a20696e76616c696420746f6b656e3160448201527f206164647265737300000000000000000000000000000000000000000000000060648201526084016107b0565b60008473ffffffffffffffffffffffffffffffffffffffff1663c45a01556040518163ffffffff1660e01b8152600401602060405180830381600087803b158015612fef57600080fd5b505af1158015613003573d6000803e3d6000fd5b505050506040513d601f19601f820116820180604052508101906130279190614f68565b6040517f1698ee8200000000000000000000000000000000000000000000000000000000815273ffffffffffffffffffffffffffffffffffffffff8681166004830152858116602483015262ffffff851660448301529190911690631698ee8290606401602060405180830381600087803b1580156130a557600080fd5b505af11580156130b9573d6000803e3d6000fd5b505050506040513d601f19601f820116820180604052508101906130dd9190614f68565b60055490915073ffffffffffffffffffffffffffffffffffffffff80831691161461318a576040517f08c379a000000000000000000000000000000000000000000000000000000000815260206004820152602660248201527f52657374616b653a3a6465706f7369743a20696e76616c696420706f6f6c206160448201527f646472657373000000000000000000000000000000000000000000000000000060648201526084016107b0565b6006546040517f42842e0e000000000000000000000000000000000000000000000000000000008152336004820152306024820152604481019190915273ffffffffffffffffffffffffffffffffffffffff8616906342842e0e90606401600060405180830381600087803b15801561320257600080fd5b505af1158015613216573d6000803e3d6000fd5b50506006546040517f095ea7b3000000000000000000000000000000000000000000000000000000008152336004820152602481019190915273ffffffffffffffffffffffffffffffffffffffff8816925063095ea7b39150604401600060405180830381600087803b15801561328c57600080fd5b505af11580156132a0573d6000803e3d6000fd5b505050507f4d6ce1e535dbade1c23defba91e23b8f791ce5edc0cc320257a2b364e4e38426866040516132d591815260200190565b60405180910390a1505050505050565b60015473ffffffffffffffffffffffffffffffffffffffff1661335557600180547fffffffffffffffffffffffff000000000000000000000000000000000000000016321790557fffffffffffffffffffffffffffffffffffffffffffffffffffffffffffffffff6002556133fc565b60015473ffffffffffffffffffffffffffffffffffffffff1633146133fc576040517f08c379a000000000000000000000000000000000000000000000000000000000815260206004820152602160248201527f4175746f6d6174653a2063616c6c6572206973206e6f7420746865206f776e6560448201527f720000000000000000000000000000000000000000000000000000000000000060648201526084016107b0565b60035460ff16158061342d575060035473ffffffffffffffffffffffffffffffffffffffff85811661010090920416145b6134b9576040517f08c379a000000000000000000000000000000000000000000000000000000000815260206004820152603e60248201527f52657374616b653a3a696e69743a207265696e697469616c697a6520706f736960448201527f74696f6e206d616e61676572206164647265737320666f7262696464656e000060648201526084016107b0565b6003805473ffffffffffffffffffffffffffffffffffffffff8616610100027fffffffffffffffffffffff0000000000000000000000000000000000000000ff8216811790925560ff918216911617158061352e575060045473ffffffffffffffffffffffffffffffffffffffff8481169116145b6135ba576040517f08c379a000000000000000000000000000000000000000000000000000000000815260206004820152603e60248201527f52657374616b653a3a696e69743a207265696e697469616c697a65206c69717560448201527f696469747920726f75746572206164647265737320666f7262696464656e000060648201526084016107b0565b600480547fffffffffffffffffffffffff00000000000000000000000000000000000000001673ffffffffffffffffffffffffffffffffffffffff851617905560035460ff161580613626575060055473ffffffffffffffffffffffffffffffffffffffff8381169116145b6136b2576040517f08c379a000000000000000000000000000000000000000000000000000000000815260206004820152603260248201527f52657374616b653a3a696e69743a207265696e697469616c697a6520706f6f6c60448201527f206164647265737320666f7262696464656e000000000000000000000000000060648201526084016107b0565b600580547fffffffffffffffffffffffff00000000000000000000000000000000000000001673ffffffffffffffffffffffffffffffffffffffff9390931692909217909155600780547fffffffffffffffffffffffffffffffffffffffffffffffffffffffffffff00001661ffff9092169190911790555050600380547fffffffffffffffffffffffffffffffffffffffffffffffffffffffffffffff00166001179055565b60015473ffffffffffffffffffffffffffffffffffffffff163314613800576040517f08c379a000000000000000000000000000000000000000000000000000000000815260206004820152602160248201527f4175746f6d6174653a2063616c6c6572206973206e6f7420746865206f776e6560448201527f720000000000000000000000000000000000000000000000000000000000000060648201526084016107b0565b6040517fa9059cbb00000000000000000000000000000000000000000000000000000000815273ffffffffffffffffffffffffffffffffffffffff83811660048301526024820183905284169063a9059cbb90604401602060405180830381600087803b15801561387057600080fd5b505af1158015613884573d6000803e3d6000fd5b505050506040513d601f19601f820116820180604052508101906138a891906151d4565b50505050565b60015473ffffffffffffffffffffffffffffffffffffffff163314613955576040517f08c379a000000000000000000000000000000000000000000000000000000000815260206004820152602160248201527f4175746f6d6174653a2063616c6c6572206973206e6f7420746865206f776e6560448201527f720000000000000000000000000000000000000000000000000000000000000060648201526084016107b0565b6040517f6b88071800000000000000000000000000000000000000000000000000000000815230600482018190529073__$0fb85c1a108326fe5c0d8f2f5a241bc0e7$__90636b8807189060240160206040518083038186803b1580156139bb57600080fd5b505af41580156139cf573d6000803e3d6000fd5b505050506040513d601f19601f820116820180604052508101906139f39190614f68565b73ffffffffffffffffffffffffffffffffffffffff1614613a96576040517f08c379a000000000000000000000000000000000000000000000000000000000815260206004820152602160248201527f4175746f6d6174653a206368616e676520746865206f776e6572206661696c6560448201527f640000000000000000000000000000000000000000000000000000000000000060648201526084016107b0565b6001805473ffffffffffffffffffffffffffffffffffffffff8381167fffffffffffffffffffffffff0000000000000000000000000000000000000000831681179093556040519116919082907f8be0079c531659141344cd1fd0a4f28419497f9722a3daafe3b4186f6b6457e090600090a35050565b60015473ffffffffffffffffffffffffffffffffffffffff163314613bb4576040517f08c379a000000000000000000000000000000000000000000000000000000000815260206004820152602160248201527f4175746f6d6174653a2063616c6c6572206973206e6f7420746865206f776e6560448201527f720000000000000000000000000000000000000000000000000000000000000060648201526084016107b0565b60405180608001604052808581526020018462ffffff1681526020018381526020018281525060086000820151816000019080519060200190613bf8929190614e36565b5060208201516001820180547fffffffffffffffffffffffffffffffffffffffffffffffffffffffffff0000001662ffffff9092169190911790556040820151600282015560609091015160039091015550505050565b60405173ffffffffffffffffffffffffffffffffffffffff8316602482015260448101829052613d239084907fa9059cbb00000000000000000000000000000000000000000000000000000000906064015b604080517fffffffffffffffffffffffffffffffffffffffffffffffffffffffffffffffe08184030181529190526020810180517bffffffffffffffffffffffffffffffffffffffffffffffffffffffff167fffffffff00000000000000000000000000000000000000000000000000000000909316929092179091526149ad565b505050565b6000613d326111af565b15613d99576040517f08c379a000000000000000000000000000000000000000000000000000000000815260206004820152601060248201527f4175746f6d6174653a207061757365640000000000000000000000000000000060448201526064016107b0565b6000613dba60015473ffffffffffffffffffffffffffffffffffffffff1690565b90503273ffffffffffffffffffffffffffffffffffffffff82161415613de4576000915050613ff4565b6000613dee610405565b6040517f21f8a7210000000000000000000000000000000000000000000000000000000081527fe78c16c6d839536d3155985aab4e9c6013c8c3d446054bcebc48612f359d81f5600482015290915060009073ffffffffffffffffffffffffffffffffffffffff8316906321f8a7219060240160206040518083038186803b158015613e7957600080fd5b505afa158015613e8d573d6000803e3d6000fd5b505050506040513d601f19601f82011682018060405250810190613eb19190614f68565b905073ffffffffffffffffffffffffffffffffffffffff8116613f56576040517f08c379a000000000000000000000000000000000000000000000000000000000815260206004820152602b60248201527f4175746f6d6174653a3a5f62696c6c3a2062616c616e636520636f6e7472616360448201527f74206e6f7420666f756e6400000000000000000000000000000000000000000060648201526084016107b0565b8073ffffffffffffffffffffffffffffffffffffffff1663e578a2258488613f7c61283d565b896040518563ffffffff1660e01b8152600401613f9c94939291906154b1565b602060405180830381600087803b158015613fb657600080fd5b505af1158015613fca573d6000803e3d6000fd5b505050506040513d601f19601f82011682018060405250810190613fee9190615244565b93505050505b92915050565b8354600110801561400f575060008460020154115b61409b576040517f08c379a000000000000000000000000000000000000000000000000000000000815260206004820152602160248201527f53746f704c6f73733a3a72756e3a2073746f70206c6f73732064697361626c6560448201527f640000000000000000000000000000000000000000000000000000000000000060648201526084016107b0565b61010082511115614108576040517f08c379a000000000000000000000000000000000000000000000000000000000815260206004820152601e60248201527f53746f704c6f73733a3a72756e3a20746f6f206d616e7920746f6b656e73000060448201526064016107b0565b60005b82518160ff1610156143fc576000838260ff168151811061412e5761412e61570b565b602002602001015190508560000160008154811061414e5761414e61570b565b60009182526020909120015473ffffffffffffffffffffffffffffffffffffffff8281169116141561418057506143ea565b6040517f70a0823100000000000000000000000000000000000000000000000000000000815230600482015260009073ffffffffffffffffffffffffffffffffffffffff8316906370a082319060240160206040518083038186803b1580156141e857600080fd5b505afa1580156141fc573d6000803e3d6000fd5b505050506040513d601f19601f820116820180604052508101906142209190615244565b90508061422e5750506143ea565b61424f73ffffffffffffffffffffffffffffffffffffffff83168783614ab9565b8573ffffffffffffffffffffffffffffffffffffffff1663c04b8d596040518060a00160405280858b60010160009054906101000a900462ffffff168c6000016000815481106142a1576142a161570b565b6000918252602091829020015460405161433794939273ffffffffffffffffffffffffffffffffffffffff9092169101606093841b7fffffffffffffffffffffffffffffffffffffffff000000000000000000000000908116825260e89390931b7fffffff0000000000000000000000000000000000000000000000000000000000166014820152921b166017820152602b0190565b60405160208183030381529060405281526020013073ffffffffffffffffffffffffffffffffffffffff16815260200187815260200184815260200160008152506040518263ffffffff1660e01b81526004016143949190615562565b602060405180830381600087803b1580156143ae57600080fd5b505af11580156143c2573d6000803e3d6000fd5b505050506040513d601f19601f820116820180604052508101906143e69190615244565b5050505b806143f4816156bc565b91505061410b565b506000846000016000815481106144155761441561570b565b60009182526020822001546040517f70a0823100000000000000000000000000000000000000000000000000000000815230600482015273ffffffffffffffffffffffffffffffffffffffff909116925082906370a082319060240160206040518083038186803b15801561448957600080fd5b505afa15801561449d573d6000803e3d6000fd5b505050506040513d601f19601f820116820180604052508101906144c19190615244565b865490915060009087906144d790600190615640565b815481106144e7576144e761570b565b60009182526020909120015473ffffffffffffffffffffffffffffffffffffffff8481169116146148e757600082116145a2576040517f08c379a000000000000000000000000000000000000000000000000000000000815260206004820152603160248201527f53746f704c6f73733a3a72756e3a20696e73756666696369656e742062616c6160448201527f6e6365206f66206261736520746f6b656e00000000000000000000000000000060648201526084016107b0565b6145c373ffffffffffffffffffffffffffffffffffffffff84168784614ab9565b6000876000016000815481106145db576145db61570b565b600091825260209182902001546040516146399273ffffffffffffffffffffffffffffffffffffffff909216910160609190911b7fffffffffffffffffffffffffffffffffffffffff00000000000000000000000016815260140190565b604080517fffffffffffffffffffffffffffffffffffffffffffffffffffffffffffffffe0818403018152919052905060015b885481101561477f5760018901548954839162ffffff16908b90849081106146965761469661570b565b6000918252602091829020015460405161471f939273ffffffffffffffffffffffffffffffffffffffff909216910160e89290921b7fffffff000000000000000000000000000000000000000000000000000000000016825260601b7fffffffffffffffffffffffffffffffffffffffff00000000000000000000000016600382015260170190565b604080517fffffffffffffffffffffffffffffffffffffffffffffffffffffffffffffffe08184030181529082905261475b9291602001615482565b6040516020818303038152906040529150808061477790615683565b91505061466c565b506040805160a0810182528281523060208201528082018790526060810185905260038a0154608082015290517fc04b8d5900000000000000000000000000000000000000000000000000000000815273ffffffffffffffffffffffffffffffffffffffff89169163c04b8d59916147fa9190600401615562565b602060405180830381600087803b15801561481457600080fd5b505af1158015614828573d6000803e3d6000fd5b505050506040513d601f19601f8201168201806040525081019061484c9190615244565b915087600201548211156148e1576040517f08c379a0000000000000000000000000000000000000000000000000000000008152602060048201526024808201527f53746f704c6f73733a3a72756e3a20696e76616c6964206f757470757420616d60448201527f6f756e740000000000000000000000000000000000000000000000000000000060648201526084016107b0565b5061497d565b819050866002015481111561497d576040517f08c379a0000000000000000000000000000000000000000000000000000000008152602060048201526024808201527f53746f704c6f73733a3a72756e3a20696e76616c6964206f757470757420616d60448201527f6f756e740000000000000000000000000000000000000000000000000000000060648201526084016107b0565b6040518181527ff22ed879bd57fced893edba2366c8143c0d7c2e585eafd2521c2832159d557f190602001610ec9565b6000614a0f826040518060400160405280602081526020017f5361666545524332303a206c6f772d6c6576656c2063616c6c206661696c65648152508573ffffffffffffffffffffffffffffffffffffffff16614c4a9092919063ffffffff16565b805190915015613d235780806020019051810190614a2d91906151d4565b613d23576040517f08c379a000000000000000000000000000000000000000000000000000000000815260206004820152602a60248201527f5361666545524332303a204552433230206f7065726174696f6e20646964206e60448201527f6f7420737563636565640000000000000000000000000000000000000000000060648201526084016107b0565b801580614b6857506040517fdd62ed3e00000000000000000000000000000000000000000000000000000000815230600482015273ffffffffffffffffffffffffffffffffffffffff838116602483015284169063dd62ed3e9060440160206040518083038186803b158015614b2e57600080fd5b505afa158015614b42573d6000803e3d6000fd5b505050506040513d601f19601f82011682018060405250810190614b669190615244565b155b614bf4576040517f08c379a000000000000000000000000000000000000000000000000000000000815260206004820152603660248201527f5361666545524332303a20617070726f76652066726f6d206e6f6e2d7a65726f60448201527f20746f206e6f6e2d7a65726f20616c6c6f77616e63650000000000000000000060648201526084016107b0565b60405173ffffffffffffffffffffffffffffffffffffffff8316602482015260448101829052613d239084907f095ea7b30000000000000000000000000000000000000000000000000000000090606401613ca1565b6060614c598484600085614c63565b90505b9392505050565b606082471015614cf5576040517f08c379a000000000000000000000000000000000000000000000000000000000815260206004820152602660248201527f416464726573733a20696e73756666696369656e742062616c616e636520666f60448201527f722063616c6c000000000000000000000000000000000000000000000000000060648201526084016107b0565b843b614d5d576040517f08c379a000000000000000000000000000000000000000000000000000000000815260206004820152601d60248201527f416464726573733a2063616c6c20746f206e6f6e2d636f6e747261637400000060448201526064016107b0565b6000808673ffffffffffffffffffffffffffffffffffffffff168587604051614d869190615466565b60006040518083038185875af1925050503d8060008114614dc3576040519150601f19603f3d011682016040523d82523d6000602084013e614dc8565b606091505b5091509150614dd8828286614de3565b979650505050505050565b60608315614df2575081614c5c565b825115614e025782518084602001fd5b816040517f08c379a00000000000000000000000000000000000000000000000000000000081526004016107b091906154f6565b828054828255906000526020600020908101928215614eb0579160200282015b82811115614eb057825182547fffffffffffffffffffffffff00000000000000000000000000000000000000001673ffffffffffffffffffffffffffffffffffffffff909116178255602090920191600190910190614e56565b50614ebc929150614ec0565b5090565b5b80821115614ebc5760008155600101614ec1565b8035614ee081615769565b919050565b8051614ee081615769565b8051614ee08161578e565b80516fffffffffffffffffffffffffffffffff81168114614ee057600080fd5b8035614ee08161579d565b8051614ee08161579d565b805169ffffffffffffffffffff81168114614ee057600080fd5b600060208284031215614f5d57600080fd5b8135614c5c81615769565b600060208284031215614f7a57600080fd5b8151614c5c81615769565b60008060008060808587031215614f9b57600080fd5b8435614fa681615769565b93506020850135614fb681615769565b92506040850135614fc681615769565b9150606085013561ffff81168114614fdd57600080fd5b939692955090935050565b600080600060608486031215614ffd57600080fd5b833561500881615769565b9250602084013561501881615769565b929592945050506040919091013590565b60008060008060006080868803121561504157600080fd5b853561504c81615769565b9450602086013561505c81615769565b935060408601359250606086013567ffffffffffffffff8082111561508057600080fd5b818801915088601f83011261509457600080fd5b8135818111156150a357600080fd5b8960208285010111156150b557600080fd5b9699959850939650602001949392505050565b600080600080608085870312156150de57600080fd5b843567ffffffffffffffff808211156150f657600080fd5b818701915087601f83011261510a57600080fd5b813560208282111561511e5761511e61573a565b8160051b6040517fffffffffffffffffffffffffffffffffffffffffffffffffffffffffffffffe0603f830116810181811086821117156151615761516161573a565b604052838152828101945085830182870184018d101561518057600080fd5b600096505b848710156151aa5761519681614ed5565b865260019690960195948301948301615185565b5098506151ba9050898201614f1b565b979a97995050505060408601359560600135949350505050565b6000602082840312156151e657600080fd5b81518015158114614c5c57600080fd5b60006020828403121561520857600080fd5b5035919050565b60008060006060848603121561522457600080fd5b61522d84614efb565b925060208401519150604084015190509250925092565b60006020828403121561525657600080fd5b5051919050565b6000806000806080858703121561527357600080fd5b8435935060208501356152858161578e565b925060408501356152958161578e565b9396929550929360600135925050565b600080604083850312156152b857600080fd5b50508035926020909101359150565b600080604083850312156152da57600080fd5b505080516020909101519092909150565b600080600080600060a0868803121561530357600080fd5b61530c86614f31565b945060208601519350604086015192506060860151915061532f60808701614f31565b90509295509295909350565b6000806000806000806000806000806000806101808d8f03121561535e57600080fd5b8c516bffffffffffffffffffffffff8116811461537a57600080fd5b9b5061538860208e01614ee5565b9a5061539660408e01614ee5565b99506153a460608e01614ee5565b98506153b260808e01614f26565b97506153c060a08e01614ef0565b96506153ce60c08e01614ef0565b95506153dc60e08e01614efb565b94506101008d015193506101208d015192506153fb6101408e01614efb565b915061540a6101608e01614efb565b90509295989b509295989b509295989b565b60008151808452615434816020860160208601615657565b601f017fffffffffffffffffffffffffffffffffffffffffffffffffffffffffffffffe0169290920160200192915050565b60008251615478818460208701615657565b9190910192915050565b60008351615494818460208801615657565b8351908301906154a8818360208801615657565b01949350505050565b73ffffffffffffffffffffffffffffffffffffffff851681528360208201528260408201526080606082015260006154ec608083018461541c565b9695505050505050565b602081526000614c5c602083018461541c565b8151815260208083015173ffffffffffffffffffffffffffffffffffffffff16908201526040808301516fffffffffffffffffffffffffffffffff90811691830191909152606092830151169181019190915260800190565b602081526000825160a0602084015261557e60c084018261541c565b905073ffffffffffffffffffffffffffffffffffffffff60208501511660408401526040840151606084015260608401516080840152608084015160a08401528091505092915050565b6000826155fe577f4e487b7100000000000000000000000000000000000000000000000000000000600052601260045260246000fd5b500490565b6000817fffffffffffffffffffffffffffffffffffffffffffffffffffffffffffffffff048311821515161561563b5761563b6156dc565b500290565b600082821015615652576156526156dc565b500390565b60005b8381101561567257818101518382015260200161565a565b838111156138a85750506000910152565b60007fffffffffffffffffffffffffffffffffffffffffffffffffffffffffffffffff8214156156b5576156b56156dc565b5060010190565b600060ff821660ff8114156156d3576156d36156dc565b60010192915050565b7f4e487b7100000000000000000000000000000000000000000000000000000000600052601160045260246000fd5b7f4e487b7100000000000000000000000000000000000000000000000000000000600052603260045260246000fd5b7f4e487b7100000000000000000000000000000000000000000000000000000000600052604160045260246000fd5b73ffffffffffffffffffffffffffffffffffffffff8116811461578b57600080fd5b50565b8060020b811461578b57600080fd5b62ffffff8116811461578b57600080fdfea164736f6c6343000806000a",
  "libraries": {
    "ERC1167": "0x7ecFCbdeb6f195030B9Bf2ECc402f6d5433d116D",
    "Rebalance": "0x8586719c29A043C8305252de4DFfE94F43245590"
  },
  "devdoc": {
    "kind": "dev",
    "methods": {
      "changeProtocolFee(int256)": {
        "params": {
          "__protocolFee": "New protocol fee."
        }
      },
      "protocolFee()": {
        "returns": {
          "_0": "Current protocol fee."
        }
      },
      "transfer(address,address,uint256)": {
        "params": {
          "amount": "Transferred amount of tokens.",
          "recipient": "Token recipient address.",
          "token": "The address of the token to be transferred."
        }
      },
      "transferOwnership(address)": {
        "details": "Transfers ownership of the contract to a new account (`newOwner`). Can only be called by the current owner."
      }
    },
    "version": 1
  },
  "userdoc": {
    "kind": "user",
    "methods": {
      "changeProtocolFee(int256)": {
        "notice": "Change protocol fee."
      },
      "info()": {
        "notice": "Returns address of Storage contract."
      },
      "owner()": {
        "notice": "Returns the address of the current owner."
      },
      "pause()": {
        "notice": "Pause contract."
      },
      "paused()": {
        "notice": "Returns true if the contract is paused, and false otherwise."
      },
      "transfer(address,address,uint256)": {
        "notice": "Transfer ERC20 token to recipient."
      },
      "unpause()": {
        "notice": "Unpause contract."
      }
    },
    "version": 1
  },
  "storageLayout": {
    "storage": [
      {
        "astId": 1404,
        "contract": "contracts/Restake.automate.sol:Restake",
        "label": "_info",
        "offset": 0,
        "slot": "0",
        "type": "t_address"
      },
      {
        "astId": 1407,
        "contract": "contracts/Restake.automate.sol:Restake",
        "label": "_owner",
        "offset": 0,
        "slot": "1",
        "type": "t_address"
      },
      {
        "astId": 1410,
        "contract": "contracts/Restake.automate.sol:Restake",
        "label": "_paused",
        "offset": 20,
        "slot": "1",
        "type": "t_bool"
      },
      {
        "astId": 1413,
        "contract": "contracts/Restake.automate.sol:Restake",
        "label": "_protocolFee",
        "offset": 0,
        "slot": "2",
        "type": "t_int256"
      },
      {
        "astId": 1416,
        "contract": "contracts/Restake.automate.sol:Restake",
        "label": "_initialized",
        "offset": 0,
        "slot": "3",
        "type": "t_bool"
      },
      {
        "astId": 671,
        "contract": "contracts/Restake.automate.sol:Restake",
        "label": "positionManager",
        "offset": 1,
        "slot": "3",
        "type": "t_address"
      },
      {
        "astId": 673,
        "contract": "contracts/Restake.automate.sol:Restake",
        "label": "liquidityRouter",
        "offset": 0,
        "slot": "4",
        "type": "t_address"
      },
      {
        "astId": 675,
        "contract": "contracts/Restake.automate.sol:Restake",
        "label": "pool",
        "offset": 0,
        "slot": "5",
        "type": "t_address"
      },
      {
        "astId": 677,
        "contract": "contracts/Restake.automate.sol:Restake",
        "label": "tokenId",
        "offset": 0,
        "slot": "6",
        "type": "t_uint256"
      },
      {
        "astId": 679,
        "contract": "contracts/Restake.automate.sol:Restake",
        "label": "deadline",
        "offset": 0,
        "slot": "7",
        "type": "t_uint16"
      },
      {
        "astId": 682,
        "contract": "contracts/Restake.automate.sol:Restake",
        "label": "stopLoss",
        "offset": 0,
        "slot": "8",
        "type": "t_struct(Order)2815_storage"
      }
    ],
    "types": {
      "t_address": {
        "encoding": "inplace",
        "label": "address",
        "numberOfBytes": "20"
      },
      "t_array(t_address)dyn_storage": {
        "base": "t_address",
        "encoding": "dynamic_array",
        "label": "address[]",
        "numberOfBytes": "32"
      },
      "t_bool": {
        "encoding": "inplace",
        "label": "bool",
        "numberOfBytes": "1"
      },
      "t_int256": {
        "encoding": "inplace",
        "label": "int256",
        "numberOfBytes": "32"
      },
      "t_struct(Order)2815_storage": {
        "encoding": "inplace",
        "label": "struct StopLoss.Order",
        "members": [
          {
            "astId": 2808,
            "contract": "contracts/Restake.automate.sol:Restake",
            "label": "path",
            "offset": 0,
            "slot": "0",
            "type": "t_array(t_address)dyn_storage"
          },
          {
            "astId": 2810,
            "contract": "contracts/Restake.automate.sol:Restake",
            "label": "fee",
            "offset": 0,
            "slot": "1",
            "type": "t_uint24"
          },
          {
            "astId": 2812,
            "contract": "contracts/Restake.automate.sol:Restake",
            "label": "amountOut",
            "offset": 0,
            "slot": "2",
            "type": "t_uint256"
          },
          {
            "astId": 2814,
            "contract": "contracts/Restake.automate.sol:Restake",
            "label": "amountOutMin",
            "offset": 0,
            "slot": "3",
            "type": "t_uint256"
          }
        ],
        "numberOfBytes": "128"
      },
      "t_uint16": {
        "encoding": "inplace",
        "label": "uint16",
        "numberOfBytes": "2"
      },
      "t_uint24": {
        "encoding": "inplace",
        "label": "uint24",
        "numberOfBytes": "3"
      },
      "t_uint256": {
        "encoding": "inplace",
        "label": "uint256",
        "numberOfBytes": "32"
      }
    }
  }
}