{
  "_format": "hh-sol-artifact-1",
  "contractName": "MasterChefFinnLpRestake",
  "sourceName": "automates/moonriverHuckleberry/MasterChefFinnLpRestake.automate.sol",
  "abi": [
    {
      "inputs": [
        {
          "internalType": "address",
          "name": "_info",
          "type": "address"
        }
      ],
      "stateMutability": "nonpayable",
      "type": "constructor"
    },
    {
      "anonymous": false,
      "inputs": [
        {
          "indexed": true,
          "internalType": "address",
          "name": "previousOwner",
          "type": "address"
        },
        {
          "indexed": true,
          "internalType": "address",
          "name": "newOwner",
          "type": "address"
        }
      ],
      "name": "OwnershipTransferred",
      "type": "event"
    },
    {
      "anonymous": false,
      "inputs": [
        {
          "indexed": false,
          "internalType": "int256",
          "name": "protocolFee",
          "type": "int256"
        }
      ],
      "name": "ProtocolFeeChanged",
      "type": "event"
    },
    {
      "inputs": [
        {
          "internalType": "int256",
          "name": "__protocolFee",
          "type": "int256"
        }
      ],
      "name": "changeProtocolFee",
      "outputs": [],
      "stateMutability": "nonpayable",
      "type": "function"
    },
    {
      "inputs": [],
      "name": "deadline",
      "outputs": [
        {
          "internalType": "uint16",
          "name": "",
          "type": "uint16"
        }
      ],
      "stateMutability": "view",
      "type": "function"
    },
    {
      "inputs": [],
      "name": "deposit",
      "outputs": [],
      "stateMutability": "nonpayable",
      "type": "function"
    },
    {
      "inputs": [],
      "name": "emergencyWithdraw",
      "outputs": [],
      "stateMutability": "nonpayable",
      "type": "function"
    },
    {
      "inputs": [],
      "name": "info",
      "outputs": [
        {
          "internalType": "address",
          "name": "",
          "type": "address"
        }
      ],
      "stateMutability": "view",
      "type": "function"
    },
    {
      "inputs": [
        {
          "internalType": "address",
          "name": "_staking",
          "type": "address"
        },
        {
          "internalType": "address",
          "name": "_liquidityRouter",
          "type": "address"
        },
        {
          "internalType": "uint256",
          "name": "_pool",
          "type": "uint256"
        },
        {
          "internalType": "uint16",
          "name": "_slippage",
          "type": "uint16"
        },
        {
          "internalType": "uint16",
          "name": "_deadline",
          "type": "uint16"
        }
      ],
      "name": "init",
      "outputs": [],
      "stateMutability": "nonpayable",
      "type": "function"
    },
    {
      "inputs": [],
      "name": "liquidityRouter",
      "outputs": [
        {
          "internalType": "address",
          "name": "",
          "type": "address"
        }
      ],
      "stateMutability": "view",
      "type": "function"
    },
    {
      "inputs": [],
      "name": "owner",
      "outputs": [
        {
          "internalType": "address",
          "name": "",
          "type": "address"
        }
      ],
      "stateMutability": "view",
      "type": "function"
    },
    {
      "inputs": [],
      "name": "pause",
      "outputs": [],
      "stateMutability": "nonpayable",
      "type": "function"
    },
    {
      "inputs": [],
      "name": "paused",
      "outputs": [
        {
          "internalType": "bool",
          "name": "",
          "type": "bool"
        }
      ],
      "stateMutability": "view",
      "type": "function"
    },
    {
      "inputs": [],
      "name": "pool",
      "outputs": [
        {
          "internalType": "uint256",
          "name": "",
          "type": "uint256"
        }
      ],
      "stateMutability": "view",
      "type": "function"
    },
    {
      "inputs": [],
      "name": "protocolFee",
      "outputs": [
        {
          "internalType": "uint256",
          "name": "",
          "type": "uint256"
        }
      ],
      "stateMutability": "view",
      "type": "function"
    },
    {
      "inputs": [],
      "name": "refund",
      "outputs": [],
      "stateMutability": "nonpayable",
      "type": "function"
    },
    {
      "inputs": [],
      "name": "rewardToken",
      "outputs": [
        {
          "internalType": "contract IERC20",
          "name": "",
          "type": "address"
        }
      ],
      "stateMutability": "view",
      "type": "function"
    },
    {
      "inputs": [
        {
          "internalType": "uint256",
          "name": "gasFee",
          "type": "uint256"
        },
        {
          "internalType": "uint256",
          "name": "_deadline",
          "type": "uint256"
        },
        {
          "internalType": "uint256[2]",
          "name": "_outMin",
          "type": "uint256[2]"
        }
      ],
      "name": "run",
      "outputs": [],
      "stateMutability": "nonpayable",
      "type": "function"
    },
    {
      "inputs": [],
      "name": "slippage",
      "outputs": [
        {
          "internalType": "uint16",
          "name": "",
          "type": "uint16"
        }
      ],
      "stateMutability": "view",
      "type": "function"
    },
    {
      "inputs": [],
      "name": "staking",
      "outputs": [
        {
          "internalType": "contract IMasterChefFinnV2",
          "name": "",
          "type": "address"
        }
      ],
      "stateMutability": "view",
      "type": "function"
    },
    {
      "inputs": [],
      "name": "stakingToken",
      "outputs": [
        {
          "internalType": "contract IERC20",
          "name": "",
          "type": "address"
        }
      ],
      "stateMutability": "view",
      "type": "function"
    },
    {
      "inputs": [
        {
          "internalType": "address",
          "name": "token",
          "type": "address"
        },
        {
          "internalType": "address",
          "name": "recipient",
          "type": "address"
        },
        {
          "internalType": "uint256",
          "name": "amount",
          "type": "uint256"
        }
      ],
      "name": "transfer",
      "outputs": [],
      "stateMutability": "nonpayable",
      "type": "function"
    },
    {
      "inputs": [
        {
          "internalType": "address",
          "name": "newOwner",
          "type": "address"
        }
      ],
      "name": "transferOwnership",
      "outputs": [],
      "stateMutability": "nonpayable",
      "type": "function"
    },
    {
      "inputs": [],
      "name": "unpause",
      "outputs": [],
      "stateMutability": "nonpayable",
      "type": "function"
    }
  ],
  "bytecode": "0x60806040523480156200001157600080fd5b5060405162003c9a38038062003c9a833981016040819052620000349162000069565b600080546001600160a01b039092166001600160a01b031992831617905560018054909116321790556000196002556200009b565b6000602082840312156200007c57600080fd5b81516001600160a01b03811681146200009457600080fd5b9392505050565b613bef80620000ab6000396000f3fe608060405234801561001057600080fd5b50600436106101775760003560e01c80638456cb59116100d8578063beabacc81161008c578063dd92555111610066578063dd92555114610303578063f2fde38b14610316578063f7c618c11461032957600080fd5b8063beabacc8146102e0578063d0e30db0146102f3578063db2e21bc146102fb57600080fd5b80639742b5c3116100bd5780639742b5c3146102b2578063b0e21e8a146102c5578063b838d914146102cd57600080fd5b80638456cb591461028c5780638da5cb5b1461029457600080fd5b80633f4ba83a1161012f578063590e1ae311610114578063590e1ae3146102445780635c975abb1461024c57806372f702f31461026457600080fd5b80633f4ba83a1461021a5780634cf088d91461022457600080fd5b806329dcb0cf1161016057806329dcb0cf146101dd578063370158ea146102045780633e032a3b1461020c57600080fd5b806316f0115b1461017c5780632470294414610198575b600080fd5b61018560055481565b6040519081526020015b60405180910390f35b6004546101b89073ffffffffffffffffffffffffffffffffffffffff1681565b60405173ffffffffffffffffffffffffffffffffffffffff909116815260200161018f565b6006546101f19062010000900461ffff1681565b60405161ffff909116815260200161018f565b6101b8610349565b6006546101f19061ffff1681565b6102226104ab565b005b6003546101b89073ffffffffffffffffffffffffffffffffffffffff1681565b610222610842565b610254610d09565b604051901515815260200161018f565b6006546101b890640100000000900473ffffffffffffffffffffffffffffffffffffffff1681565b610222610e8e565b60015473ffffffffffffffffffffffffffffffffffffffff166101b8565b6102226102c0366004613623565b611238565b610185611472565b6102226102db3660046134f2565b61187f565b6102226102ee3660046134b1565b611bdf565b610222611ce1565b610222611ef7565b6102226103113660046137dd565b6122f0565b610222610324366004613477565b6129f2565b6007546101b89073ffffffffffffffffffffffffffffffffffffffff1681565b6040517f6b880718000000000000000000000000000000000000000000000000000000008152306004820152600090819073__$0bac19a4f6859fb91e3c64d76ce49d598f$__90636b8807189060240160206040518083038186803b1580156103b157600080fd5b505af41580156103c5573d6000803e3d6000fd5b505050506040513d601f19601f820116820180604052508101906103e99190613494565b905073ffffffffffffffffffffffffffffffffffffffff811630141561042757505060005473ffffffffffffffffffffffffffffffffffffffff1690565b8073ffffffffffffffffffffffffffffffffffffffff1663370158ea6040518163ffffffff1660e01b815260040160206040518083038186803b15801561046d57600080fd5b505afa158015610481573d6000803e3d6000fd5b505050506040513d601f19601f820116820180604052508101906104a59190613494565b91505090565b6040517f6b88071800000000000000000000000000000000000000000000000000000000815230600482018190529073__$0bac19a4f6859fb91e3c64d76ce49d598f$__90636b8807189060240160206040518083038186803b15801561051157600080fd5b505af4158015610525573d6000803e3d6000fd5b505050506040513d601f19601f820116820180604052508101906105499190613494565b73ffffffffffffffffffffffffffffffffffffffff16141561070357600061056f610349565b6040517f21f8a7210000000000000000000000000000000000000000000000000000000081527f689d13d8ed8ef1027633ba26e7121121cf427434450a529548f19bf175974395600482015273ffffffffffffffffffffffffffffffffffffffff91909116906321f8a7219060240160206040518083038186803b1580156105f657600080fd5b505afa15801561060a573d6000803e3d6000fd5b505050506040513d601f19601f8201168201806040525081019061062e9190613494565b60015490915073ffffffffffffffffffffffffffffffffffffffff1633148061066c57503373ffffffffffffffffffffffffffffffffffffffff8216145b6106fd576040517f08c379a000000000000000000000000000000000000000000000000000000000815260206004820152602260248201527f4175746f6d6174653a2063616c6c6572206973206e6f7420746865207061757360448201527f657200000000000000000000000000000000000000000000000000000000000060648201526084015b60405180910390fd5b506107aa565b60015473ffffffffffffffffffffffffffffffffffffffff1633146107aa576040517f08c379a000000000000000000000000000000000000000000000000000000000815260206004820152602260248201527f4175746f6d6174653a2063616c6c6572206973206e6f7420746865207061757360448201527f657200000000000000000000000000000000000000000000000000000000000060648201526084016106f4565b6107b2610d09565b610818576040517f08c379a000000000000000000000000000000000000000000000000000000000815260206004820152601460248201527f4175746f6d6174653a206e6f742070617573656400000000000000000000000060448201526064016106f4565b600180547fffffffffffffffffffffff00ffffffffffffffffffffffffffffffffffffffff169055565b60015473ffffffffffffffffffffffffffffffffffffffff1633146108e9576040517f08c379a000000000000000000000000000000000000000000000000000000000815260206004820152602160248201527f4175746f6d6174653a2063616c6c6572206973206e6f7420746865206f776e6560448201527f720000000000000000000000000000000000000000000000000000000000000060648201526084016106f4565b60035473ffffffffffffffffffffffffffffffffffffffff16600061092360015473ffffffffffffffffffffffffffffffffffffffff1690565b6005546040517f93f1a40b000000000000000000000000000000000000000000000000000000008152600481019190915230602482015290915060009073ffffffffffffffffffffffffffffffffffffffff8416906393f1a40b90604401604080518083038186803b15801561099857600080fd5b505afa1580156109ac573d6000803e3d6000fd5b505050506040513d601f19601f820116820180604052508101906109d091906136bb565b60055481516040517f441a3e700000000000000000000000000000000000000000000000000000000081526004810192909252602482015290915073ffffffffffffffffffffffffffffffffffffffff84169063441a3e7090604401600060405180830381600087803b158015610a4657600080fd5b505af1158015610a5a573d6000803e3d6000fd5b50506006546040517f70a0823100000000000000000000000000000000000000000000000000000000815230600482015264010000000090910473ffffffffffffffffffffffffffffffffffffffff16925063a9059cbb9150849083906370a082319060240160206040518083038186803b158015610ad857600080fd5b505afa158015610aec573d6000803e3d6000fd5b505050506040513d601f19601f82011682018060405250810190610b1091906136ed565b6040517fffffffff0000000000000000000000000000000000000000000000000000000060e085901b16815273ffffffffffffffffffffffffffffffffffffffff90921660048301526024820152604401602060405180830381600087803b158015610b7b57600080fd5b505af1158015610b8f573d6000803e3d6000fd5b505050506040513d601f19601f82011682018060405250810190610bb39190613601565b506007546040517f70a0823100000000000000000000000000000000000000000000000000000000815230600482015273ffffffffffffffffffffffffffffffffffffffff9091169063a9059cbb90849083906370a082319060240160206040518083038186803b158015610c2757600080fd5b505afa158015610c3b573d6000803e3d6000fd5b505050506040513d601f19601f82011682018060405250810190610c5f91906136ed565b6040517fffffffff0000000000000000000000000000000000000000000000000000000060e085901b16815273ffffffffffffffffffffffffffffffffffffffff909216600483015260248201526044015b602060405180830381600087803b158015610ccb57600080fd5b505af1158015610cdf573d6000803e3d6000fd5b505050506040513d601f19601f82011682018060405250810190610d039190613601565b50505050565b6040517f6b880718000000000000000000000000000000000000000000000000000000008152306004820152600090819073__$0bac19a4f6859fb91e3c64d76ce49d598f$__90636b8807189060240160206040518083038186803b158015610d7157600080fd5b505af4158015610d85573d6000803e3d6000fd5b505050506040513d601f19601f82011682018060405250810190610da99190613494565b905073ffffffffffffffffffffffffffffffffffffffff8116301415610dec57505060015474010000000000000000000000000000000000000000900460ff1690565b60015474010000000000000000000000000000000000000000900460ff16806104a557508073ffffffffffffffffffffffffffffffffffffffff16635c975abb6040518163ffffffff1660e01b815260040160206040518083038186803b158015610e5657600080fd5b505afa158015610e6a573d6000803e3d6000fd5b505050506040513d601f19601f820116820180604052508101906104a59190613601565b6040517f6b88071800000000000000000000000000000000000000000000000000000000815230600482018190529073__$0bac19a4f6859fb91e3c64d76ce49d598f$__90636b8807189060240160206040518083038186803b158015610ef457600080fd5b505af4158015610f08573d6000803e3d6000fd5b505050506040513d601f19601f82011682018060405250810190610f2c9190613494565b73ffffffffffffffffffffffffffffffffffffffff1614156110e1576000610f52610349565b6040517f21f8a7210000000000000000000000000000000000000000000000000000000081527f689d13d8ed8ef1027633ba26e7121121cf427434450a529548f19bf175974395600482015273ffffffffffffffffffffffffffffffffffffffff91909116906321f8a7219060240160206040518083038186803b158015610fd957600080fd5b505afa158015610fed573d6000803e3d6000fd5b505050506040513d601f19601f820116820180604052508101906110119190613494565b60015490915073ffffffffffffffffffffffffffffffffffffffff1633148061104f57503373ffffffffffffffffffffffffffffffffffffffff8216145b6110db576040517f08c379a000000000000000000000000000000000000000000000000000000000815260206004820152602260248201527f4175746f6d6174653a2063616c6c6572206973206e6f7420746865207061757360448201527f657200000000000000000000000000000000000000000000000000000000000060648201526084016106f4565b50611188565b60015473ffffffffffffffffffffffffffffffffffffffff163314611188576040517f08c379a000000000000000000000000000000000000000000000000000000000815260206004820152602260248201527f4175746f6d6174653a2063616c6c6572206973206e6f7420746865207061757360448201527f657200000000000000000000000000000000000000000000000000000000000060648201526084016106f4565b611190610d09565b156111f7576040517f08c379a000000000000000000000000000000000000000000000000000000000815260206004820152601060248201527f4175746f6d6174653a207061757365640000000000000000000000000000000060448201526064016106f4565b600180547fffffffffffffffffffffff00ffffffffffffffffffffffffffffffffffffffff1674010000000000000000000000000000000000000000179055565b6040517f6b88071800000000000000000000000000000000000000000000000000000000815230600482015260009073__$0bac19a4f6859fb91e3c64d76ce49d598f$__90636b8807189060240160206040518083038186803b15801561129e57600080fd5b505af41580156112b2573d6000803e3d6000fd5b505050506040513d601f19601f820116820180604052508101906112d69190613494565b90503373ffffffffffffffffffffffffffffffffffffffff82163014611379578173ffffffffffffffffffffffffffffffffffffffff16638da5cb5b6040518163ffffffff1660e01b815260040160206040518083038186803b15801561133c57600080fd5b505afa158015611350573d6000803e3d6000fd5b505050506040513d601f19601f820116820180604052508101906113749190613494565b611393565b60015473ffffffffffffffffffffffffffffffffffffffff165b73ffffffffffffffffffffffffffffffffffffffff1614611436576040517f08c379a000000000000000000000000000000000000000000000000000000000815260206004820152603d60248201527f4175746f6d6174653a3a6368616e676550726f746f636f6c4665653a2063616c60448201527f6c6572206973206e6f74207468652070726f746f636f6c206f776e657200000060648201526084016106f4565b60028290556040518281527f3c1d43943224e49d951ce8295a5c8332b517083b3f89bed50feae2cb39caebb59060200160405180910390a15050565b6040517f6b880718000000000000000000000000000000000000000000000000000000008152306004820152600090819073__$0bac19a4f6859fb91e3c64d76ce49d598f$__90636b8807189060240160206040518083038186803b1580156114da57600080fd5b505af41580156114ee573d6000803e3d6000fd5b505050506040513d601f19601f820116820180604052508101906115129190613494565b905073ffffffffffffffffffffffffffffffffffffffff8116301480159061153c57506000600254125b156115bf578073ffffffffffffffffffffffffffffffffffffffff1663b0e21e8a6040518163ffffffff1660e01b815260040160206040518083038186803b15801561158757600080fd5b505afa15801561159b573d6000803e3d6000fd5b505050506040513d601f19601f820116820180604052508101906104a591906136ed565b60006115c9610349565b9050600080600254126115de5760025461169b565b6040517fbd02d0f50000000000000000000000000000000000000000000000000000000081527fa93d95f96a5de25d7a41ddf1f5e8d45cfc929c4838163cf011dab4043a4a40d5600482015273ffffffffffffffffffffffffffffffffffffffff83169063bd02d0f59060240160206040518083038186803b15801561166357600080fd5b505afa158015611677573d6000803e3d6000fd5b505050506040513d601f19601f8201168201806040525081019061169b91906136ed565b9050806116ac576000935050505090565b6040517f21f8a7210000000000000000000000000000000000000000000000000000000081527f65c90423fe7c880476633a7e36521740f87199d233dc56eb4ca6643eb76f605f600482015260009073ffffffffffffffffffffffffffffffffffffffff8416906321f8a7219060240160206040518083038186803b15801561173457600080fd5b505afa158015611748573d6000803e3d6000fd5b505050506040513d601f19601f8201168201806040525081019061176c9190613494565b73ffffffffffffffffffffffffffffffffffffffff1663feaf968c6040518163ffffffff1660e01b815260040160a06040518083038186803b1580156117b157600080fd5b505afa1580156117c5573d6000803e3d6000fd5b505050506040513d601f19601f820116820180604052508101906117e99190613887565b50505091505060008113611859576040517f08c379a000000000000000000000000000000000000000000000000000000000815260206004820152601760248201527f4175746f6d6174653a20696e76616c696420707269636500000000000000000060448201526064016106f4565b8061186c83670de0b6b3a7640000613a85565b6118769190613a4a565b94505050505090565b60015473ffffffffffffffffffffffffffffffffffffffff166118ef57600180547fffffffffffffffffffffffff000000000000000000000000000000000000000016321790557fffffffffffffffffffffffffffffffffffffffffffffffffffffffffffffffff600255611996565b60015473ffffffffffffffffffffffffffffffffffffffff163314611996576040517f08c379a000000000000000000000000000000000000000000000000000000000815260206004820152602160248201527f4175746f6d6174653a2063616c6c6572206973206e6f7420746865206f776e6560448201527f720000000000000000000000000000000000000000000000000000000000000060648201526084016106f4565b6003805473ffffffffffffffffffffffffffffffffffffffff8088167fffffffffffffffffffffffff00000000000000000000000000000000000000009283168117909355600480549188169190921617815560058590556006805461ffff85811662010000027fffffffffffffffffffffffffffffffffffffffffffffffffffffffff00000000909216908716171790556040517f1526fe2700000000000000000000000000000000000000000000000000000000815260009291631526fe2791611a689188910190815260200190565b60a06040518083038186803b158015611a8057600080fd5b505afa158015611a94573d6000803e3d6000fd5b505050506040513d601f19601f82011682018060405250810190611ab8919061363c565b8051600680547fffffffffffffffff0000000000000000000000000000000000000000ffffffff1664010000000073ffffffffffffffffffffffffffffffffffffffff93841602179055600354604080517f33cc3b1700000000000000000000000000000000000000000000000000000000815290519394509116916333cc3b1791600480820192602092909190829003018186803b158015611b5a57600080fd5b505afa158015611b6e573d6000803e3d6000fd5b505050506040513d601f19601f82011682018060405250810190611b929190613494565b600780547fffffffffffffffffffffffff00000000000000000000000000000000000000001673ffffffffffffffffffffffffffffffffffffffff92909216919091179055505050505050565b60015473ffffffffffffffffffffffffffffffffffffffff163314611c86576040517f08c379a000000000000000000000000000000000000000000000000000000000815260206004820152602160248201527f4175746f6d6174653a2063616c6c6572206973206e6f7420746865206f776e6560448201527f720000000000000000000000000000000000000000000000000000000000000060648201526084016106f4565b6040517fa9059cbb00000000000000000000000000000000000000000000000000000000815273ffffffffffffffffffffffffffffffffffffffff83811660048301526024820183905284169063a9059cbb90604401610cb1565b60015473ffffffffffffffffffffffffffffffffffffffff163314611d88576040517f08c379a000000000000000000000000000000000000000000000000000000000815260206004820152602160248201527f4175746f6d6174653a2063616c6c6572206973206e6f7420746865206f776e6560448201527f720000000000000000000000000000000000000000000000000000000000000060648201526084016106f4565b6006546040517f70a0823100000000000000000000000000000000000000000000000000000000815230600482015264010000000090910473ffffffffffffffffffffffffffffffffffffffff169060009082906370a082319060240160206040518083038186803b158015611dfd57600080fd5b505afa158015611e11573d6000803e3d6000fd5b505050506040513d601f19601f82011682018060405250810190611e3591906136ed565b600354909150611e5f9073ffffffffffffffffffffffffffffffffffffffff848116911683612c51565b6003546005546040517fe2bbb15800000000000000000000000000000000000000000000000000000000815273ffffffffffffffffffffffffffffffffffffffff9092169163e2bbb15891611ec1918590600401918252602082015260400190565b600060405180830381600087803b158015611edb57600080fd5b505af1158015611eef573d6000803e3d6000fd5b505050505050565b60015473ffffffffffffffffffffffffffffffffffffffff163314611f9e576040517f08c379a000000000000000000000000000000000000000000000000000000000815260206004820152602160248201527f4175746f6d6174653a2063616c6c6572206973206e6f7420746865206f776e6560448201527f720000000000000000000000000000000000000000000000000000000000000060648201526084016106f4565b6000611fbf60015473ffffffffffffffffffffffffffffffffffffffff1690565b6003546005546040517f5312ea8e000000000000000000000000000000000000000000000000000000008152600481019190915291925073ffffffffffffffffffffffffffffffffffffffff1690635312ea8e90602401600060405180830381600087803b15801561203057600080fd5b505af1158015612044573d6000803e3d6000fd5b50506006546040517f70a0823100000000000000000000000000000000000000000000000000000000815230600482015264010000000090910473ffffffffffffffffffffffffffffffffffffffff16925063a9059cbb9150839083906370a082319060240160206040518083038186803b1580156120c257600080fd5b505afa1580156120d6573d6000803e3d6000fd5b505050506040513d601f19601f820116820180604052508101906120fa91906136ed565b6040517fffffffff0000000000000000000000000000000000000000000000000000000060e085901b16815273ffffffffffffffffffffffffffffffffffffffff90921660048301526024820152604401602060405180830381600087803b15801561216557600080fd5b505af1158015612179573d6000803e3d6000fd5b505050506040513d601f19601f8201168201806040525081019061219d9190613601565b506007546040517f70a0823100000000000000000000000000000000000000000000000000000000815230600482015273ffffffffffffffffffffffffffffffffffffffff9091169063a9059cbb90839083906370a082319060240160206040518083038186803b15801561221157600080fd5b505afa158015612225573d6000803e3d6000fd5b505050506040513d601f19601f8201168201806040525081019061224991906136ed565b6040517fffffffff0000000000000000000000000000000000000000000000000000000060e085901b16815273ffffffffffffffffffffffffffffffffffffffff90921660048301526024820152604401602060405180830381600087803b1580156122b457600080fd5b505af11580156122c8573d6000803e3d6000fd5b505050506040513d601f19601f820116820180604052508101906122ec9190613601565b5050565b826040518060600160405280602b8152602001613bb8602b91396123148282612e6f565b506003546005546040517fffcd4263000000000000000000000000000000000000000000000000000000008152600481019190915230602482015273ffffffffffffffffffffffffffffffffffffffff90911690600090829063ffcd42639060440160006040518083038186803b15801561238e57600080fd5b505afa1580156123a2573d6000803e3d6000fd5b505050506040513d6000823e601f3d9081017fffffffffffffffffffffffffffffffffffffffffffffffffffffffffffffffe01682016040526123e89190810190613706565b50505090506000811161247d576040517f08c379a000000000000000000000000000000000000000000000000000000000815260206004820152602760248201527f4d61737465724368656646696e6e4c7052657374616b653a3a72756e3a206e6f60448201527f206561726e65640000000000000000000000000000000000000000000000000060648201526084016106f4565b6005546040517fe2bbb15800000000000000000000000000000000000000000000000000000000815260048101919091526000602482015273ffffffffffffffffffffffffffffffffffffffff83169063e2bbb15890604401600060405180830381600087803b1580156124f057600080fd5b505af1158015612504573d6000803e3d6000fd5b50506007546040517f70a082310000000000000000000000000000000000000000000000000000000081523060048201526000935073ffffffffffffffffffffffffffffffffffffffff90911691506370a082319060240160206040518083038186803b15801561257457600080fd5b505afa158015612588573d6000803e3d6000fd5b505050506040513d601f19601f820116820180604052508101906125ac91906136ed565b6004546007549192506125d99173ffffffffffffffffffffffffffffffffffffffff908116911683612c51565b6000600660049054906101000a900473ffffffffffffffffffffffffffffffffffffffff169050600060405180604001604052808373ffffffffffffffffffffffffffffffffffffffff16630dfe16816040518163ffffffff1660e01b815260040160206040518083038186803b15801561265357600080fd5b505afa158015612667573d6000803e3d6000fd5b505050506040513d601f19601f8201168201806040525081019061268b9190613494565b73ffffffffffffffffffffffffffffffffffffffff1673ffffffffffffffffffffffffffffffffffffffff1681526020018373ffffffffffffffffffffffffffffffffffffffff1663d21220a76040518163ffffffff1660e01b815260040160206040518083038186803b15801561270257600080fd5b505afa158015612716573d6000803e3d6000fd5b505050506040513d601f19601f8201168201806040525081019061273a9190613494565b73ffffffffffffffffffffffffffffffffffffffff9081169091526040805160808101825260075483168183019081528451909316606082015281518083019092529293506000929182916127ac91908061279660028b613a4a565b81526020018e60005b602002015190528e613141565b815260408051808201825260075473ffffffffffffffffffffffffffffffffffffffff90811682526020878101519091168183015282518084019093529092019161281491806127fd60028b613a4a565b612807908b613ac2565b81526020018e600161279f565b815250905060006040518060400160405280600081526020016000815250905061288960405180604001604052808560006002811061285557612855613b34565b6020908102919091015173ffffffffffffffffffffffffffffffffffffffff9081168352878201511691015283838e6132f4565b6040517f70a0823100000000000000000000000000000000000000000000000000000000815230600482015260009073ffffffffffffffffffffffffffffffffffffffff8616906370a082319060240160206040518083038186803b1580156128f157600080fd5b505afa158015612905573d6000803e3d6000fd5b505050506040513d601f19601f8201168201806040525081019061292991906136ed565b60065490915061295890640100000000900473ffffffffffffffffffffffffffffffffffffffff168983612c51565b6005546040517fe2bbb15800000000000000000000000000000000000000000000000000000000815260048101919091526024810182905273ffffffffffffffffffffffffffffffffffffffff89169063e2bbb15890604401600060405180830381600087803b1580156129cb57600080fd5b505af11580156129df573d6000803e3d6000fd5b5050505050505050505050505050505050565b60015473ffffffffffffffffffffffffffffffffffffffff163314612a99576040517f08c379a000000000000000000000000000000000000000000000000000000000815260206004820152602160248201527f4175746f6d6174653a2063616c6c6572206973206e6f7420746865206f776e6560448201527f720000000000000000000000000000000000000000000000000000000000000060648201526084016106f4565b6040517f6b88071800000000000000000000000000000000000000000000000000000000815230600482018190529073__$0bac19a4f6859fb91e3c64d76ce49d598f$__90636b8807189060240160206040518083038186803b158015612aff57600080fd5b505af4158015612b13573d6000803e3d6000fd5b505050506040513d601f19601f82011682018060405250810190612b379190613494565b73ffffffffffffffffffffffffffffffffffffffff1614612bda576040517f08c379a000000000000000000000000000000000000000000000000000000000815260206004820152602160248201527f4175746f6d6174653a206368616e676520746865206f776e6572206661696c6560448201527f640000000000000000000000000000000000000000000000000000000000000060648201526084016106f4565b6001805473ffffffffffffffffffffffffffffffffffffffff8381167fffffffffffffffffffffffff0000000000000000000000000000000000000000831681179093556040519116919082907f8be0079c531659141344cd1fd0a4f28419497f9722a3daafe3b4186f6b6457e090600090a35050565b6040517fdd62ed3e00000000000000000000000000000000000000000000000000000000815230600482015273ffffffffffffffffffffffffffffffffffffffff83811660248301526000919085169063dd62ed3e9060440160206040518083038186803b158015612cc257600080fd5b505afa158015612cd6573d6000803e3d6000fd5b505050506040513d601f19601f82011682018060405250810190612cfa91906136ed565b90508015801590612d0a57508181105b15612db9576040517f095ea7b300000000000000000000000000000000000000000000000000000000815273ffffffffffffffffffffffffffffffffffffffff84811660048301526000602483015285169063095ea7b390604401602060405180830381600087803b158015612d7f57600080fd5b505af1158015612d93573d6000803e3d6000fd5b505050506040513d601f19601f82011682018060405250810190612db79190613601565b505b818114610d03576040517f095ea7b300000000000000000000000000000000000000000000000000000000815273ffffffffffffffffffffffffffffffffffffffff84811660048301526024820184905285169063095ea7b390604401602060405180830381600087803b158015612e3057600080fd5b505af1158015612e44573d6000803e3d6000fd5b505050506040513d601f19601f82011682018060405250810190612e689190613601565b5050505050565b6000612e79610d09565b15612ee0576040517f08c379a000000000000000000000000000000000000000000000000000000000815260206004820152601060248201527f4175746f6d6174653a207061757365640000000000000000000000000000000060448201526064016106f4565b6000612f0160015473ffffffffffffffffffffffffffffffffffffffff1690565b90503273ffffffffffffffffffffffffffffffffffffffff82161415612f2b57600091505061313b565b6000612f35610349565b6040517f21f8a7210000000000000000000000000000000000000000000000000000000081527fe78c16c6d839536d3155985aab4e9c6013c8c3d446054bcebc48612f359d81f5600482015290915060009073ffffffffffffffffffffffffffffffffffffffff8316906321f8a7219060240160206040518083038186803b158015612fc057600080fd5b505afa158015612fd4573d6000803e3d6000fd5b505050506040513d601f19601f82011682018060405250810190612ff89190613494565b905073ffffffffffffffffffffffffffffffffffffffff811661309d576040517f08c379a000000000000000000000000000000000000000000000000000000000815260206004820152602b60248201527f4175746f6d6174653a3a5f62696c6c3a2062616c616e636520636f6e7472616360448201527f74206e6f7420666f756e6400000000000000000000000000000000000000000060648201526084016106f4565b8073ffffffffffffffffffffffffffffffffffffffff1663e578a22584886130c3611472565b896040518563ffffffff1660e01b81526004016130e394939291906138cb565b602060405180830381600087803b1580156130fd57600080fd5b505af1158015613111573d6000803e3d6000fd5b505050506040513d601f19601f8201168201806040525081019061313591906136ed565b93505050505b92915050565b6020830151835160009173ffffffffffffffffffffffffffffffffffffffff91821691161415613173575081516132ed565b604080516002808252606082018352600092602083019080368337505086518251929350918391506000906131aa576131aa613b34565b73ffffffffffffffffffffffffffffffffffffffff929092166020928302919091018201528501518151829060019081106131e7576131e7613b34565b73ffffffffffffffffffffffffffffffffffffffff928316602091820292909201810191909152600480548751928801516040517f38ed173900000000000000000000000000000000000000000000000000000000815291909416936338ed17399361325b939092879130918b9101613947565b600060405180830381600087803b15801561327557600080fd5b505af1158015613289573d6000803e3d6000fd5b505050506040513d6000823e601f3d9081017fffffffffffffffffffffffffffffffffffffffffffffffffffffffffffffffe01682016040526132cf9190810190613554565b6001815181106132e1576132e1613b34565b60200260200101519150505b9392505050565b60045473ffffffffffffffffffffffffffffffffffffffff1661333f8185600060200201518760005b602002015173ffffffffffffffffffffffffffffffffffffffff169190612c51565b61335381856001602002015187600161331d565b84516020808701518651878301518751938801516040517fe8e3370000000000000000000000000000000000000000000000000000000000815273ffffffffffffffffffffffffffffffffffffffff9687166004820152938616602485015260448401929092526064830152608482019290925260a48101919091523060c482015260e481018490529082169063e8e337009061010401606060405180830381600087803b15801561340457600080fd5b505af1158015613418573d6000803e3d6000fd5b505050506040513d601f19601f8201168201806040525081019061343c9190613859565b5050505050505050565b803561ffff8116811461345857600080fd5b919050565b805169ffffffffffffffffffff8116811461345857600080fd5b60006020828403121561348957600080fd5b81356132ed81613b92565b6000602082840312156134a657600080fd5b81516132ed81613b92565b6000806000606084860312156134c657600080fd5b83356134d181613b92565b925060208401356134e181613b92565b929592945050506040919091013590565b600080600080600060a0868803121561350a57600080fd5b853561351581613b92565b9450602086013561352581613b92565b93506040860135925061353a60608701613446565b915061354860808701613446565b90509295509295909350565b6000602080838503121561356757600080fd5b825167ffffffffffffffff8082111561357f57600080fd5b818501915085601f83011261359357600080fd5b8151818111156135a5576135a5613b63565b8060051b91506135b68483016139fb565b8181528481019084860184860187018a10156135d157600080fd5b600095505b838610156135f45780518352600195909501949186019186016135d6565b5098975050505050505050565b60006020828403121561361357600080fd5b815180151581146132ed57600080fd5b60006020828403121561363557600080fd5b5035919050565b600060a0828403121561364e57600080fd5b60405160a0810181811067ffffffffffffffff8211171561367157613671613b63565b604052825161367f81613b92565b8082525060208301516020820152604083015160408201526060830151606082015260808301516136af81613b92565b60808201529392505050565b6000604082840312156136cd57600080fd5b6136d56139d2565b82518152602083015160208201528091505092915050565b6000602082840312156136ff57600080fd5b5051919050565b6000806000806080858703121561371c57600080fd5b84519350602085015161372e81613b92565b604086015190935067ffffffffffffffff8082111561374c57600080fd5b818701915087601f83011261376057600080fd5b81518181111561377257613772613b63565b6137a360207fffffffffffffffffffffffffffffffffffffffffffffffffffffffffffffffe0601f840116016139fb565b91508082528860208285010111156137ba57600080fd5b6137cb816020840160208601613ad9565b50606096909601519497939650505050565b6000806000608084860312156137f257600080fd5b83359250602080850135925085605f86011261380d57600080fd5b6138156139d2565b80604087018860808901111561382a57600080fd5b60005b600281101561384a5781358452928401929084019060010161382d565b50508093505050509250925092565b60008060006060848603121561386e57600080fd5b8351925060208401519150604084015190509250925092565b600080600080600060a0868803121561389f57600080fd5b6138a88661345d565b94506020860151935060408601519250606086015191506135486080870161345d565b73ffffffffffffffffffffffffffffffffffffffff8516815283602082015282604082015260806060820152600082518060808401526139128160a0850160208701613ad9565b601f017fffffffffffffffffffffffffffffffffffffffffffffffffffffffffffffffe0169190910160a00195945050505050565b600060a082018783526020878185015260a0604085015281875180845260c086019150828901935060005b818110156139a457845173ffffffffffffffffffffffffffffffffffffffff1683529383019391830191600101613972565b505073ffffffffffffffffffffffffffffffffffffffff969096166060850152505050608001529392505050565b6040805190810167ffffffffffffffff811182821017156139f5576139f5613b63565b60405290565b604051601f82017fffffffffffffffffffffffffffffffffffffffffffffffffffffffffffffffe016810167ffffffffffffffff81118282101715613a4257613a42613b63565b604052919050565b600082613a80577f4e487b7100000000000000000000000000000000000000000000000000000000600052601260045260246000fd5b500490565b6000817fffffffffffffffffffffffffffffffffffffffffffffffffffffffffffffffff0483118215151615613abd57613abd613b05565b500290565b600082821015613ad457613ad4613b05565b500390565b60005b83811015613af4578181015183820152602001613adc565b83811115610d035750506000910152565b7f4e487b7100000000000000000000000000000000000000000000000000000000600052601160045260246000fd5b7f4e487b7100000000000000000000000000000000000000000000000000000000600052603260045260246000fd5b7f4e487b7100000000000000000000000000000000000000000000000000000000600052604160045260246000fd5b73ffffffffffffffffffffffffffffffffffffffff81168114613bb457600080fd5b5056fe4d6f6f6e72697665724875636b6c6562657272794d61737465724368656646696e6e4c5052657374616b65a164736f6c6343000806000a",
  "linkReferences": {
    "automates/utils/DFH/proxy/ERC1167.sol": {
      "ERC1167": [
        {
          "length": 20,
          "start": 1063
        },
        {
          "length": 20,
          "start": 1415
        },
        {
          "length": 20,
          "start": 3559
        },
        {
          "length": 20,
          "start": 3946
        },
        {
          "length": 20,
          "start": 4884
        },
        {
          "length": 20,
          "start": 5456
        },
        {
          "length": 20,
          "start": 11125
        }
      ]
    }
  },
  "deployedLinkReferences": {
    "automates/utils/DFH/proxy/ERC1167.sol": {
      "ERC1167": [
        {
          "length": 20,
          "start": 892
        },
        {
          "length": 20,
          "start": 1244
        },
        {
          "length": 20,
          "start": 3388
        },
        {
          "length": 20,
          "start": 3775
        },
        {
          "length": 20,
          "start": 4713
        },
        {
          "length": 20,
          "start": 5285
        },
        {
          "length": 20,
          "start": 10954
        }
      ]
    }
  }
}