{
  "_format": "hh-sol-artifact-1",
  "contractName": "MasterChef2SingleRestake",
  "sourceName": "contracts/MasterChef2SingleRestake.automate.sol",
  "abi": [
    {
      "inputs": [
        {
          "internalType": "address",
          "name": "_info",
          "type": "address"
        }
      ],
      "stateMutability": "nonpayable",
      "type": "constructor"
    },
    {
      "anonymous": false,
      "inputs": [
        {
          "indexed": true,
          "internalType": "address",
          "name": "previousOwner",
          "type": "address"
        },
        {
          "indexed": true,
          "internalType": "address",
          "name": "newOwner",
          "type": "address"
        }
      ],
      "name": "OwnershipTransferred",
      "type": "event"
    },
    {
      "anonymous": false,
      "inputs": [
        {
          "indexed": false,
          "internalType": "int256",
          "name": "protocolFee",
          "type": "int256"
        }
      ],
      "name": "ProtocolFeeChanged",
      "type": "event"
    },
    {
      "inputs": [
        {
          "internalType": "int256",
          "name": "__protocolFee",
          "type": "int256"
        }
      ],
      "name": "changeProtocolFee",
      "outputs": [],
      "stateMutability": "nonpayable",
      "type": "function"
    },
    {
      "inputs": [],
      "name": "deadline",
      "outputs": [
        {
          "internalType": "uint16",
          "name": "",
          "type": "uint16"
        }
      ],
      "stateMutability": "view",
      "type": "function"
    },
    {
      "inputs": [],
      "name": "deposit",
      "outputs": [],
      "stateMutability": "nonpayable",
      "type": "function"
    },
    {
      "inputs": [],
      "name": "emergencyWithdraw",
      "outputs": [],
      "stateMutability": "nonpayable",
      "type": "function"
    },
    {
      "inputs": [],
      "name": "info",
      "outputs": [
        {
          "internalType": "address",
          "name": "",
          "type": "address"
        }
      ],
      "stateMutability": "view",
      "type": "function"
    },
    {
      "inputs": [
        {
          "internalType": "address",
          "name": "_staking",
          "type": "address"
        },
        {
          "internalType": "address",
          "name": "_liquidityRouter",
          "type": "address"
        },
        {
          "internalType": "uint256",
          "name": "_pool",
          "type": "uint256"
        },
        {
          "internalType": "uint16",
          "name": "_slippage",
          "type": "uint16"
        },
        {
          "internalType": "uint16",
          "name": "_deadline",
          "type": "uint16"
        }
      ],
      "name": "init",
      "outputs": [],
      "stateMutability": "nonpayable",
      "type": "function"
    },
    {
      "inputs": [],
      "name": "liquidityRouter",
      "outputs": [
        {
          "internalType": "address",
          "name": "",
          "type": "address"
        }
      ],
      "stateMutability": "view",
      "type": "function"
    },
    {
      "inputs": [],
      "name": "owner",
      "outputs": [
        {
          "internalType": "address",
          "name": "",
          "type": "address"
        }
      ],
      "stateMutability": "view",
      "type": "function"
    },
    {
      "inputs": [],
      "name": "pause",
      "outputs": [],
      "stateMutability": "nonpayable",
      "type": "function"
    },
    {
      "inputs": [],
      "name": "paused",
      "outputs": [
        {
          "internalType": "bool",
          "name": "",
          "type": "bool"
        }
      ],
      "stateMutability": "view",
      "type": "function"
    },
    {
      "inputs": [],
      "name": "pool",
      "outputs": [
        {
          "internalType": "uint256",
          "name": "",
          "type": "uint256"
        }
      ],
      "stateMutability": "view",
      "type": "function"
    },
    {
      "inputs": [],
      "name": "protocolFee",
      "outputs": [
        {
          "internalType": "uint256",
          "name": "",
          "type": "uint256"
        }
      ],
      "stateMutability": "view",
      "type": "function"
    },
    {
      "inputs": [],
      "name": "refund",
      "outputs": [],
      "stateMutability": "nonpayable",
      "type": "function"
    },
    {
      "inputs": [],
      "name": "rewardToken",
      "outputs": [
        {
          "internalType": "contract IERC20",
          "name": "",
          "type": "address"
        }
      ],
      "stateMutability": "view",
      "type": "function"
    },
    {
      "inputs": [
        {
          "internalType": "uint256",
          "name": "gasFee",
          "type": "uint256"
        },
        {
          "internalType": "uint256",
          "name": "_deadline",
          "type": "uint256"
        },
        {
          "components": [
            {
              "internalType": "address[]",
              "name": "path",
              "type": "address[]"
            },
            {
              "internalType": "uint256",
              "name": "outMin",
              "type": "uint256"
            }
          ],
          "internalType": "struct MasterChef2SingleRestake.Swap",
          "name": "swap",
          "type": "tuple"
        }
      ],
      "name": "run",
      "outputs": [],
      "stateMutability": "nonpayable",
      "type": "function"
    },
    {
      "inputs": [
        {
          "internalType": "uint256",
          "name": "gasFee",
          "type": "uint256"
        },
        {
          "internalType": "uint256",
          "name": "_deadline",
          "type": "uint256"
        }
      ],
      "name": "runStopLoss",
      "outputs": [],
      "stateMutability": "nonpayable",
      "type": "function"
    },
    {
      "inputs": [
        {
          "internalType": "address[]",
          "name": "path",
          "type": "address[]"
        },
        {
          "internalType": "uint256",
          "name": "amountOut",
          "type": "uint256"
        },
        {
          "internalType": "uint256",
          "name": "amountOutMin",
          "type": "uint256"
        }
      ],
      "name": "setStopLoss",
      "outputs": [],
      "stateMutability": "nonpayable",
      "type": "function"
    },
    {
      "inputs": [],
      "name": "slippage",
      "outputs": [
        {
          "internalType": "uint16",
          "name": "",
          "type": "uint16"
        }
      ],
      "stateMutability": "view",
      "type": "function"
    },
    {
      "inputs": [],
      "name": "staking",
      "outputs": [
        {
          "internalType": "contract IMasterChef2",
          "name": "",
          "type": "address"
        }
      ],
      "stateMutability": "view",
      "type": "function"
    },
    {
      "inputs": [],
      "name": "stakingToken",
      "outputs": [
        {
          "internalType": "contract IERC20",
          "name": "",
          "type": "address"
        }
      ],
      "stateMutability": "view",
      "type": "function"
    },
    {
      "inputs": [],
      "name": "stopLoss",
      "outputs": [
        {
          "internalType": "uint256",
          "name": "amountOut",
          "type": "uint256"
        },
        {
          "internalType": "uint256",
          "name": "amountOutMin",
          "type": "uint256"
        }
      ],
      "stateMutability": "view",
      "type": "function"
    },
    {
      "inputs": [
        {
          "internalType": "address",
          "name": "token",
          "type": "address"
        },
        {
          "internalType": "address",
          "name": "recipient",
          "type": "address"
        },
        {
          "internalType": "uint256",
          "name": "amount",
          "type": "uint256"
        }
      ],
      "name": "transfer",
      "outputs": [],
      "stateMutability": "nonpayable",
      "type": "function"
    },
    {
      "inputs": [
        {
          "internalType": "address",
          "name": "newOwner",
          "type": "address"
        }
      ],
      "name": "transferOwnership",
      "outputs": [],
      "stateMutability": "nonpayable",
      "type": "function"
    },
    {
      "inputs": [],
      "name": "unpause",
      "outputs": [],
      "stateMutability": "nonpayable",
      "type": "function"
    }
  ],
  "bytecode": "0x60806040523480156200001157600080fd5b506040516200496038038062004960833981016040819052620000349162000069565b600080546001600160a01b039092166001600160a01b031992831617905560018054909116321790556000196002556200009b565b6000602082840312156200007c57600080fd5b81516001600160a01b03811681146200009457600080fd5b9392505050565b6148b580620000ab6000396000f3fe608060405234801561001057600080fd5b50600436106101985760003560e01c80638456cb59116100e3578063b838d9141161008c578063db2e21bc11610066578063db2e21bc1461037d578063f2fde38b14610385578063f7c618c11461039857600080fd5b8063b838d9141461034f578063beabacc814610362578063d0e30db01461037557600080fd5b80639327d80a116100bd5780639327d80a146103215780639742b5c314610334578063b0e21e8a1461034757600080fd5b80638456cb59146102e85780638c3d8faf146102f05780638da5cb5b1461030357600080fd5b80633f4ba83a11610145578063590e1ae31161011f578063590e1ae3146102a05780635c975abb146102a857806372f702f3146102c057600080fd5b80633f4ba83a146102505780634cf088d914610258578063527a15651461027d57600080fd5b806329dcb0cf1161017657806329dcb0cf14610213578063370158ea1461023a5780633e032a3b1461024257600080fd5b806313ead7c61461019d57806316f0115b146101b257806324702944146101ce575b600080fd5b6101b06101ab3660046143c7565b6103b8565b005b6101bb60055481565b6040519081526020015b60405180910390f35b6004546101ee9073ffffffffffffffffffffffffffffffffffffffff1681565b60405173ffffffffffffffffffffffffffffffffffffffff90911681526020016101c5565b6006546102279062010000900461ffff1681565b60405161ffff90911681526020016101c5565b6101ee610812565b6006546102279061ffff1681565b6101b0610974565b6003546101ee90610100900473ffffffffffffffffffffffffffffffffffffffff1681565b600954600a5461028b919082565b604080519283526020830191909152016101c5565b6101b0610d06565b6102b06110cc565b60405190151581526020016101c5565b6006546101ee90640100000000900473ffffffffffffffffffffffffffffffffffffffff1681565b6101b0611251565b6101b06102fe366004614200565b6115fb565b60015473ffffffffffffffffffffffffffffffffffffffff166101ee565b6101b061032f3660046143a5565b611725565b6101b0610342366004614341565b611ab2565b6101bb611cec565b6101b061035d36600461419e565b6120f9565b6101b061037036600461415d565b612770565b6101b06128c5565b6101b0612adf565b6101b0610393366004614123565b612cf7565b6007546101ee9073ffffffffffffffffffffffffffffffffffffffff1681565b82604051806060016040528060238152602001614862602391396103dc8282612f56565b50600354600480546005546040517f1175a1dd0000000000000000000000000000000000000000000000000000000081529283015230602483015273ffffffffffffffffffffffffffffffffffffffff61010090930483169216906000908390631175a1dd9060440160206040518083038186803b15801561045d57600080fd5b505afa158015610471573d6000803e3d6000fd5b505050506040513d601f19601f82011682018060405250810190610495919061438c565b11610527576040517f08c379a000000000000000000000000000000000000000000000000000000000815260206004820152602860248201527f4d6173746572436865663253696e676c6552657374616b653a3a72756e3a206e60448201527f6f206561726e656400000000000000000000000000000000000000000000000060648201526084015b60405180910390fd5b6005546040517fe2bbb15800000000000000000000000000000000000000000000000000000000815260048101919091526000602482015273ffffffffffffffffffffffffffffffffffffffff83169063e2bbb15890604401600060405180830381600087803b15801561059a57600080fd5b505af11580156105ae573d6000803e3d6000fd5b50506007546040517f70a082310000000000000000000000000000000000000000000000000000000081523060048201526000935073ffffffffffffffffffffffffffffffffffffffff90911691506370a082319060240160206040518083038186803b15801561061e57600080fd5b505afa158015610632573d6000803e3d6000fd5b505050506040513d601f19601f82011682018060405250810190610656919061438c565b60075490915061067d9073ffffffffffffffffffffffffffffffffffffffff168383613228565b602086015186516106aa9173ffffffffffffffffffffffffffffffffffffffff851691849190308c613437565b506006546040517f70a0823100000000000000000000000000000000000000000000000000000000815230600482015264010000000090910473ffffffffffffffffffffffffffffffffffffffff169060009082906370a082319060240160206040518083038186803b15801561072057600080fd5b505afa158015610734573d6000803e3d6000fd5b505050506040513d601f19601f82011682018060405250810190610758919061438c565b905061077b73ffffffffffffffffffffffffffffffffffffffff83168683613228565b6005546040517fe2bbb15800000000000000000000000000000000000000000000000000000000815260048101919091526024810182905273ffffffffffffffffffffffffffffffffffffffff86169063e2bbb15890604401600060405180830381600087803b1580156107ee57600080fd5b505af1158015610802573d6000803e3d6000fd5b5050505050505050505050505050565b6040517f6b880718000000000000000000000000000000000000000000000000000000008152306004820152600090819073__$0fb85c1a108326fe5c0d8f2f5a241bc0e7$__90636b8807189060240160206040518083038186803b15801561087a57600080fd5b505af415801561088e573d6000803e3d6000fd5b505050506040513d601f19601f820116820180604052508101906108b29190614140565b905073ffffffffffffffffffffffffffffffffffffffff81163014156108f057505060005473ffffffffffffffffffffffffffffffffffffffff1690565b8073ffffffffffffffffffffffffffffffffffffffff1663370158ea6040518163ffffffff1660e01b815260040160206040518083038186803b15801561093657600080fd5b505afa15801561094a573d6000803e3d6000fd5b505050506040513d601f19601f8201168201806040525081019061096e9190614140565b91505090565b6040517f6b88071800000000000000000000000000000000000000000000000000000000815230600482018190529073__$0fb85c1a108326fe5c0d8f2f5a241bc0e7$__90636b8807189060240160206040518083038186803b1580156109da57600080fd5b505af41580156109ee573d6000803e3d6000fd5b505050506040513d601f19601f82011682018060405250810190610a129190614140565b73ffffffffffffffffffffffffffffffffffffffff161415610bc7576000610a38610812565b6040517f21f8a7210000000000000000000000000000000000000000000000000000000081527f689d13d8ed8ef1027633ba26e7121121cf427434450a529548f19bf175974395600482015273ffffffffffffffffffffffffffffffffffffffff91909116906321f8a7219060240160206040518083038186803b158015610abf57600080fd5b505afa158015610ad3573d6000803e3d6000fd5b505050506040513d601f19601f82011682018060405250810190610af79190614140565b60015490915073ffffffffffffffffffffffffffffffffffffffff16331480610b3557503373ffffffffffffffffffffffffffffffffffffffff8216145b610bc1576040517f08c379a000000000000000000000000000000000000000000000000000000000815260206004820152602260248201527f4175746f6d6174653a2063616c6c6572206973206e6f7420746865207061757360448201527f6572000000000000000000000000000000000000000000000000000000000000606482015260840161051e565b50610c6e565b60015473ffffffffffffffffffffffffffffffffffffffff163314610c6e576040517f08c379a000000000000000000000000000000000000000000000000000000000815260206004820152602260248201527f4175746f6d6174653a2063616c6c6572206973206e6f7420746865207061757360448201527f6572000000000000000000000000000000000000000000000000000000000000606482015260840161051e565b610c766110cc565b610cdc576040517f08c379a000000000000000000000000000000000000000000000000000000000815260206004820152601460248201527f4175746f6d6174653a206e6f7420706175736564000000000000000000000000604482015260640161051e565b600180547fffffffffffffffffffffff00ffffffffffffffffffffffffffffffffffffffff169055565b60015473ffffffffffffffffffffffffffffffffffffffff163314610dad576040517f08c379a000000000000000000000000000000000000000000000000000000000815260206004820152602160248201527f4175746f6d6174653a2063616c6c6572206973206e6f7420746865206f776e6560448201527f7200000000000000000000000000000000000000000000000000000000000000606482015260840161051e565b60035473ffffffffffffffffffffffffffffffffffffffff610100909104166000610ded60015473ffffffffffffffffffffffffffffffffffffffff1690565b6005546040517f93f1a40b000000000000000000000000000000000000000000000000000000008152600481019190915230602482015290915060009073ffffffffffffffffffffffffffffffffffffffff8416906393f1a40b90604401604080518083038186803b158015610e6257600080fd5b505afa158015610e76573d6000803e3d6000fd5b505050506040513d601f19601f82011682018060405250810190610e9a919061435a565b60055481516040517f441a3e700000000000000000000000000000000000000000000000000000000081526004810192909252602482015290915073ffffffffffffffffffffffffffffffffffffffff84169063441a3e7090604401600060405180830381600087803b158015610f1057600080fd5b505af1158015610f24573d6000803e3d6000fd5b50506006546040517f70a08231000000000000000000000000000000000000000000000000000000008152306004820152610fff935085925064010000000090910473ffffffffffffffffffffffffffffffffffffffff16906370a08231906024015b60206040518083038186803b158015610f9f57600080fd5b505afa158015610fb3573d6000803e3d6000fd5b505050506040513d601f19601f82011682018060405250810190610fd7919061438c565b600654640100000000900473ffffffffffffffffffffffffffffffffffffffff169190613587565b6007546040517f70a082310000000000000000000000000000000000000000000000000000000081523060048201526110c791849173ffffffffffffffffffffffffffffffffffffffff909116906370a08231906024015b60206040518083038186803b15801561106f57600080fd5b505afa158015611083573d6000803e3d6000fd5b505050506040513d601f19601f820116820180604052508101906110a7919061438c565b60075473ffffffffffffffffffffffffffffffffffffffff169190613587565b505050565b6040517f6b880718000000000000000000000000000000000000000000000000000000008152306004820152600090819073__$0fb85c1a108326fe5c0d8f2f5a241bc0e7$__90636b8807189060240160206040518083038186803b15801561113457600080fd5b505af4158015611148573d6000803e3d6000fd5b505050506040513d601f19601f8201168201806040525081019061116c9190614140565b905073ffffffffffffffffffffffffffffffffffffffff81163014156111af57505060015474010000000000000000000000000000000000000000900460ff1690565b60015474010000000000000000000000000000000000000000900460ff168061096e57508073ffffffffffffffffffffffffffffffffffffffff16635c975abb6040518163ffffffff1660e01b815260040160206040518083038186803b15801561121957600080fd5b505afa15801561122d573d6000803e3d6000fd5b505050506040513d601f19601f8201168201806040525081019061096e919061431f565b6040517f6b88071800000000000000000000000000000000000000000000000000000000815230600482018190529073__$0fb85c1a108326fe5c0d8f2f5a241bc0e7$__90636b8807189060240160206040518083038186803b1580156112b757600080fd5b505af41580156112cb573d6000803e3d6000fd5b505050506040513d601f19601f820116820180604052508101906112ef9190614140565b73ffffffffffffffffffffffffffffffffffffffff1614156114a4576000611315610812565b6040517f21f8a7210000000000000000000000000000000000000000000000000000000081527f689d13d8ed8ef1027633ba26e7121121cf427434450a529548f19bf175974395600482015273ffffffffffffffffffffffffffffffffffffffff91909116906321f8a7219060240160206040518083038186803b15801561139c57600080fd5b505afa1580156113b0573d6000803e3d6000fd5b505050506040513d601f19601f820116820180604052508101906113d49190614140565b60015490915073ffffffffffffffffffffffffffffffffffffffff1633148061141257503373ffffffffffffffffffffffffffffffffffffffff8216145b61149e576040517f08c379a000000000000000000000000000000000000000000000000000000000815260206004820152602260248201527f4175746f6d6174653a2063616c6c6572206973206e6f7420746865207061757360448201527f6572000000000000000000000000000000000000000000000000000000000000606482015260840161051e565b5061154b565b60015473ffffffffffffffffffffffffffffffffffffffff16331461154b576040517f08c379a000000000000000000000000000000000000000000000000000000000815260206004820152602260248201527f4175746f6d6174653a2063616c6c6572206973206e6f7420746865207061757360448201527f6572000000000000000000000000000000000000000000000000000000000000606482015260840161051e565b6115536110cc565b156115ba576040517f08c379a000000000000000000000000000000000000000000000000000000000815260206004820152601060248201527f4175746f6d6174653a2070617573656400000000000000000000000000000000604482015260640161051e565b600180547fffffffffffffffffffffff00ffffffffffffffffffffffffffffffffffffffff1674010000000000000000000000000000000000000000179055565b60015473ffffffffffffffffffffffffffffffffffffffff1633146116a2576040517f08c379a000000000000000000000000000000000000000000000000000000000815260206004820152602160248201527f4175746f6d6174653a2063616c6c6572206973206e6f7420746865206f776e6560448201527f7200000000000000000000000000000000000000000000000000000000000000606482015260840161051e565b60405180606001604052808585808060200260200160405190810160405280939291908181526020018383602002808284376000920191909152505050908252506020808201859052604090910183905281518051600892611708928492910190614053565b506020820151600182015560409091015160029091015550505050565b81604051806060016040528060248152602001614885602491396117498282612f56565b506003546005546040517f93f1a40b0000000000000000000000000000000000000000000000000000000081526004810182905230602482015261010090920473ffffffffffffffffffffffffffffffffffffffff169163441a3e70919083906393f1a40b90604401604080518083038186803b1580156117c957600080fd5b505afa1580156117dd573d6000803e3d6000fd5b505050506040513d601f19601f82011682018060405250810190611801919061435a565b5160405160e084901b7fffffffff0000000000000000000000000000000000000000000000000000000016815260048101929092526024820152604401600060405180830381600087803b15801561185857600080fd5b505af115801561186c573d6000803e3d6000fd5b50600092506001915061187c9050565b6040519080825280602002602001820160405280156118a5578160200160208202803683370190505b509050600660049054906101000a900473ffffffffffffffffffffffffffffffffffffffff16816000815181106118de576118de6147e1565b73ffffffffffffffffffffffffffffffffffffffff9283166020918202929092010152600454611913916008911683876135dd565b600061193460015473ffffffffffffffffffffffffffffffffffffffff1690565b6008805491925060009161194a9060019061474f565b8154811061195a5761195a6147e1565b6000918252602090912001546040517f70a0823100000000000000000000000000000000000000000000000000000000815230600482015273ffffffffffffffffffffffffffffffffffffffff9091169150611a2b90839083906370a082319060240160206040518083038186803b1580156119d557600080fd5b505afa1580156119e9573d6000803e3d6000fd5b505050506040513d601f19601f82011682018060405250810190611a0d919061438c565b73ffffffffffffffffffffffffffffffffffffffff84169190613587565b60075473ffffffffffffffffffffffffffffffffffffffff828116911614611aa9576007546040517f70a08231000000000000000000000000000000000000000000000000000000008152306004820152611aa991849173ffffffffffffffffffffffffffffffffffffffff909116906370a0823190602401611057565b50505050505050565b6040517f6b88071800000000000000000000000000000000000000000000000000000000815230600482015260009073__$0fb85c1a108326fe5c0d8f2f5a241bc0e7$__90636b8807189060240160206040518083038186803b158015611b1857600080fd5b505af4158015611b2c573d6000803e3d6000fd5b505050506040513d601f19601f82011682018060405250810190611b509190614140565b90503373ffffffffffffffffffffffffffffffffffffffff82163014611bf3578173ffffffffffffffffffffffffffffffffffffffff16638da5cb5b6040518163ffffffff1660e01b815260040160206040518083038186803b158015611bb657600080fd5b505afa158015611bca573d6000803e3d6000fd5b505050506040513d601f19601f82011682018060405250810190611bee9190614140565b611c0d565b60015473ffffffffffffffffffffffffffffffffffffffff165b73ffffffffffffffffffffffffffffffffffffffff1614611cb0576040517f08c379a000000000000000000000000000000000000000000000000000000000815260206004820152603d60248201527f4175746f6d6174653a3a6368616e676550726f746f636f6c4665653a2063616c60448201527f6c6572206973206e6f74207468652070726f746f636f6c206f776e6572000000606482015260840161051e565b60028290556040518281527f3c1d43943224e49d951ce8295a5c8332b517083b3f89bed50feae2cb39caebb59060200160405180910390a15050565b6040517f6b880718000000000000000000000000000000000000000000000000000000008152306004820152600090819073__$0fb85c1a108326fe5c0d8f2f5a241bc0e7$__90636b8807189060240160206040518083038186803b158015611d5457600080fd5b505af4158015611d68573d6000803e3d6000fd5b505050506040513d601f19601f82011682018060405250810190611d8c9190614140565b905073ffffffffffffffffffffffffffffffffffffffff81163014801590611db657506000600254125b15611e39578073ffffffffffffffffffffffffffffffffffffffff1663b0e21e8a6040518163ffffffff1660e01b815260040160206040518083038186803b158015611e0157600080fd5b505afa158015611e15573d6000803e3d6000fd5b505050506040513d601f19601f8201168201806040525081019061096e919061438c565b6000611e43610812565b905060008060025412611e5857600254611f15565b6040517fbd02d0f50000000000000000000000000000000000000000000000000000000081527fa93d95f96a5de25d7a41ddf1f5e8d45cfc929c4838163cf011dab4043a4a40d5600482015273ffffffffffffffffffffffffffffffffffffffff83169063bd02d0f59060240160206040518083038186803b158015611edd57600080fd5b505afa158015611ef1573d6000803e3d6000fd5b505050506040513d601f19601f82011682018060405250810190611f15919061438c565b905080611f26576000935050505090565b6040517f21f8a7210000000000000000000000000000000000000000000000000000000081527f65c90423fe7c880476633a7e36521740f87199d233dc56eb4ca6643eb76f605f600482015260009073ffffffffffffffffffffffffffffffffffffffff8416906321f8a7219060240160206040518083038186803b158015611fae57600080fd5b505afa158015611fc2573d6000803e3d6000fd5b505050506040513d601f19601f82011682018060405250810190611fe69190614140565b73ffffffffffffffffffffffffffffffffffffffff1663feaf968c6040518163ffffffff1660e01b815260040160a06040518083038186803b15801561202b57600080fd5b505afa15801561203f573d6000803e3d6000fd5b505050506040513d601f19601f8201168201806040525081019061206391906144b8565b505050915050600081136120d3576040517f08c379a000000000000000000000000000000000000000000000000000000000815260206004820152601760248201527f4175746f6d6174653a20696e76616c6964207072696365000000000000000000604482015260640161051e565b806120e683670de0b6b3a7640000614712565b6120f091906146d7565b94505050505090565b60015473ffffffffffffffffffffffffffffffffffffffff1661216957600180547fffffffffffffffffffffffff000000000000000000000000000000000000000016321790557fffffffffffffffffffffffffffffffffffffffffffffffffffffffffffffffff600255612210565b60015473ffffffffffffffffffffffffffffffffffffffff163314612210576040517f08c379a000000000000000000000000000000000000000000000000000000000815260206004820152602160248201527f4175746f6d6174653a2063616c6c6572206973206e6f7420746865206f776e6560448201527f7200000000000000000000000000000000000000000000000000000000000000606482015260840161051e565b60035460ff161580612241575060035473ffffffffffffffffffffffffffffffffffffffff86811661010090920416145b6122f3576040517f08c379a000000000000000000000000000000000000000000000000000000000815260206004820152604660248201527f4d6173746572436865663253696e676c6552657374616b653a3a696e69743a2060448201527f7265696e697469616c697a65207374616b696e67206164647265737320666f7260648201527f62696464656e0000000000000000000000000000000000000000000000000000608482015260a40161051e565b6003805473ffffffffffffffffffffffffffffffffffffffff8716610100027fffffffffffffffffffffff0000000000000000000000000000000000000000ff8216811790925560ff9182169116171580612368575060045473ffffffffffffffffffffffffffffffffffffffff8581169116145b61241a576040517f08c379a000000000000000000000000000000000000000000000000000000000815260206004820152604f60248201527f4d6173746572436865663253696e676c6552657374616b653a3a696e69743a2060448201527f7265696e697469616c697a65206c697175696469747920726f7574657220616460648201527f647265737320666f7262696464656e0000000000000000000000000000000000608482015260a40161051e565b600480547fffffffffffffffffffffffff00000000000000000000000000000000000000001673ffffffffffffffffffffffffffffffffffffffff861617905560035460ff16158061246d575082600554145b61251f576040517f08c379a000000000000000000000000000000000000000000000000000000000815260206004820152604160248201527f4d6173746572436865663253696e676c6552657374616b653a3a696e69743a2060448201527f7265696e697469616c697a6520706f6f6c20696e64657820666f72626964646560648201527f6e00000000000000000000000000000000000000000000000000000000000000608482015260a40161051e565b60058390556006805461ffff83811662010000027fffffffffffffffffffffffffffffffffffffffffffffffffffffffff000000009092169085161717905560035460ff1661273e576003546005546040517f78ed5d1f0000000000000000000000000000000000000000000000000000000081526004810191909152600091610100900473ffffffffffffffffffffffffffffffffffffffff16906378ed5d1f9060240160206040518083038186803b1580156125dc57600080fd5b505afa1580156125f0573d6000803e3d6000fd5b505050506040513d601f19601f820116820180604052508101906126149190614140565b905080600660046101000a81548173ffffffffffffffffffffffffffffffffffffffff021916908373ffffffffffffffffffffffffffffffffffffffff160217905550600360019054906101000a900473ffffffffffffffffffffffffffffffffffffffff1673ffffffffffffffffffffffffffffffffffffffff16634ca6ef286040518163ffffffff1660e01b815260040160206040518083038186803b1580156126bf57600080fd5b505afa1580156126d3573d6000803e3d6000fd5b505050506040513d601f19601f820116820180604052508101906126f79190614140565b600780547fffffffffffffffffffffffff00000000000000000000000000000000000000001673ffffffffffffffffffffffffffffffffffffffff92909216919091179055505b5050600380547fffffffffffffffffffffffffffffffffffffffffffffffffffffffffffffff00166001179055505050565b60015473ffffffffffffffffffffffffffffffffffffffff163314612817576040517f08c379a000000000000000000000000000000000000000000000000000000000815260206004820152602160248201527f4175746f6d6174653a2063616c6c6572206973206e6f7420746865206f776e6560448201527f7200000000000000000000000000000000000000000000000000000000000000606482015260840161051e565b6040517fa9059cbb00000000000000000000000000000000000000000000000000000000815273ffffffffffffffffffffffffffffffffffffffff83811660048301526024820183905284169063a9059cbb90604401602060405180830381600087803b15801561288757600080fd5b505af115801561289b573d6000803e3d6000fd5b505050506040513d601f19601f820116820180604052508101906128bf919061431f565b50505050565b60015473ffffffffffffffffffffffffffffffffffffffff16331461296c576040517f08c379a000000000000000000000000000000000000000000000000000000000815260206004820152602160248201527f4175746f6d6174653a2063616c6c6572206973206e6f7420746865206f776e6560448201527f7200000000000000000000000000000000000000000000000000000000000000606482015260840161051e565b6006546040517f70a0823100000000000000000000000000000000000000000000000000000000815230600482015264010000000090910473ffffffffffffffffffffffffffffffffffffffff169060009082906370a082319060240160206040518083038186803b1580156129e157600080fd5b505afa1580156129f5573d6000803e3d6000fd5b505050506040513d601f19601f82011682018060405250810190612a19919061438c565b600354909150612a489073ffffffffffffffffffffffffffffffffffffffff8481169161010090041683613228565b6003546005546040517fe2bbb15800000000000000000000000000000000000000000000000000000000815260048101919091526024810183905261010090910473ffffffffffffffffffffffffffffffffffffffff169063e2bbb15890604401600060405180830381600087803b158015612ac357600080fd5b505af1158015612ad7573d6000803e3d6000fd5b505050505050565b60015473ffffffffffffffffffffffffffffffffffffffff163314612b86576040517f08c379a000000000000000000000000000000000000000000000000000000000815260206004820152602160248201527f4175746f6d6174653a2063616c6c6572206973206e6f7420746865206f776e6560448201527f7200000000000000000000000000000000000000000000000000000000000000606482015260840161051e565b6000612ba760015473ffffffffffffffffffffffffffffffffffffffff1690565b6003546005546040517f5312ea8e0000000000000000000000000000000000000000000000000000000081526004810191909152919250610100900473ffffffffffffffffffffffffffffffffffffffff1690635312ea8e90602401600060405180830381600087803b158015612c1d57600080fd5b505af1158015612c31573d6000803e3d6000fd5b50506006546040517f70a08231000000000000000000000000000000000000000000000000000000008152306004820152612c98935084925064010000000090910473ffffffffffffffffffffffffffffffffffffffff16906370a0823190602401610f87565b6007546040517f70a08231000000000000000000000000000000000000000000000000000000008152306004820152612cf491839173ffffffffffffffffffffffffffffffffffffffff909116906370a0823190602401611057565b50565b60015473ffffffffffffffffffffffffffffffffffffffff163314612d9e576040517f08c379a000000000000000000000000000000000000000000000000000000000815260206004820152602160248201527f4175746f6d6174653a2063616c6c6572206973206e6f7420746865206f776e6560448201527f7200000000000000000000000000000000000000000000000000000000000000606482015260840161051e565b6040517f6b88071800000000000000000000000000000000000000000000000000000000815230600482018190529073__$0fb85c1a108326fe5c0d8f2f5a241bc0e7$__90636b8807189060240160206040518083038186803b158015612e0457600080fd5b505af4158015612e18573d6000803e3d6000fd5b505050506040513d601f19601f82011682018060405250810190612e3c9190614140565b73ffffffffffffffffffffffffffffffffffffffff1614612edf576040517f08c379a000000000000000000000000000000000000000000000000000000000815260206004820152602160248201527f4175746f6d6174653a206368616e676520746865206f776e6572206661696c6560448201527f6400000000000000000000000000000000000000000000000000000000000000606482015260840161051e565b6001805473ffffffffffffffffffffffffffffffffffffffff8381167fffffffffffffffffffffffff0000000000000000000000000000000000000000831681179093556040519116919082907f8be0079c531659141344cd1fd0a4f28419497f9722a3daafe3b4186f6b6457e090600090a35050565b6000612f606110cc565b15612fc7576040517f08c379a000000000000000000000000000000000000000000000000000000000815260206004820152601060248201527f4175746f6d6174653a2070617573656400000000000000000000000000000000604482015260640161051e565b6000612fe860015473ffffffffffffffffffffffffffffffffffffffff1690565b90503273ffffffffffffffffffffffffffffffffffffffff82161415613012576000915050613222565b600061301c610812565b6040517f21f8a7210000000000000000000000000000000000000000000000000000000081527fe78c16c6d839536d3155985aab4e9c6013c8c3d446054bcebc48612f359d81f5600482015290915060009073ffffffffffffffffffffffffffffffffffffffff8316906321f8a7219060240160206040518083038186803b1580156130a757600080fd5b505afa1580156130bb573d6000803e3d6000fd5b505050506040513d601f19601f820116820180604052508101906130df9190614140565b905073ffffffffffffffffffffffffffffffffffffffff8116613184576040517f08c379a000000000000000000000000000000000000000000000000000000000815260206004820152602b60248201527f4175746f6d6174653a3a5f62696c6c3a2062616c616e636520636f6e7472616360448201527f74206e6f7420666f756e64000000000000000000000000000000000000000000606482015260840161051e565b8073ffffffffffffffffffffffffffffffffffffffff1663e578a22584886131aa611cec565b896040518563ffffffff1660e01b81526004016131ca9493929190614562565b602060405180830381600087803b1580156131e457600080fd5b505af11580156131f8573d6000803e3d6000fd5b505050506040513d601f19601f8201168201806040525081019061321c919061438c565b93505050505b92915050565b8015806132d757506040517fdd62ed3e00000000000000000000000000000000000000000000000000000000815230600482015273ffffffffffffffffffffffffffffffffffffffff838116602483015284169063dd62ed3e9060440160206040518083038186803b15801561329d57600080fd5b505afa1580156132b1573d6000803e3d6000fd5b505050506040513d601f19601f820116820180604052508101906132d5919061438c565b155b613363576040517f08c379a000000000000000000000000000000000000000000000000000000000815260206004820152603660248201527f5361666545524332303a20617070726f76652066726f6d206e6f6e2d7a65726f60448201527f20746f206e6f6e2d7a65726f20616c6c6f77616e636500000000000000000000606482015260840161051e565b60405173ffffffffffffffffffffffffffffffffffffffff83166024820152604481018290526110c79084907f095ea7b300000000000000000000000000000000000000000000000000000000906064015b604080517fffffffffffffffffffffffffffffffffffffffffffffffffffffffffffffffe08184030181529190526020810180517bffffffffffffffffffffffffffffffffffffffffffffffffffffffff167fffffffff0000000000000000000000000000000000000000000000000000000090931692909217909152613d5b565b60608360018551613448919061474f565b81518110613458576134586147e1565b602002602001015173ffffffffffffffffffffffffffffffffffffffff1684600081518110613489576134896147e1565b602002602001015173ffffffffffffffffffffffffffffffffffffffff161461357d576040517f38ed173900000000000000000000000000000000000000000000000000000000815273ffffffffffffffffffffffffffffffffffffffff8816906338ed17399061350690899089908990899089906004016145b0565b600060405180830381600087803b15801561352057600080fd5b505af1158015613534573d6000803e3d6000fd5b505050506040513d6000823e601f3d9081017fffffffffffffffffffffffffffffffffffffffffffffffffffffffffffffffe016820160405261357a9190810190614282565b90505b9695505050505050565b60405173ffffffffffffffffffffffffffffffffffffffff83166024820152604481018290526110c79084907fa9059cbb00000000000000000000000000000000000000000000000000000000906064016133b5565b835460011080156135f2575060008460010154115b61367e576040517f08c379a000000000000000000000000000000000000000000000000000000000815260206004820152602160248201527f53746f704c6f73733a3a72756e3a2073746f70206c6f73732064697361626c6560448201527f6400000000000000000000000000000000000000000000000000000000000000606482015260840161051e565b61010082511115613711576040517f08c379a000000000000000000000000000000000000000000000000000000000815260206004820152602160248201527f53746f704c6f73733a3a72756e3a20746f6f206d616e7920696e20746f6b656e60448201527f7300000000000000000000000000000000000000000000000000000000000000606482015260840161051e565b60005b82518160ff161015613966576000838260ff1681518110613737576137376147e1565b6020026020010151905085600001600081548110613757576137576147e1565b60009182526020909120015473ffffffffffffffffffffffffffffffffffffffff828116911614156137895750613954565b6040517f70a0823100000000000000000000000000000000000000000000000000000000815230600482015260009073ffffffffffffffffffffffffffffffffffffffff8316906370a082319060240160206040518083038186803b1580156137f157600080fd5b505afa158015613805573d6000803e3d6000fd5b505050506040513d601f19601f82011682018060405250810190613829919061438c565b905080613837575050613954565b604080516002808252606082018352600092602083019080368337019050509050828160008151811061386c5761386c6147e1565b602002602001019073ffffffffffffffffffffffffffffffffffffffff16908173ffffffffffffffffffffffffffffffffffffffff1681525050876000016000815481106138bc576138bc6147e1565b9060005260206000200160009054906101000a900473ffffffffffffffffffffffffffffffffffffffff16816001815181106138fa576138fa6147e1565b73ffffffffffffffffffffffffffffffffffffffff928316602091820292909201015261392a9084168884613228565b61394f73ffffffffffffffffffffffffffffffffffffffff881683600084308a613437565b505050505b8061395e81614792565b915050613714565b5060008460000160008154811061397f5761397f6147e1565b60009182526020822001546040517f70a0823100000000000000000000000000000000000000000000000000000000815230600482015273ffffffffffffffffffffffffffffffffffffffff909116925082906370a082319060240160206040518083038186803b1580156139f357600080fd5b505afa158015613a07573d6000803e3d6000fd5b505050506040513d601f19601f82011682018060405250810190613a2b919061438c565b86549091506000908790613a419060019061474f565b81548110613a5157613a516147e1565b60009182526020909120015473ffffffffffffffffffffffffffffffffffffffff848116911614613c895760008211613b0c576040517f08c379a000000000000000000000000000000000000000000000000000000000815260206004820152603160248201527f53746f704c6f73733a3a72756e3a20696e73756666696369656e742062616c6160448201527f6e6365206f66206261736520746f6b656e000000000000000000000000000000606482015260840161051e565b613b2d73ffffffffffffffffffffffffffffffffffffffff84168784613228565b6000613bc58389600201548a600001805480602002602001604051908101604052809291908181526020018280548015613b9d57602002820191906000526020600020905b815473ffffffffffffffffffffffffffffffffffffffff168152600190910190602001808311613b72575b50505073ffffffffffffffffffffffffffffffffffffffff8d1694939291503090508a613437565b90508060018251613bd6919061474f565b81518110613be657613be66147e1565b602002602001015191508760010154821115613c83576040517f08c379a0000000000000000000000000000000000000000000000000000000008152602060048201526024808201527f53746f704c6f73733a3a72756e3a20696e76616c6964206f757470757420616d60448201527f6f756e7400000000000000000000000000000000000000000000000000000000606482015260840161051e565b50613d1f565b8190508660010154811115613d1f576040517f08c379a0000000000000000000000000000000000000000000000000000000008152602060048201526024808201527f53746f704c6f73733a3a72756e3a20696e76616c6964206f757470757420616d60448201527f6f756e7400000000000000000000000000000000000000000000000000000000606482015260840161051e565b6040518181527ff22ed879bd57fced893edba2366c8143c0d7c2e585eafd2521c2832159d557f19060200160405180910390a150505050505050565b6000613dbd826040518060400160405280602081526020017f5361666545524332303a206c6f772d6c6576656c2063616c6c206661696c65648152508573ffffffffffffffffffffffffffffffffffffffff16613e679092919063ffffffff16565b8051909150156110c75780806020019051810190613ddb919061431f565b6110c7576040517f08c379a000000000000000000000000000000000000000000000000000000000815260206004820152602a60248201527f5361666545524332303a204552433230206f7065726174696f6e20646964206e60448201527f6f74207375636365656400000000000000000000000000000000000000000000606482015260840161051e565b6060613e768484600085613e80565b90505b9392505050565b606082471015613f12576040517f08c379a000000000000000000000000000000000000000000000000000000000815260206004820152602660248201527f416464726573733a20696e73756666696369656e742062616c616e636520666f60448201527f722063616c6c0000000000000000000000000000000000000000000000000000606482015260840161051e565b843b613f7a576040517f08c379a000000000000000000000000000000000000000000000000000000000815260206004820152601d60248201527f416464726573733a2063616c6c20746f206e6f6e2d636f6e7472616374000000604482015260640161051e565b6000808673ffffffffffffffffffffffffffffffffffffffff168587604051613fa39190614546565b60006040518083038185875af1925050503d8060008114613fe0576040519150601f19603f3d011682016040523d82523d6000602084013e613fe5565b606091505b5091509150613ff5828286614000565b979650505050505050565b6060831561400f575081613e79565b82511561401f5782518084602001fd5b816040517f08c379a000000000000000000000000000000000000000000000000000000000815260040161051e919061459d565b8280548282559060005260206000209081019282156140cd579160200282015b828111156140cd57825182547fffffffffffffffffffffffff00000000000000000000000000000000000000001673ffffffffffffffffffffffffffffffffffffffff909116178255602090920191600190910190614073565b506140d99291506140dd565b5090565b5b808211156140d957600081556001016140de565b803561ffff8116811461410457600080fd5b919050565b805169ffffffffffffffffffff8116811461410457600080fd5b60006020828403121561413557600080fd5b8135613e798161483f565b60006020828403121561415257600080fd5b8151613e798161483f565b60008060006060848603121561417257600080fd5b833561417d8161483f565b9250602084013561418d8161483f565b929592945050506040919091013590565b600080600080600060a086880312156141b657600080fd5b85356141c18161483f565b945060208601356141d18161483f565b9350604086013592506141e6606087016140f2565b91506141f4608087016140f2565b90509295509295909350565b6000806000806060858703121561421657600080fd5b843567ffffffffffffffff8082111561422e57600080fd5b818701915087601f83011261424257600080fd5b81358181111561425157600080fd5b8860208260051b850101111561426657600080fd5b6020928301999098509187013596604001359550909350505050565b6000602080838503121561429557600080fd5b825167ffffffffffffffff8111156142ac57600080fd5b8301601f810185136142bd57600080fd5b80516142d06142cb826146b3565b614664565b80828252848201915084840188868560051b87010111156142f057600080fd5b600094505b838510156143135780518352600194909401939185019185016142f5565b50979650505050505050565b60006020828403121561433157600080fd5b81518015158114613e7957600080fd5b60006020828403121561435357600080fd5b5035919050565b60006040828403121561436c57600080fd5b61437461463b565b82518152602083015160208201528091505092915050565b60006020828403121561439e57600080fd5b5051919050565b600080604083850312156143b857600080fd5b50508035926020909101359150565b6000806000606084860312156143dc57600080fd5b833592506020808501359250604085013567ffffffffffffffff8082111561440357600080fd5b908601906040828903121561441757600080fd5b61441f61463b565b82358281111561442e57600080fd5b83019150601f8201891361444157600080fd5b813561444f6142cb826146b3565b8082825286820191508685018c888560051b880101111561446f57600080fd5b600095505b8386101561449b5780356144878161483f565b835260019590950194918701918701614474565b508084525050508383013584820152809450505050509250925092565b600080600080600060a086880312156144d057600080fd5b6144d986614109565b94506020860151935060408601519250606086015191506141f460808701614109565b60008151808452614514816020860160208601614766565b601f017fffffffffffffffffffffffffffffffffffffffffffffffffffffffffffffffe0169290920160200192915050565b60008251614558818460208701614766565b9190910192915050565b73ffffffffffffffffffffffffffffffffffffffff8516815283602082015282604082015260806060820152600061357d60808301846144fc565b602081526000613e7960208301846144fc565b600060a082018783526020878185015260a0604085015281875180845260c086019150828901935060005b8181101561460d57845173ffffffffffffffffffffffffffffffffffffffff16835293830193918301916001016145db565b505073ffffffffffffffffffffffffffffffffffffffff969096166060850152505050608001529392505050565b6040805190810167ffffffffffffffff8111828210171561465e5761465e614810565b60405290565b604051601f82017fffffffffffffffffffffffffffffffffffffffffffffffffffffffffffffffe016810167ffffffffffffffff811182821017156146ab576146ab614810565b604052919050565b600067ffffffffffffffff8211156146cd576146cd614810565b5060051b60200190565b60008261470d577f4e487b7100000000000000000000000000000000000000000000000000000000600052601260045260246000fd5b500490565b6000817fffffffffffffffffffffffffffffffffffffffffffffffffffffffffffffffff048311821515161561474a5761474a6147b2565b500290565b600082821015614761576147616147b2565b500390565b60005b83811015614781578181015183820152602001614769565b838111156128bf5750506000910152565b600060ff821660ff8114156147a9576147a96147b2565b60010192915050565b7f4e487b7100000000000000000000000000000000000000000000000000000000600052601160045260246000fd5b7f4e487b7100000000000000000000000000000000000000000000000000000000600052603260045260246000fd5b7f4e487b7100000000000000000000000000000000000000000000000000000000600052604160045260246000fd5b73ffffffffffffffffffffffffffffffffffffffff81168114612cf457600080fdfe50616e63616b65537761704d6173746572436865663253696e676c6552657374616b6550616e63616b65537761704d6173746572436865663253696e676c6553746f704c6f7373a164736f6c6343000806000a",
  "linkReferences": {
    "contracts/utils/DFH/proxy/ERC1167.sol": {
      "ERC1167": [
        {
          "length": 20,
          "start": 2288
        },
        {
          "length": 20,
          "start": 2640
        },
        {
          "length": 20,
          "start": 4522
        },
        {
          "length": 20,
          "start": 4909
        },
        {
          "length": 20,
          "start": 7054
        },
        {
          "length": 20,
          "start": 7626
        },
        {
          "length": 20,
          "start": 11898
        }
      ]
    }
  },
  "deployedLinkReferences": {
    "contracts/utils/DFH/proxy/ERC1167.sol": {
      "ERC1167": [
        {
          "length": 20,
          "start": 2117
        },
        {
          "length": 20,
          "start": 2469
        },
        {
          "length": 20,
          "start": 4351
        },
        {
          "length": 20,
          "start": 4738
        },
        {
          "length": 20,
          "start": 6883
        },
        {
          "length": 20,
          "start": 7455
        },
        {
          "length": 20,
          "start": 11727
        }
      ]
    }
  }
}