{
  "_format": "hh-sol-artifact-1",
  "contractName": "AutomateMock",
  "sourceName": "automates/utils/DFH/mock/AutomateMock.sol",
  "abi": [
    {
      "inputs": [
        {
          "internalType": "address",
          "name": "_info",
          "type": "address"
        }
      ],
      "stateMutability": "nonpayable",
      "type": "constructor"
    },
    {
      "anonymous": false,
      "inputs": [
        {
          "indexed": true,
          "internalType": "address",
          "name": "previousOwner",
          "type": "address"
        },
        {
          "indexed": true,
          "internalType": "address",
          "name": "newOwner",
          "type": "address"
        }
      ],
      "name": "OwnershipTransferred",
      "type": "event"
    },
    {
      "inputs": [],
      "name": "info",
      "outputs": [
        {
          "internalType": "address",
          "name": "",
          "type": "address"
        }
      ],
      "stateMutability": "view",
      "type": "function"
    },
    {
      "inputs": [
        {
          "internalType": "address",
          "name": "_staking",
          "type": "address"
        }
      ],
      "name": "init",
      "outputs": [],
      "stateMutability": "nonpayable",
      "type": "function"
    },
    {
      "inputs": [],
      "name": "owner",
      "outputs": [
        {
          "internalType": "address",
          "name": "",
          "type": "address"
        }
      ],
      "stateMutability": "view",
      "type": "function"
    },
    {
      "inputs": [],
      "name": "pause",
      "outputs": [],
      "stateMutability": "nonpayable",
      "type": "function"
    },
    {
      "inputs": [],
      "name": "paused",
      "outputs": [
        {
          "internalType": "bool",
          "name": "",
          "type": "bool"
        }
      ],
      "stateMutability": "view",
      "type": "function"
    },
    {
      "inputs": [
        {
          "internalType": "uint256",
          "name": "gasFee",
          "type": "uint256"
        },
        {
          "internalType": "uint256",
          "name": "x",
          "type": "uint256"
        },
        {
          "internalType": "uint256",
          "name": "y",
          "type": "uint256"
        }
      ],
      "name": "run",
      "outputs": [
        {
          "internalType": "uint256",
          "name": "",
          "type": "uint256"
        }
      ],
      "stateMutability": "nonpayable",
      "type": "function"
    },
    {
      "inputs": [],
      "name": "staking",
      "outputs": [
        {
          "internalType": "address",
          "name": "",
          "type": "address"
        }
      ],
      "stateMutability": "view",
      "type": "function"
    },
    {
      "inputs": [
        {
          "internalType": "address",
          "name": "token",
          "type": "address"
        },
        {
          "internalType": "address",
          "name": "recipient",
          "type": "address"
        },
        {
          "internalType": "uint256",
          "name": "amount",
          "type": "uint256"
        }
      ],
      "name": "transfer",
      "outputs": [],
      "stateMutability": "nonpayable",
      "type": "function"
    },
    {
      "inputs": [
        {
          "internalType": "address",
          "name": "newOwner",
          "type": "address"
        }
      ],
      "name": "transferOwnership",
      "outputs": [],
      "stateMutability": "nonpayable",
      "type": "function"
    },
    {
      "inputs": [],
      "name": "unpause",
      "outputs": [],
      "stateMutability": "nonpayable",
      "type": "function"
    }
  ],
  "bytecode": "0x608060405234801561001057600080fd5b506040516110c93803806110c983398101604081905261002f9161006e565b600080546001600160a01b03909216620100000262010000600160b01b0319909216919091179055600180546001600160a01b0319163217905561009e565b60006020828403121561008057600080fd5b81516001600160a01b038116811461009757600080fd5b9392505050565b61101c806100ad6000396000f3fe608060405234801561001057600080fd5b506004361061009e5760003560e01c80635c975abb116100665780635c975abb146101195780638456cb59146101315780638da5cb5b14610139578063beabacc81461014a578063f2fde38b1461015d57600080fd5b806319ab453c146100a357806324b912e5146100b8578063370158ea146100de5780633f4ba83a146100fe5780634cf088d914610106575b600080fd5b6100b66100b1366004610dc9565b610170565b005b6100cb6100c6366004610e86565b610252565b6040519081526020015b60405180910390f35b6100e661029d565b6040516001600160a01b0390911681526020016100d5565b6100b66103c5565b6002546100e6906001600160a01b031681565b6101216105c6565b60405190151581526020016100d5565b6100b66106f6565b6001546001600160a01b03166100e6565b6100b6610158366004610e0a565b6108fa565b6100b661016b366004610dc9565b6109ac565b600054610100900460ff1680610189575060005460ff16155b6101f15760405162461bcd60e51b815260206004820152602e60248201527f496e697469616c697a61626c653a20636f6e747261637420697320616c72656160448201526d191e481a5b9a5d1a585b1a5e995960921b60648201526084015b60405180910390fd5b600054610100900460ff16158015610213576000805461ffff19166101011790555b600280546001600160a01b0384166001600160a01b0319918216179091556001805490911632179055801561024e576000805461ff00191690555b5050565b6000836040518060400160405280601081526020016f20baba37b6b0ba32a6b7b1b597393ab760811b8152506102888282610b0d565b506102938486610fa8565b9695505050505050565b604051630d7100e360e31b8152306004820152600090819073__$0bac19a4f6859fb91e3c64d76ce49d598f$__90636b8807189060240160206040518083038186803b1580156102ec57600080fd5b505af4158015610300573d6000803e3d6000fd5b505050506040513d601f19601f820116820180604052508101906103249190610ded565b90506001600160a01b03811630141561034e5750506000546201000090046001600160a01b031690565b806001600160a01b031663370158ea6040518163ffffffff1660e01b815260040160206040518083038186803b15801561038757600080fd5b505afa15801561039b573d6000803e3d6000fd5b505050506040513d601f19601f820116820180604052508101906103bf9190610ded565b91505090565b604051630d7100e360e31b815230600482018190529073__$0bac19a4f6859fb91e3c64d76ce49d598f$__90636b8807189060240160206040518083038186803b15801561041257600080fd5b505af4158015610426573d6000803e3d6000fd5b505050506040513d601f19601f8201168201806040525081019061044a9190610ded565b6001600160a01b0316141561054257600061046361029d565b6040516321f8a72160e01b81527f689d13d8ed8ef1027633ba26e7121121cf427434450a529548f19bf17597439560048201526001600160a01b0391909116906321f8a7219060240160206040518083038186803b1580156104c457600080fd5b505afa1580156104d8573d6000803e3d6000fd5b505050506040513d601f19601f820116820180604052508101906104fc9190610ded565b6001549091506001600160a01b03163314806105205750336001600160a01b038216145b61053c5760405162461bcd60e51b81526004016101e890610f66565b5061056c565b6001546001600160a01b0316331461056c5760405162461bcd60e51b81526004016101e890610f66565b6105746105c6565b6105b75760405162461bcd60e51b8152602060048201526014602482015273105d5d1bdb585d194e881b9bdd081c185d5cd95960621b60448201526064016101e8565b6001805460ff60a01b19169055565b604051630d7100e360e31b8152306004820152600090819073__$0bac19a4f6859fb91e3c64d76ce49d598f$__90636b8807189060240160206040518083038186803b15801561061557600080fd5b505af4158015610629573d6000803e3d6000fd5b505050506040513d601f19601f8201168201806040525081019061064d9190610ded565b90506001600160a01b038116301415610672575050600154600160a01b900460ff1690565b600154600160a01b900460ff16806103bf5750806001600160a01b0316635c975abb6040518163ffffffff1660e01b815260040160206040518083038186803b1580156106be57600080fd5b505afa1580156106d2573d6000803e3d6000fd5b505050506040513d601f19601f820116820180604052508101906103bf9190610e4b565b604051630d7100e360e31b815230600482018190529073__$0bac19a4f6859fb91e3c64d76ce49d598f$__90636b8807189060240160206040518083038186803b15801561074357600080fd5b505af4158015610757573d6000803e3d6000fd5b505050506040513d601f19601f8201168201806040525081019061077b9190610ded565b6001600160a01b0316141561087357600061079461029d565b6040516321f8a72160e01b81527f689d13d8ed8ef1027633ba26e7121121cf427434450a529548f19bf17597439560048201526001600160a01b0391909116906321f8a7219060240160206040518083038186803b1580156107f557600080fd5b505afa158015610809573d6000803e3d6000fd5b505050506040513d601f19601f8201168201806040525081019061082d9190610ded565b6001549091506001600160a01b03163314806108515750336001600160a01b038216145b61086d5760405162461bcd60e51b81526004016101e890610f66565b5061089d565b6001546001600160a01b0316331461089d5760405162461bcd60e51b81526004016101e890610f66565b6108a56105c6565b156108e55760405162461bcd60e51b815260206004820152601060248201526f105d5d1bdb585d194e881c185d5cd95960821b60448201526064016101e8565b6001805460ff60a01b1916600160a01b179055565b6001546001600160a01b031633146109245760405162461bcd60e51b81526004016101e890610f25565b60405163a9059cbb60e01b81526001600160a01b0383811660048301526024820183905284169063a9059cbb90604401602060405180830381600087803b15801561096e57600080fd5b505af1158015610982573d6000803e3d6000fd5b505050506040513d601f19601f820116820180604052508101906109a69190610e4b565b50505050565b6001546001600160a01b031633146109d65760405162461bcd60e51b81526004016101e890610f25565b604051630d7100e360e31b815230600482018190529073__$0bac19a4f6859fb91e3c64d76ce49d598f$__90636b8807189060240160206040518083038186803b158015610a2357600080fd5b505af4158015610a37573d6000803e3d6000fd5b505050506040513d601f19601f82011682018060405250810190610a5b9190610ded565b6001600160a01b031614610abb5760405162461bcd60e51b815260206004820152602160248201527f4175746f6d6174653a206368616e676520746865206f776e6572206661696c656044820152601960fa1b60648201526084016101e8565b600180546001600160a01b038381166001600160a01b0319831681179093556040519116919082907f8be0079c531659141344cd1fd0a4f28419497f9722a3daafe3b4186f6b6457e090600090a35050565b6000610b176105c6565b15610b575760405162461bcd60e51b815260206004820152601060248201526f105d5d1bdb585d194e881c185d5cd95960821b60448201526064016101e8565b6000610b6b6001546001600160a01b031690565b9050326001600160a01b0382161415610b88576000915050610dc3565b6000610b9261029d565b6040516321f8a72160e01b81527fe78c16c6d839536d3155985aab4e9c6013c8c3d446054bcebc48612f359d81f560048201529091506000906001600160a01b038316906321f8a7219060240160206040518083038186803b158015610bf757600080fd5b505afa158015610c0b573d6000803e3d6000fd5b505050506040513d601f19601f82011682018060405250810190610c2f9190610ded565b90506001600160a01b038116610c9b5760405162461bcd60e51b815260206004820152602b60248201527f4175746f6d6174653a3a5f62696c6c3a2062616c616e636520636f6e7472616360448201526a1d081b9bdd08199bdd5b9960aa1b60648201526084016101e8565b60405163bd02d0f560e01b81527fa93d95f96a5de25d7a41ddf1f5e8d45cfc929c4838163cf011dab4043a4a40d560048201526000906001600160a01b0384169063bd02d0f59060240160206040518083038186803b158015610cfd57600080fd5b505afa158015610d11573d6000803e3d6000fd5b505050506040513d601f19601f82011682018060405250810190610d359190610e6d565b60405163e578a22560e01b81529091506001600160a01b0383169063e578a22590610d6a9087908b9086908c90600401610eb2565b602060405180830381600087803b158015610d8457600080fd5b505af1158015610d98573d6000803e3d6000fd5b505050506040513d601f19601f82011682018060405250810190610dbc9190610e6d565b9450505050505b92915050565b600060208284031215610ddb57600080fd5b8135610de681610fce565b9392505050565b600060208284031215610dff57600080fd5b8151610de681610fce565b600080600060608486031215610e1f57600080fd5b8335610e2a81610fce565b92506020840135610e3a81610fce565b929592945050506040919091013590565b600060208284031215610e5d57600080fd5b81518015158114610de657600080fd5b600060208284031215610e7f57600080fd5b5051919050565b600080600060608486031215610e9b57600080fd5b505081359360208301359350604090920135919050565b60018060a01b038516815260006020858184015284604084015260806060840152835180608085015260005b81811015610efa5785810183015185820160a001528201610ede565b81811115610f0c57600060a083870101525b50601f01601f19169290920160a0019695505050505050565b60208082526021908201527f4175746f6d6174653a2063616c6c6572206973206e6f7420746865206f776e656040820152603960f91b606082015260800190565b60208082526022908201527f4175746f6d6174653a2063616c6c6572206973206e6f7420746865207061757360408201526132b960f11b606082015260800190565b60008219821115610fc957634e487b7160e01b600052601160045260246000fd5b500190565b6001600160a01b0381168114610fe357600080fd5b5056fea26469706673582212200824c56fe729a2d8f66d7f6f307b359218e19748e29c287c9f0a8dcfa1f5b70364736f6c63430008060033",
  "linkReferences": {
    "automates/utils/DFH/proxy/ERC1167.sol": {
      "ERC1167": [
        {
          "length": 20,
          "start": 868
        },
        {
          "length": 20,
          "start": 1162
        },
        {
          "length": 20,
          "start": 1677
        },
        {
          "length": 20,
          "start": 1979
        },
        {
          "length": 20,
          "start": 2715
        }
      ]
    }
  },
  "deployedLinkReferences": {
    "automates/utils/DFH/proxy/ERC1167.sol": {
      "ERC1167": [
        {
          "length": 20,
          "start": 695
        },
        {
          "length": 20,
          "start": 989
        },
        {
          "length": 20,
          "start": 1504
        },
        {
          "length": 20,
          "start": 1806
        },
        {
          "length": 20,
          "start": 2542
        }
      ]
    }
  }
}