{
  "_format": "hh-sol-artifact-1",
  "contractName": "AutomateMock",
  "sourceName": "automates/utils/DFH/mock/AutomateMock.sol",
  "abi": [
    {
      "inputs": [
        {
          "internalType": "address",
          "name": "_info",
          "type": "address"
        }
      ],
      "stateMutability": "nonpayable",
      "type": "constructor"
    },
    {
      "anonymous": false,
      "inputs": [
        {
          "indexed": true,
          "internalType": "address",
          "name": "previousOwner",
          "type": "address"
        },
        {
          "indexed": true,
          "internalType": "address",
          "name": "newOwner",
          "type": "address"
        }
      ],
      "name": "OwnershipTransferred",
      "type": "event"
    },
    {
      "anonymous": false,
      "inputs": [
        {
          "indexed": false,
          "internalType": "int256",
          "name": "protocolFee",
          "type": "int256"
        }
      ],
      "name": "ProtocolFeeChanged",
      "type": "event"
    },
    {
      "inputs": [
        {
          "internalType": "int256",
          "name": "__protocolFee",
          "type": "int256"
        }
      ],
      "name": "changeProtocolFee",
      "outputs": [],
      "stateMutability": "nonpayable",
      "type": "function"
    },
    {
      "inputs": [],
      "name": "info",
      "outputs": [
        {
          "internalType": "address",
          "name": "",
          "type": "address"
        }
      ],
      "stateMutability": "view",
      "type": "function"
    },
    {
      "inputs": [
        {
          "internalType": "address",
          "name": "_staking",
          "type": "address"
        },
        {
          "internalType": "uint256",
          "name": "_pool",
          "type": "uint256"
        }
      ],
      "name": "init",
      "outputs": [],
      "stateMutability": "nonpayable",
      "type": "function"
    },
    {
      "inputs": [],
      "name": "owner",
      "outputs": [
        {
          "internalType": "address",
          "name": "",
          "type": "address"
        }
      ],
      "stateMutability": "view",
      "type": "function"
    },
    {
      "inputs": [],
      "name": "pause",
      "outputs": [],
      "stateMutability": "nonpayable",
      "type": "function"
    },
    {
      "inputs": [],
      "name": "paused",
      "outputs": [
        {
          "internalType": "bool",
          "name": "",
          "type": "bool"
        }
      ],
      "stateMutability": "view",
      "type": "function"
    },
    {
      "inputs": [],
      "name": "pool",
      "outputs": [
        {
          "internalType": "uint256",
          "name": "",
          "type": "uint256"
        }
      ],
      "stateMutability": "view",
      "type": "function"
    },
    {
      "inputs": [],
      "name": "protocolFee",
      "outputs": [
        {
          "internalType": "uint256",
          "name": "",
          "type": "uint256"
        }
      ],
      "stateMutability": "view",
      "type": "function"
    },
    {
      "inputs": [
        {
          "internalType": "uint256",
          "name": "gasFee",
          "type": "uint256"
        },
        {
          "internalType": "uint256",
          "name": "x",
          "type": "uint256"
        },
        {
          "internalType": "uint256",
          "name": "y",
          "type": "uint256"
        }
      ],
      "name": "run",
      "outputs": [
        {
          "internalType": "uint256",
          "name": "",
          "type": "uint256"
        }
      ],
      "stateMutability": "nonpayable",
      "type": "function"
    },
    {
      "inputs": [],
      "name": "staking",
      "outputs": [
        {
          "internalType": "address",
          "name": "",
          "type": "address"
        }
      ],
      "stateMutability": "view",
      "type": "function"
    },
    {
      "inputs": [
        {
          "internalType": "address",
          "name": "token",
          "type": "address"
        },
        {
          "internalType": "address",
          "name": "recipient",
          "type": "address"
        },
        {
          "internalType": "uint256",
          "name": "amount",
          "type": "uint256"
        }
      ],
      "name": "transfer",
      "outputs": [],
      "stateMutability": "nonpayable",
      "type": "function"
    },
    {
      "inputs": [
        {
          "internalType": "address",
          "name": "newOwner",
          "type": "address"
        }
      ],
      "name": "transferOwnership",
      "outputs": [],
      "stateMutability": "nonpayable",
      "type": "function"
    },
    {
      "inputs": [],
      "name": "unpause",
      "outputs": [],
      "stateMutability": "nonpayable",
      "type": "function"
    }
  ],
  "bytecode": "0x608060405234801561001057600080fd5b50604051611f68380380611f6883398101604081905261002f91610063565b600080546001600160a01b039092166001600160a01b03199283161790556001805490911632179055600019600255610093565b60006020828403121561007557600080fd5b81516001600160a01b038116811461008c57600080fd5b9392505050565b611ec6806100a26000396000f3fe608060405234801561001057600080fd5b50600436106100df5760003560e01c80635c975abb1161008c5780639742b5c3116100665780639742b5c3146101c0578063b0e21e8a146101d3578063beabacc8146101db578063f2fde38b146101ee57600080fd5b80635c975abb146101825780638456cb591461019a5780638da5cb5b146101a257600080fd5b8063399ae724116100bd578063399ae724146101405780633f4ba83a146101555780634cf088d91461015d57600080fd5b806316f0115b146100e457806324b912e514610100578063370158ea14610113575b600080fd5b6100ed60045481565b6040519081526020015b60405180910390f35b6100ed61010e366004611cba565b610201565b61011b610259565b60405173ffffffffffffffffffffffffffffffffffffffff90911681526020016100f7565b61015361014e366004611c3a565b6103bb565b005b61015361060b565b60035461011b90610100900473ffffffffffffffffffffffffffffffffffffffff1681565b61018a61099d565b60405190151581526020016100f7565b610153610b22565b60015473ffffffffffffffffffffffffffffffffffffffff1661011b565b6101536101ce366004611c88565b610ecc565b6100ed611106565b6101536101e9366004611bf9565b611513565b6101536101fc366004611bb8565b611668565b6000836040518060400160405280601081526020017f4175746f6d6174654d6f636b2e72756e0000000000000000000000000000000081525061024482826118c7565b5061024f8486611dd5565b9695505050505050565b6040517f6b880718000000000000000000000000000000000000000000000000000000008152306004820152600090819073__$0bac19a4f6859fb91e3c64d76ce49d598f$__90636b8807189060240160206040518083038186803b1580156102c157600080fd5b505af41580156102d5573d6000803e3d6000fd5b505050506040513d601f19601f820116820180604052508101906102f99190611bdc565b905073ffffffffffffffffffffffffffffffffffffffff811630141561033757505060005473ffffffffffffffffffffffffffffffffffffffff1690565b8073ffffffffffffffffffffffffffffffffffffffff1663370158ea6040518163ffffffff1660e01b815260040160206040518083038186803b15801561037d57600080fd5b505afa158015610391573d6000803e3d6000fd5b505050506040513d601f19601f820116820180604052508101906103b59190611bdc565b91505090565b60015473ffffffffffffffffffffffffffffffffffffffff1661042b57600180547fffffffffffffffffffffffff000000000000000000000000000000000000000016321790557fffffffffffffffffffffffffffffffffffffffffffffffffffffffffffffffff6002556104d7565b60015473ffffffffffffffffffffffffffffffffffffffff1633146104d7576040517f08c379a000000000000000000000000000000000000000000000000000000000815260206004820152602160248201527f4175746f6d6174653a2063616c6c6572206973206e6f7420746865206f776e6560448201527f720000000000000000000000000000000000000000000000000000000000000060648201526084015b60405180910390fd5b60035460ff161580610508575060035473ffffffffffffffffffffffffffffffffffffffff83811661010090920416145b610594576040517f08c379a000000000000000000000000000000000000000000000000000000000815260206004820152603a60248201527f4175746f6d6174654d6f636b3a3a696e69743a207265696e697469616c697a6560448201527f207374616b696e67206164647265737320666f7262696464656e00000000000060648201526084016104ce565b600380546004929092557fffffffffffffffffffffffffffffffffffffffffffffffffffffffffffffff0073ffffffffffffffffffffffffffffffffffffffff90931661010002929092167fffffffffffffffffffffff000000000000000000000000000000000000000000909116176001179055565b6040517f6b88071800000000000000000000000000000000000000000000000000000000815230600482018190529073__$0bac19a4f6859fb91e3c64d76ce49d598f$__90636b8807189060240160206040518083038186803b15801561067157600080fd5b505af4158015610685573d6000803e3d6000fd5b505050506040513d601f19601f820116820180604052508101906106a99190611bdc565b73ffffffffffffffffffffffffffffffffffffffff16141561085e5760006106cf610259565b6040517f21f8a7210000000000000000000000000000000000000000000000000000000081527f689d13d8ed8ef1027633ba26e7121121cf427434450a529548f19bf175974395600482015273ffffffffffffffffffffffffffffffffffffffff91909116906321f8a7219060240160206040518083038186803b15801561075657600080fd5b505afa15801561076a573d6000803e3d6000fd5b505050506040513d601f19601f8201168201806040525081019061078e9190611bdc565b60015490915073ffffffffffffffffffffffffffffffffffffffff163314806107cc57503373ffffffffffffffffffffffffffffffffffffffff8216145b610858576040517f08c379a000000000000000000000000000000000000000000000000000000000815260206004820152602260248201527f4175746f6d6174653a2063616c6c6572206973206e6f7420746865207061757360448201527f657200000000000000000000000000000000000000000000000000000000000060648201526084016104ce565b50610905565b60015473ffffffffffffffffffffffffffffffffffffffff163314610905576040517f08c379a000000000000000000000000000000000000000000000000000000000815260206004820152602260248201527f4175746f6d6174653a2063616c6c6572206973206e6f7420746865207061757360448201527f657200000000000000000000000000000000000000000000000000000000000060648201526084016104ce565b61090d61099d565b610973576040517f08c379a000000000000000000000000000000000000000000000000000000000815260206004820152601460248201527f4175746f6d6174653a206e6f742070617573656400000000000000000000000060448201526064016104ce565b600180547fffffffffffffffffffffff00ffffffffffffffffffffffffffffffffffffffff169055565b6040517f6b880718000000000000000000000000000000000000000000000000000000008152306004820152600090819073__$0bac19a4f6859fb91e3c64d76ce49d598f$__90636b8807189060240160206040518083038186803b158015610a0557600080fd5b505af4158015610a19573d6000803e3d6000fd5b505050506040513d601f19601f82011682018060405250810190610a3d9190611bdc565b905073ffffffffffffffffffffffffffffffffffffffff8116301415610a8057505060015474010000000000000000000000000000000000000000900460ff1690565b60015474010000000000000000000000000000000000000000900460ff16806103b557508073ffffffffffffffffffffffffffffffffffffffff16635c975abb6040518163ffffffff1660e01b815260040160206040518083038186803b158015610aea57600080fd5b505afa158015610afe573d6000803e3d6000fd5b505050506040513d601f19601f820116820180604052508101906103b59190611c66565b6040517f6b88071800000000000000000000000000000000000000000000000000000000815230600482018190529073__$0bac19a4f6859fb91e3c64d76ce49d598f$__90636b8807189060240160206040518083038186803b158015610b8857600080fd5b505af4158015610b9c573d6000803e3d6000fd5b505050506040513d601f19601f82011682018060405250810190610bc09190611bdc565b73ffffffffffffffffffffffffffffffffffffffff161415610d75576000610be6610259565b6040517f21f8a7210000000000000000000000000000000000000000000000000000000081527f689d13d8ed8ef1027633ba26e7121121cf427434450a529548f19bf175974395600482015273ffffffffffffffffffffffffffffffffffffffff91909116906321f8a7219060240160206040518083038186803b158015610c6d57600080fd5b505afa158015610c81573d6000803e3d6000fd5b505050506040513d601f19601f82011682018060405250810190610ca59190611bdc565b60015490915073ffffffffffffffffffffffffffffffffffffffff16331480610ce357503373ffffffffffffffffffffffffffffffffffffffff8216145b610d6f576040517f08c379a000000000000000000000000000000000000000000000000000000000815260206004820152602260248201527f4175746f6d6174653a2063616c6c6572206973206e6f7420746865207061757360448201527f657200000000000000000000000000000000000000000000000000000000000060648201526084016104ce565b50610e1c565b60015473ffffffffffffffffffffffffffffffffffffffff163314610e1c576040517f08c379a000000000000000000000000000000000000000000000000000000000815260206004820152602260248201527f4175746f6d6174653a2063616c6c6572206973206e6f7420746865207061757360448201527f657200000000000000000000000000000000000000000000000000000000000060648201526084016104ce565b610e2461099d565b15610e8b576040517f08c379a000000000000000000000000000000000000000000000000000000000815260206004820152601060248201527f4175746f6d6174653a207061757365640000000000000000000000000000000060448201526064016104ce565b600180547fffffffffffffffffffffff00ffffffffffffffffffffffffffffffffffffffff1674010000000000000000000000000000000000000000179055565b6040517f6b88071800000000000000000000000000000000000000000000000000000000815230600482015260009073__$0bac19a4f6859fb91e3c64d76ce49d598f$__90636b8807189060240160206040518083038186803b158015610f3257600080fd5b505af4158015610f46573d6000803e3d6000fd5b505050506040513d601f19601f82011682018060405250810190610f6a9190611bdc565b90503373ffffffffffffffffffffffffffffffffffffffff8216301461100d578173ffffffffffffffffffffffffffffffffffffffff16638da5cb5b6040518163ffffffff1660e01b815260040160206040518083038186803b158015610fd057600080fd5b505afa158015610fe4573d6000803e3d6000fd5b505050506040513d601f19601f820116820180604052508101906110089190611bdc565b611027565b60015473ffffffffffffffffffffffffffffffffffffffff165b73ffffffffffffffffffffffffffffffffffffffff16146110ca576040517f08c379a000000000000000000000000000000000000000000000000000000000815260206004820152603d60248201527f4175746f6d6174653a3a6368616e676550726f746f636f6c4665653a2063616c60448201527f6c6572206973206e6f74207468652070726f746f636f6c206f776e657200000060648201526084016104ce565b60028290556040518281527f3c1d43943224e49d951ce8295a5c8332b517083b3f89bed50feae2cb39caebb59060200160405180910390a15050565b6040517f6b880718000000000000000000000000000000000000000000000000000000008152306004820152600090819073__$0bac19a4f6859fb91e3c64d76ce49d598f$__90636b8807189060240160206040518083038186803b15801561116e57600080fd5b505af4158015611182573d6000803e3d6000fd5b505050506040513d601f19601f820116820180604052508101906111a69190611bdc565b905073ffffffffffffffffffffffffffffffffffffffff811630148015906111d057506000600254125b15611253578073ffffffffffffffffffffffffffffffffffffffff1663b0e21e8a6040518163ffffffff1660e01b815260040160206040518083038186803b15801561121b57600080fd5b505afa15801561122f573d6000803e3d6000fd5b505050506040513d601f19601f820116820180604052508101906103b59190611ca1565b600061125d610259565b9050600080600254126112725760025461132f565b6040517fbd02d0f50000000000000000000000000000000000000000000000000000000081527fa93d95f96a5de25d7a41ddf1f5e8d45cfc929c4838163cf011dab4043a4a40d5600482015273ffffffffffffffffffffffffffffffffffffffff83169063bd02d0f59060240160206040518083038186803b1580156112f757600080fd5b505afa15801561130b573d6000803e3d6000fd5b505050506040513d601f19601f8201168201806040525081019061132f9190611ca1565b905080611340576000935050505090565b6040517f21f8a7210000000000000000000000000000000000000000000000000000000081527f65c90423fe7c880476633a7e36521740f87199d233dc56eb4ca6643eb76f605f600482015260009073ffffffffffffffffffffffffffffffffffffffff8416906321f8a7219060240160206040518083038186803b1580156113c857600080fd5b505afa1580156113dc573d6000803e3d6000fd5b505050506040513d601f19601f820116820180604052508101906114009190611bdc565b73ffffffffffffffffffffffffffffffffffffffff1663feaf968c6040518163ffffffff1660e01b815260040160a06040518083038186803b15801561144557600080fd5b505afa158015611459573d6000803e3d6000fd5b505050506040513d601f19601f8201168201806040525081019061147d9190611ce6565b505050915050600081136114ed576040517f08c379a000000000000000000000000000000000000000000000000000000000815260206004820152601760248201527f4175746f6d6174653a20696e76616c696420707269636500000000000000000060448201526064016104ce565b8061150083670de0b6b3a7640000611e28565b61150a9190611ded565b94505050505090565b60015473ffffffffffffffffffffffffffffffffffffffff1633146115ba576040517f08c379a000000000000000000000000000000000000000000000000000000000815260206004820152602160248201527f4175746f6d6174653a2063616c6c6572206973206e6f7420746865206f776e6560448201527f720000000000000000000000000000000000000000000000000000000000000060648201526084016104ce565b6040517fa9059cbb00000000000000000000000000000000000000000000000000000000815273ffffffffffffffffffffffffffffffffffffffff83811660048301526024820183905284169063a9059cbb90604401602060405180830381600087803b15801561162a57600080fd5b505af115801561163e573d6000803e3d6000fd5b505050506040513d601f19601f820116820180604052508101906116629190611c66565b50505050565b60015473ffffffffffffffffffffffffffffffffffffffff16331461170f576040517f08c379a000000000000000000000000000000000000000000000000000000000815260206004820152602160248201527f4175746f6d6174653a2063616c6c6572206973206e6f7420746865206f776e6560448201527f720000000000000000000000000000000000000000000000000000000000000060648201526084016104ce565b6040517f6b88071800000000000000000000000000000000000000000000000000000000815230600482018190529073__$0bac19a4f6859fb91e3c64d76ce49d598f$__90636b8807189060240160206040518083038186803b15801561177557600080fd5b505af4158015611789573d6000803e3d6000fd5b505050506040513d601f19601f820116820180604052508101906117ad9190611bdc565b73ffffffffffffffffffffffffffffffffffffffff1614611850576040517f08c379a000000000000000000000000000000000000000000000000000000000815260206004820152602160248201527f4175746f6d6174653a206368616e676520746865206f776e6572206661696c6560448201527f640000000000000000000000000000000000000000000000000000000000000060648201526084016104ce565b6001805473ffffffffffffffffffffffffffffffffffffffff8381167fffffffffffffffffffffffff0000000000000000000000000000000000000000831681179093556040519116919082907f8be0079c531659141344cd1fd0a4f28419497f9722a3daafe3b4186f6b6457e090600090a35050565b60006118d161099d565b15611938576040517f08c379a000000000000000000000000000000000000000000000000000000000815260206004820152601060248201527f4175746f6d6174653a207061757365640000000000000000000000000000000060448201526064016104ce565b600061195960015473ffffffffffffffffffffffffffffffffffffffff1690565b90503273ffffffffffffffffffffffffffffffffffffffff82161415611983576000915050611b93565b600061198d610259565b6040517f21f8a7210000000000000000000000000000000000000000000000000000000081527fe78c16c6d839536d3155985aab4e9c6013c8c3d446054bcebc48612f359d81f5600482015290915060009073ffffffffffffffffffffffffffffffffffffffff8316906321f8a7219060240160206040518083038186803b158015611a1857600080fd5b505afa158015611a2c573d6000803e3d6000fd5b505050506040513d601f19601f82011682018060405250810190611a509190611bdc565b905073ffffffffffffffffffffffffffffffffffffffff8116611af5576040517f08c379a000000000000000000000000000000000000000000000000000000000815260206004820152602b60248201527f4175746f6d6174653a3a5f62696c6c3a2062616c616e636520636f6e7472616360448201527f74206e6f7420666f756e6400000000000000000000000000000000000000000060648201526084016104ce565b8073ffffffffffffffffffffffffffffffffffffffff1663e578a2258488611b1b611106565b896040518563ffffffff1660e01b8152600401611b3b9493929190611d36565b602060405180830381600087803b158015611b5557600080fd5b505af1158015611b69573d6000803e3d6000fd5b505050506040513d601f19601f82011682018060405250810190611b8d9190611ca1565b93505050505b92915050565b805169ffffffffffffffffffff81168114611bb357600080fd5b919050565b600060208284031215611bca57600080fd5b8135611bd581611e94565b9392505050565b600060208284031215611bee57600080fd5b8151611bd581611e94565b600080600060608486031215611c0e57600080fd5b8335611c1981611e94565b92506020840135611c2981611e94565b929592945050506040919091013590565b60008060408385031215611c4d57600080fd5b8235611c5881611e94565b946020939093013593505050565b600060208284031215611c7857600080fd5b81518015158114611bd557600080fd5b600060208284031215611c9a57600080fd5b5035919050565b600060208284031215611cb357600080fd5b5051919050565b600080600060608486031215611ccf57600080fd5b505081359360208301359350604090920135919050565b600080600080600060a08688031215611cfe57600080fd5b611d0786611b99565b9450602086015193506040860151925060608601519150611d2a60808701611b99565b90509295509295909350565b73ffffffffffffffffffffffffffffffffffffffff8516815260006020858184015284604084015260806060840152835180608085015260005b81811015611d8c5785810183015185820160a001528201611d70565b81811115611d9e57600060a083870101525b50601f017fffffffffffffffffffffffffffffffffffffffffffffffffffffffffffffffe0169290920160a0019695505050505050565b60008219821115611de857611de8611e65565b500190565b600082611e23577f4e487b7100000000000000000000000000000000000000000000000000000000600052601260045260246000fd5b500490565b6000817fffffffffffffffffffffffffffffffffffffffffffffffffffffffffffffffff0483118215151615611e6057611e60611e65565b500290565b7f4e487b7100000000000000000000000000000000000000000000000000000000600052601160045260246000fd5b73ffffffffffffffffffffffffffffffffffffffff81168114611eb657600080fd5b5056fea164736f6c6343000806000a",
  "linkReferences": {
    "automates/utils/DFH/proxy/ERC1167.sol": {
      "ERC1167": [
        {
          "length": 20,
          "start": 814
        },
        {
          "length": 20,
          "start": 1758
        },
        {
          "length": 20,
          "start": 2674
        },
        {
          "length": 20,
          "start": 3061
        },
        {
          "length": 20,
          "start": 3999
        },
        {
          "length": 20,
          "start": 4571
        },
        {
          "length": 20,
          "start": 6114
        }
      ]
    }
  },
  "deployedLinkReferences": {
    "automates/utils/DFH/proxy/ERC1167.sol": {
      "ERC1167": [
        {
          "length": 20,
          "start": 652
        },
        {
          "length": 20,
          "start": 1596
        },
        {
          "length": 20,
          "start": 2512
        },
        {
          "length": 20,
          "start": 2899
        },
        {
          "length": 20,
          "start": 3837
        },
        {
          "length": 20,
          "start": 4409
        },
        {
          "length": 20,
          "start": 5952
        }
      ]
    }
  }
}