{
  "_format": "hh-sol-artifact-1",
  "contractName": "AutomateMock",
  "sourceName": "automates/utils/DFH/mock/AutomateMock.sol",
  "abi": [
    {
      "inputs": [
        {
          "internalType": "address",
          "name": "_info",
          "type": "address"
        }
      ],
      "stateMutability": "nonpayable",
      "type": "constructor"
    },
    {
      "anonymous": false,
      "inputs": [
        {
          "indexed": true,
          "internalType": "address",
          "name": "previousOwner",
          "type": "address"
        },
        {
          "indexed": true,
          "internalType": "address",
          "name": "newOwner",
          "type": "address"
        }
      ],
      "name": "OwnershipTransferred",
      "type": "event"
    },
    {
      "inputs": [],
      "name": "info",
      "outputs": [
        {
          "internalType": "address",
          "name": "",
          "type": "address"
        }
      ],
      "stateMutability": "view",
      "type": "function"
    },
    {
      "inputs": [
        {
          "internalType": "address",
          "name": "_staking",
          "type": "address"
        }
      ],
      "name": "init",
      "outputs": [],
      "stateMutability": "nonpayable",
      "type": "function"
    },
    {
      "inputs": [],
      "name": "owner",
      "outputs": [
        {
          "internalType": "address",
          "name": "",
          "type": "address"
        }
      ],
      "stateMutability": "view",
      "type": "function"
    },
    {
      "inputs": [],
      "name": "pause",
      "outputs": [],
      "stateMutability": "nonpayable",
      "type": "function"
    },
    {
      "inputs": [],
      "name": "paused",
      "outputs": [
        {
          "internalType": "bool",
          "name": "",
          "type": "bool"
        }
      ],
      "stateMutability": "view",
      "type": "function"
    },
    {
      "inputs": [
        {
          "internalType": "uint256",
          "name": "gasFee",
          "type": "uint256"
        },
        {
          "internalType": "uint256",
          "name": "x",
          "type": "uint256"
        },
        {
          "internalType": "uint256",
          "name": "y",
          "type": "uint256"
        }
      ],
      "name": "run",
      "outputs": [
        {
          "internalType": "uint256",
          "name": "",
          "type": "uint256"
        }
      ],
      "stateMutability": "nonpayable",
      "type": "function"
    },
    {
      "inputs": [],
      "name": "staking",
      "outputs": [
        {
          "internalType": "address",
          "name": "",
          "type": "address"
        }
      ],
      "stateMutability": "view",
      "type": "function"
    },
    {
      "inputs": [
        {
          "internalType": "address",
          "name": "token",
          "type": "address"
        },
        {
          "internalType": "address",
          "name": "recipient",
          "type": "address"
        },
        {
          "internalType": "uint256",
          "name": "amount",
          "type": "uint256"
        }
      ],
      "name": "transfer",
      "outputs": [],
      "stateMutability": "nonpayable",
      "type": "function"
    },
    {
      "inputs": [
        {
          "internalType": "address",
          "name": "newOwner",
          "type": "address"
        }
      ],
      "name": "transferOwnership",
      "outputs": [],
      "stateMutability": "nonpayable",
      "type": "function"
    },
    {
      "inputs": [],
      "name": "unpause",
      "outputs": [],
      "stateMutability": "nonpayable",
      "type": "function"
    }
  ],
  "bytecode": "0x608060405234801561001057600080fd5b5060405161104c38038061104c83398101604081905261002f9161005d565b600080546001600160a01b039092166001600160a01b0319928316179055600180549091163217905561008d565b60006020828403121561006f57600080fd5b81516001600160a01b038116811461008657600080fd5b9392505050565b610fb08061009c6000396000f3fe608060405234801561001057600080fd5b506004361061009e5760003560e01c80635c975abb116100665780635c975abb146101195780638456cb59146101315780638da5cb5b14610139578063beabacc81461014a578063f2fde38b1461015d57600080fd5b806319ab453c146100a357806324b912e5146100b8578063370158ea146100de5780633f4ba83a146100fe5780634cf088d914610106575b600080fd5b6100b66100b1366004610d5d565b610170565b005b6100cb6100c6366004610e1a565b6101ec565b6040519081526020015b60405180910390f35b6100e6610237565b6040516001600160a01b0390911681526020016100d5565b6100b6610359565b6002546100e6906001600160a01b031681565b61012161055a565b60405190151581526020016100d5565b6100b661068a565b6001546001600160a01b03166100e6565b6100b6610158366004610d9e565b61088e565b6100b661016b366004610d5d565b610940565b6001546001600160a01b031661019757600180546001600160a01b031916321790556101ca565b6001546001600160a01b031633146101ca5760405162461bcd60e51b81526004016101c190610eb9565b60405180910390fd5b600280546001600160a01b0319166001600160a01b0392909216919091179055565b6000836040518060400160405280601081526020016f20baba37b6b0ba32a6b7b1b597393ab760811b8152506102228282610aa1565b5061022d8486610f3c565b9695505050505050565b604051630d7100e360e31b8152306004820152600090819073__$0bac19a4f6859fb91e3c64d76ce49d598f$__90636b8807189060240160206040518083038186803b15801561028657600080fd5b505af415801561029a573d6000803e3d6000fd5b505050506040513d601f19601f820116820180604052508101906102be9190610d81565b90506001600160a01b0381163014156102e25750506000546001600160a01b031690565b806001600160a01b031663370158ea6040518163ffffffff1660e01b815260040160206040518083038186803b15801561031b57600080fd5b505afa15801561032f573d6000803e3d6000fd5b505050506040513d601f19601f820116820180604052508101906103539190610d81565b91505090565b604051630d7100e360e31b815230600482018190529073__$0bac19a4f6859fb91e3c64d76ce49d598f$__90636b8807189060240160206040518083038186803b1580156103a657600080fd5b505af41580156103ba573d6000803e3d6000fd5b505050506040513d601f19601f820116820180604052508101906103de9190610d81565b6001600160a01b031614156104d65760006103f7610237565b6040516321f8a72160e01b81527f689d13d8ed8ef1027633ba26e7121121cf427434450a529548f19bf17597439560048201526001600160a01b0391909116906321f8a7219060240160206040518083038186803b15801561045857600080fd5b505afa15801561046c573d6000803e3d6000fd5b505050506040513d601f19601f820116820180604052508101906104909190610d81565b6001549091506001600160a01b03163314806104b45750336001600160a01b038216145b6104d05760405162461bcd60e51b81526004016101c190610efa565b50610500565b6001546001600160a01b031633146105005760405162461bcd60e51b81526004016101c190610efa565b61050861055a565b61054b5760405162461bcd60e51b8152602060048201526014602482015273105d5d1bdb585d194e881b9bdd081c185d5cd95960621b60448201526064016101c1565b6001805460ff60a01b19169055565b604051630d7100e360e31b8152306004820152600090819073__$0bac19a4f6859fb91e3c64d76ce49d598f$__90636b8807189060240160206040518083038186803b1580156105a957600080fd5b505af41580156105bd573d6000803e3d6000fd5b505050506040513d601f19601f820116820180604052508101906105e19190610d81565b90506001600160a01b038116301415610606575050600154600160a01b900460ff1690565b600154600160a01b900460ff16806103535750806001600160a01b0316635c975abb6040518163ffffffff1660e01b815260040160206040518083038186803b15801561065257600080fd5b505afa158015610666573d6000803e3d6000fd5b505050506040513d601f19601f820116820180604052508101906103539190610ddf565b604051630d7100e360e31b815230600482018190529073__$0bac19a4f6859fb91e3c64d76ce49d598f$__90636b8807189060240160206040518083038186803b1580156106d757600080fd5b505af41580156106eb573d6000803e3d6000fd5b505050506040513d601f19601f8201168201806040525081019061070f9190610d81565b6001600160a01b03161415610807576000610728610237565b6040516321f8a72160e01b81527f689d13d8ed8ef1027633ba26e7121121cf427434450a529548f19bf17597439560048201526001600160a01b0391909116906321f8a7219060240160206040518083038186803b15801561078957600080fd5b505afa15801561079d573d6000803e3d6000fd5b505050506040513d601f19601f820116820180604052508101906107c19190610d81565b6001549091506001600160a01b03163314806107e55750336001600160a01b038216145b6108015760405162461bcd60e51b81526004016101c190610efa565b50610831565b6001546001600160a01b031633146108315760405162461bcd60e51b81526004016101c190610efa565b61083961055a565b156108795760405162461bcd60e51b815260206004820152601060248201526f105d5d1bdb585d194e881c185d5cd95960821b60448201526064016101c1565b6001805460ff60a01b1916600160a01b179055565b6001546001600160a01b031633146108b85760405162461bcd60e51b81526004016101c190610eb9565b60405163a9059cbb60e01b81526001600160a01b0383811660048301526024820183905284169063a9059cbb90604401602060405180830381600087803b15801561090257600080fd5b505af1158015610916573d6000803e3d6000fd5b505050506040513d601f19601f8201168201806040525081019061093a9190610ddf565b50505050565b6001546001600160a01b0316331461096a5760405162461bcd60e51b81526004016101c190610eb9565b604051630d7100e360e31b815230600482018190529073__$0bac19a4f6859fb91e3c64d76ce49d598f$__90636b8807189060240160206040518083038186803b1580156109b757600080fd5b505af41580156109cb573d6000803e3d6000fd5b505050506040513d601f19601f820116820180604052508101906109ef9190610d81565b6001600160a01b031614610a4f5760405162461bcd60e51b815260206004820152602160248201527f4175746f6d6174653a206368616e676520746865206f776e6572206661696c656044820152601960fa1b60648201526084016101c1565b600180546001600160a01b038381166001600160a01b0319831681179093556040519116919082907f8be0079c531659141344cd1fd0a4f28419497f9722a3daafe3b4186f6b6457e090600090a35050565b6000610aab61055a565b15610aeb5760405162461bcd60e51b815260206004820152601060248201526f105d5d1bdb585d194e881c185d5cd95960821b60448201526064016101c1565b6000610aff6001546001600160a01b031690565b9050326001600160a01b0382161415610b1c576000915050610d57565b6000610b26610237565b6040516321f8a72160e01b81527fe78c16c6d839536d3155985aab4e9c6013c8c3d446054bcebc48612f359d81f560048201529091506000906001600160a01b038316906321f8a7219060240160206040518083038186803b158015610b8b57600080fd5b505afa158015610b9f573d6000803e3d6000fd5b505050506040513d601f19601f82011682018060405250810190610bc39190610d81565b90506001600160a01b038116610c2f5760405162461bcd60e51b815260206004820152602b60248201527f4175746f6d6174653a3a5f62696c6c3a2062616c616e636520636f6e7472616360448201526a1d081b9bdd08199bdd5b9960aa1b60648201526084016101c1565b60405163bd02d0f560e01b81527fa93d95f96a5de25d7a41ddf1f5e8d45cfc929c4838163cf011dab4043a4a40d560048201526000906001600160a01b0384169063bd02d0f59060240160206040518083038186803b158015610c9157600080fd5b505afa158015610ca5573d6000803e3d6000fd5b505050506040513d601f19601f82011682018060405250810190610cc99190610e01565b60405163e578a22560e01b81529091506001600160a01b0383169063e578a22590610cfe9087908b9086908c90600401610e46565b602060405180830381600087803b158015610d1857600080fd5b505af1158015610d2c573d6000803e3d6000fd5b505050506040513d601f19601f82011682018060405250810190610d509190610e01565b9450505050505b92915050565b600060208284031215610d6f57600080fd5b8135610d7a81610f62565b9392505050565b600060208284031215610d9357600080fd5b8151610d7a81610f62565b600080600060608486031215610db357600080fd5b8335610dbe81610f62565b92506020840135610dce81610f62565b929592945050506040919091013590565b600060208284031215610df157600080fd5b81518015158114610d7a57600080fd5b600060208284031215610e1357600080fd5b5051919050565b600080600060608486031215610e2f57600080fd5b505081359360208301359350604090920135919050565b60018060a01b038516815260006020858184015284604084015260806060840152835180608085015260005b81811015610e8e5785810183015185820160a001528201610e72565b81811115610ea057600060a083870101525b50601f01601f19169290920160a0019695505050505050565b60208082526021908201527f4175746f6d6174653a2063616c6c6572206973206e6f7420746865206f776e656040820152603960f91b606082015260800190565b60208082526022908201527f4175746f6d6174653a2063616c6c6572206973206e6f7420746865207061757360408201526132b960f11b606082015260800190565b60008219821115610f5d57634e487b7160e01b600052601160045260246000fd5b500190565b6001600160a01b0381168114610f7757600080fd5b5056fea264697066735822122059d578528509bcfee143dfa8aaf345cff75ce965f99f3d7da7d83df3f0fbe79664736f6c63430008060033",
  "linkReferences": {
    "automates/utils/DFH/proxy/ERC1167.sol": {
      "ERC1167": [
        {
          "length": 20,
          "start": 749
        },
        {
          "length": 20,
          "start": 1037
        },
        {
          "length": 20,
          "start": 1552
        },
        {
          "length": 20,
          "start": 1854
        },
        {
          "length": 20,
          "start": 2590
        }
      ]
    }
  },
  "deployedLinkReferences": {
    "automates/utils/DFH/proxy/ERC1167.sol": {
      "ERC1167": [
        {
          "length": 20,
          "start": 593
        },
        {
          "length": 20,
          "start": 881
        },
        {
          "length": 20,
          "start": 1396
        },
        {
          "length": 20,
          "start": 1698
        },
        {
          "length": 20,
          "start": 2434
        }
      ]
    }
  }
}