{
  "_format": "hh-sol-artifact-1",
  "contractName": "AutomateMock",
  "sourceName": "automates/utils/DFH/mock/AutomateMock.sol",
  "abi": [
    {
      "inputs": [
        {
          "internalType": "address",
          "name": "_info",
          "type": "address"
        }
      ],
      "stateMutability": "nonpayable",
      "type": "constructor"
    },
    {
      "anonymous": false,
      "inputs": [
        {
          "indexed": true,
          "internalType": "address",
          "name": "previousOwner",
          "type": "address"
        },
        {
          "indexed": true,
          "internalType": "address",
          "name": "newOwner",
          "type": "address"
        }
      ],
      "name": "OwnershipTransferred",
      "type": "event"
    },
    {
      "anonymous": false,
      "inputs": [
        {
          "indexed": false,
          "internalType": "int256",
          "name": "protocolFee",
          "type": "int256"
        }
      ],
      "name": "ProtocolFeeChanged",
      "type": "event"
    },
    {
      "inputs": [
        {
          "internalType": "int256",
          "name": "__protocolFee",
          "type": "int256"
        }
      ],
      "name": "changeProtocolFee",
      "outputs": [],
      "stateMutability": "nonpayable",
      "type": "function"
    },
    {
      "inputs": [],
      "name": "info",
      "outputs": [
        {
          "internalType": "address",
          "name": "",
          "type": "address"
        }
      ],
      "stateMutability": "view",
      "type": "function"
    },
    {
      "inputs": [
        {
          "internalType": "address",
          "name": "_staking",
          "type": "address"
        }
      ],
      "name": "init",
      "outputs": [],
      "stateMutability": "nonpayable",
      "type": "function"
    },
    {
      "inputs": [],
      "name": "owner",
      "outputs": [
        {
          "internalType": "address",
          "name": "",
          "type": "address"
        }
      ],
      "stateMutability": "view",
      "type": "function"
    },
    {
      "inputs": [],
      "name": "pause",
      "outputs": [],
      "stateMutability": "nonpayable",
      "type": "function"
    },
    {
      "inputs": [],
      "name": "paused",
      "outputs": [
        {
          "internalType": "bool",
          "name": "",
          "type": "bool"
        }
      ],
      "stateMutability": "view",
      "type": "function"
    },
    {
      "inputs": [],
      "name": "protocolFee",
      "outputs": [
        {
          "internalType": "uint256",
          "name": "",
          "type": "uint256"
        }
      ],
      "stateMutability": "view",
      "type": "function"
    },
    {
      "inputs": [
        {
          "internalType": "uint256",
          "name": "gasFee",
          "type": "uint256"
        },
        {
          "internalType": "uint256",
          "name": "x",
          "type": "uint256"
        },
        {
          "internalType": "uint256",
          "name": "y",
          "type": "uint256"
        }
      ],
      "name": "run",
      "outputs": [
        {
          "internalType": "uint256",
          "name": "",
          "type": "uint256"
        }
      ],
      "stateMutability": "nonpayable",
      "type": "function"
    },
    {
      "inputs": [],
      "name": "staking",
      "outputs": [
        {
          "internalType": "address",
          "name": "",
          "type": "address"
        }
      ],
      "stateMutability": "view",
      "type": "function"
    },
    {
      "inputs": [
        {
          "internalType": "address",
          "name": "token",
          "type": "address"
        },
        {
          "internalType": "address",
          "name": "recipient",
          "type": "address"
        },
        {
          "internalType": "uint256",
          "name": "amount",
          "type": "uint256"
        }
      ],
      "name": "transfer",
      "outputs": [],
      "stateMutability": "nonpayable",
      "type": "function"
    },
    {
      "inputs": [
        {
          "internalType": "address",
          "name": "newOwner",
          "type": "address"
        }
      ],
      "name": "transferOwnership",
      "outputs": [],
      "stateMutability": "nonpayable",
      "type": "function"
    },
    {
      "inputs": [],
      "name": "unpause",
      "outputs": [],
      "stateMutability": "nonpayable",
      "type": "function"
    }
  ],
  "bytecode": "0x608060405234801561001057600080fd5b506040516115fd3803806115fd83398101604081905261002f91610063565b600080546001600160a01b039092166001600160a01b03199283161790556001805490911632179055600019600255610093565b60006020828403121561007557600080fd5b81516001600160a01b038116811461008c57600080fd5b9392505050565b61155b806100a26000396000f3fe608060405234801561001057600080fd5b50600436106100b45760003560e01c80638456cb59116100715780638456cb59146101475780638da5cb5b1461014f5780639742b5c314610160578063b0e21e8a14610173578063beabacc81461017b578063f2fde38b1461018e57600080fd5b806319ab453c146100b957806324b912e5146100ce578063370158ea146100f45780633f4ba83a146101145780634cf088d91461011c5780635c975abb1461012f575b600080fd5b6100cc6100c7366004611256565b6101a1565b005b6100e16100dc36600461132c565b610223565b6040519081526020015b60405180910390f35b6100fc61026e565b6040516001600160a01b0390911681526020016100eb565b6100cc610390565b6003546100fc906001600160a01b031681565b610137610591565b60405190151581526020016100eb565b6100cc6106c1565b6001546001600160a01b03166100fc565b6100cc61016e3660046112fa565b6108c5565b6100e1610a98565b6100cc610189366004611297565b610dff565b6100cc61019c366004611256565b610eb1565b6001546001600160a01b03166101ce57600180546001600160a01b03191632179055600019600255610201565b6001546001600160a01b031633146102015760405162461bcd60e51b81526004016101f89061141b565b60405180910390fd5b600380546001600160a01b0319166001600160a01b0392909216919091179055565b6000836040518060400160405280601081526020016f20baba37b6b0ba32a6b7b1b597393ab760811b8152506102598282611012565b50610264848661149e565b9695505050505050565b604051630d7100e360e31b8152306004820152600090819073__$0bac19a4f6859fb91e3c64d76ce49d598f$__90636b8807189060240160206040518083038186803b1580156102bd57600080fd5b505af41580156102d1573d6000803e3d6000fd5b505050506040513d601f19601f820116820180604052508101906102f5919061127a565b90506001600160a01b0381163014156103195750506000546001600160a01b031690565b806001600160a01b031663370158ea6040518163ffffffff1660e01b815260040160206040518083038186803b15801561035257600080fd5b505afa158015610366573d6000803e3d6000fd5b505050506040513d601f19601f8201168201806040525081019061038a919061127a565b91505090565b604051630d7100e360e31b815230600482018190529073__$0bac19a4f6859fb91e3c64d76ce49d598f$__90636b8807189060240160206040518083038186803b1580156103dd57600080fd5b505af41580156103f1573d6000803e3d6000fd5b505050506040513d601f19601f82011682018060405250810190610415919061127a565b6001600160a01b0316141561050d57600061042e61026e565b6040516321f8a72160e01b81527f689d13d8ed8ef1027633ba26e7121121cf427434450a529548f19bf17597439560048201526001600160a01b0391909116906321f8a7219060240160206040518083038186803b15801561048f57600080fd5b505afa1580156104a3573d6000803e3d6000fd5b505050506040513d601f19601f820116820180604052508101906104c7919061127a565b6001549091506001600160a01b03163314806104eb5750336001600160a01b038216145b6105075760405162461bcd60e51b81526004016101f89061145c565b50610537565b6001546001600160a01b031633146105375760405162461bcd60e51b81526004016101f89061145c565b61053f610591565b6105825760405162461bcd60e51b8152602060048201526014602482015273105d5d1bdb585d194e881b9bdd081c185d5cd95960621b60448201526064016101f8565b6001805460ff60a01b19169055565b604051630d7100e360e31b8152306004820152600090819073__$0bac19a4f6859fb91e3c64d76ce49d598f$__90636b8807189060240160206040518083038186803b1580156105e057600080fd5b505af41580156105f4573d6000803e3d6000fd5b505050506040513d601f19601f82011682018060405250810190610618919061127a565b90506001600160a01b03811630141561063d575050600154600160a01b900460ff1690565b600154600160a01b900460ff168061038a5750806001600160a01b0316635c975abb6040518163ffffffff1660e01b815260040160206040518083038186803b15801561068957600080fd5b505afa15801561069d573d6000803e3d6000fd5b505050506040513d601f19601f8201168201806040525081019061038a91906112d8565b604051630d7100e360e31b815230600482018190529073__$0bac19a4f6859fb91e3c64d76ce49d598f$__90636b8807189060240160206040518083038186803b15801561070e57600080fd5b505af4158015610722573d6000803e3d6000fd5b505050506040513d601f19601f82011682018060405250810190610746919061127a565b6001600160a01b0316141561083e57600061075f61026e565b6040516321f8a72160e01b81527f689d13d8ed8ef1027633ba26e7121121cf427434450a529548f19bf17597439560048201526001600160a01b0391909116906321f8a7219060240160206040518083038186803b1580156107c057600080fd5b505afa1580156107d4573d6000803e3d6000fd5b505050506040513d601f19601f820116820180604052508101906107f8919061127a565b6001549091506001600160a01b031633148061081c5750336001600160a01b038216145b6108385760405162461bcd60e51b81526004016101f89061145c565b50610868565b6001546001600160a01b031633146108685760405162461bcd60e51b81526004016101f89061145c565b610870610591565b156108b05760405162461bcd60e51b815260206004820152601060248201526f105d5d1bdb585d194e881c185d5cd95960821b60448201526064016101f8565b6001805460ff60a01b1916600160a01b179055565b604051630d7100e360e31b815230600482015260009073__$0bac19a4f6859fb91e3c64d76ce49d598f$__90636b8807189060240160206040518083038186803b15801561091257600080fd5b505af4158015610926573d6000803e3d6000fd5b505050506040513d601f19601f8201168201806040525081019061094a919061127a565b9050336001600160a01b03821630146109d357816001600160a01b0316638da5cb5b6040518163ffffffff1660e01b815260040160206040518083038186803b15801561099657600080fd5b505afa1580156109aa573d6000803e3d6000fd5b505050506040513d601f19601f820116820180604052508101906109ce919061127a565b6109e0565b6001546001600160a01b03165b6001600160a01b031614610a5c5760405162461bcd60e51b815260206004820152603d60248201527f4175746f6d6174653a3a6368616e676550726f746f636f6c4665653a2063616c60448201527f6c6572206973206e6f74207468652070726f746f636f6c206f776e657200000060648201526084016101f8565b60028290556040518281527f3c1d43943224e49d951ce8295a5c8332b517083b3f89bed50feae2cb39caebb59060200160405180910390a15050565b604051630d7100e360e31b8152306004820152600090819073__$0bac19a4f6859fb91e3c64d76ce49d598f$__90636b8807189060240160206040518083038186803b158015610ae757600080fd5b505af4158015610afb573d6000803e3d6000fd5b505050506040513d601f19601f82011682018060405250810190610b1f919061127a565b90506001600160a01b0381163014801590610b3c57506000600254125b15610bb257806001600160a01b031663b0e21e8a6040518163ffffffff1660e01b815260040160206040518083038186803b158015610b7a57600080fd5b505afa158015610b8e573d6000803e3d6000fd5b505050506040513d601f19601f8201168201806040525081019061038a9190611313565b6000610bbc61026e565b905060008060025412610bd157600254610c68565b60405163bd02d0f560e01b81527fa93d95f96a5de25d7a41ddf1f5e8d45cfc929c4838163cf011dab4043a4a40d560048201526001600160a01b0383169063bd02d0f59060240160206040518083038186803b158015610c3057600080fd5b505afa158015610c44573d6000803e3d6000fd5b505050506040513d601f19601f82011682018060405250810190610c689190611313565b905080610c79576000935050505090565b6040516321f8a72160e01b81527f65c90423fe7c880476633a7e36521740f87199d233dc56eb4ca6643eb76f605f60048201526000906001600160a01b038416906321f8a7219060240160206040518083038186803b158015610cdb57600080fd5b505afa158015610cef573d6000803e3d6000fd5b505050506040513d601f19601f82011682018060405250810190610d13919061127a565b6001600160a01b031663feaf968c6040518163ffffffff1660e01b815260040160a06040518083038186803b158015610d4b57600080fd5b505afa158015610d5f573d6000803e3d6000fd5b505050506040513d601f19601f82011682018060405250810190610d839190611358565b50505091505060008113610dd95760405162461bcd60e51b815260206004820152601760248201527f4175746f6d6174653a20696e76616c696420707269636500000000000000000060448201526064016101f8565b80610dec83670de0b6b3a76400006114d8565b610df691906114b6565b94505050505090565b6001546001600160a01b03163314610e295760405162461bcd60e51b81526004016101f89061141b565b60405163a9059cbb60e01b81526001600160a01b0383811660048301526024820183905284169063a9059cbb90604401602060405180830381600087803b158015610e7357600080fd5b505af1158015610e87573d6000803e3d6000fd5b505050506040513d601f19601f82011682018060405250810190610eab91906112d8565b50505050565b6001546001600160a01b03163314610edb5760405162461bcd60e51b81526004016101f89061141b565b604051630d7100e360e31b815230600482018190529073__$0bac19a4f6859fb91e3c64d76ce49d598f$__90636b8807189060240160206040518083038186803b158015610f2857600080fd5b505af4158015610f3c573d6000803e3d6000fd5b505050506040513d601f19601f82011682018060405250810190610f60919061127a565b6001600160a01b031614610fc05760405162461bcd60e51b815260206004820152602160248201527f4175746f6d6174653a206368616e676520746865206f776e6572206661696c656044820152601960fa1b60648201526084016101f8565b600180546001600160a01b038381166001600160a01b0319831681179093556040519116919082907f8be0079c531659141344cd1fd0a4f28419497f9722a3daafe3b4186f6b6457e090600090a35050565b600061101c610591565b1561105c5760405162461bcd60e51b815260206004820152601060248201526f105d5d1bdb585d194e881c185d5cd95960821b60448201526064016101f8565b60006110706001546001600160a01b031690565b9050326001600160a01b038216141561108d576000915050611231565b600061109761026e565b6040516321f8a72160e01b81527fe78c16c6d839536d3155985aab4e9c6013c8c3d446054bcebc48612f359d81f560048201529091506000906001600160a01b038316906321f8a7219060240160206040518083038186803b1580156110fc57600080fd5b505afa158015611110573d6000803e3d6000fd5b505050506040513d601f19601f82011682018060405250810190611134919061127a565b90506001600160a01b0381166111a05760405162461bcd60e51b815260206004820152602b60248201527f4175746f6d6174653a3a5f62696c6c3a2062616c616e636520636f6e7472616360448201526a1d081b9bdd08199bdd5b9960aa1b60648201526084016101f8565b806001600160a01b031663e578a22584886111b9610a98565b896040518563ffffffff1660e01b81526004016111d994939291906113a8565b602060405180830381600087803b1580156111f357600080fd5b505af1158015611207573d6000803e3d6000fd5b505050506040513d601f19601f8201168201806040525081019061122b9190611313565b93505050505b92915050565b805169ffffffffffffffffffff8116811461125157600080fd5b919050565b60006020828403121561126857600080fd5b81356112738161150d565b9392505050565b60006020828403121561128c57600080fd5b81516112738161150d565b6000806000606084860312156112ac57600080fd5b83356112b78161150d565b925060208401356112c78161150d565b929592945050506040919091013590565b6000602082840312156112ea57600080fd5b8151801515811461127357600080fd5b60006020828403121561130c57600080fd5b5035919050565b60006020828403121561132557600080fd5b5051919050565b60008060006060848603121561134157600080fd5b505081359360208301359350604090920135919050565b600080600080600060a0868803121561137057600080fd5b61137986611237565b945060208601519350604086015192506060860151915061139c60808701611237565b90509295509295909350565b60018060a01b038516815260006020858184015284604084015260806060840152835180608085015260005b818110156113f05785810183015185820160a0015282016113d4565b8181111561140257600060a083870101525b50601f01601f19169290920160a0019695505050505050565b60208082526021908201527f4175746f6d6174653a2063616c6c6572206973206e6f7420746865206f776e656040820152603960f91b606082015260800190565b60208082526022908201527f4175746f6d6174653a2063616c6c6572206973206e6f7420746865207061757360408201526132b960f11b606082015260800190565b600082198211156114b1576114b16114f7565b500190565b6000826114d357634e487b7160e01b600052601260045260246000fd5b500490565b60008160001904831182151516156114f2576114f26114f7565b500290565b634e487b7160e01b600052601160045260246000fd5b6001600160a01b038116811461152257600080fd5b5056fea26469706673582212204257c6ac55b833d6d9baaec123bd8af770777f9820b07c01f41447b9f089a4cb64736f6c63430008060033",
  "linkReferences": {
    "automates/utils/DFH/proxy/ERC1167.sol": {
      "ERC1167": [
        {
          "length": 20,
          "start": 810
        },
        {
          "length": 20,
          "start": 1098
        },
        {
          "length": 20,
          "start": 1613
        },
        {
          "length": 20,
          "start": 1915
        },
        {
          "length": 20,
          "start": 2431
        },
        {
          "length": 20,
          "start": 2900
        },
        {
          "length": 20,
          "start": 3989
        }
      ]
    }
  },
  "deployedLinkReferences": {
    "automates/utils/DFH/proxy/ERC1167.sol": {
      "ERC1167": [
        {
          "length": 20,
          "start": 648
        },
        {
          "length": 20,
          "start": 936
        },
        {
          "length": 20,
          "start": 1451
        },
        {
          "length": 20,
          "start": 1753
        },
        {
          "length": 20,
          "start": 2269
        },
        {
          "length": 20,
          "start": 2738
        },
        {
          "length": 20,
          "start": 3827
        }
      ]
    }
  }
}