{
  "address": "0x33867FC2fB2eb889f6D7e3e5863450603c796a8e",
  "abi": [
    {
      "inputs": [
        {
          "internalType": "address",
          "name": "_info",
          "type": "address"
        }
      ],
      "stateMutability": "nonpayable",
      "type": "constructor"
    },
    {
      "anonymous": false,
      "inputs": [
        {
          "indexed": true,
          "internalType": "address",
          "name": "previousOwner",
          "type": "address"
        },
        {
          "indexed": true,
          "internalType": "address",
          "name": "newOwner",
          "type": "address"
        }
      ],
      "name": "OwnershipTransferred",
      "type": "event"
    },
    {
      "anonymous": false,
      "inputs": [
        {
          "indexed": false,
          "internalType": "int256",
          "name": "protocolFee",
          "type": "int256"
        }
      ],
      "name": "ProtocolFeeChanged",
      "type": "event"
    },
    {
      "inputs": [
        {
          "internalType": "int256",
          "name": "__protocolFee",
          "type": "int256"
        }
      ],
      "name": "changeProtocolFee",
      "outputs": [],
      "stateMutability": "nonpayable",
      "type": "function"
    },
    {
      "inputs": [],
      "name": "deadline",
      "outputs": [
        {
          "internalType": "uint16",
          "name": "",
          "type": "uint16"
        }
      ],
      "stateMutability": "view",
      "type": "function"
    },
    {
      "inputs": [],
      "name": "deposit",
      "outputs": [],
      "stateMutability": "nonpayable",
      "type": "function"
    },
    {
      "inputs": [],
      "name": "emergencyWithdraw",
      "outputs": [],
      "stateMutability": "nonpayable",
      "type": "function"
    },
    {
      "inputs": [],
      "name": "info",
      "outputs": [
        {
          "internalType": "address",
          "name": "",
          "type": "address"
        }
      ],
      "stateMutability": "view",
      "type": "function"
    },
    {
      "inputs": [
        {
          "internalType": "address",
          "name": "_staking",
          "type": "address"
        },
        {
          "internalType": "address",
          "name": "_liquidityRouter",
          "type": "address"
        },
        {
          "internalType": "uint256",
          "name": "_pool",
          "type": "uint256"
        },
        {
          "internalType": "uint16",
          "name": "_slippage",
          "type": "uint16"
        },
        {
          "internalType": "uint16",
          "name": "_deadline",
          "type": "uint16"
        }
      ],
      "name": "init",
      "outputs": [],
      "stateMutability": "nonpayable",
      "type": "function"
    },
    {
      "inputs": [],
      "name": "liquidityRouter",
      "outputs": [
        {
          "internalType": "address",
          "name": "",
          "type": "address"
        }
      ],
      "stateMutability": "view",
      "type": "function"
    },
    {
      "inputs": [],
      "name": "owner",
      "outputs": [
        {
          "internalType": "address",
          "name": "",
          "type": "address"
        }
      ],
      "stateMutability": "view",
      "type": "function"
    },
    {
      "inputs": [],
      "name": "pause",
      "outputs": [],
      "stateMutability": "nonpayable",
      "type": "function"
    },
    {
      "inputs": [],
      "name": "paused",
      "outputs": [
        {
          "internalType": "bool",
          "name": "",
          "type": "bool"
        }
      ],
      "stateMutability": "view",
      "type": "function"
    },
    {
      "inputs": [],
      "name": "pool",
      "outputs": [
        {
          "internalType": "uint256",
          "name": "",
          "type": "uint256"
        }
      ],
      "stateMutability": "view",
      "type": "function"
    },
    {
      "inputs": [],
      "name": "protocolFee",
      "outputs": [
        {
          "internalType": "uint256",
          "name": "",
          "type": "uint256"
        }
      ],
      "stateMutability": "view",
      "type": "function"
    },
    {
      "inputs": [],
      "name": "refund",
      "outputs": [],
      "stateMutability": "nonpayable",
      "type": "function"
    },
    {
      "inputs": [],
      "name": "rewardToken",
      "outputs": [
        {
          "internalType": "contract IERC20",
          "name": "",
          "type": "address"
        }
      ],
      "stateMutability": "view",
      "type": "function"
    },
    {
      "inputs": [
        {
          "internalType": "uint256",
          "name": "gasFee",
          "type": "uint256"
        },
        {
          "internalType": "uint256",
          "name": "_deadline",
          "type": "uint256"
        },
        {
          "components": [
            {
              "internalType": "address[]",
              "name": "path",
              "type": "address[]"
            },
            {
              "internalType": "uint256",
              "name": "outMin",
              "type": "uint256"
            }
          ],
          "internalType": "struct MasterChefFinnLpRestake.Swap",
          "name": "swap0",
          "type": "tuple"
        },
        {
          "components": [
            {
              "internalType": "address[]",
              "name": "path",
              "type": "address[]"
            },
            {
              "internalType": "uint256",
              "name": "outMin",
              "type": "uint256"
            }
          ],
          "internalType": "struct MasterChefFinnLpRestake.Swap",
          "name": "swap1",
          "type": "tuple"
        }
      ],
      "name": "run",
      "outputs": [],
      "stateMutability": "nonpayable",
      "type": "function"
    },
    {
      "inputs": [],
      "name": "slippage",
      "outputs": [
        {
          "internalType": "uint16",
          "name": "",
          "type": "uint16"
        }
      ],
      "stateMutability": "view",
      "type": "function"
    },
    {
      "inputs": [],
      "name": "staking",
      "outputs": [
        {
          "internalType": "contract IMasterChefFinnV2",
          "name": "",
          "type": "address"
        }
      ],
      "stateMutability": "view",
      "type": "function"
    },
    {
      "inputs": [],
      "name": "stakingToken",
      "outputs": [
        {
          "internalType": "contract IERC20",
          "name": "",
          "type": "address"
        }
      ],
      "stateMutability": "view",
      "type": "function"
    },
    {
      "inputs": [
        {
          "internalType": "address",
          "name": "token",
          "type": "address"
        },
        {
          "internalType": "address",
          "name": "recipient",
          "type": "address"
        },
        {
          "internalType": "uint256",
          "name": "amount",
          "type": "uint256"
        }
      ],
      "name": "transfer",
      "outputs": [],
      "stateMutability": "nonpayable",
      "type": "function"
    },
    {
      "inputs": [
        {
          "internalType": "address",
          "name": "newOwner",
          "type": "address"
        }
      ],
      "name": "transferOwnership",
      "outputs": [],
      "stateMutability": "nonpayable",
      "type": "function"
    },
    {
      "inputs": [],
      "name": "unpause",
      "outputs": [],
      "stateMutability": "nonpayable",
      "type": "function"
    }
  ],
  "transactionHash": "0xd4e221ca841d8abacb756f76102f71ccd2fd1f4915ac3692faca68108e70891c",
  "args": [
    "0x9B8583F71240ea6fa1A2a1e60BF4CE7DAfd6D5E4"
  ],
  "solcInputHash": "391636f46222aa9432081031b6af2c76",
  "bytecode": "0x60806040523480156200001157600080fd5b5060405162003e3138038062003e31833981016040819052620000349162000069565b600080546001600160a01b039092166001600160a01b031992831617905560018054909116321790556000196002556200009b565b6000602082840312156200007c57600080fd5b81516001600160a01b03811681146200009457600080fd5b9392505050565b613d8680620000ab6000396000f3fe608060405234801561001057600080fd5b50600436106101775760003560e01c80638456cb59116100d8578063b838d9141161008c578063db2e21bc11610066578063db2e21bc14610313578063f2fde38b1461031b578063f7c618c11461032e57600080fd5b8063b838d914146102e5578063beabacc8146102f8578063d0e30db01461030b57600080fd5b80638da5cb5b116100bd5780638da5cb5b146102ac5780639742b5c3146102ca578063b0e21e8a146102dd57600080fd5b80638456cb591461029157806388591b271461029957600080fd5b80633f4ba83a1161012f578063590e1ae311610114578063590e1ae3146102495780635c975abb1461025157806372f702f31461026957600080fd5b80633f4ba83a1461021a5780634cf088d91461022457600080fd5b806329dcb0cf1161016057806329dcb0cf146101dd578063370158ea146102045780633e032a3b1461020c57600080fd5b806316f0115b1461017c5780632470294414610198575b600080fd5b61018560055481565b6040519081526020015b60405180910390f35b6004546101b89073ffffffffffffffffffffffffffffffffffffffff1681565b60405173ffffffffffffffffffffffffffffffffffffffff909116815260200161018f565b6006546101f19062010000900461ffff1681565b60405161ffff909116815260200161018f565b6101b861034e565b6006546101f19061ffff1681565b6102226104b0565b005b6003546101b890610100900473ffffffffffffffffffffffffffffffffffffffff1681565b610222610847565b610259610d14565b604051901515815260200161018f565b6006546101b890640100000000900473ffffffffffffffffffffffffffffffffffffffff1681565b610222610e99565b6102226102a7366004613982565b611243565b60015473ffffffffffffffffffffffffffffffffffffffff166101b8565b6102226102d8366004613892565b61180a565b610185611a44565b6102226102f336600461380e565b611e51565b6102226103063660046137cd565b6124a2565b6102226125a4565b6102226127be565b61022261032936600461378c565b612bbc565b6007546101b89073ffffffffffffffffffffffffffffffffffffffff1681565b6040517f6b880718000000000000000000000000000000000000000000000000000000008152306004820152600090819073d8C830401453796e043b35B628EF55A18817D9bD90636b8807189060240160206040518083038186803b1580156103b657600080fd5b505af41580156103ca573d6000803e3d6000fd5b505050506040513d601f19601f820116820180604052508101906103ee91906137b0565b905073ffffffffffffffffffffffffffffffffffffffff811630141561042c57505060005473ffffffffffffffffffffffffffffffffffffffff1690565b8073ffffffffffffffffffffffffffffffffffffffff1663370158ea6040518163ffffffff1660e01b815260040160206040518083038186803b15801561047257600080fd5b505afa158015610486573d6000803e3d6000fd5b505050506040513d601f19601f820116820180604052508101906104aa91906137b0565b91505090565b6040517f6b88071800000000000000000000000000000000000000000000000000000000815230600482018190529073d8C830401453796e043b35B628EF55A18817D9bD90636b8807189060240160206040518083038186803b15801561051657600080fd5b505af415801561052a573d6000803e3d6000fd5b505050506040513d601f19601f8201168201806040525081019061054e91906137b0565b73ffffffffffffffffffffffffffffffffffffffff16141561070857600061057461034e565b6040517f21f8a7210000000000000000000000000000000000000000000000000000000081527f689d13d8ed8ef1027633ba26e7121121cf427434450a529548f19bf175974395600482015273ffffffffffffffffffffffffffffffffffffffff91909116906321f8a7219060240160206040518083038186803b1580156105fb57600080fd5b505afa15801561060f573d6000803e3d6000fd5b505050506040513d601f19601f8201168201806040525081019061063391906137b0565b60015490915073ffffffffffffffffffffffffffffffffffffffff1633148061067157503373ffffffffffffffffffffffffffffffffffffffff8216145b610702576040517f08c379a000000000000000000000000000000000000000000000000000000000815260206004820152602260248201527f4175746f6d6174653a2063616c6c6572206973206e6f7420746865207061757360448201527f657200000000000000000000000000000000000000000000000000000000000060648201526084015b60405180910390fd5b506107af565b60015473ffffffffffffffffffffffffffffffffffffffff1633146107af576040517f08c379a000000000000000000000000000000000000000000000000000000000815260206004820152602260248201527f4175746f6d6174653a2063616c6c6572206973206e6f7420746865207061757360448201527f657200000000000000000000000000000000000000000000000000000000000060648201526084016106f9565b6107b7610d14565b61081d576040517f08c379a000000000000000000000000000000000000000000000000000000000815260206004820152601460248201527f4175746f6d6174653a206e6f742070617573656400000000000000000000000060448201526064016106f9565b600180547fffffffffffffffffffffff00ffffffffffffffffffffffffffffffffffffffff169055565b60015473ffffffffffffffffffffffffffffffffffffffff1633146108ee576040517f08c379a000000000000000000000000000000000000000000000000000000000815260206004820152602160248201527f4175746f6d6174653a2063616c6c6572206973206e6f7420746865206f776e6560448201527f720000000000000000000000000000000000000000000000000000000000000060648201526084016106f9565b60035473ffffffffffffffffffffffffffffffffffffffff61010090910416600061092e60015473ffffffffffffffffffffffffffffffffffffffff1690565b6005546040517f93f1a40b000000000000000000000000000000000000000000000000000000008152600481019190915230602482015290915060009073ffffffffffffffffffffffffffffffffffffffff8416906393f1a40b90604401604080518083038186803b1580156109a357600080fd5b505afa1580156109b7573d6000803e3d6000fd5b505050506040513d601f19601f820116820180604052508101906109db919061391a565b60055481516040517f441a3e700000000000000000000000000000000000000000000000000000000081526004810192909252602482015290915073ffffffffffffffffffffffffffffffffffffffff84169063441a3e7090604401600060405180830381600087803b158015610a5157600080fd5b505af1158015610a65573d6000803e3d6000fd5b50506006546040517f70a0823100000000000000000000000000000000000000000000000000000000815230600482015264010000000090910473ffffffffffffffffffffffffffffffffffffffff16925063a9059cbb9150849083906370a082319060240160206040518083038186803b158015610ae357600080fd5b505afa158015610af7573d6000803e3d6000fd5b505050506040513d601f19601f82011682018060405250810190610b1b9190613969565b6040517fffffffff0000000000000000000000000000000000000000000000000000000060e085901b16815273ffffffffffffffffffffffffffffffffffffffff90921660048301526024820152604401602060405180830381600087803b158015610b8657600080fd5b505af1158015610b9a573d6000803e3d6000fd5b505050506040513d601f19601f82011682018060405250810190610bbe9190613870565b506007546040517f70a0823100000000000000000000000000000000000000000000000000000000815230600482015273ffffffffffffffffffffffffffffffffffffffff9091169063a9059cbb90849083906370a082319060240160206040518083038186803b158015610c3257600080fd5b505afa158015610c46573d6000803e3d6000fd5b505050506040513d601f19601f82011682018060405250810190610c6a9190613969565b6040517fffffffff0000000000000000000000000000000000000000000000000000000060e085901b16815273ffffffffffffffffffffffffffffffffffffffff909216600483015260248201526044015b602060405180830381600087803b158015610cd657600080fd5b505af1158015610cea573d6000803e3d6000fd5b505050506040513d601f19601f82011682018060405250810190610d0e9190613870565b50505050565b6040517f6b880718000000000000000000000000000000000000000000000000000000008152306004820152600090819073d8C830401453796e043b35B628EF55A18817D9bD90636b8807189060240160206040518083038186803b158015610d7c57600080fd5b505af4158015610d90573d6000803e3d6000fd5b505050506040513d601f19601f82011682018060405250810190610db491906137b0565b905073ffffffffffffffffffffffffffffffffffffffff8116301415610df757505060015474010000000000000000000000000000000000000000900460ff1690565b60015474010000000000000000000000000000000000000000900460ff16806104aa57508073ffffffffffffffffffffffffffffffffffffffff16635c975abb6040518163ffffffff1660e01b815260040160206040518083038186803b158015610e6157600080fd5b505afa158015610e75573d6000803e3d6000fd5b505050506040513d601f19601f820116820180604052508101906104aa9190613870565b6040517f6b88071800000000000000000000000000000000000000000000000000000000815230600482018190529073d8C830401453796e043b35B628EF55A18817D9bD90636b8807189060240160206040518083038186803b158015610eff57600080fd5b505af4158015610f13573d6000803e3d6000fd5b505050506040513d601f19601f82011682018060405250810190610f3791906137b0565b73ffffffffffffffffffffffffffffffffffffffff1614156110ec576000610f5d61034e565b6040517f21f8a7210000000000000000000000000000000000000000000000000000000081527f689d13d8ed8ef1027633ba26e7121121cf427434450a529548f19bf175974395600482015273ffffffffffffffffffffffffffffffffffffffff91909116906321f8a7219060240160206040518083038186803b158015610fe457600080fd5b505afa158015610ff8573d6000803e3d6000fd5b505050506040513d601f19601f8201168201806040525081019061101c91906137b0565b60015490915073ffffffffffffffffffffffffffffffffffffffff1633148061105a57503373ffffffffffffffffffffffffffffffffffffffff8216145b6110e6576040517f08c379a000000000000000000000000000000000000000000000000000000000815260206004820152602260248201527f4175746f6d6174653a2063616c6c6572206973206e6f7420746865207061757360448201527f657200000000000000000000000000000000000000000000000000000000000060648201526084016106f9565b50611193565b60015473ffffffffffffffffffffffffffffffffffffffff163314611193576040517f08c379a000000000000000000000000000000000000000000000000000000000815260206004820152602260248201527f4175746f6d6174653a2063616c6c6572206973206e6f7420746865207061757360448201527f657200000000000000000000000000000000000000000000000000000000000060648201526084016106f9565b61119b610d14565b15611202576040517f08c379a000000000000000000000000000000000000000000000000000000000815260206004820152601060248201527f4175746f6d6174653a207061757365640000000000000000000000000000000060448201526064016106f9565b600180547fffffffffffffffffffffff00ffffffffffffffffffffffffffffffffffffffff1674010000000000000000000000000000000000000000179055565b836040518060600160405280602b8152602001613d4f602b91396112678282612e1b565b506003546005546040517f98969e82000000000000000000000000000000000000000000000000000000008152600481019190915230602482015261010090910473ffffffffffffffffffffffffffffffffffffffff169060009082906398969e829060440160206040518083038186803b1580156112e557600080fd5b505afa1580156112f9573d6000803e3d6000fd5b505050506040513d601f19601f8201168201806040525081019061131d9190613969565b9050600081116113af576040517f08c379a000000000000000000000000000000000000000000000000000000000815260206004820152602760248201527f4d61737465724368656646696e6e4c7052657374616b653a3a72756e3a206e6f60448201527f206561726e65640000000000000000000000000000000000000000000000000060648201526084016106f9565b6005546040517fe2bbb15800000000000000000000000000000000000000000000000000000000815260048101919091526000602482015273ffffffffffffffffffffffffffffffffffffffff83169063e2bbb15890604401600060405180830381600087803b15801561142257600080fd5b505af1158015611436573d6000803e3d6000fd5b50506007546040517f70a082310000000000000000000000000000000000000000000000000000000081523060048201526000935073ffffffffffffffffffffffffffffffffffffffff90911691506370a082319060240160206040518083038186803b1580156114a657600080fd5b505afa1580156114ba573d6000803e3d6000fd5b505050506040513d601f19601f820116820180604052508101906114de9190613969565b60045460075491925061150b9173ffffffffffffffffffffffffffffffffffffffff9081169116836130ed565b61153c8760000151604051806040016040528060028561152b9190613c0d565b815260208b8101519101528a61330b565b6115778660000151604051806040016040528060028561155c9190613c0d565b6115669086613c85565b815260208a8101519101528a61330b565b6000600660049054906101000a900473ffffffffffffffffffffffffffffffffffffffff1690506116a38173ffffffffffffffffffffffffffffffffffffffff16630dfe16816040518163ffffffff1660e01b815260040160206040518083038186803b1580156115e757600080fd5b505afa1580156115fb573d6000803e3d6000fd5b505050506040513d601f19601f8201168201806040525081019061161f91906137b0565b8273ffffffffffffffffffffffffffffffffffffffff1663d21220a76040518163ffffffff1660e01b815260040160206040518083038186803b15801561166557600080fd5b505afa158015611679573d6000803e3d6000fd5b505050506040513d601f19601f8201168201806040525081019061169d91906137b0565b8b61341d565b6040517f70a0823100000000000000000000000000000000000000000000000000000000815230600482015260009073ffffffffffffffffffffffffffffffffffffffff8316906370a082319060240160206040518083038186803b15801561170b57600080fd5b505afa15801561171f573d6000803e3d6000fd5b505050506040513d601f19601f820116820180604052508101906117439190613969565b60065490915061177290640100000000900473ffffffffffffffffffffffffffffffffffffffff1686836130ed565b6005546040517fe2bbb15800000000000000000000000000000000000000000000000000000000815260048101919091526024810182905273ffffffffffffffffffffffffffffffffffffffff86169063e2bbb15890604401600060405180830381600087803b1580156117e557600080fd5b505af11580156117f9573d6000803e3d6000fd5b505050505050505050505050505050565b6040517f6b88071800000000000000000000000000000000000000000000000000000000815230600482015260009073d8C830401453796e043b35B628EF55A18817D9bD90636b8807189060240160206040518083038186803b15801561187057600080fd5b505af4158015611884573d6000803e3d6000fd5b505050506040513d601f19601f820116820180604052508101906118a891906137b0565b90503373ffffffffffffffffffffffffffffffffffffffff8216301461194b578173ffffffffffffffffffffffffffffffffffffffff16638da5cb5b6040518163ffffffff1660e01b815260040160206040518083038186803b15801561190e57600080fd5b505afa158015611922573d6000803e3d6000fd5b505050506040513d601f19601f8201168201806040525081019061194691906137b0565b611965565b60015473ffffffffffffffffffffffffffffffffffffffff165b73ffffffffffffffffffffffffffffffffffffffff1614611a08576040517f08c379a000000000000000000000000000000000000000000000000000000000815260206004820152603d60248201527f4175746f6d6174653a3a6368616e676550726f746f636f6c4665653a2063616c60448201527f6c6572206973206e6f74207468652070726f746f636f6c206f776e657200000060648201526084016106f9565b60028290556040518281527f3c1d43943224e49d951ce8295a5c8332b517083b3f89bed50feae2cb39caebb59060200160405180910390a15050565b6040517f6b880718000000000000000000000000000000000000000000000000000000008152306004820152600090819073d8C830401453796e043b35B628EF55A18817D9bD90636b8807189060240160206040518083038186803b158015611aac57600080fd5b505af4158015611ac0573d6000803e3d6000fd5b505050506040513d601f19601f82011682018060405250810190611ae491906137b0565b905073ffffffffffffffffffffffffffffffffffffffff81163014801590611b0e57506000600254125b15611b91578073ffffffffffffffffffffffffffffffffffffffff1663b0e21e8a6040518163ffffffff1660e01b815260040160206040518083038186803b158015611b5957600080fd5b505afa158015611b6d573d6000803e3d6000fd5b505050506040513d601f19601f820116820180604052508101906104aa9190613969565b6000611b9b61034e565b905060008060025412611bb057600254611c6d565b6040517fbd02d0f50000000000000000000000000000000000000000000000000000000081527fa93d95f96a5de25d7a41ddf1f5e8d45cfc929c4838163cf011dab4043a4a40d5600482015273ffffffffffffffffffffffffffffffffffffffff83169063bd02d0f59060240160206040518083038186803b158015611c3557600080fd5b505afa158015611c49573d6000803e3d6000fd5b505050506040513d601f19601f82011682018060405250810190611c6d9190613969565b905080611c7e576000935050505090565b6040517f21f8a7210000000000000000000000000000000000000000000000000000000081527f65c90423fe7c880476633a7e36521740f87199d233dc56eb4ca6643eb76f605f600482015260009073ffffffffffffffffffffffffffffffffffffffff8416906321f8a7219060240160206040518083038186803b158015611d0657600080fd5b505afa158015611d1a573d6000803e3d6000fd5b505050506040513d601f19601f82011682018060405250810190611d3e91906137b0565b73ffffffffffffffffffffffffffffffffffffffff1663feaf968c6040518163ffffffff1660e01b815260040160a06040518083038186803b158015611d8357600080fd5b505afa158015611d97573d6000803e3d6000fd5b505050506040513d601f19601f82011682018060405250810190611dbb9190613a27565b50505091505060008113611e2b576040517f08c379a000000000000000000000000000000000000000000000000000000000815260206004820152601760248201527f4175746f6d6174653a20696e76616c696420707269636500000000000000000060448201526064016106f9565b80611e3e83670de0b6b3a7640000613c48565b611e489190613c0d565b94505050505090565b60015473ffffffffffffffffffffffffffffffffffffffff16611ec157600180547fffffffffffffffffffffffff000000000000000000000000000000000000000016321790557fffffffffffffffffffffffffffffffffffffffffffffffffffffffffffffffff600255611f68565b60015473ffffffffffffffffffffffffffffffffffffffff163314611f68576040517f08c379a000000000000000000000000000000000000000000000000000000000815260206004820152602160248201527f4175746f6d6174653a2063616c6c6572206973206e6f7420746865206f776e6560448201527f720000000000000000000000000000000000000000000000000000000000000060648201526084016106f9565b60035460ff161580611f99575060035473ffffffffffffffffffffffffffffffffffffffff86811661010090920416145b61204b576040517f08c379a000000000000000000000000000000000000000000000000000000000815260206004820152604560248201527f4d61737465724368656646696e6e4c7052657374616b653a3a696e69743a207260448201527f65696e697469616c697a65207374616b696e67206164647265737320666f726260648201527f696464656e000000000000000000000000000000000000000000000000000000608482015260a4016106f9565b6003805473ffffffffffffffffffffffffffffffffffffffff8716610100027fffffffffffffffffffffff0000000000000000000000000000000000000000ff8216811790925560ff91821691161715806120c0575060045473ffffffffffffffffffffffffffffffffffffffff8581169116145b612172576040517f08c379a000000000000000000000000000000000000000000000000000000000815260206004820152604e60248201527f4d61737465724368656646696e6e4c7052657374616b653a3a696e69743a207260448201527f65696e697469616c697a65206c697175696469747920726f757465722061646460648201527f7265737320666f7262696464656e000000000000000000000000000000000000608482015260a4016106f9565b600480547fffffffffffffffffffffffff00000000000000000000000000000000000000001673ffffffffffffffffffffffffffffffffffffffff861617905560035460ff1615806121c5575082600554145b61225357604080517f08c379a00000000000000000000000000000000000000000000000000000000081526020600482015260248101919091527f4d61737465724368656646696e6e4c7052657374616b653a3a696e69743a207260448201527f65696e697469616c697a6520706f6f6c20696e64657820666f7262696464656e60648201526084016106f9565b60058390556006805461ffff83811662010000027fffffffffffffffffffffffffffffffffffffffffffffffffffffffff000000009092169085161717905560035460ff16612470576003546005546040517f1526fe270000000000000000000000000000000000000000000000000000000081526004810191909152600091610100900473ffffffffffffffffffffffffffffffffffffffff1690631526fe279060240160806040518083038186803b15801561231057600080fd5b505afa158015612324573d6000803e3d6000fd5b505050506040513d601f19601f8201168201806040525081019061234891906138ab565b8051600680547fffffffffffffffff0000000000000000000000000000000000000000ffffffff1664010000000073ffffffffffffffffffffffffffffffffffffffff93841602179055600354604080517f33cc3b170000000000000000000000000000000000000000000000000000000081529051939450610100909104909116916333cc3b1791600480820192602092909190829003018186803b1580156123f157600080fd5b505afa158015612405573d6000803e3d6000fd5b505050506040513d601f19601f8201168201806040525081019061242991906137b0565b600780547fffffffffffffffffffffffff00000000000000000000000000000000000000001673ffffffffffffffffffffffffffffffffffffffff92909216919091179055505b5050600380547fffffffffffffffffffffffffffffffffffffffffffffffffffffffffffffff00166001179055505050565b60015473ffffffffffffffffffffffffffffffffffffffff163314612549576040517f08c379a000000000000000000000000000000000000000000000000000000000815260206004820152602160248201527f4175746f6d6174653a2063616c6c6572206973206e6f7420746865206f776e6560448201527f720000000000000000000000000000000000000000000000000000000000000060648201526084016106f9565b6040517fa9059cbb00000000000000000000000000000000000000000000000000000000815273ffffffffffffffffffffffffffffffffffffffff83811660048301526024820183905284169063a9059cbb90604401610cbc565b60015473ffffffffffffffffffffffffffffffffffffffff16331461264b576040517f08c379a000000000000000000000000000000000000000000000000000000000815260206004820152602160248201527f4175746f6d6174653a2063616c6c6572206973206e6f7420746865206f776e6560448201527f720000000000000000000000000000000000000000000000000000000000000060648201526084016106f9565b6006546040517f70a0823100000000000000000000000000000000000000000000000000000000815230600482015264010000000090910473ffffffffffffffffffffffffffffffffffffffff169060009082906370a082319060240160206040518083038186803b1580156126c057600080fd5b505afa1580156126d4573d6000803e3d6000fd5b505050506040513d601f19601f820116820180604052508101906126f89190613969565b6003549091506127279073ffffffffffffffffffffffffffffffffffffffff84811691610100900416836130ed565b6003546005546040517fe2bbb15800000000000000000000000000000000000000000000000000000000815260048101919091526024810183905261010090910473ffffffffffffffffffffffffffffffffffffffff169063e2bbb15890604401600060405180830381600087803b1580156127a257600080fd5b505af11580156127b6573d6000803e3d6000fd5b505050505050565b60015473ffffffffffffffffffffffffffffffffffffffff163314612865576040517f08c379a000000000000000000000000000000000000000000000000000000000815260206004820152602160248201527f4175746f6d6174653a2063616c6c6572206973206e6f7420746865206f776e6560448201527f720000000000000000000000000000000000000000000000000000000000000060648201526084016106f9565b600061288660015473ffffffffffffffffffffffffffffffffffffffff1690565b6003546005546040517f5312ea8e0000000000000000000000000000000000000000000000000000000081526004810191909152919250610100900473ffffffffffffffffffffffffffffffffffffffff1690635312ea8e90602401600060405180830381600087803b1580156128fc57600080fd5b505af1158015612910573d6000803e3d6000fd5b50506006546040517f70a0823100000000000000000000000000000000000000000000000000000000815230600482015264010000000090910473ffffffffffffffffffffffffffffffffffffffff16925063a9059cbb9150839083906370a082319060240160206040518083038186803b15801561298e57600080fd5b505afa1580156129a2573d6000803e3d6000fd5b505050506040513d601f19601f820116820180604052508101906129c69190613969565b6040517fffffffff0000000000000000000000000000000000000000000000000000000060e085901b16815273ffffffffffffffffffffffffffffffffffffffff90921660048301526024820152604401602060405180830381600087803b158015612a3157600080fd5b505af1158015612a45573d6000803e3d6000fd5b505050506040513d601f19601f82011682018060405250810190612a699190613870565b506007546040517f70a0823100000000000000000000000000000000000000000000000000000000815230600482015273ffffffffffffffffffffffffffffffffffffffff9091169063a9059cbb90839083906370a082319060240160206040518083038186803b158015612add57600080fd5b505afa158015612af1573d6000803e3d6000fd5b505050506040513d601f19601f82011682018060405250810190612b159190613969565b6040517fffffffff0000000000000000000000000000000000000000000000000000000060e085901b16815273ffffffffffffffffffffffffffffffffffffffff90921660048301526024820152604401602060405180830381600087803b158015612b8057600080fd5b505af1158015612b94573d6000803e3d6000fd5b505050506040513d601f19601f82011682018060405250810190612bb89190613870565b5050565b60015473ffffffffffffffffffffffffffffffffffffffff163314612c63576040517f08c379a000000000000000000000000000000000000000000000000000000000815260206004820152602160248201527f4175746f6d6174653a2063616c6c6572206973206e6f7420746865206f776e6560448201527f720000000000000000000000000000000000000000000000000000000000000060648201526084016106f9565b6040517f6b88071800000000000000000000000000000000000000000000000000000000815230600482018190529073d8C830401453796e043b35B628EF55A18817D9bD90636b8807189060240160206040518083038186803b158015612cc957600080fd5b505af4158015612cdd573d6000803e3d6000fd5b505050506040513d601f19601f82011682018060405250810190612d0191906137b0565b73ffffffffffffffffffffffffffffffffffffffff1614612da4576040517f08c379a000000000000000000000000000000000000000000000000000000000815260206004820152602160248201527f4175746f6d6174653a206368616e676520746865206f776e6572206661696c6560448201527f640000000000000000000000000000000000000000000000000000000000000060648201526084016106f9565b6001805473ffffffffffffffffffffffffffffffffffffffff8381167fffffffffffffffffffffffff0000000000000000000000000000000000000000831681179093556040519116919082907f8be0079c531659141344cd1fd0a4f28419497f9722a3daafe3b4186f6b6457e090600090a35050565b6000612e25610d14565b15612e8c576040517f08c379a000000000000000000000000000000000000000000000000000000000815260206004820152601060248201527f4175746f6d6174653a207061757365640000000000000000000000000000000060448201526064016106f9565b6000612ead60015473ffffffffffffffffffffffffffffffffffffffff1690565b90503273ffffffffffffffffffffffffffffffffffffffff82161415612ed75760009150506130e7565b6000612ee161034e565b6040517f21f8a7210000000000000000000000000000000000000000000000000000000081527fe78c16c6d839536d3155985aab4e9c6013c8c3d446054bcebc48612f359d81f5600482015290915060009073ffffffffffffffffffffffffffffffffffffffff8316906321f8a7219060240160206040518083038186803b158015612f6c57600080fd5b505afa158015612f80573d6000803e3d6000fd5b505050506040513d601f19601f82011682018060405250810190612fa491906137b0565b905073ffffffffffffffffffffffffffffffffffffffff8116613049576040517f08c379a000000000000000000000000000000000000000000000000000000000815260206004820152602b60248201527f4175746f6d6174653a3a5f62696c6c3a2062616c616e636520636f6e7472616360448201527f74206e6f7420666f756e6400000000000000000000000000000000000000000060648201526084016106f9565b8073ffffffffffffffffffffffffffffffffffffffff1663e578a225848861306f611a44565b896040518563ffffffff1660e01b815260040161308f9493929190613a6b565b602060405180830381600087803b1580156130a957600080fd5b505af11580156130bd573d6000803e3d6000fd5b505050506040513d601f19601f820116820180604052508101906130e19190613969565b93505050505b92915050565b6040517fdd62ed3e00000000000000000000000000000000000000000000000000000000815230600482015273ffffffffffffffffffffffffffffffffffffffff83811660248301526000919085169063dd62ed3e9060440160206040518083038186803b15801561315e57600080fd5b505afa158015613172573d6000803e3d6000fd5b505050506040513d601f19601f820116820180604052508101906131969190613969565b905080158015906131a657508181105b15613255576040517f095ea7b300000000000000000000000000000000000000000000000000000000815273ffffffffffffffffffffffffffffffffffffffff84811660048301526000602483015285169063095ea7b390604401602060405180830381600087803b15801561321b57600080fd5b505af115801561322f573d6000803e3d6000fd5b505050506040513d601f19601f820116820180604052508101906132539190613870565b505b818114610d0e576040517f095ea7b300000000000000000000000000000000000000000000000000000000815273ffffffffffffffffffffffffffffffffffffffff84811660048301526024820184905285169063095ea7b390604401602060405180830381600087803b1580156132cc57600080fd5b505af11580156132e0573d6000803e3d6000fd5b505050506040513d601f19601f820116820180604052508101906133049190613870565b5050505050565b826001845161331a9190613c85565b8151811061332a5761332a613ccb565b602002602001015173ffffffffffffffffffffffffffffffffffffffff168360008151811061335b5761335b613ccb565b602002602001015173ffffffffffffffffffffffffffffffffffffffff16141561338457505050565b60048054835160208501516040517f5c11d79500000000000000000000000000000000000000000000000000000000815273ffffffffffffffffffffffffffffffffffffffff90931693635c11d795936133e693929189913091899101613b0a565b600060405180830381600087803b15801561340057600080fd5b505af1158015613414573d6000803e3d6000fd5b50505050505050565b600480546040517f70a08231000000000000000000000000000000000000000000000000000000008152309281019290925273ffffffffffffffffffffffffffffffffffffffff908116916000918616906370a082319060240160206040518083038186803b15801561348f57600080fd5b505afa1580156134a3573d6000803e3d6000fd5b505050506040513d601f19601f820116820180604052508101906134c79190613969565b6040517f70a0823100000000000000000000000000000000000000000000000000000000815230600482015290915060009073ffffffffffffffffffffffffffffffffffffffff8616906370a082319060240160206040518083038186803b15801561353257600080fd5b505afa158015613546573d6000803e3d6000fd5b505050506040513d601f19601f8201168201806040525081019061356a9190613969565b905061358d73ffffffffffffffffffffffffffffffffffffffff871684846130ed565b6135ae73ffffffffffffffffffffffffffffffffffffffff861684836130ed565b6040517fe8e3370000000000000000000000000000000000000000000000000000000000815273ffffffffffffffffffffffffffffffffffffffff87811660048301528681166024830152604482018490526064820183905260006084830181905260a48301523060c483015260e4820186905284169063e8e337009061010401606060405180830381600087803b15801561364957600080fd5b505af115801561365d573d6000803e3d6000fd5b505050506040513d601f19601f8201168201806040525081019061368191906139f9565b505050505050505050565b60006040828403121561369e57600080fd5b6136a6613b95565b9050813567ffffffffffffffff808211156136c057600080fd5b818401915084601f8301126136d457600080fd5b81356020828211156136e8576136e8613cfa565b8160051b92506136f9818401613bbe565b8281528181019085830185870184018a101561371457600080fd5b600096505b84871015613743578035955061372e86613d29565b85835260019690960195918301918301613719565b50808752505080860135818601525050505092915050565b803561ffff8116811461376d57600080fd5b919050565b805169ffffffffffffffffffff8116811461376d57600080fd5b60006020828403121561379e57600080fd5b81356137a981613d29565b9392505050565b6000602082840312156137c257600080fd5b81516137a981613d29565b6000806000606084860312156137e257600080fd5b83356137ed81613d29565b925060208401356137fd81613d29565b929592945050506040919091013590565b600080600080600060a0868803121561382657600080fd5b853561383181613d29565b9450602086013561384181613d29565b9350604086013592506138566060870161375b565b91506138646080870161375b565b90509295509295909350565b60006020828403121561388257600080fd5b815180151581146137a957600080fd5b6000602082840312156138a457600080fd5b5035919050565b6000608082840312156138bd57600080fd5b6040516080810181811067ffffffffffffffff821117156138e0576138e0613cfa565b60405282516138ee81613d29565b808252506020830151602082015260408301516040820152606083015160608201528091505092915050565b60006040828403121561392c57600080fd5b6040516040810181811067ffffffffffffffff8211171561394f5761394f613cfa565b604052825181526020928301519281019290925250919050565b60006020828403121561397b57600080fd5b5051919050565b6000806000806080858703121561399857600080fd5b8435935060208501359250604085013567ffffffffffffffff808211156139be57600080fd5b6139ca8883890161368c565b935060608701359150808211156139e057600080fd5b506139ed8782880161368c565b91505092959194509250565b600080600060608486031215613a0e57600080fd5b8351925060208401519150604084015190509250925092565b600080600080600060a08688031215613a3f57600080fd5b613a4886613772565b945060208601519350604086015192506060860151915061386460808701613772565b73ffffffffffffffffffffffffffffffffffffffff8516815260006020858184015284604084015260806060840152835180608085015260005b81811015613ac15785810183015185820160a001528201613aa5565b81811115613ad357600060a083870101525b50601f017fffffffffffffffffffffffffffffffffffffffffffffffffffffffffffffffe0169290920160a0019695505050505050565b600060a082018783526020878185015260a0604085015281875180845260c086019150828901935060005b81811015613b6757845173ffffffffffffffffffffffffffffffffffffffff1683529383019391830191600101613b35565b505073ffffffffffffffffffffffffffffffffffffffff969096166060850152505050608001529392505050565b6040805190810167ffffffffffffffff81118282101715613bb857613bb8613cfa565b60405290565b604051601f82017fffffffffffffffffffffffffffffffffffffffffffffffffffffffffffffffe016810167ffffffffffffffff81118282101715613c0557613c05613cfa565b604052919050565b600082613c43577f4e487b7100000000000000000000000000000000000000000000000000000000600052601260045260246000fd5b500490565b6000817fffffffffffffffffffffffffffffffffffffffffffffffffffffffffffffffff0483118215151615613c8057613c80613c9c565b500290565b600082821015613c9757613c97613c9c565b500390565b7f4e487b7100000000000000000000000000000000000000000000000000000000600052601160045260246000fd5b7f4e487b7100000000000000000000000000000000000000000000000000000000600052603260045260246000fd5b7f4e487b7100000000000000000000000000000000000000000000000000000000600052604160045260246000fd5b73ffffffffffffffffffffffffffffffffffffffff81168114613d4b57600080fd5b5056fe4d6f6f6e72697665724875636b6c6562657272794d61737465724368656646696e6e4c5052657374616b65a164736f6c6343000806000a",
  "deployedBytecode": "0x608060405234801561001057600080fd5b50600436106101775760003560e01c80638456cb59116100d8578063b838d9141161008c578063db2e21bc11610066578063db2e21bc14610313578063f2fde38b1461031b578063f7c618c11461032e57600080fd5b8063b838d914146102e5578063beabacc8146102f8578063d0e30db01461030b57600080fd5b80638da5cb5b116100bd5780638da5cb5b146102ac5780639742b5c3146102ca578063b0e21e8a146102dd57600080fd5b80638456cb591461029157806388591b271461029957600080fd5b80633f4ba83a1161012f578063590e1ae311610114578063590e1ae3146102495780635c975abb1461025157806372f702f31461026957600080fd5b80633f4ba83a1461021a5780634cf088d91461022457600080fd5b806329dcb0cf1161016057806329dcb0cf146101dd578063370158ea146102045780633e032a3b1461020c57600080fd5b806316f0115b1461017c5780632470294414610198575b600080fd5b61018560055481565b6040519081526020015b60405180910390f35b6004546101b89073ffffffffffffffffffffffffffffffffffffffff1681565b60405173ffffffffffffffffffffffffffffffffffffffff909116815260200161018f565b6006546101f19062010000900461ffff1681565b60405161ffff909116815260200161018f565b6101b861034e565b6006546101f19061ffff1681565b6102226104b0565b005b6003546101b890610100900473ffffffffffffffffffffffffffffffffffffffff1681565b610222610847565b610259610d14565b604051901515815260200161018f565b6006546101b890640100000000900473ffffffffffffffffffffffffffffffffffffffff1681565b610222610e99565b6102226102a7366004613982565b611243565b60015473ffffffffffffffffffffffffffffffffffffffff166101b8565b6102226102d8366004613892565b61180a565b610185611a44565b6102226102f336600461380e565b611e51565b6102226103063660046137cd565b6124a2565b6102226125a4565b6102226127be565b61022261032936600461378c565b612bbc565b6007546101b89073ffffffffffffffffffffffffffffffffffffffff1681565b6040517f6b880718000000000000000000000000000000000000000000000000000000008152306004820152600090819073__$0bac19a4f6859fb91e3c64d76ce49d598f$__90636b8807189060240160206040518083038186803b1580156103b657600080fd5b505af41580156103ca573d6000803e3d6000fd5b505050506040513d601f19601f820116820180604052508101906103ee91906137b0565b905073ffffffffffffffffffffffffffffffffffffffff811630141561042c57505060005473ffffffffffffffffffffffffffffffffffffffff1690565b8073ffffffffffffffffffffffffffffffffffffffff1663370158ea6040518163ffffffff1660e01b815260040160206040518083038186803b15801561047257600080fd5b505afa158015610486573d6000803e3d6000fd5b505050506040513d601f19601f820116820180604052508101906104aa91906137b0565b91505090565b6040517f6b88071800000000000000000000000000000000000000000000000000000000815230600482018190529073__$0bac19a4f6859fb91e3c64d76ce49d598f$__90636b8807189060240160206040518083038186803b15801561051657600080fd5b505af415801561052a573d6000803e3d6000fd5b505050506040513d601f19601f8201168201806040525081019061054e91906137b0565b73ffffffffffffffffffffffffffffffffffffffff16141561070857600061057461034e565b6040517f21f8a7210000000000000000000000000000000000000000000000000000000081527f689d13d8ed8ef1027633ba26e7121121cf427434450a529548f19bf175974395600482015273ffffffffffffffffffffffffffffffffffffffff91909116906321f8a7219060240160206040518083038186803b1580156105fb57600080fd5b505afa15801561060f573d6000803e3d6000fd5b505050506040513d601f19601f8201168201806040525081019061063391906137b0565b60015490915073ffffffffffffffffffffffffffffffffffffffff1633148061067157503373ffffffffffffffffffffffffffffffffffffffff8216145b610702576040517f08c379a000000000000000000000000000000000000000000000000000000000815260206004820152602260248201527f4175746f6d6174653a2063616c6c6572206973206e6f7420746865207061757360448201527f657200000000000000000000000000000000000000000000000000000000000060648201526084015b60405180910390fd5b506107af565b60015473ffffffffffffffffffffffffffffffffffffffff1633146107af576040517f08c379a000000000000000000000000000000000000000000000000000000000815260206004820152602260248201527f4175746f6d6174653a2063616c6c6572206973206e6f7420746865207061757360448201527f657200000000000000000000000000000000000000000000000000000000000060648201526084016106f9565b6107b7610d14565b61081d576040517f08c379a000000000000000000000000000000000000000000000000000000000815260206004820152601460248201527f4175746f6d6174653a206e6f742070617573656400000000000000000000000060448201526064016106f9565b600180547fffffffffffffffffffffff00ffffffffffffffffffffffffffffffffffffffff169055565b60015473ffffffffffffffffffffffffffffffffffffffff1633146108ee576040517f08c379a000000000000000000000000000000000000000000000000000000000815260206004820152602160248201527f4175746f6d6174653a2063616c6c6572206973206e6f7420746865206f776e6560448201527f720000000000000000000000000000000000000000000000000000000000000060648201526084016106f9565b60035473ffffffffffffffffffffffffffffffffffffffff61010090910416600061092e60015473ffffffffffffffffffffffffffffffffffffffff1690565b6005546040517f93f1a40b000000000000000000000000000000000000000000000000000000008152600481019190915230602482015290915060009073ffffffffffffffffffffffffffffffffffffffff8416906393f1a40b90604401604080518083038186803b1580156109a357600080fd5b505afa1580156109b7573d6000803e3d6000fd5b505050506040513d601f19601f820116820180604052508101906109db919061391a565b60055481516040517f441a3e700000000000000000000000000000000000000000000000000000000081526004810192909252602482015290915073ffffffffffffffffffffffffffffffffffffffff84169063441a3e7090604401600060405180830381600087803b158015610a5157600080fd5b505af1158015610a65573d6000803e3d6000fd5b50506006546040517f70a0823100000000000000000000000000000000000000000000000000000000815230600482015264010000000090910473ffffffffffffffffffffffffffffffffffffffff16925063a9059cbb9150849083906370a082319060240160206040518083038186803b158015610ae357600080fd5b505afa158015610af7573d6000803e3d6000fd5b505050506040513d601f19601f82011682018060405250810190610b1b9190613969565b6040517fffffffff0000000000000000000000000000000000000000000000000000000060e085901b16815273ffffffffffffffffffffffffffffffffffffffff90921660048301526024820152604401602060405180830381600087803b158015610b8657600080fd5b505af1158015610b9a573d6000803e3d6000fd5b505050506040513d601f19601f82011682018060405250810190610bbe9190613870565b506007546040517f70a0823100000000000000000000000000000000000000000000000000000000815230600482015273ffffffffffffffffffffffffffffffffffffffff9091169063a9059cbb90849083906370a082319060240160206040518083038186803b158015610c3257600080fd5b505afa158015610c46573d6000803e3d6000fd5b505050506040513d601f19601f82011682018060405250810190610c6a9190613969565b6040517fffffffff0000000000000000000000000000000000000000000000000000000060e085901b16815273ffffffffffffffffffffffffffffffffffffffff909216600483015260248201526044015b602060405180830381600087803b158015610cd657600080fd5b505af1158015610cea573d6000803e3d6000fd5b505050506040513d601f19601f82011682018060405250810190610d0e9190613870565b50505050565b6040517f6b880718000000000000000000000000000000000000000000000000000000008152306004820152600090819073__$0bac19a4f6859fb91e3c64d76ce49d598f$__90636b8807189060240160206040518083038186803b158015610d7c57600080fd5b505af4158015610d90573d6000803e3d6000fd5b505050506040513d601f19601f82011682018060405250810190610db491906137b0565b905073ffffffffffffffffffffffffffffffffffffffff8116301415610df757505060015474010000000000000000000000000000000000000000900460ff1690565b60015474010000000000000000000000000000000000000000900460ff16806104aa57508073ffffffffffffffffffffffffffffffffffffffff16635c975abb6040518163ffffffff1660e01b815260040160206040518083038186803b158015610e6157600080fd5b505afa158015610e75573d6000803e3d6000fd5b505050506040513d601f19601f820116820180604052508101906104aa9190613870565b6040517f6b88071800000000000000000000000000000000000000000000000000000000815230600482018190529073__$0bac19a4f6859fb91e3c64d76ce49d598f$__90636b8807189060240160206040518083038186803b158015610eff57600080fd5b505af4158015610f13573d6000803e3d6000fd5b505050506040513d601f19601f82011682018060405250810190610f3791906137b0565b73ffffffffffffffffffffffffffffffffffffffff1614156110ec576000610f5d61034e565b6040517f21f8a7210000000000000000000000000000000000000000000000000000000081527f689d13d8ed8ef1027633ba26e7121121cf427434450a529548f19bf175974395600482015273ffffffffffffffffffffffffffffffffffffffff91909116906321f8a7219060240160206040518083038186803b158015610fe457600080fd5b505afa158015610ff8573d6000803e3d6000fd5b505050506040513d601f19601f8201168201806040525081019061101c91906137b0565b60015490915073ffffffffffffffffffffffffffffffffffffffff1633148061105a57503373ffffffffffffffffffffffffffffffffffffffff8216145b6110e6576040517f08c379a000000000000000000000000000000000000000000000000000000000815260206004820152602260248201527f4175746f6d6174653a2063616c6c6572206973206e6f7420746865207061757360448201527f657200000000000000000000000000000000000000000000000000000000000060648201526084016106f9565b50611193565b60015473ffffffffffffffffffffffffffffffffffffffff163314611193576040517f08c379a000000000000000000000000000000000000000000000000000000000815260206004820152602260248201527f4175746f6d6174653a2063616c6c6572206973206e6f7420746865207061757360448201527f657200000000000000000000000000000000000000000000000000000000000060648201526084016106f9565b61119b610d14565b15611202576040517f08c379a000000000000000000000000000000000000000000000000000000000815260206004820152601060248201527f4175746f6d6174653a207061757365640000000000000000000000000000000060448201526064016106f9565b600180547fffffffffffffffffffffff00ffffffffffffffffffffffffffffffffffffffff1674010000000000000000000000000000000000000000179055565b836040518060600160405280602b8152602001613d4f602b91396112678282612e1b565b506003546005546040517f98969e82000000000000000000000000000000000000000000000000000000008152600481019190915230602482015261010090910473ffffffffffffffffffffffffffffffffffffffff169060009082906398969e829060440160206040518083038186803b1580156112e557600080fd5b505afa1580156112f9573d6000803e3d6000fd5b505050506040513d601f19601f8201168201806040525081019061131d9190613969565b9050600081116113af576040517f08c379a000000000000000000000000000000000000000000000000000000000815260206004820152602760248201527f4d61737465724368656646696e6e4c7052657374616b653a3a72756e3a206e6f60448201527f206561726e65640000000000000000000000000000000000000000000000000060648201526084016106f9565b6005546040517fe2bbb15800000000000000000000000000000000000000000000000000000000815260048101919091526000602482015273ffffffffffffffffffffffffffffffffffffffff83169063e2bbb15890604401600060405180830381600087803b15801561142257600080fd5b505af1158015611436573d6000803e3d6000fd5b50506007546040517f70a082310000000000000000000000000000000000000000000000000000000081523060048201526000935073ffffffffffffffffffffffffffffffffffffffff90911691506370a082319060240160206040518083038186803b1580156114a657600080fd5b505afa1580156114ba573d6000803e3d6000fd5b505050506040513d601f19601f820116820180604052508101906114de9190613969565b60045460075491925061150b9173ffffffffffffffffffffffffffffffffffffffff9081169116836130ed565b61153c8760000151604051806040016040528060028561152b9190613c0d565b815260208b8101519101528a61330b565b6115778660000151604051806040016040528060028561155c9190613c0d565b6115669086613c85565b815260208a8101519101528a61330b565b6000600660049054906101000a900473ffffffffffffffffffffffffffffffffffffffff1690506116a38173ffffffffffffffffffffffffffffffffffffffff16630dfe16816040518163ffffffff1660e01b815260040160206040518083038186803b1580156115e757600080fd5b505afa1580156115fb573d6000803e3d6000fd5b505050506040513d601f19601f8201168201806040525081019061161f91906137b0565b8273ffffffffffffffffffffffffffffffffffffffff1663d21220a76040518163ffffffff1660e01b815260040160206040518083038186803b15801561166557600080fd5b505afa158015611679573d6000803e3d6000fd5b505050506040513d601f19601f8201168201806040525081019061169d91906137b0565b8b61341d565b6040517f70a0823100000000000000000000000000000000000000000000000000000000815230600482015260009073ffffffffffffffffffffffffffffffffffffffff8316906370a082319060240160206040518083038186803b15801561170b57600080fd5b505afa15801561171f573d6000803e3d6000fd5b505050506040513d601f19601f820116820180604052508101906117439190613969565b60065490915061177290640100000000900473ffffffffffffffffffffffffffffffffffffffff1686836130ed565b6005546040517fe2bbb15800000000000000000000000000000000000000000000000000000000815260048101919091526024810182905273ffffffffffffffffffffffffffffffffffffffff86169063e2bbb15890604401600060405180830381600087803b1580156117e557600080fd5b505af11580156117f9573d6000803e3d6000fd5b505050505050505050505050505050565b6040517f6b88071800000000000000000000000000000000000000000000000000000000815230600482015260009073__$0bac19a4f6859fb91e3c64d76ce49d598f$__90636b8807189060240160206040518083038186803b15801561187057600080fd5b505af4158015611884573d6000803e3d6000fd5b505050506040513d601f19601f820116820180604052508101906118a891906137b0565b90503373ffffffffffffffffffffffffffffffffffffffff8216301461194b578173ffffffffffffffffffffffffffffffffffffffff16638da5cb5b6040518163ffffffff1660e01b815260040160206040518083038186803b15801561190e57600080fd5b505afa158015611922573d6000803e3d6000fd5b505050506040513d601f19601f8201168201806040525081019061194691906137b0565b611965565b60015473ffffffffffffffffffffffffffffffffffffffff165b73ffffffffffffffffffffffffffffffffffffffff1614611a08576040517f08c379a000000000000000000000000000000000000000000000000000000000815260206004820152603d60248201527f4175746f6d6174653a3a6368616e676550726f746f636f6c4665653a2063616c60448201527f6c6572206973206e6f74207468652070726f746f636f6c206f776e657200000060648201526084016106f9565b60028290556040518281527f3c1d43943224e49d951ce8295a5c8332b517083b3f89bed50feae2cb39caebb59060200160405180910390a15050565b6040517f6b880718000000000000000000000000000000000000000000000000000000008152306004820152600090819073__$0bac19a4f6859fb91e3c64d76ce49d598f$__90636b8807189060240160206040518083038186803b158015611aac57600080fd5b505af4158015611ac0573d6000803e3d6000fd5b505050506040513d601f19601f82011682018060405250810190611ae491906137b0565b905073ffffffffffffffffffffffffffffffffffffffff81163014801590611b0e57506000600254125b15611b91578073ffffffffffffffffffffffffffffffffffffffff1663b0e21e8a6040518163ffffffff1660e01b815260040160206040518083038186803b158015611b5957600080fd5b505afa158015611b6d573d6000803e3d6000fd5b505050506040513d601f19601f820116820180604052508101906104aa9190613969565b6000611b9b61034e565b905060008060025412611bb057600254611c6d565b6040517fbd02d0f50000000000000000000000000000000000000000000000000000000081527fa93d95f96a5de25d7a41ddf1f5e8d45cfc929c4838163cf011dab4043a4a40d5600482015273ffffffffffffffffffffffffffffffffffffffff83169063bd02d0f59060240160206040518083038186803b158015611c3557600080fd5b505afa158015611c49573d6000803e3d6000fd5b505050506040513d601f19601f82011682018060405250810190611c6d9190613969565b905080611c7e576000935050505090565b6040517f21f8a7210000000000000000000000000000000000000000000000000000000081527f65c90423fe7c880476633a7e36521740f87199d233dc56eb4ca6643eb76f605f600482015260009073ffffffffffffffffffffffffffffffffffffffff8416906321f8a7219060240160206040518083038186803b158015611d0657600080fd5b505afa158015611d1a573d6000803e3d6000fd5b505050506040513d601f19601f82011682018060405250810190611d3e91906137b0565b73ffffffffffffffffffffffffffffffffffffffff1663feaf968c6040518163ffffffff1660e01b815260040160a06040518083038186803b158015611d8357600080fd5b505afa158015611d97573d6000803e3d6000fd5b505050506040513d601f19601f82011682018060405250810190611dbb9190613a27565b50505091505060008113611e2b576040517f08c379a000000000000000000000000000000000000000000000000000000000815260206004820152601760248201527f4175746f6d6174653a20696e76616c696420707269636500000000000000000060448201526064016106f9565b80611e3e83670de0b6b3a7640000613c48565b611e489190613c0d565b94505050505090565b60015473ffffffffffffffffffffffffffffffffffffffff16611ec157600180547fffffffffffffffffffffffff000000000000000000000000000000000000000016321790557fffffffffffffffffffffffffffffffffffffffffffffffffffffffffffffffff600255611f68565b60015473ffffffffffffffffffffffffffffffffffffffff163314611f68576040517f08c379a000000000000000000000000000000000000000000000000000000000815260206004820152602160248201527f4175746f6d6174653a2063616c6c6572206973206e6f7420746865206f776e6560448201527f720000000000000000000000000000000000000000000000000000000000000060648201526084016106f9565b60035460ff161580611f99575060035473ffffffffffffffffffffffffffffffffffffffff86811661010090920416145b61204b576040517f08c379a000000000000000000000000000000000000000000000000000000000815260206004820152604560248201527f4d61737465724368656646696e6e4c7052657374616b653a3a696e69743a207260448201527f65696e697469616c697a65207374616b696e67206164647265737320666f726260648201527f696464656e000000000000000000000000000000000000000000000000000000608482015260a4016106f9565b6003805473ffffffffffffffffffffffffffffffffffffffff8716610100027fffffffffffffffffffffff0000000000000000000000000000000000000000ff8216811790925560ff91821691161715806120c0575060045473ffffffffffffffffffffffffffffffffffffffff8581169116145b612172576040517f08c379a000000000000000000000000000000000000000000000000000000000815260206004820152604e60248201527f4d61737465724368656646696e6e4c7052657374616b653a3a696e69743a207260448201527f65696e697469616c697a65206c697175696469747920726f757465722061646460648201527f7265737320666f7262696464656e000000000000000000000000000000000000608482015260a4016106f9565b600480547fffffffffffffffffffffffff00000000000000000000000000000000000000001673ffffffffffffffffffffffffffffffffffffffff861617905560035460ff1615806121c5575082600554145b61225357604080517f08c379a00000000000000000000000000000000000000000000000000000000081526020600482015260248101919091527f4d61737465724368656646696e6e4c7052657374616b653a3a696e69743a207260448201527f65696e697469616c697a6520706f6f6c20696e64657820666f7262696464656e60648201526084016106f9565b60058390556006805461ffff83811662010000027fffffffffffffffffffffffffffffffffffffffffffffffffffffffff000000009092169085161717905560035460ff16612470576003546005546040517f1526fe270000000000000000000000000000000000000000000000000000000081526004810191909152600091610100900473ffffffffffffffffffffffffffffffffffffffff1690631526fe279060240160806040518083038186803b15801561231057600080fd5b505afa158015612324573d6000803e3d6000fd5b505050506040513d601f19601f8201168201806040525081019061234891906138ab565b8051600680547fffffffffffffffff0000000000000000000000000000000000000000ffffffff1664010000000073ffffffffffffffffffffffffffffffffffffffff93841602179055600354604080517f33cc3b170000000000000000000000000000000000000000000000000000000081529051939450610100909104909116916333cc3b1791600480820192602092909190829003018186803b1580156123f157600080fd5b505afa158015612405573d6000803e3d6000fd5b505050506040513d601f19601f8201168201806040525081019061242991906137b0565b600780547fffffffffffffffffffffffff00000000000000000000000000000000000000001673ffffffffffffffffffffffffffffffffffffffff92909216919091179055505b5050600380547fffffffffffffffffffffffffffffffffffffffffffffffffffffffffffffff00166001179055505050565b60015473ffffffffffffffffffffffffffffffffffffffff163314612549576040517f08c379a000000000000000000000000000000000000000000000000000000000815260206004820152602160248201527f4175746f6d6174653a2063616c6c6572206973206e6f7420746865206f776e6560448201527f720000000000000000000000000000000000000000000000000000000000000060648201526084016106f9565b6040517fa9059cbb00000000000000000000000000000000000000000000000000000000815273ffffffffffffffffffffffffffffffffffffffff83811660048301526024820183905284169063a9059cbb90604401610cbc565b60015473ffffffffffffffffffffffffffffffffffffffff16331461264b576040517f08c379a000000000000000000000000000000000000000000000000000000000815260206004820152602160248201527f4175746f6d6174653a2063616c6c6572206973206e6f7420746865206f776e6560448201527f720000000000000000000000000000000000000000000000000000000000000060648201526084016106f9565b6006546040517f70a0823100000000000000000000000000000000000000000000000000000000815230600482015264010000000090910473ffffffffffffffffffffffffffffffffffffffff169060009082906370a082319060240160206040518083038186803b1580156126c057600080fd5b505afa1580156126d4573d6000803e3d6000fd5b505050506040513d601f19601f820116820180604052508101906126f89190613969565b6003549091506127279073ffffffffffffffffffffffffffffffffffffffff84811691610100900416836130ed565b6003546005546040517fe2bbb15800000000000000000000000000000000000000000000000000000000815260048101919091526024810183905261010090910473ffffffffffffffffffffffffffffffffffffffff169063e2bbb15890604401600060405180830381600087803b1580156127a257600080fd5b505af11580156127b6573d6000803e3d6000fd5b505050505050565b60015473ffffffffffffffffffffffffffffffffffffffff163314612865576040517f08c379a000000000000000000000000000000000000000000000000000000000815260206004820152602160248201527f4175746f6d6174653a2063616c6c6572206973206e6f7420746865206f776e6560448201527f720000000000000000000000000000000000000000000000000000000000000060648201526084016106f9565b600061288660015473ffffffffffffffffffffffffffffffffffffffff1690565b6003546005546040517f5312ea8e0000000000000000000000000000000000000000000000000000000081526004810191909152919250610100900473ffffffffffffffffffffffffffffffffffffffff1690635312ea8e90602401600060405180830381600087803b1580156128fc57600080fd5b505af1158015612910573d6000803e3d6000fd5b50506006546040517f70a0823100000000000000000000000000000000000000000000000000000000815230600482015264010000000090910473ffffffffffffffffffffffffffffffffffffffff16925063a9059cbb9150839083906370a082319060240160206040518083038186803b15801561298e57600080fd5b505afa1580156129a2573d6000803e3d6000fd5b505050506040513d601f19601f820116820180604052508101906129c69190613969565b6040517fffffffff0000000000000000000000000000000000000000000000000000000060e085901b16815273ffffffffffffffffffffffffffffffffffffffff90921660048301526024820152604401602060405180830381600087803b158015612a3157600080fd5b505af1158015612a45573d6000803e3d6000fd5b505050506040513d601f19601f82011682018060405250810190612a699190613870565b506007546040517f70a0823100000000000000000000000000000000000000000000000000000000815230600482015273ffffffffffffffffffffffffffffffffffffffff9091169063a9059cbb90839083906370a082319060240160206040518083038186803b158015612add57600080fd5b505afa158015612af1573d6000803e3d6000fd5b505050506040513d601f19601f82011682018060405250810190612b159190613969565b6040517fffffffff0000000000000000000000000000000000000000000000000000000060e085901b16815273ffffffffffffffffffffffffffffffffffffffff90921660048301526024820152604401602060405180830381600087803b158015612b8057600080fd5b505af1158015612b94573d6000803e3d6000fd5b505050506040513d601f19601f82011682018060405250810190612bb89190613870565b5050565b60015473ffffffffffffffffffffffffffffffffffffffff163314612c63576040517f08c379a000000000000000000000000000000000000000000000000000000000815260206004820152602160248201527f4175746f6d6174653a2063616c6c6572206973206e6f7420746865206f776e6560448201527f720000000000000000000000000000000000000000000000000000000000000060648201526084016106f9565b6040517f6b88071800000000000000000000000000000000000000000000000000000000815230600482018190529073__$0bac19a4f6859fb91e3c64d76ce49d598f$__90636b8807189060240160206040518083038186803b158015612cc957600080fd5b505af4158015612cdd573d6000803e3d6000fd5b505050506040513d601f19601f82011682018060405250810190612d0191906137b0565b73ffffffffffffffffffffffffffffffffffffffff1614612da4576040517f08c379a000000000000000000000000000000000000000000000000000000000815260206004820152602160248201527f4175746f6d6174653a206368616e676520746865206f776e6572206661696c6560448201527f640000000000000000000000000000000000000000000000000000000000000060648201526084016106f9565b6001805473ffffffffffffffffffffffffffffffffffffffff8381167fffffffffffffffffffffffff0000000000000000000000000000000000000000831681179093556040519116919082907f8be0079c531659141344cd1fd0a4f28419497f9722a3daafe3b4186f6b6457e090600090a35050565b6000612e25610d14565b15612e8c576040517f08c379a000000000000000000000000000000000000000000000000000000000815260206004820152601060248201527f4175746f6d6174653a207061757365640000000000000000000000000000000060448201526064016106f9565b6000612ead60015473ffffffffffffffffffffffffffffffffffffffff1690565b90503273ffffffffffffffffffffffffffffffffffffffff82161415612ed75760009150506130e7565b6000612ee161034e565b6040517f21f8a7210000000000000000000000000000000000000000000000000000000081527fe78c16c6d839536d3155985aab4e9c6013c8c3d446054bcebc48612f359d81f5600482015290915060009073ffffffffffffffffffffffffffffffffffffffff8316906321f8a7219060240160206040518083038186803b158015612f6c57600080fd5b505afa158015612f80573d6000803e3d6000fd5b505050506040513d601f19601f82011682018060405250810190612fa491906137b0565b905073ffffffffffffffffffffffffffffffffffffffff8116613049576040517f08c379a000000000000000000000000000000000000000000000000000000000815260206004820152602b60248201527f4175746f6d6174653a3a5f62696c6c3a2062616c616e636520636f6e7472616360448201527f74206e6f7420666f756e6400000000000000000000000000000000000000000060648201526084016106f9565b8073ffffffffffffffffffffffffffffffffffffffff1663e578a225848861306f611a44565b896040518563ffffffff1660e01b815260040161308f9493929190613a6b565b602060405180830381600087803b1580156130a957600080fd5b505af11580156130bd573d6000803e3d6000fd5b505050506040513d601f19601f820116820180604052508101906130e19190613969565b93505050505b92915050565b6040517fdd62ed3e00000000000000000000000000000000000000000000000000000000815230600482015273ffffffffffffffffffffffffffffffffffffffff83811660248301526000919085169063dd62ed3e9060440160206040518083038186803b15801561315e57600080fd5b505afa158015613172573d6000803e3d6000fd5b505050506040513d601f19601f820116820180604052508101906131969190613969565b905080158015906131a657508181105b15613255576040517f095ea7b300000000000000000000000000000000000000000000000000000000815273ffffffffffffffffffffffffffffffffffffffff84811660048301526000602483015285169063095ea7b390604401602060405180830381600087803b15801561321b57600080fd5b505af115801561322f573d6000803e3d6000fd5b505050506040513d601f19601f820116820180604052508101906132539190613870565b505b818114610d0e576040517f095ea7b300000000000000000000000000000000000000000000000000000000815273ffffffffffffffffffffffffffffffffffffffff84811660048301526024820184905285169063095ea7b390604401602060405180830381600087803b1580156132cc57600080fd5b505af11580156132e0573d6000803e3d6000fd5b505050506040513d601f19601f820116820180604052508101906133049190613870565b5050505050565b826001845161331a9190613c85565b8151811061332a5761332a613ccb565b602002602001015173ffffffffffffffffffffffffffffffffffffffff168360008151811061335b5761335b613ccb565b602002602001015173ffffffffffffffffffffffffffffffffffffffff16141561338457505050565b60048054835160208501516040517f5c11d79500000000000000000000000000000000000000000000000000000000815273ffffffffffffffffffffffffffffffffffffffff90931693635c11d795936133e693929189913091899101613b0a565b600060405180830381600087803b15801561340057600080fd5b505af1158015613414573d6000803e3d6000fd5b50505050505050565b600480546040517f70a08231000000000000000000000000000000000000000000000000000000008152309281019290925273ffffffffffffffffffffffffffffffffffffffff908116916000918616906370a082319060240160206040518083038186803b15801561348f57600080fd5b505afa1580156134a3573d6000803e3d6000fd5b505050506040513d601f19601f820116820180604052508101906134c79190613969565b6040517f70a0823100000000000000000000000000000000000000000000000000000000815230600482015290915060009073ffffffffffffffffffffffffffffffffffffffff8616906370a082319060240160206040518083038186803b15801561353257600080fd5b505afa158015613546573d6000803e3d6000fd5b505050506040513d601f19601f8201168201806040525081019061356a9190613969565b905061358d73ffffffffffffffffffffffffffffffffffffffff871684846130ed565b6135ae73ffffffffffffffffffffffffffffffffffffffff861684836130ed565b6040517fe8e3370000000000000000000000000000000000000000000000000000000000815273ffffffffffffffffffffffffffffffffffffffff87811660048301528681166024830152604482018490526064820183905260006084830181905260a48301523060c483015260e4820186905284169063e8e337009061010401606060405180830381600087803b15801561364957600080fd5b505af115801561365d573d6000803e3d6000fd5b505050506040513d601f19601f8201168201806040525081019061368191906139f9565b505050505050505050565b60006040828403121561369e57600080fd5b6136a6613b95565b9050813567ffffffffffffffff808211156136c057600080fd5b818401915084601f8301126136d457600080fd5b81356020828211156136e8576136e8613cfa565b8160051b92506136f9818401613bbe565b8281528181019085830185870184018a101561371457600080fd5b600096505b84871015613743578035955061372e86613d29565b85835260019690960195918301918301613719565b50808752505080860135818601525050505092915050565b803561ffff8116811461376d57600080fd5b919050565b805169ffffffffffffffffffff8116811461376d57600080fd5b60006020828403121561379e57600080fd5b81356137a981613d29565b9392505050565b6000602082840312156137c257600080fd5b81516137a981613d29565b6000806000606084860312156137e257600080fd5b83356137ed81613d29565b925060208401356137fd81613d29565b929592945050506040919091013590565b600080600080600060a0868803121561382657600080fd5b853561383181613d29565b9450602086013561384181613d29565b9350604086013592506138566060870161375b565b91506138646080870161375b565b90509295509295909350565b60006020828403121561388257600080fd5b815180151581146137a957600080fd5b6000602082840312156138a457600080fd5b5035919050565b6000608082840312156138bd57600080fd5b6040516080810181811067ffffffffffffffff821117156138e0576138e0613cfa565b60405282516138ee81613d29565b808252506020830151602082015260408301516040820152606083015160608201528091505092915050565b60006040828403121561392c57600080fd5b6040516040810181811067ffffffffffffffff8211171561394f5761394f613cfa565b604052825181526020928301519281019290925250919050565b60006020828403121561397b57600080fd5b5051919050565b6000806000806080858703121561399857600080fd5b8435935060208501359250604085013567ffffffffffffffff808211156139be57600080fd5b6139ca8883890161368c565b935060608701359150808211156139e057600080fd5b506139ed8782880161368c565b91505092959194509250565b600080600060608486031215613a0e57600080fd5b8351925060208401519150604084015190509250925092565b600080600080600060a08688031215613a3f57600080fd5b613a4886613772565b945060208601519350604086015192506060860151915061386460808701613772565b73ffffffffffffffffffffffffffffffffffffffff8516815260006020858184015284604084015260806060840152835180608085015260005b81811015613ac15785810183015185820160a001528201613aa5565b81811115613ad357600060a083870101525b50601f017fffffffffffffffffffffffffffffffffffffffffffffffffffffffffffffffe0169290920160a0019695505050505050565b600060a082018783526020878185015260a0604085015281875180845260c086019150828901935060005b81811015613b6757845173ffffffffffffffffffffffffffffffffffffffff1683529383019391830191600101613b35565b505073ffffffffffffffffffffffffffffffffffffffff969096166060850152505050608001529392505050565b6040805190810167ffffffffffffffff81118282101715613bb857613bb8613cfa565b60405290565b604051601f82017fffffffffffffffffffffffffffffffffffffffffffffffffffffffffffffffe016810167ffffffffffffffff81118282101715613c0557613c05613cfa565b604052919050565b600082613c43577f4e487b7100000000000000000000000000000000000000000000000000000000600052601260045260246000fd5b500490565b6000817fffffffffffffffffffffffffffffffffffffffffffffffffffffffffffffffff0483118215151615613c8057613c80613c9c565b500290565b600082821015613c9757613c97613c9c565b500390565b7f4e487b7100000000000000000000000000000000000000000000000000000000600052601160045260246000fd5b7f4e487b7100000000000000000000000000000000000000000000000000000000600052603260045260246000fd5b7f4e487b7100000000000000000000000000000000000000000000000000000000600052604160045260246000fd5b73ffffffffffffffffffffffffffffffffffffffff81168114613d4b57600080fd5b5056fe4d6f6f6e72697665724875636b6c6562657272794d61737465724368656646696e6e4c5052657374616b65a164736f6c6343000806000a",
  "libraries": {
    "ERC1167": "0xd8C830401453796e043b35B628EF55A18817D9bD"
  },
  "devdoc": {
    "kind": "dev",
    "methods": {
      "changeProtocolFee(int256)": {
        "params": {
          "__protocolFee": "New protocol fee."
        }
      },
      "protocolFee()": {
        "returns": {
          "_0": "Current protocol fee."
        }
      },
      "transfer(address,address,uint256)": {
        "params": {
          "amount": "Transferred amount of tokens.",
          "recipient": "Token recipient address.",
          "token": "The address of the token to be transferred."
        }
      },
      "transferOwnership(address)": {
        "details": "Transfers ownership of the contract to a new account (`newOwner`). Can only be called by the current owner."
      }
    },
    "version": 1
  },
  "userdoc": {
    "kind": "user",
    "methods": {
      "changeProtocolFee(int256)": {
        "notice": "Change protocol fee."
      },
      "info()": {
        "notice": "Returns address of Storage contract."
      },
      "owner()": {
        "notice": "Returns the address of the current owner."
      },
      "pause()": {
        "notice": "Pause contract."
      },
      "paused()": {
        "notice": "Returns true if the contract is paused, and false otherwise."
      },
      "transfer(address,address,uint256)": {
        "notice": "Transfer ERC20 token to recipient."
      },
      "unpause()": {
        "notice": "Unpause contract."
      }
    },
    "notice": "Use with LP token only.",
    "version": 1
  },
  "storageLayout": {
    "storage": [
      {
        "astId": 5280,
        "contract": "automates/moonriverHuckleberry/MasterChefFinnLpRestake.automate.sol:MasterChefFinnLpRestake",
        "label": "_info",
        "offset": 0,
        "slot": "0",
        "type": "t_address"
      },
      {
        "astId": 5283,
        "contract": "automates/moonriverHuckleberry/MasterChefFinnLpRestake.automate.sol:MasterChefFinnLpRestake",
        "label": "_owner",
        "offset": 0,
        "slot": "1",
        "type": "t_address"
      },
      {
        "astId": 5286,
        "contract": "automates/moonriverHuckleberry/MasterChefFinnLpRestake.automate.sol:MasterChefFinnLpRestake",
        "label": "_paused",
        "offset": 20,
        "slot": "1",
        "type": "t_bool"
      },
      {
        "astId": 5289,
        "contract": "automates/moonriverHuckleberry/MasterChefFinnLpRestake.automate.sol:MasterChefFinnLpRestake",
        "label": "_protocolFee",
        "offset": 0,
        "slot": "2",
        "type": "t_int256"
      },
      {
        "astId": 5292,
        "contract": "automates/moonriverHuckleberry/MasterChefFinnLpRestake.automate.sol:MasterChefFinnLpRestake",
        "label": "_initialized",
        "offset": 0,
        "slot": "3",
        "type": "t_bool"
      },
      {
        "astId": 4606,
        "contract": "automates/moonriverHuckleberry/MasterChefFinnLpRestake.automate.sol:MasterChefFinnLpRestake",
        "label": "staking",
        "offset": 1,
        "slot": "3",
        "type": "t_contract(IMasterChefFinnV2)4580"
      },
      {
        "astId": 4608,
        "contract": "automates/moonriverHuckleberry/MasterChefFinnLpRestake.automate.sol:MasterChefFinnLpRestake",
        "label": "liquidityRouter",
        "offset": 0,
        "slot": "4",
        "type": "t_address"
      },
      {
        "astId": 4610,
        "contract": "automates/moonriverHuckleberry/MasterChefFinnLpRestake.automate.sol:MasterChefFinnLpRestake",
        "label": "pool",
        "offset": 0,
        "slot": "5",
        "type": "t_uint256"
      },
      {
        "astId": 4612,
        "contract": "automates/moonriverHuckleberry/MasterChefFinnLpRestake.automate.sol:MasterChefFinnLpRestake",
        "label": "slippage",
        "offset": 0,
        "slot": "6",
        "type": "t_uint16"
      },
      {
        "astId": 4614,
        "contract": "automates/moonriverHuckleberry/MasterChefFinnLpRestake.automate.sol:MasterChefFinnLpRestake",
        "label": "deadline",
        "offset": 2,
        "slot": "6",
        "type": "t_uint16"
      },
      {
        "astId": 4617,
        "contract": "automates/moonriverHuckleberry/MasterChefFinnLpRestake.automate.sol:MasterChefFinnLpRestake",
        "label": "stakingToken",
        "offset": 4,
        "slot": "6",
        "type": "t_contract(IERC20)669"
      },
      {
        "astId": 4620,
        "contract": "automates/moonriverHuckleberry/MasterChefFinnLpRestake.automate.sol:MasterChefFinnLpRestake",
        "label": "rewardToken",
        "offset": 0,
        "slot": "7",
        "type": "t_contract(IERC20)669"
      }
    ],
    "types": {
      "t_address": {
        "encoding": "inplace",
        "label": "address",
        "numberOfBytes": "20"
      },
      "t_bool": {
        "encoding": "inplace",
        "label": "bool",
        "numberOfBytes": "1"
      },
      "t_contract(IERC20)669": {
        "encoding": "inplace",
        "label": "contract IERC20",
        "numberOfBytes": "20"
      },
      "t_contract(IMasterChefFinnV2)4580": {
        "encoding": "inplace",
        "label": "contract IMasterChefFinnV2",
        "numberOfBytes": "20"
      },
      "t_int256": {
        "encoding": "inplace",
        "label": "int256",
        "numberOfBytes": "32"
      },
      "t_uint16": {
        "encoding": "inplace",
        "label": "uint16",
        "numberOfBytes": "2"
      },
      "t_uint256": {
        "encoding": "inplace",
        "label": "uint256",
        "numberOfBytes": "32"
      }
    }
  }
}