{
  "_format": "hh-sol-artifact-1",
  "contractName": "PlainPoolMock",
  "sourceName": "automates/curve/mock/PlainPoolMock.sol",
  "abi": [
    {
      "inputs": [
        {
          "internalType": "address",
          "name": "_lpToken",
          "type": "address"
        },
        {
          "internalType": "address[3]",
          "name": "_tokens",
          "type": "address[3]"
        }
      ],
      "stateMutability": "nonpayable",
      "type": "constructor"
    },
    {
      "inputs": [
        {
          "internalType": "uint256[3]",
          "name": "amounts",
          "type": "uint256[3]"
        },
        {
          "internalType": "uint256",
          "name": "",
          "type": "uint256"
        }
      ],
      "name": "add_liquidity",
      "outputs": [
        {
          "internalType": "uint256",
          "name": "minted",
          "type": "uint256"
        }
      ],
      "stateMutability": "nonpayable",
      "type": "function"
    },
    {
      "inputs": [
        {
          "internalType": "uint256[3]",
          "name": "amounts",
          "type": "uint256[3]"
        },
        {
          "internalType": "bool",
          "name": "",
          "type": "bool"
        }
      ],
      "name": "calc_token_amount",
      "outputs": [
        {
          "internalType": "uint256",
          "name": "minted",
          "type": "uint256"
        }
      ],
      "stateMutability": "pure",
      "type": "function"
    },
    {
      "inputs": [],
      "name": "lpToken",
      "outputs": [
        {
          "internalType": "address",
          "name": "",
          "type": "address"
        }
      ],
      "stateMutability": "view",
      "type": "function"
    },
    {
      "inputs": [
        {
          "internalType": "uint256",
          "name": "",
          "type": "uint256"
        }
      ],
      "name": "tokens",
      "outputs": [
        {
          "internalType": "address",
          "name": "",
          "type": "address"
        }
      ],
      "stateMutability": "view",
      "type": "function"
    }
  ],
  "bytecode": "0x608060405234801561001057600080fd5b5060405161089138038061089183398101604081905261002f916100e8565b600080546001600160a01b0319166001600160a01b038416179055610057600182600361005f565b50505061019c565b82600381019282156100a7579160200282015b828111156100a757825182546001600160a01b0319166001600160a01b03909116178255602090920191600190910190610072565b506100b39291506100b7565b5090565b5b808211156100b357600081556001016100b8565b80516001600160a01b03811681146100e357600080fd5b919050565b600080608083850312156100fb57600080fd5b610104836100cc565b9150602084603f85011261011757600080fd5b604051606081016001600160401b038111828210171561013957610139610186565b604052808583016080870188101561015057600080fd5b60005b600381101561017757610165826100cc565b83529184019190840190600101610153565b50505080925050509250929050565b634e487b7160e01b600052604160045260246000fd5b6106e6806101ab6000396000f3fe608060405234801561001057600080fd5b506004361061004c5760003560e01c80633883e119146100515780634515cef3146100775780634f64b2be1461008a5780635fcbd285146100c2575b600080fd5b61006461005f366004610579565b6100e2565b6040519081526020015b60405180910390f35b6100646100853660046105b1565b610131565b61009d610098366004610600565b6104af565b60405173ffffffffffffffffffffffffffffffffffffffff909116815260200161006e565b60005461009d9073ffffffffffffffffffffffffffffffffffffffff1681565b6000805b60038160ff16101561012a57838160ff166003811061010757610107610699565b60200201516101169083610632565b9150806101228161064a565b9150506100e6565b5092915050565b6000805b60038160ff16101561040457600060018260ff166003811061015957610159610699565b015473ffffffffffffffffffffffffffffffffffffffff16905060008560ff84166003811061018a5761018a610699565b602002015111156103ca57848260ff16600381106101aa576101aa610699565b60200201516040517fdd62ed3e00000000000000000000000000000000000000000000000000000000815233600482015230602482015273ffffffffffffffffffffffffffffffffffffffff83169063dd62ed3e9060440160206040518083038186803b15801561021a57600080fd5b505afa15801561022e573d6000803e3d6000fd5b505050506040513d601f19601f820116820180604052508101906102529190610619565b10156102e4576040517f08c379a000000000000000000000000000000000000000000000000000000000815260206004820152603160248201527f506c61696e506f6f6c4d6f636b3a3a6164645f6c69717569646974793a20746f60448201527f6b656e206e6f7420616c6c6f77616e6365000000000000000000000000000000606482015260840160405180910390fd5b8073ffffffffffffffffffffffffffffffffffffffff166323b872dd3330888660ff166003811061031757610317610699565b60200201516040517fffffffff0000000000000000000000000000000000000000000000000000000060e086901b16815273ffffffffffffffffffffffffffffffffffffffff93841660048201529290911660248301526044820152606401602060405180830381600087803b15801561039057600080fd5b505af11580156103a4573d6000803e3d6000fd5b505050506040513d601f19601f820116820180604052508101906103c891906105dc565b505b848260ff16600381106103df576103df610699565b60200201516103ee9084610632565b92505080806103fc9061064a565b915050610135565b506000546040517fa9059cbb0000000000000000000000000000000000000000000000000000000081523360048201526024810183905273ffffffffffffffffffffffffffffffffffffffff9091169063a9059cbb90604401602060405180830381600087803b15801561047757600080fd5b505af115801561048b573d6000803e3d6000fd5b505050506040513d601f19601f8201168201806040525081019061012a91906105dc565b600181600381106104bf57600080fd5b015473ffffffffffffffffffffffffffffffffffffffff16905081565b600082601f8301126104ed57600080fd5b6040516060810181811067ffffffffffffffff82111715610537577f4e487b7100000000000000000000000000000000000000000000000000000000600052604160045260246000fd5b60405280836060810186101561054c57600080fd5b60005b600381101561056e57813583526020928301929091019060010161054f565b509195945050505050565b6000806080838503121561058c57600080fd5b61059684846104dc565b915060608301356105a6816106c8565b809150509250929050565b600080608083850312156105c457600080fd5b6105ce84846104dc565b946060939093013593505050565b6000602082840312156105ee57600080fd5b81516105f9816106c8565b9392505050565b60006020828403121561061257600080fd5b5035919050565b60006020828403121561062b57600080fd5b5051919050565b600082198211156106455761064561066a565b500190565b600060ff821660ff8114156106615761066161066a565b60010192915050565b7f4e487b7100000000000000000000000000000000000000000000000000000000600052601160045260246000fd5b7f4e487b7100000000000000000000000000000000000000000000000000000000600052603260045260246000fd5b80151581146106d657600080fd5b5056fea164736f6c6343000806000a",
  "linkReferences": {},
  "deployedLinkReferences": {}
}