{
  "_format": "hh-sol-artifact-1",
  "contractName": "RegistryMock",
  "sourceName": "automates/curve/mock/RegistryMock.sol",
  "abi": [
    {
      "inputs": [
        {
          "internalType": "address",
          "name": "pool",
          "type": "address"
        },
        {
          "components": [
            {
              "internalType": "uint256",
              "name": "n",
              "type": "uint256"
            },
            {
              "internalType": "address[8]",
              "name": "coins",
              "type": "address[8]"
            },
            {
              "internalType": "address",
              "name": "lp",
              "type": "address"
            }
          ],
          "internalType": "struct RegistryMock.Pool",
          "name": "data",
          "type": "tuple"
        }
      ],
      "name": "addPool",
      "outputs": [],
      "stateMutability": "nonpayable",
      "type": "function"
    },
    {
      "inputs": [
        {
          "internalType": "address",
          "name": "pool",
          "type": "address"
        }
      ],
      "name": "get_coins",
      "outputs": [
        {
          "internalType": "address[8]",
          "name": "",
          "type": "address[8]"
        }
      ],
      "stateMutability": "view",
      "type": "function"
    },
    {
      "inputs": [
        {
          "internalType": "address",
          "name": "pool",
          "type": "address"
        }
      ],
      "name": "get_n_coins",
      "outputs": [
        {
          "internalType": "uint256",
          "name": "",
          "type": "uint256"
        }
      ],
      "stateMutability": "view",
      "type": "function"
    },
    {
      "inputs": [
        {
          "internalType": "address",
          "name": "lpToken",
          "type": "address"
        }
      ],
      "name": "get_pool_from_lp_token",
      "outputs": [
        {
          "internalType": "address",
          "name": "pool",
          "type": "address"
        }
      ],
      "stateMutability": "view",
      "type": "function"
    }
  ],
  "bytecode": "0x608060405234801561001057600080fd5b50610659806100206000396000f3fe608060405234801561001057600080fd5b506004361061004c5760003560e01c8063940494f1146100515780639ac90d3d1461009a578063bdf475c3146100ba578063de05a852146100f2575b600080fd5b61008761005f3660046103fe565b73ffffffffffffffffffffffffffffffffffffffff1660009081526020819052604090205490565b6040519081526020015b60405180910390f35b6100ad6100a83660046103fe565b610107565b60405161009191906104f9565b6100cd6100c83660046103fe565b610185565b60405173ffffffffffffffffffffffffffffffffffffffff9091168152602001610091565b610105610100366004610420565b610251565b005b61010f610324565b73ffffffffffffffffffffffffffffffffffffffff8216600090815260208190526040908190208151610100810190925260010160088282826020028201915b815473ffffffffffffffffffffffffffffffffffffffff16815260019091019060200180831161014f5750505050509050919050565b6000805b60015481101561024b578273ffffffffffffffffffffffffffffffffffffffff16600080600184815481106101c0576101c06105ee565b600091825260208083209091015473ffffffffffffffffffffffffffffffffffffffff90811684529083019390935260409091019020600901541614156102395760018181548110610214576102146105ee565b60009182526020909120015473ffffffffffffffffffffffffffffffffffffffff1691505b806102438161058e565b915050610189565b50919050565b73ffffffffffffffffffffffffffffffffffffffff821660009081526020818152604090912082518155908201518291906102929060018301906008610343565b50604091909101516009909101805473ffffffffffffffffffffffffffffffffffffffff9283167fffffffffffffffffffffffff0000000000000000000000000000000000000000918216179091556001805480820182556000919091527fb10e2d527612073b26eecdfd717e6a320cf44b4afac2b0732d9fcbe2b7fa0cf60180549490921693169290921790915550565b6040518061010001604052806008906020820280368337509192915050565b82600881019282156103b0579160200282015b828111156103b057825182547fffffffffffffffffffffffff00000000000000000000000000000000000000001673ffffffffffffffffffffffffffffffffffffffff909116178255602090920191600190910190610356565b506103bc9291506103c0565b5090565b5b808211156103bc57600081556001016103c1565b803573ffffffffffffffffffffffffffffffffffffffff811681146103f957600080fd5b919050565b60006020828403121561041057600080fd5b610419826103d5565b9392505050565b60008082840361016081121561043557600080fd5b61043e846103d5565b92506020610140807fffffffffffffffffffffffffffffffffffffffffffffffffffffffffffffffe08401121561047457600080fd5b61047c610541565b925081860135835286605f87011261049357600080fd5b61049b61056a565b908601908060408801898411156104b157600080fd5b60005b60088110156104d8576104c6826103d5565b845292850192908501906001016104b4565b505084840152506104e8816103d5565b604084015250929590945092505050565b6101008101818360005b600881101561053857815173ffffffffffffffffffffffffffffffffffffffff16835260209283019290910190600101610503565b50505092915050565b6040516060810167ffffffffffffffff811182821017156105645761056461061d565b60405290565b604051610100810167ffffffffffffffff811182821017156105645761056461061d565b60007fffffffffffffffffffffffffffffffffffffffffffffffffffffffffffffffff8214156105e7577f4e487b7100000000000000000000000000000000000000000000000000000000600052601160045260246000fd5b5060010190565b7f4e487b7100000000000000000000000000000000000000000000000000000000600052603260045260246000fd5b7f4e487b7100000000000000000000000000000000000000000000000000000000600052604160045260246000fdfea164736f6c6343000806000a",
  "linkReferences": {},
  "deployedLinkReferences": {}
}