{
  "address": "0x411256BBe5cb97EF0C6b58BACbfE998c1ceb7f00",
  "abi": [
    {
      "inputs": [
        {
          "internalType": "address",
          "name": "_CAKE",
          "type": "address"
        }
      ],
      "stateMutability": "nonpayable",
      "type": "constructor"
    },
    {
      "anonymous": false,
      "inputs": [
        {
          "indexed": true,
          "internalType": "address",
          "name": "previousOwner",
          "type": "address"
        },
        {
          "indexed": true,
          "internalType": "address",
          "name": "newOwner",
          "type": "address"
        }
      ],
      "name": "OwnershipTransferred",
      "type": "event"
    },
    {
      "inputs": [],
      "name": "CAKE",
      "outputs": [
        {
          "internalType": "address",
          "name": "",
          "type": "address"
        }
      ],
      "stateMutability": "view",
      "type": "function"
    },
    {
      "inputs": [
        {
          "internalType": "uint256",
          "name": "pool",
          "type": "uint256"
        },
        {
          "internalType": "uint256",
          "name": "amount",
          "type": "uint256"
        }
      ],
      "name": "deposit",
      "outputs": [],
      "stateMutability": "nonpayable",
      "type": "function"
    },
    {
      "inputs": [
        {
          "internalType": "uint256",
          "name": "pool",
          "type": "uint256"
        }
      ],
      "name": "emergencyWithdraw",
      "outputs": [],
      "stateMutability": "nonpayable",
      "type": "function"
    },
    {
      "inputs": [
        {
          "internalType": "uint256",
          "name": "pool",
          "type": "uint256"
        }
      ],
      "name": "lpToken",
      "outputs": [
        {
          "internalType": "address",
          "name": "",
          "type": "address"
        }
      ],
      "stateMutability": "view",
      "type": "function"
    },
    {
      "inputs": [],
      "name": "owner",
      "outputs": [
        {
          "internalType": "address",
          "name": "",
          "type": "address"
        }
      ],
      "stateMutability": "view",
      "type": "function"
    },
    {
      "inputs": [
        {
          "internalType": "uint256",
          "name": "pool",
          "type": "uint256"
        },
        {
          "internalType": "address",
          "name": "user",
          "type": "address"
        }
      ],
      "name": "pendingCake",
      "outputs": [
        {
          "internalType": "uint256",
          "name": "",
          "type": "uint256"
        }
      ],
      "stateMutability": "view",
      "type": "function"
    },
    {
      "inputs": [
        {
          "internalType": "uint256",
          "name": "pool",
          "type": "uint256"
        }
      ],
      "name": "poolInfo",
      "outputs": [
        {
          "components": [
            {
              "internalType": "uint256",
              "name": "allocPoint",
              "type": "uint256"
            },
            {
              "internalType": "uint256",
              "name": "lastRewardBlock",
              "type": "uint256"
            },
            {
              "internalType": "uint256",
              "name": "accCakePerShare",
              "type": "uint256"
            },
            {
              "internalType": "bool",
              "name": "isRegular",
              "type": "bool"
            }
          ],
          "internalType": "struct IMasterChef2.PoolInfo",
          "name": "",
          "type": "tuple"
        }
      ],
      "stateMutability": "view",
      "type": "function"
    },
    {
      "inputs": [],
      "name": "poolLength",
      "outputs": [
        {
          "internalType": "uint256",
          "name": "",
          "type": "uint256"
        }
      ],
      "stateMutability": "view",
      "type": "function"
    },
    {
      "inputs": [],
      "name": "renounceOwnership",
      "outputs": [],
      "stateMutability": "nonpayable",
      "type": "function"
    },
    {
      "inputs": [
        {
          "internalType": "uint256",
          "name": "pool",
          "type": "uint256"
        },
        {
          "internalType": "address",
          "name": "_lpToken",
          "type": "address"
        }
      ],
      "name": "setPool",
      "outputs": [],
      "stateMutability": "nonpayable",
      "type": "function"
    },
    {
      "inputs": [
        {
          "internalType": "uint256",
          "name": "pool",
          "type": "uint256"
        },
        {
          "internalType": "address",
          "name": "user",
          "type": "address"
        },
        {
          "internalType": "uint256",
          "name": "amount",
          "type": "uint256"
        }
      ],
      "name": "setReward",
      "outputs": [],
      "stateMutability": "nonpayable",
      "type": "function"
    },
    {
      "inputs": [
        {
          "internalType": "address",
          "name": "newOwner",
          "type": "address"
        }
      ],
      "name": "transferOwnership",
      "outputs": [],
      "stateMutability": "nonpayable",
      "type": "function"
    },
    {
      "inputs": [
        {
          "internalType": "uint256",
          "name": "pool",
          "type": "uint256"
        },
        {
          "internalType": "address",
          "name": "user",
          "type": "address"
        }
      ],
      "name": "userInfo",
      "outputs": [
        {
          "components": [
            {
              "internalType": "uint256",
              "name": "amount",
              "type": "uint256"
            },
            {
              "internalType": "uint256",
              "name": "rewardDebt",
              "type": "uint256"
            },
            {
              "internalType": "uint256",
              "name": "boostMultiplier",
              "type": "uint256"
            }
          ],
          "internalType": "struct IMasterChef2.UserInfo",
          "name": "",
          "type": "tuple"
        }
      ],
      "stateMutability": "view",
      "type": "function"
    },
    {
      "inputs": [
        {
          "internalType": "uint256",
          "name": "pool",
          "type": "uint256"
        },
        {
          "internalType": "uint256",
          "name": "amount",
          "type": "uint256"
        }
      ],
      "name": "withdraw",
      "outputs": [],
      "stateMutability": "nonpayable",
      "type": "function"
    }
  ],
  "transactionHash": "0xeb4949f36bc2752b95d5f392b5f5e37cd4d849f3a176261fc8b438f42e7a8c9c",
  "args": [
    "0xb181Ea0d2835Df254F8c9E6a0CDFC1024B6Aa3e8"
  ],
  "numDeployments": 1,
  "solcInputHash": "20aeb887fbce531bd97b676abd6eb172",
  "bytecode": "0x608060405234801561001057600080fd5b5060405161130338038061130383398101604081905261002f916100ad565b6100383361005d565b600180546001600160a01b0319166001600160a01b03929092169190911790556100dd565b600080546001600160a01b038381166001600160a01b0319831681178455604051919092169283917f8be0079c531659141344cd1fd0a4f28419497f9722a3daafe3b4186f6b6457e09190a35050565b6000602082840312156100bf57600080fd5b81516001600160a01b03811681146100d657600080fd5b9392505050565b611217806100ec6000396000f3fe608060405234801561001057600080fd5b50600436106100ea5760003560e01c806378ed5d1f1161008c578063cdaffed011610066578063cdaffed014610297578063e2bbb158146102aa578063f2fde38b146102bd578063f3a6ee40146102d057600080fd5b806378ed5d1f1461020e5780638da5cb5b1461024457806393f1a40b1461026257600080fd5b8063441a3e70116100c8578063441a3e70146101995780634ca6ef28146101ae5780635312ea8e146101f3578063715018a61461020657600080fd5b8063081e3eda146100ef5780631175a1dd1461010b5780631526fe2714610151575b600080fd5b6100f860025481565b6040519081526020015b60405180910390f35b6100f8610119366004611057565b600091825260056020908152604080842073ffffffffffffffffffffffffffffffffffffffff93909316845291905290206001015490565b61016461015f36600461103e565b6102e3565b604051610102919081518152602080830151908201526040808301519082015260609182015115159181019190915260800190565b6101ac6101a73660046110b8565b610357565b005b6001546101ce9073ffffffffffffffffffffffffffffffffffffffff1681565b60405173ffffffffffffffffffffffffffffffffffffffff9091168152602001610102565b6101ac61020136600461103e565b610516565b6101ac61053e565b6101ce61021c36600461103e565b60009081526004602052604090205473ffffffffffffffffffffffffffffffffffffffff1690565b60005473ffffffffffffffffffffffffffffffffffffffff166101ce565b610275610270366004611057565b6105cb565b6040805182518152602080840151908201529181015190820152606001610102565b6101ac6102a5366004611083565b610646565b6101ac6102b83660046110b8565b6106fd565b6101ac6102cb366004611001565b61080a565b6101ac6102de366004611057565b610937565b61031060405180608001604052806000815260200160008152602001600081526020016000151581525090565b5060009081526003602081815260409283902083516080810185528154815260018201549281019290925260028101549382019390935291015460ff161515606082015290565b60008281526004602052604090205473ffffffffffffffffffffffffffffffffffffffff168061040e576040517f08c379a000000000000000000000000000000000000000000000000000000000815260206004820152602960248201527f4d617374657243686566324d6f636b3a3a77697468647261773a20706f6f6c2060448201527f6e6f7420666f756e64000000000000000000000000000000000000000000000060648201526084015b60405180910390fd5b60008381526005602090815260408083203384529091529020548211156104b7576040517f08c379a000000000000000000000000000000000000000000000000000000000815260206004820152602d60248201527f4d617374657243686566324d6f636b3a3a77697468647261773a20696e73756660448201527f66696369656e742066756e6473000000000000000000000000000000000000006064820152608401610405565b6000838152600560209081526040808320338452909152812080548492906104e090849061115f565b90915550610507905073ffffffffffffffffffffffffffffffffffffffff82163384610aed565b6105118333610bc1565b505050565b600081815260056020908152604080832033845290915290205461053b908290610357565b50565b60005473ffffffffffffffffffffffffffffffffffffffff1633146105bf576040517f08c379a000000000000000000000000000000000000000000000000000000000815260206004820181905260248201527f4f776e61626c653a2063616c6c6572206973206e6f7420746865206f776e65726044820152606401610405565b6105c96000610c07565b565b6105ef60405180606001604052806000815260200160008152602001600081525090565b50600091825260056020908152604080842073ffffffffffffffffffffffffffffffffffffffff93909316845291815291819020815160608101835281548152600182015493810193909352600201549082015290565b60005473ffffffffffffffffffffffffffffffffffffffff1633146106c7576040517f08c379a000000000000000000000000000000000000000000000000000000000815260206004820181905260248201527f4f776e61626c653a2063616c6c6572206973206e6f7420746865206f776e65726044820152606401610405565b600092835260056020908152604080852073ffffffffffffffffffffffffffffffffffffffff9094168552929052912060010155565b60008281526004602052604090205473ffffffffffffffffffffffffffffffffffffffff16806107af576040517f08c379a000000000000000000000000000000000000000000000000000000000815260206004820152602860248201527f4d617374657243686566324d6f636b3a3a6465706f7369743a20706f6f6c206e60448201527f6f7420666f756e640000000000000000000000000000000000000000000000006064820152608401610405565b6107d173ffffffffffffffffffffffffffffffffffffffff8216333085610c7c565b6000838152600560209081526040808320338452909152812080548492906107fa908490611147565b9091555061051190508333610bc1565b60005473ffffffffffffffffffffffffffffffffffffffff16331461088b576040517f08c379a000000000000000000000000000000000000000000000000000000000815260206004820181905260248201527f4f776e61626c653a2063616c6c6572206973206e6f7420746865206f776e65726044820152606401610405565b73ffffffffffffffffffffffffffffffffffffffff811661092e576040517f08c379a000000000000000000000000000000000000000000000000000000000815260206004820152602660248201527f4f776e61626c653a206e6577206f776e657220697320746865207a65726f206160448201527f64647265737300000000000000000000000000000000000000000000000000006064820152608401610405565b61053b81610c07565b60005473ffffffffffffffffffffffffffffffffffffffff1633146109b8576040517f08c379a000000000000000000000000000000000000000000000000000000000815260206004820181905260248201527f4f776e61626c653a2063616c6c6572206973206e6f7420746865206f776e65726044820152606401610405565b73ffffffffffffffffffffffffffffffffffffffff8116610a5b576040517f08c379a000000000000000000000000000000000000000000000000000000000815260206004820152603260248201527f4d617374657243686566324d6f636b3a3a736574506f6f6c3a20696e76616c6960448201527f64206c7020746f6b656e206164647265737300000000000000000000000000006064820152608401610405565b60008281526004602052604090205473ffffffffffffffffffffffffffffffffffffffff16610a9a5760028054906000610a94836111a2565b91905055505b60009182526004602052604090912080547fffffffffffffffffffffffff00000000000000000000000000000000000000001673ffffffffffffffffffffffffffffffffffffffff909216919091179055565b60405173ffffffffffffffffffffffffffffffffffffffff83166024820152604481018290526105119084907fa9059cbb00000000000000000000000000000000000000000000000000000000906064015b604080517fffffffffffffffffffffffffffffffffffffffffffffffffffffffffffffffe08184030181529190526020810180517bffffffffffffffffffffffffffffffffffffffffffffffffffffffff167fffffffff0000000000000000000000000000000000000000000000000000000090931692909217909152610ce0565b600082815260056020908152604080832073ffffffffffffffffffffffffffffffffffffffff858116855292528220600190810180549390555461051191168383610aed565b6000805473ffffffffffffffffffffffffffffffffffffffff8381167fffffffffffffffffffffffff0000000000000000000000000000000000000000831681178455604051919092169283917f8be0079c531659141344cd1fd0a4f28419497f9722a3daafe3b4186f6b6457e09190a35050565b60405173ffffffffffffffffffffffffffffffffffffffff80851660248301528316604482015260648101829052610cda9085907f23b872dd0000000000000000000000000000000000000000000000000000000090608401610b3f565b50505050565b6000610d42826040518060400160405280602081526020017f5361666545524332303a206c6f772d6c6576656c2063616c6c206661696c65648152508573ffffffffffffffffffffffffffffffffffffffff16610dec9092919063ffffffff16565b8051909150156105115780806020019051810190610d60919061101c565b610511576040517f08c379a000000000000000000000000000000000000000000000000000000000815260206004820152602a60248201527f5361666545524332303a204552433230206f7065726174696f6e20646964206e60448201527f6f742073756363656564000000000000000000000000000000000000000000006064820152608401610405565b6060610dfb8484600085610e05565b90505b9392505050565b606082471015610e97576040517f08c379a000000000000000000000000000000000000000000000000000000000815260206004820152602660248201527f416464726573733a20696e73756666696369656e742062616c616e636520666f60448201527f722063616c6c00000000000000000000000000000000000000000000000000006064820152608401610405565b843b610eff576040517f08c379a000000000000000000000000000000000000000000000000000000000815260206004820152601d60248201527f416464726573733a2063616c6c20746f206e6f6e2d636f6e74726163740000006044820152606401610405565b6000808673ffffffffffffffffffffffffffffffffffffffff168587604051610f2891906110da565b60006040518083038185875af1925050503d8060008114610f65576040519150601f19603f3d011682016040523d82523d6000602084013e610f6a565b606091505b5091509150610f7a828286610f85565b979650505050505050565b60608315610f94575081610dfe565b825115610fa45782518084602001fd5b816040517f08c379a000000000000000000000000000000000000000000000000000000000815260040161040591906110f6565b803573ffffffffffffffffffffffffffffffffffffffff81168114610ffc57600080fd5b919050565b60006020828403121561101357600080fd5b610dfe82610fd8565b60006020828403121561102e57600080fd5b81518015158114610dfe57600080fd5b60006020828403121561105057600080fd5b5035919050565b6000806040838503121561106a57600080fd5b8235915061107a60208401610fd8565b90509250929050565b60008060006060848603121561109857600080fd5b833592506110a860208501610fd8565b9150604084013590509250925092565b600080604083850312156110cb57600080fd5b50508035926020909101359150565b600082516110ec818460208701611176565b9190910192915050565b6020815260008251806020840152611115816040850160208701611176565b601f017fffffffffffffffffffffffffffffffffffffffffffffffffffffffffffffffe0169190910160400192915050565b6000821982111561115a5761115a6111db565b500190565b600082821015611171576111716111db565b500390565b60005b83811015611191578181015183820152602001611179565b83811115610cda5750506000910152565b60007fffffffffffffffffffffffffffffffffffffffffffffffffffffffffffffffff8214156111d4576111d46111db565b5060010190565b7f4e487b7100000000000000000000000000000000000000000000000000000000600052601160045260246000fdfea164736f6c6343000806000a",
  "devdoc": {
    "kind": "dev",
    "methods": {
      "owner()": {
        "details": "Returns the address of the current owner."
      },
      "renounceOwnership()": {
        "details": "Leaves the contract without owner. It will not be possible to call `onlyOwner` functions anymore. Can only be called by the current owner. NOTE: Renouncing ownership will leave the contract without an owner, thereby removing any functionality that is only available to the owner."
      },
      "transferOwnership(address)": {
        "details": "Transfers ownership of the contract to a new account (`newOwner`). Can only be called by the current owner."
      }
    },
    "version": 1
  },
  "userdoc": {
    "kind": "user",
    "methods": {},
    "version": 1
  },
  "storageLayout": {
    "storage": [
      {
        "astId": 53,
        "contract": "contracts/mock/MasterChef2Mock.sol:MasterChef2Mock",
        "label": "_owner",
        "offset": 0,
        "slot": "0",
        "type": "t_address"
      },
      {
        "astId": 3530,
        "contract": "contracts/mock/MasterChef2Mock.sol:MasterChef2Mock",
        "label": "CAKE",
        "offset": 0,
        "slot": "1",
        "type": "t_address"
      },
      {
        "astId": 3533,
        "contract": "contracts/mock/MasterChef2Mock.sol:MasterChef2Mock",
        "label": "poolLength",
        "offset": 0,
        "slot": "2",
        "type": "t_uint256"
      },
      {
        "astId": 3538,
        "contract": "contracts/mock/MasterChef2Mock.sol:MasterChef2Mock",
        "label": "_pools",
        "offset": 0,
        "slot": "3",
        "type": "t_mapping(t_uint256,t_struct(PoolInfo)856_storage)"
      },
      {
        "astId": 3542,
        "contract": "contracts/mock/MasterChef2Mock.sol:MasterChef2Mock",
        "label": "_lpTokens",
        "offset": 0,
        "slot": "4",
        "type": "t_mapping(t_uint256,t_address)"
      },
      {
        "astId": 3549,
        "contract": "contracts/mock/MasterChef2Mock.sol:MasterChef2Mock",
        "label": "_usersInfo",
        "offset": 0,
        "slot": "5",
        "type": "t_mapping(t_uint256,t_mapping(t_address,t_struct(UserInfo)847_storage))"
      }
    ],
    "types": {
      "t_address": {
        "encoding": "inplace",
        "label": "address",
        "numberOfBytes": "20"
      },
      "t_bool": {
        "encoding": "inplace",
        "label": "bool",
        "numberOfBytes": "1"
      },
      "t_mapping(t_address,t_struct(UserInfo)847_storage)": {
        "encoding": "mapping",
        "key": "t_address",
        "label": "mapping(address => struct IMasterChef2.UserInfo)",
        "numberOfBytes": "32",
        "value": "t_struct(UserInfo)847_storage"
      },
      "t_mapping(t_uint256,t_address)": {
        "encoding": "mapping",
        "key": "t_uint256",
        "label": "mapping(uint256 => address)",
        "numberOfBytes": "32",
        "value": "t_address"
      },
      "t_mapping(t_uint256,t_mapping(t_address,t_struct(UserInfo)847_storage))": {
        "encoding": "mapping",
        "key": "t_uint256",
        "label": "mapping(uint256 => mapping(address => struct IMasterChef2.UserInfo))",
        "numberOfBytes": "32",
        "value": "t_mapping(t_address,t_struct(UserInfo)847_storage)"
      },
      "t_mapping(t_uint256,t_struct(PoolInfo)856_storage)": {
        "encoding": "mapping",
        "key": "t_uint256",
        "label": "mapping(uint256 => struct IMasterChef2.PoolInfo)",
        "numberOfBytes": "32",
        "value": "t_struct(PoolInfo)856_storage"
      },
      "t_struct(PoolInfo)856_storage": {
        "encoding": "inplace",
        "label": "struct IMasterChef2.PoolInfo",
        "members": [
          {
            "astId": 849,
            "contract": "contracts/mock/MasterChef2Mock.sol:MasterChef2Mock",
            "label": "allocPoint",
            "offset": 0,
            "slot": "0",
            "type": "t_uint256"
          },
          {
            "astId": 851,
            "contract": "contracts/mock/MasterChef2Mock.sol:MasterChef2Mock",
            "label": "lastRewardBlock",
            "offset": 0,
            "slot": "1",
            "type": "t_uint256"
          },
          {
            "astId": 853,
            "contract": "contracts/mock/MasterChef2Mock.sol:MasterChef2Mock",
            "label": "accCakePerShare",
            "offset": 0,
            "slot": "2",
            "type": "t_uint256"
          },
          {
            "astId": 855,
            "contract": "contracts/mock/MasterChef2Mock.sol:MasterChef2Mock",
            "label": "isRegular",
            "offset": 0,
            "slot": "3",
            "type": "t_bool"
          }
        ],
        "numberOfBytes": "128"
      },
      "t_struct(UserInfo)847_storage": {
        "encoding": "inplace",
        "label": "struct IMasterChef2.UserInfo",
        "members": [
          {
            "astId": 842,
            "contract": "contracts/mock/MasterChef2Mock.sol:MasterChef2Mock",
            "label": "amount",
            "offset": 0,
            "slot": "0",
            "type": "t_uint256"
          },
          {
            "astId": 844,
            "contract": "contracts/mock/MasterChef2Mock.sol:MasterChef2Mock",
            "label": "rewardDebt",
            "offset": 0,
            "slot": "1",
            "type": "t_uint256"
          },
          {
            "astId": 846,
            "contract": "contracts/mock/MasterChef2Mock.sol:MasterChef2Mock",
            "label": "boostMultiplier",
            "offset": 0,
            "slot": "2",
            "type": "t_uint256"
          }
        ],
        "numberOfBytes": "96"
      },
      "t_uint256": {
        "encoding": "inplace",
        "label": "uint256",
        "numberOfBytes": "32"
      }
    }
  }
}