{
  "_format": "hh-sol-artifact-1",
  "contractName": "Restake",
  "sourceName": "contracts/Restake.automate.sol",
  "abi": [
    {
      "inputs": [
        {
          "internalType": "address",
          "name": "_info",
          "type": "address"
        }
      ],
      "stateMutability": "nonpayable",
      "type": "constructor"
    },
    {
      "anonymous": false,
      "inputs": [
        {
          "indexed": false,
          "internalType": "uint256",
          "name": "tokenId",
          "type": "uint256"
        }
      ],
      "name": "Deposit",
      "type": "event"
    },
    {
      "anonymous": false,
      "inputs": [
        {
          "indexed": true,
          "internalType": "address",
          "name": "previousOwner",
          "type": "address"
        },
        {
          "indexed": true,
          "internalType": "address",
          "name": "newOwner",
          "type": "address"
        }
      ],
      "name": "OwnershipTransferred",
      "type": "event"
    },
    {
      "anonymous": false,
      "inputs": [
        {
          "indexed": false,
          "internalType": "int256",
          "name": "protocolFee",
          "type": "int256"
        }
      ],
      "name": "ProtocolFeeChanged",
      "type": "event"
    },
    {
      "anonymous": false,
      "inputs": [
        {
          "indexed": false,
          "internalType": "uint256",
          "name": "tokenId",
          "type": "uint256"
        }
      ],
      "name": "Refund",
      "type": "event"
    },
    {
      "inputs": [
        {
          "internalType": "int256",
          "name": "__protocolFee",
          "type": "int256"
        }
      ],
      "name": "changeProtocolFee",
      "outputs": [],
      "stateMutability": "nonpayable",
      "type": "function"
    },
    {
      "inputs": [],
      "name": "deadline",
      "outputs": [
        {
          "internalType": "uint16",
          "name": "",
          "type": "uint16"
        }
      ],
      "stateMutability": "view",
      "type": "function"
    },
    {
      "inputs": [
        {
          "internalType": "uint256",
          "name": "_tokenId",
          "type": "uint256"
        }
      ],
      "name": "deposit",
      "outputs": [],
      "stateMutability": "nonpayable",
      "type": "function"
    },
    {
      "inputs": [
        {
          "internalType": "uint256",
          "name": "_deadline",
          "type": "uint256"
        }
      ],
      "name": "emergencyWithdraw",
      "outputs": [],
      "stateMutability": "nonpayable",
      "type": "function"
    },
    {
      "inputs": [],
      "name": "info",
      "outputs": [
        {
          "internalType": "address",
          "name": "",
          "type": "address"
        }
      ],
      "stateMutability": "view",
      "type": "function"
    },
    {
      "inputs": [
        {
          "internalType": "address",
          "name": "_positionManager",
          "type": "address"
        },
        {
          "internalType": "address",
          "name": "_liquidityRouter",
          "type": "address"
        },
        {
          "internalType": "address",
          "name": "_pool",
          "type": "address"
        },
        {
          "internalType": "uint16",
          "name": "_deadline",
          "type": "uint16"
        }
      ],
      "name": "init",
      "outputs": [],
      "stateMutability": "nonpayable",
      "type": "function"
    },
    {
      "inputs": [],
      "name": "liquidityRouter",
      "outputs": [
        {
          "internalType": "address",
          "name": "",
          "type": "address"
        }
      ],
      "stateMutability": "view",
      "type": "function"
    },
    {
      "inputs": [
        {
          "internalType": "address",
          "name": "",
          "type": "address"
        },
        {
          "internalType": "address",
          "name": "",
          "type": "address"
        },
        {
          "internalType": "uint256",
          "name": "",
          "type": "uint256"
        },
        {
          "internalType": "bytes",
          "name": "",
          "type": "bytes"
        }
      ],
      "name": "onERC721Received",
      "outputs": [
        {
          "internalType": "bytes4",
          "name": "",
          "type": "bytes4"
        }
      ],
      "stateMutability": "pure",
      "type": "function"
    },
    {
      "inputs": [],
      "name": "owner",
      "outputs": [
        {
          "internalType": "address",
          "name": "",
          "type": "address"
        }
      ],
      "stateMutability": "view",
      "type": "function"
    },
    {
      "inputs": [],
      "name": "pause",
      "outputs": [],
      "stateMutability": "nonpayable",
      "type": "function"
    },
    {
      "inputs": [],
      "name": "paused",
      "outputs": [
        {
          "internalType": "bool",
          "name": "",
          "type": "bool"
        }
      ],
      "stateMutability": "view",
      "type": "function"
    },
    {
      "inputs": [],
      "name": "pool",
      "outputs": [
        {
          "internalType": "address",
          "name": "",
          "type": "address"
        }
      ],
      "stateMutability": "view",
      "type": "function"
    },
    {
      "inputs": [],
      "name": "positionManager",
      "outputs": [
        {
          "internalType": "address",
          "name": "",
          "type": "address"
        }
      ],
      "stateMutability": "view",
      "type": "function"
    },
    {
      "inputs": [],
      "name": "protocolFee",
      "outputs": [
        {
          "internalType": "uint256",
          "name": "",
          "type": "uint256"
        }
      ],
      "stateMutability": "view",
      "type": "function"
    },
    {
      "inputs": [
        {
          "internalType": "uint256",
          "name": "gasFee",
          "type": "uint256"
        },
        {
          "internalType": "int24",
          "name": "tickLower",
          "type": "int24"
        },
        {
          "internalType": "int24",
          "name": "tickUpper",
          "type": "int24"
        },
        {
          "internalType": "uint256",
          "name": "_deadline",
          "type": "uint256"
        }
      ],
      "name": "rebalance",
      "outputs": [],
      "stateMutability": "nonpayable",
      "type": "function"
    },
    {
      "inputs": [],
      "name": "refund",
      "outputs": [],
      "stateMutability": "nonpayable",
      "type": "function"
    },
    {
      "inputs": [
        {
          "internalType": "uint256",
          "name": "gasFee",
          "type": "uint256"
        },
        {
          "internalType": "uint256",
          "name": "_deadline",
          "type": "uint256"
        }
      ],
      "name": "run",
      "outputs": [],
      "stateMutability": "nonpayable",
      "type": "function"
    },
    {
      "inputs": [
        {
          "internalType": "uint256",
          "name": "gasFee",
          "type": "uint256"
        },
        {
          "internalType": "uint256",
          "name": "_deadline",
          "type": "uint256"
        }
      ],
      "name": "runStopLoss",
      "outputs": [],
      "stateMutability": "nonpayable",
      "type": "function"
    },
    {
      "inputs": [
        {
          "internalType": "address[]",
          "name": "path",
          "type": "address[]"
        },
        {
          "internalType": "uint24",
          "name": "fee",
          "type": "uint24"
        },
        {
          "internalType": "uint256",
          "name": "amountOut",
          "type": "uint256"
        },
        {
          "internalType": "uint256",
          "name": "amountOutMin",
          "type": "uint256"
        }
      ],
      "name": "setStopLoss",
      "outputs": [],
      "stateMutability": "nonpayable",
      "type": "function"
    },
    {
      "inputs": [],
      "name": "stopLoss",
      "outputs": [
        {
          "internalType": "uint24",
          "name": "fee",
          "type": "uint24"
        },
        {
          "internalType": "uint256",
          "name": "amountOut",
          "type": "uint256"
        },
        {
          "internalType": "uint256",
          "name": "amountOutMin",
          "type": "uint256"
        }
      ],
      "stateMutability": "view",
      "type": "function"
    },
    {
      "inputs": [],
      "name": "tokenId",
      "outputs": [
        {
          "internalType": "uint256",
          "name": "",
          "type": "uint256"
        }
      ],
      "stateMutability": "view",
      "type": "function"
    },
    {
      "inputs": [
        {
          "internalType": "address",
          "name": "token",
          "type": "address"
        },
        {
          "internalType": "address",
          "name": "recipient",
          "type": "address"
        },
        {
          "internalType": "uint256",
          "name": "amount",
          "type": "uint256"
        }
      ],
      "name": "transfer",
      "outputs": [],
      "stateMutability": "nonpayable",
      "type": "function"
    },
    {
      "inputs": [
        {
          "internalType": "address",
          "name": "newOwner",
          "type": "address"
        }
      ],
      "name": "transferOwnership",
      "outputs": [],
      "stateMutability": "nonpayable",
      "type": "function"
    },
    {
      "inputs": [],
      "name": "unpause",
      "outputs": [],
      "stateMutability": "nonpayable",
      "type": "function"
    }
  ],
  "bytecode": "0x60806040523480156200001157600080fd5b5060405162005a9b38038062005a9b833981016040819052620000349162000069565b600080546001600160a01b039092166001600160a01b031992831617905560018054909116321790556000196002556200009b565b6000602082840312156200007c57600080fd5b81516001600160a01b03811681146200009457600080fd5b9392505050565b6159f080620000ab6000396000f3fe608060405234801561001057600080fd5b50600436106101985760003560e01c80637357f5d2116100e3578063b0e21e8a1161008c578063beabacc811610066578063beabacc8146103ea578063f2fde38b146103fd578063f7d5e2d81461041057600080fd5b8063b0e21e8a146103bc578063b6b55f25146103c4578063bc68d6b0146103d757600080fd5b80638da5cb5b116100bd5780638da5cb5b146103785780639327d80a146103965780639742b5c3146103a957600080fd5b80637357f5d214610338578063791b98bc1461034b5780638456cb591461037057600080fd5b80633f4ba83a11610145578063590e1ae31161011f578063590e1ae3146103055780635b8486271461030d5780635c975abb1461032057600080fd5b80633f4ba83a146102b0578063527a1565146102ba5780635312ea8e146102f257600080fd5b80632470294411610176578063247029441461026757806329dcb0cf14610287578063370158ea146102a857600080fd5b8063150b7a021461019d57806316f0115b1461020b57806317d70f7c14610250575b600080fd5b6101d56101ab366004615268565b7f150b7a023d4804d13e8c85fb27262cb750cf6ba9f9dd3bb30d90f482ceeb4b1f95945050505050565b6040517fffffffff0000000000000000000000000000000000000000000000000000000090911681526020015b60405180910390f35b60055461022b9073ffffffffffffffffffffffffffffffffffffffff1681565b60405173ffffffffffffffffffffffffffffffffffffffff9091168152602001610202565b61025960065481565b604051908152602001610202565b60045461022b9073ffffffffffffffffffffffffffffffffffffffff1681565b6007546102959061ffff1681565b60405161ffff9091168152602001610202565b61022b610423565b6102b8610585565b005b600954600a54600b546102d19262ffffff16919083565b6040805162ffffff9094168452602084019290925290820152606001610202565b6102b8610300366004615435565b61091c565b6102b8610bb3565b6102b861031b36600461549c565b61118e565b610328611463565b6040519015158152602001610202565b6102b86103463660046154e4565b6115e8565b60035461022b90610100900473ffffffffffffffffffffffffffffffffffffffff1681565b6102b8611ce3565b60015473ffffffffffffffffffffffffffffffffffffffff1661022b565b6102b86103a43660046154e4565b61208d565b6102b86103b7366004615435565b612352565b61025961258c565b6102b86103d2366004615435565b612999565b6102b86103e53660046151c4565b613032565b6102b86103f8366004615227565b6134a6565b6102b861040b36600461518a565b6135f5565b6102b861041e366004615307565b613854565b6040517f6b880718000000000000000000000000000000000000000000000000000000008152306004820152600090819073__$0fb85c1a108326fe5c0d8f2f5a241bc0e7$__90636b8807189060240160206040518083038186803b15801561048b57600080fd5b505af415801561049f573d6000803e3d6000fd5b505050506040513d601f19601f820116820180604052508101906104c391906151a7565b905073ffffffffffffffffffffffffffffffffffffffff811630141561050157505060005473ffffffffffffffffffffffffffffffffffffffff1690565b8073ffffffffffffffffffffffffffffffffffffffff1663370158ea6040518163ffffffff1660e01b815260040160206040518083038186803b15801561054757600080fd5b505afa15801561055b573d6000803e3d6000fd5b505050506040513d601f19601f8201168201806040525081019061057f91906151a7565b91505090565b6040517f6b88071800000000000000000000000000000000000000000000000000000000815230600482018190529073__$0fb85c1a108326fe5c0d8f2f5a241bc0e7$__90636b8807189060240160206040518083038186803b1580156105eb57600080fd5b505af41580156105ff573d6000803e3d6000fd5b505050506040513d601f19601f8201168201806040525081019061062391906151a7565b73ffffffffffffffffffffffffffffffffffffffff1614156107dd576000610649610423565b6040517f21f8a7210000000000000000000000000000000000000000000000000000000081527f689d13d8ed8ef1027633ba26e7121121cf427434450a529548f19bf175974395600482015273ffffffffffffffffffffffffffffffffffffffff91909116906321f8a7219060240160206040518083038186803b1580156106d057600080fd5b505afa1580156106e4573d6000803e3d6000fd5b505050506040513d601f19601f8201168201806040525081019061070891906151a7565b60015490915073ffffffffffffffffffffffffffffffffffffffff1633148061074657503373ffffffffffffffffffffffffffffffffffffffff8216145b6107d7576040517f08c379a000000000000000000000000000000000000000000000000000000000815260206004820152602260248201527f4175746f6d6174653a2063616c6c6572206973206e6f7420746865207061757360448201527f657200000000000000000000000000000000000000000000000000000000000060648201526084015b60405180910390fd5b50610884565b60015473ffffffffffffffffffffffffffffffffffffffff163314610884576040517f08c379a000000000000000000000000000000000000000000000000000000000815260206004820152602260248201527f4175746f6d6174653a2063616c6c6572206973206e6f7420746865207061757360448201527f657200000000000000000000000000000000000000000000000000000000000060648201526084016107ce565b61088c611463565b6108f2576040517f08c379a000000000000000000000000000000000000000000000000000000000815260206004820152601460248201527f4175746f6d6174653a206e6f742070617573656400000000000000000000000060448201526064016107ce565b600180547fffffffffffffffffffffff00ffffffffffffffffffffffffffffffffffffffff169055565b60015473ffffffffffffffffffffffffffffffffffffffff1633146109c3576040517f08c379a000000000000000000000000000000000000000000000000000000000815260206004820152602160248201527f4175746f6d6174653a2063616c6c6572206973206e6f7420746865206f776e6560448201527f720000000000000000000000000000000000000000000000000000000000000060648201526084016107ce565b600654610a52576040517f08c379a000000000000000000000000000000000000000000000000000000000815260206004820152602c60248201527f52657374616b653a3a746f6b656e4465706f73697465643a20746f6b656e206e60448201527f6f74206465706f7369746564000000000000000000000000000000000000000060648201526084016107ce565b6003546006546040517f6352211e0000000000000000000000000000000000000000000000000000000081523092610100900473ffffffffffffffffffffffffffffffffffffffff1691636352211e91610ab3919060040190815260200190565b60206040518083038186803b158015610acb57600080fd5b505afa158015610adf573d6000803e3d6000fd5b505050506040513d601f19601f82011682018060405250810190610b0391906151a7565b73ffffffffffffffffffffffffffffffffffffffff1614610ba6576040517f08c379a000000000000000000000000000000000000000000000000000000000815260206004820152602760248201527f52657374616b653a3a746f6b656e4465706f73697465643a20746f6b656e207260448201527f6566756e6465640000000000000000000000000000000000000000000000000060648201526084016107ce565b610baf81613996565b5050565b60015473ffffffffffffffffffffffffffffffffffffffff163314610c5a576040517f08c379a000000000000000000000000000000000000000000000000000000000815260206004820152602160248201527f4175746f6d6174653a2063616c6c6572206973206e6f7420746865206f776e6560448201527f720000000000000000000000000000000000000000000000000000000000000060648201526084016107ce565b60065480610cea576040517f08c379a000000000000000000000000000000000000000000000000000000000815260206004820152602760248201527f52657374616b653a3a726566756e643a20746f6b656e20616c7265616479207260448201527f6566756e6465640000000000000000000000000000000000000000000000000060648201526084016107ce565b6000610d0b60015473ffffffffffffffffffffffffffffffffffffffff1690565b6003546040517f42842e0e00000000000000000000000000000000000000000000000000000000815230600482015273ffffffffffffffffffffffffffffffffffffffff8084166024830152604482018690529293506101009091049091169081906342842e0e90606401600060405180830381600087803b158015610d9057600080fd5b505af1158015610da4573d6000803e3d6000fd5b50506040517f99fbab88000000000000000000000000000000000000000000000000000000008152600481018690526000925082915073ffffffffffffffffffffffffffffffffffffffff8416906399fbab88906024016101806040518083038186803b158015610e1457600080fd5b505afa158015610e28573d6000803e3d6000fd5b505050506040513d601f19601f82011682018060405250810190610e4c919061557a565b5050505050505050935093505050600073ffffffffffffffffffffffffffffffffffffffff168273ffffffffffffffffffffffffffffffffffffffff161415610f17576040517f08c379a000000000000000000000000000000000000000000000000000000000815260206004820152602760248201527f52657374616b653a3a726566756e643a20696e76616c696420746f6b656e302060448201527f616464726573730000000000000000000000000000000000000000000000000060648201526084016107ce565b73ffffffffffffffffffffffffffffffffffffffff8116610fba576040517f08c379a000000000000000000000000000000000000000000000000000000000815260206004820152602760248201527f52657374616b653a3a726566756e643a20696e76616c696420746f6b656e312060448201527f616464726573730000000000000000000000000000000000000000000000000060648201526084016107ce565b6040517f70a0823100000000000000000000000000000000000000000000000000000000815230600482015260009073ffffffffffffffffffffffffffffffffffffffff8416906370a082319060240160206040518083038186803b15801561102257600080fd5b505afa158015611036573d6000803e3d6000fd5b505050506040513d601f19601f8201168201806040525081019061105a9190615483565b6040517f70a0823100000000000000000000000000000000000000000000000000000000815230600482015290915060009073ffffffffffffffffffffffffffffffffffffffff8416906370a082319060240160206040518083038186803b1580156110c557600080fd5b505afa1580156110d9573d6000803e3d6000fd5b505050506040513d601f19601f820116820180604052508101906110fd9190615483565b905081156111265761112673ffffffffffffffffffffffffffffffffffffffff85168784613f66565b801561114d5761114d73ffffffffffffffffffffffffffffffffffffffff84168783613f66565b60006006556040518781527f2e1897b0591d764356194f7a795238a87c1987c7a877568e50d829d547c92b979060200160405180910390a150505050505050565b836040518060400160405280601981526020017f556e6973776170563352657374616b65526562616c616e6365000000000000008152506111cf828261403f565b5060065480611260576040517f08c379a000000000000000000000000000000000000000000000000000000000815260206004820152602a60248201527f52657374616b653a3a726562616c616e63653a20746f6b656e20616c7265616460448201527f7920726566756e6465640000000000000000000000000000000000000000000060648201526084016107ce565b6040805160a081018252600288810b825287810b60208301908152600354610100900473ffffffffffffffffffffffffffffffffffffffff908116848601908152600480548316606087019081526080870189815297517f7543f16a0000000000000000000000000000000000000000000000000000000081528751870b92810192909252935190940b6024850152518116604484015290511660648201529151608483015260a482018690529060009073__$e3a82572beb2321576194f1773b382d2bf$__90637543f16a9060c40160206040518083038186803b15801561134857600080fd5b505af415801561135c573d6000803e3d6000fd5b505050506040513d601f19601f820116820180604052508101906113809190615483565b60035490915073ffffffffffffffffffffffffffffffffffffffff610100909104166342842e0e306113c760015473ffffffffffffffffffffffffffffffffffffffff1690565b6040517fffffffff0000000000000000000000000000000000000000000000000000000060e085901b16815273ffffffffffffffffffffffffffffffffffffffff92831660048201529116602482015260448101869052606401600060405180830381600087803b15801561143b57600080fd5b505af115801561144f573d6000803e3d6000fd5b505050600691909155505050505050505050565b6040517f6b880718000000000000000000000000000000000000000000000000000000008152306004820152600090819073__$0fb85c1a108326fe5c0d8f2f5a241bc0e7$__90636b8807189060240160206040518083038186803b1580156114cb57600080fd5b505af41580156114df573d6000803e3d6000fd5b505050506040513d601f19601f8201168201806040525081019061150391906151a7565b905073ffffffffffffffffffffffffffffffffffffffff811630141561154657505060015474010000000000000000000000000000000000000000900460ff1690565b60015474010000000000000000000000000000000000000000900460ff168061057f57508073ffffffffffffffffffffffffffffffffffffffff16635c975abb6040518163ffffffff1660e01b815260040160206040518083038186803b1580156115b057600080fd5b505afa1580156115c4573d6000803e3d6000fd5b505050506040513d601f19601f8201168201806040525081019061057f9190615413565b600654611677576040517f08c379a000000000000000000000000000000000000000000000000000000000815260206004820152602c60248201527f52657374616b653a3a746f6b656e4465706f73697465643a20746f6b656e206e60448201527f6f74206465706f7369746564000000000000000000000000000000000000000060648201526084016107ce565b6003546006546040517f6352211e0000000000000000000000000000000000000000000000000000000081523092610100900473ffffffffffffffffffffffffffffffffffffffff1691636352211e916116d8919060040190815260200190565b60206040518083038186803b1580156116f057600080fd5b505afa158015611704573d6000803e3d6000fd5b505050506040513d601f19601f8201168201806040525081019061172891906151a7565b73ffffffffffffffffffffffffffffffffffffffff16146117cb576040517f08c379a000000000000000000000000000000000000000000000000000000000815260206004820152602760248201527f52657374616b653a3a746f6b656e4465706f73697465643a20746f6b656e207260448201527f6566756e6465640000000000000000000000000000000000000000000000000060648201526084016107ce565b816040518060400160405280601081526020017f556e6973776170563352657374616b650000000000000000000000000000000081525061180c828261403f565b506006546003546040517f99fbab880000000000000000000000000000000000000000000000000000000081526004810183905261010090910473ffffffffffffffffffffffffffffffffffffffff1690600090819083906399fbab88906024016101806040518083038186803b15801561188657600080fd5b505afa15801561189a573d6000803e3d6000fd5b505050506040513d601f19601f820116820180604052508101906118be919061557a565b5050604080516080810182528f81523060208201526fffffffffffffffffffffffffffffffff818301819052606082015290517ffc6f7865000000000000000000000000000000000000000000000000000000008152989c50969a505073ffffffffffffffffffffffffffffffffffffffff8c16985063fc6f7865975061194e9660040194506157489350505050565b6040805180830381600087803b15801561196757600080fd5b505af115801561197b573d6000803e3d6000fd5b505050506040513d601f19601f8201168201806040525081019061199f9190615506565b50506040517f70a0823100000000000000000000000000000000000000000000000000000000815230600482015260009073ffffffffffffffffffffffffffffffffffffffff8416906370a082319060240160206040518083038186803b158015611a0957600080fd5b505afa158015611a1d573d6000803e3d6000fd5b505050506040513d601f19601f82011682018060405250810190611a419190615483565b6040517f70a0823100000000000000000000000000000000000000000000000000000000815230600482015290915060009073ffffffffffffffffffffffffffffffffffffffff8416906370a082319060240160206040518083038186803b158015611aac57600080fd5b505afa158015611ac0573d6000803e3d6000fd5b505050506040513d601f19601f82011682018060405250810190611ae49190615483565b90506000821180611af55750600081115b611b5b576040517f08c379a000000000000000000000000000000000000000000000000000000000815260206004820152601760248201527f52657374616b653a3a72756e3a206e6f206561726e656400000000000000000060448201526064016107ce565b611b7c73ffffffffffffffffffffffffffffffffffffffff85168684614311565b611b9d73ffffffffffffffffffffffffffffffffffffffff84168683614311565b6040805160c081018252878152602081018481528183018481526000606084018181526080850191825260a085018f815295517f219f5d1700000000000000000000000000000000000000000000000000000000815294516004860152925160248501529051604484015290516064830152516084820152905160a482015273ffffffffffffffffffffffffffffffffffffffff86169063219f5d179060c401606060405180830381600087803b158015611c5757600080fd5b505af1158015611c6b573d6000803e3d6000fd5b505050506040513d601f19601f82011682018060405250810190611c8f919061544e565b50611cb591505073ffffffffffffffffffffffffffffffffffffffff8516866000614311565b611cd773ffffffffffffffffffffffffffffffffffffffff8416866000614311565b50505050505050505050565b6040517f6b88071800000000000000000000000000000000000000000000000000000000815230600482018190529073__$0fb85c1a108326fe5c0d8f2f5a241bc0e7$__90636b8807189060240160206040518083038186803b158015611d4957600080fd5b505af4158015611d5d573d6000803e3d6000fd5b505050506040513d601f19601f82011682018060405250810190611d8191906151a7565b73ffffffffffffffffffffffffffffffffffffffff161415611f36576000611da7610423565b6040517f21f8a7210000000000000000000000000000000000000000000000000000000081527f689d13d8ed8ef1027633ba26e7121121cf427434450a529548f19bf175974395600482015273ffffffffffffffffffffffffffffffffffffffff91909116906321f8a7219060240160206040518083038186803b158015611e2e57600080fd5b505afa158015611e42573d6000803e3d6000fd5b505050506040513d601f19601f82011682018060405250810190611e6691906151a7565b60015490915073ffffffffffffffffffffffffffffffffffffffff16331480611ea457503373ffffffffffffffffffffffffffffffffffffffff8216145b611f30576040517f08c379a000000000000000000000000000000000000000000000000000000000815260206004820152602260248201527f4175746f6d6174653a2063616c6c6572206973206e6f7420746865207061757360448201527f657200000000000000000000000000000000000000000000000000000000000060648201526084016107ce565b50611fdd565b60015473ffffffffffffffffffffffffffffffffffffffff163314611fdd576040517f08c379a000000000000000000000000000000000000000000000000000000000815260206004820152602260248201527f4175746f6d6174653a2063616c6c6572206973206e6f7420746865207061757360448201527f657200000000000000000000000000000000000000000000000000000000000060648201526084016107ce565b611fe5611463565b1561204c576040517f08c379a000000000000000000000000000000000000000000000000000000000815260206004820152601060248201527f4175746f6d6174653a207061757365640000000000000000000000000000000060448201526064016107ce565b600180547fffffffffffffffffffffff00ffffffffffffffffffffffffffffffffffffffff1674010000000000000000000000000000000000000000179055565b60065461211c576040517f08c379a000000000000000000000000000000000000000000000000000000000815260206004820152602c60248201527f52657374616b653a3a746f6b656e4465706f73697465643a20746f6b656e206e60448201527f6f74206465706f7369746564000000000000000000000000000000000000000060648201526084016107ce565b6003546006546040517f6352211e0000000000000000000000000000000000000000000000000000000081523092610100900473ffffffffffffffffffffffffffffffffffffffff1691636352211e9161217d919060040190815260200190565b60206040518083038186803b15801561219557600080fd5b505afa1580156121a9573d6000803e3d6000fd5b505050506040513d601f19601f820116820180604052508101906121cd91906151a7565b73ffffffffffffffffffffffffffffffffffffffff1614612270576040517f08c379a000000000000000000000000000000000000000000000000000000000815260206004820152602760248201527f52657374616b653a3a746f6b656e4465706f73697465643a20746f6b656e207260448201527f6566756e6465640000000000000000000000000000000000000000000000000060648201526084016107ce565b816040518060400160405280601881526020017f556e6973776170563352657374616b6553746f704c6f737300000000000000008152506122b1828261403f565b50600a546122be84613996565b111561234c576040517f08c379a000000000000000000000000000000000000000000000000000000000815260206004820152602b60248201527f52657374616b653a3a72756e53746f704c6f73733a20696e76616c6964206f7560448201527f7470757420616d6f756e7400000000000000000000000000000000000000000060648201526084016107ce565b50505050565b6040517f6b88071800000000000000000000000000000000000000000000000000000000815230600482015260009073__$0fb85c1a108326fe5c0d8f2f5a241bc0e7$__90636b8807189060240160206040518083038186803b1580156123b857600080fd5b505af41580156123cc573d6000803e3d6000fd5b505050506040513d601f19601f820116820180604052508101906123f091906151a7565b90503373ffffffffffffffffffffffffffffffffffffffff82163014612493578173ffffffffffffffffffffffffffffffffffffffff16638da5cb5b6040518163ffffffff1660e01b815260040160206040518083038186803b15801561245657600080fd5b505afa15801561246a573d6000803e3d6000fd5b505050506040513d601f19601f8201168201806040525081019061248e91906151a7565b6124ad565b60015473ffffffffffffffffffffffffffffffffffffffff165b73ffffffffffffffffffffffffffffffffffffffff1614612550576040517f08c379a000000000000000000000000000000000000000000000000000000000815260206004820152603d60248201527f4175746f6d6174653a3a6368616e676550726f746f636f6c4665653a2063616c60448201527f6c6572206973206e6f74207468652070726f746f636f6c206f776e657200000060648201526084016107ce565b60028290556040518281527f3c1d43943224e49d951ce8295a5c8332b517083b3f89bed50feae2cb39caebb59060200160405180910390a15050565b6040517f6b880718000000000000000000000000000000000000000000000000000000008152306004820152600090819073__$0fb85c1a108326fe5c0d8f2f5a241bc0e7$__90636b8807189060240160206040518083038186803b1580156125f457600080fd5b505af4158015612608573d6000803e3d6000fd5b505050506040513d601f19601f8201168201806040525081019061262c91906151a7565b905073ffffffffffffffffffffffffffffffffffffffff8116301480159061265657506000600254125b156126d9578073ffffffffffffffffffffffffffffffffffffffff1663b0e21e8a6040518163ffffffff1660e01b815260040160206040518083038186803b1580156126a157600080fd5b505afa1580156126b5573d6000803e3d6000fd5b505050506040513d601f19601f8201168201806040525081019061057f9190615483565b60006126e3610423565b9050600080600254126126f8576002546127b5565b6040517fbd02d0f50000000000000000000000000000000000000000000000000000000081527fa93d95f96a5de25d7a41ddf1f5e8d45cfc929c4838163cf011dab4043a4a40d5600482015273ffffffffffffffffffffffffffffffffffffffff83169063bd02d0f59060240160206040518083038186803b15801561277d57600080fd5b505afa158015612791573d6000803e3d6000fd5b505050506040513d601f19601f820116820180604052508101906127b59190615483565b9050806127c6576000935050505090565b6040517f21f8a7210000000000000000000000000000000000000000000000000000000081527f65c90423fe7c880476633a7e36521740f87199d233dc56eb4ca6643eb76f605f600482015260009073ffffffffffffffffffffffffffffffffffffffff8416906321f8a7219060240160206040518083038186803b15801561284e57600080fd5b505afa158015612862573d6000803e3d6000fd5b505050506040513d601f19601f8201168201806040525081019061288691906151a7565b73ffffffffffffffffffffffffffffffffffffffff1663feaf968c6040518163ffffffff1660e01b815260040160a06040518083038186803b1580156128cb57600080fd5b505afa1580156128df573d6000803e3d6000fd5b505050506040513d601f19601f82011682018060405250810190612903919061552a565b50505091505060008113612973576040517f08c379a000000000000000000000000000000000000000000000000000000000815260206004820152601760248201527f4175746f6d6174653a20696e76616c696420707269636500000000000000000060448201526064016107ce565b8061298683670de0b6b3a7640000615838565b61299091906157fd565b94505050505090565b60015473ffffffffffffffffffffffffffffffffffffffff163314612a40576040517f08c379a000000000000000000000000000000000000000000000000000000000815260206004820152602160248201527f4175746f6d6174653a2063616c6c6572206973206e6f7420746865206f776e6560448201527f720000000000000000000000000000000000000000000000000000000000000060648201526084016107ce565b60065415612ad0576040517f08c379a000000000000000000000000000000000000000000000000000000000815260206004820152602960248201527f52657374616b653a3a6465706f7369743a20746f6b656e20616c72656164792060448201527f6465706f7369746564000000000000000000000000000000000000000000000060648201526084016107ce565b60068190556003546040517f99fbab880000000000000000000000000000000000000000000000000000000081526004810183905261010090910473ffffffffffffffffffffffffffffffffffffffff16906000908190819084906399fbab88906024016101806040518083038186803b158015612b4d57600080fd5b505afa158015612b61573d6000803e3d6000fd5b505050506040513d601f19601f82011682018060405250810190612b85919061557a565b505050505050509450945094505050600073ffffffffffffffffffffffffffffffffffffffff168373ffffffffffffffffffffffffffffffffffffffff161415612c51576040517f08c379a000000000000000000000000000000000000000000000000000000000815260206004820152602860248201527f52657374616b653a3a6465706f7369743a20696e76616c696420746f6b656e3060448201527f206164647265737300000000000000000000000000000000000000000000000060648201526084016107ce565b73ffffffffffffffffffffffffffffffffffffffff8216612cf4576040517f08c379a000000000000000000000000000000000000000000000000000000000815260206004820152602860248201527f52657374616b653a3a6465706f7369743a20696e76616c696420746f6b656e3160448201527f206164647265737300000000000000000000000000000000000000000000000060648201526084016107ce565b60008473ffffffffffffffffffffffffffffffffffffffff1663c45a01556040518163ffffffff1660e01b8152600401602060405180830381600087803b158015612d3e57600080fd5b505af1158015612d52573d6000803e3d6000fd5b505050506040513d601f19601f82011682018060405250810190612d7691906151a7565b6040517f1698ee8200000000000000000000000000000000000000000000000000000000815273ffffffffffffffffffffffffffffffffffffffff8681166004830152858116602483015262ffffff851660448301529190911690631698ee829060640160206040518083038186803b158015612df257600080fd5b505afa158015612e06573d6000803e3d6000fd5b505050506040513d601f19601f82011682018060405250810190612e2a91906151a7565b60055490915073ffffffffffffffffffffffffffffffffffffffff808316911614612ed7576040517f08c379a000000000000000000000000000000000000000000000000000000000815260206004820152602660248201527f52657374616b653a3a6465706f7369743a20696e76616c696420706f6f6c206160448201527f646472657373000000000000000000000000000000000000000000000000000060648201526084016107ce565b6006546040517f42842e0e000000000000000000000000000000000000000000000000000000008152336004820152306024820152604481019190915273ffffffffffffffffffffffffffffffffffffffff8616906342842e0e90606401600060405180830381600087803b158015612f4f57600080fd5b505af1158015612f63573d6000803e3d6000fd5b50506006546040517f095ea7b3000000000000000000000000000000000000000000000000000000008152336004820152602481019190915273ffffffffffffffffffffffffffffffffffffffff8816925063095ea7b39150604401600060405180830381600087803b158015612fd957600080fd5b505af1158015612fed573d6000803e3d6000fd5b505050507f4d6ce1e535dbade1c23defba91e23b8f791ce5edc0cc320257a2b364e4e384268660405161302291815260200190565b60405180910390a1505050505050565b60015473ffffffffffffffffffffffffffffffffffffffff166130a257600180547fffffffffffffffffffffffff000000000000000000000000000000000000000016321790557fffffffffffffffffffffffffffffffffffffffffffffffffffffffffffffffff600255613149565b60015473ffffffffffffffffffffffffffffffffffffffff163314613149576040517f08c379a000000000000000000000000000000000000000000000000000000000815260206004820152602160248201527f4175746f6d6174653a2063616c6c6572206973206e6f7420746865206f776e6560448201527f720000000000000000000000000000000000000000000000000000000000000060648201526084016107ce565b60035460ff16158061317a575060035473ffffffffffffffffffffffffffffffffffffffff85811661010090920416145b613206576040517f08c379a000000000000000000000000000000000000000000000000000000000815260206004820152603e60248201527f52657374616b653a3a696e69743a207265696e697469616c697a6520706f736960448201527f74696f6e206d616e61676572206164647265737320666f7262696464656e000060648201526084016107ce565b6003805473ffffffffffffffffffffffffffffffffffffffff8616610100027fffffffffffffffffffffff0000000000000000000000000000000000000000ff8216811790925560ff918216911617158061327b575060045473ffffffffffffffffffffffffffffffffffffffff8481169116145b613307576040517f08c379a000000000000000000000000000000000000000000000000000000000815260206004820152603e60248201527f52657374616b653a3a696e69743a207265696e697469616c697a65206c69717560448201527f696469747920726f75746572206164647265737320666f7262696464656e000060648201526084016107ce565b600480547fffffffffffffffffffffffff00000000000000000000000000000000000000001673ffffffffffffffffffffffffffffffffffffffff851617905560035460ff161580613373575060055473ffffffffffffffffffffffffffffffffffffffff8381169116145b6133ff576040517f08c379a000000000000000000000000000000000000000000000000000000000815260206004820152603260248201527f52657374616b653a3a696e69743a207265696e697469616c697a6520706f6f6c60448201527f206164647265737320666f7262696464656e000000000000000000000000000060648201526084016107ce565b600580547fffffffffffffffffffffffff00000000000000000000000000000000000000001673ffffffffffffffffffffffffffffffffffffffff9390931692909217909155600780547fffffffffffffffffffffffffffffffffffffffffffffffffffffffffffff00001661ffff9092169190911790555050600380547fffffffffffffffffffffffffffffffffffffffffffffffffffffffffffffff00166001179055565b60015473ffffffffffffffffffffffffffffffffffffffff16331461354d576040517f08c379a000000000000000000000000000000000000000000000000000000000815260206004820152602160248201527f4175746f6d6174653a2063616c6c6572206973206e6f7420746865206f776e6560448201527f720000000000000000000000000000000000000000000000000000000000000060648201526084016107ce565b6040517fa9059cbb00000000000000000000000000000000000000000000000000000000815273ffffffffffffffffffffffffffffffffffffffff83811660048301526024820183905284169063a9059cbb90604401602060405180830381600087803b1580156135bd57600080fd5b505af11580156135d1573d6000803e3d6000fd5b505050506040513d601f19601f8201168201806040525081019061234c9190615413565b60015473ffffffffffffffffffffffffffffffffffffffff16331461369c576040517f08c379a000000000000000000000000000000000000000000000000000000000815260206004820152602160248201527f4175746f6d6174653a2063616c6c6572206973206e6f7420746865206f776e6560448201527f720000000000000000000000000000000000000000000000000000000000000060648201526084016107ce565b6040517f6b88071800000000000000000000000000000000000000000000000000000000815230600482018190529073__$0fb85c1a108326fe5c0d8f2f5a241bc0e7$__90636b8807189060240160206040518083038186803b15801561370257600080fd5b505af4158015613716573d6000803e3d6000fd5b505050506040513d601f19601f8201168201806040525081019061373a91906151a7565b73ffffffffffffffffffffffffffffffffffffffff16146137dd576040517f08c379a000000000000000000000000000000000000000000000000000000000815260206004820152602160248201527f4175746f6d6174653a206368616e676520746865206f776e6572206661696c6560448201527f640000000000000000000000000000000000000000000000000000000000000060648201526084016107ce565b6001805473ffffffffffffffffffffffffffffffffffffffff8381167fffffffffffffffffffffffff0000000000000000000000000000000000000000831681179093556040519116919082907f8be0079c531659141344cd1fd0a4f28419497f9722a3daafe3b4186f6b6457e090600090a35050565b60015473ffffffffffffffffffffffffffffffffffffffff1633146138fb576040517f08c379a000000000000000000000000000000000000000000000000000000000815260206004820152602160248201527f4175746f6d6174653a2063616c6c6572206973206e6f7420746865206f776e6560448201527f720000000000000000000000000000000000000000000000000000000000000060648201526084016107ce565b60405180608001604052808581526020018462ffffff168152602001838152602001828152506008600082015181600001908051906020019061393f929190615075565b5060208201516001820180547fffffffffffffffffffffffffffffffffffffffffffffffffffffffffff0000001662ffffff9092169190911790556040820151600282015560609091015160039091015550505050565b6006546003546040517f99fbab880000000000000000000000000000000000000000000000000000000081526004810183905260009291610100900473ffffffffffffffffffffffffffffffffffffffff169083908190819084906399fbab88906024016101806040518083038186803b158015613a1357600080fd5b505afa158015613a27573d6000803e3d6000fd5b505050506040513d601f19601f82011682018060405250810190613a4b919061557a565b5050505097505050509450945050506000816fffffffffffffffffffffffffffffffff1611613afc576040517f08c379a000000000000000000000000000000000000000000000000000000000815260206004820152602b60248201527f52657374616b653a3a5f72756e53746f704c6f73733a20746f6b656e20616c7260448201527f6561647920636c6f73656400000000000000000000000000000000000000000060648201526084016107ce565b6040805160a0810182528681526fffffffffffffffffffffffffffffffff83811660208301908152600083850181815260608501918252608085018d815295517f0c49ccbe00000000000000000000000000000000000000000000000000000000815294516004860152915190921660248401525160448301525160648201529051608482015273ffffffffffffffffffffffffffffffffffffffff851690630c49ccbe9060a4016040805180830381600087803b158015613bbd57600080fd5b505af1158015613bd1573d6000803e3d6000fd5b505050506040513d601f19601f82011682018060405250810190613bf59190615506565b50506040805160808101825286815230602082019081526fffffffffffffffffffffffffffffffff8284018181526060840182815294517ffc6f786500000000000000000000000000000000000000000000000000000000815293516004850152915173ffffffffffffffffffffffffffffffffffffffff9081166024850152915181166044840152925190921660648201529085169063fc6f7865906084016040805180830381600087803b158015613cae57600080fd5b505af1158015613cc2573d6000803e3d6000fd5b505050506040513d601f19601f82011682018060405250810190613ce69190615506565b50506040805160028082526060820183526000926020830190803683370190505090508381600081518110613d1d57613d1d615940565b602002602001019073ffffffffffffffffffffffffffffffffffffffff16908173ffffffffffffffffffffffffffffffffffffffff16815250508281600181518110613d6b57613d6b615940565b73ffffffffffffffffffffffffffffffffffffffff9283166020918202929092010152600454613d9f9160089116836144a2565b60088054919850600091613db590600190615875565b81548110613dc557613dc5615940565b600091825260208220015473ffffffffffffffffffffffffffffffffffffffff169150613e0760015473ffffffffffffffffffffffffffffffffffffffff1690565b6040517f70a08231000000000000000000000000000000000000000000000000000000008152306004820152909150613ecb90829073ffffffffffffffffffffffffffffffffffffffff8516906370a082319060240160206040518083038186803b158015613e7557600080fd5b505afa158015613e89573d6000803e3d6000fd5b505050506040513d601f19601f82011682018060405250810190613ead9190615483565b73ffffffffffffffffffffffffffffffffffffffff85169190613f66565b6040517f42842e0e00000000000000000000000000000000000000000000000000000000815230600482015273ffffffffffffffffffffffffffffffffffffffff8281166024830152604482018a90528816906342842e0e90606401600060405180830381600087803b158015613f4157600080fd5b505af1158015613f55573d6000803e3d6000fd5b505050505050505050505050919050565b60405173ffffffffffffffffffffffffffffffffffffffff831660248201526044810182905261403a9084907fa9059cbb00000000000000000000000000000000000000000000000000000000906064015b604080517fffffffffffffffffffffffffffffffffffffffffffffffffffffffffffffffe08184030181529190526020810180517bffffffffffffffffffffffffffffffffffffffffffffffffffffffff167fffffffff0000000000000000000000000000000000000000000000000000000090931692909217909152614d7d565b505050565b6000614049611463565b156140b0576040517f08c379a000000000000000000000000000000000000000000000000000000000815260206004820152601060248201527f4175746f6d6174653a207061757365640000000000000000000000000000000060448201526064016107ce565b60006140d160015473ffffffffffffffffffffffffffffffffffffffff1690565b90503273ffffffffffffffffffffffffffffffffffffffff821614156140fb57600091505061430b565b6000614105610423565b6040517f21f8a7210000000000000000000000000000000000000000000000000000000081527fe78c16c6d839536d3155985aab4e9c6013c8c3d446054bcebc48612f359d81f5600482015290915060009073ffffffffffffffffffffffffffffffffffffffff8316906321f8a7219060240160206040518083038186803b15801561419057600080fd5b505afa1580156141a4573d6000803e3d6000fd5b505050506040513d601f19601f820116820180604052508101906141c891906151a7565b905073ffffffffffffffffffffffffffffffffffffffff811661426d576040517f08c379a000000000000000000000000000000000000000000000000000000000815260206004820152602b60248201527f4175746f6d6174653a3a5f62696c6c3a2062616c616e636520636f6e7472616360448201527f74206e6f7420666f756e6400000000000000000000000000000000000000000060648201526084016107ce565b8073ffffffffffffffffffffffffffffffffffffffff1663e578a225848861429361258c565b896040518563ffffffff1660e01b81526004016142b394939291906156f0565b602060405180830381600087803b1580156142cd57600080fd5b505af11580156142e1573d6000803e3d6000fd5b505050506040513d601f19601f820116820180604052508101906143059190615483565b93505050505b92915050565b8015806143c057506040517fdd62ed3e00000000000000000000000000000000000000000000000000000000815230600482015273ffffffffffffffffffffffffffffffffffffffff838116602483015284169063dd62ed3e9060440160206040518083038186803b15801561438657600080fd5b505afa15801561439a573d6000803e3d6000fd5b505050506040513d601f19601f820116820180604052508101906143be9190615483565b155b61444c576040517f08c379a000000000000000000000000000000000000000000000000000000000815260206004820152603660248201527f5361666545524332303a20617070726f76652066726f6d206e6f6e2d7a65726f60448201527f20746f206e6f6e2d7a65726f20616c6c6f77616e63650000000000000000000060648201526084016107ce565b60405173ffffffffffffffffffffffffffffffffffffffff831660248201526044810182905261403a9084907f095ea7b30000000000000000000000000000000000000000000000000000000090606401613fb8565b825460009060011080156144ba575060008460020154115b614546576040517f08c379a000000000000000000000000000000000000000000000000000000000815260206004820152602160248201527f53746f704c6f73733a3a72756e3a2073746f70206c6f73732064697361626c6560448201527f640000000000000000000000000000000000000000000000000000000000000060648201526084016107ce565b610100825111156145b3576040517f08c379a000000000000000000000000000000000000000000000000000000000815260206004820152601e60248201527f53746f704c6f73733a3a72756e3a20746f6f206d616e7920746f6b656e73000060448201526064016107ce565b60005b82518160ff1610156148d2576000838260ff16815181106145d9576145d9615940565b60200260200101519050856000016000815481106145f9576145f9615940565b60009182526020909120015473ffffffffffffffffffffffffffffffffffffffff8281169116141561462b57506148c0565b6040517f70a0823100000000000000000000000000000000000000000000000000000000815230600482015260009073ffffffffffffffffffffffffffffffffffffffff8316906370a082319060240160206040518083038186803b15801561469357600080fd5b505afa1580156146a7573d6000803e3d6000fd5b505050506040513d601f19601f820116820180604052508101906146cb9190615483565b9050806146d95750506148c0565b6146fa73ffffffffffffffffffffffffffffffffffffffff83168783614311565b8573ffffffffffffffffffffffffffffffffffffffff166304e45aaf6040518060e001604052808573ffffffffffffffffffffffffffffffffffffffff1681526020018a60000160008154811061475357614753615940565b600091825260208083209091015473ffffffffffffffffffffffffffffffffffffffff16835260018d015462ffffff169083015230604080840191909152606083018790526080830182905260a090920152517fffffffff0000000000000000000000000000000000000000000000000000000060e084901b1681526148489190600401600060e08201905073ffffffffffffffffffffffffffffffffffffffff80845116835280602085015116602084015262ffffff60408501511660408401528060608501511660608401526080840151608084015260a084015160a08401528060c08501511660c08401525092915050565b602060405180830381600087803b15801561486257600080fd5b505af1158015614876573d6000803e3d6000fd5b505050506040513d601f19601f8201168201806040525081019061489a9190615483565b506148bd73ffffffffffffffffffffffffffffffffffffffff8316876000614311565b50505b806148ca816158f1565b9150506145b6565b506000846000016000815481106148eb576148eb615940565b60009182526020822001546040517f70a0823100000000000000000000000000000000000000000000000000000000815230600482015273ffffffffffffffffffffffffffffffffffffffff909116925082906370a082319060240160206040518083038186803b15801561495f57600080fd5b505afa158015614973573d6000803e3d6000fd5b505050506040513d601f19601f820116820180604052508101906149979190615483565b865490935083915086906149ad90600190615875565b815481106149bd576149bd615940565b60009182526020909120015473ffffffffffffffffffffffffffffffffffffffff838116911614614d415760008111614a78576040517f08c379a000000000000000000000000000000000000000000000000000000000815260206004820152603160248201527f53746f704c6f73733a3a72756e3a20696e73756666696369656e742062616c6160448201527f6e6365206f66206261736520746f6b656e00000000000000000000000000000060648201526084016107ce565b614a9973ffffffffffffffffffffffffffffffffffffffff83168683614311565b600086600001600081548110614ab157614ab1615940565b60009182526020918290200154604051614b0f9273ffffffffffffffffffffffffffffffffffffffff909216910160609190911b7fffffffffffffffffffffffffffffffffffffffff00000000000000000000000016815260140190565b604080517fffffffffffffffffffffffffffffffffffffffffffffffffffffffffffffffe0818403018152919052905060015b8754811015614c555760018801548854839162ffffff16908a9084908110614b6c57614b6c615940565b60009182526020918290200154604051614bf5939273ffffffffffffffffffffffffffffffffffffffff909216910160e89290921b7fffffff000000000000000000000000000000000000000000000000000000000016825260601b7fffffffffffffffffffffffffffffffffffffffff00000000000000000000000016600382015260170190565b604080517fffffffffffffffffffffffffffffffffffffffffffffffffffffffffffffffe081840301815290829052614c3192916020016156c1565b60405160208183030381529060405291508080614c4d906158b8565b915050614b42565b50604080516080810182528281523060208201528082018490526003890154606082015290517fb858183f00000000000000000000000000000000000000000000000000000000815273ffffffffffffffffffffffffffffffffffffffff88169163b858183f91614cc991906004016157a1565b602060405180830381600087803b158015614ce357600080fd5b505af1158015614cf7573d6000803e3d6000fd5b505050506040513d601f19601f82011682018060405250810190614d1b9190615483565b9350614d3f73ffffffffffffffffffffffffffffffffffffffff8416876000614311565b505b6040518381527ff22ed879bd57fced893edba2366c8143c0d7c2e585eafd2521c2832159d557f19060200160405180910390a150509392505050565b6000614ddf826040518060400160405280602081526020017f5361666545524332303a206c6f772d6c6576656c2063616c6c206661696c65648152508573ffffffffffffffffffffffffffffffffffffffff16614e899092919063ffffffff16565b80519091501561403a5780806020019051810190614dfd9190615413565b61403a576040517f08c379a000000000000000000000000000000000000000000000000000000000815260206004820152602a60248201527f5361666545524332303a204552433230206f7065726174696f6e20646964206e60448201527f6f7420737563636565640000000000000000000000000000000000000000000060648201526084016107ce565b6060614e988484600085614ea2565b90505b9392505050565b606082471015614f34576040517f08c379a000000000000000000000000000000000000000000000000000000000815260206004820152602660248201527f416464726573733a20696e73756666696369656e742062616c616e636520666f60448201527f722063616c6c000000000000000000000000000000000000000000000000000060648201526084016107ce565b843b614f9c576040517f08c379a000000000000000000000000000000000000000000000000000000000815260206004820152601d60248201527f416464726573733a2063616c6c20746f206e6f6e2d636f6e747261637400000060448201526064016107ce565b6000808673ffffffffffffffffffffffffffffffffffffffff168587604051614fc591906156a5565b60006040518083038185875af1925050503d8060008114615002576040519150601f19603f3d011682016040523d82523d6000602084013e615007565b606091505b5091509150615017828286615022565b979650505050505050565b60608315615031575081614e9b565b8251156150415782518084602001fd5b816040517f08c379a00000000000000000000000000000000000000000000000000000000081526004016107ce9190615735565b8280548282559060005260206000209081019282156150ef579160200282015b828111156150ef57825182547fffffffffffffffffffffffff00000000000000000000000000000000000000001673ffffffffffffffffffffffffffffffffffffffff909116178255602090920191600190910190615095565b506150fb9291506150ff565b5090565b5b808211156150fb5760008155600101615100565b803561511f8161599e565b919050565b805161511f8161599e565b805161511f816159c3565b80516fffffffffffffffffffffffffffffffff8116811461511f57600080fd5b803561511f816159d2565b805161511f816159d2565b805169ffffffffffffffffffff8116811461511f57600080fd5b60006020828403121561519c57600080fd5b8135614e9b8161599e565b6000602082840312156151b957600080fd5b8151614e9b8161599e565b600080600080608085870312156151da57600080fd5b84356151e58161599e565b935060208501356151f58161599e565b925060408501356152058161599e565b9150606085013561ffff8116811461521c57600080fd5b939692955090935050565b60008060006060848603121561523c57600080fd5b83356152478161599e565b925060208401356152578161599e565b929592945050506040919091013590565b60008060008060006080868803121561528057600080fd5b853561528b8161599e565b9450602086013561529b8161599e565b935060408601359250606086013567ffffffffffffffff808211156152bf57600080fd5b818801915088601f8301126152d357600080fd5b8135818111156152e257600080fd5b8960208285010111156152f457600080fd5b9699959850939650602001949392505050565b6000806000806080858703121561531d57600080fd5b843567ffffffffffffffff8082111561533557600080fd5b818701915087601f83011261534957600080fd5b813560208282111561535d5761535d61596f565b8160051b6040517fffffffffffffffffffffffffffffffffffffffffffffffffffffffffffffffe0603f830116810181811086821117156153a0576153a061596f565b604052838152828101945085830182870184018d10156153bf57600080fd5b600096505b848710156153e9576153d581615114565b8652600196909601959483019483016153c4565b5098506153f9905089820161515a565b979a97995050505060408601359560600135949350505050565b60006020828403121561542557600080fd5b81518015158114614e9b57600080fd5b60006020828403121561544757600080fd5b5035919050565b60008060006060848603121561546357600080fd5b61546c8461513a565b925060208401519150604084015190509250925092565b60006020828403121561549557600080fd5b5051919050565b600080600080608085870312156154b257600080fd5b8435935060208501356154c4816159c3565b925060408501356154d4816159c3565b9396929550929360600135925050565b600080604083850312156154f757600080fd5b50508035926020909101359150565b6000806040838503121561551957600080fd5b505080516020909101519092909150565b600080600080600060a0868803121561554257600080fd5b61554b86615170565b945060208601519350604086015192506060860151915061556e60808701615170565b90509295509295909350565b6000806000806000806000806000806000806101808d8f03121561559d57600080fd5b8c516bffffffffffffffffffffffff811681146155b957600080fd5b9b506155c760208e01615124565b9a506155d560408e01615124565b99506155e360608e01615124565b98506155f160808e01615165565b97506155ff60a08e0161512f565b965061560d60c08e0161512f565b955061561b60e08e0161513a565b94506101008d015193506101208d0151925061563a6101408e0161513a565b91506156496101608e0161513a565b90509295989b509295989b509295989b565b6000815180845261567381602086016020860161588c565b601f017fffffffffffffffffffffffffffffffffffffffffffffffffffffffffffffffe0169290920160200192915050565b600082516156b781846020870161588c565b9190910192915050565b600083516156d381846020880161588c565b8351908301906156e781836020880161588c565b01949350505050565b73ffffffffffffffffffffffffffffffffffffffff8516815283602082015282604082015260806060820152600061572b608083018461565b565b9695505050505050565b602081526000614e9b602083018461565b565b8151815260208083015173ffffffffffffffffffffffffffffffffffffffff16908201526040808301516fffffffffffffffffffffffffffffffff90811691830191909152606092830151169181019190915260800190565b6020815260008251608060208401526157bd60a084018261565b565b905073ffffffffffffffffffffffffffffffffffffffff602085015116604084015260408401516060840152606084015160808401528091505092915050565b600082615833577f4e487b7100000000000000000000000000000000000000000000000000000000600052601260045260246000fd5b500490565b6000817fffffffffffffffffffffffffffffffffffffffffffffffffffffffffffffffff048311821515161561587057615870615911565b500290565b60008282101561588757615887615911565b500390565b60005b838110156158a757818101518382015260200161588f565b8381111561234c5750506000910152565b60007fffffffffffffffffffffffffffffffffffffffffffffffffffffffffffffffff8214156158ea576158ea615911565b5060010190565b600060ff821660ff81141561590857615908615911565b60010192915050565b7f4e487b7100000000000000000000000000000000000000000000000000000000600052601160045260246000fd5b7f4e487b7100000000000000000000000000000000000000000000000000000000600052603260045260246000fd5b7f4e487b7100000000000000000000000000000000000000000000000000000000600052604160045260246000fd5b73ffffffffffffffffffffffffffffffffffffffff811681146159c057600080fd5b50565b8060020b81146159c057600080fd5b62ffffff811681146159c057600080fdfea164736f6c6343000806000a",
  "linkReferences": {
    "contracts/utils/DFH/proxy/ERC1167.sol": {
      "ERC1167": [
        {
          "length": 20,
          "start": 1281
        },
        {
          "length": 20,
          "start": 1633
        },
        {
          "length": 20,
          "start": 5441
        },
        {
          "length": 20,
          "start": 7615
        },
        {
          "length": 20,
          "start": 9262
        },
        {
          "length": 20,
          "start": 9834
        },
        {
          "length": 20,
          "start": 14200
        }
      ]
    },
    "contracts/utils/UniswapV3/Rebalance.sol": {
      "Rebalance": [
        {
          "length": 20,
          "start": 5054
        }
      ]
    }
  },
  "deployedLinkReferences": {
    "contracts/utils/DFH/proxy/ERC1167.sol": {
      "ERC1167": [
        {
          "length": 20,
          "start": 1110
        },
        {
          "length": 20,
          "start": 1462
        },
        {
          "length": 20,
          "start": 5270
        },
        {
          "length": 20,
          "start": 7444
        },
        {
          "length": 20,
          "start": 9091
        },
        {
          "length": 20,
          "start": 9663
        },
        {
          "length": 20,
          "start": 14029
        }
      ]
    },
    "contracts/utils/UniswapV3/Rebalance.sol": {
      "Rebalance": [
        {
          "length": 20,
          "start": 4883
        }
      ]
    }
  }
}