{
  "_format": "hh-sol-artifact-1",
  "contractName": "Restake",
  "sourceName": "contracts/Restake.automate.sol",
  "abi": [
    {
      "inputs": [
        {
          "internalType": "address",
          "name": "_info",
          "type": "address"
        }
      ],
      "stateMutability": "nonpayable",
      "type": "constructor"
    },
    {
      "anonymous": false,
      "inputs": [
        {
          "indexed": false,
          "internalType": "uint256",
          "name": "tokenId",
          "type": "uint256"
        }
      ],
      "name": "Deposit",
      "type": "event"
    },
    {
      "anonymous": false,
      "inputs": [
        {
          "indexed": true,
          "internalType": "address",
          "name": "previousOwner",
          "type": "address"
        },
        {
          "indexed": true,
          "internalType": "address",
          "name": "newOwner",
          "type": "address"
        }
      ],
      "name": "OwnershipTransferred",
      "type": "event"
    },
    {
      "anonymous": false,
      "inputs": [
        {
          "indexed": false,
          "internalType": "int256",
          "name": "protocolFee",
          "type": "int256"
        }
      ],
      "name": "ProtocolFeeChanged",
      "type": "event"
    },
    {
      "anonymous": false,
      "inputs": [
        {
          "indexed": false,
          "internalType": "uint256",
          "name": "tokenId",
          "type": "uint256"
        }
      ],
      "name": "Refund",
      "type": "event"
    },
    {
      "inputs": [
        {
          "internalType": "int256",
          "name": "__protocolFee",
          "type": "int256"
        }
      ],
      "name": "changeProtocolFee",
      "outputs": [],
      "stateMutability": "nonpayable",
      "type": "function"
    },
    {
      "inputs": [],
      "name": "deadline",
      "outputs": [
        {
          "internalType": "uint16",
          "name": "",
          "type": "uint16"
        }
      ],
      "stateMutability": "view",
      "type": "function"
    },
    {
      "inputs": [
        {
          "internalType": "uint256",
          "name": "_tokenId",
          "type": "uint256"
        }
      ],
      "name": "deposit",
      "outputs": [],
      "stateMutability": "nonpayable",
      "type": "function"
    },
    {
      "inputs": [],
      "name": "info",
      "outputs": [
        {
          "internalType": "address",
          "name": "",
          "type": "address"
        }
      ],
      "stateMutability": "view",
      "type": "function"
    },
    {
      "inputs": [
        {
          "internalType": "address",
          "name": "_positionManager",
          "type": "address"
        },
        {
          "internalType": "address",
          "name": "_liquidityRouter",
          "type": "address"
        },
        {
          "internalType": "address",
          "name": "_pool",
          "type": "address"
        },
        {
          "internalType": "uint16",
          "name": "_deadline",
          "type": "uint16"
        }
      ],
      "name": "init",
      "outputs": [],
      "stateMutability": "nonpayable",
      "type": "function"
    },
    {
      "inputs": [],
      "name": "liquidityRouter",
      "outputs": [
        {
          "internalType": "address",
          "name": "",
          "type": "address"
        }
      ],
      "stateMutability": "view",
      "type": "function"
    },
    {
      "inputs": [
        {
          "internalType": "address",
          "name": "",
          "type": "address"
        },
        {
          "internalType": "address",
          "name": "",
          "type": "address"
        },
        {
          "internalType": "uint256",
          "name": "",
          "type": "uint256"
        },
        {
          "internalType": "bytes",
          "name": "",
          "type": "bytes"
        }
      ],
      "name": "onERC721Received",
      "outputs": [
        {
          "internalType": "bytes4",
          "name": "",
          "type": "bytes4"
        }
      ],
      "stateMutability": "pure",
      "type": "function"
    },
    {
      "inputs": [],
      "name": "owner",
      "outputs": [
        {
          "internalType": "address",
          "name": "",
          "type": "address"
        }
      ],
      "stateMutability": "view",
      "type": "function"
    },
    {
      "inputs": [],
      "name": "pause",
      "outputs": [],
      "stateMutability": "nonpayable",
      "type": "function"
    },
    {
      "inputs": [],
      "name": "paused",
      "outputs": [
        {
          "internalType": "bool",
          "name": "",
          "type": "bool"
        }
      ],
      "stateMutability": "view",
      "type": "function"
    },
    {
      "inputs": [],
      "name": "pool",
      "outputs": [
        {
          "internalType": "address",
          "name": "",
          "type": "address"
        }
      ],
      "stateMutability": "view",
      "type": "function"
    },
    {
      "inputs": [],
      "name": "positionManager",
      "outputs": [
        {
          "internalType": "address",
          "name": "",
          "type": "address"
        }
      ],
      "stateMutability": "view",
      "type": "function"
    },
    {
      "inputs": [],
      "name": "protocolFee",
      "outputs": [
        {
          "internalType": "uint256",
          "name": "",
          "type": "uint256"
        }
      ],
      "stateMutability": "view",
      "type": "function"
    },
    {
      "inputs": [],
      "name": "refund",
      "outputs": [],
      "stateMutability": "nonpayable",
      "type": "function"
    },
    {
      "inputs": [
        {
          "internalType": "uint256",
          "name": "gasFee",
          "type": "uint256"
        },
        {
          "internalType": "uint256",
          "name": "_deadline",
          "type": "uint256"
        }
      ],
      "name": "run",
      "outputs": [],
      "stateMutability": "nonpayable",
      "type": "function"
    },
    {
      "inputs": [
        {
          "internalType": "uint256",
          "name": "gasFee",
          "type": "uint256"
        },
        {
          "internalType": "uint256",
          "name": "_deadline",
          "type": "uint256"
        }
      ],
      "name": "runStopLoss",
      "outputs": [],
      "stateMutability": "nonpayable",
      "type": "function"
    },
    {
      "inputs": [
        {
          "internalType": "address[]",
          "name": "path",
          "type": "address[]"
        },
        {
          "internalType": "uint24",
          "name": "fee",
          "type": "uint24"
        },
        {
          "internalType": "uint256",
          "name": "amountOut",
          "type": "uint256"
        },
        {
          "internalType": "uint256",
          "name": "amountOutMin",
          "type": "uint256"
        }
      ],
      "name": "setStopLoss",
      "outputs": [],
      "stateMutability": "nonpayable",
      "type": "function"
    },
    {
      "inputs": [],
      "name": "stopLoss",
      "outputs": [
        {
          "internalType": "uint24",
          "name": "fee",
          "type": "uint24"
        },
        {
          "internalType": "uint256",
          "name": "amountOut",
          "type": "uint256"
        },
        {
          "internalType": "uint256",
          "name": "amountOutMin",
          "type": "uint256"
        }
      ],
      "stateMutability": "view",
      "type": "function"
    },
    {
      "inputs": [],
      "name": "tokenId",
      "outputs": [
        {
          "internalType": "uint256",
          "name": "",
          "type": "uint256"
        }
      ],
      "stateMutability": "view",
      "type": "function"
    },
    {
      "inputs": [
        {
          "internalType": "address",
          "name": "token",
          "type": "address"
        },
        {
          "internalType": "address",
          "name": "recipient",
          "type": "address"
        },
        {
          "internalType": "uint256",
          "name": "amount",
          "type": "uint256"
        }
      ],
      "name": "transfer",
      "outputs": [],
      "stateMutability": "nonpayable",
      "type": "function"
    },
    {
      "inputs": [
        {
          "internalType": "address",
          "name": "newOwner",
          "type": "address"
        }
      ],
      "name": "transferOwnership",
      "outputs": [],
      "stateMutability": "nonpayable",
      "type": "function"
    },
    {
      "inputs": [],
      "name": "unpause",
      "outputs": [],
      "stateMutability": "nonpayable",
      "type": "function"
    }
  ],
  "bytecode": "0x60806040523480156200001157600080fd5b506040516200552338038062005523833981016040819052620000349162000069565b600080546001600160a01b039092166001600160a01b031992831617905560018054909116321790556000196002556200009b565b6000602082840312156200007c57600080fd5b81516001600160a01b03811681146200009457600080fd5b9392505050565b61547880620000ab6000396000f3fe608060405234801561001057600080fd5b50600436106101825760003560e01c8063791b98bc116100d8578063b0e21e8a1161008c578063beabacc811610066578063beabacc8146103ae578063f2fde38b146103c1578063f7d5e2d8146103d457600080fd5b8063b0e21e8a14610380578063b6b55f2514610388578063bc68d6b01461039b57600080fd5b80638da5cb5b116100bd5780638da5cb5b1461033c5780639327d80a1461035a5780639742b5c31461036d57600080fd5b8063791b98bc1461030f5780638456cb591461033457600080fd5b8063370158ea1161013a578063590e1ae311610114578063590e1ae3146102dc5780635c975abb146102e45780637357f5d2146102fc57600080fd5b8063370158ea146102925780633f4ba83a1461029a578063527a1565146102a457600080fd5b806317d70f7c1161016b57806317d70f7c1461023a578063247029441461025157806329dcb0cf1461027157600080fd5b8063150b7a021461018757806316f0115b146101f5575b600080fd5b6101bf610195366004614d3d565b7f150b7a023d4804d13e8c85fb27262cb750cf6ba9f9dd3bb30d90f482ceeb4b1f95945050505050565b6040517fffffffff0000000000000000000000000000000000000000000000000000000090911681526020015b60405180910390f35b6005546102159073ffffffffffffffffffffffffffffffffffffffff1681565b60405173ffffffffffffffffffffffffffffffffffffffff90911681526020016101ec565b61024360065481565b6040519081526020016101ec565b6004546102159073ffffffffffffffffffffffffffffffffffffffff1681565b60075461027f9061ffff1681565b60405161ffff90911681526020016101ec565b6102156103e7565b6102a2610549565b005b600954600a54600b546102bb9262ffffff16919083565b6040805162ffffff90941684526020840192909252908201526060016101ec565b6102a26108e0565b6102ec610ebc565b60405190151581526020016101ec565b6102a261030a366004614f71565b611041565b60035461021590610100900473ffffffffffffffffffffffffffffffffffffffff1681565b6102a2611807565b60015473ffffffffffffffffffffffffffffffffffffffff16610215565b6102a2610368366004614f71565b611bb1565b6102a261037b366004614f0a565b612310565b61024361254a565b6102a2610396366004614f0a565b612957565b6102a26103a9366004614c99565b612ff2565b6102a26103bc366004614cfc565b613466565b6102a26103cf366004614c5f565b6135bb565b6102a26103e2366004614ddc565b61381a565b6040517f6b880718000000000000000000000000000000000000000000000000000000008152306004820152600090819073__$0fb85c1a108326fe5c0d8f2f5a241bc0e7$__90636b8807189060240160206040518083038186803b15801561044f57600080fd5b505af4158015610463573d6000803e3d6000fd5b505050506040513d601f19601f820116820180604052508101906104879190614c7c565b905073ffffffffffffffffffffffffffffffffffffffff81163014156104c557505060005473ffffffffffffffffffffffffffffffffffffffff1690565b8073ffffffffffffffffffffffffffffffffffffffff1663370158ea6040518163ffffffff1660e01b815260040160206040518083038186803b15801561050b57600080fd5b505afa15801561051f573d6000803e3d6000fd5b505050506040513d601f19601f820116820180604052508101906105439190614c7c565b91505090565b6040517f6b88071800000000000000000000000000000000000000000000000000000000815230600482018190529073__$0fb85c1a108326fe5c0d8f2f5a241bc0e7$__90636b8807189060240160206040518083038186803b1580156105af57600080fd5b505af41580156105c3573d6000803e3d6000fd5b505050506040513d601f19601f820116820180604052508101906105e79190614c7c565b73ffffffffffffffffffffffffffffffffffffffff1614156107a157600061060d6103e7565b6040517f21f8a7210000000000000000000000000000000000000000000000000000000081527f689d13d8ed8ef1027633ba26e7121121cf427434450a529548f19bf175974395600482015273ffffffffffffffffffffffffffffffffffffffff91909116906321f8a7219060240160206040518083038186803b15801561069457600080fd5b505afa1580156106a8573d6000803e3d6000fd5b505050506040513d601f19601f820116820180604052508101906106cc9190614c7c565b60015490915073ffffffffffffffffffffffffffffffffffffffff1633148061070a57503373ffffffffffffffffffffffffffffffffffffffff8216145b61079b576040517f08c379a000000000000000000000000000000000000000000000000000000000815260206004820152602260248201527f4175746f6d6174653a2063616c6c6572206973206e6f7420746865207061757360448201527f657200000000000000000000000000000000000000000000000000000000000060648201526084015b60405180910390fd5b50610848565b60015473ffffffffffffffffffffffffffffffffffffffff163314610848576040517f08c379a000000000000000000000000000000000000000000000000000000000815260206004820152602260248201527f4175746f6d6174653a2063616c6c6572206973206e6f7420746865207061757360448201527f65720000000000000000000000000000000000000000000000000000000000006064820152608401610792565b610850610ebc565b6108b6576040517f08c379a000000000000000000000000000000000000000000000000000000000815260206004820152601460248201527f4175746f6d6174653a206e6f74207061757365640000000000000000000000006044820152606401610792565b600180547fffffffffffffffffffffff00ffffffffffffffffffffffffffffffffffffffff169055565b60015473ffffffffffffffffffffffffffffffffffffffff163314610987576040517f08c379a000000000000000000000000000000000000000000000000000000000815260206004820152602160248201527f4175746f6d6174653a2063616c6c6572206973206e6f7420746865206f776e6560448201527f72000000000000000000000000000000000000000000000000000000000000006064820152608401610792565b60065480610a17576040517f08c379a000000000000000000000000000000000000000000000000000000000815260206004820152602760248201527f52657374616b653a3a726566756e643a20746f6b656e20616c7265616479207260448201527f6566756e646564000000000000000000000000000000000000000000000000006064820152608401610792565b6000610a3860015473ffffffffffffffffffffffffffffffffffffffff1690565b6003546040517f42842e0e00000000000000000000000000000000000000000000000000000000815230600482015273ffffffffffffffffffffffffffffffffffffffff8084166024830152604482018690529293506101009091049091169081906342842e0e90606401600060405180830381600087803b158015610abd57600080fd5b505af1158015610ad1573d6000803e3d6000fd5b50506040517f99fbab88000000000000000000000000000000000000000000000000000000008152600481018690526000925082915073ffffffffffffffffffffffffffffffffffffffff8416906399fbab88906024016101806040518083038186803b158015610b4157600080fd5b505afa158015610b55573d6000803e3d6000fd5b505050506040513d601f19601f82011682018060405250810190610b799190615007565b5050505050505050935093505050600073ffffffffffffffffffffffffffffffffffffffff168273ffffffffffffffffffffffffffffffffffffffff161415610c44576040517f08c379a000000000000000000000000000000000000000000000000000000000815260206004820152602760248201527f52657374616b653a3a726566756e643a20696e76616c696420746f6b656e302060448201527f61646472657373000000000000000000000000000000000000000000000000006064820152608401610792565b73ffffffffffffffffffffffffffffffffffffffff8116610ce7576040517f08c379a000000000000000000000000000000000000000000000000000000000815260206004820152602760248201527f52657374616b653a3a726566756e643a20696e76616c696420746f6b656e312060448201527f61646472657373000000000000000000000000000000000000000000000000006064820152608401610792565b6040517f70a0823100000000000000000000000000000000000000000000000000000000815230600482015260009073ffffffffffffffffffffffffffffffffffffffff8416906370a082319060240160206040518083038186803b158015610d4f57600080fd5b505afa158015610d63573d6000803e3d6000fd5b505050506040513d601f19601f82011682018060405250810190610d879190614f58565b6040517f70a0823100000000000000000000000000000000000000000000000000000000815230600482015290915060009073ffffffffffffffffffffffffffffffffffffffff8416906370a082319060240160206040518083038186803b158015610df257600080fd5b505afa158015610e06573d6000803e3d6000fd5b505050506040513d601f19601f82011682018060405250810190610e2a9190614f58565b90508115610e5357610e5373ffffffffffffffffffffffffffffffffffffffff8516878461395c565b8015610e7a57610e7a73ffffffffffffffffffffffffffffffffffffffff8416878361395c565b60006006556040518781527f2e1897b0591d764356194f7a795238a87c1987c7a877568e50d829d547c92b97906020015b60405180910390a150505050505050565b6040517f6b880718000000000000000000000000000000000000000000000000000000008152306004820152600090819073__$0fb85c1a108326fe5c0d8f2f5a241bc0e7$__90636b8807189060240160206040518083038186803b158015610f2457600080fd5b505af4158015610f38573d6000803e3d6000fd5b505050506040513d601f19601f82011682018060405250810190610f5c9190614c7c565b905073ffffffffffffffffffffffffffffffffffffffff8116301415610f9f57505060015474010000000000000000000000000000000000000000900460ff1690565b60015474010000000000000000000000000000000000000000900460ff168061054357508073ffffffffffffffffffffffffffffffffffffffff16635c975abb6040518163ffffffff1660e01b815260040160206040518083038186803b15801561100957600080fd5b505afa15801561101d573d6000803e3d6000fd5b505050506040513d601f19601f820116820180604052508101906105439190614ee8565b6006546110d0576040517f08c379a000000000000000000000000000000000000000000000000000000000815260206004820152602c60248201527f52657374616b653a3a746f6b656e4465706f73697465643a20746f6b656e206e60448201527f6f74206465706f736974656400000000000000000000000000000000000000006064820152608401610792565b6003546006546040517f6352211e0000000000000000000000000000000000000000000000000000000081523092610100900473ffffffffffffffffffffffffffffffffffffffff1691636352211e91611131919060040190815260200190565b60206040518083038186803b15801561114957600080fd5b505afa15801561115d573d6000803e3d6000fd5b505050506040513d601f19601f820116820180604052508101906111819190614c7c565b73ffffffffffffffffffffffffffffffffffffffff1614611224576040517f08c379a000000000000000000000000000000000000000000000000000000000815260206004820152602760248201527f52657374616b653a3a746f6b656e4465706f73697465643a20746f6b656e207260448201527f6566756e646564000000000000000000000000000000000000000000000000006064820152608401610792565b816040518060400160405280601081526020017f556e6973776170563352657374616b65000000000000000000000000000000008152506112658282613a35565b506006546003546040517f99fbab880000000000000000000000000000000000000000000000000000000081526004810183905261010090910473ffffffffffffffffffffffffffffffffffffffff1690600090819083906399fbab88906024016101806040518083038186803b1580156112df57600080fd5b505afa1580156112f3573d6000803e3d6000fd5b505050506040513d601f19601f820116820180604052508101906113179190615007565b5050604080516080810182528f81523060208201526fffffffffffffffffffffffffffffffff818301819052606082015290517ffc6f7865000000000000000000000000000000000000000000000000000000008152989c50969a505073ffffffffffffffffffffffffffffffffffffffff8c16985063fc6f786597506113a79660040194506151d59350505050565b6040805180830381600087803b1580156113c057600080fd5b505af11580156113d4573d6000803e3d6000fd5b505050506040513d601f19601f820116820180604052508101906113f89190614f93565b50506040517f70a0823100000000000000000000000000000000000000000000000000000000815230600482015260009073ffffffffffffffffffffffffffffffffffffffff8416906370a082319060240160206040518083038186803b15801561146257600080fd5b505afa158015611476573d6000803e3d6000fd5b505050506040513d601f19601f8201168201806040525081019061149a9190614f58565b6040517f70a0823100000000000000000000000000000000000000000000000000000000815230600482015290915060009073ffffffffffffffffffffffffffffffffffffffff8416906370a082319060240160206040518083038186803b15801561150557600080fd5b505afa158015611519573d6000803e3d6000fd5b505050506040513d601f19601f8201168201806040525081019061153d9190614f58565b9050600082118061154e5750600081115b6115b4576040517f08c379a000000000000000000000000000000000000000000000000000000000815260206004820152601760248201527f52657374616b653a3a72756e3a206e6f206561726e65640000000000000000006044820152606401610792565b6040517f095ea7b300000000000000000000000000000000000000000000000000000000815273ffffffffffffffffffffffffffffffffffffffff86811660048301526024820184905285169063095ea7b390604401602060405180830381600087803b15801561162457600080fd5b505af1158015611638573d6000803e3d6000fd5b505050506040513d601f19601f8201168201806040525081019061165c9190614ee8565b506040517f095ea7b300000000000000000000000000000000000000000000000000000000815273ffffffffffffffffffffffffffffffffffffffff86811660048301526024820183905284169063095ea7b390604401602060405180830381600087803b1580156116cd57600080fd5b505af11580156116e1573d6000803e3d6000fd5b505050506040513d601f19601f820116820180604052508101906117059190614ee8565b506040805160c081018252878152602081018481528183018481526000606084018181526080850191825260a085018f815295517f219f5d1700000000000000000000000000000000000000000000000000000000815294516004860152925160248501529051604484015290516064830152516084820152905160a482015273ffffffffffffffffffffffffffffffffffffffff86169063219f5d179060c401606060405180830381600087803b1580156117c057600080fd5b505af11580156117d4573d6000803e3d6000fd5b505050506040513d601f19601f820116820180604052508101906117f89190614f23565b50505050505050505050505050565b6040517f6b88071800000000000000000000000000000000000000000000000000000000815230600482018190529073__$0fb85c1a108326fe5c0d8f2f5a241bc0e7$__90636b8807189060240160206040518083038186803b15801561186d57600080fd5b505af4158015611881573d6000803e3d6000fd5b505050506040513d601f19601f820116820180604052508101906118a59190614c7c565b73ffffffffffffffffffffffffffffffffffffffff161415611a5a5760006118cb6103e7565b6040517f21f8a7210000000000000000000000000000000000000000000000000000000081527f689d13d8ed8ef1027633ba26e7121121cf427434450a529548f19bf175974395600482015273ffffffffffffffffffffffffffffffffffffffff91909116906321f8a7219060240160206040518083038186803b15801561195257600080fd5b505afa158015611966573d6000803e3d6000fd5b505050506040513d601f19601f8201168201806040525081019061198a9190614c7c565b60015490915073ffffffffffffffffffffffffffffffffffffffff163314806119c857503373ffffffffffffffffffffffffffffffffffffffff8216145b611a54576040517f08c379a000000000000000000000000000000000000000000000000000000000815260206004820152602260248201527f4175746f6d6174653a2063616c6c6572206973206e6f7420746865207061757360448201527f65720000000000000000000000000000000000000000000000000000000000006064820152608401610792565b50611b01565b60015473ffffffffffffffffffffffffffffffffffffffff163314611b01576040517f08c379a000000000000000000000000000000000000000000000000000000000815260206004820152602260248201527f4175746f6d6174653a2063616c6c6572206973206e6f7420746865207061757360448201527f65720000000000000000000000000000000000000000000000000000000000006064820152608401610792565b611b09610ebc565b15611b70576040517f08c379a000000000000000000000000000000000000000000000000000000000815260206004820152601060248201527f4175746f6d6174653a20706175736564000000000000000000000000000000006044820152606401610792565b600180547fffffffffffffffffffffff00ffffffffffffffffffffffffffffffffffffffff1674010000000000000000000000000000000000000000179055565b600654611c40576040517f08c379a000000000000000000000000000000000000000000000000000000000815260206004820152602c60248201527f52657374616b653a3a746f6b656e4465706f73697465643a20746f6b656e206e60448201527f6f74206465706f736974656400000000000000000000000000000000000000006064820152608401610792565b6003546006546040517f6352211e0000000000000000000000000000000000000000000000000000000081523092610100900473ffffffffffffffffffffffffffffffffffffffff1691636352211e91611ca1919060040190815260200190565b60206040518083038186803b158015611cb957600080fd5b505afa158015611ccd573d6000803e3d6000fd5b505050506040513d601f19601f82011682018060405250810190611cf19190614c7c565b73ffffffffffffffffffffffffffffffffffffffff1614611d94576040517f08c379a000000000000000000000000000000000000000000000000000000000815260206004820152602760248201527f52657374616b653a3a746f6b656e4465706f73697465643a20746f6b656e207260448201527f6566756e646564000000000000000000000000000000000000000000000000006064820152608401610792565b816040518060400160405280601881526020017f556e6973776170563352657374616b6553746f704c6f73730000000000000000815250611dd58282613a35565b506006546003546040517f99fbab880000000000000000000000000000000000000000000000000000000081526004810183905261010090910473ffffffffffffffffffffffffffffffffffffffff16906000908190819084906399fbab88906024016101806040518083038186803b158015611e5157600080fd5b505afa158015611e65573d6000803e3d6000fd5b505050506040513d601f19601f82011682018060405250810190611e899190615007565b5050505097505050509450945050506000816fffffffffffffffffffffffffffffffff1611611f3a576040517f08c379a000000000000000000000000000000000000000000000000000000000815260206004820152602a60248201527f52657374616b653a3a72756e53746f704c6f73733a20746f6b656e20616c726560448201527f61647920636c6f736564000000000000000000000000000000000000000000006064820152608401610792565b6040805160a0810182528681526fffffffffffffffffffffffffffffffff83811660208301908152600083850181815260608501918252608085018e815295517f0c49ccbe00000000000000000000000000000000000000000000000000000000815294516004860152915190921660248401525160448301525160648201529051608482015273ffffffffffffffffffffffffffffffffffffffff851690630c49ccbe9060a4016040805180830381600087803b158015611ffb57600080fd5b505af115801561200f573d6000803e3d6000fd5b505050506040513d601f19601f820116820180604052508101906120339190614f93565b50506040805160808101825286815230602082019081526fffffffffffffffffffffffffffffffff8284018181526060840182815294517ffc6f786500000000000000000000000000000000000000000000000000000000815293516004850152915173ffffffffffffffffffffffffffffffffffffffff9081166024850152915181166044840152925190921660648201529085169063fc6f7865906084016040805180830381600087803b1580156120ec57600080fd5b505af1158015612100573d6000803e3d6000fd5b505050506040513d601f19601f820116820180604052508101906121249190614f93565b5050604080516002808252606082018352600092602083019080368337019050509050838160008151811061215b5761215b6153d7565b602002602001019073ffffffffffffffffffffffffffffffffffffffff16908173ffffffffffffffffffffffffffffffffffffffff168152505082816001815181106121a9576121a96153d7565b73ffffffffffffffffffffffffffffffffffffffff92831660209182029290920101526004546121de9160089116838c613d07565b60088054600091906121f29060019061530c565b81548110612202576122026153d7565b60009182526020909120015473ffffffffffffffffffffffffffffffffffffffff16905061230361224860015473ffffffffffffffffffffffffffffffffffffffff1690565b6040517f70a0823100000000000000000000000000000000000000000000000000000000815230600482015273ffffffffffffffffffffffffffffffffffffffff8416906370a082319060240160206040518083038186803b1580156122ad57600080fd5b505afa1580156122c1573d6000803e3d6000fd5b505050506040513d601f19601f820116820180604052508101906122e59190614f58565b73ffffffffffffffffffffffffffffffffffffffff8416919061395c565b5050505050505050505050565b6040517f6b88071800000000000000000000000000000000000000000000000000000000815230600482015260009073__$0fb85c1a108326fe5c0d8f2f5a241bc0e7$__90636b8807189060240160206040518083038186803b15801561237657600080fd5b505af415801561238a573d6000803e3d6000fd5b505050506040513d601f19601f820116820180604052508101906123ae9190614c7c565b90503373ffffffffffffffffffffffffffffffffffffffff82163014612451578173ffffffffffffffffffffffffffffffffffffffff16638da5cb5b6040518163ffffffff1660e01b815260040160206040518083038186803b15801561241457600080fd5b505afa158015612428573d6000803e3d6000fd5b505050506040513d601f19601f8201168201806040525081019061244c9190614c7c565b61246b565b60015473ffffffffffffffffffffffffffffffffffffffff165b73ffffffffffffffffffffffffffffffffffffffff161461250e576040517f08c379a000000000000000000000000000000000000000000000000000000000815260206004820152603d60248201527f4175746f6d6174653a3a6368616e676550726f746f636f6c4665653a2063616c60448201527f6c6572206973206e6f74207468652070726f746f636f6c206f776e65720000006064820152608401610792565b60028290556040518281527f3c1d43943224e49d951ce8295a5c8332b517083b3f89bed50feae2cb39caebb59060200160405180910390a15050565b6040517f6b880718000000000000000000000000000000000000000000000000000000008152306004820152600090819073__$0fb85c1a108326fe5c0d8f2f5a241bc0e7$__90636b8807189060240160206040518083038186803b1580156125b257600080fd5b505af41580156125c6573d6000803e3d6000fd5b505050506040513d601f19601f820116820180604052508101906125ea9190614c7c565b905073ffffffffffffffffffffffffffffffffffffffff8116301480159061261457506000600254125b15612697578073ffffffffffffffffffffffffffffffffffffffff1663b0e21e8a6040518163ffffffff1660e01b815260040160206040518083038186803b15801561265f57600080fd5b505afa158015612673573d6000803e3d6000fd5b505050506040513d601f19601f820116820180604052508101906105439190614f58565b60006126a16103e7565b9050600080600254126126b657600254612773565b6040517fbd02d0f50000000000000000000000000000000000000000000000000000000081527fa93d95f96a5de25d7a41ddf1f5e8d45cfc929c4838163cf011dab4043a4a40d5600482015273ffffffffffffffffffffffffffffffffffffffff83169063bd02d0f59060240160206040518083038186803b15801561273b57600080fd5b505afa15801561274f573d6000803e3d6000fd5b505050506040513d601f19601f820116820180604052508101906127739190614f58565b905080612784576000935050505090565b6040517f21f8a7210000000000000000000000000000000000000000000000000000000081527f65c90423fe7c880476633a7e36521740f87199d233dc56eb4ca6643eb76f605f600482015260009073ffffffffffffffffffffffffffffffffffffffff8416906321f8a7219060240160206040518083038186803b15801561280c57600080fd5b505afa158015612820573d6000803e3d6000fd5b505050506040513d601f19601f820116820180604052508101906128449190614c7c565b73ffffffffffffffffffffffffffffffffffffffff1663feaf968c6040518163ffffffff1660e01b815260040160a06040518083038186803b15801561288957600080fd5b505afa15801561289d573d6000803e3d6000fd5b505050506040513d601f19601f820116820180604052508101906128c19190614fb7565b50505091505060008113612931576040517f08c379a000000000000000000000000000000000000000000000000000000000815260206004820152601760248201527f4175746f6d6174653a20696e76616c69642070726963650000000000000000006044820152606401610792565b8061294483670de0b6b3a76400006152cf565b61294e9190615294565b94505050505090565b60015473ffffffffffffffffffffffffffffffffffffffff1633146129fe576040517f08c379a000000000000000000000000000000000000000000000000000000000815260206004820152602160248201527f4175746f6d6174653a2063616c6c6572206973206e6f7420746865206f776e6560448201527f72000000000000000000000000000000000000000000000000000000000000006064820152608401610792565b60065415612a8e576040517f08c379a000000000000000000000000000000000000000000000000000000000815260206004820152602960248201527f52657374616b653a3a6465706f7369743a20746f6b656e20616c72656164792060448201527f6465706f736974656400000000000000000000000000000000000000000000006064820152608401610792565b60068190556003546040517f99fbab880000000000000000000000000000000000000000000000000000000081526004810183905261010090910473ffffffffffffffffffffffffffffffffffffffff16906000908190819084906399fbab88906024016101806040518083038186803b158015612b0b57600080fd5b505afa158015612b1f573d6000803e3d6000fd5b505050506040513d601f19601f82011682018060405250810190612b439190615007565b505050505050509450945094505050600073ffffffffffffffffffffffffffffffffffffffff168373ffffffffffffffffffffffffffffffffffffffff161415612c0f576040517f08c379a000000000000000000000000000000000000000000000000000000000815260206004820152602860248201527f52657374616b653a3a6465706f7369743a20696e76616c696420746f6b656e3060448201527f20616464726573730000000000000000000000000000000000000000000000006064820152608401610792565b73ffffffffffffffffffffffffffffffffffffffff8216612cb2576040517f08c379a000000000000000000000000000000000000000000000000000000000815260206004820152602860248201527f52657374616b653a3a6465706f7369743a20696e76616c696420746f6b656e3160448201527f20616464726573730000000000000000000000000000000000000000000000006064820152608401610792565b60008473ffffffffffffffffffffffffffffffffffffffff1663c45a01556040518163ffffffff1660e01b8152600401602060405180830381600087803b158015612cfc57600080fd5b505af1158015612d10573d6000803e3d6000fd5b505050506040513d601f19601f82011682018060405250810190612d349190614c7c565b6040517f1698ee8200000000000000000000000000000000000000000000000000000000815273ffffffffffffffffffffffffffffffffffffffff8681166004830152858116602483015262ffffff851660448301529190911690631698ee8290606401602060405180830381600087803b158015612db257600080fd5b505af1158015612dc6573d6000803e3d6000fd5b505050506040513d601f19601f82011682018060405250810190612dea9190614c7c565b60055490915073ffffffffffffffffffffffffffffffffffffffff808316911614612e97576040517f08c379a000000000000000000000000000000000000000000000000000000000815260206004820152602660248201527f52657374616b653a3a6465706f7369743a20696e76616c696420706f6f6c206160448201527f64647265737300000000000000000000000000000000000000000000000000006064820152608401610792565b6006546040517f42842e0e000000000000000000000000000000000000000000000000000000008152336004820152306024820152604481019190915273ffffffffffffffffffffffffffffffffffffffff8616906342842e0e90606401600060405180830381600087803b158015612f0f57600080fd5b505af1158015612f23573d6000803e3d6000fd5b50506006546040517f095ea7b3000000000000000000000000000000000000000000000000000000008152336004820152602481019190915273ffffffffffffffffffffffffffffffffffffffff8816925063095ea7b39150604401600060405180830381600087803b158015612f9957600080fd5b505af1158015612fad573d6000803e3d6000fd5b505050507f4d6ce1e535dbade1c23defba91e23b8f791ce5edc0cc320257a2b364e4e3842686604051612fe291815260200190565b60405180910390a1505050505050565b60015473ffffffffffffffffffffffffffffffffffffffff1661306257600180547fffffffffffffffffffffffff000000000000000000000000000000000000000016321790557fffffffffffffffffffffffffffffffffffffffffffffffffffffffffffffffff600255613109565b60015473ffffffffffffffffffffffffffffffffffffffff163314613109576040517f08c379a000000000000000000000000000000000000000000000000000000000815260206004820152602160248201527f4175746f6d6174653a2063616c6c6572206973206e6f7420746865206f776e6560448201527f72000000000000000000000000000000000000000000000000000000000000006064820152608401610792565b60035460ff16158061313a575060035473ffffffffffffffffffffffffffffffffffffffff85811661010090920416145b6131c6576040517f08c379a000000000000000000000000000000000000000000000000000000000815260206004820152603e60248201527f52657374616b653a3a696e69743a207265696e697469616c697a6520706f736960448201527f74696f6e206d616e61676572206164647265737320666f7262696464656e00006064820152608401610792565b6003805473ffffffffffffffffffffffffffffffffffffffff8616610100027fffffffffffffffffffffff0000000000000000000000000000000000000000ff8216811790925560ff918216911617158061323b575060045473ffffffffffffffffffffffffffffffffffffffff8481169116145b6132c7576040517f08c379a000000000000000000000000000000000000000000000000000000000815260206004820152603e60248201527f52657374616b653a3a696e69743a207265696e697469616c697a65206c69717560448201527f696469747920726f75746572206164647265737320666f7262696464656e00006064820152608401610792565b600480547fffffffffffffffffffffffff00000000000000000000000000000000000000001673ffffffffffffffffffffffffffffffffffffffff851617905560035460ff161580613333575060055473ffffffffffffffffffffffffffffffffffffffff8381169116145b6133bf576040517f08c379a000000000000000000000000000000000000000000000000000000000815260206004820152603260248201527f52657374616b653a3a696e69743a207265696e697469616c697a6520706f6f6c60448201527f206164647265737320666f7262696464656e00000000000000000000000000006064820152608401610792565b600580547fffffffffffffffffffffffff00000000000000000000000000000000000000001673ffffffffffffffffffffffffffffffffffffffff9390931692909217909155600780547fffffffffffffffffffffffffffffffffffffffffffffffffffffffffffff00001661ffff9092169190911790555050600380547fffffffffffffffffffffffffffffffffffffffffffffffffffffffffffffff00166001179055565b60015473ffffffffffffffffffffffffffffffffffffffff16331461350d576040517f08c379a000000000000000000000000000000000000000000000000000000000815260206004820152602160248201527f4175746f6d6174653a2063616c6c6572206973206e6f7420746865206f776e6560448201527f72000000000000000000000000000000000000000000000000000000000000006064820152608401610792565b6040517fa9059cbb00000000000000000000000000000000000000000000000000000000815273ffffffffffffffffffffffffffffffffffffffff83811660048301526024820183905284169063a9059cbb90604401602060405180830381600087803b15801561357d57600080fd5b505af1158015613591573d6000803e3d6000fd5b505050506040513d601f19601f820116820180604052508101906135b59190614ee8565b50505050565b60015473ffffffffffffffffffffffffffffffffffffffff163314613662576040517f08c379a000000000000000000000000000000000000000000000000000000000815260206004820152602160248201527f4175746f6d6174653a2063616c6c6572206973206e6f7420746865206f776e6560448201527f72000000000000000000000000000000000000000000000000000000000000006064820152608401610792565b6040517f6b88071800000000000000000000000000000000000000000000000000000000815230600482018190529073__$0fb85c1a108326fe5c0d8f2f5a241bc0e7$__90636b8807189060240160206040518083038186803b1580156136c857600080fd5b505af41580156136dc573d6000803e3d6000fd5b505050506040513d601f19601f820116820180604052508101906137009190614c7c565b73ffffffffffffffffffffffffffffffffffffffff16146137a3576040517f08c379a000000000000000000000000000000000000000000000000000000000815260206004820152602160248201527f4175746f6d6174653a206368616e676520746865206f776e6572206661696c6560448201527f64000000000000000000000000000000000000000000000000000000000000006064820152608401610792565b6001805473ffffffffffffffffffffffffffffffffffffffff8381167fffffffffffffffffffffffff0000000000000000000000000000000000000000831681179093556040519116919082907f8be0079c531659141344cd1fd0a4f28419497f9722a3daafe3b4186f6b6457e090600090a35050565b60015473ffffffffffffffffffffffffffffffffffffffff1633146138c1576040517f08c379a000000000000000000000000000000000000000000000000000000000815260206004820152602160248201527f4175746f6d6174653a2063616c6c6572206973206e6f7420746865206f776e6560448201527f72000000000000000000000000000000000000000000000000000000000000006064820152608401610792565b60405180608001604052808581526020018462ffffff1681526020018381526020018281525060086000820151816000019080519060200190613905929190614b43565b5060208201516001820180547fffffffffffffffffffffffffffffffffffffffffffffffffffffffffff0000001662ffffff9092169190911790556040820151600282015560609091015160039091015550505050565b60405173ffffffffffffffffffffffffffffffffffffffff8316602482015260448101829052613a309084907fa9059cbb00000000000000000000000000000000000000000000000000000000906064015b604080517fffffffffffffffffffffffffffffffffffffffffffffffffffffffffffffffe08184030181529190526020810180517bffffffffffffffffffffffffffffffffffffffffffffffffffffffff167fffffffff00000000000000000000000000000000000000000000000000000000909316929092179091526146ba565b505050565b6000613a3f610ebc565b15613aa6576040517f08c379a000000000000000000000000000000000000000000000000000000000815260206004820152601060248201527f4175746f6d6174653a20706175736564000000000000000000000000000000006044820152606401610792565b6000613ac760015473ffffffffffffffffffffffffffffffffffffffff1690565b90503273ffffffffffffffffffffffffffffffffffffffff82161415613af1576000915050613d01565b6000613afb6103e7565b6040517f21f8a7210000000000000000000000000000000000000000000000000000000081527fe78c16c6d839536d3155985aab4e9c6013c8c3d446054bcebc48612f359d81f5600482015290915060009073ffffffffffffffffffffffffffffffffffffffff8316906321f8a7219060240160206040518083038186803b158015613b8657600080fd5b505afa158015613b9a573d6000803e3d6000fd5b505050506040513d601f19601f82011682018060405250810190613bbe9190614c7c565b905073ffffffffffffffffffffffffffffffffffffffff8116613c63576040517f08c379a000000000000000000000000000000000000000000000000000000000815260206004820152602b60248201527f4175746f6d6174653a3a5f62696c6c3a2062616c616e636520636f6e7472616360448201527f74206e6f7420666f756e640000000000000000000000000000000000000000006064820152608401610792565b8073ffffffffffffffffffffffffffffffffffffffff1663e578a2258488613c8961254a565b896040518563ffffffff1660e01b8152600401613ca9949392919061517d565b602060405180830381600087803b158015613cc357600080fd5b505af1158015613cd7573d6000803e3d6000fd5b505050506040513d601f19601f82011682018060405250810190613cfb9190614f58565b93505050505b92915050565b83546001108015613d1c575060008460020154115b613da8576040517f08c379a000000000000000000000000000000000000000000000000000000000815260206004820152602160248201527f53746f704c6f73733a3a72756e3a2073746f70206c6f73732064697361626c6560448201527f64000000000000000000000000000000000000000000000000000000000000006064820152608401610792565b61010082511115613e15576040517f08c379a000000000000000000000000000000000000000000000000000000000815260206004820152601e60248201527f53746f704c6f73733a3a72756e3a20746f6f206d616e7920746f6b656e7300006044820152606401610792565b60005b82518160ff161015614109576000838260ff1681518110613e3b57613e3b6153d7565b6020026020010151905085600001600081548110613e5b57613e5b6153d7565b60009182526020909120015473ffffffffffffffffffffffffffffffffffffffff82811691161415613e8d57506140f7565b6040517f70a0823100000000000000000000000000000000000000000000000000000000815230600482015260009073ffffffffffffffffffffffffffffffffffffffff8316906370a082319060240160206040518083038186803b158015613ef557600080fd5b505afa158015613f09573d6000803e3d6000fd5b505050506040513d601f19601f82011682018060405250810190613f2d9190614f58565b905080613f3b5750506140f7565b613f5c73ffffffffffffffffffffffffffffffffffffffff831687836147c6565b8573ffffffffffffffffffffffffffffffffffffffff1663c04b8d596040518060a00160405280858b60010160009054906101000a900462ffffff168c600001600081548110613fae57613fae6153d7565b6000918252602091829020015460405161404494939273ffffffffffffffffffffffffffffffffffffffff9092169101606093841b7fffffffffffffffffffffffffffffffffffffffff000000000000000000000000908116825260e89390931b7fffffff0000000000000000000000000000000000000000000000000000000000166014820152921b166017820152602b0190565b60405160208183030381529060405281526020013073ffffffffffffffffffffffffffffffffffffffff16815260200187815260200184815260200160008152506040518263ffffffff1660e01b81526004016140a1919061522e565b602060405180830381600087803b1580156140bb57600080fd5b505af11580156140cf573d6000803e3d6000fd5b505050506040513d601f19601f820116820180604052508101906140f39190614f58565b5050505b8061410181615388565b915050613e18565b50600084600001600081548110614122576141226153d7565b60009182526020822001546040517f70a0823100000000000000000000000000000000000000000000000000000000815230600482015273ffffffffffffffffffffffffffffffffffffffff909116925082906370a082319060240160206040518083038186803b15801561419657600080fd5b505afa1580156141aa573d6000803e3d6000fd5b505050506040513d601f19601f820116820180604052508101906141ce9190614f58565b865490915060009087906141e49060019061530c565b815481106141f4576141f46153d7565b60009182526020909120015473ffffffffffffffffffffffffffffffffffffffff8481169116146145f457600082116142af576040517f08c379a000000000000000000000000000000000000000000000000000000000815260206004820152603160248201527f53746f704c6f73733a3a72756e3a20696e73756666696369656e742062616c6160448201527f6e6365206f66206261736520746f6b656e0000000000000000000000000000006064820152608401610792565b6142d073ffffffffffffffffffffffffffffffffffffffff841687846147c6565b6000876000016000815481106142e8576142e86153d7565b600091825260209182902001546040516143469273ffffffffffffffffffffffffffffffffffffffff909216910160609190911b7fffffffffffffffffffffffffffffffffffffffff00000000000000000000000016815260140190565b604080517fffffffffffffffffffffffffffffffffffffffffffffffffffffffffffffffe0818403018152919052905060015b885481101561448c5760018901548954839162ffffff16908b90849081106143a3576143a36153d7565b6000918252602091829020015460405161442c939273ffffffffffffffffffffffffffffffffffffffff909216910160e89290921b7fffffff000000000000000000000000000000000000000000000000000000000016825260601b7fffffffffffffffffffffffffffffffffffffffff00000000000000000000000016600382015260170190565b604080517fffffffffffffffffffffffffffffffffffffffffffffffffffffffffffffffe081840301815290829052614468929160200161514e565b604051602081830303815290604052915080806144849061534f565b915050614379565b506040805160a0810182528281523060208201528082018790526060810185905260038a0154608082015290517fc04b8d5900000000000000000000000000000000000000000000000000000000815273ffffffffffffffffffffffffffffffffffffffff89169163c04b8d5991614507919060040161522e565b602060405180830381600087803b15801561452157600080fd5b505af1158015614535573d6000803e3d6000fd5b505050506040513d601f19601f820116820180604052508101906145599190614f58565b915087600201548211156145ee576040517f08c379a0000000000000000000000000000000000000000000000000000000008152602060048201526024808201527f53746f704c6f73733a3a72756e3a20696e76616c6964206f757470757420616d60448201527f6f756e74000000000000000000000000000000000000000000000000000000006064820152608401610792565b5061468a565b819050866002015481111561468a576040517f08c379a0000000000000000000000000000000000000000000000000000000008152602060048201526024808201527f53746f704c6f73733a3a72756e3a20696e76616c6964206f757470757420616d60448201527f6f756e74000000000000000000000000000000000000000000000000000000006064820152608401610792565b6040518181527ff22ed879bd57fced893edba2366c8143c0d7c2e585eafd2521c2832159d557f190602001610eab565b600061471c826040518060400160405280602081526020017f5361666545524332303a206c6f772d6c6576656c2063616c6c206661696c65648152508573ffffffffffffffffffffffffffffffffffffffff166149579092919063ffffffff16565b805190915015613a30578080602001905181019061473a9190614ee8565b613a30576040517f08c379a000000000000000000000000000000000000000000000000000000000815260206004820152602a60248201527f5361666545524332303a204552433230206f7065726174696f6e20646964206e60448201527f6f742073756363656564000000000000000000000000000000000000000000006064820152608401610792565b80158061487557506040517fdd62ed3e00000000000000000000000000000000000000000000000000000000815230600482015273ffffffffffffffffffffffffffffffffffffffff838116602483015284169063dd62ed3e9060440160206040518083038186803b15801561483b57600080fd5b505afa15801561484f573d6000803e3d6000fd5b505050506040513d601f19601f820116820180604052508101906148739190614f58565b155b614901576040517f08c379a000000000000000000000000000000000000000000000000000000000815260206004820152603660248201527f5361666545524332303a20617070726f76652066726f6d206e6f6e2d7a65726f60448201527f20746f206e6f6e2d7a65726f20616c6c6f77616e6365000000000000000000006064820152608401610792565b60405173ffffffffffffffffffffffffffffffffffffffff8316602482015260448101829052613a309084907f095ea7b300000000000000000000000000000000000000000000000000000000906064016139ae565b60606149668484600085614970565b90505b9392505050565b606082471015614a02576040517f08c379a000000000000000000000000000000000000000000000000000000000815260206004820152602660248201527f416464726573733a20696e73756666696369656e742062616c616e636520666f60448201527f722063616c6c00000000000000000000000000000000000000000000000000006064820152608401610792565b843b614a6a576040517f08c379a000000000000000000000000000000000000000000000000000000000815260206004820152601d60248201527f416464726573733a2063616c6c20746f206e6f6e2d636f6e74726163740000006044820152606401610792565b6000808673ffffffffffffffffffffffffffffffffffffffff168587604051614a939190615132565b60006040518083038185875af1925050503d8060008114614ad0576040519150601f19603f3d011682016040523d82523d6000602084013e614ad5565b606091505b5091509150614ae5828286614af0565b979650505050505050565b60608315614aff575081614969565b825115614b0f5782518084602001fd5b816040517f08c379a000000000000000000000000000000000000000000000000000000000815260040161079291906151c2565b828054828255906000526020600020908101928215614bbd579160200282015b82811115614bbd57825182547fffffffffffffffffffffffff00000000000000000000000000000000000000001673ffffffffffffffffffffffffffffffffffffffff909116178255602090920191600190910190614b63565b50614bc9929150614bcd565b5090565b5b80821115614bc95760008155600101614bce565b8035614bed81615435565b919050565b8051614bed81615435565b8051600281900b8114614bed57600080fd5b80516fffffffffffffffffffffffffffffffff81168114614bed57600080fd5b8035614bed8161545a565b8051614bed8161545a565b805169ffffffffffffffffffff81168114614bed57600080fd5b600060208284031215614c7157600080fd5b813561496981615435565b600060208284031215614c8e57600080fd5b815161496981615435565b60008060008060808587031215614caf57600080fd5b8435614cba81615435565b93506020850135614cca81615435565b92506040850135614cda81615435565b9150606085013561ffff81168114614cf157600080fd5b939692955090935050565b600080600060608486031215614d1157600080fd5b8335614d1c81615435565b92506020840135614d2c81615435565b929592945050506040919091013590565b600080600080600060808688031215614d5557600080fd5b8535614d6081615435565b94506020860135614d7081615435565b935060408601359250606086013567ffffffffffffffff80821115614d9457600080fd5b818801915088601f830112614da857600080fd5b813581811115614db757600080fd5b896020828501011115614dc957600080fd5b9699959850939650602001949392505050565b60008060008060808587031215614df257600080fd5b843567ffffffffffffffff80821115614e0a57600080fd5b818701915087601f830112614e1e57600080fd5b8135602082821115614e3257614e32615406565b8160051b6040517fffffffffffffffffffffffffffffffffffffffffffffffffffffffffffffffe0603f83011681018181108682111715614e7557614e75615406565b604052838152828101945085830182870184018d1015614e9457600080fd5b600096505b84871015614ebe57614eaa81614be2565b865260019690960195948301948301614e99565b509850614ece9050898201614c2f565b979a97995050505060408601359560600135949350505050565b600060208284031215614efa57600080fd5b8151801515811461496957600080fd5b600060208284031215614f1c57600080fd5b5035919050565b600080600060608486031215614f3857600080fd5b614f4184614c0f565b925060208401519150604084015190509250925092565b600060208284031215614f6a57600080fd5b5051919050565b60008060408385031215614f8457600080fd5b50508035926020909101359150565b60008060408385031215614fa657600080fd5b505080516020909101519092909150565b600080600080600060a08688031215614fcf57600080fd5b614fd886614c45565b9450602086015193506040860151925060608601519150614ffb60808701614c45565b90509295509295909350565b6000806000806000806000806000806000806101808d8f03121561502a57600080fd5b8c516bffffffffffffffffffffffff8116811461504657600080fd5b9b5061505460208e01614bf2565b9a5061506260408e01614bf2565b995061507060608e01614bf2565b985061507e60808e01614c3a565b975061508c60a08e01614bfd565b965061509a60c08e01614bfd565b95506150a860e08e01614c0f565b94506101008d015193506101208d015192506150c76101408e01614c0f565b91506150d66101608e01614c0f565b90509295989b509295989b509295989b565b60008151808452615100816020860160208601615323565b601f017fffffffffffffffffffffffffffffffffffffffffffffffffffffffffffffffe0169290920160200192915050565b60008251615144818460208701615323565b9190910192915050565b60008351615160818460208801615323565b835190830190615174818360208801615323565b01949350505050565b73ffffffffffffffffffffffffffffffffffffffff851681528360208201528260408201526080606082015260006151b860808301846150e8565b9695505050505050565b60208152600061496960208301846150e8565b8151815260208083015173ffffffffffffffffffffffffffffffffffffffff16908201526040808301516fffffffffffffffffffffffffffffffff90811691830191909152606092830151169181019190915260800190565b602081526000825160a0602084015261524a60c08401826150e8565b905073ffffffffffffffffffffffffffffffffffffffff60208501511660408401526040840151606084015260608401516080840152608084015160a08401528091505092915050565b6000826152ca577f4e487b7100000000000000000000000000000000000000000000000000000000600052601260045260246000fd5b500490565b6000817fffffffffffffffffffffffffffffffffffffffffffffffffffffffffffffffff0483118215151615615307576153076153a8565b500290565b60008282101561531e5761531e6153a8565b500390565b60005b8381101561533e578181015183820152602001615326565b838111156135b55750506000910152565b60007fffffffffffffffffffffffffffffffffffffffffffffffffffffffffffffffff821415615381576153816153a8565b5060010190565b600060ff821660ff81141561539f5761539f6153a8565b60010192915050565b7f4e487b7100000000000000000000000000000000000000000000000000000000600052601160045260246000fd5b7f4e487b7100000000000000000000000000000000000000000000000000000000600052603260045260246000fd5b7f4e487b7100000000000000000000000000000000000000000000000000000000600052604160045260246000fd5b73ffffffffffffffffffffffffffffffffffffffff8116811461545757600080fd5b50565b62ffffff8116811461545757600080fdfea164736f6c6343000806000a",
  "linkReferences": {
    "contracts/utils/DFH/proxy/ERC1167.sol": {
      "ERC1167": [
        {
          "length": 20,
          "start": 1221
        },
        {
          "length": 20,
          "start": 1573
        },
        {
          "length": 20,
          "start": 3994
        },
        {
          "length": 20,
          "start": 6371
        },
        {
          "length": 20,
          "start": 9196
        },
        {
          "length": 20,
          "start": 9768
        },
        {
          "length": 20,
          "start": 14142
        }
      ]
    }
  },
  "deployedLinkReferences": {
    "contracts/utils/DFH/proxy/ERC1167.sol": {
      "ERC1167": [
        {
          "length": 20,
          "start": 1050
        },
        {
          "length": 20,
          "start": 1402
        },
        {
          "length": 20,
          "start": 3823
        },
        {
          "length": 20,
          "start": 6200
        },
        {
          "length": 20,
          "start": 9025
        },
        {
          "length": 20,
          "start": 9597
        },
        {
          "length": 20,
          "start": 13971
        }
      ]
    }
  }
}