{
  "_format": "hh-sol-artifact-1",
  "contractName": "Restake",
  "sourceName": "contracts/Restake.automate.sol",
  "abi": [
    {
      "inputs": [
        {
          "internalType": "address",
          "name": "_info",
          "type": "address"
        }
      ],
      "stateMutability": "nonpayable",
      "type": "constructor"
    },
    {
      "anonymous": false,
      "inputs": [
        {
          "indexed": false,
          "internalType": "uint256",
          "name": "tokenId",
          "type": "uint256"
        }
      ],
      "name": "Deposit",
      "type": "event"
    },
    {
      "anonymous": false,
      "inputs": [
        {
          "indexed": true,
          "internalType": "address",
          "name": "previousOwner",
          "type": "address"
        },
        {
          "indexed": true,
          "internalType": "address",
          "name": "newOwner",
          "type": "address"
        }
      ],
      "name": "OwnershipTransferred",
      "type": "event"
    },
    {
      "anonymous": false,
      "inputs": [
        {
          "indexed": false,
          "internalType": "int256",
          "name": "protocolFee",
          "type": "int256"
        }
      ],
      "name": "ProtocolFeeChanged",
      "type": "event"
    },
    {
      "anonymous": false,
      "inputs": [
        {
          "indexed": false,
          "internalType": "uint256",
          "name": "tokenId",
          "type": "uint256"
        }
      ],
      "name": "Refund",
      "type": "event"
    },
    {
      "inputs": [
        {
          "internalType": "int256",
          "name": "__protocolFee",
          "type": "int256"
        }
      ],
      "name": "changeProtocolFee",
      "outputs": [],
      "stateMutability": "nonpayable",
      "type": "function"
    },
    {
      "inputs": [],
      "name": "deadline",
      "outputs": [
        {
          "internalType": "uint16",
          "name": "",
          "type": "uint16"
        }
      ],
      "stateMutability": "view",
      "type": "function"
    },
    {
      "inputs": [
        {
          "internalType": "uint256",
          "name": "_tokenId",
          "type": "uint256"
        }
      ],
      "name": "deposit",
      "outputs": [],
      "stateMutability": "nonpayable",
      "type": "function"
    },
    {
      "inputs": [],
      "name": "info",
      "outputs": [
        {
          "internalType": "address",
          "name": "",
          "type": "address"
        }
      ],
      "stateMutability": "view",
      "type": "function"
    },
    {
      "inputs": [
        {
          "internalType": "address",
          "name": "_positionManager",
          "type": "address"
        },
        {
          "internalType": "address",
          "name": "_liquidityRouter",
          "type": "address"
        },
        {
          "internalType": "address",
          "name": "_pool",
          "type": "address"
        },
        {
          "internalType": "uint16",
          "name": "_deadline",
          "type": "uint16"
        }
      ],
      "name": "init",
      "outputs": [],
      "stateMutability": "nonpayable",
      "type": "function"
    },
    {
      "inputs": [],
      "name": "liquidityRouter",
      "outputs": [
        {
          "internalType": "address",
          "name": "",
          "type": "address"
        }
      ],
      "stateMutability": "view",
      "type": "function"
    },
    {
      "inputs": [
        {
          "internalType": "address",
          "name": "",
          "type": "address"
        },
        {
          "internalType": "address",
          "name": "",
          "type": "address"
        },
        {
          "internalType": "uint256",
          "name": "",
          "type": "uint256"
        },
        {
          "internalType": "bytes",
          "name": "",
          "type": "bytes"
        }
      ],
      "name": "onERC721Received",
      "outputs": [
        {
          "internalType": "bytes4",
          "name": "",
          "type": "bytes4"
        }
      ],
      "stateMutability": "pure",
      "type": "function"
    },
    {
      "inputs": [],
      "name": "owner",
      "outputs": [
        {
          "internalType": "address",
          "name": "",
          "type": "address"
        }
      ],
      "stateMutability": "view",
      "type": "function"
    },
    {
      "inputs": [],
      "name": "pause",
      "outputs": [],
      "stateMutability": "nonpayable",
      "type": "function"
    },
    {
      "inputs": [],
      "name": "paused",
      "outputs": [
        {
          "internalType": "bool",
          "name": "",
          "type": "bool"
        }
      ],
      "stateMutability": "view",
      "type": "function"
    },
    {
      "inputs": [],
      "name": "pool",
      "outputs": [
        {
          "internalType": "address",
          "name": "",
          "type": "address"
        }
      ],
      "stateMutability": "view",
      "type": "function"
    },
    {
      "inputs": [],
      "name": "positionManager",
      "outputs": [
        {
          "internalType": "address",
          "name": "",
          "type": "address"
        }
      ],
      "stateMutability": "view",
      "type": "function"
    },
    {
      "inputs": [],
      "name": "protocolFee",
      "outputs": [
        {
          "internalType": "uint256",
          "name": "",
          "type": "uint256"
        }
      ],
      "stateMutability": "view",
      "type": "function"
    },
    {
      "inputs": [
        {
          "internalType": "uint256",
          "name": "gasFee",
          "type": "uint256"
        },
        {
          "internalType": "int24",
          "name": "tickLower",
          "type": "int24"
        },
        {
          "internalType": "int24",
          "name": "tickUpper",
          "type": "int24"
        },
        {
          "internalType": "uint256",
          "name": "_deadline",
          "type": "uint256"
        }
      ],
      "name": "rebalance",
      "outputs": [],
      "stateMutability": "nonpayable",
      "type": "function"
    },
    {
      "inputs": [],
      "name": "refund",
      "outputs": [],
      "stateMutability": "nonpayable",
      "type": "function"
    },
    {
      "inputs": [
        {
          "internalType": "uint256",
          "name": "gasFee",
          "type": "uint256"
        },
        {
          "internalType": "uint256",
          "name": "_deadline",
          "type": "uint256"
        }
      ],
      "name": "run",
      "outputs": [],
      "stateMutability": "nonpayable",
      "type": "function"
    },
    {
      "inputs": [
        {
          "internalType": "uint256",
          "name": "gasFee",
          "type": "uint256"
        },
        {
          "internalType": "uint256",
          "name": "_deadline",
          "type": "uint256"
        }
      ],
      "name": "runStopLoss",
      "outputs": [],
      "stateMutability": "nonpayable",
      "type": "function"
    },
    {
      "inputs": [
        {
          "internalType": "address[]",
          "name": "path",
          "type": "address[]"
        },
        {
          "internalType": "uint24",
          "name": "fee",
          "type": "uint24"
        },
        {
          "internalType": "uint256",
          "name": "amountOut",
          "type": "uint256"
        },
        {
          "internalType": "uint256",
          "name": "amountOutMin",
          "type": "uint256"
        }
      ],
      "name": "setStopLoss",
      "outputs": [],
      "stateMutability": "nonpayable",
      "type": "function"
    },
    {
      "inputs": [],
      "name": "stopLoss",
      "outputs": [
        {
          "internalType": "uint24",
          "name": "fee",
          "type": "uint24"
        },
        {
          "internalType": "uint256",
          "name": "amountOut",
          "type": "uint256"
        },
        {
          "internalType": "uint256",
          "name": "amountOutMin",
          "type": "uint256"
        }
      ],
      "stateMutability": "view",
      "type": "function"
    },
    {
      "inputs": [],
      "name": "tokenId",
      "outputs": [
        {
          "internalType": "uint256",
          "name": "",
          "type": "uint256"
        }
      ],
      "stateMutability": "view",
      "type": "function"
    },
    {
      "inputs": [
        {
          "internalType": "address",
          "name": "token",
          "type": "address"
        },
        {
          "internalType": "address",
          "name": "recipient",
          "type": "address"
        },
        {
          "internalType": "uint256",
          "name": "amount",
          "type": "uint256"
        }
      ],
      "name": "transfer",
      "outputs": [],
      "stateMutability": "nonpayable",
      "type": "function"
    },
    {
      "inputs": [
        {
          "internalType": "address",
          "name": "newOwner",
          "type": "address"
        }
      ],
      "name": "transferOwnership",
      "outputs": [],
      "stateMutability": "nonpayable",
      "type": "function"
    },
    {
      "inputs": [],
      "name": "unpause",
      "outputs": [],
      "stateMutability": "nonpayable",
      "type": "function"
    }
  ],
  "bytecode": "0x60806040523480156200001157600080fd5b506040516200573a3803806200573a833981016040819052620000349162000069565b600080546001600160a01b039092166001600160a01b031992831617905560018054909116321790556000196002556200009b565b6000602082840312156200007c57600080fd5b81516001600160a01b03811681146200009457600080fd5b9392505050565b61568f80620000ab6000396000f3fe608060405234801561001057600080fd5b506004361061018d5760003560e01c80637357f5d2116100e3578063b0e21e8a1161008c578063beabacc811610066578063beabacc8146103cc578063f2fde38b146103df578063f7d5e2d8146103f257600080fd5b8063b0e21e8a1461039e578063b6b55f25146103a6578063bc68d6b0146103b957600080fd5b80638da5cb5b116100bd5780638da5cb5b1461035a5780639327d80a146103785780639742b5c31461038b57600080fd5b80637357f5d21461031a578063791b98bc1461032d5780638456cb591461035257600080fd5b8063370158ea11610145578063590e1ae31161011f578063590e1ae3146102e75780635b848627146102ef5780635c975abb1461030257600080fd5b8063370158ea1461029d5780633f4ba83a146102a5578063527a1565146102af57600080fd5b806317d70f7c1161017657806317d70f7c14610245578063247029441461025c57806329dcb0cf1461027c57600080fd5b8063150b7a021461019257806316f0115b14610200575b600080fd5b6101ca6101a0366004614f07565b7f150b7a023d4804d13e8c85fb27262cb750cf6ba9f9dd3bb30d90f482ceeb4b1f95945050505050565b6040517fffffffff0000000000000000000000000000000000000000000000000000000090911681526020015b60405180910390f35b6005546102209073ffffffffffffffffffffffffffffffffffffffff1681565b60405173ffffffffffffffffffffffffffffffffffffffff90911681526020016101f7565b61024e60065481565b6040519081526020016101f7565b6004546102209073ffffffffffffffffffffffffffffffffffffffff1681565b60075461028a9061ffff1681565b60405161ffff90911681526020016101f7565b610220610405565b6102ad610567565b005b600954600a54600b546102c69262ffffff16919083565b6040805162ffffff90941684526020840192909252908201526060016101f7565b6102ad6108fe565b6102ad6102fd36600461513b565b610ed9565b61030a6111ae565b60405190151581526020016101f7565b6102ad610328366004615183565b611333565b60035461022090610100900473ffffffffffffffffffffffffffffffffffffffff1681565b6102ad611a2e565b60015473ffffffffffffffffffffffffffffffffffffffff16610220565b6102ad610386366004615183565b611dd8565b6102ad6103993660046150d4565b612536565b61024e612770565b6102ad6103b43660046150d4565b612b7d565b6102ad6103c7366004614e63565b613218565b6102ad6103da366004614ec6565b61368c565b6102ad6103ed366004614e29565b6137e1565b6102ad610400366004614fa6565b613a40565b6040517f6b880718000000000000000000000000000000000000000000000000000000008152306004820152600090819073__$0fb85c1a108326fe5c0d8f2f5a241bc0e7$__90636b8807189060240160206040518083038186803b15801561046d57600080fd5b505af4158015610481573d6000803e3d6000fd5b505050506040513d601f19601f820116820180604052508101906104a59190614e46565b905073ffffffffffffffffffffffffffffffffffffffff81163014156104e357505060005473ffffffffffffffffffffffffffffffffffffffff1690565b8073ffffffffffffffffffffffffffffffffffffffff1663370158ea6040518163ffffffff1660e01b815260040160206040518083038186803b15801561052957600080fd5b505afa15801561053d573d6000803e3d6000fd5b505050506040513d601f19601f820116820180604052508101906105619190614e46565b91505090565b6040517f6b88071800000000000000000000000000000000000000000000000000000000815230600482018190529073__$0fb85c1a108326fe5c0d8f2f5a241bc0e7$__90636b8807189060240160206040518083038186803b1580156105cd57600080fd5b505af41580156105e1573d6000803e3d6000fd5b505050506040513d601f19601f820116820180604052508101906106059190614e46565b73ffffffffffffffffffffffffffffffffffffffff1614156107bf57600061062b610405565b6040517f21f8a7210000000000000000000000000000000000000000000000000000000081527f689d13d8ed8ef1027633ba26e7121121cf427434450a529548f19bf175974395600482015273ffffffffffffffffffffffffffffffffffffffff91909116906321f8a7219060240160206040518083038186803b1580156106b257600080fd5b505afa1580156106c6573d6000803e3d6000fd5b505050506040513d601f19601f820116820180604052508101906106ea9190614e46565b60015490915073ffffffffffffffffffffffffffffffffffffffff1633148061072857503373ffffffffffffffffffffffffffffffffffffffff8216145b6107b9576040517f08c379a000000000000000000000000000000000000000000000000000000000815260206004820152602260248201527f4175746f6d6174653a2063616c6c6572206973206e6f7420746865207061757360448201527f657200000000000000000000000000000000000000000000000000000000000060648201526084015b60405180910390fd5b50610866565b60015473ffffffffffffffffffffffffffffffffffffffff163314610866576040517f08c379a000000000000000000000000000000000000000000000000000000000815260206004820152602260248201527f4175746f6d6174653a2063616c6c6572206973206e6f7420746865207061757360448201527f657200000000000000000000000000000000000000000000000000000000000060648201526084016107b0565b61086e6111ae565b6108d4576040517f08c379a000000000000000000000000000000000000000000000000000000000815260206004820152601460248201527f4175746f6d6174653a206e6f742070617573656400000000000000000000000060448201526064016107b0565b600180547fffffffffffffffffffffff00ffffffffffffffffffffffffffffffffffffffff169055565b60015473ffffffffffffffffffffffffffffffffffffffff1633146109a5576040517f08c379a000000000000000000000000000000000000000000000000000000000815260206004820152602160248201527f4175746f6d6174653a2063616c6c6572206973206e6f7420746865206f776e6560448201527f720000000000000000000000000000000000000000000000000000000000000060648201526084016107b0565b60065480610a35576040517f08c379a000000000000000000000000000000000000000000000000000000000815260206004820152602760248201527f52657374616b653a3a726566756e643a20746f6b656e20616c7265616479207260448201527f6566756e6465640000000000000000000000000000000000000000000000000060648201526084016107b0565b6000610a5660015473ffffffffffffffffffffffffffffffffffffffff1690565b6003546040517f42842e0e00000000000000000000000000000000000000000000000000000000815230600482015273ffffffffffffffffffffffffffffffffffffffff8084166024830152604482018690529293506101009091049091169081906342842e0e90606401600060405180830381600087803b158015610adb57600080fd5b505af1158015610aef573d6000803e3d6000fd5b50506040517f99fbab88000000000000000000000000000000000000000000000000000000008152600481018690526000925082915073ffffffffffffffffffffffffffffffffffffffff8416906399fbab88906024016101806040518083038186803b158015610b5f57600080fd5b505afa158015610b73573d6000803e3d6000fd5b505050506040513d601f19601f82011682018060405250810190610b979190615219565b5050505050505050935093505050600073ffffffffffffffffffffffffffffffffffffffff168273ffffffffffffffffffffffffffffffffffffffff161415610c62576040517f08c379a000000000000000000000000000000000000000000000000000000000815260206004820152602760248201527f52657374616b653a3a726566756e643a20696e76616c696420746f6b656e302060448201527f616464726573730000000000000000000000000000000000000000000000000060648201526084016107b0565b73ffffffffffffffffffffffffffffffffffffffff8116610d05576040517f08c379a000000000000000000000000000000000000000000000000000000000815260206004820152602760248201527f52657374616b653a3a726566756e643a20696e76616c696420746f6b656e312060448201527f616464726573730000000000000000000000000000000000000000000000000060648201526084016107b0565b6040517f70a0823100000000000000000000000000000000000000000000000000000000815230600482015260009073ffffffffffffffffffffffffffffffffffffffff8416906370a082319060240160206040518083038186803b158015610d6d57600080fd5b505afa158015610d81573d6000803e3d6000fd5b505050506040513d601f19601f82011682018060405250810190610da59190615122565b6040517f70a0823100000000000000000000000000000000000000000000000000000000815230600482015290915060009073ffffffffffffffffffffffffffffffffffffffff8416906370a082319060240160206040518083038186803b158015610e1057600080fd5b505afa158015610e24573d6000803e3d6000fd5b505050506040513d601f19601f82011682018060405250810190610e489190615122565b90508115610e7157610e7173ffffffffffffffffffffffffffffffffffffffff85168784613b82565b8015610e9857610e9873ffffffffffffffffffffffffffffffffffffffff84168783613b82565b60006006556040518781527f2e1897b0591d764356194f7a795238a87c1987c7a877568e50d829d547c92b979060200160405180910390a150505050505050565b836040518060400160405280601981526020017f556e6973776170563352657374616b65526562616c616e636500000000000000815250610f1a8282613c5b565b5060065480610fab576040517f08c379a000000000000000000000000000000000000000000000000000000000815260206004820152602a60248201527f52657374616b653a3a726562616c616e63653a20746f6b656e20616c7265616460448201527f7920726566756e6465640000000000000000000000000000000000000000000060648201526084016107b0565b6040805160a081018252600288810b825287810b60208301908152600354610100900473ffffffffffffffffffffffffffffffffffffffff908116848601908152600480548316606087019081526080870189815297517f7543f16a0000000000000000000000000000000000000000000000000000000081528751870b92810192909252935190940b6024850152518116604484015290511660648201529151608483015260a482018690529060009073__$e3a82572beb2321576194f1773b382d2bf$__90637543f16a9060c40160206040518083038186803b15801561109357600080fd5b505af41580156110a7573d6000803e3d6000fd5b505050506040513d601f19601f820116820180604052508101906110cb9190615122565b60035490915073ffffffffffffffffffffffffffffffffffffffff610100909104166342842e0e3061111260015473ffffffffffffffffffffffffffffffffffffffff1690565b6040517fffffffff0000000000000000000000000000000000000000000000000000000060e085901b16815273ffffffffffffffffffffffffffffffffffffffff92831660048201529116602482015260448101869052606401600060405180830381600087803b15801561118657600080fd5b505af115801561119a573d6000803e3d6000fd5b505050600691909155505050505050505050565b6040517f6b880718000000000000000000000000000000000000000000000000000000008152306004820152600090819073__$0fb85c1a108326fe5c0d8f2f5a241bc0e7$__90636b8807189060240160206040518083038186803b15801561121657600080fd5b505af415801561122a573d6000803e3d6000fd5b505050506040513d601f19601f8201168201806040525081019061124e9190614e46565b905073ffffffffffffffffffffffffffffffffffffffff811630141561129157505060015474010000000000000000000000000000000000000000900460ff1690565b60015474010000000000000000000000000000000000000000900460ff168061056157508073ffffffffffffffffffffffffffffffffffffffff16635c975abb6040518163ffffffff1660e01b815260040160206040518083038186803b1580156112fb57600080fd5b505afa15801561130f573d6000803e3d6000fd5b505050506040513d601f19601f8201168201806040525081019061056191906150b2565b6006546113c2576040517f08c379a000000000000000000000000000000000000000000000000000000000815260206004820152602c60248201527f52657374616b653a3a746f6b656e4465706f73697465643a20746f6b656e206e60448201527f6f74206465706f7369746564000000000000000000000000000000000000000060648201526084016107b0565b6003546006546040517f6352211e0000000000000000000000000000000000000000000000000000000081523092610100900473ffffffffffffffffffffffffffffffffffffffff1691636352211e91611423919060040190815260200190565b60206040518083038186803b15801561143b57600080fd5b505afa15801561144f573d6000803e3d6000fd5b505050506040513d601f19601f820116820180604052508101906114739190614e46565b73ffffffffffffffffffffffffffffffffffffffff1614611516576040517f08c379a000000000000000000000000000000000000000000000000000000000815260206004820152602760248201527f52657374616b653a3a746f6b656e4465706f73697465643a20746f6b656e207260448201527f6566756e6465640000000000000000000000000000000000000000000000000060648201526084016107b0565b816040518060400160405280601081526020017f556e6973776170563352657374616b65000000000000000000000000000000008152506115578282613c5b565b506006546003546040517f99fbab880000000000000000000000000000000000000000000000000000000081526004810183905261010090910473ffffffffffffffffffffffffffffffffffffffff1690600090819083906399fbab88906024016101806040518083038186803b1580156115d157600080fd5b505afa1580156115e5573d6000803e3d6000fd5b505050506040513d601f19601f820116820180604052508101906116099190615219565b5050604080516080810182528f81523060208201526fffffffffffffffffffffffffffffffff818301819052606082015290517ffc6f7865000000000000000000000000000000000000000000000000000000008152989c50969a505073ffffffffffffffffffffffffffffffffffffffff8c16985063fc6f786597506116999660040194506153e79350505050565b6040805180830381600087803b1580156116b257600080fd5b505af11580156116c6573d6000803e3d6000fd5b505050506040513d601f19601f820116820180604052508101906116ea91906151a5565b50506040517f70a0823100000000000000000000000000000000000000000000000000000000815230600482015260009073ffffffffffffffffffffffffffffffffffffffff8416906370a082319060240160206040518083038186803b15801561175457600080fd5b505afa158015611768573d6000803e3d6000fd5b505050506040513d601f19601f8201168201806040525081019061178c9190615122565b6040517f70a0823100000000000000000000000000000000000000000000000000000000815230600482015290915060009073ffffffffffffffffffffffffffffffffffffffff8416906370a082319060240160206040518083038186803b1580156117f757600080fd5b505afa15801561180b573d6000803e3d6000fd5b505050506040513d601f19601f8201168201806040525081019061182f9190615122565b905060008211806118405750600081115b6118a6576040517f08c379a000000000000000000000000000000000000000000000000000000000815260206004820152601760248201527f52657374616b653a3a72756e3a206e6f206561726e656400000000000000000060448201526064016107b0565b6118c773ffffffffffffffffffffffffffffffffffffffff85168684613f2d565b6118e873ffffffffffffffffffffffffffffffffffffffff84168683613f2d565b6040805160c081018252878152602081018481528183018481526000606084018181526080850191825260a085018f815295517f219f5d1700000000000000000000000000000000000000000000000000000000815294516004860152925160248501529051604484015290516064830152516084820152905160a482015273ffffffffffffffffffffffffffffffffffffffff86169063219f5d179060c401606060405180830381600087803b1580156119a257600080fd5b505af11580156119b6573d6000803e3d6000fd5b505050506040513d601f19601f820116820180604052508101906119da91906150ed565b50611a0091505073ffffffffffffffffffffffffffffffffffffffff8516866000613f2d565b611a2273ffffffffffffffffffffffffffffffffffffffff8416866000613f2d565b50505050505050505050565b6040517f6b88071800000000000000000000000000000000000000000000000000000000815230600482018190529073__$0fb85c1a108326fe5c0d8f2f5a241bc0e7$__90636b8807189060240160206040518083038186803b158015611a9457600080fd5b505af4158015611aa8573d6000803e3d6000fd5b505050506040513d601f19601f82011682018060405250810190611acc9190614e46565b73ffffffffffffffffffffffffffffffffffffffff161415611c81576000611af2610405565b6040517f21f8a7210000000000000000000000000000000000000000000000000000000081527f689d13d8ed8ef1027633ba26e7121121cf427434450a529548f19bf175974395600482015273ffffffffffffffffffffffffffffffffffffffff91909116906321f8a7219060240160206040518083038186803b158015611b7957600080fd5b505afa158015611b8d573d6000803e3d6000fd5b505050506040513d601f19601f82011682018060405250810190611bb19190614e46565b60015490915073ffffffffffffffffffffffffffffffffffffffff16331480611bef57503373ffffffffffffffffffffffffffffffffffffffff8216145b611c7b576040517f08c379a000000000000000000000000000000000000000000000000000000000815260206004820152602260248201527f4175746f6d6174653a2063616c6c6572206973206e6f7420746865207061757360448201527f657200000000000000000000000000000000000000000000000000000000000060648201526084016107b0565b50611d28565b60015473ffffffffffffffffffffffffffffffffffffffff163314611d28576040517f08c379a000000000000000000000000000000000000000000000000000000000815260206004820152602260248201527f4175746f6d6174653a2063616c6c6572206973206e6f7420746865207061757360448201527f657200000000000000000000000000000000000000000000000000000000000060648201526084016107b0565b611d306111ae565b15611d97576040517f08c379a000000000000000000000000000000000000000000000000000000000815260206004820152601060248201527f4175746f6d6174653a207061757365640000000000000000000000000000000060448201526064016107b0565b600180547fffffffffffffffffffffff00ffffffffffffffffffffffffffffffffffffffff1674010000000000000000000000000000000000000000179055565b600654611e67576040517f08c379a000000000000000000000000000000000000000000000000000000000815260206004820152602c60248201527f52657374616b653a3a746f6b656e4465706f73697465643a20746f6b656e206e60448201527f6f74206465706f7369746564000000000000000000000000000000000000000060648201526084016107b0565b6003546006546040517f6352211e0000000000000000000000000000000000000000000000000000000081523092610100900473ffffffffffffffffffffffffffffffffffffffff1691636352211e91611ec8919060040190815260200190565b60206040518083038186803b158015611ee057600080fd5b505afa158015611ef4573d6000803e3d6000fd5b505050506040513d601f19601f82011682018060405250810190611f189190614e46565b73ffffffffffffffffffffffffffffffffffffffff1614611fbb576040517f08c379a000000000000000000000000000000000000000000000000000000000815260206004820152602760248201527f52657374616b653a3a746f6b656e4465706f73697465643a20746f6b656e207260448201527f6566756e6465640000000000000000000000000000000000000000000000000060648201526084016107b0565b816040518060400160405280601881526020017f556e6973776170563352657374616b6553746f704c6f73730000000000000000815250611ffc8282613c5b565b506006546003546040517f99fbab880000000000000000000000000000000000000000000000000000000081526004810183905261010090910473ffffffffffffffffffffffffffffffffffffffff16906000908190819084906399fbab88906024016101806040518083038186803b15801561207857600080fd5b505afa15801561208c573d6000803e3d6000fd5b505050506040513d601f19601f820116820180604052508101906120b09190615219565b5050505097505050509450945050506000816fffffffffffffffffffffffffffffffff1611612161576040517f08c379a000000000000000000000000000000000000000000000000000000000815260206004820152602a60248201527f52657374616b653a3a72756e53746f704c6f73733a20746f6b656e20616c726560448201527f61647920636c6f7365640000000000000000000000000000000000000000000060648201526084016107b0565b6040805160a0810182528681526fffffffffffffffffffffffffffffffff83811660208301908152600083850181815260608501918252608085018e815295517f0c49ccbe00000000000000000000000000000000000000000000000000000000815294516004860152915190921660248401525160448301525160648201529051608482015273ffffffffffffffffffffffffffffffffffffffff851690630c49ccbe9060a4016040805180830381600087803b15801561222257600080fd5b505af1158015612236573d6000803e3d6000fd5b505050506040513d601f19601f8201168201806040525081019061225a91906151a5565b50506040805160808101825286815230602082019081526fffffffffffffffffffffffffffffffff8284018181526060840182815294517ffc6f786500000000000000000000000000000000000000000000000000000000815293516004850152915173ffffffffffffffffffffffffffffffffffffffff9081166024850152915181166044840152925190921660648201529085169063fc6f7865906084016040805180830381600087803b15801561231357600080fd5b505af1158015612327573d6000803e3d6000fd5b505050506040513d601f19601f8201168201806040525081019061234b91906151a5565b50506040805160028082526060820183526000926020830190803683370190505090508381600081518110612382576123826155df565b602002602001019073ffffffffffffffffffffffffffffffffffffffff16908173ffffffffffffffffffffffffffffffffffffffff168152505082816001815181106123d0576123d06155df565b73ffffffffffffffffffffffffffffffffffffffff92831660209182029290920101526004546124049160089116836140be565b600880546000919061241890600190615514565b81548110612428576124286155df565b60009182526020909120015473ffffffffffffffffffffffffffffffffffffffff16905061252961246e60015473ffffffffffffffffffffffffffffffffffffffff1690565b6040517f70a0823100000000000000000000000000000000000000000000000000000000815230600482015273ffffffffffffffffffffffffffffffffffffffff8416906370a082319060240160206040518083038186803b1580156124d357600080fd5b505afa1580156124e7573d6000803e3d6000fd5b505050506040513d601f19601f8201168201806040525081019061250b9190615122565b73ffffffffffffffffffffffffffffffffffffffff84169190613b82565b5050505050505050505050565b6040517f6b88071800000000000000000000000000000000000000000000000000000000815230600482015260009073__$0fb85c1a108326fe5c0d8f2f5a241bc0e7$__90636b8807189060240160206040518083038186803b15801561259c57600080fd5b505af41580156125b0573d6000803e3d6000fd5b505050506040513d601f19601f820116820180604052508101906125d49190614e46565b90503373ffffffffffffffffffffffffffffffffffffffff82163014612677578173ffffffffffffffffffffffffffffffffffffffff16638da5cb5b6040518163ffffffff1660e01b815260040160206040518083038186803b15801561263a57600080fd5b505afa15801561264e573d6000803e3d6000fd5b505050506040513d601f19601f820116820180604052508101906126729190614e46565b612691565b60015473ffffffffffffffffffffffffffffffffffffffff165b73ffffffffffffffffffffffffffffffffffffffff1614612734576040517f08c379a000000000000000000000000000000000000000000000000000000000815260206004820152603d60248201527f4175746f6d6174653a3a6368616e676550726f746f636f6c4665653a2063616c60448201527f6c6572206973206e6f74207468652070726f746f636f6c206f776e657200000060648201526084016107b0565b60028290556040518281527f3c1d43943224e49d951ce8295a5c8332b517083b3f89bed50feae2cb39caebb59060200160405180910390a15050565b6040517f6b880718000000000000000000000000000000000000000000000000000000008152306004820152600090819073__$0fb85c1a108326fe5c0d8f2f5a241bc0e7$__90636b8807189060240160206040518083038186803b1580156127d857600080fd5b505af41580156127ec573d6000803e3d6000fd5b505050506040513d601f19601f820116820180604052508101906128109190614e46565b905073ffffffffffffffffffffffffffffffffffffffff8116301480159061283a57506000600254125b156128bd578073ffffffffffffffffffffffffffffffffffffffff1663b0e21e8a6040518163ffffffff1660e01b815260040160206040518083038186803b15801561288557600080fd5b505afa158015612899573d6000803e3d6000fd5b505050506040513d601f19601f820116820180604052508101906105619190615122565b60006128c7610405565b9050600080600254126128dc57600254612999565b6040517fbd02d0f50000000000000000000000000000000000000000000000000000000081527fa93d95f96a5de25d7a41ddf1f5e8d45cfc929c4838163cf011dab4043a4a40d5600482015273ffffffffffffffffffffffffffffffffffffffff83169063bd02d0f59060240160206040518083038186803b15801561296157600080fd5b505afa158015612975573d6000803e3d6000fd5b505050506040513d601f19601f820116820180604052508101906129999190615122565b9050806129aa576000935050505090565b6040517f21f8a7210000000000000000000000000000000000000000000000000000000081527f65c90423fe7c880476633a7e36521740f87199d233dc56eb4ca6643eb76f605f600482015260009073ffffffffffffffffffffffffffffffffffffffff8416906321f8a7219060240160206040518083038186803b158015612a3257600080fd5b505afa158015612a46573d6000803e3d6000fd5b505050506040513d601f19601f82011682018060405250810190612a6a9190614e46565b73ffffffffffffffffffffffffffffffffffffffff1663feaf968c6040518163ffffffff1660e01b815260040160a06040518083038186803b158015612aaf57600080fd5b505afa158015612ac3573d6000803e3d6000fd5b505050506040513d601f19601f82011682018060405250810190612ae791906151c9565b50505091505060008113612b57576040517f08c379a000000000000000000000000000000000000000000000000000000000815260206004820152601760248201527f4175746f6d6174653a20696e76616c696420707269636500000000000000000060448201526064016107b0565b80612b6a83670de0b6b3a76400006154d7565b612b74919061549c565b94505050505090565b60015473ffffffffffffffffffffffffffffffffffffffff163314612c24576040517f08c379a000000000000000000000000000000000000000000000000000000000815260206004820152602160248201527f4175746f6d6174653a2063616c6c6572206973206e6f7420746865206f776e6560448201527f720000000000000000000000000000000000000000000000000000000000000060648201526084016107b0565b60065415612cb4576040517f08c379a000000000000000000000000000000000000000000000000000000000815260206004820152602960248201527f52657374616b653a3a6465706f7369743a20746f6b656e20616c72656164792060448201527f6465706f7369746564000000000000000000000000000000000000000000000060648201526084016107b0565b60068190556003546040517f99fbab880000000000000000000000000000000000000000000000000000000081526004810183905261010090910473ffffffffffffffffffffffffffffffffffffffff16906000908190819084906399fbab88906024016101806040518083038186803b158015612d3157600080fd5b505afa158015612d45573d6000803e3d6000fd5b505050506040513d601f19601f82011682018060405250810190612d699190615219565b505050505050509450945094505050600073ffffffffffffffffffffffffffffffffffffffff168373ffffffffffffffffffffffffffffffffffffffff161415612e35576040517f08c379a000000000000000000000000000000000000000000000000000000000815260206004820152602860248201527f52657374616b653a3a6465706f7369743a20696e76616c696420746f6b656e3060448201527f206164647265737300000000000000000000000000000000000000000000000060648201526084016107b0565b73ffffffffffffffffffffffffffffffffffffffff8216612ed8576040517f08c379a000000000000000000000000000000000000000000000000000000000815260206004820152602860248201527f52657374616b653a3a6465706f7369743a20696e76616c696420746f6b656e3160448201527f206164647265737300000000000000000000000000000000000000000000000060648201526084016107b0565b60008473ffffffffffffffffffffffffffffffffffffffff1663c45a01556040518163ffffffff1660e01b8152600401602060405180830381600087803b158015612f2257600080fd5b505af1158015612f36573d6000803e3d6000fd5b505050506040513d601f19601f82011682018060405250810190612f5a9190614e46565b6040517f1698ee8200000000000000000000000000000000000000000000000000000000815273ffffffffffffffffffffffffffffffffffffffff8681166004830152858116602483015262ffffff851660448301529190911690631698ee8290606401602060405180830381600087803b158015612fd857600080fd5b505af1158015612fec573d6000803e3d6000fd5b505050506040513d601f19601f820116820180604052508101906130109190614e46565b60055490915073ffffffffffffffffffffffffffffffffffffffff8083169116146130bd576040517f08c379a000000000000000000000000000000000000000000000000000000000815260206004820152602660248201527f52657374616b653a3a6465706f7369743a20696e76616c696420706f6f6c206160448201527f646472657373000000000000000000000000000000000000000000000000000060648201526084016107b0565b6006546040517f42842e0e000000000000000000000000000000000000000000000000000000008152336004820152306024820152604481019190915273ffffffffffffffffffffffffffffffffffffffff8616906342842e0e90606401600060405180830381600087803b15801561313557600080fd5b505af1158015613149573d6000803e3d6000fd5b50506006546040517f095ea7b3000000000000000000000000000000000000000000000000000000008152336004820152602481019190915273ffffffffffffffffffffffffffffffffffffffff8816925063095ea7b39150604401600060405180830381600087803b1580156131bf57600080fd5b505af11580156131d3573d6000803e3d6000fd5b505050507f4d6ce1e535dbade1c23defba91e23b8f791ce5edc0cc320257a2b364e4e384268660405161320891815260200190565b60405180910390a1505050505050565b60015473ffffffffffffffffffffffffffffffffffffffff1661328857600180547fffffffffffffffffffffffff000000000000000000000000000000000000000016321790557fffffffffffffffffffffffffffffffffffffffffffffffffffffffffffffffff60025561332f565b60015473ffffffffffffffffffffffffffffffffffffffff16331461332f576040517f08c379a000000000000000000000000000000000000000000000000000000000815260206004820152602160248201527f4175746f6d6174653a2063616c6c6572206973206e6f7420746865206f776e6560448201527f720000000000000000000000000000000000000000000000000000000000000060648201526084016107b0565b60035460ff161580613360575060035473ffffffffffffffffffffffffffffffffffffffff85811661010090920416145b6133ec576040517f08c379a000000000000000000000000000000000000000000000000000000000815260206004820152603e60248201527f52657374616b653a3a696e69743a207265696e697469616c697a6520706f736960448201527f74696f6e206d616e61676572206164647265737320666f7262696464656e000060648201526084016107b0565b6003805473ffffffffffffffffffffffffffffffffffffffff8616610100027fffffffffffffffffffffff0000000000000000000000000000000000000000ff8216811790925560ff9182169116171580613461575060045473ffffffffffffffffffffffffffffffffffffffff8481169116145b6134ed576040517f08c379a000000000000000000000000000000000000000000000000000000000815260206004820152603e60248201527f52657374616b653a3a696e69743a207265696e697469616c697a65206c69717560448201527f696469747920726f75746572206164647265737320666f7262696464656e000060648201526084016107b0565b600480547fffffffffffffffffffffffff00000000000000000000000000000000000000001673ffffffffffffffffffffffffffffffffffffffff851617905560035460ff161580613559575060055473ffffffffffffffffffffffffffffffffffffffff8381169116145b6135e5576040517f08c379a000000000000000000000000000000000000000000000000000000000815260206004820152603260248201527f52657374616b653a3a696e69743a207265696e697469616c697a6520706f6f6c60448201527f206164647265737320666f7262696464656e000000000000000000000000000060648201526084016107b0565b600580547fffffffffffffffffffffffff00000000000000000000000000000000000000001673ffffffffffffffffffffffffffffffffffffffff9390931692909217909155600780547fffffffffffffffffffffffffffffffffffffffffffffffffffffffffffff00001661ffff9092169190911790555050600380547fffffffffffffffffffffffffffffffffffffffffffffffffffffffffffffff00166001179055565b60015473ffffffffffffffffffffffffffffffffffffffff163314613733576040517f08c379a000000000000000000000000000000000000000000000000000000000815260206004820152602160248201527f4175746f6d6174653a2063616c6c6572206973206e6f7420746865206f776e6560448201527f720000000000000000000000000000000000000000000000000000000000000060648201526084016107b0565b6040517fa9059cbb00000000000000000000000000000000000000000000000000000000815273ffffffffffffffffffffffffffffffffffffffff83811660048301526024820183905284169063a9059cbb90604401602060405180830381600087803b1580156137a357600080fd5b505af11580156137b7573d6000803e3d6000fd5b505050506040513d601f19601f820116820180604052508101906137db91906150b2565b50505050565b60015473ffffffffffffffffffffffffffffffffffffffff163314613888576040517f08c379a000000000000000000000000000000000000000000000000000000000815260206004820152602160248201527f4175746f6d6174653a2063616c6c6572206973206e6f7420746865206f776e6560448201527f720000000000000000000000000000000000000000000000000000000000000060648201526084016107b0565b6040517f6b88071800000000000000000000000000000000000000000000000000000000815230600482018190529073__$0fb85c1a108326fe5c0d8f2f5a241bc0e7$__90636b8807189060240160206040518083038186803b1580156138ee57600080fd5b505af4158015613902573d6000803e3d6000fd5b505050506040513d601f19601f820116820180604052508101906139269190614e46565b73ffffffffffffffffffffffffffffffffffffffff16146139c9576040517f08c379a000000000000000000000000000000000000000000000000000000000815260206004820152602160248201527f4175746f6d6174653a206368616e676520746865206f776e6572206661696c6560448201527f640000000000000000000000000000000000000000000000000000000000000060648201526084016107b0565b6001805473ffffffffffffffffffffffffffffffffffffffff8381167fffffffffffffffffffffffff0000000000000000000000000000000000000000831681179093556040519116919082907f8be0079c531659141344cd1fd0a4f28419497f9722a3daafe3b4186f6b6457e090600090a35050565b60015473ffffffffffffffffffffffffffffffffffffffff163314613ae7576040517f08c379a000000000000000000000000000000000000000000000000000000000815260206004820152602160248201527f4175746f6d6174653a2063616c6c6572206973206e6f7420746865206f776e6560448201527f720000000000000000000000000000000000000000000000000000000000000060648201526084016107b0565b60405180608001604052808581526020018462ffffff1681526020018381526020018281525060086000820151816000019080519060200190613b2b929190614d14565b5060208201516001820180547fffffffffffffffffffffffffffffffffffffffffffffffffffffffffff0000001662ffffff9092169190911790556040820151600282015560609091015160039091015550505050565b60405173ffffffffffffffffffffffffffffffffffffffff8316602482015260448101829052613c569084907fa9059cbb00000000000000000000000000000000000000000000000000000000906064015b604080517fffffffffffffffffffffffffffffffffffffffffffffffffffffffffffffffe08184030181529190526020810180517bffffffffffffffffffffffffffffffffffffffffffffffffffffffff167fffffffff0000000000000000000000000000000000000000000000000000000090931692909217909152614a1c565b505050565b6000613c656111ae565b15613ccc576040517f08c379a000000000000000000000000000000000000000000000000000000000815260206004820152601060248201527f4175746f6d6174653a207061757365640000000000000000000000000000000060448201526064016107b0565b6000613ced60015473ffffffffffffffffffffffffffffffffffffffff1690565b90503273ffffffffffffffffffffffffffffffffffffffff82161415613d17576000915050613f27565b6000613d21610405565b6040517f21f8a7210000000000000000000000000000000000000000000000000000000081527fe78c16c6d839536d3155985aab4e9c6013c8c3d446054bcebc48612f359d81f5600482015290915060009073ffffffffffffffffffffffffffffffffffffffff8316906321f8a7219060240160206040518083038186803b158015613dac57600080fd5b505afa158015613dc0573d6000803e3d6000fd5b505050506040513d601f19601f82011682018060405250810190613de49190614e46565b905073ffffffffffffffffffffffffffffffffffffffff8116613e89576040517f08c379a000000000000000000000000000000000000000000000000000000000815260206004820152602b60248201527f4175746f6d6174653a3a5f62696c6c3a2062616c616e636520636f6e7472616360448201527f74206e6f7420666f756e6400000000000000000000000000000000000000000060648201526084016107b0565b8073ffffffffffffffffffffffffffffffffffffffff1663e578a2258488613eaf612770565b896040518563ffffffff1660e01b8152600401613ecf949392919061538f565b602060405180830381600087803b158015613ee957600080fd5b505af1158015613efd573d6000803e3d6000fd5b505050506040513d601f19601f82011682018060405250810190613f219190615122565b93505050505b92915050565b801580613fdc57506040517fdd62ed3e00000000000000000000000000000000000000000000000000000000815230600482015273ffffffffffffffffffffffffffffffffffffffff838116602483015284169063dd62ed3e9060440160206040518083038186803b158015613fa257600080fd5b505afa158015613fb6573d6000803e3d6000fd5b505050506040513d601f19601f82011682018060405250810190613fda9190615122565b155b614068576040517f08c379a000000000000000000000000000000000000000000000000000000000815260206004820152603660248201527f5361666545524332303a20617070726f76652066726f6d206e6f6e2d7a65726f60448201527f20746f206e6f6e2d7a65726f20616c6c6f77616e63650000000000000000000060648201526084016107b0565b60405173ffffffffffffffffffffffffffffffffffffffff8316602482015260448101829052613c569084907f095ea7b30000000000000000000000000000000000000000000000000000000090606401613bd4565b825460011080156140d3575060008360020154115b61415f576040517f08c379a000000000000000000000000000000000000000000000000000000000815260206004820152602160248201527f53746f704c6f73733a3a72756e3a2073746f70206c6f73732064697361626c6560448201527f640000000000000000000000000000000000000000000000000000000000000060648201526084016107b0565b610100815111156141cc576040517f08c379a000000000000000000000000000000000000000000000000000000000815260206004820152601e60248201527f53746f704c6f73733a3a72756e3a20746f6f206d616e7920746f6b656e73000060448201526064016107b0565b60005b81518160ff1610156144eb576000828260ff16815181106141f2576141f26155df565b6020026020010151905084600001600081548110614212576142126155df565b60009182526020909120015473ffffffffffffffffffffffffffffffffffffffff8281169116141561424457506144d9565b6040517f70a0823100000000000000000000000000000000000000000000000000000000815230600482015260009073ffffffffffffffffffffffffffffffffffffffff8316906370a082319060240160206040518083038186803b1580156142ac57600080fd5b505afa1580156142c0573d6000803e3d6000fd5b505050506040513d601f19601f820116820180604052508101906142e49190615122565b9050806142f25750506144d9565b61431373ffffffffffffffffffffffffffffffffffffffff83168683613f2d565b8473ffffffffffffffffffffffffffffffffffffffff166304e45aaf6040518060e001604052808573ffffffffffffffffffffffffffffffffffffffff1681526020018960000160008154811061436c5761436c6155df565b600091825260208083209091015473ffffffffffffffffffffffffffffffffffffffff16835260018c015462ffffff169083015230604080840191909152606083018790526080830182905260a090920152517fffffffff0000000000000000000000000000000000000000000000000000000060e084901b1681526144619190600401600060e08201905073ffffffffffffffffffffffffffffffffffffffff80845116835280602085015116602084015262ffffff60408501511660408401528060608501511660608401526080840151608084015260a084015160a08401528060c08501511660c08401525092915050565b602060405180830381600087803b15801561447b57600080fd5b505af115801561448f573d6000803e3d6000fd5b505050506040513d601f19601f820116820180604052508101906144b39190615122565b506144d673ffffffffffffffffffffffffffffffffffffffff8316866000613f2d565b50505b806144e381615590565b9150506141cf565b50600083600001600081548110614504576145046155df565b60009182526020822001546040517f70a0823100000000000000000000000000000000000000000000000000000000815230600482015273ffffffffffffffffffffffffffffffffffffffff909116925082906370a082319060240160206040518083038186803b15801561457857600080fd5b505afa15801561458c573d6000803e3d6000fd5b505050506040513d601f19601f820116820180604052508101906145b09190615122565b8554909150819086906145c590600190615514565b815481106145d5576145d56155df565b60009182526020909120015473ffffffffffffffffffffffffffffffffffffffff8481169116146149595760008211614690576040517f08c379a000000000000000000000000000000000000000000000000000000000815260206004820152603160248201527f53746f704c6f73733a3a72756e3a20696e73756666696369656e742062616c6160448201527f6e6365206f66206261736520746f6b656e00000000000000000000000000000060648201526084016107b0565b6146b173ffffffffffffffffffffffffffffffffffffffff84168684613f2d565b6000866000016000815481106146c9576146c96155df565b600091825260209182902001546040516147279273ffffffffffffffffffffffffffffffffffffffff909216910160609190911b7fffffffffffffffffffffffffffffffffffffffff00000000000000000000000016815260140190565b604080517fffffffffffffffffffffffffffffffffffffffffffffffffffffffffffffffe0818403018152919052905060015b875481101561486d5760018801548854839162ffffff16908a9084908110614784576147846155df565b6000918252602091829020015460405161480d939273ffffffffffffffffffffffffffffffffffffffff909216910160e89290921b7fffffff000000000000000000000000000000000000000000000000000000000016825260601b7fffffffffffffffffffffffffffffffffffffffff00000000000000000000000016600382015260170190565b604080517fffffffffffffffffffffffffffffffffffffffffffffffffffffffffffffffe0818403018152908290526148499291602001615360565b6040516020818303038152906040529150808061486590615557565b91505061475a565b50604080516080810182528281523060208201528082018590526003890154606082015290517fb858183f00000000000000000000000000000000000000000000000000000000815273ffffffffffffffffffffffffffffffffffffffff88169163b858183f916148e19190600401615440565b602060405180830381600087803b1580156148fb57600080fd5b505af115801561490f573d6000803e3d6000fd5b505050506040513d601f19601f820116820180604052508101906149339190615122565b915061495773ffffffffffffffffffffffffffffffffffffffff8516876000613f2d565b505b85600201548111156149ec576040517f08c379a0000000000000000000000000000000000000000000000000000000008152602060048201526024808201527f53746f704c6f73733a3a72756e3a20696e76616c6964206f757470757420616d60448201527f6f756e740000000000000000000000000000000000000000000000000000000060648201526084016107b0565b6040518181527ff22ed879bd57fced893edba2366c8143c0d7c2e585eafd2521c2832159d557f190602001613208565b6000614a7e826040518060400160405280602081526020017f5361666545524332303a206c6f772d6c6576656c2063616c6c206661696c65648152508573ffffffffffffffffffffffffffffffffffffffff16614b289092919063ffffffff16565b805190915015613c565780806020019051810190614a9c91906150b2565b613c56576040517f08c379a000000000000000000000000000000000000000000000000000000000815260206004820152602a60248201527f5361666545524332303a204552433230206f7065726174696f6e20646964206e60448201527f6f7420737563636565640000000000000000000000000000000000000000000060648201526084016107b0565b6060614b378484600085614b41565b90505b9392505050565b606082471015614bd3576040517f08c379a000000000000000000000000000000000000000000000000000000000815260206004820152602660248201527f416464726573733a20696e73756666696369656e742062616c616e636520666f60448201527f722063616c6c000000000000000000000000000000000000000000000000000060648201526084016107b0565b843b614c3b576040517f08c379a000000000000000000000000000000000000000000000000000000000815260206004820152601d60248201527f416464726573733a2063616c6c20746f206e6f6e2d636f6e747261637400000060448201526064016107b0565b6000808673ffffffffffffffffffffffffffffffffffffffff168587604051614c649190615344565b60006040518083038185875af1925050503d8060008114614ca1576040519150601f19603f3d011682016040523d82523d6000602084013e614ca6565b606091505b5091509150614cb6828286614cc1565b979650505050505050565b60608315614cd0575081614b3a565b825115614ce05782518084602001fd5b816040517f08c379a00000000000000000000000000000000000000000000000000000000081526004016107b091906153d4565b828054828255906000526020600020908101928215614d8e579160200282015b82811115614d8e57825182547fffffffffffffffffffffffff00000000000000000000000000000000000000001673ffffffffffffffffffffffffffffffffffffffff909116178255602090920191600190910190614d34565b50614d9a929150614d9e565b5090565b5b80821115614d9a5760008155600101614d9f565b8035614dbe8161563d565b919050565b8051614dbe8161563d565b8051614dbe81615662565b80516fffffffffffffffffffffffffffffffff81168114614dbe57600080fd5b8035614dbe81615671565b8051614dbe81615671565b805169ffffffffffffffffffff81168114614dbe57600080fd5b600060208284031215614e3b57600080fd5b8135614b3a8161563d565b600060208284031215614e5857600080fd5b8151614b3a8161563d565b60008060008060808587031215614e7957600080fd5b8435614e848161563d565b93506020850135614e948161563d565b92506040850135614ea48161563d565b9150606085013561ffff81168114614ebb57600080fd5b939692955090935050565b600080600060608486031215614edb57600080fd5b8335614ee68161563d565b92506020840135614ef68161563d565b929592945050506040919091013590565b600080600080600060808688031215614f1f57600080fd5b8535614f2a8161563d565b94506020860135614f3a8161563d565b935060408601359250606086013567ffffffffffffffff80821115614f5e57600080fd5b818801915088601f830112614f7257600080fd5b813581811115614f8157600080fd5b896020828501011115614f9357600080fd5b9699959850939650602001949392505050565b60008060008060808587031215614fbc57600080fd5b843567ffffffffffffffff80821115614fd457600080fd5b818701915087601f830112614fe857600080fd5b8135602082821115614ffc57614ffc61560e565b8160051b6040517fffffffffffffffffffffffffffffffffffffffffffffffffffffffffffffffe0603f8301168101818110868211171561503f5761503f61560e565b604052838152828101945085830182870184018d101561505e57600080fd5b600096505b848710156150885761507481614db3565b865260019690960195948301948301615063565b5098506150989050898201614df9565b979a97995050505060408601359560600135949350505050565b6000602082840312156150c457600080fd5b81518015158114614b3a57600080fd5b6000602082840312156150e657600080fd5b5035919050565b60008060006060848603121561510257600080fd5b61510b84614dd9565b925060208401519150604084015190509250925092565b60006020828403121561513457600080fd5b5051919050565b6000806000806080858703121561515157600080fd5b84359350602085013561516381615662565b9250604085013561517381615662565b9396929550929360600135925050565b6000806040838503121561519657600080fd5b50508035926020909101359150565b600080604083850312156151b857600080fd5b505080516020909101519092909150565b600080600080600060a086880312156151e157600080fd5b6151ea86614e0f565b945060208601519350604086015192506060860151915061520d60808701614e0f565b90509295509295909350565b6000806000806000806000806000806000806101808d8f03121561523c57600080fd5b8c516bffffffffffffffffffffffff8116811461525857600080fd5b9b5061526660208e01614dc3565b9a5061527460408e01614dc3565b995061528260608e01614dc3565b985061529060808e01614e04565b975061529e60a08e01614dce565b96506152ac60c08e01614dce565b95506152ba60e08e01614dd9565b94506101008d015193506101208d015192506152d96101408e01614dd9565b91506152e86101608e01614dd9565b90509295989b509295989b509295989b565b6000815180845261531281602086016020860161552b565b601f017fffffffffffffffffffffffffffffffffffffffffffffffffffffffffffffffe0169290920160200192915050565b6000825161535681846020870161552b565b9190910192915050565b6000835161537281846020880161552b565b83519083019061538681836020880161552b565b01949350505050565b73ffffffffffffffffffffffffffffffffffffffff851681528360208201528260408201526080606082015260006153ca60808301846152fa565b9695505050505050565b602081526000614b3a60208301846152fa565b8151815260208083015173ffffffffffffffffffffffffffffffffffffffff16908201526040808301516fffffffffffffffffffffffffffffffff90811691830191909152606092830151169181019190915260800190565b60208152600082516080602084015261545c60a08401826152fa565b905073ffffffffffffffffffffffffffffffffffffffff602085015116604084015260408401516060840152606084015160808401528091505092915050565b6000826154d2577f4e487b7100000000000000000000000000000000000000000000000000000000600052601260045260246000fd5b500490565b6000817fffffffffffffffffffffffffffffffffffffffffffffffffffffffffffffffff048311821515161561550f5761550f6155b0565b500290565b600082821015615526576155266155b0565b500390565b60005b8381101561554657818101518382015260200161552e565b838111156137db5750506000910152565b60007fffffffffffffffffffffffffffffffffffffffffffffffffffffffffffffffff821415615589576155896155b0565b5060010190565b600060ff821660ff8114156155a7576155a76155b0565b60010192915050565b7f4e487b7100000000000000000000000000000000000000000000000000000000600052601160045260246000fd5b7f4e487b7100000000000000000000000000000000000000000000000000000000600052603260045260246000fd5b7f4e487b7100000000000000000000000000000000000000000000000000000000600052604160045260246000fd5b73ffffffffffffffffffffffffffffffffffffffff8116811461565f57600080fd5b50565b8060020b811461565f57600080fd5b62ffffff8116811461565f57600080fdfea164736f6c6343000806000a",
  "linkReferences": {
    "contracts/utils/DFH/proxy/ERC1167.sol": {
      "ERC1167": [
        {
          "length": 20,
          "start": 1251
        },
        {
          "length": 20,
          "start": 1603
        },
        {
          "length": 20,
          "start": 4748
        },
        {
          "length": 20,
          "start": 6922
        },
        {
          "length": 20,
          "start": 9746
        },
        {
          "length": 20,
          "start": 10318
        },
        {
          "length": 20,
          "start": 14692
        }
      ]
    },
    "contracts/utils/UniswapV3/Rebalance.sol": {
      "Rebalance": [
        {
          "length": 20,
          "start": 4361
        }
      ]
    }
  },
  "deployedLinkReferences": {
    "contracts/utils/DFH/proxy/ERC1167.sol": {
      "ERC1167": [
        {
          "length": 20,
          "start": 1080
        },
        {
          "length": 20,
          "start": 1432
        },
        {
          "length": 20,
          "start": 4577
        },
        {
          "length": 20,
          "start": 6751
        },
        {
          "length": 20,
          "start": 9575
        },
        {
          "length": 20,
          "start": 10147
        },
        {
          "length": 20,
          "start": 14521
        }
      ]
    },
    "contracts/utils/UniswapV3/Rebalance.sol": {
      "Rebalance": [
        {
          "length": 20,
          "start": 4190
        }
      ]
    }
  }
}