{
  "_format": "hh-sol-artifact-1",
  "contractName": "MasterChefV2SingleRestake",
  "sourceName": "contracts/MasterChefV2SingleRestake.automate.sol",
  "abi": [
    {
      "inputs": [
        {
          "internalType": "address",
          "name": "_info",
          "type": "address"
        }
      ],
      "stateMutability": "nonpayable",
      "type": "constructor"
    },
    {
      "anonymous": false,
      "inputs": [
        {
          "indexed": true,
          "internalType": "address",
          "name": "previousOwner",
          "type": "address"
        },
        {
          "indexed": true,
          "internalType": "address",
          "name": "newOwner",
          "type": "address"
        }
      ],
      "name": "OwnershipTransferred",
      "type": "event"
    },
    {
      "anonymous": false,
      "inputs": [
        {
          "indexed": false,
          "internalType": "int256",
          "name": "protocolFee",
          "type": "int256"
        }
      ],
      "name": "ProtocolFeeChanged",
      "type": "event"
    },
    {
      "inputs": [
        {
          "internalType": "int256",
          "name": "__protocolFee",
          "type": "int256"
        }
      ],
      "name": "changeProtocolFee",
      "outputs": [],
      "stateMutability": "nonpayable",
      "type": "function"
    },
    {
      "inputs": [],
      "name": "deadline",
      "outputs": [
        {
          "internalType": "uint16",
          "name": "",
          "type": "uint16"
        }
      ],
      "stateMutability": "view",
      "type": "function"
    },
    {
      "inputs": [],
      "name": "deposit",
      "outputs": [],
      "stateMutability": "nonpayable",
      "type": "function"
    },
    {
      "inputs": [],
      "name": "emergencyWithdraw",
      "outputs": [],
      "stateMutability": "nonpayable",
      "type": "function"
    },
    {
      "inputs": [],
      "name": "info",
      "outputs": [
        {
          "internalType": "address",
          "name": "",
          "type": "address"
        }
      ],
      "stateMutability": "view",
      "type": "function"
    },
    {
      "inputs": [
        {
          "internalType": "address",
          "name": "_staking",
          "type": "address"
        },
        {
          "internalType": "address",
          "name": "_liquidityRouter",
          "type": "address"
        },
        {
          "internalType": "uint256",
          "name": "_pool",
          "type": "uint256"
        },
        {
          "internalType": "uint16",
          "name": "_slippage",
          "type": "uint16"
        },
        {
          "internalType": "uint16",
          "name": "_deadline",
          "type": "uint16"
        }
      ],
      "name": "init",
      "outputs": [],
      "stateMutability": "nonpayable",
      "type": "function"
    },
    {
      "inputs": [],
      "name": "liquidityRouter",
      "outputs": [
        {
          "internalType": "address",
          "name": "",
          "type": "address"
        }
      ],
      "stateMutability": "view",
      "type": "function"
    },
    {
      "inputs": [],
      "name": "owner",
      "outputs": [
        {
          "internalType": "address",
          "name": "",
          "type": "address"
        }
      ],
      "stateMutability": "view",
      "type": "function"
    },
    {
      "inputs": [],
      "name": "pause",
      "outputs": [],
      "stateMutability": "nonpayable",
      "type": "function"
    },
    {
      "inputs": [],
      "name": "paused",
      "outputs": [
        {
          "internalType": "bool",
          "name": "",
          "type": "bool"
        }
      ],
      "stateMutability": "view",
      "type": "function"
    },
    {
      "inputs": [],
      "name": "pool",
      "outputs": [
        {
          "internalType": "uint256",
          "name": "",
          "type": "uint256"
        }
      ],
      "stateMutability": "view",
      "type": "function"
    },
    {
      "inputs": [],
      "name": "protocolFee",
      "outputs": [
        {
          "internalType": "uint256",
          "name": "",
          "type": "uint256"
        }
      ],
      "stateMutability": "view",
      "type": "function"
    },
    {
      "inputs": [],
      "name": "refund",
      "outputs": [],
      "stateMutability": "nonpayable",
      "type": "function"
    },
    {
      "inputs": [],
      "name": "rewardToken",
      "outputs": [
        {
          "internalType": "contract IERC20",
          "name": "",
          "type": "address"
        }
      ],
      "stateMutability": "view",
      "type": "function"
    },
    {
      "inputs": [
        {
          "internalType": "uint256",
          "name": "gasFee",
          "type": "uint256"
        },
        {
          "internalType": "uint256",
          "name": "_deadline",
          "type": "uint256"
        },
        {
          "components": [
            {
              "internalType": "address[]",
              "name": "path",
              "type": "address[]"
            },
            {
              "internalType": "uint256",
              "name": "outMin",
              "type": "uint256"
            }
          ],
          "internalType": "struct MasterChefV2SingleRestake.Swap",
          "name": "swap",
          "type": "tuple"
        }
      ],
      "name": "run",
      "outputs": [],
      "stateMutability": "nonpayable",
      "type": "function"
    },
    {
      "inputs": [],
      "name": "slippage",
      "outputs": [
        {
          "internalType": "uint16",
          "name": "",
          "type": "uint16"
        }
      ],
      "stateMutability": "view",
      "type": "function"
    },
    {
      "inputs": [],
      "name": "staking",
      "outputs": [
        {
          "internalType": "contract IMasterChefV2",
          "name": "",
          "type": "address"
        }
      ],
      "stateMutability": "view",
      "type": "function"
    },
    {
      "inputs": [],
      "name": "stakingToken",
      "outputs": [
        {
          "internalType": "contract IERC20",
          "name": "",
          "type": "address"
        }
      ],
      "stateMutability": "view",
      "type": "function"
    },
    {
      "inputs": [
        {
          "internalType": "address",
          "name": "token",
          "type": "address"
        },
        {
          "internalType": "address",
          "name": "recipient",
          "type": "address"
        },
        {
          "internalType": "uint256",
          "name": "amount",
          "type": "uint256"
        }
      ],
      "name": "transfer",
      "outputs": [],
      "stateMutability": "nonpayable",
      "type": "function"
    },
    {
      "inputs": [
        {
          "internalType": "address",
          "name": "newOwner",
          "type": "address"
        }
      ],
      "name": "transferOwnership",
      "outputs": [],
      "stateMutability": "nonpayable",
      "type": "function"
    },
    {
      "inputs": [],
      "name": "unpause",
      "outputs": [],
      "stateMutability": "nonpayable",
      "type": "function"
    }
  ],
  "bytecode": "0x60806040523480156200001157600080fd5b5060405162004a2e38038062004a2e8339818101604052810190620000379190620000ff565b80806000806101000a81548173ffffffffffffffffffffffffffffffffffffffff021916908373ffffffffffffffffffffffffffffffffffffffff16021790555032600160006101000a81548173ffffffffffffffffffffffffffffffffffffffff021916908373ffffffffffffffffffffffffffffffffffffffff1602179055507fffffffffffffffffffffffffffffffffffffffffffffffffffffffffffffffff600281905550505062000184565b600081519050620000f9816200016a565b92915050565b60006020828403121562000118576200011762000165565b5b60006200012884828501620000e8565b91505092915050565b60006200013e8262000145565b9050919050565b600073ffffffffffffffffffffffffffffffffffffffff82169050919050565b600080fd5b620001758162000131565b81146200018157600080fd5b50565b61489a80620001946000396000f3fe608060405234801561001057600080fd5b50600436106101375760003560e01c806372f702f3116100b8578063b838d9141161007c578063b838d914146102be578063beabacc8146102da578063d0e30db0146102f6578063db2e21bc14610300578063f2fde38b1461030a578063f7c618c11461032657610137565b806372f702f31461023e5780638456cb591461025c5780638da5cb5b146102665780639742b5c314610284578063b0e21e8a146102a057610137565b80633e032a3b116100ff5780633e032a3b146101d05780633f4ba83a146101ee5780634cf088d9146101f8578063590e1ae3146102165780635c975abb1461022057610137565b806313ead7c61461013c57806316f0115b14610158578063247029441461017657806329dcb0cf14610194578063370158ea146101b2575b600080fd5b6101566004803603810190610151919061381f565b610344565b005b61016061077b565b60405161016d9190613f20565b60405180910390f35b61017e610781565b60405161018b9190613c1c565b60405180910390f35b61019c6107a7565b6040516101a99190613f05565b60405180910390f35b6101ba6107bb565b6040516101c79190613c1c565b60405180910390f35b6101d8610941565b6040516101e59190613f05565b60405180910390f35b6101f6610955565b005b610200610c9c565b60405161020d9190613d4f565b60405180910390f35b61021e610cc2565b005b610228611141565b6040516102359190613cfe565b60405180910390f35b6102466112cd565b6040516102539190613d34565b60405180910390f35b6102646112f3565b005b61026e61163a565b60405161027b9190613c1c565b60405180910390f35b61029e600480360381019061029991906136e8565b611664565b005b6102a8611890565b6040516102b59190613f20565b60405180910390f35b6102d860048036038101906102d391906135f7565b611c77565b005b6102f460048036038101906102ef91906135a4565b612249565b005b6102fe61236c565b005b610308612592565b005b610324600480360381019061031f919061354a565b612974565b005b61032e612bd6565b60405161033b9190613d34565b60405180910390f35b8260405180606001604052806026815260200161483f602691396103688282612bfc565b506000600360019054906101000a900473ffffffffffffffffffffffffffffffffffffffff1690506000600660049054906101000a900473ffffffffffffffffffffffffffffffffffffffff16905060008273ffffffffffffffffffffffffffffffffffffffff1663ffcd4263600554306040518363ffffffff1660e01b81526004016103f6929190613f3b565b60006040518083038186803b15801561040e57600080fd5b505afa158015610422573d6000803e3d6000fd5b505050506040513d6000823e3d601f19601f8201168201806040525081019061044b919061379c565b505050905060008111610493576040517f08c379a000000000000000000000000000000000000000000000000000000000815260040161048a90613e05565b60405180910390fd5b8273ffffffffffffffffffffffffffffffffffffffff1663e2bbb15860055460006040518363ffffffff1660e01b81526004016104d1929190613f64565b600060405180830381600087803b1580156104eb57600080fd5b505af11580156104ff573d6000803e3d6000fd5b505050506000600760009054906101000a900473ffffffffffffffffffffffffffffffffffffffff1673ffffffffffffffffffffffffffffffffffffffff166370a08231306040518263ffffffff1660e01b81526004016105609190613c1c565b60206040518083038186803b15801561057857600080fd5b505afa15801561058c573d6000803e3d6000fd5b505050506040513d601f19601f820116820180604052508101906105b0919061376f565b9050610621600460009054906101000a900473ffffffffffffffffffffffffffffffffffffffff1682600760009054906101000a900473ffffffffffffffffffffffffffffffffffffffff1673ffffffffffffffffffffffffffffffffffffffff16612e5d9092919063ffffffff16565b610648876000015160405180604001604052808481526020018a602001518152508a61302d565b60008373ffffffffffffffffffffffffffffffffffffffff166370a08231306040518263ffffffff1660e01b81526004016106839190613c1c565b60206040518083038186803b15801561069b57600080fd5b505afa1580156106af573d6000803e3d6000fd5b505050506040513d601f19601f820116820180604052508101906106d3919061376f565b905061070085828673ffffffffffffffffffffffffffffffffffffffff16612e5d9092919063ffffffff16565b8473ffffffffffffffffffffffffffffffffffffffff1663e2bbb158600554836040518363ffffffff1660e01b815260040161073d929190613f8d565b600060405180830381600087803b15801561075757600080fd5b505af115801561076b573d6000803e3d6000fd5b5050505050505050505050505050565b60055481565b600460009054906101000a900473ffffffffffffffffffffffffffffffffffffffff1681565b600660029054906101000a900461ffff1681565b6000803073ffffffffffffffffffffffffffffffffffffffff1673__$0fb85c1a108326fe5c0d8f2f5a241bc0e7$__636b88071890916040518263ffffffff1660e01b815260040161080d9190613c01565b60206040518083038186803b15801561082557600080fd5b505af4158015610839573d6000803e3d6000fd5b505050506040513d601f19601f8201168201806040525081019061085d9190613577565b90503073ffffffffffffffffffffffffffffffffffffffff168173ffffffffffffffffffffffffffffffffffffffff1614156108bc5760008054906101000a900473ffffffffffffffffffffffffffffffffffffffff1691505061093e565b8073ffffffffffffffffffffffffffffffffffffffff1663370158ea6040518163ffffffff1660e01b815260040160206040518083038186803b15801561090257600080fd5b505afa158015610916573d6000803e3d6000fd5b505050506040513d601f19601f8201168201806040525081019061093a9190613577565b9150505b90565b600660009054906101000a900461ffff1681565b3073ffffffffffffffffffffffffffffffffffffffff163073ffffffffffffffffffffffffffffffffffffffff1673__$0fb85c1a108326fe5c0d8f2f5a241bc0e7$__636b88071890916040518263ffffffff1660e01b81526004016109bb9190613c01565b60206040518083038186803b1580156109d357600080fd5b505af41580156109e7573d6000803e3d6000fd5b505050506040513d601f19601f82011682018060405250810190610a0b9190613577565b73ffffffffffffffffffffffffffffffffffffffff161415610ba7576000610a316107bb565b73ffffffffffffffffffffffffffffffffffffffff166321f8a7217f689d13d8ed8ef1027633ba26e7121121cf427434450a529548f19bf1759743956040518263ffffffff1660e01b8152600401610a899190613d19565b60206040518083038186803b158015610aa157600080fd5b505afa158015610ab5573d6000803e3d6000fd5b505050506040513d601f19601f82011682018060405250810190610ad99190613577565b9050600160009054906101000a900473ffffffffffffffffffffffffffffffffffffffff1673ffffffffffffffffffffffffffffffffffffffff163373ffffffffffffffffffffffffffffffffffffffff161480610b6257508073ffffffffffffffffffffffffffffffffffffffff163373ffffffffffffffffffffffffffffffffffffffff16145b610ba1576040517f08c379a0000000000000000000000000000000000000000000000000000000008152600401610b9890613ee5565b60405180910390fd5b50610c38565b600160009054906101000a900473ffffffffffffffffffffffffffffffffffffffff1673ffffffffffffffffffffffffffffffffffffffff163373ffffffffffffffffffffffffffffffffffffffff1614610c37576040517f08c379a0000000000000000000000000000000000000000000000000000000008152600401610c2e90613ee5565b60405180910390fd5b5b610c40611141565b610c7f576040517f08c379a0000000000000000000000000000000000000000000000000000000008152600401610c7690613e65565b60405180910390fd5b6000600160146101000a81548160ff021916908315150217905550565b600360019054906101000a900473ffffffffffffffffffffffffffffffffffffffff1681565b3373ffffffffffffffffffffffffffffffffffffffff16600160009054906101000a900473ffffffffffffffffffffffffffffffffffffffff1673ffffffffffffffffffffffffffffffffffffffff1614610d52576040517f08c379a0000000000000000000000000000000000000000000000000000000008152600401610d4990613d85565b60405180910390fd5b6000600360019054906101000a900473ffffffffffffffffffffffffffffffffffffffff1690506000610d8361163a565b905060008273ffffffffffffffffffffffffffffffffffffffff166393f1a40b600554306040518363ffffffff1660e01b8152600401610dc4929190613f3b565b604080518083038186803b158015610ddb57600080fd5b505afa158015610def573d6000803e3d6000fd5b505050506040513d601f19601f82011682018060405250810190610e139190613742565b90508273ffffffffffffffffffffffffffffffffffffffff1663441a3e7060055483600001516040518363ffffffff1660e01b8152600401610e56929190613f8d565b600060405180830381600087803b158015610e7057600080fd5b505af1158015610e84573d6000803e3d6000fd5b50505050600660049054906101000a900473ffffffffffffffffffffffffffffffffffffffff1673ffffffffffffffffffffffffffffffffffffffff1663a9059cbb83600660049054906101000a900473ffffffffffffffffffffffffffffffffffffffff1673ffffffffffffffffffffffffffffffffffffffff166370a08231306040518263ffffffff1660e01b8152600401610f229190613c1c565b60206040518083038186803b158015610f3a57600080fd5b505afa158015610f4e573d6000803e3d6000fd5b505050506040513d601f19601f82011682018060405250810190610f72919061376f565b6040518363ffffffff1660e01b8152600401610f8f929190613c89565b602060405180830381600087803b158015610fa957600080fd5b505af1158015610fbd573d6000803e3d6000fd5b505050506040513d601f19601f82011682018060405250810190610fe191906136bb565b50600760009054906101000a900473ffffffffffffffffffffffffffffffffffffffff1673ffffffffffffffffffffffffffffffffffffffff1663a9059cbb83600760009054906101000a900473ffffffffffffffffffffffffffffffffffffffff1673ffffffffffffffffffffffffffffffffffffffff166370a08231306040518263ffffffff1660e01b815260040161107c9190613c1c565b60206040518083038186803b15801561109457600080fd5b505afa1580156110a8573d6000803e3d6000fd5b505050506040513d601f19601f820116820180604052508101906110cc919061376f565b6040518363ffffffff1660e01b81526004016110e9929190613c89565b602060405180830381600087803b15801561110357600080fd5b505af1158015611117573d6000803e3d6000fd5b505050506040513d601f19601f8201168201806040525081019061113b91906136bb565b50505050565b6000803073ffffffffffffffffffffffffffffffffffffffff1673__$0fb85c1a108326fe5c0d8f2f5a241bc0e7$__636b88071890916040518263ffffffff1660e01b81526004016111939190613c01565b60206040518083038186803b1580156111ab57600080fd5b505af41580156111bf573d6000803e3d6000fd5b505050506040513d601f19601f820116820180604052508101906111e39190613577565b90503073ffffffffffffffffffffffffffffffffffffffff168173ffffffffffffffffffffffffffffffffffffffff16141561123157600160149054906101000a900460ff169150506112ca565b600160149054906101000a900460ff16806112c657508073ffffffffffffffffffffffffffffffffffffffff16635c975abb6040518163ffffffff1660e01b815260040160206040518083038186803b15801561128d57600080fd5b505afa1580156112a1573d6000803e3d6000fd5b505050506040513d601f19601f820116820180604052508101906112c591906136bb565b5b9150505b90565b600660049054906101000a900473ffffffffffffffffffffffffffffffffffffffff1681565b3073ffffffffffffffffffffffffffffffffffffffff163073ffffffffffffffffffffffffffffffffffffffff1673__$0fb85c1a108326fe5c0d8f2f5a241bc0e7$__636b88071890916040518263ffffffff1660e01b81526004016113599190613c01565b60206040518083038186803b15801561137157600080fd5b505af4158015611385573d6000803e3d6000fd5b505050506040513d601f19601f820116820180604052508101906113a99190613577565b73ffffffffffffffffffffffffffffffffffffffff1614156115455760006113cf6107bb565b73ffffffffffffffffffffffffffffffffffffffff166321f8a7217f689d13d8ed8ef1027633ba26e7121121cf427434450a529548f19bf1759743956040518263ffffffff1660e01b81526004016114279190613d19565b60206040518083038186803b15801561143f57600080fd5b505afa158015611453573d6000803e3d6000fd5b505050506040513d601f19601f820116820180604052508101906114779190613577565b9050600160009054906101000a900473ffffffffffffffffffffffffffffffffffffffff1673ffffffffffffffffffffffffffffffffffffffff163373ffffffffffffffffffffffffffffffffffffffff16148061150057508073ffffffffffffffffffffffffffffffffffffffff163373ffffffffffffffffffffffffffffffffffffffff16145b61153f576040517f08c379a000000000000000000000000000000000000000000000000000000000815260040161153690613ee5565b60405180910390fd5b506115d6565b600160009054906101000a900473ffffffffffffffffffffffffffffffffffffffff1673ffffffffffffffffffffffffffffffffffffffff163373ffffffffffffffffffffffffffffffffffffffff16146115d5576040517f08c379a00000000000000000000000000000000000000000000000000000000081526004016115cc90613ee5565b60405180910390fd5b5b6115de611141565b1561161e576040517f08c379a000000000000000000000000000000000000000000000000000000000815260040161161590613e45565b60405180910390fd5b60018060146101000a81548160ff021916908315150217905550565b6000600160009054906101000a900473ffffffffffffffffffffffffffffffffffffffff16905090565b60003073ffffffffffffffffffffffffffffffffffffffff1673__$0fb85c1a108326fe5c0d8f2f5a241bc0e7$__636b88071890916040518263ffffffff1660e01b81526004016116b59190613c01565b60206040518083038186803b1580156116cd57600080fd5b505af41580156116e1573d6000803e3d6000fd5b505050506040513d601f19601f820116820180604052508101906117059190613577565b90503373ffffffffffffffffffffffffffffffffffffffff163073ffffffffffffffffffffffffffffffffffffffff168273ffffffffffffffffffffffffffffffffffffffff16146117d4578173ffffffffffffffffffffffffffffffffffffffff16638da5cb5b6040518163ffffffff1660e01b815260040160206040518083038186803b15801561179757600080fd5b505afa1580156117ab573d6000803e3d6000fd5b505050506040513d601f19601f820116820180604052508101906117cf9190613577565b6117f8565b600160009054906101000a900473ffffffffffffffffffffffffffffffffffffffff165b73ffffffffffffffffffffffffffffffffffffffff161461184e576040517f08c379a000000000000000000000000000000000000000000000000000000000815260040161184590613da5565b60405180910390fd5b816002819055507f3c1d43943224e49d951ce8295a5c8332b517083b3f89bed50feae2cb39caebb5826040516118849190613d6a565b60405180910390a15050565b6000803073ffffffffffffffffffffffffffffffffffffffff1673__$0fb85c1a108326fe5c0d8f2f5a241bc0e7$__636b88071890916040518263ffffffff1660e01b81526004016118e29190613c01565b60206040518083038186803b1580156118fa57600080fd5b505af415801561190e573d6000803e3d6000fd5b505050506040513d601f19601f820116820180604052508101906119329190613577565b90503073ffffffffffffffffffffffffffffffffffffffff168173ffffffffffffffffffffffffffffffffffffffff161415801561197257506000600254125b156119fd578073ffffffffffffffffffffffffffffffffffffffff1663b0e21e8a6040518163ffffffff1660e01b815260040160206040518083038186803b1580156119bd57600080fd5b505afa1580156119d1573d6000803e3d6000fd5b505050506040513d601f19601f820116820180604052508101906119f5919061376f565b915050611c74565b6000611a076107bb565b905060008060025412611a1c57600254611ac6565b8173ffffffffffffffffffffffffffffffffffffffff1663bd02d0f57fa93d95f96a5de25d7a41ddf1f5e8d45cfc929c4838163cf011dab4043a4a40d56040518263ffffffff1660e01b8152600401611a759190613d19565b60206040518083038186803b158015611a8d57600080fd5b505afa158015611aa1573d6000803e3d6000fd5b505050506040513d601f19601f82011682018060405250810190611ac5919061376f565b5b90506000811415611add5760009350505050611c74565b60008273ffffffffffffffffffffffffffffffffffffffff166321f8a7217f65c90423fe7c880476633a7e36521740f87199d233dc56eb4ca6643eb76f605f6040518263ffffffff1660e01b8152600401611b389190613d19565b60206040518083038186803b158015611b5057600080fd5b505afa158015611b64573d6000803e3d6000fd5b505050506040513d601f19601f82011682018060405250810190611b889190613577565b73ffffffffffffffffffffffffffffffffffffffff1663feaf968c6040518163ffffffff1660e01b815260040160a06040518083038186803b158015611bcd57600080fd5b505afa158015611be1573d6000803e3d6000fd5b505050506040513d601f19601f82011682018060405250810190611c05919061388e565b50505091505060008113611c4e576040517f08c379a0000000000000000000000000000000000000000000000000000000008152600401611c4590613ec5565b60405180910390fd5b80670de0b6b3a764000083611c639190614144565b611c6d9190614113565b9450505050505b90565b600073ffffffffffffffffffffffffffffffffffffffff16600160009054906101000a900473ffffffffffffffffffffffffffffffffffffffff1673ffffffffffffffffffffffffffffffffffffffff161415611d3b5732600160006101000a81548173ffffffffffffffffffffffffffffffffffffffff021916908373ffffffffffffffffffffffffffffffffffffffff1602179055507fffffffffffffffffffffffffffffffffffffffffffffffffffffffffffffffff600281905550611dcc565b3373ffffffffffffffffffffffffffffffffffffffff16600160009054906101000a900473ffffffffffffffffffffffffffffffffffffffff1673ffffffffffffffffffffffffffffffffffffffff1614611dcb576040517f08c379a0000000000000000000000000000000000000000000000000000000008152600401611dc290613d85565b60405180910390fd5b5b600360009054906101000a900460ff161580611e3557508473ffffffffffffffffffffffffffffffffffffffff16600360019054906101000a900473ffffffffffffffffffffffffffffffffffffffff1673ffffffffffffffffffffffffffffffffffffffff16145b611e74576040517f08c379a0000000000000000000000000000000000000000000000000000000008152600401611e6b90613de5565b60405180910390fd5b84600360016101000a81548173ffffffffffffffffffffffffffffffffffffffff021916908373ffffffffffffffffffffffffffffffffffffffff160217905550600360009054906101000a900460ff161580611f1e57508373ffffffffffffffffffffffffffffffffffffffff16600460009054906101000a900473ffffffffffffffffffffffffffffffffffffffff1673ffffffffffffffffffffffffffffffffffffffff16145b611f5d576040517f08c379a0000000000000000000000000000000000000000000000000000000008152600401611f5490613dc5565b60405180910390fd5b83600460006101000a81548173ffffffffffffffffffffffffffffffffffffffff021916908373ffffffffffffffffffffffffffffffffffffffff160217905550600360009054906101000a900460ff161580611fbb575082600554145b611ffa576040517f08c379a0000000000000000000000000000000000000000000000000000000008152600401611ff190613e85565b60405180910390fd5b8260058190555081600660006101000a81548161ffff021916908361ffff16021790555080600660026101000a81548161ffff021916908361ffff160217905550600360009054906101000a900460ff16612227576000600360019054906101000a900473ffffffffffffffffffffffffffffffffffffffff1673ffffffffffffffffffffffffffffffffffffffff16631526fe276005546040518263ffffffff1660e01b81526004016120ae9190613f20565b60a06040518083038186803b1580156120c657600080fd5b505afa1580156120da573d6000803e3d6000fd5b505050506040513d601f19601f820116820180604052508101906120fe9190613715565b90508060000151600660046101000a81548173ffffffffffffffffffffffffffffffffffffffff021916908373ffffffffffffffffffffffffffffffffffffffff160217905550600360019054906101000a900473ffffffffffffffffffffffffffffffffffffffff1673ffffffffffffffffffffffffffffffffffffffff1663b985a3a06040518163ffffffff1660e01b815260040160206040518083038186803b1580156121ad57600080fd5b505afa1580156121c1573d6000803e3d6000fd5b505050506040513d601f19601f820116820180604052508101906121e59190613577565b600760006101000a81548173ffffffffffffffffffffffffffffffffffffffff021916908373ffffffffffffffffffffffffffffffffffffffff160217905550505b6001600360006101000a81548160ff0219169083151502179055505050505050565b3373ffffffffffffffffffffffffffffffffffffffff16600160009054906101000a900473ffffffffffffffffffffffffffffffffffffffff1673ffffffffffffffffffffffffffffffffffffffff16146122d9576040517f08c379a00000000000000000000000000000000000000000000000000000000081526004016122d090613d85565b60405180910390fd5b8273ffffffffffffffffffffffffffffffffffffffff1663a9059cbb83836040518363ffffffff1660e01b8152600401612314929190613c89565b602060405180830381600087803b15801561232e57600080fd5b505af1158015612342573d6000803e3d6000fd5b505050506040513d601f19601f8201168201806040525081019061236691906136bb565b50505050565b3373ffffffffffffffffffffffffffffffffffffffff16600160009054906101000a900473ffffffffffffffffffffffffffffffffffffffff1673ffffffffffffffffffffffffffffffffffffffff16146123fc576040517f08c379a00000000000000000000000000000000000000000000000000000000081526004016123f390613d85565b60405180910390fd5b6000600660049054906101000a900473ffffffffffffffffffffffffffffffffffffffff16905060008173ffffffffffffffffffffffffffffffffffffffff166370a08231306040518263ffffffff1660e01b815260040161245e9190613c1c565b60206040518083038186803b15801561247657600080fd5b505afa15801561248a573d6000803e3d6000fd5b505050506040513d601f19601f820116820180604052508101906124ae919061376f565b90506124fd600360019054906101000a900473ffffffffffffffffffffffffffffffffffffffff16828473ffffffffffffffffffffffffffffffffffffffff16612e5d9092919063ffffffff16565b600360019054906101000a900473ffffffffffffffffffffffffffffffffffffffff1673ffffffffffffffffffffffffffffffffffffffff1663e2bbb158600554836040518363ffffffff1660e01b815260040161255c929190613f8d565b600060405180830381600087803b15801561257657600080fd5b505af115801561258a573d6000803e3d6000fd5b505050505050565b3373ffffffffffffffffffffffffffffffffffffffff16600160009054906101000a900473ffffffffffffffffffffffffffffffffffffffff1673ffffffffffffffffffffffffffffffffffffffff1614612622576040517f08c379a000000000000000000000000000000000000000000000000000000000815260040161261990613d85565b60405180910390fd5b600061262c61163a565b9050600360019054906101000a900473ffffffffffffffffffffffffffffffffffffffff1673ffffffffffffffffffffffffffffffffffffffff16635312ea8e6005546040518263ffffffff1660e01b815260040161268b9190613f20565b600060405180830381600087803b1580156126a557600080fd5b505af11580156126b9573d6000803e3d6000fd5b50505050600660049054906101000a900473ffffffffffffffffffffffffffffffffffffffff1673ffffffffffffffffffffffffffffffffffffffff1663a9059cbb82600660049054906101000a900473ffffffffffffffffffffffffffffffffffffffff1673ffffffffffffffffffffffffffffffffffffffff166370a08231306040518263ffffffff1660e01b81526004016127579190613c1c565b60206040518083038186803b15801561276f57600080fd5b505afa158015612783573d6000803e3d6000fd5b505050506040513d601f19601f820116820180604052508101906127a7919061376f565b6040518363ffffffff1660e01b81526004016127c4929190613c89565b602060405180830381600087803b1580156127de57600080fd5b505af11580156127f2573d6000803e3d6000fd5b505050506040513d601f19601f8201168201806040525081019061281691906136bb565b50600760009054906101000a900473ffffffffffffffffffffffffffffffffffffffff1673ffffffffffffffffffffffffffffffffffffffff1663a9059cbb82600760009054906101000a900473ffffffffffffffffffffffffffffffffffffffff1673ffffffffffffffffffffffffffffffffffffffff166370a08231306040518263ffffffff1660e01b81526004016128b19190613c1c565b60206040518083038186803b1580156128c957600080fd5b505afa1580156128dd573d6000803e3d6000fd5b505050506040513d601f19601f82011682018060405250810190612901919061376f565b6040518363ffffffff1660e01b815260040161291e929190613c89565b602060405180830381600087803b15801561293857600080fd5b505af115801561294c573d6000803e3d6000fd5b505050506040513d601f19601f8201168201806040525081019061297091906136bb565b5050565b3373ffffffffffffffffffffffffffffffffffffffff16600160009054906101000a900473ffffffffffffffffffffffffffffffffffffffff1673ffffffffffffffffffffffffffffffffffffffff1614612a04576040517f08c379a00000000000000000000000000000000000000000000000000000000081526004016129fb90613d85565b60405180910390fd5b3073ffffffffffffffffffffffffffffffffffffffff163073ffffffffffffffffffffffffffffffffffffffff1673__$0fb85c1a108326fe5c0d8f2f5a241bc0e7$__636b88071890916040518263ffffffff1660e01b8152600401612a6a9190613c01565b60206040518083038186803b158015612a8257600080fd5b505af4158015612a96573d6000803e3d6000fd5b505050506040513d601f19601f82011682018060405250810190612aba9190613577565b73ffffffffffffffffffffffffffffffffffffffff1614612b10576040517f08c379a0000000000000000000000000000000000000000000000000000000008152600401612b0790613ea5565b60405180910390fd5b6000600160009054906101000a900473ffffffffffffffffffffffffffffffffffffffff16905081600160006101000a81548173ffffffffffffffffffffffffffffffffffffffff021916908373ffffffffffffffffffffffffffffffffffffffff1602179055508173ffffffffffffffffffffffffffffffffffffffff168173ffffffffffffffffffffffffffffffffffffffff167f8be0079c531659141344cd1fd0a4f28419497f9722a3daafe3b4186f6b6457e060405160405180910390a35050565b600760009054906101000a900473ffffffffffffffffffffffffffffffffffffffff1681565b6000612c06611141565b15612c46576040517f08c379a0000000000000000000000000000000000000000000000000000000008152600401612c3d90613e45565b60405180910390fd5b6000612c5061163a565b90508073ffffffffffffffffffffffffffffffffffffffff163273ffffffffffffffffffffffffffffffffffffffff161415612c90576000915050612e57565b6000612c9a6107bb565b905060008173ffffffffffffffffffffffffffffffffffffffff166321f8a7217fe78c16c6d839536d3155985aab4e9c6013c8c3d446054bcebc48612f359d81f56040518263ffffffff1660e01b8152600401612cf79190613d19565b60206040518083038186803b158015612d0f57600080fd5b505afa158015612d23573d6000803e3d6000fd5b505050506040513d601f19601f82011682018060405250810190612d479190613577565b9050600073ffffffffffffffffffffffffffffffffffffffff168173ffffffffffffffffffffffffffffffffffffffff161415612db9576040517f08c379a0000000000000000000000000000000000000000000000000000000008152600401612db090613e25565b60405180910390fd5b8073ffffffffffffffffffffffffffffffffffffffff1663e578a2258488612ddf611890565b896040518563ffffffff1660e01b8152600401612dff9493929190613cb2565b602060405180830381600087803b158015612e1957600080fd5b505af1158015612e2d573d6000803e3d6000fd5b505050506040513d601f19601f82011682018060405250810190612e51919061376f565b93505050505b92915050565b60008373ffffffffffffffffffffffffffffffffffffffff1663dd62ed3e30856040518363ffffffff1660e01b8152600401612e9a929190613c37565b60206040518083038186803b158015612eb257600080fd5b505afa158015612ec6573d6000803e3d6000fd5b505050506040513d601f19601f82011682018060405250810190612eea919061376f565b905060008114158015612efc57508181105b15612f91578373ffffffffffffffffffffffffffffffffffffffff1663095ea7b38460006040518363ffffffff1660e01b8152600401612f3d929190613c60565b602060405180830381600087803b158015612f5757600080fd5b505af1158015612f6b573d6000803e3d6000fd5b505050506040513d601f19601f82011682018060405250810190612f8f91906136bb565b505b818114613027578373ffffffffffffffffffffffffffffffffffffffff1663095ea7b384846040518363ffffffff1660e01b8152600401612fd3929190613c89565b602060405180830381600087803b158015612fed57600080fd5b505af1158015613001573d6000803e3d6000fd5b505050506040513d601f19601f8201168201806040525081019061302591906136bb565b505b50505050565b826001845161303c919061419e565b8151811061304d5761304c61436e565b5b602002602001015173ffffffffffffffffffffffffffffffffffffffff168360008151811061307f5761307e61436e565b5b602002602001015173ffffffffffffffffffffffffffffffffffffffff1614156130a857613194565b600460009054906101000a900473ffffffffffffffffffffffffffffffffffffffff1673ffffffffffffffffffffffffffffffffffffffff166338ed1739836000600281106130fa576130f961436e565b5b6020020151846001600281106131135761311261436e565b5b60200201518630866040518663ffffffff1660e01b815260040161313b959493929190613fb6565b600060405180830381600087803b15801561315557600080fd5b505af1158015613169573d6000803e3d6000fd5b505050506040513d6000823e3d601f19601f820116820180604052508101906131929190613672565b505b505050565b60006131ac6131a784614035565b614010565b905080838252602082019050828560208602820111156131cf576131ce6143db565b5b60005b858110156131ff57816131e588826132bb565b8452602084019350602083019250506001810190506131d2565b5050509392505050565b600061321c61321784614061565b614010565b9050808382526020820190508285602086028201111561323f5761323e6143db565b5b60005b8581101561326f57816132558882613520565b845260208401935060208301925050600181019050613242565b5050509392505050565b600061328c6132878461408d565b614010565b9050828152602081018484840111156132a8576132a76143e0565b5b6132b38482856142ac565b509392505050565b6000813590506132ca816147b4565b92915050565b6000815190506132df816147b4565b92915050565b600082601f8301126132fa576132f96143cc565b5b813561330a848260208601613199565b91505092915050565b600082601f830112613328576133276143cc565b5b8151613338848260208601613209565b91505092915050565b600081519050613350816147cb565b92915050565b600081359050613365816147e2565b92915050565b60008151905061337a816147e2565b92915050565b600082601f830112613395576133946143cc565b5b81516133a5848260208601613279565b91505092915050565b600060a082840312156133c4576133c36143d1565b5b6133ce60a0614010565b905060006133de848285016132d0565b60008301525060206133f284828501613520565b602083015250604061340684828501613520565b604083015250606061341a84828501613520565b606083015250608061342e848285016132d0565b60808301525092915050565b6000604082840312156134505761344f6143d1565b5b61345a6040614010565b9050600082013567ffffffffffffffff81111561347a576134796143d6565b5b613486848285016132e5565b600083015250602061349a8482850161350b565b60208301525092915050565b6000604082840312156134bc576134bb6143d1565b5b6134c66040614010565b905060006134d684828501613520565b60008301525060206134ea84828501613520565b60208301525092915050565b600081359050613505816147f9565b92915050565b60008135905061351a81614810565b92915050565b60008151905061352f81614810565b92915050565b60008151905061354481614827565b92915050565b6000602082840312156135605761355f6143ea565b5b600061356e848285016132bb565b91505092915050565b60006020828403121561358d5761358c6143ea565b5b600061359b848285016132d0565b91505092915050565b6000806000606084860312156135bd576135bc6143ea565b5b60006135cb868287016132bb565b93505060206135dc868287016132bb565b92505060406135ed8682870161350b565b9150509250925092565b600080600080600060a08688031215613613576136126143ea565b5b6000613621888289016132bb565b9550506020613632888289016132bb565b94505060406136438882890161350b565b9350506060613654888289016134f6565b9250506080613665888289016134f6565b9150509295509295909350565b600060208284031215613688576136876143ea565b5b600082015167ffffffffffffffff8111156136a6576136a56143e5565b5b6136b284828501613313565b91505092915050565b6000602082840312156136d1576136d06143ea565b5b60006136df84828501613341565b91505092915050565b6000602082840312156136fe576136fd6143ea565b5b600061370c84828501613356565b91505092915050565b600060a0828403121561372b5761372a6143ea565b5b6000613739848285016133ae565b91505092915050565b600060408284031215613758576137576143ea565b5b6000613766848285016134a6565b91505092915050565b600060208284031215613785576137846143ea565b5b600061379384828501613520565b91505092915050565b600080600080608085870312156137b6576137b56143ea565b5b60006137c487828801613520565b94505060206137d5878288016132d0565b935050604085015167ffffffffffffffff8111156137f6576137f56143e5565b5b61380287828801613380565b925050606061381387828801613520565b91505092959194509250565b600080600060608486031215613838576138376143ea565b5b60006138468682870161350b565b93505060206138578682870161350b565b925050604084013567ffffffffffffffff811115613878576138776143e5565b5b6138848682870161343a565b9150509250925092565b600080600080600060a086880312156138aa576138a96143ea565b5b60006138b888828901613535565b95505060206138c98882890161336b565b94505060406138da88828901613520565b93505060606138eb88828901613520565b92505060806138fc88828901613535565b9150509295509295909350565b60006139158383613921565b60208301905092915050565b61392a816141d2565b82525050565b613939816141d2565b82525050565b613948816141d2565b82525050565b6000613959826140ce565b61396381856140f1565b935061396e836140be565b8060005b8381101561399f5781516139868882613909565b9750613991836140e4565b925050600181019050613972565b5085935050505092915050565b6139b5816141e4565b82525050565b6139c4816141f0565b82525050565b6139d381614252565b82525050565b6139e281614276565b82525050565b6139f1816141fa565b82525050565b613a008161429a565b82525050565b6000613a11826140d9565b613a1b8185614102565b9350613a2b8185602086016142ac565b613a34816143ef565b840191505092915050565b6000613a4c602183614102565b9150613a5782614400565b604082019050919050565b6000613a6f603d83614102565b9150613a7a8261444f565b604082019050919050565b6000613a92605083614102565b9150613a9d8261449e565b606082019050919050565b6000613ab5604783614102565b9150613ac082614513565b606082019050919050565b6000613ad8602983614102565b9150613ae382614588565b604082019050919050565b6000613afb602b83614102565b9150613b06826145d7565b604082019050919050565b6000613b1e601083614102565b9150613b2982614626565b602082019050919050565b6000613b41601483614102565b9150613b4c8261464f565b602082019050919050565b6000613b64604283614102565b9150613b6f82614678565b606082019050919050565b6000613b87602183614102565b9150613b92826146ed565b604082019050919050565b6000613baa601783614102565b9150613bb58261473c565b602082019050919050565b6000613bcd602283614102565b9150613bd882614765565b604082019050919050565b613bec81614204565b82525050565b613bfb81614232565b82525050565b6000602082019050613c16600083018461393f565b92915050565b6000602082019050613c316000830184613930565b92915050565b6000604082019050613c4c6000830185613930565b613c596020830184613930565b9392505050565b6000604082019050613c756000830185613930565b613c8260208301846139f7565b9392505050565b6000604082019050613c9e6000830185613930565b613cab6020830184613bf2565b9392505050565b6000608082019050613cc76000830187613930565b613cd46020830186613bf2565b613ce16040830185613bf2565b8181036060830152613cf38184613a06565b905095945050505050565b6000602082019050613d1360008301846139ac565b92915050565b6000602082019050613d2e60008301846139bb565b92915050565b6000602082019050613d4960008301846139ca565b92915050565b6000602082019050613d6460008301846139d9565b92915050565b6000602082019050613d7f60008301846139e8565b92915050565b60006020820190508181036000830152613d9e81613a3f565b9050919050565b60006020820190508181036000830152613dbe81613a62565b9050919050565b60006020820190508181036000830152613dde81613a85565b9050919050565b60006020820190508181036000830152613dfe81613aa8565b9050919050565b60006020820190508181036000830152613e1e81613acb565b9050919050565b60006020820190508181036000830152613e3e81613aee565b9050919050565b60006020820190508181036000830152613e5e81613b11565b9050919050565b60006020820190508181036000830152613e7e81613b34565b9050919050565b60006020820190508181036000830152613e9e81613b57565b9050919050565b60006020820190508181036000830152613ebe81613b7a565b9050919050565b60006020820190508181036000830152613ede81613b9d565b9050919050565b60006020820190508181036000830152613efe81613bc0565b9050919050565b6000602082019050613f1a6000830184613be3565b92915050565b6000602082019050613f356000830184613bf2565b92915050565b6000604082019050613f506000830185613bf2565b613f5d6020830184613930565b9392505050565b6000604082019050613f796000830185613bf2565b613f8660208301846139f7565b9392505050565b6000604082019050613fa26000830185613bf2565b613faf6020830184613bf2565b9392505050565b600060a082019050613fcb6000830188613bf2565b613fd86020830187613bf2565b8181036040830152613fea818661394e565b9050613ff96060830185613930565b6140066080830184613bf2565b9695505050505050565b600061401a61402b565b905061402682826142df565b919050565b6000604051905090565b600067ffffffffffffffff8211156140505761404f61439d565b5b602082029050602081019050919050565b600067ffffffffffffffff82111561407c5761407b61439d565b5b602082029050602081019050919050565b600067ffffffffffffffff8211156140a8576140a761439d565b5b6140b1826143ef565b9050602081019050919050565b6000819050602082019050919050565b600081519050919050565b600081519050919050565b6000602082019050919050565b600082825260208201905092915050565b600082825260208201905092915050565b600061411e82614232565b915061412983614232565b9250826141395761413861433f565b5b828204905092915050565b600061414f82614232565b915061415a83614232565b9250817fffffffffffffffffffffffffffffffffffffffffffffffffffffffffffffffff048311821515161561419357614192614310565b5b828202905092915050565b60006141a982614232565b91506141b483614232565b9250828210156141c7576141c6614310565b5b828203905092915050565b60006141dd82614212565b9050919050565b60008115159050919050565b6000819050919050565b6000819050919050565b600061ffff82169050919050565b600073ffffffffffffffffffffffffffffffffffffffff82169050919050565b6000819050919050565b600069ffffffffffffffffffff82169050919050565b600061425d82614264565b9050919050565b600061426f82614212565b9050919050565b600061428182614288565b9050919050565b600061429382614212565b9050919050565b60006142a582614232565b9050919050565b60005b838110156142ca5780820151818401526020810190506142af565b838111156142d9576000848401525b50505050565b6142e8826143ef565b810181811067ffffffffffffffff821117156143075761430661439d565b5b80604052505050565b7f4e487b7100000000000000000000000000000000000000000000000000000000600052601160045260246000fd5b7f4e487b7100000000000000000000000000000000000000000000000000000000600052601260045260246000fd5b7f4e487b7100000000000000000000000000000000000000000000000000000000600052603260045260246000fd5b7f4e487b7100000000000000000000000000000000000000000000000000000000600052604160045260246000fd5b600080fd5b600080fd5b600080fd5b600080fd5b600080fd5b600080fd5b600080fd5b6000601f19601f8301169050919050565b7f4175746f6d6174653a2063616c6c6572206973206e6f7420746865206f776e6560008201527f7200000000000000000000000000000000000000000000000000000000000000602082015250565b7f4175746f6d6174653a3a6368616e676550726f746f636f6c4665653a2063616c60008201527f6c6572206973206e6f74207468652070726f746f636f6c206f776e6572000000602082015250565b7f4d617374657243686566563253696e676c6552657374616b653a3a696e69743a60008201527f207265696e697469616c697a65206c697175696469747920726f75746572206160208201527f64647265737320666f7262696464656e00000000000000000000000000000000604082015250565b7f4d617374657243686566563253696e676c6552657374616b653a3a696e69743a60008201527f207265696e697469616c697a65207374616b696e67206164647265737320666f60208201527f7262696464656e00000000000000000000000000000000000000000000000000604082015250565b7f4d617374657243686566563253696e676c6552657374616b653a3a72756e3a2060008201527f6e6f206561726e65640000000000000000000000000000000000000000000000602082015250565b7f4175746f6d6174653a3a5f62696c6c3a2062616c616e636520636f6e7472616360008201527f74206e6f7420666f756e64000000000000000000000000000000000000000000602082015250565b7f4175746f6d6174653a2070617573656400000000000000000000000000000000600082015250565b7f4175746f6d6174653a206e6f7420706175736564000000000000000000000000600082015250565b7f4d617374657243686566563253696e676c6552657374616b653a3a696e69743a60008201527f207265696e697469616c697a6520706f6f6c20696e64657820666f726269646460208201527f656e000000000000000000000000000000000000000000000000000000000000604082015250565b7f4175746f6d6174653a206368616e676520746865206f776e6572206661696c6560008201527f6400000000000000000000000000000000000000000000000000000000000000602082015250565b7f4175746f6d6174653a20696e76616c6964207072696365000000000000000000600082015250565b7f4175746f6d6174653a2063616c6c6572206973206e6f7420746865207061757360008201527f6572000000000000000000000000000000000000000000000000000000000000602082015250565b6147bd816141d2565b81146147c857600080fd5b50565b6147d4816141e4565b81146147df57600080fd5b50565b6147eb816141fa565b81146147f657600080fd5b50565b61480281614204565b811461480d57600080fd5b50565b61481981614232565b811461482457600080fd5b50565b6148308161423c565b811461483b57600080fd5b5056fe417661785472616465726a6f654d617374657243686566563253696e676c6552657374616b65a2646970667358221220c2286632704a183748adbebb8ce34f6390e2d84e5ff604a0794fe425c1b7ded664736f6c63430008060033",
  "linkReferences": {
    "contracts/utils/DFH/proxy/ERC1167.sol": {
      "ERC1167": [
        {
          "length": 20,
          "start": 2411
        },
        {
          "length": 20,
          "start": 2841
        },
        {
          "length": 20,
          "start": 4849
        },
        {
          "length": 20,
          "start": 5303
        },
        {
          "length": 20,
          "start": 6163
        },
        {
          "length": 20,
          "start": 6720
        },
        {
          "length": 20,
          "start": 11208
        }
      ]
    }
  },
  "deployedLinkReferences": {
    "contracts/utils/DFH/proxy/ERC1167.sol": {
      "ERC1167": [
        {
          "length": 20,
          "start": 2007
        },
        {
          "length": 20,
          "start": 2437
        },
        {
          "length": 20,
          "start": 4445
        },
        {
          "length": 20,
          "start": 4899
        },
        {
          "length": 20,
          "start": 5759
        },
        {
          "length": 20,
          "start": 6316
        },
        {
          "length": 20,
          "start": 10804
        }
      ]
    }
  }
}