{
  "address": "0xd6d7b0Ce118AD42D3962A074717B03797dE242bA",
  "abi": [
    {
      "inputs": [
        {
          "internalType": "address",
          "name": "_info",
          "type": "address"
        }
      ],
      "stateMutability": "nonpayable",
      "type": "constructor"
    },
    {
      "anonymous": false,
      "inputs": [
        {
          "indexed": true,
          "internalType": "address",
          "name": "previousOwner",
          "type": "address"
        },
        {
          "indexed": true,
          "internalType": "address",
          "name": "newOwner",
          "type": "address"
        }
      ],
      "name": "OwnershipTransferred",
      "type": "event"
    },
    {
      "anonymous": false,
      "inputs": [
        {
          "indexed": false,
          "internalType": "int256",
          "name": "protocolFee",
          "type": "int256"
        }
      ],
      "name": "ProtocolFeeChanged",
      "type": "event"
    },
    {
      "inputs": [
        {
          "internalType": "int256",
          "name": "__protocolFee",
          "type": "int256"
        }
      ],
      "name": "changeProtocolFee",
      "outputs": [],
      "stateMutability": "nonpayable",
      "type": "function"
    },
    {
      "inputs": [],
      "name": "deadline",
      "outputs": [
        {
          "internalType": "uint16",
          "name": "",
          "type": "uint16"
        }
      ],
      "stateMutability": "view",
      "type": "function"
    },
    {
      "inputs": [
        {
          "internalType": "uint256",
          "name": "_tokenId",
          "type": "uint256"
        }
      ],
      "name": "deposit",
      "outputs": [],
      "stateMutability": "nonpayable",
      "type": "function"
    },
    {
      "inputs": [],
      "name": "info",
      "outputs": [
        {
          "internalType": "address",
          "name": "",
          "type": "address"
        }
      ],
      "stateMutability": "view",
      "type": "function"
    },
    {
      "inputs": [
        {
          "internalType": "address",
          "name": "_positionManager",
          "type": "address"
        },
        {
          "internalType": "address",
          "name": "_liquidityRouter",
          "type": "address"
        },
        {
          "internalType": "address",
          "name": "_pool",
          "type": "address"
        },
        {
          "internalType": "uint16",
          "name": "_deadline",
          "type": "uint16"
        }
      ],
      "name": "init",
      "outputs": [],
      "stateMutability": "nonpayable",
      "type": "function"
    },
    {
      "inputs": [],
      "name": "liquidityRouter",
      "outputs": [
        {
          "internalType": "address",
          "name": "",
          "type": "address"
        }
      ],
      "stateMutability": "view",
      "type": "function"
    },
    {
      "inputs": [
        {
          "internalType": "address",
          "name": "",
          "type": "address"
        },
        {
          "internalType": "address",
          "name": "",
          "type": "address"
        },
        {
          "internalType": "uint256",
          "name": "",
          "type": "uint256"
        },
        {
          "internalType": "bytes",
          "name": "",
          "type": "bytes"
        }
      ],
      "name": "onERC721Received",
      "outputs": [
        {
          "internalType": "bytes4",
          "name": "",
          "type": "bytes4"
        }
      ],
      "stateMutability": "nonpayable",
      "type": "function"
    },
    {
      "inputs": [],
      "name": "owner",
      "outputs": [
        {
          "internalType": "address",
          "name": "",
          "type": "address"
        }
      ],
      "stateMutability": "view",
      "type": "function"
    },
    {
      "inputs": [],
      "name": "pause",
      "outputs": [],
      "stateMutability": "nonpayable",
      "type": "function"
    },
    {
      "inputs": [],
      "name": "paused",
      "outputs": [
        {
          "internalType": "bool",
          "name": "",
          "type": "bool"
        }
      ],
      "stateMutability": "view",
      "type": "function"
    },
    {
      "inputs": [],
      "name": "pool",
      "outputs": [
        {
          "internalType": "address",
          "name": "",
          "type": "address"
        }
      ],
      "stateMutability": "view",
      "type": "function"
    },
    {
      "inputs": [],
      "name": "positionManager",
      "outputs": [
        {
          "internalType": "address",
          "name": "",
          "type": "address"
        }
      ],
      "stateMutability": "view",
      "type": "function"
    },
    {
      "inputs": [],
      "name": "protocolFee",
      "outputs": [
        {
          "internalType": "uint256",
          "name": "",
          "type": "uint256"
        }
      ],
      "stateMutability": "view",
      "type": "function"
    },
    {
      "inputs": [
        {
          "internalType": "uint256",
          "name": "gasFee",
          "type": "uint256"
        },
        {
          "internalType": "uint256",
          "name": "_deadline",
          "type": "uint256"
        }
      ],
      "name": "run",
      "outputs": [],
      "stateMutability": "nonpayable",
      "type": "function"
    },
    {
      "inputs": [
        {
          "internalType": "uint256",
          "name": "gasFee",
          "type": "uint256"
        },
        {
          "internalType": "uint256",
          "name": "_deadline",
          "type": "uint256"
        }
      ],
      "name": "runStopLoss",
      "outputs": [],
      "stateMutability": "nonpayable",
      "type": "function"
    },
    {
      "inputs": [
        {
          "internalType": "address[]",
          "name": "path",
          "type": "address[]"
        },
        {
          "internalType": "uint24",
          "name": "fee",
          "type": "uint24"
        },
        {
          "internalType": "uint256",
          "name": "amountOut",
          "type": "uint256"
        },
        {
          "internalType": "uint256",
          "name": "amountOutMin",
          "type": "uint256"
        }
      ],
      "name": "setStopLoss",
      "outputs": [],
      "stateMutability": "nonpayable",
      "type": "function"
    },
    {
      "inputs": [],
      "name": "stopLoss",
      "outputs": [
        {
          "internalType": "uint24",
          "name": "fee",
          "type": "uint24"
        },
        {
          "internalType": "uint256",
          "name": "amountOut",
          "type": "uint256"
        },
        {
          "internalType": "uint256",
          "name": "amountOutMin",
          "type": "uint256"
        }
      ],
      "stateMutability": "view",
      "type": "function"
    },
    {
      "inputs": [],
      "name": "tokenId",
      "outputs": [
        {
          "internalType": "uint256",
          "name": "",
          "type": "uint256"
        }
      ],
      "stateMutability": "view",
      "type": "function"
    },
    {
      "inputs": [
        {
          "internalType": "address",
          "name": "token",
          "type": "address"
        },
        {
          "internalType": "address",
          "name": "recipient",
          "type": "address"
        },
        {
          "internalType": "uint256",
          "name": "amount",
          "type": "uint256"
        }
      ],
      "name": "transfer",
      "outputs": [],
      "stateMutability": "nonpayable",
      "type": "function"
    },
    {
      "inputs": [
        {
          "internalType": "address",
          "name": "newOwner",
          "type": "address"
        }
      ],
      "name": "transferOwnership",
      "outputs": [],
      "stateMutability": "nonpayable",
      "type": "function"
    },
    {
      "inputs": [],
      "name": "unpause",
      "outputs": [],
      "stateMutability": "nonpayable",
      "type": "function"
    }
  ],
  "transactionHash": "0xf77563078e89156aaf9cb0dd6084af7149fb67fd023d4b742a993c3252fdf2a7",
  "args": [
    "0xA32379671A956845E6B607B2a3b574Fe7c83146b"
  ],
  "numDeployments": 1,
  "solcInputHash": "067c925e3b36fc3bed89ae8d677d1211",
  "bytecode": "0x60806040523480156200001157600080fd5b5060405162004d5538038062004d55833981016040819052620000349162000069565b600080546001600160a01b039092166001600160a01b031992831617905560018054909116321790556000196002556200009b565b6000602082840312156200007c57600080fd5b81516001600160a01b03811681146200009457600080fd5b9392505050565b614caa80620000ab6000396000f3fe608060405234801561001057600080fd5b50600436106101775760003560e01c8063791b98bc116100d8578063b0e21e8a1161008c578063beabacc811610066578063beabacc81461039b578063f2fde38b146103ae578063f7d5e2d8146103c157600080fd5b8063b0e21e8a1461036d578063b6b55f2514610375578063bc68d6b01461038857600080fd5b80638da5cb5b116100bd5780638da5cb5b146103295780639327d80a146103475780639742b5c31461035a57600080fd5b8063791b98bc146102fc5780638456cb591461032157600080fd5b8063370158ea1161012f578063527a156511610114578063527a1565146102995780635c975abb146102d15780637357f5d2146102e957600080fd5b8063370158ea146102875780633f4ba83a1461028f57600080fd5b806317d70f7c1161016057806317d70f7c1461022f578063247029441461024657806329dcb0cf1461026657600080fd5b8063150b7a021461017c57806316f0115b146101ea575b600080fd5b6101b461018a36600461456f565b7f150b7a023d4804d13e8c85fb27262cb750cf6ba9f9dd3bb30d90f482ceeb4b1f95945050505050565b6040517fffffffff0000000000000000000000000000000000000000000000000000000090911681526020015b60405180910390f35b60055461020a9073ffffffffffffffffffffffffffffffffffffffff1681565b60405173ffffffffffffffffffffffffffffffffffffffff90911681526020016101e1565b61023860065481565b6040519081526020016101e1565b60045461020a9073ffffffffffffffffffffffffffffffffffffffff1681565b6007546102749061ffff1681565b60405161ffff90911681526020016101e1565b61020a6103d4565b610297610536565b005b600954600a54600b546102b09262ffffff16919083565b6040805162ffffff90941684526020840192909252908201526060016101e1565b6102d96108cd565b60405190151581526020016101e1565b6102976102f73660046147a3565b610a52565b60035461020a90610100900473ffffffffffffffffffffffffffffffffffffffff1681565b610297611218565b60015473ffffffffffffffffffffffffffffffffffffffff1661020a565b6102976103553660046147a3565b6115c2565b61029761036836600461473c565b611d21565b610238611f5b565b61029761038336600461473c565b612368565b6102976103963660046144cb565b6129ca565b6102976103a936600461452e565b612e3e565b6102976103bc366004614491565b612f93565b6102976103cf36600461460e565b6131f2565b6040517f6b88071800000000000000000000000000000000000000000000000000000000815230600482015260009081907310bBA4e8A2f6F85B75cd75ef773f5Daca5596C8790636b8807189060240160206040518083038186803b15801561043c57600080fd5b505af4158015610450573d6000803e3d6000fd5b505050506040513d601f19601f8201168201806040525081019061047491906144ae565b905073ffffffffffffffffffffffffffffffffffffffff81163014156104b257505060005473ffffffffffffffffffffffffffffffffffffffff1690565b8073ffffffffffffffffffffffffffffffffffffffff1663370158ea6040518163ffffffff1660e01b815260040160206040518083038186803b1580156104f857600080fd5b505afa15801561050c573d6000803e3d6000fd5b505050506040513d601f19601f8201168201806040525081019061053091906144ae565b91505090565b6040517f6b8807180000000000000000000000000000000000000000000000000000000081523060048201819052907310bBA4e8A2f6F85B75cd75ef773f5Daca5596C8790636b8807189060240160206040518083038186803b15801561059c57600080fd5b505af41580156105b0573d6000803e3d6000fd5b505050506040513d601f19601f820116820180604052508101906105d491906144ae565b73ffffffffffffffffffffffffffffffffffffffff16141561078e5760006105fa6103d4565b6040517f21f8a7210000000000000000000000000000000000000000000000000000000081527f689d13d8ed8ef1027633ba26e7121121cf427434450a529548f19bf175974395600482015273ffffffffffffffffffffffffffffffffffffffff91909116906321f8a7219060240160206040518083038186803b15801561068157600080fd5b505afa158015610695573d6000803e3d6000fd5b505050506040513d601f19601f820116820180604052508101906106b991906144ae565b60015490915073ffffffffffffffffffffffffffffffffffffffff163314806106f757503373ffffffffffffffffffffffffffffffffffffffff8216145b610788576040517f08c379a000000000000000000000000000000000000000000000000000000000815260206004820152602260248201527f4175746f6d6174653a2063616c6c6572206973206e6f7420746865207061757360448201527f657200000000000000000000000000000000000000000000000000000000000060648201526084015b60405180910390fd5b50610835565b60015473ffffffffffffffffffffffffffffffffffffffff163314610835576040517f08c379a000000000000000000000000000000000000000000000000000000000815260206004820152602260248201527f4175746f6d6174653a2063616c6c6572206973206e6f7420746865207061757360448201527f6572000000000000000000000000000000000000000000000000000000000000606482015260840161077f565b61083d6108cd565b6108a3576040517f08c379a000000000000000000000000000000000000000000000000000000000815260206004820152601460248201527f4175746f6d6174653a206e6f7420706175736564000000000000000000000000604482015260640161077f565b600180547fffffffffffffffffffffff00ffffffffffffffffffffffffffffffffffffffff169055565b6040517f6b88071800000000000000000000000000000000000000000000000000000000815230600482015260009081907310bBA4e8A2f6F85B75cd75ef773f5Daca5596C8790636b8807189060240160206040518083038186803b15801561093557600080fd5b505af4158015610949573d6000803e3d6000fd5b505050506040513d601f19601f8201168201806040525081019061096d91906144ae565b905073ffffffffffffffffffffffffffffffffffffffff81163014156109b057505060015474010000000000000000000000000000000000000000900460ff1690565b60015474010000000000000000000000000000000000000000900460ff168061053057508073ffffffffffffffffffffffffffffffffffffffff16635c975abb6040518163ffffffff1660e01b815260040160206040518083038186803b158015610a1a57600080fd5b505afa158015610a2e573d6000803e3d6000fd5b505050506040513d601f19601f82011682018060405250810190610530919061471a565b600654610ae1576040517f08c379a000000000000000000000000000000000000000000000000000000000815260206004820152602c60248201527f52657374616b653a3a746f6b656e4465706f73697465643a20746f6b656e206e60448201527f6f74206465706f73697465640000000000000000000000000000000000000000606482015260840161077f565b6003546006546040517f6352211e0000000000000000000000000000000000000000000000000000000081523092610100900473ffffffffffffffffffffffffffffffffffffffff1691636352211e91610b42919060040190815260200190565b60206040518083038186803b158015610b5a57600080fd5b505afa158015610b6e573d6000803e3d6000fd5b505050506040513d601f19601f82011682018060405250810190610b9291906144ae565b73ffffffffffffffffffffffffffffffffffffffff1614610c35576040517f08c379a000000000000000000000000000000000000000000000000000000000815260206004820152602760248201527f52657374616b653a3a746f6b656e4465706f73697465643a20746f6b656e207260448201527f6566756e64656400000000000000000000000000000000000000000000000000606482015260840161077f565b816040518060400160405280601081526020017f556e6973776170563352657374616b6500000000000000000000000000000000815250610c768282613334565b506006546003546040517f99fbab880000000000000000000000000000000000000000000000000000000081526004810183905261010090910473ffffffffffffffffffffffffffffffffffffffff1690600090819083906399fbab88906024016101806040518083038186803b158015610cf057600080fd5b505afa158015610d04573d6000803e3d6000fd5b505050506040513d601f19601f82011682018060405250810190610d289190614839565b5050604080516080810182528f81523060208201526fffffffffffffffffffffffffffffffff818301819052606082015290517ffc6f7865000000000000000000000000000000000000000000000000000000008152989c50969a505073ffffffffffffffffffffffffffffffffffffffff8c16985063fc6f78659750610db8966004019450614a079350505050565b6040805180830381600087803b158015610dd157600080fd5b505af1158015610de5573d6000803e3d6000fd5b505050506040513d601f19601f82011682018060405250810190610e0991906147c5565b50506040517f70a0823100000000000000000000000000000000000000000000000000000000815230600482015260009073ffffffffffffffffffffffffffffffffffffffff8416906370a082319060240160206040518083038186803b158015610e7357600080fd5b505afa158015610e87573d6000803e3d6000fd5b505050506040513d601f19601f82011682018060405250810190610eab919061478a565b6040517f70a0823100000000000000000000000000000000000000000000000000000000815230600482015290915060009073ffffffffffffffffffffffffffffffffffffffff8416906370a082319060240160206040518083038186803b158015610f1657600080fd5b505afa158015610f2a573d6000803e3d6000fd5b505050506040513d601f19601f82011682018060405250810190610f4e919061478a565b90506000821180610f5f5750600081115b610fc5576040517f08c379a000000000000000000000000000000000000000000000000000000000815260206004820152601760248201527f52657374616b653a3a72756e3a206e6f206561726e6564000000000000000000604482015260640161077f565b6040517f095ea7b300000000000000000000000000000000000000000000000000000000815273ffffffffffffffffffffffffffffffffffffffff86811660048301526024820184905285169063095ea7b390604401602060405180830381600087803b15801561103557600080fd5b505af1158015611049573d6000803e3d6000fd5b505050506040513d601f19601f8201168201806040525081019061106d919061471a565b506040517f095ea7b300000000000000000000000000000000000000000000000000000000815273ffffffffffffffffffffffffffffffffffffffff86811660048301526024820183905284169063095ea7b390604401602060405180830381600087803b1580156110de57600080fd5b505af11580156110f2573d6000803e3d6000fd5b505050506040513d601f19601f82011682018060405250810190611116919061471a565b506040805160c081018252878152602081018481528183018481526000606084018181526080850191825260a085018f815295517f219f5d1700000000000000000000000000000000000000000000000000000000815294516004860152925160248501529051604484015290516064830152516084820152905160a482015273ffffffffffffffffffffffffffffffffffffffff86169063219f5d179060c401606060405180830381600087803b1580156111d157600080fd5b505af11580156111e5573d6000803e3d6000fd5b505050506040513d601f19601f820116820180604052508101906112099190614755565b50505050505050505050505050565b6040517f6b8807180000000000000000000000000000000000000000000000000000000081523060048201819052907310bBA4e8A2f6F85B75cd75ef773f5Daca5596C8790636b8807189060240160206040518083038186803b15801561127e57600080fd5b505af4158015611292573d6000803e3d6000fd5b505050506040513d601f19601f820116820180604052508101906112b691906144ae565b73ffffffffffffffffffffffffffffffffffffffff16141561146b5760006112dc6103d4565b6040517f21f8a7210000000000000000000000000000000000000000000000000000000081527f689d13d8ed8ef1027633ba26e7121121cf427434450a529548f19bf175974395600482015273ffffffffffffffffffffffffffffffffffffffff91909116906321f8a7219060240160206040518083038186803b15801561136357600080fd5b505afa158015611377573d6000803e3d6000fd5b505050506040513d601f19601f8201168201806040525081019061139b91906144ae565b60015490915073ffffffffffffffffffffffffffffffffffffffff163314806113d957503373ffffffffffffffffffffffffffffffffffffffff8216145b611465576040517f08c379a000000000000000000000000000000000000000000000000000000000815260206004820152602260248201527f4175746f6d6174653a2063616c6c6572206973206e6f7420746865207061757360448201527f6572000000000000000000000000000000000000000000000000000000000000606482015260840161077f565b50611512565b60015473ffffffffffffffffffffffffffffffffffffffff163314611512576040517f08c379a000000000000000000000000000000000000000000000000000000000815260206004820152602260248201527f4175746f6d6174653a2063616c6c6572206973206e6f7420746865207061757360448201527f6572000000000000000000000000000000000000000000000000000000000000606482015260840161077f565b61151a6108cd565b15611581576040517f08c379a000000000000000000000000000000000000000000000000000000000815260206004820152601060248201527f4175746f6d6174653a2070617573656400000000000000000000000000000000604482015260640161077f565b600180547fffffffffffffffffffffff00ffffffffffffffffffffffffffffffffffffffff1674010000000000000000000000000000000000000000179055565b600654611651576040517f08c379a000000000000000000000000000000000000000000000000000000000815260206004820152602c60248201527f52657374616b653a3a746f6b656e4465706f73697465643a20746f6b656e206e60448201527f6f74206465706f73697465640000000000000000000000000000000000000000606482015260840161077f565b6003546006546040517f6352211e0000000000000000000000000000000000000000000000000000000081523092610100900473ffffffffffffffffffffffffffffffffffffffff1691636352211e916116b2919060040190815260200190565b60206040518083038186803b1580156116ca57600080fd5b505afa1580156116de573d6000803e3d6000fd5b505050506040513d601f19601f8201168201806040525081019061170291906144ae565b73ffffffffffffffffffffffffffffffffffffffff16146117a5576040517f08c379a000000000000000000000000000000000000000000000000000000000815260206004820152602760248201527f52657374616b653a3a746f6b656e4465706f73697465643a20746f6b656e207260448201527f6566756e64656400000000000000000000000000000000000000000000000000606482015260840161077f565b816040518060400160405280601881526020017f556e6973776170563352657374616b6553746f704c6f737300000000000000008152506117e68282613334565b506006546003546040517f99fbab880000000000000000000000000000000000000000000000000000000081526004810183905261010090910473ffffffffffffffffffffffffffffffffffffffff16906000908190819084906399fbab88906024016101806040518083038186803b15801561186257600080fd5b505afa158015611876573d6000803e3d6000fd5b505050506040513d601f19601f8201168201806040525081019061189a9190614839565b5050505097505050509450945050506000816fffffffffffffffffffffffffffffffff161161194b576040517f08c379a000000000000000000000000000000000000000000000000000000000815260206004820152602a60248201527f52657374616b653a3a72756e53746f704c6f73733a20746f6b656e20616c726560448201527f61647920636c6f73656400000000000000000000000000000000000000000000606482015260840161077f565b6040805160a0810182528681526fffffffffffffffffffffffffffffffff83811660208301908152600083850181815260608501918252608085018e815295517f0c49ccbe00000000000000000000000000000000000000000000000000000000815294516004860152915190921660248401525160448301525160648201529051608482015273ffffffffffffffffffffffffffffffffffffffff851690630c49ccbe9060a4016040805180830381600087803b158015611a0c57600080fd5b505af1158015611a20573d6000803e3d6000fd5b505050506040513d601f19601f82011682018060405250810190611a4491906147c5565b50506040805160808101825286815230602082019081526fffffffffffffffffffffffffffffffff8284018181526060840182815294517ffc6f786500000000000000000000000000000000000000000000000000000000815293516004850152915173ffffffffffffffffffffffffffffffffffffffff9081166024850152915181166044840152925190921660648201529085169063fc6f7865906084016040805180830381600087803b158015611afd57600080fd5b505af1158015611b11573d6000803e3d6000fd5b505050506040513d601f19601f82011682018060405250810190611b3591906147c5565b50506040805160028082526060820183526000926020830190803683370190505090508381600081518110611b6c57611b6c614c09565b602002602001019073ffffffffffffffffffffffffffffffffffffffff16908173ffffffffffffffffffffffffffffffffffffffff16815250508281600181518110611bba57611bba614c09565b73ffffffffffffffffffffffffffffffffffffffff9283166020918202929092010152600454611bef9160089116838c613606565b6008805460009190611c0390600190614b3e565b81548110611c1357611c13614c09565b60009182526020909120015473ffffffffffffffffffffffffffffffffffffffff169050611d14611c5960015473ffffffffffffffffffffffffffffffffffffffff1690565b6040517f70a0823100000000000000000000000000000000000000000000000000000000815230600482015273ffffffffffffffffffffffffffffffffffffffff8416906370a082319060240160206040518083038186803b158015611cbe57600080fd5b505afa158015611cd2573d6000803e3d6000fd5b505050506040513d601f19601f82011682018060405250810190611cf6919061478a565b73ffffffffffffffffffffffffffffffffffffffff84169190613e13565b5050505050505050505050565b6040517f6b8807180000000000000000000000000000000000000000000000000000000081523060048201526000907310bBA4e8A2f6F85B75cd75ef773f5Daca5596C8790636b8807189060240160206040518083038186803b158015611d8757600080fd5b505af4158015611d9b573d6000803e3d6000fd5b505050506040513d601f19601f82011682018060405250810190611dbf91906144ae565b90503373ffffffffffffffffffffffffffffffffffffffff82163014611e62578173ffffffffffffffffffffffffffffffffffffffff16638da5cb5b6040518163ffffffff1660e01b815260040160206040518083038186803b158015611e2557600080fd5b505afa158015611e39573d6000803e3d6000fd5b505050506040513d601f19601f82011682018060405250810190611e5d91906144ae565b611e7c565b60015473ffffffffffffffffffffffffffffffffffffffff165b73ffffffffffffffffffffffffffffffffffffffff1614611f1f576040517f08c379a000000000000000000000000000000000000000000000000000000000815260206004820152603d60248201527f4175746f6d6174653a3a6368616e676550726f746f636f6c4665653a2063616c60448201527f6c6572206973206e6f74207468652070726f746f636f6c206f776e6572000000606482015260840161077f565b60028290556040518281527f3c1d43943224e49d951ce8295a5c8332b517083b3f89bed50feae2cb39caebb59060200160405180910390a15050565b6040517f6b88071800000000000000000000000000000000000000000000000000000000815230600482015260009081907310bBA4e8A2f6F85B75cd75ef773f5Daca5596C8790636b8807189060240160206040518083038186803b158015611fc357600080fd5b505af4158015611fd7573d6000803e3d6000fd5b505050506040513d601f19601f82011682018060405250810190611ffb91906144ae565b905073ffffffffffffffffffffffffffffffffffffffff8116301480159061202557506000600254125b156120a8578073ffffffffffffffffffffffffffffffffffffffff1663b0e21e8a6040518163ffffffff1660e01b815260040160206040518083038186803b15801561207057600080fd5b505afa158015612084573d6000803e3d6000fd5b505050506040513d601f19601f82011682018060405250810190610530919061478a565b60006120b26103d4565b9050600080600254126120c757600254612184565b6040517fbd02d0f50000000000000000000000000000000000000000000000000000000081527fa93d95f96a5de25d7a41ddf1f5e8d45cfc929c4838163cf011dab4043a4a40d5600482015273ffffffffffffffffffffffffffffffffffffffff83169063bd02d0f59060240160206040518083038186803b15801561214c57600080fd5b505afa158015612160573d6000803e3d6000fd5b505050506040513d601f19601f82011682018060405250810190612184919061478a565b905080612195576000935050505090565b6040517f21f8a7210000000000000000000000000000000000000000000000000000000081527f65c90423fe7c880476633a7e36521740f87199d233dc56eb4ca6643eb76f605f600482015260009073ffffffffffffffffffffffffffffffffffffffff8416906321f8a7219060240160206040518083038186803b15801561221d57600080fd5b505afa158015612231573d6000803e3d6000fd5b505050506040513d601f19601f8201168201806040525081019061225591906144ae565b73ffffffffffffffffffffffffffffffffffffffff1663feaf968c6040518163ffffffff1660e01b815260040160a06040518083038186803b15801561229a57600080fd5b505afa1580156122ae573d6000803e3d6000fd5b505050506040513d601f19601f820116820180604052508101906122d291906147e9565b50505091505060008113612342576040517f08c379a000000000000000000000000000000000000000000000000000000000815260206004820152601760248201527f4175746f6d6174653a20696e76616c6964207072696365000000000000000000604482015260640161077f565b8061235583670de0b6b3a7640000614b01565b61235f9190614ac6565b94505050505090565b60015473ffffffffffffffffffffffffffffffffffffffff16331461240f576040517f08c379a000000000000000000000000000000000000000000000000000000000815260206004820152602160248201527f4175746f6d6174653a2063616c6c6572206973206e6f7420746865206f776e6560448201527f7200000000000000000000000000000000000000000000000000000000000000606482015260840161077f565b6006541561249f576040517f08c379a000000000000000000000000000000000000000000000000000000000815260206004820152602960248201527f52657374616b653a3a6465706f7369743a20746f6b656e20616c72656164792060448201527f6465706f73697465640000000000000000000000000000000000000000000000606482015260840161077f565b60068190556003546040517f99fbab880000000000000000000000000000000000000000000000000000000081526004810183905261010090910473ffffffffffffffffffffffffffffffffffffffff16906000908190819084906399fbab88906024016101806040518083038186803b15801561251c57600080fd5b505afa158015612530573d6000803e3d6000fd5b505050506040513d601f19601f820116820180604052508101906125549190614839565b505050505050509450945094505050600073ffffffffffffffffffffffffffffffffffffffff168373ffffffffffffffffffffffffffffffffffffffff161415612620576040517f08c379a000000000000000000000000000000000000000000000000000000000815260206004820152602860248201527f52657374616b653a3a6465706f7369743a20696e76616c696420746f6b656e3060448201527f2061646472657373000000000000000000000000000000000000000000000000606482015260840161077f565b73ffffffffffffffffffffffffffffffffffffffff82166126c3576040517f08c379a000000000000000000000000000000000000000000000000000000000815260206004820152602860248201527f52657374616b653a3a6465706f7369743a20696e76616c696420746f6b656e3160448201527f2061646472657373000000000000000000000000000000000000000000000000606482015260840161077f565b60008473ffffffffffffffffffffffffffffffffffffffff1663c45a01556040518163ffffffff1660e01b8152600401602060405180830381600087803b15801561270d57600080fd5b505af1158015612721573d6000803e3d6000fd5b505050506040513d601f19601f8201168201806040525081019061274591906144ae565b6040517f1698ee8200000000000000000000000000000000000000000000000000000000815273ffffffffffffffffffffffffffffffffffffffff8681166004830152858116602483015262ffffff851660448301529190911690631698ee8290606401602060405180830381600087803b1580156127c357600080fd5b505af11580156127d7573d6000803e3d6000fd5b505050506040513d601f19601f820116820180604052508101906127fb91906144ae565b60055490915073ffffffffffffffffffffffffffffffffffffffff8083169116146128a8576040517f08c379a000000000000000000000000000000000000000000000000000000000815260206004820152602660248201527f52657374616b653a3a6465706f7369743a20696e76616c696420706f6f6c206160448201527f6464726573730000000000000000000000000000000000000000000000000000606482015260840161077f565b6006546040517f42842e0e000000000000000000000000000000000000000000000000000000008152336004820152306024820152604481019190915273ffffffffffffffffffffffffffffffffffffffff8616906342842e0e90606401600060405180830381600087803b15801561292057600080fd5b505af1158015612934573d6000803e3d6000fd5b50506006546040517f095ea7b3000000000000000000000000000000000000000000000000000000008152336004820152602481019190915273ffffffffffffffffffffffffffffffffffffffff8816925063095ea7b39150604401600060405180830381600087803b1580156129aa57600080fd5b505af11580156129be573d6000803e3d6000fd5b50505050505050505050565b60015473ffffffffffffffffffffffffffffffffffffffff16612a3a57600180547fffffffffffffffffffffffff000000000000000000000000000000000000000016321790557fffffffffffffffffffffffffffffffffffffffffffffffffffffffffffffffff600255612ae1565b60015473ffffffffffffffffffffffffffffffffffffffff163314612ae1576040517f08c379a000000000000000000000000000000000000000000000000000000000815260206004820152602160248201527f4175746f6d6174653a2063616c6c6572206973206e6f7420746865206f776e6560448201527f7200000000000000000000000000000000000000000000000000000000000000606482015260840161077f565b60035460ff161580612b12575060035473ffffffffffffffffffffffffffffffffffffffff85811661010090920416145b612b9e576040517f08c379a000000000000000000000000000000000000000000000000000000000815260206004820152603e60248201527f52657374616b653a3a696e69743a207265696e697469616c697a6520706f736960448201527f74696f6e206d616e61676572206164647265737320666f7262696464656e0000606482015260840161077f565b6003805473ffffffffffffffffffffffffffffffffffffffff8616610100027fffffffffffffffffffffff0000000000000000000000000000000000000000ff8216811790925560ff9182169116171580612c13575060045473ffffffffffffffffffffffffffffffffffffffff8481169116145b612c9f576040517f08c379a000000000000000000000000000000000000000000000000000000000815260206004820152603e60248201527f52657374616b653a3a696e69743a207265696e697469616c697a65206c69717560448201527f696469747920726f75746572206164647265737320666f7262696464656e0000606482015260840161077f565b600480547fffffffffffffffffffffffff00000000000000000000000000000000000000001673ffffffffffffffffffffffffffffffffffffffff851617905560035460ff161580612d0b575060055473ffffffffffffffffffffffffffffffffffffffff8381169116145b612d97576040517f08c379a000000000000000000000000000000000000000000000000000000000815260206004820152603260248201527f52657374616b653a3a696e69743a207265696e697469616c697a6520706f6f6c60448201527f206164647265737320666f7262696464656e0000000000000000000000000000606482015260840161077f565b600580547fffffffffffffffffffffffff00000000000000000000000000000000000000001673ffffffffffffffffffffffffffffffffffffffff9390931692909217909155600780547fffffffffffffffffffffffffffffffffffffffffffffffffffffffffffff00001661ffff9092169190911790555050600380547fffffffffffffffffffffffffffffffffffffffffffffffffffffffffffffff00166001179055565b60015473ffffffffffffffffffffffffffffffffffffffff163314612ee5576040517f08c379a000000000000000000000000000000000000000000000000000000000815260206004820152602160248201527f4175746f6d6174653a2063616c6c6572206973206e6f7420746865206f776e6560448201527f7200000000000000000000000000000000000000000000000000000000000000606482015260840161077f565b6040517fa9059cbb00000000000000000000000000000000000000000000000000000000815273ffffffffffffffffffffffffffffffffffffffff83811660048301526024820183905284169063a9059cbb90604401602060405180830381600087803b158015612f5557600080fd5b505af1158015612f69573d6000803e3d6000fd5b505050506040513d601f19601f82011682018060405250810190612f8d919061471a565b50505050565b60015473ffffffffffffffffffffffffffffffffffffffff16331461303a576040517f08c379a000000000000000000000000000000000000000000000000000000000815260206004820152602160248201527f4175746f6d6174653a2063616c6c6572206973206e6f7420746865206f776e6560448201527f7200000000000000000000000000000000000000000000000000000000000000606482015260840161077f565b6040517f6b8807180000000000000000000000000000000000000000000000000000000081523060048201819052907310bBA4e8A2f6F85B75cd75ef773f5Daca5596C8790636b8807189060240160206040518083038186803b1580156130a057600080fd5b505af41580156130b4573d6000803e3d6000fd5b505050506040513d601f19601f820116820180604052508101906130d891906144ae565b73ffffffffffffffffffffffffffffffffffffffff161461317b576040517f08c379a000000000000000000000000000000000000000000000000000000000815260206004820152602160248201527f4175746f6d6174653a206368616e676520746865206f776e6572206661696c6560448201527f6400000000000000000000000000000000000000000000000000000000000000606482015260840161077f565b6001805473ffffffffffffffffffffffffffffffffffffffff8381167fffffffffffffffffffffffff0000000000000000000000000000000000000000831681179093556040519116919082907f8be0079c531659141344cd1fd0a4f28419497f9722a3daafe3b4186f6b6457e090600090a35050565b60015473ffffffffffffffffffffffffffffffffffffffff163314613299576040517f08c379a000000000000000000000000000000000000000000000000000000000815260206004820152602160248201527f4175746f6d6174653a2063616c6c6572206973206e6f7420746865206f776e6560448201527f7200000000000000000000000000000000000000000000000000000000000000606482015260840161077f565b60405180608001604052808581526020018462ffffff16815260200183815260200182815250600860008201518160000190805190602001906132dd929190614375565b5060208201516001820180547fffffffffffffffffffffffffffffffffffffffffffffffffffffffffff0000001662ffffff9092169190911790556040820151600282015560609091015160039091015550505050565b600061333e6108cd565b156133a5576040517f08c379a000000000000000000000000000000000000000000000000000000000815260206004820152601060248201527f4175746f6d6174653a2070617573656400000000000000000000000000000000604482015260640161077f565b60006133c660015473ffffffffffffffffffffffffffffffffffffffff1690565b90503273ffffffffffffffffffffffffffffffffffffffff821614156133f0576000915050613600565b60006133fa6103d4565b6040517f21f8a7210000000000000000000000000000000000000000000000000000000081527fe78c16c6d839536d3155985aab4e9c6013c8c3d446054bcebc48612f359d81f5600482015290915060009073ffffffffffffffffffffffffffffffffffffffff8316906321f8a7219060240160206040518083038186803b15801561348557600080fd5b505afa158015613499573d6000803e3d6000fd5b505050506040513d601f19601f820116820180604052508101906134bd91906144ae565b905073ffffffffffffffffffffffffffffffffffffffff8116613562576040517f08c379a000000000000000000000000000000000000000000000000000000000815260206004820152602b60248201527f4175746f6d6174653a3a5f62696c6c3a2062616c616e636520636f6e7472616360448201527f74206e6f7420666f756e64000000000000000000000000000000000000000000606482015260840161077f565b8073ffffffffffffffffffffffffffffffffffffffff1663e578a2258488613588611f5b565b896040518563ffffffff1660e01b81526004016135a894939291906149af565b602060405180830381600087803b1580156135c257600080fd5b505af11580156135d6573d6000803e3d6000fd5b505050506040513d601f19601f820116820180604052508101906135fa919061478a565b93505050505b92915050565b8354600110801561361b575060008460020154115b6136a7576040517f08c379a000000000000000000000000000000000000000000000000000000000815260206004820152602160248201527f53746f704c6f73733a3a72756e3a2073746f70206c6f73732064697361626c6560448201527f6400000000000000000000000000000000000000000000000000000000000000606482015260840161077f565b61010082511115613714576040517f08c379a000000000000000000000000000000000000000000000000000000000815260206004820152601e60248201527f53746f704c6f73733a3a72756e3a20746f6f206d616e7920746f6b656e730000604482015260640161077f565b60005b82518160ff161015613a08576000838260ff168151811061373a5761373a614c09565b602002602001015190508560000160008154811061375a5761375a614c09565b60009182526020909120015473ffffffffffffffffffffffffffffffffffffffff8281169116141561378c57506139f6565b6040517f70a0823100000000000000000000000000000000000000000000000000000000815230600482015260009073ffffffffffffffffffffffffffffffffffffffff8316906370a082319060240160206040518083038186803b1580156137f457600080fd5b505afa158015613808573d6000803e3d6000fd5b505050506040513d601f19601f8201168201806040525081019061382c919061478a565b90508061383a5750506139f6565b61385b73ffffffffffffffffffffffffffffffffffffffff83168783613eec565b8573ffffffffffffffffffffffffffffffffffffffff1663c04b8d596040518060a00160405280858b60010160009054906101000a900462ffffff168c6000016000815481106138ad576138ad614c09565b6000918252602091829020015460405161394394939273ffffffffffffffffffffffffffffffffffffffff9092169101606093841b7fffffffffffffffffffffffffffffffffffffffff000000000000000000000000908116825260e89390931b7fffffff0000000000000000000000000000000000000000000000000000000000166014820152921b166017820152602b0190565b60405160208183030381529060405281526020013073ffffffffffffffffffffffffffffffffffffffff16815260200187815260200184815260200160008152506040518263ffffffff1660e01b81526004016139a09190614a60565b602060405180830381600087803b1580156139ba57600080fd5b505af11580156139ce573d6000803e3d6000fd5b505050506040513d601f19601f820116820180604052508101906139f2919061478a565b5050505b80613a0081614bba565b915050613717565b50600084600001600081548110613a2157613a21614c09565b60009182526020822001546040517f70a0823100000000000000000000000000000000000000000000000000000000815230600482015273ffffffffffffffffffffffffffffffffffffffff909116925082906370a082319060240160206040518083038186803b158015613a9557600080fd5b505afa158015613aa9573d6000803e3d6000fd5b505050506040513d601f19601f82011682018060405250810190613acd919061478a565b905060008111613b5f576040517f08c379a000000000000000000000000000000000000000000000000000000000815260206004820152603160248201527f53746f704c6f73733a3a72756e3a20696e73756666696369656e742062616c6160448201527f6e6365206f66206261736520746f6b656e000000000000000000000000000000606482015260840161077f565b613b8073ffffffffffffffffffffffffffffffffffffffff83168683613eec565b600086600001600081548110613b9857613b98614c09565b60009182526020918290200154604051613bf69273ffffffffffffffffffffffffffffffffffffffff909216910160609190911b7fffffffffffffffffffffffffffffffffffffffff00000000000000000000000016815260140190565b604080517fffffffffffffffffffffffffffffffffffffffffffffffffffffffffffffffe0818403018152919052905060015b8754811015613d3c5760018801548854839162ffffff16908a9084908110613c5357613c53614c09565b60009182526020918290200154604051613cdc939273ffffffffffffffffffffffffffffffffffffffff909216910160e89290921b7fffffff000000000000000000000000000000000000000000000000000000000016825260601b7fffffffffffffffffffffffffffffffffffffffff00000000000000000000000016600382015260170190565b604080517fffffffffffffffffffffffffffffffffffffffffffffffffffffffffffffffe081840301815290829052613d189291602001614980565b60405160208183030381529060405291508080613d3490614b81565b915050613c29565b506040805160a081018252828152306020820152808201869052606081018490526003890154608082015290517fc04b8d5900000000000000000000000000000000000000000000000000000000815273ffffffffffffffffffffffffffffffffffffffff88169163c04b8d5991613db79190600401614a60565b602060405180830381600087803b158015613dd157600080fd5b505af1158015613de5573d6000803e3d6000fd5b505050506040513d601f19601f82011682018060405250810190613e09919061478a565b5050505050505050565b60405173ffffffffffffffffffffffffffffffffffffffff8316602482015260448101829052613ee79084907fa9059cbb00000000000000000000000000000000000000000000000000000000906064015b604080517fffffffffffffffffffffffffffffffffffffffffffffffffffffffffffffffe08184030181529190526020810180517bffffffffffffffffffffffffffffffffffffffffffffffffffffffff167fffffffff000000000000000000000000000000000000000000000000000000009093169290921790915261407d565b505050565b801580613f9b57506040517fdd62ed3e00000000000000000000000000000000000000000000000000000000815230600482015273ffffffffffffffffffffffffffffffffffffffff838116602483015284169063dd62ed3e9060440160206040518083038186803b158015613f6157600080fd5b505afa158015613f75573d6000803e3d6000fd5b505050506040513d601f19601f82011682018060405250810190613f99919061478a565b155b614027576040517f08c379a000000000000000000000000000000000000000000000000000000000815260206004820152603660248201527f5361666545524332303a20617070726f76652066726f6d206e6f6e2d7a65726f60448201527f20746f206e6f6e2d7a65726f20616c6c6f77616e636500000000000000000000606482015260840161077f565b60405173ffffffffffffffffffffffffffffffffffffffff8316602482015260448101829052613ee79084907f095ea7b30000000000000000000000000000000000000000000000000000000090606401613e65565b60006140df826040518060400160405280602081526020017f5361666545524332303a206c6f772d6c6576656c2063616c6c206661696c65648152508573ffffffffffffffffffffffffffffffffffffffff166141899092919063ffffffff16565b805190915015613ee757808060200190518101906140fd919061471a565b613ee7576040517f08c379a000000000000000000000000000000000000000000000000000000000815260206004820152602a60248201527f5361666545524332303a204552433230206f7065726174696f6e20646964206e60448201527f6f74207375636365656400000000000000000000000000000000000000000000606482015260840161077f565b606061419884846000856141a2565b90505b9392505050565b606082471015614234576040517f08c379a000000000000000000000000000000000000000000000000000000000815260206004820152602660248201527f416464726573733a20696e73756666696369656e742062616c616e636520666f60448201527f722063616c6c0000000000000000000000000000000000000000000000000000606482015260840161077f565b843b61429c576040517f08c379a000000000000000000000000000000000000000000000000000000000815260206004820152601d60248201527f416464726573733a2063616c6c20746f206e6f6e2d636f6e7472616374000000604482015260640161077f565b6000808673ffffffffffffffffffffffffffffffffffffffff1685876040516142c59190614964565b60006040518083038185875af1925050503d8060008114614302576040519150601f19603f3d011682016040523d82523d6000602084013e614307565b606091505b5091509150614317828286614322565b979650505050505050565b6060831561433157508161419b565b8251156143415782518084602001fd5b816040517f08c379a000000000000000000000000000000000000000000000000000000000815260040161077f91906149f4565b8280548282559060005260206000209081019282156143ef579160200282015b828111156143ef57825182547fffffffffffffffffffffffff00000000000000000000000000000000000000001673ffffffffffffffffffffffffffffffffffffffff909116178255602090920191600190910190614395565b506143fb9291506143ff565b5090565b5b808211156143fb5760008155600101614400565b803561441f81614c67565b919050565b805161441f81614c67565b8051600281900b811461441f57600080fd5b80516fffffffffffffffffffffffffffffffff8116811461441f57600080fd5b803561441f81614c8c565b805161441f81614c8c565b805169ffffffffffffffffffff8116811461441f57600080fd5b6000602082840312156144a357600080fd5b813561419b81614c67565b6000602082840312156144c057600080fd5b815161419b81614c67565b600080600080608085870312156144e157600080fd5b84356144ec81614c67565b935060208501356144fc81614c67565b9250604085013561450c81614c67565b9150606085013561ffff8116811461452357600080fd5b939692955090935050565b60008060006060848603121561454357600080fd5b833561454e81614c67565b9250602084013561455e81614c67565b929592945050506040919091013590565b60008060008060006080868803121561458757600080fd5b853561459281614c67565b945060208601356145a281614c67565b935060408601359250606086013567ffffffffffffffff808211156145c657600080fd5b818801915088601f8301126145da57600080fd5b8135818111156145e957600080fd5b8960208285010111156145fb57600080fd5b9699959850939650602001949392505050565b6000806000806080858703121561462457600080fd5b843567ffffffffffffffff8082111561463c57600080fd5b818701915087601f83011261465057600080fd5b813560208282111561466457614664614c38565b8160051b6040517fffffffffffffffffffffffffffffffffffffffffffffffffffffffffffffffe0603f830116810181811086821117156146a7576146a7614c38565b604052838152828101945085830182870184018d10156146c657600080fd5b600096505b848710156146f0576146dc81614414565b8652600196909601959483019483016146cb565b5098506147009050898201614461565b979a97995050505060408601359560600135949350505050565b60006020828403121561472c57600080fd5b8151801515811461419b57600080fd5b60006020828403121561474e57600080fd5b5035919050565b60008060006060848603121561476a57600080fd5b61477384614441565b925060208401519150604084015190509250925092565b60006020828403121561479c57600080fd5b5051919050565b600080604083850312156147b657600080fd5b50508035926020909101359150565b600080604083850312156147d857600080fd5b505080516020909101519092909150565b600080600080600060a0868803121561480157600080fd5b61480a86614477565b945060208601519350604086015192506060860151915061482d60808701614477565b90509295509295909350565b6000806000806000806000806000806000806101808d8f03121561485c57600080fd5b8c516bffffffffffffffffffffffff8116811461487857600080fd5b9b5061488660208e01614424565b9a5061489460408e01614424565b99506148a260608e01614424565b98506148b060808e0161446c565b97506148be60a08e0161442f565b96506148cc60c08e0161442f565b95506148da60e08e01614441565b94506101008d015193506101208d015192506148f96101408e01614441565b91506149086101608e01614441565b90509295989b509295989b509295989b565b60008151808452614932816020860160208601614b55565b601f017fffffffffffffffffffffffffffffffffffffffffffffffffffffffffffffffe0169290920160200192915050565b60008251614976818460208701614b55565b9190910192915050565b60008351614992818460208801614b55565b8351908301906149a6818360208801614b55565b01949350505050565b73ffffffffffffffffffffffffffffffffffffffff851681528360208201528260408201526080606082015260006149ea608083018461491a565b9695505050505050565b60208152600061419b602083018461491a565b8151815260208083015173ffffffffffffffffffffffffffffffffffffffff16908201526040808301516fffffffffffffffffffffffffffffffff90811691830191909152606092830151169181019190915260800190565b602081526000825160a06020840152614a7c60c084018261491a565b905073ffffffffffffffffffffffffffffffffffffffff60208501511660408401526040840151606084015260608401516080840152608084015160a08401528091505092915050565b600082614afc577f4e487b7100000000000000000000000000000000000000000000000000000000600052601260045260246000fd5b500490565b6000817fffffffffffffffffffffffffffffffffffffffffffffffffffffffffffffffff0483118215151615614b3957614b39614bda565b500290565b600082821015614b5057614b50614bda565b500390565b60005b83811015614b70578181015183820152602001614b58565b83811115612f8d5750506000910152565b60007fffffffffffffffffffffffffffffffffffffffffffffffffffffffffffffffff821415614bb357614bb3614bda565b5060010190565b600060ff821660ff811415614bd157614bd1614bda565b60010192915050565b7f4e487b7100000000000000000000000000000000000000000000000000000000600052601160045260246000fd5b7f4e487b7100000000000000000000000000000000000000000000000000000000600052603260045260246000fd5b7f4e487b7100000000000000000000000000000000000000000000000000000000600052604160045260246000fd5b73ffffffffffffffffffffffffffffffffffffffff81168114614c8957600080fd5b50565b62ffffff81168114614c8957600080fdfea164736f6c6343000806000a",
  "deployedBytecode": "0x608060405234801561001057600080fd5b50600436106101775760003560e01c8063791b98bc116100d8578063b0e21e8a1161008c578063beabacc811610066578063beabacc81461039b578063f2fde38b146103ae578063f7d5e2d8146103c157600080fd5b8063b0e21e8a1461036d578063b6b55f2514610375578063bc68d6b01461038857600080fd5b80638da5cb5b116100bd5780638da5cb5b146103295780639327d80a146103475780639742b5c31461035a57600080fd5b8063791b98bc146102fc5780638456cb591461032157600080fd5b8063370158ea1161012f578063527a156511610114578063527a1565146102995780635c975abb146102d15780637357f5d2146102e957600080fd5b8063370158ea146102875780633f4ba83a1461028f57600080fd5b806317d70f7c1161016057806317d70f7c1461022f578063247029441461024657806329dcb0cf1461026657600080fd5b8063150b7a021461017c57806316f0115b146101ea575b600080fd5b6101b461018a36600461456f565b7f150b7a023d4804d13e8c85fb27262cb750cf6ba9f9dd3bb30d90f482ceeb4b1f95945050505050565b6040517fffffffff0000000000000000000000000000000000000000000000000000000090911681526020015b60405180910390f35b60055461020a9073ffffffffffffffffffffffffffffffffffffffff1681565b60405173ffffffffffffffffffffffffffffffffffffffff90911681526020016101e1565b61023860065481565b6040519081526020016101e1565b60045461020a9073ffffffffffffffffffffffffffffffffffffffff1681565b6007546102749061ffff1681565b60405161ffff90911681526020016101e1565b61020a6103d4565b610297610536565b005b600954600a54600b546102b09262ffffff16919083565b6040805162ffffff90941684526020840192909252908201526060016101e1565b6102d96108cd565b60405190151581526020016101e1565b6102976102f73660046147a3565b610a52565b60035461020a90610100900473ffffffffffffffffffffffffffffffffffffffff1681565b610297611218565b60015473ffffffffffffffffffffffffffffffffffffffff1661020a565b6102976103553660046147a3565b6115c2565b61029761036836600461473c565b611d21565b610238611f5b565b61029761038336600461473c565b612368565b6102976103963660046144cb565b6129ca565b6102976103a936600461452e565b612e3e565b6102976103bc366004614491565b612f93565b6102976103cf36600461460e565b6131f2565b6040517f6b880718000000000000000000000000000000000000000000000000000000008152306004820152600090819073__$0fb85c1a108326fe5c0d8f2f5a241bc0e7$__90636b8807189060240160206040518083038186803b15801561043c57600080fd5b505af4158015610450573d6000803e3d6000fd5b505050506040513d601f19601f8201168201806040525081019061047491906144ae565b905073ffffffffffffffffffffffffffffffffffffffff81163014156104b257505060005473ffffffffffffffffffffffffffffffffffffffff1690565b8073ffffffffffffffffffffffffffffffffffffffff1663370158ea6040518163ffffffff1660e01b815260040160206040518083038186803b1580156104f857600080fd5b505afa15801561050c573d6000803e3d6000fd5b505050506040513d601f19601f8201168201806040525081019061053091906144ae565b91505090565b6040517f6b88071800000000000000000000000000000000000000000000000000000000815230600482018190529073__$0fb85c1a108326fe5c0d8f2f5a241bc0e7$__90636b8807189060240160206040518083038186803b15801561059c57600080fd5b505af41580156105b0573d6000803e3d6000fd5b505050506040513d601f19601f820116820180604052508101906105d491906144ae565b73ffffffffffffffffffffffffffffffffffffffff16141561078e5760006105fa6103d4565b6040517f21f8a7210000000000000000000000000000000000000000000000000000000081527f689d13d8ed8ef1027633ba26e7121121cf427434450a529548f19bf175974395600482015273ffffffffffffffffffffffffffffffffffffffff91909116906321f8a7219060240160206040518083038186803b15801561068157600080fd5b505afa158015610695573d6000803e3d6000fd5b505050506040513d601f19601f820116820180604052508101906106b991906144ae565b60015490915073ffffffffffffffffffffffffffffffffffffffff163314806106f757503373ffffffffffffffffffffffffffffffffffffffff8216145b610788576040517f08c379a000000000000000000000000000000000000000000000000000000000815260206004820152602260248201527f4175746f6d6174653a2063616c6c6572206973206e6f7420746865207061757360448201527f657200000000000000000000000000000000000000000000000000000000000060648201526084015b60405180910390fd5b50610835565b60015473ffffffffffffffffffffffffffffffffffffffff163314610835576040517f08c379a000000000000000000000000000000000000000000000000000000000815260206004820152602260248201527f4175746f6d6174653a2063616c6c6572206973206e6f7420746865207061757360448201527f6572000000000000000000000000000000000000000000000000000000000000606482015260840161077f565b61083d6108cd565b6108a3576040517f08c379a000000000000000000000000000000000000000000000000000000000815260206004820152601460248201527f4175746f6d6174653a206e6f7420706175736564000000000000000000000000604482015260640161077f565b600180547fffffffffffffffffffffff00ffffffffffffffffffffffffffffffffffffffff169055565b6040517f6b880718000000000000000000000000000000000000000000000000000000008152306004820152600090819073__$0fb85c1a108326fe5c0d8f2f5a241bc0e7$__90636b8807189060240160206040518083038186803b15801561093557600080fd5b505af4158015610949573d6000803e3d6000fd5b505050506040513d601f19601f8201168201806040525081019061096d91906144ae565b905073ffffffffffffffffffffffffffffffffffffffff81163014156109b057505060015474010000000000000000000000000000000000000000900460ff1690565b60015474010000000000000000000000000000000000000000900460ff168061053057508073ffffffffffffffffffffffffffffffffffffffff16635c975abb6040518163ffffffff1660e01b815260040160206040518083038186803b158015610a1a57600080fd5b505afa158015610a2e573d6000803e3d6000fd5b505050506040513d601f19601f82011682018060405250810190610530919061471a565b600654610ae1576040517f08c379a000000000000000000000000000000000000000000000000000000000815260206004820152602c60248201527f52657374616b653a3a746f6b656e4465706f73697465643a20746f6b656e206e60448201527f6f74206465706f73697465640000000000000000000000000000000000000000606482015260840161077f565b6003546006546040517f6352211e0000000000000000000000000000000000000000000000000000000081523092610100900473ffffffffffffffffffffffffffffffffffffffff1691636352211e91610b42919060040190815260200190565b60206040518083038186803b158015610b5a57600080fd5b505afa158015610b6e573d6000803e3d6000fd5b505050506040513d601f19601f82011682018060405250810190610b9291906144ae565b73ffffffffffffffffffffffffffffffffffffffff1614610c35576040517f08c379a000000000000000000000000000000000000000000000000000000000815260206004820152602760248201527f52657374616b653a3a746f6b656e4465706f73697465643a20746f6b656e207260448201527f6566756e64656400000000000000000000000000000000000000000000000000606482015260840161077f565b816040518060400160405280601081526020017f556e6973776170563352657374616b6500000000000000000000000000000000815250610c768282613334565b506006546003546040517f99fbab880000000000000000000000000000000000000000000000000000000081526004810183905261010090910473ffffffffffffffffffffffffffffffffffffffff1690600090819083906399fbab88906024016101806040518083038186803b158015610cf057600080fd5b505afa158015610d04573d6000803e3d6000fd5b505050506040513d601f19601f82011682018060405250810190610d289190614839565b5050604080516080810182528f81523060208201526fffffffffffffffffffffffffffffffff818301819052606082015290517ffc6f7865000000000000000000000000000000000000000000000000000000008152989c50969a505073ffffffffffffffffffffffffffffffffffffffff8c16985063fc6f78659750610db8966004019450614a079350505050565b6040805180830381600087803b158015610dd157600080fd5b505af1158015610de5573d6000803e3d6000fd5b505050506040513d601f19601f82011682018060405250810190610e0991906147c5565b50506040517f70a0823100000000000000000000000000000000000000000000000000000000815230600482015260009073ffffffffffffffffffffffffffffffffffffffff8416906370a082319060240160206040518083038186803b158015610e7357600080fd5b505afa158015610e87573d6000803e3d6000fd5b505050506040513d601f19601f82011682018060405250810190610eab919061478a565b6040517f70a0823100000000000000000000000000000000000000000000000000000000815230600482015290915060009073ffffffffffffffffffffffffffffffffffffffff8416906370a082319060240160206040518083038186803b158015610f1657600080fd5b505afa158015610f2a573d6000803e3d6000fd5b505050506040513d601f19601f82011682018060405250810190610f4e919061478a565b90506000821180610f5f5750600081115b610fc5576040517f08c379a000000000000000000000000000000000000000000000000000000000815260206004820152601760248201527f52657374616b653a3a72756e3a206e6f206561726e6564000000000000000000604482015260640161077f565b6040517f095ea7b300000000000000000000000000000000000000000000000000000000815273ffffffffffffffffffffffffffffffffffffffff86811660048301526024820184905285169063095ea7b390604401602060405180830381600087803b15801561103557600080fd5b505af1158015611049573d6000803e3d6000fd5b505050506040513d601f19601f8201168201806040525081019061106d919061471a565b506040517f095ea7b300000000000000000000000000000000000000000000000000000000815273ffffffffffffffffffffffffffffffffffffffff86811660048301526024820183905284169063095ea7b390604401602060405180830381600087803b1580156110de57600080fd5b505af11580156110f2573d6000803e3d6000fd5b505050506040513d601f19601f82011682018060405250810190611116919061471a565b506040805160c081018252878152602081018481528183018481526000606084018181526080850191825260a085018f815295517f219f5d1700000000000000000000000000000000000000000000000000000000815294516004860152925160248501529051604484015290516064830152516084820152905160a482015273ffffffffffffffffffffffffffffffffffffffff86169063219f5d179060c401606060405180830381600087803b1580156111d157600080fd5b505af11580156111e5573d6000803e3d6000fd5b505050506040513d601f19601f820116820180604052508101906112099190614755565b50505050505050505050505050565b6040517f6b88071800000000000000000000000000000000000000000000000000000000815230600482018190529073__$0fb85c1a108326fe5c0d8f2f5a241bc0e7$__90636b8807189060240160206040518083038186803b15801561127e57600080fd5b505af4158015611292573d6000803e3d6000fd5b505050506040513d601f19601f820116820180604052508101906112b691906144ae565b73ffffffffffffffffffffffffffffffffffffffff16141561146b5760006112dc6103d4565b6040517f21f8a7210000000000000000000000000000000000000000000000000000000081527f689d13d8ed8ef1027633ba26e7121121cf427434450a529548f19bf175974395600482015273ffffffffffffffffffffffffffffffffffffffff91909116906321f8a7219060240160206040518083038186803b15801561136357600080fd5b505afa158015611377573d6000803e3d6000fd5b505050506040513d601f19601f8201168201806040525081019061139b91906144ae565b60015490915073ffffffffffffffffffffffffffffffffffffffff163314806113d957503373ffffffffffffffffffffffffffffffffffffffff8216145b611465576040517f08c379a000000000000000000000000000000000000000000000000000000000815260206004820152602260248201527f4175746f6d6174653a2063616c6c6572206973206e6f7420746865207061757360448201527f6572000000000000000000000000000000000000000000000000000000000000606482015260840161077f565b50611512565b60015473ffffffffffffffffffffffffffffffffffffffff163314611512576040517f08c379a000000000000000000000000000000000000000000000000000000000815260206004820152602260248201527f4175746f6d6174653a2063616c6c6572206973206e6f7420746865207061757360448201527f6572000000000000000000000000000000000000000000000000000000000000606482015260840161077f565b61151a6108cd565b15611581576040517f08c379a000000000000000000000000000000000000000000000000000000000815260206004820152601060248201527f4175746f6d6174653a2070617573656400000000000000000000000000000000604482015260640161077f565b600180547fffffffffffffffffffffff00ffffffffffffffffffffffffffffffffffffffff1674010000000000000000000000000000000000000000179055565b600654611651576040517f08c379a000000000000000000000000000000000000000000000000000000000815260206004820152602c60248201527f52657374616b653a3a746f6b656e4465706f73697465643a20746f6b656e206e60448201527f6f74206465706f73697465640000000000000000000000000000000000000000606482015260840161077f565b6003546006546040517f6352211e0000000000000000000000000000000000000000000000000000000081523092610100900473ffffffffffffffffffffffffffffffffffffffff1691636352211e916116b2919060040190815260200190565b60206040518083038186803b1580156116ca57600080fd5b505afa1580156116de573d6000803e3d6000fd5b505050506040513d601f19601f8201168201806040525081019061170291906144ae565b73ffffffffffffffffffffffffffffffffffffffff16146117a5576040517f08c379a000000000000000000000000000000000000000000000000000000000815260206004820152602760248201527f52657374616b653a3a746f6b656e4465706f73697465643a20746f6b656e207260448201527f6566756e64656400000000000000000000000000000000000000000000000000606482015260840161077f565b816040518060400160405280601881526020017f556e6973776170563352657374616b6553746f704c6f737300000000000000008152506117e68282613334565b506006546003546040517f99fbab880000000000000000000000000000000000000000000000000000000081526004810183905261010090910473ffffffffffffffffffffffffffffffffffffffff16906000908190819084906399fbab88906024016101806040518083038186803b15801561186257600080fd5b505afa158015611876573d6000803e3d6000fd5b505050506040513d601f19601f8201168201806040525081019061189a9190614839565b5050505097505050509450945050506000816fffffffffffffffffffffffffffffffff161161194b576040517f08c379a000000000000000000000000000000000000000000000000000000000815260206004820152602a60248201527f52657374616b653a3a72756e53746f704c6f73733a20746f6b656e20616c726560448201527f61647920636c6f73656400000000000000000000000000000000000000000000606482015260840161077f565b6040805160a0810182528681526fffffffffffffffffffffffffffffffff83811660208301908152600083850181815260608501918252608085018e815295517f0c49ccbe00000000000000000000000000000000000000000000000000000000815294516004860152915190921660248401525160448301525160648201529051608482015273ffffffffffffffffffffffffffffffffffffffff851690630c49ccbe9060a4016040805180830381600087803b158015611a0c57600080fd5b505af1158015611a20573d6000803e3d6000fd5b505050506040513d601f19601f82011682018060405250810190611a4491906147c5565b50506040805160808101825286815230602082019081526fffffffffffffffffffffffffffffffff8284018181526060840182815294517ffc6f786500000000000000000000000000000000000000000000000000000000815293516004850152915173ffffffffffffffffffffffffffffffffffffffff9081166024850152915181166044840152925190921660648201529085169063fc6f7865906084016040805180830381600087803b158015611afd57600080fd5b505af1158015611b11573d6000803e3d6000fd5b505050506040513d601f19601f82011682018060405250810190611b3591906147c5565b50506040805160028082526060820183526000926020830190803683370190505090508381600081518110611b6c57611b6c614c09565b602002602001019073ffffffffffffffffffffffffffffffffffffffff16908173ffffffffffffffffffffffffffffffffffffffff16815250508281600181518110611bba57611bba614c09565b73ffffffffffffffffffffffffffffffffffffffff9283166020918202929092010152600454611bef9160089116838c613606565b6008805460009190611c0390600190614b3e565b81548110611c1357611c13614c09565b60009182526020909120015473ffffffffffffffffffffffffffffffffffffffff169050611d14611c5960015473ffffffffffffffffffffffffffffffffffffffff1690565b6040517f70a0823100000000000000000000000000000000000000000000000000000000815230600482015273ffffffffffffffffffffffffffffffffffffffff8416906370a082319060240160206040518083038186803b158015611cbe57600080fd5b505afa158015611cd2573d6000803e3d6000fd5b505050506040513d601f19601f82011682018060405250810190611cf6919061478a565b73ffffffffffffffffffffffffffffffffffffffff84169190613e13565b5050505050505050505050565b6040517f6b88071800000000000000000000000000000000000000000000000000000000815230600482015260009073__$0fb85c1a108326fe5c0d8f2f5a241bc0e7$__90636b8807189060240160206040518083038186803b158015611d8757600080fd5b505af4158015611d9b573d6000803e3d6000fd5b505050506040513d601f19601f82011682018060405250810190611dbf91906144ae565b90503373ffffffffffffffffffffffffffffffffffffffff82163014611e62578173ffffffffffffffffffffffffffffffffffffffff16638da5cb5b6040518163ffffffff1660e01b815260040160206040518083038186803b158015611e2557600080fd5b505afa158015611e39573d6000803e3d6000fd5b505050506040513d601f19601f82011682018060405250810190611e5d91906144ae565b611e7c565b60015473ffffffffffffffffffffffffffffffffffffffff165b73ffffffffffffffffffffffffffffffffffffffff1614611f1f576040517f08c379a000000000000000000000000000000000000000000000000000000000815260206004820152603d60248201527f4175746f6d6174653a3a6368616e676550726f746f636f6c4665653a2063616c60448201527f6c6572206973206e6f74207468652070726f746f636f6c206f776e6572000000606482015260840161077f565b60028290556040518281527f3c1d43943224e49d951ce8295a5c8332b517083b3f89bed50feae2cb39caebb59060200160405180910390a15050565b6040517f6b880718000000000000000000000000000000000000000000000000000000008152306004820152600090819073__$0fb85c1a108326fe5c0d8f2f5a241bc0e7$__90636b8807189060240160206040518083038186803b158015611fc357600080fd5b505af4158015611fd7573d6000803e3d6000fd5b505050506040513d601f19601f82011682018060405250810190611ffb91906144ae565b905073ffffffffffffffffffffffffffffffffffffffff8116301480159061202557506000600254125b156120a8578073ffffffffffffffffffffffffffffffffffffffff1663b0e21e8a6040518163ffffffff1660e01b815260040160206040518083038186803b15801561207057600080fd5b505afa158015612084573d6000803e3d6000fd5b505050506040513d601f19601f82011682018060405250810190610530919061478a565b60006120b26103d4565b9050600080600254126120c757600254612184565b6040517fbd02d0f50000000000000000000000000000000000000000000000000000000081527fa93d95f96a5de25d7a41ddf1f5e8d45cfc929c4838163cf011dab4043a4a40d5600482015273ffffffffffffffffffffffffffffffffffffffff83169063bd02d0f59060240160206040518083038186803b15801561214c57600080fd5b505afa158015612160573d6000803e3d6000fd5b505050506040513d601f19601f82011682018060405250810190612184919061478a565b905080612195576000935050505090565b6040517f21f8a7210000000000000000000000000000000000000000000000000000000081527f65c90423fe7c880476633a7e36521740f87199d233dc56eb4ca6643eb76f605f600482015260009073ffffffffffffffffffffffffffffffffffffffff8416906321f8a7219060240160206040518083038186803b15801561221d57600080fd5b505afa158015612231573d6000803e3d6000fd5b505050506040513d601f19601f8201168201806040525081019061225591906144ae565b73ffffffffffffffffffffffffffffffffffffffff1663feaf968c6040518163ffffffff1660e01b815260040160a06040518083038186803b15801561229a57600080fd5b505afa1580156122ae573d6000803e3d6000fd5b505050506040513d601f19601f820116820180604052508101906122d291906147e9565b50505091505060008113612342576040517f08c379a000000000000000000000000000000000000000000000000000000000815260206004820152601760248201527f4175746f6d6174653a20696e76616c6964207072696365000000000000000000604482015260640161077f565b8061235583670de0b6b3a7640000614b01565b61235f9190614ac6565b94505050505090565b60015473ffffffffffffffffffffffffffffffffffffffff16331461240f576040517f08c379a000000000000000000000000000000000000000000000000000000000815260206004820152602160248201527f4175746f6d6174653a2063616c6c6572206973206e6f7420746865206f776e6560448201527f7200000000000000000000000000000000000000000000000000000000000000606482015260840161077f565b6006541561249f576040517f08c379a000000000000000000000000000000000000000000000000000000000815260206004820152602960248201527f52657374616b653a3a6465706f7369743a20746f6b656e20616c72656164792060448201527f6465706f73697465640000000000000000000000000000000000000000000000606482015260840161077f565b60068190556003546040517f99fbab880000000000000000000000000000000000000000000000000000000081526004810183905261010090910473ffffffffffffffffffffffffffffffffffffffff16906000908190819084906399fbab88906024016101806040518083038186803b15801561251c57600080fd5b505afa158015612530573d6000803e3d6000fd5b505050506040513d601f19601f820116820180604052508101906125549190614839565b505050505050509450945094505050600073ffffffffffffffffffffffffffffffffffffffff168373ffffffffffffffffffffffffffffffffffffffff161415612620576040517f08c379a000000000000000000000000000000000000000000000000000000000815260206004820152602860248201527f52657374616b653a3a6465706f7369743a20696e76616c696420746f6b656e3060448201527f2061646472657373000000000000000000000000000000000000000000000000606482015260840161077f565b73ffffffffffffffffffffffffffffffffffffffff82166126c3576040517f08c379a000000000000000000000000000000000000000000000000000000000815260206004820152602860248201527f52657374616b653a3a6465706f7369743a20696e76616c696420746f6b656e3160448201527f2061646472657373000000000000000000000000000000000000000000000000606482015260840161077f565b60008473ffffffffffffffffffffffffffffffffffffffff1663c45a01556040518163ffffffff1660e01b8152600401602060405180830381600087803b15801561270d57600080fd5b505af1158015612721573d6000803e3d6000fd5b505050506040513d601f19601f8201168201806040525081019061274591906144ae565b6040517f1698ee8200000000000000000000000000000000000000000000000000000000815273ffffffffffffffffffffffffffffffffffffffff8681166004830152858116602483015262ffffff851660448301529190911690631698ee8290606401602060405180830381600087803b1580156127c357600080fd5b505af11580156127d7573d6000803e3d6000fd5b505050506040513d601f19601f820116820180604052508101906127fb91906144ae565b60055490915073ffffffffffffffffffffffffffffffffffffffff8083169116146128a8576040517f08c379a000000000000000000000000000000000000000000000000000000000815260206004820152602660248201527f52657374616b653a3a6465706f7369743a20696e76616c696420706f6f6c206160448201527f6464726573730000000000000000000000000000000000000000000000000000606482015260840161077f565b6006546040517f42842e0e000000000000000000000000000000000000000000000000000000008152336004820152306024820152604481019190915273ffffffffffffffffffffffffffffffffffffffff8616906342842e0e90606401600060405180830381600087803b15801561292057600080fd5b505af1158015612934573d6000803e3d6000fd5b50506006546040517f095ea7b3000000000000000000000000000000000000000000000000000000008152336004820152602481019190915273ffffffffffffffffffffffffffffffffffffffff8816925063095ea7b39150604401600060405180830381600087803b1580156129aa57600080fd5b505af11580156129be573d6000803e3d6000fd5b50505050505050505050565b60015473ffffffffffffffffffffffffffffffffffffffff16612a3a57600180547fffffffffffffffffffffffff000000000000000000000000000000000000000016321790557fffffffffffffffffffffffffffffffffffffffffffffffffffffffffffffffff600255612ae1565b60015473ffffffffffffffffffffffffffffffffffffffff163314612ae1576040517f08c379a000000000000000000000000000000000000000000000000000000000815260206004820152602160248201527f4175746f6d6174653a2063616c6c6572206973206e6f7420746865206f776e6560448201527f7200000000000000000000000000000000000000000000000000000000000000606482015260840161077f565b60035460ff161580612b12575060035473ffffffffffffffffffffffffffffffffffffffff85811661010090920416145b612b9e576040517f08c379a000000000000000000000000000000000000000000000000000000000815260206004820152603e60248201527f52657374616b653a3a696e69743a207265696e697469616c697a6520706f736960448201527f74696f6e206d616e61676572206164647265737320666f7262696464656e0000606482015260840161077f565b6003805473ffffffffffffffffffffffffffffffffffffffff8616610100027fffffffffffffffffffffff0000000000000000000000000000000000000000ff8216811790925560ff9182169116171580612c13575060045473ffffffffffffffffffffffffffffffffffffffff8481169116145b612c9f576040517f08c379a000000000000000000000000000000000000000000000000000000000815260206004820152603e60248201527f52657374616b653a3a696e69743a207265696e697469616c697a65206c69717560448201527f696469747920726f75746572206164647265737320666f7262696464656e0000606482015260840161077f565b600480547fffffffffffffffffffffffff00000000000000000000000000000000000000001673ffffffffffffffffffffffffffffffffffffffff851617905560035460ff161580612d0b575060055473ffffffffffffffffffffffffffffffffffffffff8381169116145b612d97576040517f08c379a000000000000000000000000000000000000000000000000000000000815260206004820152603260248201527f52657374616b653a3a696e69743a207265696e697469616c697a6520706f6f6c60448201527f206164647265737320666f7262696464656e0000000000000000000000000000606482015260840161077f565b600580547fffffffffffffffffffffffff00000000000000000000000000000000000000001673ffffffffffffffffffffffffffffffffffffffff9390931692909217909155600780547fffffffffffffffffffffffffffffffffffffffffffffffffffffffffffff00001661ffff9092169190911790555050600380547fffffffffffffffffffffffffffffffffffffffffffffffffffffffffffffff00166001179055565b60015473ffffffffffffffffffffffffffffffffffffffff163314612ee5576040517f08c379a000000000000000000000000000000000000000000000000000000000815260206004820152602160248201527f4175746f6d6174653a2063616c6c6572206973206e6f7420746865206f776e6560448201527f7200000000000000000000000000000000000000000000000000000000000000606482015260840161077f565b6040517fa9059cbb00000000000000000000000000000000000000000000000000000000815273ffffffffffffffffffffffffffffffffffffffff83811660048301526024820183905284169063a9059cbb90604401602060405180830381600087803b158015612f5557600080fd5b505af1158015612f69573d6000803e3d6000fd5b505050506040513d601f19601f82011682018060405250810190612f8d919061471a565b50505050565b60015473ffffffffffffffffffffffffffffffffffffffff16331461303a576040517f08c379a000000000000000000000000000000000000000000000000000000000815260206004820152602160248201527f4175746f6d6174653a2063616c6c6572206973206e6f7420746865206f776e6560448201527f7200000000000000000000000000000000000000000000000000000000000000606482015260840161077f565b6040517f6b88071800000000000000000000000000000000000000000000000000000000815230600482018190529073__$0fb85c1a108326fe5c0d8f2f5a241bc0e7$__90636b8807189060240160206040518083038186803b1580156130a057600080fd5b505af41580156130b4573d6000803e3d6000fd5b505050506040513d601f19601f820116820180604052508101906130d891906144ae565b73ffffffffffffffffffffffffffffffffffffffff161461317b576040517f08c379a000000000000000000000000000000000000000000000000000000000815260206004820152602160248201527f4175746f6d6174653a206368616e676520746865206f776e6572206661696c6560448201527f6400000000000000000000000000000000000000000000000000000000000000606482015260840161077f565b6001805473ffffffffffffffffffffffffffffffffffffffff8381167fffffffffffffffffffffffff0000000000000000000000000000000000000000831681179093556040519116919082907f8be0079c531659141344cd1fd0a4f28419497f9722a3daafe3b4186f6b6457e090600090a35050565b60015473ffffffffffffffffffffffffffffffffffffffff163314613299576040517f08c379a000000000000000000000000000000000000000000000000000000000815260206004820152602160248201527f4175746f6d6174653a2063616c6c6572206973206e6f7420746865206f776e6560448201527f7200000000000000000000000000000000000000000000000000000000000000606482015260840161077f565b60405180608001604052808581526020018462ffffff16815260200183815260200182815250600860008201518160000190805190602001906132dd929190614375565b5060208201516001820180547fffffffffffffffffffffffffffffffffffffffffffffffffffffffffff0000001662ffffff9092169190911790556040820151600282015560609091015160039091015550505050565b600061333e6108cd565b156133a5576040517f08c379a000000000000000000000000000000000000000000000000000000000815260206004820152601060248201527f4175746f6d6174653a2070617573656400000000000000000000000000000000604482015260640161077f565b60006133c660015473ffffffffffffffffffffffffffffffffffffffff1690565b90503273ffffffffffffffffffffffffffffffffffffffff821614156133f0576000915050613600565b60006133fa6103d4565b6040517f21f8a7210000000000000000000000000000000000000000000000000000000081527fe78c16c6d839536d3155985aab4e9c6013c8c3d446054bcebc48612f359d81f5600482015290915060009073ffffffffffffffffffffffffffffffffffffffff8316906321f8a7219060240160206040518083038186803b15801561348557600080fd5b505afa158015613499573d6000803e3d6000fd5b505050506040513d601f19601f820116820180604052508101906134bd91906144ae565b905073ffffffffffffffffffffffffffffffffffffffff8116613562576040517f08c379a000000000000000000000000000000000000000000000000000000000815260206004820152602b60248201527f4175746f6d6174653a3a5f62696c6c3a2062616c616e636520636f6e7472616360448201527f74206e6f7420666f756e64000000000000000000000000000000000000000000606482015260840161077f565b8073ffffffffffffffffffffffffffffffffffffffff1663e578a2258488613588611f5b565b896040518563ffffffff1660e01b81526004016135a894939291906149af565b602060405180830381600087803b1580156135c257600080fd5b505af11580156135d6573d6000803e3d6000fd5b505050506040513d601f19601f820116820180604052508101906135fa919061478a565b93505050505b92915050565b8354600110801561361b575060008460020154115b6136a7576040517f08c379a000000000000000000000000000000000000000000000000000000000815260206004820152602160248201527f53746f704c6f73733a3a72756e3a2073746f70206c6f73732064697361626c6560448201527f6400000000000000000000000000000000000000000000000000000000000000606482015260840161077f565b61010082511115613714576040517f08c379a000000000000000000000000000000000000000000000000000000000815260206004820152601e60248201527f53746f704c6f73733a3a72756e3a20746f6f206d616e7920746f6b656e730000604482015260640161077f565b60005b82518160ff161015613a08576000838260ff168151811061373a5761373a614c09565b602002602001015190508560000160008154811061375a5761375a614c09565b60009182526020909120015473ffffffffffffffffffffffffffffffffffffffff8281169116141561378c57506139f6565b6040517f70a0823100000000000000000000000000000000000000000000000000000000815230600482015260009073ffffffffffffffffffffffffffffffffffffffff8316906370a082319060240160206040518083038186803b1580156137f457600080fd5b505afa158015613808573d6000803e3d6000fd5b505050506040513d601f19601f8201168201806040525081019061382c919061478a565b90508061383a5750506139f6565b61385b73ffffffffffffffffffffffffffffffffffffffff83168783613eec565b8573ffffffffffffffffffffffffffffffffffffffff1663c04b8d596040518060a00160405280858b60010160009054906101000a900462ffffff168c6000016000815481106138ad576138ad614c09565b6000918252602091829020015460405161394394939273ffffffffffffffffffffffffffffffffffffffff9092169101606093841b7fffffffffffffffffffffffffffffffffffffffff000000000000000000000000908116825260e89390931b7fffffff0000000000000000000000000000000000000000000000000000000000166014820152921b166017820152602b0190565b60405160208183030381529060405281526020013073ffffffffffffffffffffffffffffffffffffffff16815260200187815260200184815260200160008152506040518263ffffffff1660e01b81526004016139a09190614a60565b602060405180830381600087803b1580156139ba57600080fd5b505af11580156139ce573d6000803e3d6000fd5b505050506040513d601f19601f820116820180604052508101906139f2919061478a565b5050505b80613a0081614bba565b915050613717565b50600084600001600081548110613a2157613a21614c09565b60009182526020822001546040517f70a0823100000000000000000000000000000000000000000000000000000000815230600482015273ffffffffffffffffffffffffffffffffffffffff909116925082906370a082319060240160206040518083038186803b158015613a9557600080fd5b505afa158015613aa9573d6000803e3d6000fd5b505050506040513d601f19601f82011682018060405250810190613acd919061478a565b905060008111613b5f576040517f08c379a000000000000000000000000000000000000000000000000000000000815260206004820152603160248201527f53746f704c6f73733a3a72756e3a20696e73756666696369656e742062616c6160448201527f6e6365206f66206261736520746f6b656e000000000000000000000000000000606482015260840161077f565b613b8073ffffffffffffffffffffffffffffffffffffffff83168683613eec565b600086600001600081548110613b9857613b98614c09565b60009182526020918290200154604051613bf69273ffffffffffffffffffffffffffffffffffffffff909216910160609190911b7fffffffffffffffffffffffffffffffffffffffff00000000000000000000000016815260140190565b604080517fffffffffffffffffffffffffffffffffffffffffffffffffffffffffffffffe0818403018152919052905060015b8754811015613d3c5760018801548854839162ffffff16908a9084908110613c5357613c53614c09565b60009182526020918290200154604051613cdc939273ffffffffffffffffffffffffffffffffffffffff909216910160e89290921b7fffffff000000000000000000000000000000000000000000000000000000000016825260601b7fffffffffffffffffffffffffffffffffffffffff00000000000000000000000016600382015260170190565b604080517fffffffffffffffffffffffffffffffffffffffffffffffffffffffffffffffe081840301815290829052613d189291602001614980565b60405160208183030381529060405291508080613d3490614b81565b915050613c29565b506040805160a081018252828152306020820152808201869052606081018490526003890154608082015290517fc04b8d5900000000000000000000000000000000000000000000000000000000815273ffffffffffffffffffffffffffffffffffffffff88169163c04b8d5991613db79190600401614a60565b602060405180830381600087803b158015613dd157600080fd5b505af1158015613de5573d6000803e3d6000fd5b505050506040513d601f19601f82011682018060405250810190613e09919061478a565b5050505050505050565b60405173ffffffffffffffffffffffffffffffffffffffff8316602482015260448101829052613ee79084907fa9059cbb00000000000000000000000000000000000000000000000000000000906064015b604080517fffffffffffffffffffffffffffffffffffffffffffffffffffffffffffffffe08184030181529190526020810180517bffffffffffffffffffffffffffffffffffffffffffffffffffffffff167fffffffff000000000000000000000000000000000000000000000000000000009093169290921790915261407d565b505050565b801580613f9b57506040517fdd62ed3e00000000000000000000000000000000000000000000000000000000815230600482015273ffffffffffffffffffffffffffffffffffffffff838116602483015284169063dd62ed3e9060440160206040518083038186803b158015613f6157600080fd5b505afa158015613f75573d6000803e3d6000fd5b505050506040513d601f19601f82011682018060405250810190613f99919061478a565b155b614027576040517f08c379a000000000000000000000000000000000000000000000000000000000815260206004820152603660248201527f5361666545524332303a20617070726f76652066726f6d206e6f6e2d7a65726f60448201527f20746f206e6f6e2d7a65726f20616c6c6f77616e636500000000000000000000606482015260840161077f565b60405173ffffffffffffffffffffffffffffffffffffffff8316602482015260448101829052613ee79084907f095ea7b30000000000000000000000000000000000000000000000000000000090606401613e65565b60006140df826040518060400160405280602081526020017f5361666545524332303a206c6f772d6c6576656c2063616c6c206661696c65648152508573ffffffffffffffffffffffffffffffffffffffff166141899092919063ffffffff16565b805190915015613ee757808060200190518101906140fd919061471a565b613ee7576040517f08c379a000000000000000000000000000000000000000000000000000000000815260206004820152602a60248201527f5361666545524332303a204552433230206f7065726174696f6e20646964206e60448201527f6f74207375636365656400000000000000000000000000000000000000000000606482015260840161077f565b606061419884846000856141a2565b90505b9392505050565b606082471015614234576040517f08c379a000000000000000000000000000000000000000000000000000000000815260206004820152602660248201527f416464726573733a20696e73756666696369656e742062616c616e636520666f60448201527f722063616c6c0000000000000000000000000000000000000000000000000000606482015260840161077f565b843b61429c576040517f08c379a000000000000000000000000000000000000000000000000000000000815260206004820152601d60248201527f416464726573733a2063616c6c20746f206e6f6e2d636f6e7472616374000000604482015260640161077f565b6000808673ffffffffffffffffffffffffffffffffffffffff1685876040516142c59190614964565b60006040518083038185875af1925050503d8060008114614302576040519150601f19603f3d011682016040523d82523d6000602084013e614307565b606091505b5091509150614317828286614322565b979650505050505050565b6060831561433157508161419b565b8251156143415782518084602001fd5b816040517f08c379a000000000000000000000000000000000000000000000000000000000815260040161077f91906149f4565b8280548282559060005260206000209081019282156143ef579160200282015b828111156143ef57825182547fffffffffffffffffffffffff00000000000000000000000000000000000000001673ffffffffffffffffffffffffffffffffffffffff909116178255602090920191600190910190614395565b506143fb9291506143ff565b5090565b5b808211156143fb5760008155600101614400565b803561441f81614c67565b919050565b805161441f81614c67565b8051600281900b811461441f57600080fd5b80516fffffffffffffffffffffffffffffffff8116811461441f57600080fd5b803561441f81614c8c565b805161441f81614c8c565b805169ffffffffffffffffffff8116811461441f57600080fd5b6000602082840312156144a357600080fd5b813561419b81614c67565b6000602082840312156144c057600080fd5b815161419b81614c67565b600080600080608085870312156144e157600080fd5b84356144ec81614c67565b935060208501356144fc81614c67565b9250604085013561450c81614c67565b9150606085013561ffff8116811461452357600080fd5b939692955090935050565b60008060006060848603121561454357600080fd5b833561454e81614c67565b9250602084013561455e81614c67565b929592945050506040919091013590565b60008060008060006080868803121561458757600080fd5b853561459281614c67565b945060208601356145a281614c67565b935060408601359250606086013567ffffffffffffffff808211156145c657600080fd5b818801915088601f8301126145da57600080fd5b8135818111156145e957600080fd5b8960208285010111156145fb57600080fd5b9699959850939650602001949392505050565b6000806000806080858703121561462457600080fd5b843567ffffffffffffffff8082111561463c57600080fd5b818701915087601f83011261465057600080fd5b813560208282111561466457614664614c38565b8160051b6040517fffffffffffffffffffffffffffffffffffffffffffffffffffffffffffffffe0603f830116810181811086821117156146a7576146a7614c38565b604052838152828101945085830182870184018d10156146c657600080fd5b600096505b848710156146f0576146dc81614414565b8652600196909601959483019483016146cb565b5098506147009050898201614461565b979a97995050505060408601359560600135949350505050565b60006020828403121561472c57600080fd5b8151801515811461419b57600080fd5b60006020828403121561474e57600080fd5b5035919050565b60008060006060848603121561476a57600080fd5b61477384614441565b925060208401519150604084015190509250925092565b60006020828403121561479c57600080fd5b5051919050565b600080604083850312156147b657600080fd5b50508035926020909101359150565b600080604083850312156147d857600080fd5b505080516020909101519092909150565b600080600080600060a0868803121561480157600080fd5b61480a86614477565b945060208601519350604086015192506060860151915061482d60808701614477565b90509295509295909350565b6000806000806000806000806000806000806101808d8f03121561485c57600080fd5b8c516bffffffffffffffffffffffff8116811461487857600080fd5b9b5061488660208e01614424565b9a5061489460408e01614424565b99506148a260608e01614424565b98506148b060808e0161446c565b97506148be60a08e0161442f565b96506148cc60c08e0161442f565b95506148da60e08e01614441565b94506101008d015193506101208d015192506148f96101408e01614441565b91506149086101608e01614441565b90509295989b509295989b509295989b565b60008151808452614932816020860160208601614b55565b601f017fffffffffffffffffffffffffffffffffffffffffffffffffffffffffffffffe0169290920160200192915050565b60008251614976818460208701614b55565b9190910192915050565b60008351614992818460208801614b55565b8351908301906149a6818360208801614b55565b01949350505050565b73ffffffffffffffffffffffffffffffffffffffff851681528360208201528260408201526080606082015260006149ea608083018461491a565b9695505050505050565b60208152600061419b602083018461491a565b8151815260208083015173ffffffffffffffffffffffffffffffffffffffff16908201526040808301516fffffffffffffffffffffffffffffffff90811691830191909152606092830151169181019190915260800190565b602081526000825160a06020840152614a7c60c084018261491a565b905073ffffffffffffffffffffffffffffffffffffffff60208501511660408401526040840151606084015260608401516080840152608084015160a08401528091505092915050565b600082614afc577f4e487b7100000000000000000000000000000000000000000000000000000000600052601260045260246000fd5b500490565b6000817fffffffffffffffffffffffffffffffffffffffffffffffffffffffffffffffff0483118215151615614b3957614b39614bda565b500290565b600082821015614b5057614b50614bda565b500390565b60005b83811015614b70578181015183820152602001614b58565b83811115612f8d5750506000910152565b60007fffffffffffffffffffffffffffffffffffffffffffffffffffffffffffffffff821415614bb357614bb3614bda565b5060010190565b600060ff821660ff811415614bd157614bd1614bda565b60010192915050565b7f4e487b7100000000000000000000000000000000000000000000000000000000600052601160045260246000fd5b7f4e487b7100000000000000000000000000000000000000000000000000000000600052603260045260246000fd5b7f4e487b7100000000000000000000000000000000000000000000000000000000600052604160045260246000fd5b73ffffffffffffffffffffffffffffffffffffffff81168114614c8957600080fd5b50565b62ffffff81168114614c8957600080fdfea164736f6c6343000806000a",
  "libraries": {
    "ERC1167": "0x10bBA4e8A2f6F85B75cd75ef773f5Daca5596C87"
  },
  "devdoc": {
    "kind": "dev",
    "methods": {
      "changeProtocolFee(int256)": {
        "params": {
          "__protocolFee": "New protocol fee."
        }
      },
      "protocolFee()": {
        "returns": {
          "_0": "Current protocol fee."
        }
      },
      "transfer(address,address,uint256)": {
        "params": {
          "amount": "Transferred amount of tokens.",
          "recipient": "Token recipient address.",
          "token": "The address of the token to be transferred."
        }
      },
      "transferOwnership(address)": {
        "details": "Transfers ownership of the contract to a new account (`newOwner`). Can only be called by the current owner."
      }
    },
    "version": 1
  },
  "userdoc": {
    "kind": "user",
    "methods": {
      "changeProtocolFee(int256)": {
        "notice": "Change protocol fee."
      },
      "info()": {
        "notice": "Returns address of Storage contract."
      },
      "owner()": {
        "notice": "Returns the address of the current owner."
      },
      "pause()": {
        "notice": "Pause contract."
      },
      "paused()": {
        "notice": "Returns true if the contract is paused, and false otherwise."
      },
      "transfer(address,address,uint256)": {
        "notice": "Transfer ERC20 token to recipient."
      },
      "unpause()": {
        "notice": "Unpause contract."
      }
    },
    "version": 1
  },
  "storageLayout": {
    "storage": [
      {
        "astId": 1451,
        "contract": "contracts/Restake.automate.sol:Restake",
        "label": "_info",
        "offset": 0,
        "slot": "0",
        "type": "t_address"
      },
      {
        "astId": 1454,
        "contract": "contracts/Restake.automate.sol:Restake",
        "label": "_owner",
        "offset": 0,
        "slot": "1",
        "type": "t_address"
      },
      {
        "astId": 1457,
        "contract": "contracts/Restake.automate.sol:Restake",
        "label": "_paused",
        "offset": 20,
        "slot": "1",
        "type": "t_bool"
      },
      {
        "astId": 1460,
        "contract": "contracts/Restake.automate.sol:Restake",
        "label": "_protocolFee",
        "offset": 0,
        "slot": "2",
        "type": "t_int256"
      },
      {
        "astId": 1463,
        "contract": "contracts/Restake.automate.sol:Restake",
        "label": "_initialized",
        "offset": 0,
        "slot": "3",
        "type": "t_bool"
      },
      {
        "astId": 666,
        "contract": "contracts/Restake.automate.sol:Restake",
        "label": "positionManager",
        "offset": 1,
        "slot": "3",
        "type": "t_address"
      },
      {
        "astId": 668,
        "contract": "contracts/Restake.automate.sol:Restake",
        "label": "liquidityRouter",
        "offset": 0,
        "slot": "4",
        "type": "t_address"
      },
      {
        "astId": 670,
        "contract": "contracts/Restake.automate.sol:Restake",
        "label": "pool",
        "offset": 0,
        "slot": "5",
        "type": "t_address"
      },
      {
        "astId": 672,
        "contract": "contracts/Restake.automate.sol:Restake",
        "label": "tokenId",
        "offset": 0,
        "slot": "6",
        "type": "t_uint256"
      },
      {
        "astId": 674,
        "contract": "contracts/Restake.automate.sol:Restake",
        "label": "deadline",
        "offset": 0,
        "slot": "7",
        "type": "t_uint16"
      },
      {
        "astId": 677,
        "contract": "contracts/Restake.automate.sol:Restake",
        "label": "stopLoss",
        "offset": 0,
        "slot": "8",
        "type": "t_struct(Order)2560_storage"
      }
    ],
    "types": {
      "t_address": {
        "encoding": "inplace",
        "label": "address",
        "numberOfBytes": "20"
      },
      "t_array(t_address)dyn_storage": {
        "base": "t_address",
        "encoding": "dynamic_array",
        "label": "address[]",
        "numberOfBytes": "32"
      },
      "t_bool": {
        "encoding": "inplace",
        "label": "bool",
        "numberOfBytes": "1"
      },
      "t_int256": {
        "encoding": "inplace",
        "label": "int256",
        "numberOfBytes": "32"
      },
      "t_struct(Order)2560_storage": {
        "encoding": "inplace",
        "label": "struct StopLoss.Order",
        "members": [
          {
            "astId": 2553,
            "contract": "contracts/Restake.automate.sol:Restake",
            "label": "path",
            "offset": 0,
            "slot": "0",
            "type": "t_array(t_address)dyn_storage"
          },
          {
            "astId": 2555,
            "contract": "contracts/Restake.automate.sol:Restake",
            "label": "fee",
            "offset": 0,
            "slot": "1",
            "type": "t_uint24"
          },
          {
            "astId": 2557,
            "contract": "contracts/Restake.automate.sol:Restake",
            "label": "amountOut",
            "offset": 0,
            "slot": "2",
            "type": "t_uint256"
          },
          {
            "astId": 2559,
            "contract": "contracts/Restake.automate.sol:Restake",
            "label": "amountOutMin",
            "offset": 0,
            "slot": "3",
            "type": "t_uint256"
          }
        ],
        "numberOfBytes": "128"
      },
      "t_uint16": {
        "encoding": "inplace",
        "label": "uint16",
        "numberOfBytes": "2"
      },
      "t_uint24": {
        "encoding": "inplace",
        "label": "uint24",
        "numberOfBytes": "3"
      },
      "t_uint256": {
        "encoding": "inplace",
        "label": "uint256",
        "numberOfBytes": "32"
      }
    }
  }
}