{
  "_format": "hh-sol-artifact-1",
  "contractName": "StakingMock",
  "sourceName": "automates/bondappetit/mock/StakingMock.sol",
  "abi": [
    {
      "inputs": [
        {
          "internalType": "address",
          "name": "_rewardsToken",
          "type": "address"
        },
        {
          "internalType": "address",
          "name": "_stakingToken",
          "type": "address"
        },
        {
          "internalType": "uint256",
          "name": "_rewardsDuration",
          "type": "uint256"
        },
        {
          "internalType": "uint256",
          "name": "_rewardRate",
          "type": "uint256"
        }
      ],
      "stateMutability": "nonpayable",
      "type": "constructor"
    },
    {
      "inputs": [
        {
          "internalType": "address",
          "name": "account",
          "type": "address"
        }
      ],
      "name": "balanceOf",
      "outputs": [
        {
          "internalType": "uint256",
          "name": "",
          "type": "uint256"
        }
      ],
      "stateMutability": "view",
      "type": "function"
    },
    {
      "inputs": [
        {
          "internalType": "address",
          "name": "account",
          "type": "address"
        }
      ],
      "name": "earned",
      "outputs": [
        {
          "internalType": "uint256",
          "name": "",
          "type": "uint256"
        }
      ],
      "stateMutability": "view",
      "type": "function"
    },
    {
      "inputs": [],
      "name": "exit",
      "outputs": [],
      "stateMutability": "nonpayable",
      "type": "function"
    },
    {
      "inputs": [],
      "name": "getReward",
      "outputs": [],
      "stateMutability": "nonpayable",
      "type": "function"
    },
    {
      "inputs": [
        {
          "internalType": "uint256",
          "name": "reward",
          "type": "uint256"
        }
      ],
      "name": "notifyRewardAmount",
      "outputs": [],
      "stateMutability": "nonpayable",
      "type": "function"
    },
    {
      "inputs": [],
      "name": "periodFinish",
      "outputs": [
        {
          "internalType": "uint256",
          "name": "",
          "type": "uint256"
        }
      ],
      "stateMutability": "view",
      "type": "function"
    },
    {
      "inputs": [],
      "name": "rewardRate",
      "outputs": [
        {
          "internalType": "uint256",
          "name": "",
          "type": "uint256"
        }
      ],
      "stateMutability": "view",
      "type": "function"
    },
    {
      "inputs": [],
      "name": "rewardsDuration",
      "outputs": [
        {
          "internalType": "uint256",
          "name": "",
          "type": "uint256"
        }
      ],
      "stateMutability": "view",
      "type": "function"
    },
    {
      "inputs": [],
      "name": "rewardsToken",
      "outputs": [
        {
          "internalType": "address",
          "name": "",
          "type": "address"
        }
      ],
      "stateMutability": "view",
      "type": "function"
    },
    {
      "inputs": [
        {
          "internalType": "address",
          "name": "account",
          "type": "address"
        },
        {
          "internalType": "uint256",
          "name": "amount",
          "type": "uint256"
        }
      ],
      "name": "setReward",
      "outputs": [],
      "stateMutability": "nonpayable",
      "type": "function"
    },
    {
      "inputs": [
        {
          "internalType": "uint256",
          "name": "amount",
          "type": "uint256"
        }
      ],
      "name": "stake",
      "outputs": [],
      "stateMutability": "nonpayable",
      "type": "function"
    },
    {
      "inputs": [],
      "name": "stakingToken",
      "outputs": [
        {
          "internalType": "address",
          "name": "",
          "type": "address"
        }
      ],
      "stateMutability": "view",
      "type": "function"
    },
    {
      "inputs": [],
      "name": "totalSupply",
      "outputs": [
        {
          "internalType": "uint256",
          "name": "",
          "type": "uint256"
        }
      ],
      "stateMutability": "view",
      "type": "function"
    },
    {
      "inputs": [
        {
          "internalType": "uint256",
          "name": "amount",
          "type": "uint256"
        }
      ],
      "name": "withdraw",
      "outputs": [],
      "stateMutability": "nonpayable",
      "type": "function"
    }
  ],
  "bytecode": "0x608060405234801561001057600080fd5b506040516107e13803806107e183398101604081905261002f91610089565b600080546001600160a01b039586166001600160a01b03199182161790915560018054949095169316929092179092556004919091556003556100cc565b80516001600160a01b038116811461008457600080fd5b919050565b6000806000806080858703121561009f57600080fd5b6100a88561006d565b93506100b66020860161006d565b6040860151606090960151949790965092505050565b610706806100db6000396000f3fe608060405234801561001057600080fd5b50600436106100e95760003560e01c806372f702f31161008c578063d1af0c7d11610066578063d1af0c7d146101dc578063e9fad8ee146101ef578063eacccaf0146101f7578063ebe2b12b1461020a57600080fd5b806372f702f3146101955780637b0a47ee146101c0578063a694fc3a146101c957600080fd5b8063386a9525116100c8578063386a9525146101485780633c6b16ab146101515780633d18b9121461016457806370a082311461016c57600080fd5b80628cc262146100ee57806318160ddd1461012a5780632e1a7d4d14610133575b600080fd5b6101176100fc366004610604565b6001600160a01b031660009081526006602052604090205490565b6040519081526020015b60405180910390f35b61011760055481565b610146610141366004610672565b610213565b005b61011760045481565b61014661015f366004610672565b61034f565b610146610411565b61011761017a366004610604565b6001600160a01b031660009081526007602052604090205490565b6001546101a8906001600160a01b031681565b6040516001600160a01b039091168152602001610121565b61011760035481565b6101466101d7366004610672565b6104c9565b6000546101a8906001600160a01b031681565b610146610594565b610146610205366004610626565b6105b7565b61011760025481565b336000908152600760205260409020548111156102895760405162461bcd60e51b815260206004820152602960248201527f77697468647261773a207472616e7366657220616d6f756e7420657863656564604482015268732062616c616e636560b81b60648201526084015b60405180910390fd5b33600090815260076020526040812080548392906102a89084906106a3565b9250508190555080600560008282546102c191906106a3565b909155505060015460405163a9059cbb60e01b8152336004820152602481018390526001600160a01b039091169063a9059cbb906044015b602060405180830381600087803b15801561031357600080fd5b505af1158015610327573d6000803e3d6000fd5b505050506040513d601f19601f8201168201806040525081019061034b9190610650565b5050565b6000546040516323b872dd60e01b8152336004820152306024820152604481018390526001600160a01b03909116906323b872dd90606401602060405180830381600087803b1580156103a157600080fd5b505af11580156103b5573d6000803e3d6000fd5b505050506040513d601f19601f820116820180604052508101906103d99190610650565b5033600090815260066020526040812080548392906103f990849061068b565b909155505060045461040b904361068b565b60025550565b33600090815260066020526040902054806104815760405162461bcd60e51b815260206004820152602a60248201527f6765745265776172643a207472616e7366657220616d6f756e7420657863656560448201526964732062616c616e636560b01b6064820152608401610280565b336000818152600660205260408082208290559054905163a9059cbb60e01b81526004810192909252602482018390526001600160a01b03169063a9059cbb906044016102f9565b6001546040516323b872dd60e01b8152336004820152306024820152604481018390526001600160a01b03909116906323b872dd90606401602060405180830381600087803b15801561051b57600080fd5b505af115801561052f573d6000803e3d6000fd5b505050506040513d601f19601f820116820180604052508101906105539190610650565b50336000908152600760205260408120805483929061057390849061068b565b92505081905550806005600082825461058c919061068b565b909155505050565b336000908152600760205260409020546105ad90610213565b6105b5610411565b565b6001600160a01b038216600090815260066020526040812080548392906105df90849061068b565b90915550505050565b80356001600160a01b03811681146105ff57600080fd5b919050565b60006020828403121561061657600080fd5b61061f826105e8565b9392505050565b6000806040838503121561063957600080fd5b610642836105e8565b946020939093013593505050565b60006020828403121561066257600080fd5b8151801515811461061f57600080fd5b60006020828403121561068457600080fd5b5035919050565b6000821982111561069e5761069e6106ba565b500190565b6000828210156106b5576106b56106ba565b500390565b634e487b7160e01b600052601160045260246000fdfea2646970667358221220e7701b87474d86f0d4c90b91fc12d041c0a056306240ab8c5756a3b27c17607e64736f6c63430008060033",
  "linkReferences": {},
  "deployedLinkReferences": {}
}