{
  "_format": "hh-sol-artifact-1",
  "contractName": "StakingMock",
  "sourceName": "automates/bondappetit/mock/StakingMock.sol",
  "abi": [
    {
      "inputs": [
        {
          "internalType": "address",
          "name": "_rewardsToken",
          "type": "address"
        },
        {
          "internalType": "address",
          "name": "_stakingToken",
          "type": "address"
        },
        {
          "internalType": "uint256",
          "name": "_rewardsDuration",
          "type": "uint256"
        },
        {
          "internalType": "uint256",
          "name": "_rewardRate",
          "type": "uint256"
        }
      ],
      "stateMutability": "nonpayable",
      "type": "constructor"
    },
    {
      "inputs": [
        {
          "internalType": "address",
          "name": "account",
          "type": "address"
        }
      ],
      "name": "balanceOf",
      "outputs": [
        {
          "internalType": "uint256",
          "name": "",
          "type": "uint256"
        }
      ],
      "stateMutability": "view",
      "type": "function"
    },
    {
      "inputs": [
        {
          "internalType": "address",
          "name": "account",
          "type": "address"
        }
      ],
      "name": "earned",
      "outputs": [
        {
          "internalType": "uint256",
          "name": "",
          "type": "uint256"
        }
      ],
      "stateMutability": "view",
      "type": "function"
    },
    {
      "inputs": [],
      "name": "exit",
      "outputs": [],
      "stateMutability": "nonpayable",
      "type": "function"
    },
    {
      "inputs": [],
      "name": "getReward",
      "outputs": [],
      "stateMutability": "nonpayable",
      "type": "function"
    },
    {
      "inputs": [
        {
          "internalType": "uint256",
          "name": "reward",
          "type": "uint256"
        }
      ],
      "name": "notifyRewardAmount",
      "outputs": [],
      "stateMutability": "nonpayable",
      "type": "function"
    },
    {
      "inputs": [],
      "name": "periodFinish",
      "outputs": [
        {
          "internalType": "uint256",
          "name": "",
          "type": "uint256"
        }
      ],
      "stateMutability": "view",
      "type": "function"
    },
    {
      "inputs": [],
      "name": "rewardRate",
      "outputs": [
        {
          "internalType": "uint256",
          "name": "",
          "type": "uint256"
        }
      ],
      "stateMutability": "view",
      "type": "function"
    },
    {
      "inputs": [],
      "name": "rewardsDuration",
      "outputs": [
        {
          "internalType": "uint256",
          "name": "",
          "type": "uint256"
        }
      ],
      "stateMutability": "view",
      "type": "function"
    },
    {
      "inputs": [],
      "name": "rewardsToken",
      "outputs": [
        {
          "internalType": "address",
          "name": "",
          "type": "address"
        }
      ],
      "stateMutability": "view",
      "type": "function"
    },
    {
      "inputs": [
        {
          "internalType": "address",
          "name": "account",
          "type": "address"
        },
        {
          "internalType": "uint256",
          "name": "amount",
          "type": "uint256"
        }
      ],
      "name": "setReward",
      "outputs": [],
      "stateMutability": "nonpayable",
      "type": "function"
    },
    {
      "inputs": [
        {
          "internalType": "uint256",
          "name": "amount",
          "type": "uint256"
        }
      ],
      "name": "stake",
      "outputs": [],
      "stateMutability": "nonpayable",
      "type": "function"
    },
    {
      "inputs": [],
      "name": "stakingToken",
      "outputs": [
        {
          "internalType": "address",
          "name": "",
          "type": "address"
        }
      ],
      "stateMutability": "view",
      "type": "function"
    },
    {
      "inputs": [],
      "name": "totalSupply",
      "outputs": [
        {
          "internalType": "uint256",
          "name": "",
          "type": "uint256"
        }
      ],
      "stateMutability": "view",
      "type": "function"
    },
    {
      "inputs": [
        {
          "internalType": "uint256",
          "name": "amount",
          "type": "uint256"
        }
      ],
      "name": "withdraw",
      "outputs": [],
      "stateMutability": "nonpayable",
      "type": "function"
    }
  ],
  "bytecode": "0x608060405234801561001057600080fd5b5060405161091f38038061091f83398101604081905261002f91610089565b600080546001600160a01b039586166001600160a01b03199182161790915560018054949095169316929092179092556004919091556003556100cc565b80516001600160a01b038116811461008457600080fd5b919050565b6000806000806080858703121561009f57600080fd5b6100a88561006d565b93506100b66020860161006d565b6040860151606090960151949790965092505050565b610844806100db6000396000f3fe608060405234801561001057600080fd5b50600436106100e95760003560e01c806372f702f31161008c578063d1af0c7d11610066578063d1af0c7d14610210578063e9fad8ee14610230578063eacccaf014610238578063ebe2b12b1461024b57600080fd5b806372f702f3146101af5780637b0a47ee146101f4578063a694fc3a146101fd57600080fd5b8063386a9525116100c8578063386a9525146101555780633c6b16ab1461015e5780633d18b9121461017157806370a082311461017957600080fd5b80628cc262146100ee57806318160ddd146101375780632e1a7d4d14610140575b600080fd5b6101246100fc366004610752565b73ffffffffffffffffffffffffffffffffffffffff1660009081526006602052604090205490565b6040519081526020015b60405180910390f35b61012460055481565b61015361014e3660046107c0565b610254565b005b61012460045481565b61015361016c3660046107c0565b6103e4565b6101536104cc565b610124610187366004610752565b73ffffffffffffffffffffffffffffffffffffffff1660009081526007602052604090205490565b6001546101cf9073ffffffffffffffffffffffffffffffffffffffff1681565b60405173ffffffffffffffffffffffffffffffffffffffff909116815260200161012e565b61012460035481565b61015361020b3660046107c0565b6105d7565b6000546101cf9073ffffffffffffffffffffffffffffffffffffffff1681565b6101536106c8565b610153610246366004610774565b6106eb565b61012460025481565b336000908152600760205260409020548111156102f8576040517f08c379a000000000000000000000000000000000000000000000000000000000815260206004820152602960248201527f77697468647261773a207472616e7366657220616d6f756e742065786365656460448201527f732062616c616e6365000000000000000000000000000000000000000000000060648201526084015b60405180910390fd5b33600090815260076020526040812080548392906103179084906107f1565b92505081905550806005600082825461033091906107f1565b90915550506001546040517fa9059cbb0000000000000000000000000000000000000000000000000000000081523360048201526024810183905273ffffffffffffffffffffffffffffffffffffffff9091169063a9059cbb906044015b602060405180830381600087803b1580156103a857600080fd5b505af11580156103bc573d6000803e3d6000fd5b505050506040513d601f19601f820116820180604052508101906103e0919061079e565b5050565b6000546040517f23b872dd0000000000000000000000000000000000000000000000000000000081523360048201523060248201526044810183905273ffffffffffffffffffffffffffffffffffffffff909116906323b872dd90606401602060405180830381600087803b15801561045c57600080fd5b505af1158015610470573d6000803e3d6000fd5b505050506040513d601f19601f82011682018060405250810190610494919061079e565b5033600090815260066020526040812080548392906104b49084906107d9565b90915550506004546104c690436107d9565b60025550565b3360009081526006602052604090205480610569576040517f08c379a000000000000000000000000000000000000000000000000000000000815260206004820152602a60248201527f6765745265776172643a207472616e7366657220616d6f756e7420657863656560448201527f64732062616c616e63650000000000000000000000000000000000000000000060648201526084016102ef565b33600081815260066020526040808220829055905490517fa9059cbb00000000000000000000000000000000000000000000000000000000815260048101929092526024820183905273ffffffffffffffffffffffffffffffffffffffff169063a9059cbb9060440161038e565b6001546040517f23b872dd0000000000000000000000000000000000000000000000000000000081523360048201523060248201526044810183905273ffffffffffffffffffffffffffffffffffffffff909116906323b872dd90606401602060405180830381600087803b15801561064f57600080fd5b505af1158015610663573d6000803e3d6000fd5b505050506040513d601f19601f82011682018060405250810190610687919061079e565b5033600090815260076020526040812080548392906106a79084906107d9565b9250508190555080600560008282546106c091906107d9565b909155505050565b336000908152600760205260409020546106e190610254565b6106e96104cc565b565b73ffffffffffffffffffffffffffffffffffffffff8216600090815260066020526040812080548392906107209084906107d9565b90915550505050565b803573ffffffffffffffffffffffffffffffffffffffff8116811461074d57600080fd5b919050565b60006020828403121561076457600080fd5b61076d82610729565b9392505050565b6000806040838503121561078757600080fd5b61079083610729565b946020939093013593505050565b6000602082840312156107b057600080fd5b8151801515811461076d57600080fd5b6000602082840312156107d257600080fd5b5035919050565b600082198211156107ec576107ec610808565b500190565b60008282101561080357610803610808565b500390565b7f4e487b7100000000000000000000000000000000000000000000000000000000600052601160045260246000fdfea164736f6c6343000806000a",
  "linkReferences": {},
  "deployedLinkReferences": {}
}