{
  "_format": "hh-sol-artifact-1",
  "contractName": "SynthetixUniswapLpRestake",
  "sourceName": "automates/bondappetit/SynthetixUniswapLpRestake.automate.sol",
  "abi": [
    {
      "inputs": [
        {
          "internalType": "address",
          "name": "_info",
          "type": "address"
        }
      ],
      "stateMutability": "nonpayable",
      "type": "constructor"
    },
    {
      "anonymous": false,
      "inputs": [
        {
          "indexed": true,
          "internalType": "address",
          "name": "previousOwner",
          "type": "address"
        },
        {
          "indexed": true,
          "internalType": "address",
          "name": "newOwner",
          "type": "address"
        }
      ],
      "name": "OwnershipTransferred",
      "type": "event"
    },
    {
      "anonymous": false,
      "inputs": [
        {
          "indexed": false,
          "internalType": "int256",
          "name": "protocolFee",
          "type": "int256"
        }
      ],
      "name": "ProtocolFeeChanged",
      "type": "event"
    },
    {
      "inputs": [
        {
          "internalType": "int256",
          "name": "__protocolFee",
          "type": "int256"
        }
      ],
      "name": "changeProtocolFee",
      "outputs": [],
      "stateMutability": "nonpayable",
      "type": "function"
    },
    {
      "inputs": [],
      "name": "deadline",
      "outputs": [
        {
          "internalType": "uint16",
          "name": "",
          "type": "uint16"
        }
      ],
      "stateMutability": "view",
      "type": "function"
    },
    {
      "inputs": [],
      "name": "deposit",
      "outputs": [],
      "stateMutability": "nonpayable",
      "type": "function"
    },
    {
      "inputs": [],
      "name": "info",
      "outputs": [
        {
          "internalType": "address",
          "name": "",
          "type": "address"
        }
      ],
      "stateMutability": "view",
      "type": "function"
    },
    {
      "inputs": [
        {
          "internalType": "address",
          "name": "_staking",
          "type": "address"
        },
        {
          "internalType": "address",
          "name": "_liquidityRouter",
          "type": "address"
        },
        {
          "internalType": "uint16",
          "name": "_slippage",
          "type": "uint16"
        },
        {
          "internalType": "uint16",
          "name": "_deadline",
          "type": "uint16"
        }
      ],
      "name": "init",
      "outputs": [],
      "stateMutability": "nonpayable",
      "type": "function"
    },
    {
      "inputs": [],
      "name": "liquidityRouter",
      "outputs": [
        {
          "internalType": "address",
          "name": "",
          "type": "address"
        }
      ],
      "stateMutability": "view",
      "type": "function"
    },
    {
      "inputs": [],
      "name": "owner",
      "outputs": [
        {
          "internalType": "address",
          "name": "",
          "type": "address"
        }
      ],
      "stateMutability": "view",
      "type": "function"
    },
    {
      "inputs": [],
      "name": "pause",
      "outputs": [],
      "stateMutability": "nonpayable",
      "type": "function"
    },
    {
      "inputs": [],
      "name": "paused",
      "outputs": [
        {
          "internalType": "bool",
          "name": "",
          "type": "bool"
        }
      ],
      "stateMutability": "view",
      "type": "function"
    },
    {
      "inputs": [],
      "name": "protocolFee",
      "outputs": [
        {
          "internalType": "uint256",
          "name": "",
          "type": "uint256"
        }
      ],
      "stateMutability": "view",
      "type": "function"
    },
    {
      "inputs": [],
      "name": "refund",
      "outputs": [],
      "stateMutability": "nonpayable",
      "type": "function"
    },
    {
      "inputs": [
        {
          "internalType": "uint256",
          "name": "gasFee",
          "type": "uint256"
        },
        {
          "internalType": "uint256",
          "name": "_deadline",
          "type": "uint256"
        },
        {
          "internalType": "uint256[2]",
          "name": "_outMin",
          "type": "uint256[2]"
        }
      ],
      "name": "run",
      "outputs": [],
      "stateMutability": "nonpayable",
      "type": "function"
    },
    {
      "inputs": [],
      "name": "slippage",
      "outputs": [
        {
          "internalType": "uint16",
          "name": "",
          "type": "uint16"
        }
      ],
      "stateMutability": "view",
      "type": "function"
    },
    {
      "inputs": [],
      "name": "staking",
      "outputs": [
        {
          "internalType": "contract IStaking",
          "name": "",
          "type": "address"
        }
      ],
      "stateMutability": "view",
      "type": "function"
    },
    {
      "inputs": [
        {
          "internalType": "address",
          "name": "token",
          "type": "address"
        },
        {
          "internalType": "address",
          "name": "recipient",
          "type": "address"
        },
        {
          "internalType": "uint256",
          "name": "amount",
          "type": "uint256"
        }
      ],
      "name": "transfer",
      "outputs": [],
      "stateMutability": "nonpayable",
      "type": "function"
    },
    {
      "inputs": [
        {
          "internalType": "address",
          "name": "newOwner",
          "type": "address"
        }
      ],
      "name": "transferOwnership",
      "outputs": [],
      "stateMutability": "nonpayable",
      "type": "function"
    },
    {
      "inputs": [],
      "name": "unpause",
      "outputs": [],
      "stateMutability": "nonpayable",
      "type": "function"
    }
  ],
  "bytecode": "0x60806040523480156200001157600080fd5b506040516200363238038062003632833981016040819052620000349162000069565b600080546001600160a01b039092166001600160a01b031992831617905560018054909116321790556000196002556200009b565b6000602082840312156200007c57600080fd5b81516001600160a01b03811681146200009457600080fd5b9392505050565b61358780620000ab6000396000f3fe608060405234801561001057600080fd5b506004361061011b5760003560e01c80635c975abb116100b2578063b0e21e8a11610081578063d0e30db011610066578063d0e30db014610292578063dd9255511461029a578063f2fde38b146102ad57600080fd5b8063b0e21e8a14610269578063beabacc81461027f57600080fd5b80635c975abb146102185780638456cb59146102305780638da5cb5b146102385780639742b5c31461025657600080fd5b80633e032a3b116100ee5780633e032a3b146101c25780633f4ba83a146101e85780634cf088d9146101f0578063590e1ae31461021057600080fd5b80631b586aff14610120578063247029441461013557806329dcb0cf1461017f578063370158ea146101ba575b600080fd5b61013361012e36600461300c565b6102c0565b005b6004546101559073ffffffffffffffffffffffffffffffffffffffff1681565b60405173ffffffffffffffffffffffffffffffffffffffff90911681526020015b60405180910390f35b6004546101a790760100000000000000000000000000000000000000000000900461ffff1681565b60405161ffff9091168152602001610176565b6101556104b2565b6004546101a79074010000000000000000000000000000000000000000900461ffff1681565b610133610614565b6003546101559073ffffffffffffffffffffffffffffffffffffffff1681565b6101336109a6565b610220610e98565b6040519015158152602001610176565b61013361101d565b60015473ffffffffffffffffffffffffffffffffffffffff16610155565b610133610264366004613174565b6113c7565b610271611601565b604051908152602001610176565b61013361028d366004613064565b611a0e565b610133611b63565b6101336102a83660046131a6565b611dfd565b6101336102bb366004612fd2565b6125a4565b60015473ffffffffffffffffffffffffffffffffffffffff1661033057600180547fffffffffffffffffffffffff000000000000000000000000000000000000000016321790557fffffffffffffffffffffffffffffffffffffffffffffffffffffffffffffffff6002556103dc565b60015473ffffffffffffffffffffffffffffffffffffffff1633146103dc576040517f08c379a000000000000000000000000000000000000000000000000000000000815260206004820152602160248201527f4175746f6d6174653a2063616c6c6572206973206e6f7420746865206f776e6560448201527f720000000000000000000000000000000000000000000000000000000000000060648201526084015b60405180910390fd5b600380547fffffffffffffffffffffffff00000000000000000000000000000000000000001673ffffffffffffffffffffffffffffffffffffffff95861617905560048054939094167fffffffffffffffffffff00000000000000000000000000000000000000000000909316929092177401000000000000000000000000000000000000000061ffff92831602177fffffffffffffffff0000ffffffffffffffffffffffffffffffffffffffffffff167601000000000000000000000000000000000000000000009290911691909102179055565b6040517f6b880718000000000000000000000000000000000000000000000000000000008152306004820152600090819073__$0bac19a4f6859fb91e3c64d76ce49d598f$__90636b8807189060240160206040518083038186803b15801561051a57600080fd5b505af415801561052e573d6000803e3d6000fd5b505050506040513d601f19601f820116820180604052508101906105529190612fef565b905073ffffffffffffffffffffffffffffffffffffffff811630141561059057505060005473ffffffffffffffffffffffffffffffffffffffff1690565b8073ffffffffffffffffffffffffffffffffffffffff1663370158ea6040518163ffffffff1660e01b815260040160206040518083038186803b1580156105d657600080fd5b505afa1580156105ea573d6000803e3d6000fd5b505050506040513d601f19601f8201168201806040525081019061060e9190612fef565b91505090565b6040517f6b88071800000000000000000000000000000000000000000000000000000000815230600482018190529073__$0bac19a4f6859fb91e3c64d76ce49d598f$__90636b8807189060240160206040518083038186803b15801561067a57600080fd5b505af415801561068e573d6000803e3d6000fd5b505050506040513d601f19601f820116820180604052508101906106b29190612fef565b73ffffffffffffffffffffffffffffffffffffffff1614156108675760006106d86104b2565b6040517f21f8a7210000000000000000000000000000000000000000000000000000000081527f689d13d8ed8ef1027633ba26e7121121cf427434450a529548f19bf175974395600482015273ffffffffffffffffffffffffffffffffffffffff91909116906321f8a7219060240160206040518083038186803b15801561075f57600080fd5b505afa158015610773573d6000803e3d6000fd5b505050506040513d601f19601f820116820180604052508101906107979190612fef565b60015490915073ffffffffffffffffffffffffffffffffffffffff163314806107d557503373ffffffffffffffffffffffffffffffffffffffff8216145b610861576040517f08c379a000000000000000000000000000000000000000000000000000000000815260206004820152602260248201527f4175746f6d6174653a2063616c6c6572206973206e6f7420746865207061757360448201527f657200000000000000000000000000000000000000000000000000000000000060648201526084016103d3565b5061090e565b60015473ffffffffffffffffffffffffffffffffffffffff16331461090e576040517f08c379a000000000000000000000000000000000000000000000000000000000815260206004820152602260248201527f4175746f6d6174653a2063616c6c6572206973206e6f7420746865207061757360448201527f657200000000000000000000000000000000000000000000000000000000000060648201526084016103d3565b610916610e98565b61097c576040517f08c379a000000000000000000000000000000000000000000000000000000000815260206004820152601460248201527f4175746f6d6174653a206e6f742070617573656400000000000000000000000060448201526064016103d3565b600180547fffffffffffffffffffffff00ffffffffffffffffffffffffffffffffffffffff169055565b60015473ffffffffffffffffffffffffffffffffffffffff163314610a4d576040517f08c379a000000000000000000000000000000000000000000000000000000000815260206004820152602160248201527f4175746f6d6174653a2063616c6c6572206973206e6f7420746865206f776e6560448201527f720000000000000000000000000000000000000000000000000000000000000060648201526084016103d3565b600354604080517fe9fad8ee000000000000000000000000000000000000000000000000000000008152905173ffffffffffffffffffffffffffffffffffffffff90921691829163e9fad8ee91600480830192600092919082900301818387803b158015610aba57600080fd5b505af1158015610ace573d6000803e3d6000fd5b505050506000610af360015473ffffffffffffffffffffffffffffffffffffffff1690565b905060008273ffffffffffffffffffffffffffffffffffffffff166372f702f36040518163ffffffff1660e01b815260040160206040518083038186803b158015610b3d57600080fd5b505afa158015610b51573d6000803e3d6000fd5b505050506040513d601f19601f82011682018060405250810190610b759190612fef565b6040517f70a0823100000000000000000000000000000000000000000000000000000000815230600482015290915073ffffffffffffffffffffffffffffffffffffffff82169063a9059cbb90849083906370a082319060240160206040518083038186803b158015610be757600080fd5b505afa158015610bfb573d6000803e3d6000fd5b505050506040513d601f19601f82011682018060405250810190610c1f919061318d565b6040517fffffffff0000000000000000000000000000000000000000000000000000000060e085901b16815273ffffffffffffffffffffffffffffffffffffffff90921660048301526024820152604401602060405180830381600087803b158015610c8a57600080fd5b505af1158015610c9e573d6000803e3d6000fd5b505050506040513d601f19601f82011682018060405250810190610cc29190613152565b5060008373ffffffffffffffffffffffffffffffffffffffff1663d1af0c7d6040518163ffffffff1660e01b815260040160206040518083038186803b158015610d0b57600080fd5b505afa158015610d1f573d6000803e3d6000fd5b505050506040513d601f19601f82011682018060405250810190610d439190612fef565b6040517f70a0823100000000000000000000000000000000000000000000000000000000815230600482015290915073ffffffffffffffffffffffffffffffffffffffff82169063a9059cbb90859083906370a082319060240160206040518083038186803b158015610db557600080fd5b505afa158015610dc9573d6000803e3d6000fd5b505050506040513d601f19601f82011682018060405250810190610ded919061318d565b6040517fffffffff0000000000000000000000000000000000000000000000000000000060e085901b16815273ffffffffffffffffffffffffffffffffffffffff909216600483015260248201526044015b602060405180830381600087803b158015610e5957600080fd5b505af1158015610e6d573d6000803e3d6000fd5b505050506040513d601f19601f82011682018060405250810190610e919190613152565b5050505050565b6040517f6b880718000000000000000000000000000000000000000000000000000000008152306004820152600090819073__$0bac19a4f6859fb91e3c64d76ce49d598f$__90636b8807189060240160206040518083038186803b158015610f0057600080fd5b505af4158015610f14573d6000803e3d6000fd5b505050506040513d601f19601f82011682018060405250810190610f389190612fef565b905073ffffffffffffffffffffffffffffffffffffffff8116301415610f7b57505060015474010000000000000000000000000000000000000000900460ff1690565b60015474010000000000000000000000000000000000000000900460ff168061060e57508073ffffffffffffffffffffffffffffffffffffffff16635c975abb6040518163ffffffff1660e01b815260040160206040518083038186803b158015610fe557600080fd5b505afa158015610ff9573d6000803e3d6000fd5b505050506040513d601f19601f8201168201806040525081019061060e9190613152565b6040517f6b88071800000000000000000000000000000000000000000000000000000000815230600482018190529073__$0bac19a4f6859fb91e3c64d76ce49d598f$__90636b8807189060240160206040518083038186803b15801561108357600080fd5b505af4158015611097573d6000803e3d6000fd5b505050506040513d601f19601f820116820180604052508101906110bb9190612fef565b73ffffffffffffffffffffffffffffffffffffffff1614156112705760006110e16104b2565b6040517f21f8a7210000000000000000000000000000000000000000000000000000000081527f689d13d8ed8ef1027633ba26e7121121cf427434450a529548f19bf175974395600482015273ffffffffffffffffffffffffffffffffffffffff91909116906321f8a7219060240160206040518083038186803b15801561116857600080fd5b505afa15801561117c573d6000803e3d6000fd5b505050506040513d601f19601f820116820180604052508101906111a09190612fef565b60015490915073ffffffffffffffffffffffffffffffffffffffff163314806111de57503373ffffffffffffffffffffffffffffffffffffffff8216145b61126a576040517f08c379a000000000000000000000000000000000000000000000000000000000815260206004820152602260248201527f4175746f6d6174653a2063616c6c6572206973206e6f7420746865207061757360448201527f657200000000000000000000000000000000000000000000000000000000000060648201526084016103d3565b50611317565b60015473ffffffffffffffffffffffffffffffffffffffff163314611317576040517f08c379a000000000000000000000000000000000000000000000000000000000815260206004820152602260248201527f4175746f6d6174653a2063616c6c6572206973206e6f7420746865207061757360448201527f657200000000000000000000000000000000000000000000000000000000000060648201526084016103d3565b61131f610e98565b15611386576040517f08c379a000000000000000000000000000000000000000000000000000000000815260206004820152601060248201527f4175746f6d6174653a207061757365640000000000000000000000000000000060448201526064016103d3565b600180547fffffffffffffffffffffff00ffffffffffffffffffffffffffffffffffffffff1674010000000000000000000000000000000000000000179055565b6040517f6b88071800000000000000000000000000000000000000000000000000000000815230600482015260009073__$0bac19a4f6859fb91e3c64d76ce49d598f$__90636b8807189060240160206040518083038186803b15801561142d57600080fd5b505af4158015611441573d6000803e3d6000fd5b505050506040513d601f19601f820116820180604052508101906114659190612fef565b90503373ffffffffffffffffffffffffffffffffffffffff82163014611508578173ffffffffffffffffffffffffffffffffffffffff16638da5cb5b6040518163ffffffff1660e01b815260040160206040518083038186803b1580156114cb57600080fd5b505afa1580156114df573d6000803e3d6000fd5b505050506040513d601f19601f820116820180604052508101906115039190612fef565b611522565b60015473ffffffffffffffffffffffffffffffffffffffff165b73ffffffffffffffffffffffffffffffffffffffff16146115c5576040517f08c379a000000000000000000000000000000000000000000000000000000000815260206004820152603d60248201527f4175746f6d6174653a3a6368616e676550726f746f636f6c4665653a2063616c60448201527f6c6572206973206e6f74207468652070726f746f636f6c206f776e657200000060648201526084016103d3565b60028290556040518281527f3c1d43943224e49d951ce8295a5c8332b517083b3f89bed50feae2cb39caebb59060200160405180910390a15050565b6040517f6b880718000000000000000000000000000000000000000000000000000000008152306004820152600090819073__$0bac19a4f6859fb91e3c64d76ce49d598f$__90636b8807189060240160206040518083038186803b15801561166957600080fd5b505af415801561167d573d6000803e3d6000fd5b505050506040513d601f19601f820116820180604052508101906116a19190612fef565b905073ffffffffffffffffffffffffffffffffffffffff811630148015906116cb57506000600254125b1561174e578073ffffffffffffffffffffffffffffffffffffffff1663b0e21e8a6040518163ffffffff1660e01b815260040160206040518083038186803b15801561171657600080fd5b505afa15801561172a573d6000803e3d6000fd5b505050506040513d601f19601f8201168201806040525081019061060e919061318d565b60006117586104b2565b90506000806002541261176d5760025461182a565b6040517fbd02d0f50000000000000000000000000000000000000000000000000000000081527fa93d95f96a5de25d7a41ddf1f5e8d45cfc929c4838163cf011dab4043a4a40d5600482015273ffffffffffffffffffffffffffffffffffffffff83169063bd02d0f59060240160206040518083038186803b1580156117f257600080fd5b505afa158015611806573d6000803e3d6000fd5b505050506040513d601f19601f8201168201806040525081019061182a919061318d565b90508061183b576000935050505090565b6040517f21f8a7210000000000000000000000000000000000000000000000000000000081527f65c90423fe7c880476633a7e36521740f87199d233dc56eb4ca6643eb76f605f600482015260009073ffffffffffffffffffffffffffffffffffffffff8416906321f8a7219060240160206040518083038186803b1580156118c357600080fd5b505afa1580156118d7573d6000803e3d6000fd5b505050506040513d601f19601f820116820180604052508101906118fb9190612fef565b73ffffffffffffffffffffffffffffffffffffffff1663feaf968c6040518163ffffffff1660e01b815260040160a06040518083038186803b15801561194057600080fd5b505afa158015611954573d6000803e3d6000fd5b505050506040513d601f19601f820116820180604052508101906119789190613270565b505050915050600081136119e8576040517f08c379a000000000000000000000000000000000000000000000000000000000815260206004820152601760248201527f4175746f6d6174653a20696e76616c696420707269636500000000000000000060448201526064016103d3565b806119fb83670de0b6b3a7640000613474565b611a059190613439565b94505050505090565b60015473ffffffffffffffffffffffffffffffffffffffff163314611ab5576040517f08c379a000000000000000000000000000000000000000000000000000000000815260206004820152602160248201527f4175746f6d6174653a2063616c6c6572206973206e6f7420746865206f776e6560448201527f720000000000000000000000000000000000000000000000000000000000000060648201526084016103d3565b6040517fa9059cbb00000000000000000000000000000000000000000000000000000000815273ffffffffffffffffffffffffffffffffffffffff83811660048301526024820183905284169063a9059cbb90604401602060405180830381600087803b158015611b2557600080fd5b505af1158015611b39573d6000803e3d6000fd5b505050506040513d601f19601f82011682018060405250810190611b5d9190613152565b50505050565b60015473ffffffffffffffffffffffffffffffffffffffff163314611c0a576040517f08c379a000000000000000000000000000000000000000000000000000000000815260206004820152602160248201527f4175746f6d6174653a2063616c6c6572206973206e6f7420746865206f776e6560448201527f720000000000000000000000000000000000000000000000000000000000000060648201526084016103d3565b600354604080517f72f702f3000000000000000000000000000000000000000000000000000000008152905173ffffffffffffffffffffffffffffffffffffffff9092169160009183916372f702f391600480820192602092909190829003018186803b158015611c7a57600080fd5b505afa158015611c8e573d6000803e3d6000fd5b505050506040513d601f19601f82011682018060405250810190611cb29190612fef565b6040517f70a0823100000000000000000000000000000000000000000000000000000000815230600482015290915060009073ffffffffffffffffffffffffffffffffffffffff8316906370a082319060240160206040518083038186803b158015611d1d57600080fd5b505afa158015611d31573d6000803e3d6000fd5b505050506040513d601f19601f82011682018060405250810190611d55919061318d565b9050611d7873ffffffffffffffffffffffffffffffffffffffff83168483612803565b6040517fa694fc3a0000000000000000000000000000000000000000000000000000000081526004810182905273ffffffffffffffffffffffffffffffffffffffff84169063a694fc3a90602401600060405180830381600087803b158015611de057600080fd5b505af1158015611df4573d6000803e3d6000fd5b50505050505050565b826040518060400160405280601d81526020017f426f6e646170706574697453796e7468657469784c5052657374616b65000000815250611e3e82826129cd565b506003546040517e8cc26200000000000000000000000000000000000000000000000000000000815230600482015273ffffffffffffffffffffffffffffffffffffffff909116906000908290628cc2629060240160206040518083038186803b158015611eab57600080fd5b505afa158015611ebf573d6000803e3d6000fd5b505050506040513d601f19601f82011682018060405250810190611ee3919061318d565b11611f70576040517f08c379a000000000000000000000000000000000000000000000000000000000815260206004820152602960248201527f53796e746865746978556e69737761704c7052657374616b653a3a72756e3a2060448201527f6e6f206561726e6564000000000000000000000000000000000000000000000060648201526084016103d3565b8073ffffffffffffffffffffffffffffffffffffffff16633d18b9126040518163ffffffff1660e01b8152600401600060405180830381600087803b158015611fb857600080fd5b505af1158015611fcc573d6000803e3d6000fd5b5050505060008173ffffffffffffffffffffffffffffffffffffffff1663d1af0c7d6040518163ffffffff1660e01b815260040160206040518083038186803b15801561201857600080fd5b505afa15801561202c573d6000803e3d6000fd5b505050506040513d601f19601f820116820180604052508101906120509190612fef565b6040517f70a0823100000000000000000000000000000000000000000000000000000000815230600482015290915060009073ffffffffffffffffffffffffffffffffffffffff8316906370a082319060240160206040518083038186803b1580156120bb57600080fd5b505afa1580156120cf573d6000803e3d6000fd5b505050506040513d601f19601f820116820180604052508101906120f3919061318d565b60045490915061211d9073ffffffffffffffffffffffffffffffffffffffff848116911683612803565b60008373ffffffffffffffffffffffffffffffffffffffff166372f702f36040518163ffffffff1660e01b815260040160206040518083038186803b15801561216557600080fd5b505afa158015612179573d6000803e3d6000fd5b505050506040513d601f19601f8201168201806040525081019061219d9190612fef565b9050600060405180604001604052808373ffffffffffffffffffffffffffffffffffffffff16630dfe16816040518163ffffffff1660e01b815260040160206040518083038186803b1580156121f257600080fd5b505afa158015612206573d6000803e3d6000fd5b505050506040513d601f19601f8201168201806040525081019061222a9190612fef565b73ffffffffffffffffffffffffffffffffffffffff1673ffffffffffffffffffffffffffffffffffffffff1681526020018373ffffffffffffffffffffffffffffffffffffffff1663d21220a76040518163ffffffff1660e01b815260040160206040518083038186803b1580156122a157600080fd5b505afa1580156122b5573d6000803e3d6000fd5b505050506040513d601f19601f820116820180604052508101906122d99190612fef565b73ffffffffffffffffffffffffffffffffffffffff9081169091526040805160c08101825287831660808201908152845190931660a0820152815180830190925292935060009291829161234a91908061233460028b613439565b81526020018e60005b602002015190528e612c9f565b81526020016123ec60405180604001604052808973ffffffffffffffffffffffffffffffffffffffff1673ffffffffffffffffffffffffffffffffffffffff168152602001866001600281106123a2576123a26134f7565b602002015173ffffffffffffffffffffffffffffffffffffffff16905260408051808201909152806123d560028b613439565b6123df908b6134b1565b81526020018e600161233d565b81526020016000815260200160008152509050612453604051806040016040528084600060028110612420576124206134f7565b6020908102919091015173ffffffffffffffffffffffffffffffffffffffff90811683528682015116910152828c612e52565b6040517f70a0823100000000000000000000000000000000000000000000000000000000815230600482015260009073ffffffffffffffffffffffffffffffffffffffff8516906370a082319060240160206040518083038186803b1580156124bb57600080fd5b505afa1580156124cf573d6000803e3d6000fd5b505050506040513d601f19601f820116820180604052508101906124f3919061318d565b905061251673ffffffffffffffffffffffffffffffffffffffff85168883612803565b6040517fa694fc3a0000000000000000000000000000000000000000000000000000000081526004810182905273ffffffffffffffffffffffffffffffffffffffff88169063a694fc3a90602401600060405180830381600087803b15801561257e57600080fd5b505af1158015612592573d6000803e3d6000fd5b50505050505050505050505050505050565b60015473ffffffffffffffffffffffffffffffffffffffff16331461264b576040517f08c379a000000000000000000000000000000000000000000000000000000000815260206004820152602160248201527f4175746f6d6174653a2063616c6c6572206973206e6f7420746865206f776e6560448201527f720000000000000000000000000000000000000000000000000000000000000060648201526084016103d3565b6040517f6b88071800000000000000000000000000000000000000000000000000000000815230600482018190529073__$0bac19a4f6859fb91e3c64d76ce49d598f$__90636b8807189060240160206040518083038186803b1580156126b157600080fd5b505af41580156126c5573d6000803e3d6000fd5b505050506040513d601f19601f820116820180604052508101906126e99190612fef565b73ffffffffffffffffffffffffffffffffffffffff161461278c576040517f08c379a000000000000000000000000000000000000000000000000000000000815260206004820152602160248201527f4175746f6d6174653a206368616e676520746865206f776e6572206661696c6560448201527f640000000000000000000000000000000000000000000000000000000000000060648201526084016103d3565b6001805473ffffffffffffffffffffffffffffffffffffffff8381167fffffffffffffffffffffffff0000000000000000000000000000000000000000831681179093556040519116919082907f8be0079c531659141344cd1fd0a4f28419497f9722a3daafe3b4186f6b6457e090600090a35050565b6040517fdd62ed3e00000000000000000000000000000000000000000000000000000000815230600482015273ffffffffffffffffffffffffffffffffffffffff83811660248301526000919085169063dd62ed3e9060440160206040518083038186803b15801561287457600080fd5b505afa158015612888573d6000803e3d6000fd5b505050506040513d601f19601f820116820180604052508101906128ac919061318d565b905080158015906128bc57508181105b1561296b576040517f095ea7b300000000000000000000000000000000000000000000000000000000815273ffffffffffffffffffffffffffffffffffffffff84811660048301526000602483015285169063095ea7b390604401602060405180830381600087803b15801561293157600080fd5b505af1158015612945573d6000803e3d6000fd5b505050506040513d601f19601f820116820180604052508101906129699190613152565b505b818114611b5d576040517f095ea7b300000000000000000000000000000000000000000000000000000000815273ffffffffffffffffffffffffffffffffffffffff84811660048301526024820184905285169063095ea7b390604401610e3f565b60006129d7610e98565b15612a3e576040517f08c379a000000000000000000000000000000000000000000000000000000000815260206004820152601060248201527f4175746f6d6174653a207061757365640000000000000000000000000000000060448201526064016103d3565b6000612a5f60015473ffffffffffffffffffffffffffffffffffffffff1690565b90503273ffffffffffffffffffffffffffffffffffffffff82161415612a89576000915050612c99565b6000612a936104b2565b6040517f21f8a7210000000000000000000000000000000000000000000000000000000081527fe78c16c6d839536d3155985aab4e9c6013c8c3d446054bcebc48612f359d81f5600482015290915060009073ffffffffffffffffffffffffffffffffffffffff8316906321f8a7219060240160206040518083038186803b158015612b1e57600080fd5b505afa158015612b32573d6000803e3d6000fd5b505050506040513d601f19601f82011682018060405250810190612b569190612fef565b905073ffffffffffffffffffffffffffffffffffffffff8116612bfb576040517f08c379a000000000000000000000000000000000000000000000000000000000815260206004820152602b60248201527f4175746f6d6174653a3a5f62696c6c3a2062616c616e636520636f6e7472616360448201527f74206e6f7420666f756e6400000000000000000000000000000000000000000060648201526084016103d3565b8073ffffffffffffffffffffffffffffffffffffffff1663e578a2258488612c21611601565b896040518563ffffffff1660e01b8152600401612c4194939291906132c0565b602060405180830381600087803b158015612c5b57600080fd5b505af1158015612c6f573d6000803e3d6000fd5b505050506040513d601f19601f82011682018060405250810190612c93919061318d565b93505050505b92915050565b6020830151835160009173ffffffffffffffffffffffffffffffffffffffff91821691161415612cd157508151612e4b565b60408051600280825260608201835260009260208301908036833750508651825192935091839150600090612d0857612d086134f7565b73ffffffffffffffffffffffffffffffffffffffff92909216602092830291909101820152850151815182906001908110612d4557612d456134f7565b73ffffffffffffffffffffffffffffffffffffffff928316602091820292909201810191909152600480548751928801516040517f38ed173900000000000000000000000000000000000000000000000000000000815291909416936338ed173993612db9939092879130918b910161335f565b600060405180830381600087803b158015612dd357600080fd5b505af1158015612de7573d6000803e3d6000fd5b505050506040513d6000823e601f3d9081017fffffffffffffffffffffffffffffffffffffffffffffffffffffffffffffffe0168201604052612e2d91908101906130a5565b600181518110612e3f57612e3f6134f7565b60200260200101519150505b9392505050565b60045473ffffffffffffffffffffffffffffffffffffffff16612e9d8184600060200201518660005b602002015173ffffffffffffffffffffffffffffffffffffffff169190612803565b612eb1818460016020020151866001612e7b565b8351602080860151855191860151604080880151606089015191517fe8e3370000000000000000000000000000000000000000000000000000000000815273ffffffffffffffffffffffffffffffffffffffff9687166004820152938616602485015260448401949094526064830191909152608482019290925260a48101919091523060c482015260e481018490529082169063e8e337009061010401606060405180830381600087803b158015612f6957600080fd5b505af1158015612f7d573d6000803e3d6000fd5b505050506040513d601f19601f82011682018060405250810190611df49190613242565b803561ffff81168114612fb357600080fd5b919050565b805169ffffffffffffffffffff81168114612fb357600080fd5b600060208284031215612fe457600080fd5b8135612e4b81613555565b60006020828403121561300157600080fd5b8151612e4b81613555565b6000806000806080858703121561302257600080fd5b843561302d81613555565b9350602085013561303d81613555565b925061304b60408601612fa1565b915061305960608601612fa1565b905092959194509250565b60008060006060848603121561307957600080fd5b833561308481613555565b9250602084013561309481613555565b929592945050506040919091013590565b600060208083850312156130b857600080fd5b825167ffffffffffffffff808211156130d057600080fd5b818501915085601f8301126130e457600080fd5b8151818111156130f6576130f6613526565b8060051b91506131078483016133ea565b8181528481019084860184860187018a101561312257600080fd5b600095505b83861015613145578051835260019590950194918601918601613127565b5098975050505050505050565b60006020828403121561316457600080fd5b81518015158114612e4b57600080fd5b60006020828403121561318657600080fd5b5035919050565b60006020828403121561319f57600080fd5b5051919050565b6000806000608084860312156131bb57600080fd5b83359250602080850135925085605f8601126131d657600080fd5b6040516040810181811067ffffffffffffffff821117156131f9576131f9613526565b806040525080604087018860808901111561321357600080fd5b60005b600281101561323357813583529184019190840190600101613216565b50505080925050509250925092565b60008060006060848603121561325757600080fd5b8351925060208401519150604084015190509250925092565b600080600080600060a0868803121561328857600080fd5b61329186612fb8565b94506020860151935060408601519250606086015191506132b460808701612fb8565b90509295509295909350565b73ffffffffffffffffffffffffffffffffffffffff8516815260006020858184015284604084015260806060840152835180608085015260005b818110156133165785810183015185820160a0015282016132fa565b8181111561332857600060a083870101525b50601f017fffffffffffffffffffffffffffffffffffffffffffffffffffffffffffffffe0169290920160a0019695505050505050565b600060a082018783526020878185015260a0604085015281875180845260c086019150828901935060005b818110156133bc57845173ffffffffffffffffffffffffffffffffffffffff168352938301939183019160010161338a565b505073ffffffffffffffffffffffffffffffffffffffff969096166060850152505050608001529392505050565b604051601f82017fffffffffffffffffffffffffffffffffffffffffffffffffffffffffffffffe016810167ffffffffffffffff8111828210171561343157613431613526565b604052919050565b60008261346f577f4e487b7100000000000000000000000000000000000000000000000000000000600052601260045260246000fd5b500490565b6000817fffffffffffffffffffffffffffffffffffffffffffffffffffffffffffffffff04831182151516156134ac576134ac6134c8565b500290565b6000828210156134c3576134c36134c8565b500390565b7f4e487b7100000000000000000000000000000000000000000000000000000000600052601160045260246000fd5b7f4e487b7100000000000000000000000000000000000000000000000000000000600052603260045260246000fd5b7f4e487b7100000000000000000000000000000000000000000000000000000000600052604160045260246000fd5b73ffffffffffffffffffffffffffffffffffffffff8116811461357757600080fd5b5056fea164736f6c6343000806000a",
  "linkReferences": {
    "automates/utils/DFH/proxy/ERC1167.sol": {
      "ERC1167": [
        {
          "length": 20,
          "start": 1424
        },
        {
          "length": 20,
          "start": 1776
        },
        {
          "length": 20,
          "start": 3958
        },
        {
          "length": 20,
          "start": 4345
        },
        {
          "length": 20,
          "start": 5283
        },
        {
          "length": 20,
          "start": 5855
        },
        {
          "length": 20,
          "start": 10023
        }
      ]
    }
  },
  "deployedLinkReferences": {
    "automates/utils/DFH/proxy/ERC1167.sol": {
      "ERC1167": [
        {
          "length": 20,
          "start": 1253
        },
        {
          "length": 20,
          "start": 1605
        },
        {
          "length": 20,
          "start": 3787
        },
        {
          "length": 20,
          "start": 4174
        },
        {
          "length": 20,
          "start": 5112
        },
        {
          "length": 20,
          "start": 5684
        },
        {
          "length": 20,
          "start": 9852
        }
      ]
    }
  }
}