{
  "_format": "hh-sol-artifact-1",
  "contractName": "SynthetixUniswapLpRestake",
  "sourceName": "automates/bondappetit/SynthetixUniswapLpRestake.automate.sol",
  "abi": [
    {
      "inputs": [
        {
          "internalType": "address",
          "name": "_info",
          "type": "address"
        }
      ],
      "stateMutability": "nonpayable",
      "type": "constructor"
    },
    {
      "anonymous": false,
      "inputs": [
        {
          "indexed": true,
          "internalType": "address",
          "name": "previousOwner",
          "type": "address"
        },
        {
          "indexed": true,
          "internalType": "address",
          "name": "newOwner",
          "type": "address"
        }
      ],
      "name": "OwnershipTransferred",
      "type": "event"
    },
    {
      "inputs": [],
      "name": "deposit",
      "outputs": [],
      "stateMutability": "nonpayable",
      "type": "function"
    },
    {
      "inputs": [],
      "name": "info",
      "outputs": [
        {
          "internalType": "address",
          "name": "",
          "type": "address"
        }
      ],
      "stateMutability": "view",
      "type": "function"
    },
    {
      "inputs": [
        {
          "internalType": "address",
          "name": "_staking",
          "type": "address"
        }
      ],
      "name": "init",
      "outputs": [],
      "stateMutability": "nonpayable",
      "type": "function"
    },
    {
      "inputs": [],
      "name": "owner",
      "outputs": [
        {
          "internalType": "address",
          "name": "",
          "type": "address"
        }
      ],
      "stateMutability": "view",
      "type": "function"
    },
    {
      "inputs": [],
      "name": "pause",
      "outputs": [],
      "stateMutability": "nonpayable",
      "type": "function"
    },
    {
      "inputs": [],
      "name": "paused",
      "outputs": [
        {
          "internalType": "bool",
          "name": "",
          "type": "bool"
        }
      ],
      "stateMutability": "view",
      "type": "function"
    },
    {
      "inputs": [],
      "name": "refund",
      "outputs": [],
      "stateMutability": "nonpayable",
      "type": "function"
    },
    {
      "inputs": [
        {
          "internalType": "uint256",
          "name": "gasFee",
          "type": "uint256"
        }
      ],
      "name": "run",
      "outputs": [],
      "stateMutability": "nonpayable",
      "type": "function"
    },
    {
      "inputs": [],
      "name": "staking",
      "outputs": [
        {
          "internalType": "contract IStaking",
          "name": "",
          "type": "address"
        }
      ],
      "stateMutability": "view",
      "type": "function"
    },
    {
      "inputs": [
        {
          "internalType": "address",
          "name": "token",
          "type": "address"
        },
        {
          "internalType": "address",
          "name": "recipient",
          "type": "address"
        },
        {
          "internalType": "uint256",
          "name": "amount",
          "type": "uint256"
        }
      ],
      "name": "transfer",
      "outputs": [],
      "stateMutability": "nonpayable",
      "type": "function"
    },
    {
      "inputs": [
        {
          "internalType": "address",
          "name": "newOwner",
          "type": "address"
        }
      ],
      "name": "transferOwnership",
      "outputs": [],
      "stateMutability": "nonpayable",
      "type": "function"
    },
    {
      "inputs": [],
      "name": "unpause",
      "outputs": [],
      "stateMutability": "nonpayable",
      "type": "function"
    }
  ],
  "bytecode": "0x608060405234801561001057600080fd5b50604051620024da380380620024da83398101604081905261003191610070565b600080546001600160a01b03909216620100000262010000600160b01b0319909216919091179055600180546001600160a01b031916321790556100a0565b60006020828403121561008257600080fd5b81516001600160a01b038116811461009957600080fd5b9392505050565b61242a80620000b06000396000f3fe608060405234801561001057600080fd5b50600436106100b45760003560e01c80638456cb59116100715780638456cb591461012e5780638da5cb5b14610136578063a444f5e914610147578063beabacc81461015a578063d0e30db01461016d578063f2fde38b1461017557600080fd5b806319ab453c146100b9578063370158ea146100ce5780633f4ba83a146100f35780634cf088d9146100fb578063590e1ae31461010e5780635c975abb14610116575b600080fd5b6100cc6100c7366004611fe9565b610188565b005b6100d661026a565b6040516001600160a01b0390911681526020015b60405180910390f35b6100cc610392565b6002546100d6906001600160a01b031681565b6100cc610593565b61011e610925565b60405190151581526020016100ea565b6100cc610a55565b6001546001600160a01b03166100d6565b6100cc610155366004612152565b610c59565b6100cc61016836600461202a565b611824565b6100cc6118d6565b6100cc610183366004611fe9565b611a6c565b600054610100900460ff16806101a1575060005460ff16155b6102095760405162461bcd60e51b815260206004820152602e60248201527f496e697469616c697a61626c653a20636f6e747261637420697320616c72656160448201526d191e481a5b9a5d1a585b1a5e995960921b60648201526084015b60405180910390fd5b600054610100900460ff1615801561022b576000805461ffff19166101011790555b600280546001600160a01b0384166001600160a01b03199182161790915560018054909116321790558015610266576000805461ff00191690555b5050565b604051630d7100e360e31b8152306004820152600090819073__$0bac19a4f6859fb91e3c64d76ce49d598f$__90636b8807189060240160206040518083038186803b1580156102b957600080fd5b505af41580156102cd573d6000803e3d6000fd5b505050506040513d601f19601f820116820180604052508101906102f1919061200d565b90506001600160a01b03811630141561031b5750506000546201000090046001600160a01b031690565b806001600160a01b031663370158ea6040518163ffffffff1660e01b815260040160206040518083038186803b15801561035457600080fd5b505afa158015610368573d6000803e3d6000fd5b505050506040513d601f19601f8201168201806040525081019061038c919061200d565b91505090565b604051630d7100e360e31b815230600482018190529073__$0bac19a4f6859fb91e3c64d76ce49d598f$__90636b8807189060240160206040518083038186803b1580156103df57600080fd5b505af41580156103f3573d6000803e3d6000fd5b505050506040513d601f19601f82011682018060405250810190610417919061200d565b6001600160a01b0316141561050f57600061043061026a565b6040516321f8a72160e01b81527f689d13d8ed8ef1027633ba26e7121121cf427434450a529548f19bf17597439560048201526001600160a01b0391909116906321f8a7219060240160206040518083038186803b15801561049157600080fd5b505afa1580156104a5573d6000803e3d6000fd5b505050506040513d601f19601f820116820180604052508101906104c9919061200d565b6001549091506001600160a01b03163314806104ed5750336001600160a01b038216145b6105095760405162461bcd60e51b8152600401610200906122aa565b50610539565b6001546001600160a01b031633146105395760405162461bcd60e51b8152600401610200906122aa565b610541610925565b6105845760405162461bcd60e51b8152602060048201526014602482015273105d5d1bdb585d194e881b9bdd081c185d5cd95960621b6044820152606401610200565b6001805460ff60a01b19169055565b6001546001600160a01b031633146105bd5760405162461bcd60e51b815260040161020090612269565b600254604080516374fd6c7760e11b815290516001600160a01b0390921691829163e9fad8ee91600480830192600092919082900301818387803b15801561060457600080fd5b505af1158015610618573d6000803e3d6000fd5b5050505060006106306001546001600160a01b031690565b90506000826001600160a01b03166372f702f36040518163ffffffff1660e01b815260040160206040518083038186803b15801561066d57600080fd5b505afa158015610681573d6000803e3d6000fd5b505050506040513d601f19601f820116820180604052508101906106a5919061200d565b6040516370a0823160e01b81523060048201529091506001600160a01b0382169063a9059cbb90849083906370a082319060240160206040518083038186803b1580156106f157600080fd5b505afa158015610705573d6000803e3d6000fd5b505050506040513d601f19601f82011682018060405250810190610729919061216b565b6040516001600160e01b031960e085901b1681526001600160a01b0390921660048301526024820152604401602060405180830381600087803b15801561076f57600080fd5b505af1158015610783573d6000803e3d6000fd5b505050506040513d601f19601f820116820180604052508101906107a79190612130565b506000836001600160a01b031663d1af0c7d6040518163ffffffff1660e01b815260040160206040518083038186803b1580156107e357600080fd5b505afa1580156107f7573d6000803e3d6000fd5b505050506040513d601f19601f8201168201806040525081019061081b919061200d565b6040516370a0823160e01b81523060048201529091506001600160a01b0382169063a9059cbb90859083906370a082319060240160206040518083038186803b15801561086757600080fd5b505afa15801561087b573d6000803e3d6000fd5b505050506040513d601f19601f8201168201806040525081019061089f919061216b565b6040516001600160e01b031960e085901b1681526001600160a01b03909216600483015260248201526044015b602060405180830381600087803b1580156108e657600080fd5b505af11580156108fa573d6000803e3d6000fd5b505050506040513d601f19601f8201168201806040525081019061091e9190612130565b5050505050565b604051630d7100e360e31b8152306004820152600090819073__$0bac19a4f6859fb91e3c64d76ce49d598f$__90636b8807189060240160206040518083038186803b15801561097457600080fd5b505af4158015610988573d6000803e3d6000fd5b505050506040513d601f19601f820116820180604052508101906109ac919061200d565b90506001600160a01b0381163014156109d1575050600154600160a01b900460ff1690565b600154600160a01b900460ff168061038c5750806001600160a01b0316635c975abb6040518163ffffffff1660e01b815260040160206040518083038186803b158015610a1d57600080fd5b505afa158015610a31573d6000803e3d6000fd5b505050506040513d601f19601f8201168201806040525081019061038c9190612130565b604051630d7100e360e31b815230600482018190529073__$0bac19a4f6859fb91e3c64d76ce49d598f$__90636b8807189060240160206040518083038186803b158015610aa257600080fd5b505af4158015610ab6573d6000803e3d6000fd5b505050506040513d601f19601f82011682018060405250810190610ada919061200d565b6001600160a01b03161415610bd2576000610af361026a565b6040516321f8a72160e01b81527f689d13d8ed8ef1027633ba26e7121121cf427434450a529548f19bf17597439560048201526001600160a01b0391909116906321f8a7219060240160206040518083038186803b158015610b5457600080fd5b505afa158015610b68573d6000803e3d6000fd5b505050506040513d601f19601f82011682018060405250810190610b8c919061200d565b6001549091506001600160a01b0316331480610bb05750336001600160a01b038216145b610bcc5760405162461bcd60e51b8152600401610200906122aa565b50610bfc565b6001546001600160a01b03163314610bfc5760405162461bcd60e51b8152600401610200906122aa565b610c04610925565b15610c445760405162461bcd60e51b815260206004820152601060248201526f105d5d1bdb585d194e881c185d5cd95960821b6044820152606401610200565b6001805460ff60a01b1916600160a01b179055565b806040518060400160405280601d81526020017f426f6e646170706574697453796e7468657469784c5052657374616b65000000815250610c9a8282611bcd565b506002546040516246613160e11b81523060048201526000916001600160a01b031690628cc2629060240160206040518083038186803b158015610cdd57600080fd5b505afa158015610cf1573d6000803e3d6000fd5b505050506040513d601f19601f82011682018060405250810190610d15919061216b565b11610d625760405162461bcd60e51b815260206004820152602960248201526000805160206123d58339815191526044820152681b9bc819585c9b995960ba1b6064820152608401610200565b6000610d6c61026a565b6040516321f8a72160e01b81527fa446c21f636a27494eaafaffc073cc3325d32c4efaa774c3f2a297ebef86980360048201526001600160a01b0391909116906321f8a7219060240160206040518083038186803b158015610dcd57600080fd5b505afa158015610de1573d6000803e3d6000fd5b505050506040513d601f19601f82011682018060405250810190610e05919061200d565b90506001600160a01b038116610e7b5760405162461bcd60e51b815260206004820152604160248201526000805160206123d583398151915260448201527f756e697377617020726f7574657220636f6e7472616374206e6f7420666f756e6064820152601960fa1b608482015260a401610200565b600260009054906101000a90046001600160a01b03166001600160a01b0316633d18b9126040518163ffffffff1660e01b8152600401600060405180830381600087803b158015610ecb57600080fd5b505af1158015610edf573d6000803e3d6000fd5b505050506000600260009054906101000a90046001600160a01b03166001600160a01b031663d1af0c7d6040518163ffffffff1660e01b815260040160206040518083038186803b158015610f3357600080fd5b505afa158015610f47573d6000803e3d6000fd5b505050506040513d601f19601f82011682018060405250810190610f6b919061200d565b6040516370a0823160e01b81523060048201529091506000906001600160a01b038316906370a082319060240160206040518083038186803b158015610fb057600080fd5b505afa158015610fc4573d6000803e3d6000fd5b505050506040513d601f19601f82011682018060405250810190610fe8919061216b565b90506000610ff7600283612349565b90506000611005828461236b565b905061101a6001600160a01b03851686611e89565b600254604080516372f702f360e01b815290516000926001600160a01b0316916372f702f3916004808301926020929190829003018186803b15801561105f57600080fd5b505afa158015611073573d6000803e3d6000fd5b505050506040513d601f19601f82011682018060405250810190611097919061200d565b90506000816001600160a01b0316630dfe16816040518163ffffffff1660e01b815260040160206040518083038186803b1580156110d457600080fd5b505afa1580156110e8573d6000803e3d6000fd5b505050506040513d601f19601f8201168201806040525081019061110c919061200d565b90506000866001600160a01b0316826001600160a01b03161461138657604080516002808252606082018352600092602083019080368337019050509050878160008151811061115e5761115e612390565b60200260200101906001600160a01b031690816001600160a01b031681525050828160018151811061119257611192612390565b6001600160a01b03928316602091820292909201015260405163d06ca61f60e01b81526000918b169063d06ca61f906111d1908a9086906004016122ec565b60006040518083038186803b1580156111e957600080fd5b505afa1580156111fd573d6000803e3d6000fd5b505050506040513d6000823e601f3d908101601f19168201604052611225919081019061206b565b60018351611233919061236b565b8151811061124357611243612390565b60200260200101519050600081116112b15760405162461bcd60e51b815260206004820152603f60248201526000805160206123d583398151915260448201527f656d707479206c697175696469747920666f7220746f6b656e302073776170006064820152608401610200565b6040516338ed173960e01b81526001600160a01b038b16906338ed1739906112e5908a90859087903090429060040161230d565b600060405180830381600087803b1580156112ff57600080fd5b505af1158015611313573d6000803e3d6000fd5b505050506040513d6000823e601f3d908101601f1916820160405261133b919081019061206b565b60018351611349919061236b565b8151811061135957611359612390565b6020026020010151925061137f8a856001600160a01b0316611e8990919063ffffffff16565b5050611389565b50835b6000836001600160a01b031663d21220a76040518163ffffffff1660e01b815260040160206040518083038186803b1580156113c457600080fd5b505afa1580156113d8573d6000803e3d6000fd5b505050506040513d601f19601f820116820180604052508101906113fc919061200d565b90506000886001600160a01b0316826001600160a01b03161461167657604080516002808252606082018352600092602083019080368337019050509050898160008151811061144e5761144e612390565b60200260200101906001600160a01b031690816001600160a01b031681525050828160018151811061148257611482612390565b6001600160a01b03928316602091820292909201015260405163d06ca61f60e01b81526000918d169063d06ca61f906114c1908b9086906004016122ec565b60006040518083038186803b1580156114d957600080fd5b505afa1580156114ed573d6000803e3d6000fd5b505050506040513d6000823e601f3d908101601f19168201604052611515919081019061206b565b60018351611523919061236b565b8151811061153357611533612390565b60200260200101519050600081116115a15760405162461bcd60e51b815260206004820152603f60248201526000805160206123d583398151915260448201527f656d707479206c697175696469747920666f7220746f6b656e312073776170006064820152608401610200565b6040516338ed173960e01b81526001600160a01b038d16906338ed1739906115d5908b90859087903090429060040161230d565b600060405180830381600087803b1580156115ef57600080fd5b505af1158015611603573d6000803e3d6000fd5b505050506040513d6000823e601f3d908101601f1916820160405261162b919081019061206b565b60018351611639919061236b565b8151811061164957611649612390565b6020026020010151925061166f8c856001600160a01b0316611e8990919063ffffffff16565b5050611679565b50845b60405162e8e33760e81b81526001600160a01b0385811660048301528381166024830152604482018590526064820183905260006084830181905260a48301523060c48301524260e48301528b169063e8e337009061010401606060405180830381600087803b1580156116ec57600080fd5b505af1158015611700573d6000803e3d6000fd5b505050506040513d601f19601f820116820180604052508101906117249190612184565b505060025461174091506001600160a01b038781169116611e89565b6002546040516370a0823160e01b81523060048201526001600160a01b039182169163a694fc3a91908816906370a082319060240160206040518083038186803b15801561178d57600080fd5b505afa1580156117a1573d6000803e3d6000fd5b505050506040513d601f19601f820116820180604052508101906117c5919061216b565b6040518263ffffffff1660e01b81526004016117e391815260200190565b600060405180830381600087803b1580156117fd57600080fd5b505af1158015611811573d6000803e3d6000fd5b5050505050505050505050505050505050565b6001546001600160a01b0316331461184e5760405162461bcd60e51b815260040161020090612269565b60405163a9059cbb60e01b81526001600160a01b0383811660048301526024820183905284169063a9059cbb90604401602060405180830381600087803b15801561189857600080fd5b505af11580156118ac573d6000803e3d6000fd5b505050506040513d601f19601f820116820180604052508101906118d09190612130565b50505050565b6001546001600160a01b031633146119005760405162461bcd60e51b815260040161020090612269565b600254604080516372f702f360e01b815290516001600160a01b039092169160009183916372f702f391600480820192602092909190829003018186803b15801561194a57600080fd5b505afa15801561195e573d6000803e3d6000fd5b505050506040513d601f19601f82011682018060405250810190611982919061200d565b90506119976001600160a01b03821683611e89565b6040516370a0823160e01b81523060048201526001600160a01b038084169163a694fc3a918416906370a082319060240160206040518083038186803b1580156119e057600080fd5b505afa1580156119f4573d6000803e3d6000fd5b505050506040513d601f19601f82011682018060405250810190611a18919061216b565b6040518263ffffffff1660e01b8152600401611a3691815260200190565b600060405180830381600087803b158015611a5057600080fd5b505af1158015611a64573d6000803e3d6000fd5b505050505050565b6001546001600160a01b03163314611a965760405162461bcd60e51b815260040161020090612269565b604051630d7100e360e31b815230600482018190529073__$0bac19a4f6859fb91e3c64d76ce49d598f$__90636b8807189060240160206040518083038186803b158015611ae357600080fd5b505af4158015611af7573d6000803e3d6000fd5b505050506040513d601f19601f82011682018060405250810190611b1b919061200d565b6001600160a01b031614611b7b5760405162461bcd60e51b815260206004820152602160248201527f4175746f6d6174653a206368616e676520746865206f776e6572206661696c656044820152601960fa1b6064820152608401610200565b600180546001600160a01b038381166001600160a01b0319831681179093556040519116919082907f8be0079c531659141344cd1fd0a4f28419497f9722a3daafe3b4186f6b6457e090600090a35050565b6000611bd7610925565b15611c175760405162461bcd60e51b815260206004820152601060248201526f105d5d1bdb585d194e881c185d5cd95960821b6044820152606401610200565b6000611c2b6001546001600160a01b031690565b9050326001600160a01b0382161415611c48576000915050611e83565b6000611c5261026a565b6040516321f8a72160e01b81527fe78c16c6d839536d3155985aab4e9c6013c8c3d446054bcebc48612f359d81f560048201529091506000906001600160a01b038316906321f8a7219060240160206040518083038186803b158015611cb757600080fd5b505afa158015611ccb573d6000803e3d6000fd5b505050506040513d601f19601f82011682018060405250810190611cef919061200d565b90506001600160a01b038116611d5b5760405162461bcd60e51b815260206004820152602b60248201527f4175746f6d6174653a3a5f62696c6c3a2062616c616e636520636f6e7472616360448201526a1d081b9bdd08199bdd5b9960aa1b6064820152608401610200565b60405163bd02d0f560e01b81527fa93d95f96a5de25d7a41ddf1f5e8d45cfc929c4838163cf011dab4043a4a40d560048201526000906001600160a01b0384169063bd02d0f59060240160206040518083038186803b158015611dbd57600080fd5b505afa158015611dd1573d6000803e3d6000fd5b505050506040513d601f19601f82011682018060405250810190611df5919061216b565b60405163e578a22560e01b81529091506001600160a01b0383169063e578a22590611e2a9087908b9086908c906004016121f6565b602060405180830381600087803b158015611e4457600080fd5b505af1158015611e58573d6000803e3d6000fd5b505050506040513d601f19601f82011682018060405250810190611e7c919061216b565b9450505050505b92915050565b6102668282600019604051636eb1769f60e11b81523060048201526001600160a01b0383811660248301526000919085169063dd62ed3e9060440160206040518083038186803b158015611edc57600080fd5b505afa158015611ef0573d6000803e3d6000fd5b505050506040513d601f19601f82011682018060405250810190611f14919061216b565b90508015801590611f2457508181105b15611fad5760405163095ea7b360e01b81526001600160a01b0384811660048301526000602483015285169063095ea7b390604401602060405180830381600087803b158015611f7357600080fd5b505af1158015611f87573d6000803e3d6000fd5b505050506040513d601f19601f82011682018060405250810190611fab9190612130565b505b8181146118d05760405163095ea7b360e01b81526001600160a01b0384811660048301526024820184905285169063095ea7b3906044016108cc565b600060208284031215611ffb57600080fd5b8135612006816123bc565b9392505050565b60006020828403121561201f57600080fd5b8151612006816123bc565b60008060006060848603121561203f57600080fd5b833561204a816123bc565b9250602084013561205a816123bc565b929592945050506040919091013590565b6000602080838503121561207e57600080fd5b825167ffffffffffffffff8082111561209657600080fd5b818501915085601f8301126120aa57600080fd5b8151818111156120bc576120bc6123a6565b8060051b604051601f19603f830116810181811085821117156120e1576120e16123a6565b604052828152858101935084860182860187018a101561210057600080fd5b600095505b83861015612123578051855260019590950194938601938601612105565b5098975050505050505050565b60006020828403121561214257600080fd5b8151801515811461200657600080fd5b60006020828403121561216457600080fd5b5035919050565b60006020828403121561217d57600080fd5b5051919050565b60008060006060848603121561219957600080fd5b8351925060208401519150604084015190509250925092565b600081518084526020808501945080840160005b838110156121eb5781516001600160a01b0316875295820195908201906001016121c6565b509495945050505050565b60018060a01b038516815260006020858184015284604084015260806060840152835180608085015260005b8181101561223e5785810183015185820160a001528201612222565b8181111561225057600060a083870101525b50601f01601f19169290920160a0019695505050505050565b60208082526021908201527f4175746f6d6174653a2063616c6c6572206973206e6f7420746865206f776e656040820152603960f91b606082015260800190565b60208082526022908201527f4175746f6d6174653a2063616c6c6572206973206e6f7420746865207061757360408201526132b960f11b606082015260800190565b82815260406020820152600061230560408301846121b2565b949350505050565b85815284602082015260a06040820152600061232c60a08301866121b2565b6001600160a01b0394909416606083015250608001529392505050565b60008261236657634e487b7160e01b600052601260045260246000fd5b500490565b60008282101561238b57634e487b7160e01b600052601160045260246000fd5b500390565b634e487b7160e01b600052603260045260246000fd5b634e487b7160e01b600052604160045260246000fd5b6001600160a01b03811681146123d157600080fd5b5056fe53796e746865746978556e69737761704c7052657374616b653a3a72756e3a20a2646970667358221220f0ec9bc36d4d82f3b4b5615ea45887c0616a980aedb9046043ff68b993aae2fc64736f6c63430008060033",
  "linkReferences": {
    "automates/utils/DFH/proxy/ERC1167.sol": {
      "ERC1167": [
        {
          "length": 20,
          "start": 820
        },
        {
          "length": 20,
          "start": 1114
        },
        {
          "length": 20,
          "start": 2543
        },
        {
          "length": 20,
          "start": 2845
        },
        {
          "length": 20,
          "start": 7006
        }
      ]
    }
  },
  "deployedLinkReferences": {
    "automates/utils/DFH/proxy/ERC1167.sol": {
      "ERC1167": [
        {
          "length": 20,
          "start": 644
        },
        {
          "length": 20,
          "start": 938
        },
        {
          "length": 20,
          "start": 2367
        },
        {
          "length": 20,
          "start": 2669
        },
        {
          "length": 20,
          "start": 6830
        }
      ]
    }
  }
}