{
  "_format": "hh-sol-artifact-1",
  "contractName": "ProxyFactory",
  "sourceName": "automates/utils/DFH/proxy/ProxyFactory.sol",
  "abi": [
    {
      "anonymous": false,
      "inputs": [
        {
          "indexed": true,
          "internalType": "address",
          "name": "prototype",
          "type": "address"
        },
        {
          "indexed": true,
          "internalType": "address",
          "name": "proxy",
          "type": "address"
        }
      ],
      "name": "ProxyCreated",
      "type": "event"
    },
    {
      "inputs": [
        {
          "internalType": "address",
          "name": "prototype",
          "type": "address"
        },
        {
          "internalType": "bytes",
          "name": "args",
          "type": "bytes"
        }
      ],
      "name": "create",
      "outputs": [
        {
          "internalType": "address",
          "name": "proxy",
          "type": "address"
        }
      ],
      "stateMutability": "nonpayable",
      "type": "function"
    }
  ],
  "bytecode": "0x608060405234801561001057600080fd5b5061042c806100206000396000f3fe608060405234801561001057600080fd5b506004361061002b5760003560e01c8063a3f697ba14610030575b600080fd5b61004361003e3660046102ae565b61006c565b60405173ffffffffffffffffffffffffffffffffffffffff909116815260200160405180910390f35b6040517f8124b78e00000000000000000000000000000000000000000000000000000000815273ffffffffffffffffffffffffffffffffffffffff8316600482015260009073__$0bac19a4f6859fb91e3c64d76ce49d598f$__90638124b78e9060240160206040518083038186803b1580156100e857600080fd5b505af41580156100fc573d6000803e3d6000fd5b505050506040513d601f19601f82011682018060405250810190610120919061028a565b82519091501561022a5760008173ffffffffffffffffffffffffffffffffffffffff16836040516101519190610390565b6000604051808303816000865af19150503d806000811461018e576040519150601f19603f3d011682016040523d82523d6000602084013e610193565b606091505b5050905080610228576040517f08c379a000000000000000000000000000000000000000000000000000000000815260206004820152603160248201527f50726f7879466163746f72793a3a6372656174653a2070726f787920696e697460448201527f69616c697a6174696f6e206661696c6564000000000000000000000000000000606482015260840160405180910390fd5b505b8073ffffffffffffffffffffffffffffffffffffffff168373ffffffffffffffffffffffffffffffffffffffff167f9678a1e87ca9f1a37dc659a97b39d812d98cd236947e1b53b3d0d6fd346acb6e60405160405180910390a392915050565b60006020828403121561029c57600080fd5b81516102a7816103fa565b9392505050565b600080604083850312156102c157600080fd5b82356102cc816103fa565b9150602083013567ffffffffffffffff808211156102e957600080fd5b818501915085601f8301126102fd57600080fd5b81358181111561030f5761030f6103cb565b604051601f82017fffffffffffffffffffffffffffffffffffffffffffffffffffffffffffffffe0908116603f01168101908382118183101715610355576103556103cb565b8160405282815288602084870101111561036e57600080fd5b8260208601602083013760006020848301015280955050505050509250929050565b6000825160005b818110156103b15760208186018101518583015201610397565b818111156103c0576000828501525b509190910192915050565b7f4e487b7100000000000000000000000000000000000000000000000000000000600052604160045260246000fd5b73ffffffffffffffffffffffffffffffffffffffff8116811461041c57600080fd5b5056fea164736f6c6343000806000a",
  "linkReferences": {
    "automates/utils/DFH/proxy/ERC1167.sol": {
      "ERC1167": [
        {
          "length": 20,
          "start": 211
        }
      ]
    }
  },
  "deployedLinkReferences": {
    "automates/utils/DFH/proxy/ERC1167.sol": {
      "ERC1167": [
        {
          "length": 20,
          "start": 179
        }
      ]
    }
  }
}