{
  "_format": "hh-sol-artifact-1",
  "contractName": "ERC1167",
  "sourceName": "automates/utils/DFH/proxy/ERC1167.sol",
  "abi": [
    {
      "inputs": [],
      "name": "CLONE",
      "outputs": [
        {
          "internalType": "bytes",
          "name": "",
          "type": "bytes"
        }
      ],
      "stateMutability": "view",
      "type": "function"
    },
    {
      "inputs": [
        {
          "internalType": "address",
          "name": "proxy",
          "type": "address"
        }
      ],
      "name": "implementation",
      "outputs": [
        {
          "internalType": "address",
          "name": "impl",
          "type": "address"
        }
      ],
      "stateMutability": "view",
      "type": "function"
    }
  ],
  "bytecode": "0x61076f61003a600b82828239805160001a60731461002d57634e487b7160e01b600052600060045260246000fd5b30600052607381538281f3fe730000000000000000000000000000000000000000301460806040526004361061004b5760003560e01c80636b424266146100505780636b8807181461006e5780638124b78e146100a6575b600080fd5b6100586100c6565b60405161006591906105b4565b60405180910390f35b61008161007c366004610577565b6100e2565b60405173ffffffffffffffffffffffffffffffffffffffff9091168152602001610065565b8180156100b257600080fd5b506100816100c1366004610577565b610491565b6040518060600160405280602d8152602001610736602d913981565b80803b602d81118015906100f7575060298110155b1561048b5760408051603f83017fffffffffffffffffffffffffffffffffffffffffffffffffffffffffffffffe0168101909152818152600190600090838260208301883c600091505b82801561014e5750600982105b156101f8576040518060600160405280602d8152602001610736602d9139828151811061017d5761017d610706565b602001015160f81c60f81b7effffffffffffffffffffffffffffffffffffffffffffffffffffffffffffff19168183815181106101bc576101bc610706565b01602001517fff0000000000000000000000000000000000000000000000000000000000000016149250816101f08161069e565b925050610141565b600091505b82801561020a5750600f82105b156103c75781600414156102f35761022384602d610664565b6040518060600160405280602d8152602001610736602d9139600161024985602d610664565b6102539190610664565b8151811061026357610263610706565b0160200151610275919060f81c61067b565b60f81b7effffffffffffffffffffffffffffffffffffffffffffffffffffffffffffff19168160018484516102aa9190610664565b6102b49190610664565b815181106102c4576102c4610706565b01602001517fff00000000000000000000000000000000000000000000000000000000000000161492506103b5565b6040518060600160405280602d8152602001610736602d9139600161031984602d610664565b6103239190610664565b8151811061033357610333610706565b602001015160f81c60f81b7effffffffffffffffffffffffffffffffffffffffffffffffffffffffffffff19168160018484516103709190610664565b61037a9190610664565b8151811061038a5761038a610706565b01602001517fff00000000000000000000000000000000000000000000000000000000000000161492505b816103bf8161069e565b9250506101fd565b6103d284602d610664565b6103dd90607361067b565b60f81b7effffffffffffffffffffffffffffffffffffffffffffffffffffffffffffff19168160098151811061041557610415610706565b01602001517fff00000000000000000000000000000000000000000000000000000000000000161461044657600092505b600083156104865750601e81015173ffffffffffffffffffffffffffffffffffffffff1661047585602d610664565b610480906008610627565b81901c95505b505050505b50919050565b60006040517f3d602d80600a3d3981f3363d3d373d3d3d363d7300000000000000000000000081528260601b60148201527f5af43d82803e903d91602b57fd5bf3000000000000000000000000000000000060288201526037816000f091505073ffffffffffffffffffffffffffffffffffffffff8116610572576040517f08c379a000000000000000000000000000000000000000000000000000000000815260206004820152601660248201527f455243313136373a20637265617465206661696c656400000000000000000000604482015260640160405180910390fd5b919050565b60006020828403121561058957600080fd5b813573ffffffffffffffffffffffffffffffffffffffff811681146105ad57600080fd5b9392505050565b600060208083528351808285015260005b818110156105e1578581018301518582016040015282016105c5565b818111156105f3576000604083870101525b50601f017fffffffffffffffffffffffffffffffffffffffffffffffffffffffffffffffe016929092016040019392505050565b6000817fffffffffffffffffffffffffffffffffffffffffffffffffffffffffffffffff048311821515161561065f5761065f6106d7565b500290565b600082821015610676576106766106d7565b500390565b600060ff821660ff841680821015610695576106956106d7565b90039392505050565b60007fffffffffffffffffffffffffffffffffffffffffffffffffffffffffffffffff8214156106d0576106d06106d7565b5060010190565b7f4e487b7100000000000000000000000000000000000000000000000000000000600052601160045260246000fd5b7f4e487b7100000000000000000000000000000000000000000000000000000000600052603260045260246000fdfe363d3d373d3d3d363d73bebebebebebebebebebebebebebebebebebebebe5af43d82803e903d91602b57fd5bf3a164736f6c6343000806000a",
  "linkReferences": {},
  "deployedLinkReferences": {}
}