{
  "address": "0xe7752DaeF88Fb6774aE0870a6625cE1103430f2c",
  "abi": [
    {
      "inputs": [
        {
          "internalType": "address",
          "name": "_info",
          "type": "address"
        }
      ],
      "stateMutability": "nonpayable",
      "type": "constructor"
    },
    {
      "anonymous": false,
      "inputs": [
        {
          "indexed": true,
          "internalType": "address",
          "name": "previousOwner",
          "type": "address"
        },
        {
          "indexed": true,
          "internalType": "address",
          "name": "newOwner",
          "type": "address"
        }
      ],
      "name": "OwnershipTransferred",
      "type": "event"
    },
    {
      "anonymous": false,
      "inputs": [
        {
          "indexed": false,
          "internalType": "int256",
          "name": "protocolFee",
          "type": "int256"
        }
      ],
      "name": "ProtocolFeeChanged",
      "type": "event"
    },
    {
      "inputs": [
        {
          "internalType": "uint256",
          "name": "amount",
          "type": "uint256"
        }
      ],
      "name": "calcTokenAmount",
      "outputs": [
        {
          "internalType": "uint256",
          "name": "",
          "type": "uint256"
        }
      ],
      "stateMutability": "view",
      "type": "function"
    },
    {
      "inputs": [
        {
          "internalType": "int256",
          "name": "__protocolFee",
          "type": "int256"
        }
      ],
      "name": "changeProtocolFee",
      "outputs": [],
      "stateMutability": "nonpayable",
      "type": "function"
    },
    {
      "inputs": [],
      "name": "deadline",
      "outputs": [
        {
          "internalType": "uint16",
          "name": "",
          "type": "uint16"
        }
      ],
      "stateMutability": "view",
      "type": "function"
    },
    {
      "inputs": [],
      "name": "deposit",
      "outputs": [],
      "stateMutability": "nonpayable",
      "type": "function"
    },
    {
      "inputs": [],
      "name": "info",
      "outputs": [
        {
          "internalType": "address",
          "name": "",
          "type": "address"
        }
      ],
      "stateMutability": "view",
      "type": "function"
    },
    {
      "inputs": [
        {
          "internalType": "address",
          "name": "_staking",
          "type": "address"
        },
        {
          "internalType": "address",
          "name": "_liquidityRouter",
          "type": "address"
        },
        {
          "internalType": "address",
          "name": "_swapToken",
          "type": "address"
        },
        {
          "internalType": "uint16",
          "name": "_slippage",
          "type": "uint16"
        },
        {
          "internalType": "uint16",
          "name": "_deadline",
          "type": "uint16"
        }
      ],
      "name": "init",
      "outputs": [],
      "stateMutability": "nonpayable",
      "type": "function"
    },
    {
      "inputs": [],
      "name": "liquidityRouter",
      "outputs": [
        {
          "internalType": "address",
          "name": "",
          "type": "address"
        }
      ],
      "stateMutability": "view",
      "type": "function"
    },
    {
      "inputs": [],
      "name": "owner",
      "outputs": [
        {
          "internalType": "address",
          "name": "",
          "type": "address"
        }
      ],
      "stateMutability": "view",
      "type": "function"
    },
    {
      "inputs": [],
      "name": "pause",
      "outputs": [],
      "stateMutability": "nonpayable",
      "type": "function"
    },
    {
      "inputs": [],
      "name": "paused",
      "outputs": [
        {
          "internalType": "bool",
          "name": "",
          "type": "bool"
        }
      ],
      "stateMutability": "view",
      "type": "function"
    },
    {
      "inputs": [],
      "name": "protocolFee",
      "outputs": [
        {
          "internalType": "uint256",
          "name": "",
          "type": "uint256"
        }
      ],
      "stateMutability": "view",
      "type": "function"
    },
    {
      "inputs": [],
      "name": "refund",
      "outputs": [],
      "stateMutability": "nonpayable",
      "type": "function"
    },
    {
      "inputs": [
        {
          "internalType": "uint256",
          "name": "gasFee",
          "type": "uint256"
        },
        {
          "internalType": "uint256",
          "name": "_deadline",
          "type": "uint256"
        },
        {
          "internalType": "uint256",
          "name": "swapOutMin",
          "type": "uint256"
        },
        {
          "internalType": "uint256",
          "name": "lpOutMin",
          "type": "uint256"
        }
      ],
      "name": "run",
      "outputs": [],
      "stateMutability": "nonpayable",
      "type": "function"
    },
    {
      "inputs": [],
      "name": "slippage",
      "outputs": [
        {
          "internalType": "uint16",
          "name": "",
          "type": "uint16"
        }
      ],
      "stateMutability": "view",
      "type": "function"
    },
    {
      "inputs": [],
      "name": "staking",
      "outputs": [
        {
          "internalType": "contract IGauge",
          "name": "",
          "type": "address"
        }
      ],
      "stateMutability": "view",
      "type": "function"
    },
    {
      "inputs": [],
      "name": "swapToken",
      "outputs": [
        {
          "internalType": "address",
          "name": "",
          "type": "address"
        }
      ],
      "stateMutability": "view",
      "type": "function"
    },
    {
      "inputs": [
        {
          "internalType": "address",
          "name": "token",
          "type": "address"
        },
        {
          "internalType": "address",
          "name": "recipient",
          "type": "address"
        },
        {
          "internalType": "uint256",
          "name": "amount",
          "type": "uint256"
        }
      ],
      "name": "transfer",
      "outputs": [],
      "stateMutability": "nonpayable",
      "type": "function"
    },
    {
      "inputs": [
        {
          "internalType": "address",
          "name": "newOwner",
          "type": "address"
        }
      ],
      "name": "transferOwnership",
      "outputs": [],
      "stateMutability": "nonpayable",
      "type": "function"
    },
    {
      "inputs": [],
      "name": "unpause",
      "outputs": [],
      "stateMutability": "nonpayable",
      "type": "function"
    }
  ],
  "transactionHash": "0xf0c6db6ed87bf8fa7a0b3c1ce53aecd528226dbbc23f751bdc4076bc3c0d2841",
  "args": [
    "0x5AE235502Bf1de231AfD75364670d50e3C3694A6"
  ],
  "numDeployments": 1,
  "solcInputHash": "92132abc5c5425ca08a811be8b03f9c0",
  "bytecode": "0x60806040523480156200001157600080fd5b50604051620040b2380380620040b2833981016040819052620000349162000069565b600080546001600160a01b039092166001600160a01b031992831617905560018054909116321790556000196002556200009b565b6000602082840312156200007c57600080fd5b81516001600160a01b03811681146200009457600080fd5b9392505050565b61400780620000ab6000396000f3fe608060405234801561001057600080fd5b50600436106101515760003560e01c806360d20ccc116100cd578063b0e21e8a11610081578063d0e30db011610066578063d0e30db0146102f3578063dc73e49c146102fb578063f2fde38b1461031b57600080fd5b8063b0e21e8a146102d8578063beabacc8146102e057600080fd5b80638456cb59116100b25780638456cb591461029f5780638da5cb5b146102a75780639742b5c3146102c557600080fd5b806360d20ccc1461026b5780637b7902dd1461027e57600080fd5b80633e032a3b116101245780634cf088d9116101095780634cf088d914610226578063590e1ae31461024b5780635c975abb1461025357600080fd5b80633e032a3b146101f85780633f4ba83a1461021e57600080fd5b806315509d2b14610156578063247029441461016b57806329dcb0cf146101b5578063370158ea146101f0575b600080fd5b610169610164366004613c0b565b61032e565b005b60045461018b9073ffffffffffffffffffffffffffffffffffffffff1681565b60405173ffffffffffffffffffffffffffffffffffffffff90911681526020015b60405180910390f35b6005546101dd90760100000000000000000000000000000000000000000000900461ffff1681565b60405161ffff90911681526020016101ac565b61018b6107cd565b6005546101dd9074010000000000000000000000000000000000000000900461ffff1681565b61016961092f565b60035461018b90610100900473ffffffffffffffffffffffffffffffffffffffff1681565b610169610cc6565b61025b611320565b60405190151581526020016101ac565b6101696102793660046139cc565b6114a5565b61029161028c366004613bd9565b611d61565b6040519081526020016101ac565b610169611fb2565b60015473ffffffffffffffffffffffffffffffffffffffff1661018b565b6101696102d3366004613bd9565b61235c565b610291612596565b6101696102ee366004613a37565b6129a3565b610169612af8565b60055461018b9073ffffffffffffffffffffffffffffffffffffffff1681565b61016961032936600461398b565b612d00565b836040518060400160405280601881526020017f43757276654761756765556e697377617052657374616b65000000000000000081525061036f8282612f5f565b506000600360019054906101000a900473ffffffffffffffffffffffffffffffffffffffff16905060008173ffffffffffffffffffffffffffffffffffffffff1663075461726040518163ffffffff1660e01b815260040160206040518083038186803b1580156103df57600080fd5b505afa1580156103f3573d6000803e3d6000fd5b505050506040513d601f19601f8201168201806040525081019061041791906139af565b6040517f6a62784200000000000000000000000000000000000000000000000000000000815273ffffffffffffffffffffffffffffffffffffffff848116600483015291925090821690636a62784290602401600060405180830381600087803b15801561048457600080fd5b505af1158015610498573d6000803e3d6000fd5b5050505060008273ffffffffffffffffffffffffffffffffffffffff166376d8b1176040518163ffffffff1660e01b815260040160206040518083038186803b1580156104e457600080fd5b505afa1580156104f8573d6000803e3d6000fd5b505050506040513d601f19601f8201168201806040525081019061051c91906139af565b6040517f70a0823100000000000000000000000000000000000000000000000000000000815230600482015290915060009073ffffffffffffffffffffffffffffffffffffffff8316906370a082319060240160206040518083038186803b15801561058757600080fd5b505afa15801561059b573d6000803e3d6000fd5b505050506040513d601f19601f820116820180604052508101906105bf9190613bf2565b6004549091506105e99073ffffffffffffffffffffffffffffffffffffffff848116911683613231565b6040805180820190915273ffffffffffffffffffffffffffffffffffffffff808416825260055416602082015260009061062590838b8d61344f565b6007546005549192506106529173ffffffffffffffffffffffffffffffffffffffff908116911683613231565b6007546106769073ffffffffffffffffffffffffffffffffffffffff16828a6135ca565b6006546040517f70a0823100000000000000000000000000000000000000000000000000000000815230600482015260009173ffffffffffffffffffffffffffffffffffffffff16906370a082319060240160206040518083038186803b1580156106e057600080fd5b505afa1580156106f4573d6000803e3d6000fd5b505050506040513d601f19601f820116820180604052508101906107189190613bf2565b60065490915061073f9073ffffffffffffffffffffffffffffffffffffffff168783613231565b6040517fb6b55f250000000000000000000000000000000000000000000000000000000081526004810182905273ffffffffffffffffffffffffffffffffffffffff87169063b6b55f2590602401600060405180830381600087803b1580156107a757600080fd5b505af11580156107bb573d6000803e3d6000fd5b50505050505050505050505050505050565b6040517f6b8807180000000000000000000000000000000000000000000000000000000081523060048201526000908190737ecFCbdeb6f195030B9Bf2ECc402f6d5433d116D90636b8807189060240160206040518083038186803b15801561083557600080fd5b505af4158015610849573d6000803e3d6000fd5b505050506040513d601f19601f8201168201806040525081019061086d91906139af565b905073ffffffffffffffffffffffffffffffffffffffff81163014156108ab57505060005473ffffffffffffffffffffffffffffffffffffffff1690565b8073ffffffffffffffffffffffffffffffffffffffff1663370158ea6040518163ffffffff1660e01b815260040160206040518083038186803b1580156108f157600080fd5b505afa158015610905573d6000803e3d6000fd5b505050506040513d601f19601f8201168201806040525081019061092991906139af565b91505090565b6040517f6b880718000000000000000000000000000000000000000000000000000000008152306004820181905290737ecFCbdeb6f195030B9Bf2ECc402f6d5433d116D90636b8807189060240160206040518083038186803b15801561099557600080fd5b505af41580156109a9573d6000803e3d6000fd5b505050506040513d601f19601f820116820180604052508101906109cd91906139af565b73ffffffffffffffffffffffffffffffffffffffff161415610b875760006109f36107cd565b6040517f21f8a7210000000000000000000000000000000000000000000000000000000081527f689d13d8ed8ef1027633ba26e7121121cf427434450a529548f19bf175974395600482015273ffffffffffffffffffffffffffffffffffffffff91909116906321f8a7219060240160206040518083038186803b158015610a7a57600080fd5b505afa158015610a8e573d6000803e3d6000fd5b505050506040513d601f19601f82011682018060405250810190610ab291906139af565b60015490915073ffffffffffffffffffffffffffffffffffffffff16331480610af057503373ffffffffffffffffffffffffffffffffffffffff8216145b610b81576040517f08c379a000000000000000000000000000000000000000000000000000000000815260206004820152602260248201527f4175746f6d6174653a2063616c6c6572206973206e6f7420746865207061757360448201527f657200000000000000000000000000000000000000000000000000000000000060648201526084015b60405180910390fd5b50610c2e565b60015473ffffffffffffffffffffffffffffffffffffffff163314610c2e576040517f08c379a000000000000000000000000000000000000000000000000000000000815260206004820152602260248201527f4175746f6d6174653a2063616c6c6572206973206e6f7420746865207061757360448201527f65720000000000000000000000000000000000000000000000000000000000006064820152608401610b78565b610c36611320565b610c9c576040517f08c379a000000000000000000000000000000000000000000000000000000000815260206004820152601460248201527f4175746f6d6174653a206e6f74207061757365640000000000000000000000006044820152606401610b78565b600180547fffffffffffffffffffffff00ffffffffffffffffffffffffffffffffffffffff169055565b60015473ffffffffffffffffffffffffffffffffffffffff163314610d6d576040517f08c379a000000000000000000000000000000000000000000000000000000000815260206004820152602160248201527f4175746f6d6174653a2063616c6c6572206973206e6f7420746865206f776e6560448201527f72000000000000000000000000000000000000000000000000000000000000006064820152608401610b78565b6000610d8e60015473ffffffffffffffffffffffffffffffffffffffff1690565b6003546040517f70a08231000000000000000000000000000000000000000000000000000000008152306004820152919250610100900473ffffffffffffffffffffffffffffffffffffffff169060009082906370a082319060240160206040518083038186803b158015610e0257600080fd5b505afa158015610e16573d6000803e3d6000fd5b505050506040513d601f19601f82011682018060405250810190610e3a9190613bf2565b90508015610ec3576040517f2e1a7d4d0000000000000000000000000000000000000000000000000000000081526004810182905273ffffffffffffffffffffffffffffffffffffffff831690632e1a7d4d90602401600060405180830381600087803b158015610eaa57600080fd5b505af1158015610ebe573d6000803e3d6000fd5b505050505b6006546040517f70a0823100000000000000000000000000000000000000000000000000000000815230600482015260009173ffffffffffffffffffffffffffffffffffffffff16906370a082319060240160206040518083038186803b158015610f2d57600080fd5b505afa158015610f41573d6000803e3d6000fd5b505050506040513d601f19601f82011682018060405250810190610f659190613bf2565b9050801561101b576006546040517fa9059cbb00000000000000000000000000000000000000000000000000000000815273ffffffffffffffffffffffffffffffffffffffff8681166004830152602482018490529091169063a9059cbb90604401602060405180830381600087803b158015610fe157600080fd5b505af1158015610ff5573d6000803e3d6000fd5b505050506040513d601f19601f820116820180604052508101906110199190613bb7565b505b6000600360019054906101000a900473ffffffffffffffffffffffffffffffffffffffff1673ffffffffffffffffffffffffffffffffffffffff1663075461726040518163ffffffff1660e01b815260040160206040518083038186803b15801561108557600080fd5b505afa158015611099573d6000803e3d6000fd5b505050506040513d601f19601f820116820180604052508101906110bd91906139af565b6040517f6a62784200000000000000000000000000000000000000000000000000000000815273ffffffffffffffffffffffffffffffffffffffff868116600483015291925090821690636a62784290602401600060405180830381600087803b15801561112a57600080fd5b505af115801561113e573d6000803e3d6000fd5b5050505060008473ffffffffffffffffffffffffffffffffffffffff166376d8b1176040518163ffffffff1660e01b815260040160206040518083038186803b15801561118a57600080fd5b505afa15801561119e573d6000803e3d6000fd5b505050506040513d601f19601f820116820180604052508101906111c291906139af565b6040517f70a0823100000000000000000000000000000000000000000000000000000000815230600482015290915060009073ffffffffffffffffffffffffffffffffffffffff8316906370a082319060240160206040518083038186803b15801561122d57600080fd5b505afa158015611241573d6000803e3d6000fd5b505050506040513d601f19601f820116820180604052508101906112659190613bf2565b90508015611317576040517fa9059cbb00000000000000000000000000000000000000000000000000000000815273ffffffffffffffffffffffffffffffffffffffff88811660048301526024820183905283169063a9059cbb90604401602060405180830381600087803b1580156112dd57600080fd5b505af11580156112f1573d6000803e3d6000fd5b505050506040513d601f19601f820116820180604052508101906113159190613bb7565b505b50505050505050565b6040517f6b8807180000000000000000000000000000000000000000000000000000000081523060048201526000908190737ecFCbdeb6f195030B9Bf2ECc402f6d5433d116D90636b8807189060240160206040518083038186803b15801561138857600080fd5b505af415801561139c573d6000803e3d6000fd5b505050506040513d601f19601f820116820180604052508101906113c091906139af565b905073ffffffffffffffffffffffffffffffffffffffff811630141561140357505060015474010000000000000000000000000000000000000000900460ff1690565b60015474010000000000000000000000000000000000000000900460ff168061092957508073ffffffffffffffffffffffffffffffffffffffff16635c975abb6040518163ffffffff1660e01b815260040160206040518083038186803b15801561146d57600080fd5b505afa158015611481573d6000803e3d6000fd5b505050506040513d601f19601f820116820180604052508101906109299190613bb7565b60015473ffffffffffffffffffffffffffffffffffffffff1661151557600180547fffffffffffffffffffffffff000000000000000000000000000000000000000016321790557fffffffffffffffffffffffffffffffffffffffffffffffffffffffffffffffff6002556115bc565b60015473ffffffffffffffffffffffffffffffffffffffff1633146115bc576040517f08c379a000000000000000000000000000000000000000000000000000000000815260206004820152602160248201527f4175746f6d6174653a2063616c6c6572206973206e6f7420746865206f776e6560448201527f72000000000000000000000000000000000000000000000000000000000000006064820152608401610b78565b60035460ff1615806115ed575060035473ffffffffffffffffffffffffffffffffffffffff86811661010090920416145b61169f576040517f08c379a000000000000000000000000000000000000000000000000000000000815260206004820152604160248201527f4761756765556e697377617052657374616b653a3a696e69743a207265696e6960448201527f7469616c697a65207374616b696e67206164647265737320666f72626964646560648201527f6e00000000000000000000000000000000000000000000000000000000000000608482015260a401610b78565b6003805473ffffffffffffffffffffffffffffffffffffffff8716610100027fffffffffffffffffffffff0000000000000000000000000000000000000000ff8216811790925560ff9182169116171580611714575060045473ffffffffffffffffffffffffffffffffffffffff8581169116145b6117c6576040517f08c379a000000000000000000000000000000000000000000000000000000000815260206004820152604a60248201527f4761756765556e697377617052657374616b653a3a696e69743a207265696e6960448201527f7469616c697a65206c697175696469747920726f75746572206164647265737360648201527f20666f7262696464656e00000000000000000000000000000000000000000000608482015260a401610b78565b6004805473ffffffffffffffffffffffffffffffffffffffff8087167fffffffffffffffffffffffff0000000000000000000000000000000000000000909216919091179091556005805461ffff848116760100000000000000000000000000000000000000000000027fffffffffffffffff0000ffffffffffffffffffffffffffffffffffffffffffff91871674010000000000000000000000000000000000000000027fffffffffffffffffffff0000000000000000000000000000000000000000000090931694881694909417919091171691909117905560035460ff16611d2f5760006118b5613850565b9050600360019054906101000a900473ffffffffffffffffffffffffffffffffffffffff1673ffffffffffffffffffffffffffffffffffffffff166382c630666040518163ffffffff1660e01b815260040160206040518083038186803b15801561191f57600080fd5b505afa158015611933573d6000803e3d6000fd5b505050506040513d601f19601f8201168201806040525081019061195791906139af565b600680547fffffffffffffffffffffffff00000000000000000000000000000000000000001673ffffffffffffffffffffffffffffffffffffffff9283169081179091556040517fbdf475c300000000000000000000000000000000000000000000000000000000815260048101919091529082169063bdf475c39060240160206040518083038186803b1580156119ee57600080fd5b505afa158015611a02573d6000803e3d6000fd5b505050506040513d601f19601f82011682018060405250810190611a2691906139af565b600780547fffffffffffffffffffffffff00000000000000000000000000000000000000001673ffffffffffffffffffffffffffffffffffffffff9283169081179091556040517f9ac90d3d0000000000000000000000000000000000000000000000000000000081526004810191909152600091831690639ac90d3d906024016101006040518083038186803b158015611ac057600080fd5b505afa158015611ad4573d6000803e3d6000fd5b505050506040513d601f19601f82011682018060405250810190611af89190613a78565b6007546040517f940494f100000000000000000000000000000000000000000000000000000000815273ffffffffffffffffffffffffffffffffffffffff91821660048201529192506000919084169063940494f19060240160206040518083038186803b158015611b6957600080fd5b505afa158015611b7d573d6000803e3d6000fd5b505050506040513d601f19601f82011682018060405250810190611ba19190613bf2565b90505b60075474010000000000000000000000000000000000000000900460ff168110611d2b5760075474010000000000000000000000000000000000000000900460ff168111611c74576040517f08c379a000000000000000000000000000000000000000000000000000000000815260206004820152603560248201527f4761756765556e697377617052657374616b653a3a696e69743a20696e76616c60448201527f6964207377617020746f6b656e206164647265737300000000000000000000006064820152608401610b78565b60075473ffffffffffffffffffffffffffffffffffffffff871690839074010000000000000000000000000000000000000000900460ff1660088110611cbc57611cbc613f77565b602002015173ffffffffffffffffffffffffffffffffffffffff161415611ce257611d2b565b6007805474010000000000000000000000000000000000000000900460ff16906014611d0d83613f28565b91906101000a81548160ff021916908360ff16021790555050611ba4565b5050505b5050600380547fffffffffffffffffffffffffffffffffffffffffffffffffffffffffffffff00166001179055505050565b60075460009073ffffffffffffffffffffffffffffffffffffffff1681611d86613850565b6040517f940494f100000000000000000000000000000000000000000000000000000000815273ffffffffffffffffffffffffffffffffffffffff84811660048301529192509082169063940494f19060240160206040518083038186803b158015611df157600080fd5b505afa158015611e05573d6000803e3d6000fd5b505050506040513d601f19601f82011682018060405250810190611e299190613bf2565b60031415611f1e57611e3961391e565b6007548590829074010000000000000000000000000000000000000000900460ff1660038110611e6b57611e6b613f77565b60200201526040517f3883e11900000000000000000000000000000000000000000000000000000000815273ffffffffffffffffffffffffffffffffffffffff841690633883e11990611ec5908490600190600401613d9e565b60206040518083038186803b158015611edd57600080fd5b505afa158015611ef1573d6000803e3d6000fd5b505050506040513d601f19601f82011682018060405250810190611f159190613bf2565b95945050505050565b611f2661393c565b6007548590829074010000000000000000000000000000000000000000900460ff1660028110611f5857611f58613f77565b60200201526040517fed8e84f300000000000000000000000000000000000000000000000000000000815273ffffffffffffffffffffffffffffffffffffffff84169063ed8e84f390611ec5908490600190600401613d66565b6040517f6b880718000000000000000000000000000000000000000000000000000000008152306004820181905290737ecFCbdeb6f195030B9Bf2ECc402f6d5433d116D90636b8807189060240160206040518083038186803b15801561201857600080fd5b505af415801561202c573d6000803e3d6000fd5b505050506040513d601f19601f8201168201806040525081019061205091906139af565b73ffffffffffffffffffffffffffffffffffffffff1614156122055760006120766107cd565b6040517f21f8a7210000000000000000000000000000000000000000000000000000000081527f689d13d8ed8ef1027633ba26e7121121cf427434450a529548f19bf175974395600482015273ffffffffffffffffffffffffffffffffffffffff91909116906321f8a7219060240160206040518083038186803b1580156120fd57600080fd5b505afa158015612111573d6000803e3d6000fd5b505050506040513d601f19601f8201168201806040525081019061213591906139af565b60015490915073ffffffffffffffffffffffffffffffffffffffff1633148061217357503373ffffffffffffffffffffffffffffffffffffffff8216145b6121ff576040517f08c379a000000000000000000000000000000000000000000000000000000000815260206004820152602260248201527f4175746f6d6174653a2063616c6c6572206973206e6f7420746865207061757360448201527f65720000000000000000000000000000000000000000000000000000000000006064820152608401610b78565b506122ac565b60015473ffffffffffffffffffffffffffffffffffffffff1633146122ac576040517f08c379a000000000000000000000000000000000000000000000000000000000815260206004820152602260248201527f4175746f6d6174653a2063616c6c6572206973206e6f7420746865207061757360448201527f65720000000000000000000000000000000000000000000000000000000000006064820152608401610b78565b6122b4611320565b1561231b576040517f08c379a000000000000000000000000000000000000000000000000000000000815260206004820152601060248201527f4175746f6d6174653a20706175736564000000000000000000000000000000006044820152606401610b78565b600180547fffffffffffffffffffffff00ffffffffffffffffffffffffffffffffffffffff1674010000000000000000000000000000000000000000179055565b6040517f6b880718000000000000000000000000000000000000000000000000000000008152306004820152600090737ecFCbdeb6f195030B9Bf2ECc402f6d5433d116D90636b8807189060240160206040518083038186803b1580156123c257600080fd5b505af41580156123d6573d6000803e3d6000fd5b505050506040513d601f19601f820116820180604052508101906123fa91906139af565b90503373ffffffffffffffffffffffffffffffffffffffff8216301461249d578173ffffffffffffffffffffffffffffffffffffffff16638da5cb5b6040518163ffffffff1660e01b815260040160206040518083038186803b15801561246057600080fd5b505afa158015612474573d6000803e3d6000fd5b505050506040513d601f19601f8201168201806040525081019061249891906139af565b6124b7565b60015473ffffffffffffffffffffffffffffffffffffffff165b73ffffffffffffffffffffffffffffffffffffffff161461255a576040517f08c379a000000000000000000000000000000000000000000000000000000000815260206004820152603d60248201527f4175746f6d6174653a3a6368616e676550726f746f636f6c4665653a2063616c60448201527f6c6572206973206e6f74207468652070726f746f636f6c206f776e65720000006064820152608401610b78565b60028290556040518281527f3c1d43943224e49d951ce8295a5c8332b517083b3f89bed50feae2cb39caebb59060200160405180910390a15050565b6040517f6b8807180000000000000000000000000000000000000000000000000000000081523060048201526000908190737ecFCbdeb6f195030B9Bf2ECc402f6d5433d116D90636b8807189060240160206040518083038186803b1580156125fe57600080fd5b505af4158015612612573d6000803e3d6000fd5b505050506040513d601f19601f8201168201806040525081019061263691906139af565b905073ffffffffffffffffffffffffffffffffffffffff8116301480159061266057506000600254125b156126e3578073ffffffffffffffffffffffffffffffffffffffff1663b0e21e8a6040518163ffffffff1660e01b815260040160206040518083038186803b1580156126ab57600080fd5b505afa1580156126bf573d6000803e3d6000fd5b505050506040513d601f19601f820116820180604052508101906109299190613bf2565b60006126ed6107cd565b905060008060025412612702576002546127bf565b6040517fbd02d0f50000000000000000000000000000000000000000000000000000000081527fa93d95f96a5de25d7a41ddf1f5e8d45cfc929c4838163cf011dab4043a4a40d5600482015273ffffffffffffffffffffffffffffffffffffffff83169063bd02d0f59060240160206040518083038186803b15801561278757600080fd5b505afa15801561279b573d6000803e3d6000fd5b505050506040513d601f19601f820116820180604052508101906127bf9190613bf2565b9050806127d0576000935050505090565b6040517f21f8a7210000000000000000000000000000000000000000000000000000000081527f65c90423fe7c880476633a7e36521740f87199d233dc56eb4ca6643eb76f605f600482015260009073ffffffffffffffffffffffffffffffffffffffff8416906321f8a7219060240160206040518083038186803b15801561285857600080fd5b505afa15801561286c573d6000803e3d6000fd5b505050506040513d601f19601f8201168201806040525081019061289091906139af565b73ffffffffffffffffffffffffffffffffffffffff1663feaf968c6040518163ffffffff1660e01b815260040160a06040518083038186803b1580156128d557600080fd5b505afa1580156128e9573d6000803e3d6000fd5b505050506040513d601f19601f8201168201806040525081019061290d9190613c3d565b5050509150506000811361297d576040517f08c379a000000000000000000000000000000000000000000000000000000000815260206004820152601760248201527f4175746f6d6174653a20696e76616c69642070726963650000000000000000006044820152606401610b78565b8061299083670de0b6b3a7640000613eeb565b61299a9190613eb0565b94505050505090565b60015473ffffffffffffffffffffffffffffffffffffffff163314612a4a576040517f08c379a000000000000000000000000000000000000000000000000000000000815260206004820152602160248201527f4175746f6d6174653a2063616c6c6572206973206e6f7420746865206f776e6560448201527f72000000000000000000000000000000000000000000000000000000000000006064820152608401610b78565b6040517fa9059cbb00000000000000000000000000000000000000000000000000000000815273ffffffffffffffffffffffffffffffffffffffff83811660048301526024820183905284169063a9059cbb90604401602060405180830381600087803b158015612aba57600080fd5b505af1158015612ace573d6000803e3d6000fd5b505050506040513d601f19601f82011682018060405250810190612af29190613bb7565b50505050565b60015473ffffffffffffffffffffffffffffffffffffffff163314612b9f576040517f08c379a000000000000000000000000000000000000000000000000000000000815260206004820152602160248201527f4175746f6d6174653a2063616c6c6572206973206e6f7420746865206f776e6560448201527f72000000000000000000000000000000000000000000000000000000000000006064820152608401610b78565b6006546040517f70a0823100000000000000000000000000000000000000000000000000000000815230600482015273ffffffffffffffffffffffffffffffffffffffff9091169060009082906370a082319060240160206040518083038186803b158015612c0d57600080fd5b505afa158015612c21573d6000803e3d6000fd5b505050506040513d601f19601f82011682018060405250810190612c459190613bf2565b600354909150612c749073ffffffffffffffffffffffffffffffffffffffff8481169161010090041683613231565b6003546040517fb6b55f250000000000000000000000000000000000000000000000000000000081526004810183905261010090910473ffffffffffffffffffffffffffffffffffffffff169063b6b55f2590602401600060405180830381600087803b158015612ce457600080fd5b505af1158015612cf8573d6000803e3d6000fd5b505050505050565b60015473ffffffffffffffffffffffffffffffffffffffff163314612da7576040517f08c379a000000000000000000000000000000000000000000000000000000000815260206004820152602160248201527f4175746f6d6174653a2063616c6c6572206973206e6f7420746865206f776e6560448201527f72000000000000000000000000000000000000000000000000000000000000006064820152608401610b78565b6040517f6b880718000000000000000000000000000000000000000000000000000000008152306004820181905290737ecFCbdeb6f195030B9Bf2ECc402f6d5433d116D90636b8807189060240160206040518083038186803b158015612e0d57600080fd5b505af4158015612e21573d6000803e3d6000fd5b505050506040513d601f19601f82011682018060405250810190612e4591906139af565b73ffffffffffffffffffffffffffffffffffffffff1614612ee8576040517f08c379a000000000000000000000000000000000000000000000000000000000815260206004820152602160248201527f4175746f6d6174653a206368616e676520746865206f776e6572206661696c6560448201527f64000000000000000000000000000000000000000000000000000000000000006064820152608401610b78565b6001805473ffffffffffffffffffffffffffffffffffffffff8381167fffffffffffffffffffffffff0000000000000000000000000000000000000000831681179093556040519116919082907f8be0079c531659141344cd1fd0a4f28419497f9722a3daafe3b4186f6b6457e090600090a35050565b6000612f69611320565b15612fd0576040517f08c379a000000000000000000000000000000000000000000000000000000000815260206004820152601060248201527f4175746f6d6174653a20706175736564000000000000000000000000000000006044820152606401610b78565b6000612ff160015473ffffffffffffffffffffffffffffffffffffffff1690565b90503273ffffffffffffffffffffffffffffffffffffffff8216141561301b57600091505061322b565b60006130256107cd565b6040517f21f8a7210000000000000000000000000000000000000000000000000000000081527fe78c16c6d839536d3155985aab4e9c6013c8c3d446054bcebc48612f359d81f5600482015290915060009073ffffffffffffffffffffffffffffffffffffffff8316906321f8a7219060240160206040518083038186803b1580156130b057600080fd5b505afa1580156130c4573d6000803e3d6000fd5b505050506040513d601f19601f820116820180604052508101906130e891906139af565b905073ffffffffffffffffffffffffffffffffffffffff811661318d576040517f08c379a000000000000000000000000000000000000000000000000000000000815260206004820152602b60248201527f4175746f6d6174653a3a5f62696c6c3a2062616c616e636520636f6e7472616360448201527f74206e6f7420666f756e640000000000000000000000000000000000000000006064820152608401610b78565b8073ffffffffffffffffffffffffffffffffffffffff1663e578a22584886131b3612596565b896040518563ffffffff1660e01b81526004016131d39493929190613cc7565b602060405180830381600087803b1580156131ed57600080fd5b505af1158015613201573d6000803e3d6000fd5b505050506040513d601f19601f820116820180604052508101906132259190613bf2565b93505050505b92915050565b6040517fdd62ed3e00000000000000000000000000000000000000000000000000000000815230600482015273ffffffffffffffffffffffffffffffffffffffff83811660248301526000919085169063dd62ed3e9060440160206040518083038186803b1580156132a257600080fd5b505afa1580156132b6573d6000803e3d6000fd5b505050506040513d601f19601f820116820180604052508101906132da9190613bf2565b905080158015906132ea57508181105b15613399576040517f095ea7b300000000000000000000000000000000000000000000000000000000815273ffffffffffffffffffffffffffffffffffffffff84811660048301526000602483015285169063095ea7b390604401602060405180830381600087803b15801561335f57600080fd5b505af1158015613373573d6000803e3d6000fd5b505050506040513d601f19601f820116820180604052508101906133979190613bb7565b505b818114612af2576040517f095ea7b300000000000000000000000000000000000000000000000000000000815273ffffffffffffffffffffffffffffffffffffffff84811660048301526024820184905285169063095ea7b390604401602060405180830381600087803b15801561341057600080fd5b505af1158015613424573d6000803e3d6000fd5b505050506040513d601f19601f820116820180604052508101906134489190613bb7565b5050505050565b604080516002808252606082018352600092839291906020830190803683375050875182519293509183915060009061348a5761348a613f77565b73ffffffffffffffffffffffffffffffffffffffff929092166020928302919091018201528601518151829060019081106134c7576134c7613f77565b73ffffffffffffffffffffffffffffffffffffffff9283166020918202929092010152600480546040517f38ed17390000000000000000000000000000000000000000000000000000000081529216916338ed1739916135319189918991879130918b9101613dd6565b600060405180830381600087803b15801561354b57600080fd5b505af115801561355f573d6000803e3d6000fd5b505050506040513d6000823e601f3d9081017fffffffffffffffffffffffffffffffffffffffffffffffffffffffffffffffe01682016040526135a59190810190613b0a565b6001815181106135b7576135b7613f77565b6020026020010151915050949350505050565b60006135d4613850565b6040517f940494f100000000000000000000000000000000000000000000000000000000815273ffffffffffffffffffffffffffffffffffffffff86811660048301529192509082169063940494f19060240160206040518083038186803b15801561363f57600080fd5b505afa158015613653573d6000803e3d6000fd5b505050506040513d601f19601f820116820180604052508101906136779190613bf2565b6003141561376b5761368761391e565b6007548490829074010000000000000000000000000000000000000000900460ff16600381106136b9576136b9613f77565b60200201526040517f4515cef300000000000000000000000000000000000000000000000000000000815273ffffffffffffffffffffffffffffffffffffffff861690634515cef3906137129084908790600401613dbb565b602060405180830381600087803b15801561372c57600080fd5b505af1158015613740573d6000803e3d6000fd5b505050506040513d601f19601f820116820180604052508101906137649190613bf2565b5050612af2565b61377361393c565b6007548490829074010000000000000000000000000000000000000000900460ff16600281106137a5576137a5613f77565b60200201526040517f0b4c7e4d00000000000000000000000000000000000000000000000000000000815273ffffffffffffffffffffffffffffffffffffffff861690630b4c7e4d906137fe9084908790600401613d83565b602060405180830381600087803b15801561381857600080fd5b505af115801561382c573d6000803e3d6000fd5b505050506040513d601f19601f82011682018060405250810190612cf89190613bf2565b600061385a6107cd565b6040517f21f8a7210000000000000000000000000000000000000000000000000000000081527fe3afe40301d08e5458680c2ac903d4fddf0931e5e1a5c6d9e21328d89e8d8e7c600482015273ffffffffffffffffffffffffffffffffffffffff91909116906321f8a7219060240160206040518083038186803b1580156138e157600080fd5b505afa1580156138f5573d6000803e3d6000fd5b505050506040513d601f19601f8201168201806040525081019061391991906139af565b905090565b60405180606001604052806003906020820280368337509192915050565b60405180604001604052806002906020820280368337509192915050565b803561ffff8116811461396c57600080fd5b919050565b805169ffffffffffffffffffff8116811461396c57600080fd5b60006020828403121561399d57600080fd5b81356139a881613fd5565b9392505050565b6000602082840312156139c157600080fd5b81516139a881613fd5565b600080600080600060a086880312156139e457600080fd5b85356139ef81613fd5565b945060208601356139ff81613fd5565b93506040860135613a0f81613fd5565b9250613a1d6060870161395a565b9150613a2b6080870161395a565b90509295509295909350565b600080600060608486031215613a4c57600080fd5b8335613a5781613fd5565b92506020840135613a6781613fd5565b929592945050506040919091013590565b6000610100808385031215613a8c57600080fd5b83601f840112613a9b57600080fd5b60405181810181811067ffffffffffffffff82111715613abd57613abd613fa6565b6040528084838101871015613ad157600080fd5b600093505b6008841015613aff578051613aea81613fd5565b82526001939093019260209182019101613ad6565b509095945050505050565b60006020808385031215613b1d57600080fd5b825167ffffffffffffffff80821115613b3557600080fd5b818501915085601f830112613b4957600080fd5b815181811115613b5b57613b5b613fa6565b8060051b9150613b6c848301613e61565b8181528481019084860184860187018a1015613b8757600080fd5b600095505b83861015613baa578051835260019590950194918601918601613b8c565b5098975050505050505050565b600060208284031215613bc957600080fd5b815180151581146139a857600080fd5b600060208284031215613beb57600080fd5b5035919050565b600060208284031215613c0457600080fd5b5051919050565b60008060008060808587031215613c2157600080fd5b5050823594602084013594506040840135936060013592509050565b600080600080600060a08688031215613c5557600080fd5b613c5e86613971565b9450602086015193506040860151925060608601519150613a2b60808701613971565b8060005b6002811015612af2578151845260209384019390910190600101613c85565b8060005b6003811015612af2578151845260209384019390910190600101613ca8565b73ffffffffffffffffffffffffffffffffffffffff8516815260006020858184015284604084015260806060840152835180608085015260005b81811015613d1d5785810183015185820160a001528201613d01565b81811115613d2f57600060a083870101525b50601f017fffffffffffffffffffffffffffffffffffffffffffffffffffffffffffffffe0169290920160a0019695505050505050565b60608101613d748285613c81565b82151560408301529392505050565b60608101613d918285613c81565b8260408301529392505050565b60808101613dac8285613ca4565b82151560608301529392505050565b60808101613dc98285613ca4565b8260608301529392505050565b600060a082018783526020878185015260a0604085015281875180845260c086019150828901935060005b81811015613e3357845173ffffffffffffffffffffffffffffffffffffffff1683529383019391830191600101613e01565b505073ffffffffffffffffffffffffffffffffffffffff969096166060850152505050608001529392505050565b604051601f82017fffffffffffffffffffffffffffffffffffffffffffffffffffffffffffffffe016810167ffffffffffffffff81118282101715613ea857613ea8613fa6565b604052919050565b600082613ee6577f4e487b7100000000000000000000000000000000000000000000000000000000600052601260045260246000fd5b500490565b6000817fffffffffffffffffffffffffffffffffffffffffffffffffffffffffffffffff0483118215151615613f2357613f23613f48565b500290565b600060ff821660ff811415613f3f57613f3f613f48565b60010192915050565b7f4e487b7100000000000000000000000000000000000000000000000000000000600052601160045260246000fd5b7f4e487b7100000000000000000000000000000000000000000000000000000000600052603260045260246000fd5b7f4e487b7100000000000000000000000000000000000000000000000000000000600052604160045260246000fd5b73ffffffffffffffffffffffffffffffffffffffff81168114613ff757600080fd5b5056fea164736f6c6343000806000a",
  "deployedBytecode": "0x608060405234801561001057600080fd5b50600436106101515760003560e01c806360d20ccc116100cd578063b0e21e8a11610081578063d0e30db011610066578063d0e30db0146102f3578063dc73e49c146102fb578063f2fde38b1461031b57600080fd5b8063b0e21e8a146102d8578063beabacc8146102e057600080fd5b80638456cb59116100b25780638456cb591461029f5780638da5cb5b146102a75780639742b5c3146102c557600080fd5b806360d20ccc1461026b5780637b7902dd1461027e57600080fd5b80633e032a3b116101245780634cf088d9116101095780634cf088d914610226578063590e1ae31461024b5780635c975abb1461025357600080fd5b80633e032a3b146101f85780633f4ba83a1461021e57600080fd5b806315509d2b14610156578063247029441461016b57806329dcb0cf146101b5578063370158ea146101f0575b600080fd5b610169610164366004613c0b565b61032e565b005b60045461018b9073ffffffffffffffffffffffffffffffffffffffff1681565b60405173ffffffffffffffffffffffffffffffffffffffff90911681526020015b60405180910390f35b6005546101dd90760100000000000000000000000000000000000000000000900461ffff1681565b60405161ffff90911681526020016101ac565b61018b6107cd565b6005546101dd9074010000000000000000000000000000000000000000900461ffff1681565b61016961092f565b60035461018b90610100900473ffffffffffffffffffffffffffffffffffffffff1681565b610169610cc6565b61025b611320565b60405190151581526020016101ac565b6101696102793660046139cc565b6114a5565b61029161028c366004613bd9565b611d61565b6040519081526020016101ac565b610169611fb2565b60015473ffffffffffffffffffffffffffffffffffffffff1661018b565b6101696102d3366004613bd9565b61235c565b610291612596565b6101696102ee366004613a37565b6129a3565b610169612af8565b60055461018b9073ffffffffffffffffffffffffffffffffffffffff1681565b61016961032936600461398b565b612d00565b836040518060400160405280601881526020017f43757276654761756765556e697377617052657374616b65000000000000000081525061036f8282612f5f565b506000600360019054906101000a900473ffffffffffffffffffffffffffffffffffffffff16905060008173ffffffffffffffffffffffffffffffffffffffff1663075461726040518163ffffffff1660e01b815260040160206040518083038186803b1580156103df57600080fd5b505afa1580156103f3573d6000803e3d6000fd5b505050506040513d601f19601f8201168201806040525081019061041791906139af565b6040517f6a62784200000000000000000000000000000000000000000000000000000000815273ffffffffffffffffffffffffffffffffffffffff848116600483015291925090821690636a62784290602401600060405180830381600087803b15801561048457600080fd5b505af1158015610498573d6000803e3d6000fd5b5050505060008273ffffffffffffffffffffffffffffffffffffffff166376d8b1176040518163ffffffff1660e01b815260040160206040518083038186803b1580156104e457600080fd5b505afa1580156104f8573d6000803e3d6000fd5b505050506040513d601f19601f8201168201806040525081019061051c91906139af565b6040517f70a0823100000000000000000000000000000000000000000000000000000000815230600482015290915060009073ffffffffffffffffffffffffffffffffffffffff8316906370a082319060240160206040518083038186803b15801561058757600080fd5b505afa15801561059b573d6000803e3d6000fd5b505050506040513d601f19601f820116820180604052508101906105bf9190613bf2565b6004549091506105e99073ffffffffffffffffffffffffffffffffffffffff848116911683613231565b6040805180820190915273ffffffffffffffffffffffffffffffffffffffff808416825260055416602082015260009061062590838b8d61344f565b6007546005549192506106529173ffffffffffffffffffffffffffffffffffffffff908116911683613231565b6007546106769073ffffffffffffffffffffffffffffffffffffffff16828a6135ca565b6006546040517f70a0823100000000000000000000000000000000000000000000000000000000815230600482015260009173ffffffffffffffffffffffffffffffffffffffff16906370a082319060240160206040518083038186803b1580156106e057600080fd5b505afa1580156106f4573d6000803e3d6000fd5b505050506040513d601f19601f820116820180604052508101906107189190613bf2565b60065490915061073f9073ffffffffffffffffffffffffffffffffffffffff168783613231565b6040517fb6b55f250000000000000000000000000000000000000000000000000000000081526004810182905273ffffffffffffffffffffffffffffffffffffffff87169063b6b55f2590602401600060405180830381600087803b1580156107a757600080fd5b505af11580156107bb573d6000803e3d6000fd5b50505050505050505050505050505050565b6040517f6b880718000000000000000000000000000000000000000000000000000000008152306004820152600090819073__$0fb85c1a108326fe5c0d8f2f5a241bc0e7$__90636b8807189060240160206040518083038186803b15801561083557600080fd5b505af4158015610849573d6000803e3d6000fd5b505050506040513d601f19601f8201168201806040525081019061086d91906139af565b905073ffffffffffffffffffffffffffffffffffffffff81163014156108ab57505060005473ffffffffffffffffffffffffffffffffffffffff1690565b8073ffffffffffffffffffffffffffffffffffffffff1663370158ea6040518163ffffffff1660e01b815260040160206040518083038186803b1580156108f157600080fd5b505afa158015610905573d6000803e3d6000fd5b505050506040513d601f19601f8201168201806040525081019061092991906139af565b91505090565b6040517f6b88071800000000000000000000000000000000000000000000000000000000815230600482018190529073__$0fb85c1a108326fe5c0d8f2f5a241bc0e7$__90636b8807189060240160206040518083038186803b15801561099557600080fd5b505af41580156109a9573d6000803e3d6000fd5b505050506040513d601f19601f820116820180604052508101906109cd91906139af565b73ffffffffffffffffffffffffffffffffffffffff161415610b875760006109f36107cd565b6040517f21f8a7210000000000000000000000000000000000000000000000000000000081527f689d13d8ed8ef1027633ba26e7121121cf427434450a529548f19bf175974395600482015273ffffffffffffffffffffffffffffffffffffffff91909116906321f8a7219060240160206040518083038186803b158015610a7a57600080fd5b505afa158015610a8e573d6000803e3d6000fd5b505050506040513d601f19601f82011682018060405250810190610ab291906139af565b60015490915073ffffffffffffffffffffffffffffffffffffffff16331480610af057503373ffffffffffffffffffffffffffffffffffffffff8216145b610b81576040517f08c379a000000000000000000000000000000000000000000000000000000000815260206004820152602260248201527f4175746f6d6174653a2063616c6c6572206973206e6f7420746865207061757360448201527f657200000000000000000000000000000000000000000000000000000000000060648201526084015b60405180910390fd5b50610c2e565b60015473ffffffffffffffffffffffffffffffffffffffff163314610c2e576040517f08c379a000000000000000000000000000000000000000000000000000000000815260206004820152602260248201527f4175746f6d6174653a2063616c6c6572206973206e6f7420746865207061757360448201527f65720000000000000000000000000000000000000000000000000000000000006064820152608401610b78565b610c36611320565b610c9c576040517f08c379a000000000000000000000000000000000000000000000000000000000815260206004820152601460248201527f4175746f6d6174653a206e6f74207061757365640000000000000000000000006044820152606401610b78565b600180547fffffffffffffffffffffff00ffffffffffffffffffffffffffffffffffffffff169055565b60015473ffffffffffffffffffffffffffffffffffffffff163314610d6d576040517f08c379a000000000000000000000000000000000000000000000000000000000815260206004820152602160248201527f4175746f6d6174653a2063616c6c6572206973206e6f7420746865206f776e6560448201527f72000000000000000000000000000000000000000000000000000000000000006064820152608401610b78565b6000610d8e60015473ffffffffffffffffffffffffffffffffffffffff1690565b6003546040517f70a08231000000000000000000000000000000000000000000000000000000008152306004820152919250610100900473ffffffffffffffffffffffffffffffffffffffff169060009082906370a082319060240160206040518083038186803b158015610e0257600080fd5b505afa158015610e16573d6000803e3d6000fd5b505050506040513d601f19601f82011682018060405250810190610e3a9190613bf2565b90508015610ec3576040517f2e1a7d4d0000000000000000000000000000000000000000000000000000000081526004810182905273ffffffffffffffffffffffffffffffffffffffff831690632e1a7d4d90602401600060405180830381600087803b158015610eaa57600080fd5b505af1158015610ebe573d6000803e3d6000fd5b505050505b6006546040517f70a0823100000000000000000000000000000000000000000000000000000000815230600482015260009173ffffffffffffffffffffffffffffffffffffffff16906370a082319060240160206040518083038186803b158015610f2d57600080fd5b505afa158015610f41573d6000803e3d6000fd5b505050506040513d601f19601f82011682018060405250810190610f659190613bf2565b9050801561101b576006546040517fa9059cbb00000000000000000000000000000000000000000000000000000000815273ffffffffffffffffffffffffffffffffffffffff8681166004830152602482018490529091169063a9059cbb90604401602060405180830381600087803b158015610fe157600080fd5b505af1158015610ff5573d6000803e3d6000fd5b505050506040513d601f19601f820116820180604052508101906110199190613bb7565b505b6000600360019054906101000a900473ffffffffffffffffffffffffffffffffffffffff1673ffffffffffffffffffffffffffffffffffffffff1663075461726040518163ffffffff1660e01b815260040160206040518083038186803b15801561108557600080fd5b505afa158015611099573d6000803e3d6000fd5b505050506040513d601f19601f820116820180604052508101906110bd91906139af565b6040517f6a62784200000000000000000000000000000000000000000000000000000000815273ffffffffffffffffffffffffffffffffffffffff868116600483015291925090821690636a62784290602401600060405180830381600087803b15801561112a57600080fd5b505af115801561113e573d6000803e3d6000fd5b5050505060008473ffffffffffffffffffffffffffffffffffffffff166376d8b1176040518163ffffffff1660e01b815260040160206040518083038186803b15801561118a57600080fd5b505afa15801561119e573d6000803e3d6000fd5b505050506040513d601f19601f820116820180604052508101906111c291906139af565b6040517f70a0823100000000000000000000000000000000000000000000000000000000815230600482015290915060009073ffffffffffffffffffffffffffffffffffffffff8316906370a082319060240160206040518083038186803b15801561122d57600080fd5b505afa158015611241573d6000803e3d6000fd5b505050506040513d601f19601f820116820180604052508101906112659190613bf2565b90508015611317576040517fa9059cbb00000000000000000000000000000000000000000000000000000000815273ffffffffffffffffffffffffffffffffffffffff88811660048301526024820183905283169063a9059cbb90604401602060405180830381600087803b1580156112dd57600080fd5b505af11580156112f1573d6000803e3d6000fd5b505050506040513d601f19601f820116820180604052508101906113159190613bb7565b505b50505050505050565b6040517f6b880718000000000000000000000000000000000000000000000000000000008152306004820152600090819073__$0fb85c1a108326fe5c0d8f2f5a241bc0e7$__90636b8807189060240160206040518083038186803b15801561138857600080fd5b505af415801561139c573d6000803e3d6000fd5b505050506040513d601f19601f820116820180604052508101906113c091906139af565b905073ffffffffffffffffffffffffffffffffffffffff811630141561140357505060015474010000000000000000000000000000000000000000900460ff1690565b60015474010000000000000000000000000000000000000000900460ff168061092957508073ffffffffffffffffffffffffffffffffffffffff16635c975abb6040518163ffffffff1660e01b815260040160206040518083038186803b15801561146d57600080fd5b505afa158015611481573d6000803e3d6000fd5b505050506040513d601f19601f820116820180604052508101906109299190613bb7565b60015473ffffffffffffffffffffffffffffffffffffffff1661151557600180547fffffffffffffffffffffffff000000000000000000000000000000000000000016321790557fffffffffffffffffffffffffffffffffffffffffffffffffffffffffffffffff6002556115bc565b60015473ffffffffffffffffffffffffffffffffffffffff1633146115bc576040517f08c379a000000000000000000000000000000000000000000000000000000000815260206004820152602160248201527f4175746f6d6174653a2063616c6c6572206973206e6f7420746865206f776e6560448201527f72000000000000000000000000000000000000000000000000000000000000006064820152608401610b78565b60035460ff1615806115ed575060035473ffffffffffffffffffffffffffffffffffffffff86811661010090920416145b61169f576040517f08c379a000000000000000000000000000000000000000000000000000000000815260206004820152604160248201527f4761756765556e697377617052657374616b653a3a696e69743a207265696e6960448201527f7469616c697a65207374616b696e67206164647265737320666f72626964646560648201527f6e00000000000000000000000000000000000000000000000000000000000000608482015260a401610b78565b6003805473ffffffffffffffffffffffffffffffffffffffff8716610100027fffffffffffffffffffffff0000000000000000000000000000000000000000ff8216811790925560ff9182169116171580611714575060045473ffffffffffffffffffffffffffffffffffffffff8581169116145b6117c6576040517f08c379a000000000000000000000000000000000000000000000000000000000815260206004820152604a60248201527f4761756765556e697377617052657374616b653a3a696e69743a207265696e6960448201527f7469616c697a65206c697175696469747920726f75746572206164647265737360648201527f20666f7262696464656e00000000000000000000000000000000000000000000608482015260a401610b78565b6004805473ffffffffffffffffffffffffffffffffffffffff8087167fffffffffffffffffffffffff0000000000000000000000000000000000000000909216919091179091556005805461ffff848116760100000000000000000000000000000000000000000000027fffffffffffffffff0000ffffffffffffffffffffffffffffffffffffffffffff91871674010000000000000000000000000000000000000000027fffffffffffffffffffff0000000000000000000000000000000000000000000090931694881694909417919091171691909117905560035460ff16611d2f5760006118b5613850565b9050600360019054906101000a900473ffffffffffffffffffffffffffffffffffffffff1673ffffffffffffffffffffffffffffffffffffffff166382c630666040518163ffffffff1660e01b815260040160206040518083038186803b15801561191f57600080fd5b505afa158015611933573d6000803e3d6000fd5b505050506040513d601f19601f8201168201806040525081019061195791906139af565b600680547fffffffffffffffffffffffff00000000000000000000000000000000000000001673ffffffffffffffffffffffffffffffffffffffff9283169081179091556040517fbdf475c300000000000000000000000000000000000000000000000000000000815260048101919091529082169063bdf475c39060240160206040518083038186803b1580156119ee57600080fd5b505afa158015611a02573d6000803e3d6000fd5b505050506040513d601f19601f82011682018060405250810190611a2691906139af565b600780547fffffffffffffffffffffffff00000000000000000000000000000000000000001673ffffffffffffffffffffffffffffffffffffffff9283169081179091556040517f9ac90d3d0000000000000000000000000000000000000000000000000000000081526004810191909152600091831690639ac90d3d906024016101006040518083038186803b158015611ac057600080fd5b505afa158015611ad4573d6000803e3d6000fd5b505050506040513d601f19601f82011682018060405250810190611af89190613a78565b6007546040517f940494f100000000000000000000000000000000000000000000000000000000815273ffffffffffffffffffffffffffffffffffffffff91821660048201529192506000919084169063940494f19060240160206040518083038186803b158015611b6957600080fd5b505afa158015611b7d573d6000803e3d6000fd5b505050506040513d601f19601f82011682018060405250810190611ba19190613bf2565b90505b60075474010000000000000000000000000000000000000000900460ff168110611d2b5760075474010000000000000000000000000000000000000000900460ff168111611c74576040517f08c379a000000000000000000000000000000000000000000000000000000000815260206004820152603560248201527f4761756765556e697377617052657374616b653a3a696e69743a20696e76616c60448201527f6964207377617020746f6b656e206164647265737300000000000000000000006064820152608401610b78565b60075473ffffffffffffffffffffffffffffffffffffffff871690839074010000000000000000000000000000000000000000900460ff1660088110611cbc57611cbc613f77565b602002015173ffffffffffffffffffffffffffffffffffffffff161415611ce257611d2b565b6007805474010000000000000000000000000000000000000000900460ff16906014611d0d83613f28565b91906101000a81548160ff021916908360ff16021790555050611ba4565b5050505b5050600380547fffffffffffffffffffffffffffffffffffffffffffffffffffffffffffffff00166001179055505050565b60075460009073ffffffffffffffffffffffffffffffffffffffff1681611d86613850565b6040517f940494f100000000000000000000000000000000000000000000000000000000815273ffffffffffffffffffffffffffffffffffffffff84811660048301529192509082169063940494f19060240160206040518083038186803b158015611df157600080fd5b505afa158015611e05573d6000803e3d6000fd5b505050506040513d601f19601f82011682018060405250810190611e299190613bf2565b60031415611f1e57611e3961391e565b6007548590829074010000000000000000000000000000000000000000900460ff1660038110611e6b57611e6b613f77565b60200201526040517f3883e11900000000000000000000000000000000000000000000000000000000815273ffffffffffffffffffffffffffffffffffffffff841690633883e11990611ec5908490600190600401613d9e565b60206040518083038186803b158015611edd57600080fd5b505afa158015611ef1573d6000803e3d6000fd5b505050506040513d601f19601f82011682018060405250810190611f159190613bf2565b95945050505050565b611f2661393c565b6007548590829074010000000000000000000000000000000000000000900460ff1660028110611f5857611f58613f77565b60200201526040517fed8e84f300000000000000000000000000000000000000000000000000000000815273ffffffffffffffffffffffffffffffffffffffff84169063ed8e84f390611ec5908490600190600401613d66565b6040517f6b88071800000000000000000000000000000000000000000000000000000000815230600482018190529073__$0fb85c1a108326fe5c0d8f2f5a241bc0e7$__90636b8807189060240160206040518083038186803b15801561201857600080fd5b505af415801561202c573d6000803e3d6000fd5b505050506040513d601f19601f8201168201806040525081019061205091906139af565b73ffffffffffffffffffffffffffffffffffffffff1614156122055760006120766107cd565b6040517f21f8a7210000000000000000000000000000000000000000000000000000000081527f689d13d8ed8ef1027633ba26e7121121cf427434450a529548f19bf175974395600482015273ffffffffffffffffffffffffffffffffffffffff91909116906321f8a7219060240160206040518083038186803b1580156120fd57600080fd5b505afa158015612111573d6000803e3d6000fd5b505050506040513d601f19601f8201168201806040525081019061213591906139af565b60015490915073ffffffffffffffffffffffffffffffffffffffff1633148061217357503373ffffffffffffffffffffffffffffffffffffffff8216145b6121ff576040517f08c379a000000000000000000000000000000000000000000000000000000000815260206004820152602260248201527f4175746f6d6174653a2063616c6c6572206973206e6f7420746865207061757360448201527f65720000000000000000000000000000000000000000000000000000000000006064820152608401610b78565b506122ac565b60015473ffffffffffffffffffffffffffffffffffffffff1633146122ac576040517f08c379a000000000000000000000000000000000000000000000000000000000815260206004820152602260248201527f4175746f6d6174653a2063616c6c6572206973206e6f7420746865207061757360448201527f65720000000000000000000000000000000000000000000000000000000000006064820152608401610b78565b6122b4611320565b1561231b576040517f08c379a000000000000000000000000000000000000000000000000000000000815260206004820152601060248201527f4175746f6d6174653a20706175736564000000000000000000000000000000006044820152606401610b78565b600180547fffffffffffffffffffffff00ffffffffffffffffffffffffffffffffffffffff1674010000000000000000000000000000000000000000179055565b6040517f6b88071800000000000000000000000000000000000000000000000000000000815230600482015260009073__$0fb85c1a108326fe5c0d8f2f5a241bc0e7$__90636b8807189060240160206040518083038186803b1580156123c257600080fd5b505af41580156123d6573d6000803e3d6000fd5b505050506040513d601f19601f820116820180604052508101906123fa91906139af565b90503373ffffffffffffffffffffffffffffffffffffffff8216301461249d578173ffffffffffffffffffffffffffffffffffffffff16638da5cb5b6040518163ffffffff1660e01b815260040160206040518083038186803b15801561246057600080fd5b505afa158015612474573d6000803e3d6000fd5b505050506040513d601f19601f8201168201806040525081019061249891906139af565b6124b7565b60015473ffffffffffffffffffffffffffffffffffffffff165b73ffffffffffffffffffffffffffffffffffffffff161461255a576040517f08c379a000000000000000000000000000000000000000000000000000000000815260206004820152603d60248201527f4175746f6d6174653a3a6368616e676550726f746f636f6c4665653a2063616c60448201527f6c6572206973206e6f74207468652070726f746f636f6c206f776e65720000006064820152608401610b78565b60028290556040518281527f3c1d43943224e49d951ce8295a5c8332b517083b3f89bed50feae2cb39caebb59060200160405180910390a15050565b6040517f6b880718000000000000000000000000000000000000000000000000000000008152306004820152600090819073__$0fb85c1a108326fe5c0d8f2f5a241bc0e7$__90636b8807189060240160206040518083038186803b1580156125fe57600080fd5b505af4158015612612573d6000803e3d6000fd5b505050506040513d601f19601f8201168201806040525081019061263691906139af565b905073ffffffffffffffffffffffffffffffffffffffff8116301480159061266057506000600254125b156126e3578073ffffffffffffffffffffffffffffffffffffffff1663b0e21e8a6040518163ffffffff1660e01b815260040160206040518083038186803b1580156126ab57600080fd5b505afa1580156126bf573d6000803e3d6000fd5b505050506040513d601f19601f820116820180604052508101906109299190613bf2565b60006126ed6107cd565b905060008060025412612702576002546127bf565b6040517fbd02d0f50000000000000000000000000000000000000000000000000000000081527fa93d95f96a5de25d7a41ddf1f5e8d45cfc929c4838163cf011dab4043a4a40d5600482015273ffffffffffffffffffffffffffffffffffffffff83169063bd02d0f59060240160206040518083038186803b15801561278757600080fd5b505afa15801561279b573d6000803e3d6000fd5b505050506040513d601f19601f820116820180604052508101906127bf9190613bf2565b9050806127d0576000935050505090565b6040517f21f8a7210000000000000000000000000000000000000000000000000000000081527f65c90423fe7c880476633a7e36521740f87199d233dc56eb4ca6643eb76f605f600482015260009073ffffffffffffffffffffffffffffffffffffffff8416906321f8a7219060240160206040518083038186803b15801561285857600080fd5b505afa15801561286c573d6000803e3d6000fd5b505050506040513d601f19601f8201168201806040525081019061289091906139af565b73ffffffffffffffffffffffffffffffffffffffff1663feaf968c6040518163ffffffff1660e01b815260040160a06040518083038186803b1580156128d557600080fd5b505afa1580156128e9573d6000803e3d6000fd5b505050506040513d601f19601f8201168201806040525081019061290d9190613c3d565b5050509150506000811361297d576040517f08c379a000000000000000000000000000000000000000000000000000000000815260206004820152601760248201527f4175746f6d6174653a20696e76616c69642070726963650000000000000000006044820152606401610b78565b8061299083670de0b6b3a7640000613eeb565b61299a9190613eb0565b94505050505090565b60015473ffffffffffffffffffffffffffffffffffffffff163314612a4a576040517f08c379a000000000000000000000000000000000000000000000000000000000815260206004820152602160248201527f4175746f6d6174653a2063616c6c6572206973206e6f7420746865206f776e6560448201527f72000000000000000000000000000000000000000000000000000000000000006064820152608401610b78565b6040517fa9059cbb00000000000000000000000000000000000000000000000000000000815273ffffffffffffffffffffffffffffffffffffffff83811660048301526024820183905284169063a9059cbb90604401602060405180830381600087803b158015612aba57600080fd5b505af1158015612ace573d6000803e3d6000fd5b505050506040513d601f19601f82011682018060405250810190612af29190613bb7565b50505050565b60015473ffffffffffffffffffffffffffffffffffffffff163314612b9f576040517f08c379a000000000000000000000000000000000000000000000000000000000815260206004820152602160248201527f4175746f6d6174653a2063616c6c6572206973206e6f7420746865206f776e6560448201527f72000000000000000000000000000000000000000000000000000000000000006064820152608401610b78565b6006546040517f70a0823100000000000000000000000000000000000000000000000000000000815230600482015273ffffffffffffffffffffffffffffffffffffffff9091169060009082906370a082319060240160206040518083038186803b158015612c0d57600080fd5b505afa158015612c21573d6000803e3d6000fd5b505050506040513d601f19601f82011682018060405250810190612c459190613bf2565b600354909150612c749073ffffffffffffffffffffffffffffffffffffffff8481169161010090041683613231565b6003546040517fb6b55f250000000000000000000000000000000000000000000000000000000081526004810183905261010090910473ffffffffffffffffffffffffffffffffffffffff169063b6b55f2590602401600060405180830381600087803b158015612ce457600080fd5b505af1158015612cf8573d6000803e3d6000fd5b505050505050565b60015473ffffffffffffffffffffffffffffffffffffffff163314612da7576040517f08c379a000000000000000000000000000000000000000000000000000000000815260206004820152602160248201527f4175746f6d6174653a2063616c6c6572206973206e6f7420746865206f776e6560448201527f72000000000000000000000000000000000000000000000000000000000000006064820152608401610b78565b6040517f6b88071800000000000000000000000000000000000000000000000000000000815230600482018190529073__$0fb85c1a108326fe5c0d8f2f5a241bc0e7$__90636b8807189060240160206040518083038186803b158015612e0d57600080fd5b505af4158015612e21573d6000803e3d6000fd5b505050506040513d601f19601f82011682018060405250810190612e4591906139af565b73ffffffffffffffffffffffffffffffffffffffff1614612ee8576040517f08c379a000000000000000000000000000000000000000000000000000000000815260206004820152602160248201527f4175746f6d6174653a206368616e676520746865206f776e6572206661696c6560448201527f64000000000000000000000000000000000000000000000000000000000000006064820152608401610b78565b6001805473ffffffffffffffffffffffffffffffffffffffff8381167fffffffffffffffffffffffff0000000000000000000000000000000000000000831681179093556040519116919082907f8be0079c531659141344cd1fd0a4f28419497f9722a3daafe3b4186f6b6457e090600090a35050565b6000612f69611320565b15612fd0576040517f08c379a000000000000000000000000000000000000000000000000000000000815260206004820152601060248201527f4175746f6d6174653a20706175736564000000000000000000000000000000006044820152606401610b78565b6000612ff160015473ffffffffffffffffffffffffffffffffffffffff1690565b90503273ffffffffffffffffffffffffffffffffffffffff8216141561301b57600091505061322b565b60006130256107cd565b6040517f21f8a7210000000000000000000000000000000000000000000000000000000081527fe78c16c6d839536d3155985aab4e9c6013c8c3d446054bcebc48612f359d81f5600482015290915060009073ffffffffffffffffffffffffffffffffffffffff8316906321f8a7219060240160206040518083038186803b1580156130b057600080fd5b505afa1580156130c4573d6000803e3d6000fd5b505050506040513d601f19601f820116820180604052508101906130e891906139af565b905073ffffffffffffffffffffffffffffffffffffffff811661318d576040517f08c379a000000000000000000000000000000000000000000000000000000000815260206004820152602b60248201527f4175746f6d6174653a3a5f62696c6c3a2062616c616e636520636f6e7472616360448201527f74206e6f7420666f756e640000000000000000000000000000000000000000006064820152608401610b78565b8073ffffffffffffffffffffffffffffffffffffffff1663e578a22584886131b3612596565b896040518563ffffffff1660e01b81526004016131d39493929190613cc7565b602060405180830381600087803b1580156131ed57600080fd5b505af1158015613201573d6000803e3d6000fd5b505050506040513d601f19601f820116820180604052508101906132259190613bf2565b93505050505b92915050565b6040517fdd62ed3e00000000000000000000000000000000000000000000000000000000815230600482015273ffffffffffffffffffffffffffffffffffffffff83811660248301526000919085169063dd62ed3e9060440160206040518083038186803b1580156132a257600080fd5b505afa1580156132b6573d6000803e3d6000fd5b505050506040513d601f19601f820116820180604052508101906132da9190613bf2565b905080158015906132ea57508181105b15613399576040517f095ea7b300000000000000000000000000000000000000000000000000000000815273ffffffffffffffffffffffffffffffffffffffff84811660048301526000602483015285169063095ea7b390604401602060405180830381600087803b15801561335f57600080fd5b505af1158015613373573d6000803e3d6000fd5b505050506040513d601f19601f820116820180604052508101906133979190613bb7565b505b818114612af2576040517f095ea7b300000000000000000000000000000000000000000000000000000000815273ffffffffffffffffffffffffffffffffffffffff84811660048301526024820184905285169063095ea7b390604401602060405180830381600087803b15801561341057600080fd5b505af1158015613424573d6000803e3d6000fd5b505050506040513d601f19601f820116820180604052508101906134489190613bb7565b5050505050565b604080516002808252606082018352600092839291906020830190803683375050875182519293509183915060009061348a5761348a613f77565b73ffffffffffffffffffffffffffffffffffffffff929092166020928302919091018201528601518151829060019081106134c7576134c7613f77565b73ffffffffffffffffffffffffffffffffffffffff9283166020918202929092010152600480546040517f38ed17390000000000000000000000000000000000000000000000000000000081529216916338ed1739916135319189918991879130918b9101613dd6565b600060405180830381600087803b15801561354b57600080fd5b505af115801561355f573d6000803e3d6000fd5b505050506040513d6000823e601f3d9081017fffffffffffffffffffffffffffffffffffffffffffffffffffffffffffffffe01682016040526135a59190810190613b0a565b6001815181106135b7576135b7613f77565b6020026020010151915050949350505050565b60006135d4613850565b6040517f940494f100000000000000000000000000000000000000000000000000000000815273ffffffffffffffffffffffffffffffffffffffff86811660048301529192509082169063940494f19060240160206040518083038186803b15801561363f57600080fd5b505afa158015613653573d6000803e3d6000fd5b505050506040513d601f19601f820116820180604052508101906136779190613bf2565b6003141561376b5761368761391e565b6007548490829074010000000000000000000000000000000000000000900460ff16600381106136b9576136b9613f77565b60200201526040517f4515cef300000000000000000000000000000000000000000000000000000000815273ffffffffffffffffffffffffffffffffffffffff861690634515cef3906137129084908790600401613dbb565b602060405180830381600087803b15801561372c57600080fd5b505af1158015613740573d6000803e3d6000fd5b505050506040513d601f19601f820116820180604052508101906137649190613bf2565b5050612af2565b61377361393c565b6007548490829074010000000000000000000000000000000000000000900460ff16600281106137a5576137a5613f77565b60200201526040517f0b4c7e4d00000000000000000000000000000000000000000000000000000000815273ffffffffffffffffffffffffffffffffffffffff861690630b4c7e4d906137fe9084908790600401613d83565b602060405180830381600087803b15801561381857600080fd5b505af115801561382c573d6000803e3d6000fd5b505050506040513d601f19601f82011682018060405250810190612cf89190613bf2565b600061385a6107cd565b6040517f21f8a7210000000000000000000000000000000000000000000000000000000081527fe3afe40301d08e5458680c2ac903d4fddf0931e5e1a5c6d9e21328d89e8d8e7c600482015273ffffffffffffffffffffffffffffffffffffffff91909116906321f8a7219060240160206040518083038186803b1580156138e157600080fd5b505afa1580156138f5573d6000803e3d6000fd5b505050506040513d601f19601f8201168201806040525081019061391991906139af565b905090565b60405180606001604052806003906020820280368337509192915050565b60405180604001604052806002906020820280368337509192915050565b803561ffff8116811461396c57600080fd5b919050565b805169ffffffffffffffffffff8116811461396c57600080fd5b60006020828403121561399d57600080fd5b81356139a881613fd5565b9392505050565b6000602082840312156139c157600080fd5b81516139a881613fd5565b600080600080600060a086880312156139e457600080fd5b85356139ef81613fd5565b945060208601356139ff81613fd5565b93506040860135613a0f81613fd5565b9250613a1d6060870161395a565b9150613a2b6080870161395a565b90509295509295909350565b600080600060608486031215613a4c57600080fd5b8335613a5781613fd5565b92506020840135613a6781613fd5565b929592945050506040919091013590565b6000610100808385031215613a8c57600080fd5b83601f840112613a9b57600080fd5b60405181810181811067ffffffffffffffff82111715613abd57613abd613fa6565b6040528084838101871015613ad157600080fd5b600093505b6008841015613aff578051613aea81613fd5565b82526001939093019260209182019101613ad6565b509095945050505050565b60006020808385031215613b1d57600080fd5b825167ffffffffffffffff80821115613b3557600080fd5b818501915085601f830112613b4957600080fd5b815181811115613b5b57613b5b613fa6565b8060051b9150613b6c848301613e61565b8181528481019084860184860187018a1015613b8757600080fd5b600095505b83861015613baa578051835260019590950194918601918601613b8c565b5098975050505050505050565b600060208284031215613bc957600080fd5b815180151581146139a857600080fd5b600060208284031215613beb57600080fd5b5035919050565b600060208284031215613c0457600080fd5b5051919050565b60008060008060808587031215613c2157600080fd5b5050823594602084013594506040840135936060013592509050565b600080600080600060a08688031215613c5557600080fd5b613c5e86613971565b9450602086015193506040860151925060608601519150613a2b60808701613971565b8060005b6002811015612af2578151845260209384019390910190600101613c85565b8060005b6003811015612af2578151845260209384019390910190600101613ca8565b73ffffffffffffffffffffffffffffffffffffffff8516815260006020858184015284604084015260806060840152835180608085015260005b81811015613d1d5785810183015185820160a001528201613d01565b81811115613d2f57600060a083870101525b50601f017fffffffffffffffffffffffffffffffffffffffffffffffffffffffffffffffe0169290920160a0019695505050505050565b60608101613d748285613c81565b82151560408301529392505050565b60608101613d918285613c81565b8260408301529392505050565b60808101613dac8285613ca4565b82151560608301529392505050565b60808101613dc98285613ca4565b8260608301529392505050565b600060a082018783526020878185015260a0604085015281875180845260c086019150828901935060005b81811015613e3357845173ffffffffffffffffffffffffffffffffffffffff1683529383019391830191600101613e01565b505073ffffffffffffffffffffffffffffffffffffffff969096166060850152505050608001529392505050565b604051601f82017fffffffffffffffffffffffffffffffffffffffffffffffffffffffffffffffe016810167ffffffffffffffff81118282101715613ea857613ea8613fa6565b604052919050565b600082613ee6577f4e487b7100000000000000000000000000000000000000000000000000000000600052601260045260246000fd5b500490565b6000817fffffffffffffffffffffffffffffffffffffffffffffffffffffffffffffffff0483118215151615613f2357613f23613f48565b500290565b600060ff821660ff811415613f3f57613f3f613f48565b60010192915050565b7f4e487b7100000000000000000000000000000000000000000000000000000000600052601160045260246000fd5b7f4e487b7100000000000000000000000000000000000000000000000000000000600052603260045260246000fd5b7f4e487b7100000000000000000000000000000000000000000000000000000000600052604160045260246000fd5b73ffffffffffffffffffffffffffffffffffffffff81168114613ff757600080fd5b5056fea164736f6c6343000806000a",
  "libraries": {
    "ERC1167": "0x7ecFCbdeb6f195030B9Bf2ECc402f6d5433d116D"
  },
  "devdoc": {
    "kind": "dev",
    "methods": {
      "changeProtocolFee(int256)": {
        "params": {
          "__protocolFee": "New protocol fee."
        }
      },
      "protocolFee()": {
        "returns": {
          "_0": "Current protocol fee."
        }
      },
      "transfer(address,address,uint256)": {
        "params": {
          "amount": "Transferred amount of tokens.",
          "recipient": "Token recipient address.",
          "token": "The address of the token to be transferred."
        }
      },
      "transferOwnership(address)": {
        "details": "Transfers ownership of the contract to a new account (`newOwner`). Can only be called by the current owner."
      }
    },
    "version": 1
  },
  "userdoc": {
    "kind": "user",
    "methods": {
      "changeProtocolFee(int256)": {
        "notice": "Change protocol fee."
      },
      "info()": {
        "notice": "Returns address of Storage contract."
      },
      "owner()": {
        "notice": "Returns the address of the current owner."
      },
      "pause()": {
        "notice": "Pause contract."
      },
      "paused()": {
        "notice": "Returns true if the contract is paused, and false otherwise."
      },
      "transfer(address,address,uint256)": {
        "notice": "Transfer ERC20 token to recipient."
      },
      "unpause()": {
        "notice": "Unpause contract."
      }
    },
    "version": 1
  },
  "storageLayout": {
    "storage": [
      {
        "astId": 1398,
        "contract": "contracts/GaugeUniswapRestake.automate.sol:GaugeUniswapRestake",
        "label": "_info",
        "offset": 0,
        "slot": "0",
        "type": "t_address"
      },
      {
        "astId": 1401,
        "contract": "contracts/GaugeUniswapRestake.automate.sol:GaugeUniswapRestake",
        "label": "_owner",
        "offset": 0,
        "slot": "1",
        "type": "t_address"
      },
      {
        "astId": 1404,
        "contract": "contracts/GaugeUniswapRestake.automate.sol:GaugeUniswapRestake",
        "label": "_paused",
        "offset": 20,
        "slot": "1",
        "type": "t_bool"
      },
      {
        "astId": 1407,
        "contract": "contracts/GaugeUniswapRestake.automate.sol:GaugeUniswapRestake",
        "label": "_protocolFee",
        "offset": 0,
        "slot": "2",
        "type": "t_int256"
      },
      {
        "astId": 1410,
        "contract": "contracts/GaugeUniswapRestake.automate.sol:GaugeUniswapRestake",
        "label": "_initialized",
        "offset": 0,
        "slot": "3",
        "type": "t_bool"
      },
      {
        "astId": 613,
        "contract": "contracts/GaugeUniswapRestake.automate.sol:GaugeUniswapRestake",
        "label": "staking",
        "offset": 1,
        "slot": "3",
        "type": "t_contract(IGauge)1292"
      },
      {
        "astId": 615,
        "contract": "contracts/GaugeUniswapRestake.automate.sol:GaugeUniswapRestake",
        "label": "liquidityRouter",
        "offset": 0,
        "slot": "4",
        "type": "t_address"
      },
      {
        "astId": 617,
        "contract": "contracts/GaugeUniswapRestake.automate.sol:GaugeUniswapRestake",
        "label": "swapToken",
        "offset": 0,
        "slot": "5",
        "type": "t_address"
      },
      {
        "astId": 619,
        "contract": "contracts/GaugeUniswapRestake.automate.sol:GaugeUniswapRestake",
        "label": "slippage",
        "offset": 20,
        "slot": "5",
        "type": "t_uint16"
      },
      {
        "astId": 621,
        "contract": "contracts/GaugeUniswapRestake.automate.sol:GaugeUniswapRestake",
        "label": "deadline",
        "offset": 22,
        "slot": "5",
        "type": "t_uint16"
      },
      {
        "astId": 624,
        "contract": "contracts/GaugeUniswapRestake.automate.sol:GaugeUniswapRestake",
        "label": "_lpToken",
        "offset": 0,
        "slot": "6",
        "type": "t_contract(IERC20)123"
      },
      {
        "astId": 626,
        "contract": "contracts/GaugeUniswapRestake.automate.sol:GaugeUniswapRestake",
        "label": "_pool",
        "offset": 0,
        "slot": "7",
        "type": "t_address"
      },
      {
        "astId": 628,
        "contract": "contracts/GaugeUniswapRestake.automate.sol:GaugeUniswapRestake",
        "label": "_swapTokenN",
        "offset": 20,
        "slot": "7",
        "type": "t_uint8"
      }
    ],
    "types": {
      "t_address": {
        "encoding": "inplace",
        "label": "address",
        "numberOfBytes": "20"
      },
      "t_bool": {
        "encoding": "inplace",
        "label": "bool",
        "numberOfBytes": "1"
      },
      "t_contract(IERC20)123": {
        "encoding": "inplace",
        "label": "contract IERC20",
        "numberOfBytes": "20"
      },
      "t_contract(IGauge)1292": {
        "encoding": "inplace",
        "label": "contract IGauge",
        "numberOfBytes": "20"
      },
      "t_int256": {
        "encoding": "inplace",
        "label": "int256",
        "numberOfBytes": "32"
      },
      "t_uint16": {
        "encoding": "inplace",
        "label": "uint16",
        "numberOfBytes": "2"
      },
      "t_uint8": {
        "encoding": "inplace",
        "label": "uint8",
        "numberOfBytes": "1"
      }
    }
  }
}