{
  "address": "0xe890Dbb2EA4dd17ec0D1F9a2DD6a756D2C637f97",
  "abi": [
    {
      "inputs": [
        {
          "internalType": "address",
          "name": "_info",
          "type": "address"
        }
      ],
      "stateMutability": "nonpayable",
      "type": "constructor"
    },
    {
      "anonymous": false,
      "inputs": [
        {
          "indexed": true,
          "internalType": "address",
          "name": "previousOwner",
          "type": "address"
        },
        {
          "indexed": true,
          "internalType": "address",
          "name": "newOwner",
          "type": "address"
        }
      ],
      "name": "OwnershipTransferred",
      "type": "event"
    },
    {
      "anonymous": false,
      "inputs": [
        {
          "indexed": false,
          "internalType": "int256",
          "name": "protocolFee",
          "type": "int256"
        }
      ],
      "name": "ProtocolFeeChanged",
      "type": "event"
    },
    {
      "inputs": [
        {
          "internalType": "int256",
          "name": "__protocolFee",
          "type": "int256"
        }
      ],
      "name": "changeProtocolFee",
      "outputs": [],
      "stateMutability": "nonpayable",
      "type": "function"
    },
    {
      "inputs": [],
      "name": "deadline",
      "outputs": [
        {
          "internalType": "uint16",
          "name": "",
          "type": "uint16"
        }
      ],
      "stateMutability": "view",
      "type": "function"
    },
    {
      "inputs": [],
      "name": "deposit",
      "outputs": [],
      "stateMutability": "nonpayable",
      "type": "function"
    },
    {
      "inputs": [],
      "name": "info",
      "outputs": [
        {
          "internalType": "address",
          "name": "",
          "type": "address"
        }
      ],
      "stateMutability": "view",
      "type": "function"
    },
    {
      "inputs": [
        {
          "internalType": "address",
          "name": "_staking",
          "type": "address"
        },
        {
          "internalType": "address",
          "name": "_liquidityRouter",
          "type": "address"
        },
        {
          "internalType": "uint16",
          "name": "_slippage",
          "type": "uint16"
        },
        {
          "internalType": "uint16",
          "name": "_deadline",
          "type": "uint16"
        }
      ],
      "name": "init",
      "outputs": [],
      "stateMutability": "nonpayable",
      "type": "function"
    },
    {
      "inputs": [],
      "name": "liquidityRouter",
      "outputs": [
        {
          "internalType": "address",
          "name": "",
          "type": "address"
        }
      ],
      "stateMutability": "view",
      "type": "function"
    },
    {
      "inputs": [],
      "name": "owner",
      "outputs": [
        {
          "internalType": "address",
          "name": "",
          "type": "address"
        }
      ],
      "stateMutability": "view",
      "type": "function"
    },
    {
      "inputs": [],
      "name": "pause",
      "outputs": [],
      "stateMutability": "nonpayable",
      "type": "function"
    },
    {
      "inputs": [],
      "name": "paused",
      "outputs": [
        {
          "internalType": "bool",
          "name": "",
          "type": "bool"
        }
      ],
      "stateMutability": "view",
      "type": "function"
    },
    {
      "inputs": [],
      "name": "protocolFee",
      "outputs": [
        {
          "internalType": "uint256",
          "name": "",
          "type": "uint256"
        }
      ],
      "stateMutability": "view",
      "type": "function"
    },
    {
      "inputs": [],
      "name": "refund",
      "outputs": [],
      "stateMutability": "nonpayable",
      "type": "function"
    },
    {
      "inputs": [
        {
          "internalType": "uint256",
          "name": "gasFee",
          "type": "uint256"
        },
        {
          "internalType": "uint256",
          "name": "_deadline",
          "type": "uint256"
        },
        {
          "internalType": "uint256[2]",
          "name": "_outMin",
          "type": "uint256[2]"
        }
      ],
      "name": "run",
      "outputs": [],
      "stateMutability": "nonpayable",
      "type": "function"
    },
    {
      "inputs": [],
      "name": "slippage",
      "outputs": [
        {
          "internalType": "uint16",
          "name": "",
          "type": "uint16"
        }
      ],
      "stateMutability": "view",
      "type": "function"
    },
    {
      "inputs": [],
      "name": "staking",
      "outputs": [
        {
          "internalType": "contract IStaking",
          "name": "",
          "type": "address"
        }
      ],
      "stateMutability": "view",
      "type": "function"
    },
    {
      "inputs": [
        {
          "internalType": "address",
          "name": "token",
          "type": "address"
        },
        {
          "internalType": "address",
          "name": "recipient",
          "type": "address"
        },
        {
          "internalType": "uint256",
          "name": "amount",
          "type": "uint256"
        }
      ],
      "name": "transfer",
      "outputs": [],
      "stateMutability": "nonpayable",
      "type": "function"
    },
    {
      "inputs": [
        {
          "internalType": "address",
          "name": "newOwner",
          "type": "address"
        }
      ],
      "name": "transferOwnership",
      "outputs": [],
      "stateMutability": "nonpayable",
      "type": "function"
    },
    {
      "inputs": [],
      "name": "unpause",
      "outputs": [],
      "stateMutability": "nonpayable",
      "type": "function"
    }
  ],
  "transactionHash": "0xb3fdb6c687338e50083473925bdc108dd59a29dd0644a04b53c7351eef089719",
  "args": [
    "0x5AE235502Bf1de231AfD75364670d50e3C3694A6"
  ],
  "solcInputHash": "2d3c67c58f62bedb5cf84a8210f9cf98",
  "bytecode": "0x60806040523480156200001157600080fd5b506040516200384338038062003843833981016040819052620000349162000069565b600080546001600160a01b039092166001600160a01b031992831617905560018054909116321790556000196002556200009b565b6000602082840312156200007c57600080fd5b81516001600160a01b03811681146200009457600080fd5b9392505050565b61379880620000ab6000396000f3fe608060405234801561001057600080fd5b506004361061011b5760003560e01c80635c975abb116100b2578063b0e21e8a11610081578063d0e30db011610066578063d0e30db014610297578063dd9255511461029f578063f2fde38b146102b257600080fd5b8063b0e21e8a1461026e578063beabacc81461028457600080fd5b80635c975abb1461021d5780638456cb59146102355780638da5cb5b1461023d5780639742b5c31461025b57600080fd5b80633e032a3b116100ee5780633e032a3b146101c25780633f4ba83a146101e85780634cf088d9146101f0578063590e1ae31461021557600080fd5b80631b586aff14610120578063247029441461013557806329dcb0cf1461017f578063370158ea146101ba575b600080fd5b61013361012e36600461321d565b6102c5565b005b6004546101559073ffffffffffffffffffffffffffffffffffffffff1681565b60405173ffffffffffffffffffffffffffffffffffffffff90911681526020015b60405180910390f35b6004546101a790760100000000000000000000000000000000000000000000900461ffff1681565b60405161ffff9091168152602001610176565b6101556106be565b6004546101a79074010000000000000000000000000000000000000000900461ffff1681565b610133610820565b60035461015590610100900473ffffffffffffffffffffffffffffffffffffffff1681565b610133610bb2565b6102256110a6565b6040519015158152602001610176565b61013361122b565b60015473ffffffffffffffffffffffffffffffffffffffff16610155565b610133610269366004613385565b6115d5565b61027661180f565b604051908152602001610176565b610133610292366004613275565b611c1c565b610133611d71565b6101336102ad3660046133b7565b61200a565b6101336102c03660046131e3565b6127b5565b60015473ffffffffffffffffffffffffffffffffffffffff1661033557600180547fffffffffffffffffffffffff000000000000000000000000000000000000000016321790557fffffffffffffffffffffffffffffffffffffffffffffffffffffffffffffffff6002556103e1565b60015473ffffffffffffffffffffffffffffffffffffffff1633146103e1576040517f08c379a000000000000000000000000000000000000000000000000000000000815260206004820152602160248201527f4175746f6d6174653a2063616c6c6572206973206e6f7420746865206f776e6560448201527f720000000000000000000000000000000000000000000000000000000000000060648201526084015b60405180910390fd5b60035460ff161580610412575060035473ffffffffffffffffffffffffffffffffffffffff85811661010090920416145b6104c4576040517f08c379a000000000000000000000000000000000000000000000000000000000815260206004820152604760248201527f53796e746865746978556e69737761704c7052657374616b653a3a696e69743a60448201527f207265696e697469616c697a65207374616b696e67206164647265737320666f60648201527f7262696464656e00000000000000000000000000000000000000000000000000608482015260a4016103d8565b6003805473ffffffffffffffffffffffffffffffffffffffff8616610100027fffffffffffffffffffffff0000000000000000000000000000000000000000ff8216811790925560ff9182169116171580610539575060045473ffffffffffffffffffffffffffffffffffffffff8481169116145b6105eb576040517f08c379a000000000000000000000000000000000000000000000000000000000815260206004820152605060248201527f53796e746865746978556e69737761704c7052657374616b653a3a696e69743a60448201527f207265696e697469616c697a65206c697175696469747920726f75746572206160648201527f64647265737320666f7262696464656e00000000000000000000000000000000608482015260a4016103d8565b6004805473ffffffffffffffffffffffffffffffffffffffff949094167fffffffffffffffffffff00000000000000000000000000000000000000000000909416939093177401000000000000000000000000000000000000000061ffff93841602177fffffffffffffffff0000ffffffffffffffffffffffffffffffffffffffffffff16760100000000000000000000000000000000000000000000919092160217905550600380547fffffffffffffffffffffffffffffffffffffffffffffffffffffffffffffff00166001179055565b6040517f6b8807180000000000000000000000000000000000000000000000000000000081523060048201526000908190737ecFCbdeb6f195030B9Bf2ECc402f6d5433d116D90636b8807189060240160206040518083038186803b15801561072657600080fd5b505af415801561073a573d6000803e3d6000fd5b505050506040513d601f19601f8201168201806040525081019061075e9190613200565b905073ffffffffffffffffffffffffffffffffffffffff811630141561079c57505060005473ffffffffffffffffffffffffffffffffffffffff1690565b8073ffffffffffffffffffffffffffffffffffffffff1663370158ea6040518163ffffffff1660e01b815260040160206040518083038186803b1580156107e257600080fd5b505afa1580156107f6573d6000803e3d6000fd5b505050506040513d601f19601f8201168201806040525081019061081a9190613200565b91505090565b6040517f6b880718000000000000000000000000000000000000000000000000000000008152306004820181905290737ecFCbdeb6f195030B9Bf2ECc402f6d5433d116D90636b8807189060240160206040518083038186803b15801561088657600080fd5b505af415801561089a573d6000803e3d6000fd5b505050506040513d601f19601f820116820180604052508101906108be9190613200565b73ffffffffffffffffffffffffffffffffffffffff161415610a735760006108e46106be565b6040517f21f8a7210000000000000000000000000000000000000000000000000000000081527f689d13d8ed8ef1027633ba26e7121121cf427434450a529548f19bf175974395600482015273ffffffffffffffffffffffffffffffffffffffff91909116906321f8a7219060240160206040518083038186803b15801561096b57600080fd5b505afa15801561097f573d6000803e3d6000fd5b505050506040513d601f19601f820116820180604052508101906109a39190613200565b60015490915073ffffffffffffffffffffffffffffffffffffffff163314806109e157503373ffffffffffffffffffffffffffffffffffffffff8216145b610a6d576040517f08c379a000000000000000000000000000000000000000000000000000000000815260206004820152602260248201527f4175746f6d6174653a2063616c6c6572206973206e6f7420746865207061757360448201527f657200000000000000000000000000000000000000000000000000000000000060648201526084016103d8565b50610b1a565b60015473ffffffffffffffffffffffffffffffffffffffff163314610b1a576040517f08c379a000000000000000000000000000000000000000000000000000000000815260206004820152602260248201527f4175746f6d6174653a2063616c6c6572206973206e6f7420746865207061757360448201527f657200000000000000000000000000000000000000000000000000000000000060648201526084016103d8565b610b226110a6565b610b88576040517f08c379a000000000000000000000000000000000000000000000000000000000815260206004820152601460248201527f4175746f6d6174653a206e6f742070617573656400000000000000000000000060448201526064016103d8565b600180547fffffffffffffffffffffff00ffffffffffffffffffffffffffffffffffffffff169055565b60015473ffffffffffffffffffffffffffffffffffffffff163314610c59576040517f08c379a000000000000000000000000000000000000000000000000000000000815260206004820152602160248201527f4175746f6d6174653a2063616c6c6572206973206e6f7420746865206f776e6560448201527f720000000000000000000000000000000000000000000000000000000000000060648201526084016103d8565b6000600360019054906101000a900473ffffffffffffffffffffffffffffffffffffffff1690508073ffffffffffffffffffffffffffffffffffffffff1663e9fad8ee6040518163ffffffff1660e01b8152600401600060405180830381600087803b158015610cc857600080fd5b505af1158015610cdc573d6000803e3d6000fd5b505050506000610d0160015473ffffffffffffffffffffffffffffffffffffffff1690565b905060008273ffffffffffffffffffffffffffffffffffffffff166372f702f36040518163ffffffff1660e01b815260040160206040518083038186803b158015610d4b57600080fd5b505afa158015610d5f573d6000803e3d6000fd5b505050506040513d601f19601f82011682018060405250810190610d839190613200565b6040517f70a0823100000000000000000000000000000000000000000000000000000000815230600482015290915073ffffffffffffffffffffffffffffffffffffffff82169063a9059cbb90849083906370a082319060240160206040518083038186803b158015610df557600080fd5b505afa158015610e09573d6000803e3d6000fd5b505050506040513d601f19601f82011682018060405250810190610e2d919061339e565b6040517fffffffff0000000000000000000000000000000000000000000000000000000060e085901b16815273ffffffffffffffffffffffffffffffffffffffff90921660048301526024820152604401602060405180830381600087803b158015610e9857600080fd5b505af1158015610eac573d6000803e3d6000fd5b505050506040513d601f19601f82011682018060405250810190610ed09190613363565b5060008373ffffffffffffffffffffffffffffffffffffffff1663d1af0c7d6040518163ffffffff1660e01b815260040160206040518083038186803b158015610f1957600080fd5b505afa158015610f2d573d6000803e3d6000fd5b505050506040513d601f19601f82011682018060405250810190610f519190613200565b6040517f70a0823100000000000000000000000000000000000000000000000000000000815230600482015290915073ffffffffffffffffffffffffffffffffffffffff82169063a9059cbb90859083906370a082319060240160206040518083038186803b158015610fc357600080fd5b505afa158015610fd7573d6000803e3d6000fd5b505050506040513d601f19601f82011682018060405250810190610ffb919061339e565b6040517fffffffff0000000000000000000000000000000000000000000000000000000060e085901b16815273ffffffffffffffffffffffffffffffffffffffff909216600483015260248201526044015b602060405180830381600087803b15801561106757600080fd5b505af115801561107b573d6000803e3d6000fd5b505050506040513d601f19601f8201168201806040525081019061109f9190613363565b5050505050565b6040517f6b8807180000000000000000000000000000000000000000000000000000000081523060048201526000908190737ecFCbdeb6f195030B9Bf2ECc402f6d5433d116D90636b8807189060240160206040518083038186803b15801561110e57600080fd5b505af4158015611122573d6000803e3d6000fd5b505050506040513d601f19601f820116820180604052508101906111469190613200565b905073ffffffffffffffffffffffffffffffffffffffff811630141561118957505060015474010000000000000000000000000000000000000000900460ff1690565b60015474010000000000000000000000000000000000000000900460ff168061081a57508073ffffffffffffffffffffffffffffffffffffffff16635c975abb6040518163ffffffff1660e01b815260040160206040518083038186803b1580156111f357600080fd5b505afa158015611207573d6000803e3d6000fd5b505050506040513d601f19601f8201168201806040525081019061081a9190613363565b6040517f6b880718000000000000000000000000000000000000000000000000000000008152306004820181905290737ecFCbdeb6f195030B9Bf2ECc402f6d5433d116D90636b8807189060240160206040518083038186803b15801561129157600080fd5b505af41580156112a5573d6000803e3d6000fd5b505050506040513d601f19601f820116820180604052508101906112c99190613200565b73ffffffffffffffffffffffffffffffffffffffff16141561147e5760006112ef6106be565b6040517f21f8a7210000000000000000000000000000000000000000000000000000000081527f689d13d8ed8ef1027633ba26e7121121cf427434450a529548f19bf175974395600482015273ffffffffffffffffffffffffffffffffffffffff91909116906321f8a7219060240160206040518083038186803b15801561137657600080fd5b505afa15801561138a573d6000803e3d6000fd5b505050506040513d601f19601f820116820180604052508101906113ae9190613200565b60015490915073ffffffffffffffffffffffffffffffffffffffff163314806113ec57503373ffffffffffffffffffffffffffffffffffffffff8216145b611478576040517f08c379a000000000000000000000000000000000000000000000000000000000815260206004820152602260248201527f4175746f6d6174653a2063616c6c6572206973206e6f7420746865207061757360448201527f657200000000000000000000000000000000000000000000000000000000000060648201526084016103d8565b50611525565b60015473ffffffffffffffffffffffffffffffffffffffff163314611525576040517f08c379a000000000000000000000000000000000000000000000000000000000815260206004820152602260248201527f4175746f6d6174653a2063616c6c6572206973206e6f7420746865207061757360448201527f657200000000000000000000000000000000000000000000000000000000000060648201526084016103d8565b61152d6110a6565b15611594576040517f08c379a000000000000000000000000000000000000000000000000000000000815260206004820152601060248201527f4175746f6d6174653a207061757365640000000000000000000000000000000060448201526064016103d8565b600180547fffffffffffffffffffffff00ffffffffffffffffffffffffffffffffffffffff1674010000000000000000000000000000000000000000179055565b6040517f6b880718000000000000000000000000000000000000000000000000000000008152306004820152600090737ecFCbdeb6f195030B9Bf2ECc402f6d5433d116D90636b8807189060240160206040518083038186803b15801561163b57600080fd5b505af415801561164f573d6000803e3d6000fd5b505050506040513d601f19601f820116820180604052508101906116739190613200565b90503373ffffffffffffffffffffffffffffffffffffffff82163014611716578173ffffffffffffffffffffffffffffffffffffffff16638da5cb5b6040518163ffffffff1660e01b815260040160206040518083038186803b1580156116d957600080fd5b505afa1580156116ed573d6000803e3d6000fd5b505050506040513d601f19601f820116820180604052508101906117119190613200565b611730565b60015473ffffffffffffffffffffffffffffffffffffffff165b73ffffffffffffffffffffffffffffffffffffffff16146117d3576040517f08c379a000000000000000000000000000000000000000000000000000000000815260206004820152603d60248201527f4175746f6d6174653a3a6368616e676550726f746f636f6c4665653a2063616c60448201527f6c6572206973206e6f74207468652070726f746f636f6c206f776e657200000060648201526084016103d8565b60028290556040518281527f3c1d43943224e49d951ce8295a5c8332b517083b3f89bed50feae2cb39caebb59060200160405180910390a15050565b6040517f6b8807180000000000000000000000000000000000000000000000000000000081523060048201526000908190737ecFCbdeb6f195030B9Bf2ECc402f6d5433d116D90636b8807189060240160206040518083038186803b15801561187757600080fd5b505af415801561188b573d6000803e3d6000fd5b505050506040513d601f19601f820116820180604052508101906118af9190613200565b905073ffffffffffffffffffffffffffffffffffffffff811630148015906118d957506000600254125b1561195c578073ffffffffffffffffffffffffffffffffffffffff1663b0e21e8a6040518163ffffffff1660e01b815260040160206040518083038186803b15801561192457600080fd5b505afa158015611938573d6000803e3d6000fd5b505050506040513d601f19601f8201168201806040525081019061081a919061339e565b60006119666106be565b90506000806002541261197b57600254611a38565b6040517fbd02d0f50000000000000000000000000000000000000000000000000000000081527fa93d95f96a5de25d7a41ddf1f5e8d45cfc929c4838163cf011dab4043a4a40d5600482015273ffffffffffffffffffffffffffffffffffffffff83169063bd02d0f59060240160206040518083038186803b158015611a0057600080fd5b505afa158015611a14573d6000803e3d6000fd5b505050506040513d601f19601f82011682018060405250810190611a38919061339e565b905080611a49576000935050505090565b6040517f21f8a7210000000000000000000000000000000000000000000000000000000081527f65c90423fe7c880476633a7e36521740f87199d233dc56eb4ca6643eb76f605f600482015260009073ffffffffffffffffffffffffffffffffffffffff8416906321f8a7219060240160206040518083038186803b158015611ad157600080fd5b505afa158015611ae5573d6000803e3d6000fd5b505050506040513d601f19601f82011682018060405250810190611b099190613200565b73ffffffffffffffffffffffffffffffffffffffff1663feaf968c6040518163ffffffff1660e01b815260040160a06040518083038186803b158015611b4e57600080fd5b505afa158015611b62573d6000803e3d6000fd5b505050506040513d601f19601f82011682018060405250810190611b869190613481565b50505091505060008113611bf6576040517f08c379a000000000000000000000000000000000000000000000000000000000815260206004820152601760248201527f4175746f6d6174653a20696e76616c696420707269636500000000000000000060448201526064016103d8565b80611c0983670de0b6b3a7640000613685565b611c13919061364a565b94505050505090565b60015473ffffffffffffffffffffffffffffffffffffffff163314611cc3576040517f08c379a000000000000000000000000000000000000000000000000000000000815260206004820152602160248201527f4175746f6d6174653a2063616c6c6572206973206e6f7420746865206f776e6560448201527f720000000000000000000000000000000000000000000000000000000000000060648201526084016103d8565b6040517fa9059cbb00000000000000000000000000000000000000000000000000000000815273ffffffffffffffffffffffffffffffffffffffff83811660048301526024820183905284169063a9059cbb90604401602060405180830381600087803b158015611d3357600080fd5b505af1158015611d47573d6000803e3d6000fd5b505050506040513d601f19601f82011682018060405250810190611d6b9190613363565b50505050565b60015473ffffffffffffffffffffffffffffffffffffffff163314611e18576040517f08c379a000000000000000000000000000000000000000000000000000000000815260206004820152602160248201527f4175746f6d6174653a2063616c6c6572206973206e6f7420746865206f776e6560448201527f720000000000000000000000000000000000000000000000000000000000000060648201526084016103d8565b6000600360019054906101000a900473ffffffffffffffffffffffffffffffffffffffff16905060008173ffffffffffffffffffffffffffffffffffffffff166372f702f36040518163ffffffff1660e01b815260040160206040518083038186803b158015611e8757600080fd5b505afa158015611e9b573d6000803e3d6000fd5b505050506040513d601f19601f82011682018060405250810190611ebf9190613200565b6040517f70a0823100000000000000000000000000000000000000000000000000000000815230600482015290915060009073ffffffffffffffffffffffffffffffffffffffff8316906370a082319060240160206040518083038186803b158015611f2a57600080fd5b505afa158015611f3e573d6000803e3d6000fd5b505050506040513d601f19601f82011682018060405250810190611f62919061339e565b9050611f8573ffffffffffffffffffffffffffffffffffffffff83168483612a14565b6040517fa694fc3a0000000000000000000000000000000000000000000000000000000081526004810182905273ffffffffffffffffffffffffffffffffffffffff84169063a694fc3a90602401600060405180830381600087803b158015611fed57600080fd5b505af1158015612001573d6000803e3d6000fd5b50505050505050565b826040518060400160405280601d81526020017f426f6e646170706574697453796e7468657469784c5052657374616b6500000081525061204b8282612bde565b506003546040517e8cc26200000000000000000000000000000000000000000000000000000000815230600482015261010090910473ffffffffffffffffffffffffffffffffffffffff16906000908290628cc2629060240160206040518083038186803b1580156120bc57600080fd5b505afa1580156120d0573d6000803e3d6000fd5b505050506040513d601f19601f820116820180604052508101906120f4919061339e565b11612181576040517f08c379a000000000000000000000000000000000000000000000000000000000815260206004820152602960248201527f53796e746865746978556e69737761704c7052657374616b653a3a72756e3a2060448201527f6e6f206561726e6564000000000000000000000000000000000000000000000060648201526084016103d8565b8073ffffffffffffffffffffffffffffffffffffffff16633d18b9126040518163ffffffff1660e01b8152600401600060405180830381600087803b1580156121c957600080fd5b505af11580156121dd573d6000803e3d6000fd5b5050505060008173ffffffffffffffffffffffffffffffffffffffff1663d1af0c7d6040518163ffffffff1660e01b815260040160206040518083038186803b15801561222957600080fd5b505afa15801561223d573d6000803e3d6000fd5b505050506040513d601f19601f820116820180604052508101906122619190613200565b6040517f70a0823100000000000000000000000000000000000000000000000000000000815230600482015290915060009073ffffffffffffffffffffffffffffffffffffffff8316906370a082319060240160206040518083038186803b1580156122cc57600080fd5b505afa1580156122e0573d6000803e3d6000fd5b505050506040513d601f19601f82011682018060405250810190612304919061339e565b60045490915061232e9073ffffffffffffffffffffffffffffffffffffffff848116911683612a14565b60008373ffffffffffffffffffffffffffffffffffffffff166372f702f36040518163ffffffff1660e01b815260040160206040518083038186803b15801561237657600080fd5b505afa15801561238a573d6000803e3d6000fd5b505050506040513d601f19601f820116820180604052508101906123ae9190613200565b9050600060405180604001604052808373ffffffffffffffffffffffffffffffffffffffff16630dfe16816040518163ffffffff1660e01b815260040160206040518083038186803b15801561240357600080fd5b505afa158015612417573d6000803e3d6000fd5b505050506040513d601f19601f8201168201806040525081019061243b9190613200565b73ffffffffffffffffffffffffffffffffffffffff1673ffffffffffffffffffffffffffffffffffffffff1681526020018373ffffffffffffffffffffffffffffffffffffffff1663d21220a76040518163ffffffff1660e01b815260040160206040518083038186803b1580156124b257600080fd5b505afa1580156124c6573d6000803e3d6000fd5b505050506040513d601f19601f820116820180604052508101906124ea9190613200565b73ffffffffffffffffffffffffffffffffffffffff9081169091526040805160c08101825287831660808201908152845190931660a0820152815180830190925292935060009291829161255b91908061254560028b61364a565b81526020018e60005b602002015190528e612eb0565b81526020016125fd60405180604001604052808973ffffffffffffffffffffffffffffffffffffffff1673ffffffffffffffffffffffffffffffffffffffff168152602001866001600281106125b3576125b3613708565b602002015173ffffffffffffffffffffffffffffffffffffffff16905260408051808201909152806125e660028b61364a565b6125f0908b6136c2565b81526020018e600161254e565b8152602001600081526020016000815250905061266460405180604001604052808460006002811061263157612631613708565b6020908102919091015173ffffffffffffffffffffffffffffffffffffffff90811683528682015116910152828c613063565b6040517f70a0823100000000000000000000000000000000000000000000000000000000815230600482015260009073ffffffffffffffffffffffffffffffffffffffff8516906370a082319060240160206040518083038186803b1580156126cc57600080fd5b505afa1580156126e0573d6000803e3d6000fd5b505050506040513d601f19601f82011682018060405250810190612704919061339e565b905061272773ffffffffffffffffffffffffffffffffffffffff85168883612a14565b6040517fa694fc3a0000000000000000000000000000000000000000000000000000000081526004810182905273ffffffffffffffffffffffffffffffffffffffff88169063a694fc3a90602401600060405180830381600087803b15801561278f57600080fd5b505af11580156127a3573d6000803e3d6000fd5b50505050505050505050505050505050565b60015473ffffffffffffffffffffffffffffffffffffffff16331461285c576040517f08c379a000000000000000000000000000000000000000000000000000000000815260206004820152602160248201527f4175746f6d6174653a2063616c6c6572206973206e6f7420746865206f776e6560448201527f720000000000000000000000000000000000000000000000000000000000000060648201526084016103d8565b6040517f6b880718000000000000000000000000000000000000000000000000000000008152306004820181905290737ecFCbdeb6f195030B9Bf2ECc402f6d5433d116D90636b8807189060240160206040518083038186803b1580156128c257600080fd5b505af41580156128d6573d6000803e3d6000fd5b505050506040513d601f19601f820116820180604052508101906128fa9190613200565b73ffffffffffffffffffffffffffffffffffffffff161461299d576040517f08c379a000000000000000000000000000000000000000000000000000000000815260206004820152602160248201527f4175746f6d6174653a206368616e676520746865206f776e6572206661696c6560448201527f640000000000000000000000000000000000000000000000000000000000000060648201526084016103d8565b6001805473ffffffffffffffffffffffffffffffffffffffff8381167fffffffffffffffffffffffff0000000000000000000000000000000000000000831681179093556040519116919082907f8be0079c531659141344cd1fd0a4f28419497f9722a3daafe3b4186f6b6457e090600090a35050565b6040517fdd62ed3e00000000000000000000000000000000000000000000000000000000815230600482015273ffffffffffffffffffffffffffffffffffffffff83811660248301526000919085169063dd62ed3e9060440160206040518083038186803b158015612a8557600080fd5b505afa158015612a99573d6000803e3d6000fd5b505050506040513d601f19601f82011682018060405250810190612abd919061339e565b90508015801590612acd57508181105b15612b7c576040517f095ea7b300000000000000000000000000000000000000000000000000000000815273ffffffffffffffffffffffffffffffffffffffff84811660048301526000602483015285169063095ea7b390604401602060405180830381600087803b158015612b4257600080fd5b505af1158015612b56573d6000803e3d6000fd5b505050506040513d601f19601f82011682018060405250810190612b7a9190613363565b505b818114611d6b576040517f095ea7b300000000000000000000000000000000000000000000000000000000815273ffffffffffffffffffffffffffffffffffffffff84811660048301526024820184905285169063095ea7b39060440161104d565b6000612be86110a6565b15612c4f576040517f08c379a000000000000000000000000000000000000000000000000000000000815260206004820152601060248201527f4175746f6d6174653a207061757365640000000000000000000000000000000060448201526064016103d8565b6000612c7060015473ffffffffffffffffffffffffffffffffffffffff1690565b90503273ffffffffffffffffffffffffffffffffffffffff82161415612c9a576000915050612eaa565b6000612ca46106be565b6040517f21f8a7210000000000000000000000000000000000000000000000000000000081527fe78c16c6d839536d3155985aab4e9c6013c8c3d446054bcebc48612f359d81f5600482015290915060009073ffffffffffffffffffffffffffffffffffffffff8316906321f8a7219060240160206040518083038186803b158015612d2f57600080fd5b505afa158015612d43573d6000803e3d6000fd5b505050506040513d601f19601f82011682018060405250810190612d679190613200565b905073ffffffffffffffffffffffffffffffffffffffff8116612e0c576040517f08c379a000000000000000000000000000000000000000000000000000000000815260206004820152602b60248201527f4175746f6d6174653a3a5f62696c6c3a2062616c616e636520636f6e7472616360448201527f74206e6f7420666f756e6400000000000000000000000000000000000000000060648201526084016103d8565b8073ffffffffffffffffffffffffffffffffffffffff1663e578a2258488612e3261180f565b896040518563ffffffff1660e01b8152600401612e5294939291906134d1565b602060405180830381600087803b158015612e6c57600080fd5b505af1158015612e80573d6000803e3d6000fd5b505050506040513d601f19601f82011682018060405250810190612ea4919061339e565b93505050505b92915050565b6020830151835160009173ffffffffffffffffffffffffffffffffffffffff91821691161415612ee25750815161305c565b60408051600280825260608201835260009260208301908036833750508651825192935091839150600090612f1957612f19613708565b73ffffffffffffffffffffffffffffffffffffffff92909216602092830291909101820152850151815182906001908110612f5657612f56613708565b73ffffffffffffffffffffffffffffffffffffffff928316602091820292909201810191909152600480548751928801516040517f38ed173900000000000000000000000000000000000000000000000000000000815291909416936338ed173993612fca939092879130918b9101613570565b600060405180830381600087803b158015612fe457600080fd5b505af1158015612ff8573d6000803e3d6000fd5b505050506040513d6000823e601f3d9081017fffffffffffffffffffffffffffffffffffffffffffffffffffffffffffffffe016820160405261303e91908101906132b6565b60018151811061305057613050613708565b60200260200101519150505b9392505050565b60045473ffffffffffffffffffffffffffffffffffffffff166130ae8184600060200201518660005b602002015173ffffffffffffffffffffffffffffffffffffffff169190612a14565b6130c281846001602002015186600161308c565b8351602080860151855191860151604080880151606089015191517fe8e3370000000000000000000000000000000000000000000000000000000000815273ffffffffffffffffffffffffffffffffffffffff9687166004820152938616602485015260448401949094526064830191909152608482019290925260a48101919091523060c482015260e481018490529082169063e8e337009061010401606060405180830381600087803b15801561317a57600080fd5b505af115801561318e573d6000803e3d6000fd5b505050506040513d601f19601f820116820180604052508101906120019190613453565b803561ffff811681146131c457600080fd5b919050565b805169ffffffffffffffffffff811681146131c457600080fd5b6000602082840312156131f557600080fd5b813561305c81613766565b60006020828403121561321257600080fd5b815161305c81613766565b6000806000806080858703121561323357600080fd5b843561323e81613766565b9350602085013561324e81613766565b925061325c604086016131b2565b915061326a606086016131b2565b905092959194509250565b60008060006060848603121561328a57600080fd5b833561329581613766565b925060208401356132a581613766565b929592945050506040919091013590565b600060208083850312156132c957600080fd5b825167ffffffffffffffff808211156132e157600080fd5b818501915085601f8301126132f557600080fd5b81518181111561330757613307613737565b8060051b91506133188483016135fb565b8181528481019084860184860187018a101561333357600080fd5b600095505b83861015613356578051835260019590950194918601918601613338565b5098975050505050505050565b60006020828403121561337557600080fd5b8151801515811461305c57600080fd5b60006020828403121561339757600080fd5b5035919050565b6000602082840312156133b057600080fd5b5051919050565b6000806000608084860312156133cc57600080fd5b83359250602080850135925085605f8601126133e757600080fd5b6040516040810181811067ffffffffffffffff8211171561340a5761340a613737565b806040525080604087018860808901111561342457600080fd5b60005b600281101561344457813583529184019190840190600101613427565b50505080925050509250925092565b60008060006060848603121561346857600080fd5b8351925060208401519150604084015190509250925092565b600080600080600060a0868803121561349957600080fd5b6134a2866131c9565b94506020860151935060408601519250606086015191506134c5608087016131c9565b90509295509295909350565b73ffffffffffffffffffffffffffffffffffffffff8516815260006020858184015284604084015260806060840152835180608085015260005b818110156135275785810183015185820160a00152820161350b565b8181111561353957600060a083870101525b50601f017fffffffffffffffffffffffffffffffffffffffffffffffffffffffffffffffe0169290920160a0019695505050505050565b600060a082018783526020878185015260a0604085015281875180845260c086019150828901935060005b818110156135cd57845173ffffffffffffffffffffffffffffffffffffffff168352938301939183019160010161359b565b505073ffffffffffffffffffffffffffffffffffffffff969096166060850152505050608001529392505050565b604051601f82017fffffffffffffffffffffffffffffffffffffffffffffffffffffffffffffffe016810167ffffffffffffffff8111828210171561364257613642613737565b604052919050565b600082613680577f4e487b7100000000000000000000000000000000000000000000000000000000600052601260045260246000fd5b500490565b6000817fffffffffffffffffffffffffffffffffffffffffffffffffffffffffffffffff04831182151516156136bd576136bd6136d9565b500290565b6000828210156136d4576136d46136d9565b500390565b7f4e487b7100000000000000000000000000000000000000000000000000000000600052601160045260246000fd5b7f4e487b7100000000000000000000000000000000000000000000000000000000600052603260045260246000fd5b7f4e487b7100000000000000000000000000000000000000000000000000000000600052604160045260246000fd5b73ffffffffffffffffffffffffffffffffffffffff8116811461378857600080fd5b5056fea164736f6c6343000806000a",
  "deployedBytecode": "0x608060405234801561001057600080fd5b506004361061011b5760003560e01c80635c975abb116100b2578063b0e21e8a11610081578063d0e30db011610066578063d0e30db014610297578063dd9255511461029f578063f2fde38b146102b257600080fd5b8063b0e21e8a1461026e578063beabacc81461028457600080fd5b80635c975abb1461021d5780638456cb59146102355780638da5cb5b1461023d5780639742b5c31461025b57600080fd5b80633e032a3b116100ee5780633e032a3b146101c25780633f4ba83a146101e85780634cf088d9146101f0578063590e1ae31461021557600080fd5b80631b586aff14610120578063247029441461013557806329dcb0cf1461017f578063370158ea146101ba575b600080fd5b61013361012e36600461321d565b6102c5565b005b6004546101559073ffffffffffffffffffffffffffffffffffffffff1681565b60405173ffffffffffffffffffffffffffffffffffffffff90911681526020015b60405180910390f35b6004546101a790760100000000000000000000000000000000000000000000900461ffff1681565b60405161ffff9091168152602001610176565b6101556106be565b6004546101a79074010000000000000000000000000000000000000000900461ffff1681565b610133610820565b60035461015590610100900473ffffffffffffffffffffffffffffffffffffffff1681565b610133610bb2565b6102256110a6565b6040519015158152602001610176565b61013361122b565b60015473ffffffffffffffffffffffffffffffffffffffff16610155565b610133610269366004613385565b6115d5565b61027661180f565b604051908152602001610176565b610133610292366004613275565b611c1c565b610133611d71565b6101336102ad3660046133b7565b61200a565b6101336102c03660046131e3565b6127b5565b60015473ffffffffffffffffffffffffffffffffffffffff1661033557600180547fffffffffffffffffffffffff000000000000000000000000000000000000000016321790557fffffffffffffffffffffffffffffffffffffffffffffffffffffffffffffffff6002556103e1565b60015473ffffffffffffffffffffffffffffffffffffffff1633146103e1576040517f08c379a000000000000000000000000000000000000000000000000000000000815260206004820152602160248201527f4175746f6d6174653a2063616c6c6572206973206e6f7420746865206f776e6560448201527f720000000000000000000000000000000000000000000000000000000000000060648201526084015b60405180910390fd5b60035460ff161580610412575060035473ffffffffffffffffffffffffffffffffffffffff85811661010090920416145b6104c4576040517f08c379a000000000000000000000000000000000000000000000000000000000815260206004820152604760248201527f53796e746865746978556e69737761704c7052657374616b653a3a696e69743a60448201527f207265696e697469616c697a65207374616b696e67206164647265737320666f60648201527f7262696464656e00000000000000000000000000000000000000000000000000608482015260a4016103d8565b6003805473ffffffffffffffffffffffffffffffffffffffff8616610100027fffffffffffffffffffffff0000000000000000000000000000000000000000ff8216811790925560ff9182169116171580610539575060045473ffffffffffffffffffffffffffffffffffffffff8481169116145b6105eb576040517f08c379a000000000000000000000000000000000000000000000000000000000815260206004820152605060248201527f53796e746865746978556e69737761704c7052657374616b653a3a696e69743a60448201527f207265696e697469616c697a65206c697175696469747920726f75746572206160648201527f64647265737320666f7262696464656e00000000000000000000000000000000608482015260a4016103d8565b6004805473ffffffffffffffffffffffffffffffffffffffff949094167fffffffffffffffffffff00000000000000000000000000000000000000000000909416939093177401000000000000000000000000000000000000000061ffff93841602177fffffffffffffffff0000ffffffffffffffffffffffffffffffffffffffffffff16760100000000000000000000000000000000000000000000919092160217905550600380547fffffffffffffffffffffffffffffffffffffffffffffffffffffffffffffff00166001179055565b6040517f6b880718000000000000000000000000000000000000000000000000000000008152306004820152600090819073__$0bac19a4f6859fb91e3c64d76ce49d598f$__90636b8807189060240160206040518083038186803b15801561072657600080fd5b505af415801561073a573d6000803e3d6000fd5b505050506040513d601f19601f8201168201806040525081019061075e9190613200565b905073ffffffffffffffffffffffffffffffffffffffff811630141561079c57505060005473ffffffffffffffffffffffffffffffffffffffff1690565b8073ffffffffffffffffffffffffffffffffffffffff1663370158ea6040518163ffffffff1660e01b815260040160206040518083038186803b1580156107e257600080fd5b505afa1580156107f6573d6000803e3d6000fd5b505050506040513d601f19601f8201168201806040525081019061081a9190613200565b91505090565b6040517f6b88071800000000000000000000000000000000000000000000000000000000815230600482018190529073__$0bac19a4f6859fb91e3c64d76ce49d598f$__90636b8807189060240160206040518083038186803b15801561088657600080fd5b505af415801561089a573d6000803e3d6000fd5b505050506040513d601f19601f820116820180604052508101906108be9190613200565b73ffffffffffffffffffffffffffffffffffffffff161415610a735760006108e46106be565b6040517f21f8a7210000000000000000000000000000000000000000000000000000000081527f689d13d8ed8ef1027633ba26e7121121cf427434450a529548f19bf175974395600482015273ffffffffffffffffffffffffffffffffffffffff91909116906321f8a7219060240160206040518083038186803b15801561096b57600080fd5b505afa15801561097f573d6000803e3d6000fd5b505050506040513d601f19601f820116820180604052508101906109a39190613200565b60015490915073ffffffffffffffffffffffffffffffffffffffff163314806109e157503373ffffffffffffffffffffffffffffffffffffffff8216145b610a6d576040517f08c379a000000000000000000000000000000000000000000000000000000000815260206004820152602260248201527f4175746f6d6174653a2063616c6c6572206973206e6f7420746865207061757360448201527f657200000000000000000000000000000000000000000000000000000000000060648201526084016103d8565b50610b1a565b60015473ffffffffffffffffffffffffffffffffffffffff163314610b1a576040517f08c379a000000000000000000000000000000000000000000000000000000000815260206004820152602260248201527f4175746f6d6174653a2063616c6c6572206973206e6f7420746865207061757360448201527f657200000000000000000000000000000000000000000000000000000000000060648201526084016103d8565b610b226110a6565b610b88576040517f08c379a000000000000000000000000000000000000000000000000000000000815260206004820152601460248201527f4175746f6d6174653a206e6f742070617573656400000000000000000000000060448201526064016103d8565b600180547fffffffffffffffffffffff00ffffffffffffffffffffffffffffffffffffffff169055565b60015473ffffffffffffffffffffffffffffffffffffffff163314610c59576040517f08c379a000000000000000000000000000000000000000000000000000000000815260206004820152602160248201527f4175746f6d6174653a2063616c6c6572206973206e6f7420746865206f776e6560448201527f720000000000000000000000000000000000000000000000000000000000000060648201526084016103d8565b6000600360019054906101000a900473ffffffffffffffffffffffffffffffffffffffff1690508073ffffffffffffffffffffffffffffffffffffffff1663e9fad8ee6040518163ffffffff1660e01b8152600401600060405180830381600087803b158015610cc857600080fd5b505af1158015610cdc573d6000803e3d6000fd5b505050506000610d0160015473ffffffffffffffffffffffffffffffffffffffff1690565b905060008273ffffffffffffffffffffffffffffffffffffffff166372f702f36040518163ffffffff1660e01b815260040160206040518083038186803b158015610d4b57600080fd5b505afa158015610d5f573d6000803e3d6000fd5b505050506040513d601f19601f82011682018060405250810190610d839190613200565b6040517f70a0823100000000000000000000000000000000000000000000000000000000815230600482015290915073ffffffffffffffffffffffffffffffffffffffff82169063a9059cbb90849083906370a082319060240160206040518083038186803b158015610df557600080fd5b505afa158015610e09573d6000803e3d6000fd5b505050506040513d601f19601f82011682018060405250810190610e2d919061339e565b6040517fffffffff0000000000000000000000000000000000000000000000000000000060e085901b16815273ffffffffffffffffffffffffffffffffffffffff90921660048301526024820152604401602060405180830381600087803b158015610e9857600080fd5b505af1158015610eac573d6000803e3d6000fd5b505050506040513d601f19601f82011682018060405250810190610ed09190613363565b5060008373ffffffffffffffffffffffffffffffffffffffff1663d1af0c7d6040518163ffffffff1660e01b815260040160206040518083038186803b158015610f1957600080fd5b505afa158015610f2d573d6000803e3d6000fd5b505050506040513d601f19601f82011682018060405250810190610f519190613200565b6040517f70a0823100000000000000000000000000000000000000000000000000000000815230600482015290915073ffffffffffffffffffffffffffffffffffffffff82169063a9059cbb90859083906370a082319060240160206040518083038186803b158015610fc357600080fd5b505afa158015610fd7573d6000803e3d6000fd5b505050506040513d601f19601f82011682018060405250810190610ffb919061339e565b6040517fffffffff0000000000000000000000000000000000000000000000000000000060e085901b16815273ffffffffffffffffffffffffffffffffffffffff909216600483015260248201526044015b602060405180830381600087803b15801561106757600080fd5b505af115801561107b573d6000803e3d6000fd5b505050506040513d601f19601f8201168201806040525081019061109f9190613363565b5050505050565b6040517f6b880718000000000000000000000000000000000000000000000000000000008152306004820152600090819073__$0bac19a4f6859fb91e3c64d76ce49d598f$__90636b8807189060240160206040518083038186803b15801561110e57600080fd5b505af4158015611122573d6000803e3d6000fd5b505050506040513d601f19601f820116820180604052508101906111469190613200565b905073ffffffffffffffffffffffffffffffffffffffff811630141561118957505060015474010000000000000000000000000000000000000000900460ff1690565b60015474010000000000000000000000000000000000000000900460ff168061081a57508073ffffffffffffffffffffffffffffffffffffffff16635c975abb6040518163ffffffff1660e01b815260040160206040518083038186803b1580156111f357600080fd5b505afa158015611207573d6000803e3d6000fd5b505050506040513d601f19601f8201168201806040525081019061081a9190613363565b6040517f6b88071800000000000000000000000000000000000000000000000000000000815230600482018190529073__$0bac19a4f6859fb91e3c64d76ce49d598f$__90636b8807189060240160206040518083038186803b15801561129157600080fd5b505af41580156112a5573d6000803e3d6000fd5b505050506040513d601f19601f820116820180604052508101906112c99190613200565b73ffffffffffffffffffffffffffffffffffffffff16141561147e5760006112ef6106be565b6040517f21f8a7210000000000000000000000000000000000000000000000000000000081527f689d13d8ed8ef1027633ba26e7121121cf427434450a529548f19bf175974395600482015273ffffffffffffffffffffffffffffffffffffffff91909116906321f8a7219060240160206040518083038186803b15801561137657600080fd5b505afa15801561138a573d6000803e3d6000fd5b505050506040513d601f19601f820116820180604052508101906113ae9190613200565b60015490915073ffffffffffffffffffffffffffffffffffffffff163314806113ec57503373ffffffffffffffffffffffffffffffffffffffff8216145b611478576040517f08c379a000000000000000000000000000000000000000000000000000000000815260206004820152602260248201527f4175746f6d6174653a2063616c6c6572206973206e6f7420746865207061757360448201527f657200000000000000000000000000000000000000000000000000000000000060648201526084016103d8565b50611525565b60015473ffffffffffffffffffffffffffffffffffffffff163314611525576040517f08c379a000000000000000000000000000000000000000000000000000000000815260206004820152602260248201527f4175746f6d6174653a2063616c6c6572206973206e6f7420746865207061757360448201527f657200000000000000000000000000000000000000000000000000000000000060648201526084016103d8565b61152d6110a6565b15611594576040517f08c379a000000000000000000000000000000000000000000000000000000000815260206004820152601060248201527f4175746f6d6174653a207061757365640000000000000000000000000000000060448201526064016103d8565b600180547fffffffffffffffffffffff00ffffffffffffffffffffffffffffffffffffffff1674010000000000000000000000000000000000000000179055565b6040517f6b88071800000000000000000000000000000000000000000000000000000000815230600482015260009073__$0bac19a4f6859fb91e3c64d76ce49d598f$__90636b8807189060240160206040518083038186803b15801561163b57600080fd5b505af415801561164f573d6000803e3d6000fd5b505050506040513d601f19601f820116820180604052508101906116739190613200565b90503373ffffffffffffffffffffffffffffffffffffffff82163014611716578173ffffffffffffffffffffffffffffffffffffffff16638da5cb5b6040518163ffffffff1660e01b815260040160206040518083038186803b1580156116d957600080fd5b505afa1580156116ed573d6000803e3d6000fd5b505050506040513d601f19601f820116820180604052508101906117119190613200565b611730565b60015473ffffffffffffffffffffffffffffffffffffffff165b73ffffffffffffffffffffffffffffffffffffffff16146117d3576040517f08c379a000000000000000000000000000000000000000000000000000000000815260206004820152603d60248201527f4175746f6d6174653a3a6368616e676550726f746f636f6c4665653a2063616c60448201527f6c6572206973206e6f74207468652070726f746f636f6c206f776e657200000060648201526084016103d8565b60028290556040518281527f3c1d43943224e49d951ce8295a5c8332b517083b3f89bed50feae2cb39caebb59060200160405180910390a15050565b6040517f6b880718000000000000000000000000000000000000000000000000000000008152306004820152600090819073__$0bac19a4f6859fb91e3c64d76ce49d598f$__90636b8807189060240160206040518083038186803b15801561187757600080fd5b505af415801561188b573d6000803e3d6000fd5b505050506040513d601f19601f820116820180604052508101906118af9190613200565b905073ffffffffffffffffffffffffffffffffffffffff811630148015906118d957506000600254125b1561195c578073ffffffffffffffffffffffffffffffffffffffff1663b0e21e8a6040518163ffffffff1660e01b815260040160206040518083038186803b15801561192457600080fd5b505afa158015611938573d6000803e3d6000fd5b505050506040513d601f19601f8201168201806040525081019061081a919061339e565b60006119666106be565b90506000806002541261197b57600254611a38565b6040517fbd02d0f50000000000000000000000000000000000000000000000000000000081527fa93d95f96a5de25d7a41ddf1f5e8d45cfc929c4838163cf011dab4043a4a40d5600482015273ffffffffffffffffffffffffffffffffffffffff83169063bd02d0f59060240160206040518083038186803b158015611a0057600080fd5b505afa158015611a14573d6000803e3d6000fd5b505050506040513d601f19601f82011682018060405250810190611a38919061339e565b905080611a49576000935050505090565b6040517f21f8a7210000000000000000000000000000000000000000000000000000000081527f65c90423fe7c880476633a7e36521740f87199d233dc56eb4ca6643eb76f605f600482015260009073ffffffffffffffffffffffffffffffffffffffff8416906321f8a7219060240160206040518083038186803b158015611ad157600080fd5b505afa158015611ae5573d6000803e3d6000fd5b505050506040513d601f19601f82011682018060405250810190611b099190613200565b73ffffffffffffffffffffffffffffffffffffffff1663feaf968c6040518163ffffffff1660e01b815260040160a06040518083038186803b158015611b4e57600080fd5b505afa158015611b62573d6000803e3d6000fd5b505050506040513d601f19601f82011682018060405250810190611b869190613481565b50505091505060008113611bf6576040517f08c379a000000000000000000000000000000000000000000000000000000000815260206004820152601760248201527f4175746f6d6174653a20696e76616c696420707269636500000000000000000060448201526064016103d8565b80611c0983670de0b6b3a7640000613685565b611c13919061364a565b94505050505090565b60015473ffffffffffffffffffffffffffffffffffffffff163314611cc3576040517f08c379a000000000000000000000000000000000000000000000000000000000815260206004820152602160248201527f4175746f6d6174653a2063616c6c6572206973206e6f7420746865206f776e6560448201527f720000000000000000000000000000000000000000000000000000000000000060648201526084016103d8565b6040517fa9059cbb00000000000000000000000000000000000000000000000000000000815273ffffffffffffffffffffffffffffffffffffffff83811660048301526024820183905284169063a9059cbb90604401602060405180830381600087803b158015611d3357600080fd5b505af1158015611d47573d6000803e3d6000fd5b505050506040513d601f19601f82011682018060405250810190611d6b9190613363565b50505050565b60015473ffffffffffffffffffffffffffffffffffffffff163314611e18576040517f08c379a000000000000000000000000000000000000000000000000000000000815260206004820152602160248201527f4175746f6d6174653a2063616c6c6572206973206e6f7420746865206f776e6560448201527f720000000000000000000000000000000000000000000000000000000000000060648201526084016103d8565b6000600360019054906101000a900473ffffffffffffffffffffffffffffffffffffffff16905060008173ffffffffffffffffffffffffffffffffffffffff166372f702f36040518163ffffffff1660e01b815260040160206040518083038186803b158015611e8757600080fd5b505afa158015611e9b573d6000803e3d6000fd5b505050506040513d601f19601f82011682018060405250810190611ebf9190613200565b6040517f70a0823100000000000000000000000000000000000000000000000000000000815230600482015290915060009073ffffffffffffffffffffffffffffffffffffffff8316906370a082319060240160206040518083038186803b158015611f2a57600080fd5b505afa158015611f3e573d6000803e3d6000fd5b505050506040513d601f19601f82011682018060405250810190611f62919061339e565b9050611f8573ffffffffffffffffffffffffffffffffffffffff83168483612a14565b6040517fa694fc3a0000000000000000000000000000000000000000000000000000000081526004810182905273ffffffffffffffffffffffffffffffffffffffff84169063a694fc3a90602401600060405180830381600087803b158015611fed57600080fd5b505af1158015612001573d6000803e3d6000fd5b50505050505050565b826040518060400160405280601d81526020017f426f6e646170706574697453796e7468657469784c5052657374616b6500000081525061204b8282612bde565b506003546040517e8cc26200000000000000000000000000000000000000000000000000000000815230600482015261010090910473ffffffffffffffffffffffffffffffffffffffff16906000908290628cc2629060240160206040518083038186803b1580156120bc57600080fd5b505afa1580156120d0573d6000803e3d6000fd5b505050506040513d601f19601f820116820180604052508101906120f4919061339e565b11612181576040517f08c379a000000000000000000000000000000000000000000000000000000000815260206004820152602960248201527f53796e746865746978556e69737761704c7052657374616b653a3a72756e3a2060448201527f6e6f206561726e6564000000000000000000000000000000000000000000000060648201526084016103d8565b8073ffffffffffffffffffffffffffffffffffffffff16633d18b9126040518163ffffffff1660e01b8152600401600060405180830381600087803b1580156121c957600080fd5b505af11580156121dd573d6000803e3d6000fd5b5050505060008173ffffffffffffffffffffffffffffffffffffffff1663d1af0c7d6040518163ffffffff1660e01b815260040160206040518083038186803b15801561222957600080fd5b505afa15801561223d573d6000803e3d6000fd5b505050506040513d601f19601f820116820180604052508101906122619190613200565b6040517f70a0823100000000000000000000000000000000000000000000000000000000815230600482015290915060009073ffffffffffffffffffffffffffffffffffffffff8316906370a082319060240160206040518083038186803b1580156122cc57600080fd5b505afa1580156122e0573d6000803e3d6000fd5b505050506040513d601f19601f82011682018060405250810190612304919061339e565b60045490915061232e9073ffffffffffffffffffffffffffffffffffffffff848116911683612a14565b60008373ffffffffffffffffffffffffffffffffffffffff166372f702f36040518163ffffffff1660e01b815260040160206040518083038186803b15801561237657600080fd5b505afa15801561238a573d6000803e3d6000fd5b505050506040513d601f19601f820116820180604052508101906123ae9190613200565b9050600060405180604001604052808373ffffffffffffffffffffffffffffffffffffffff16630dfe16816040518163ffffffff1660e01b815260040160206040518083038186803b15801561240357600080fd5b505afa158015612417573d6000803e3d6000fd5b505050506040513d601f19601f8201168201806040525081019061243b9190613200565b73ffffffffffffffffffffffffffffffffffffffff1673ffffffffffffffffffffffffffffffffffffffff1681526020018373ffffffffffffffffffffffffffffffffffffffff1663d21220a76040518163ffffffff1660e01b815260040160206040518083038186803b1580156124b257600080fd5b505afa1580156124c6573d6000803e3d6000fd5b505050506040513d601f19601f820116820180604052508101906124ea9190613200565b73ffffffffffffffffffffffffffffffffffffffff9081169091526040805160c08101825287831660808201908152845190931660a0820152815180830190925292935060009291829161255b91908061254560028b61364a565b81526020018e60005b602002015190528e612eb0565b81526020016125fd60405180604001604052808973ffffffffffffffffffffffffffffffffffffffff1673ffffffffffffffffffffffffffffffffffffffff168152602001866001600281106125b3576125b3613708565b602002015173ffffffffffffffffffffffffffffffffffffffff16905260408051808201909152806125e660028b61364a565b6125f0908b6136c2565b81526020018e600161254e565b8152602001600081526020016000815250905061266460405180604001604052808460006002811061263157612631613708565b6020908102919091015173ffffffffffffffffffffffffffffffffffffffff90811683528682015116910152828c613063565b6040517f70a0823100000000000000000000000000000000000000000000000000000000815230600482015260009073ffffffffffffffffffffffffffffffffffffffff8516906370a082319060240160206040518083038186803b1580156126cc57600080fd5b505afa1580156126e0573d6000803e3d6000fd5b505050506040513d601f19601f82011682018060405250810190612704919061339e565b905061272773ffffffffffffffffffffffffffffffffffffffff85168883612a14565b6040517fa694fc3a0000000000000000000000000000000000000000000000000000000081526004810182905273ffffffffffffffffffffffffffffffffffffffff88169063a694fc3a90602401600060405180830381600087803b15801561278f57600080fd5b505af11580156127a3573d6000803e3d6000fd5b50505050505050505050505050505050565b60015473ffffffffffffffffffffffffffffffffffffffff16331461285c576040517f08c379a000000000000000000000000000000000000000000000000000000000815260206004820152602160248201527f4175746f6d6174653a2063616c6c6572206973206e6f7420746865206f776e6560448201527f720000000000000000000000000000000000000000000000000000000000000060648201526084016103d8565b6040517f6b88071800000000000000000000000000000000000000000000000000000000815230600482018190529073__$0bac19a4f6859fb91e3c64d76ce49d598f$__90636b8807189060240160206040518083038186803b1580156128c257600080fd5b505af41580156128d6573d6000803e3d6000fd5b505050506040513d601f19601f820116820180604052508101906128fa9190613200565b73ffffffffffffffffffffffffffffffffffffffff161461299d576040517f08c379a000000000000000000000000000000000000000000000000000000000815260206004820152602160248201527f4175746f6d6174653a206368616e676520746865206f776e6572206661696c6560448201527f640000000000000000000000000000000000000000000000000000000000000060648201526084016103d8565b6001805473ffffffffffffffffffffffffffffffffffffffff8381167fffffffffffffffffffffffff0000000000000000000000000000000000000000831681179093556040519116919082907f8be0079c531659141344cd1fd0a4f28419497f9722a3daafe3b4186f6b6457e090600090a35050565b6040517fdd62ed3e00000000000000000000000000000000000000000000000000000000815230600482015273ffffffffffffffffffffffffffffffffffffffff83811660248301526000919085169063dd62ed3e9060440160206040518083038186803b158015612a8557600080fd5b505afa158015612a99573d6000803e3d6000fd5b505050506040513d601f19601f82011682018060405250810190612abd919061339e565b90508015801590612acd57508181105b15612b7c576040517f095ea7b300000000000000000000000000000000000000000000000000000000815273ffffffffffffffffffffffffffffffffffffffff84811660048301526000602483015285169063095ea7b390604401602060405180830381600087803b158015612b4257600080fd5b505af1158015612b56573d6000803e3d6000fd5b505050506040513d601f19601f82011682018060405250810190612b7a9190613363565b505b818114611d6b576040517f095ea7b300000000000000000000000000000000000000000000000000000000815273ffffffffffffffffffffffffffffffffffffffff84811660048301526024820184905285169063095ea7b39060440161104d565b6000612be86110a6565b15612c4f576040517f08c379a000000000000000000000000000000000000000000000000000000000815260206004820152601060248201527f4175746f6d6174653a207061757365640000000000000000000000000000000060448201526064016103d8565b6000612c7060015473ffffffffffffffffffffffffffffffffffffffff1690565b90503273ffffffffffffffffffffffffffffffffffffffff82161415612c9a576000915050612eaa565b6000612ca46106be565b6040517f21f8a7210000000000000000000000000000000000000000000000000000000081527fe78c16c6d839536d3155985aab4e9c6013c8c3d446054bcebc48612f359d81f5600482015290915060009073ffffffffffffffffffffffffffffffffffffffff8316906321f8a7219060240160206040518083038186803b158015612d2f57600080fd5b505afa158015612d43573d6000803e3d6000fd5b505050506040513d601f19601f82011682018060405250810190612d679190613200565b905073ffffffffffffffffffffffffffffffffffffffff8116612e0c576040517f08c379a000000000000000000000000000000000000000000000000000000000815260206004820152602b60248201527f4175746f6d6174653a3a5f62696c6c3a2062616c616e636520636f6e7472616360448201527f74206e6f7420666f756e6400000000000000000000000000000000000000000060648201526084016103d8565b8073ffffffffffffffffffffffffffffffffffffffff1663e578a2258488612e3261180f565b896040518563ffffffff1660e01b8152600401612e5294939291906134d1565b602060405180830381600087803b158015612e6c57600080fd5b505af1158015612e80573d6000803e3d6000fd5b505050506040513d601f19601f82011682018060405250810190612ea4919061339e565b93505050505b92915050565b6020830151835160009173ffffffffffffffffffffffffffffffffffffffff91821691161415612ee25750815161305c565b60408051600280825260608201835260009260208301908036833750508651825192935091839150600090612f1957612f19613708565b73ffffffffffffffffffffffffffffffffffffffff92909216602092830291909101820152850151815182906001908110612f5657612f56613708565b73ffffffffffffffffffffffffffffffffffffffff928316602091820292909201810191909152600480548751928801516040517f38ed173900000000000000000000000000000000000000000000000000000000815291909416936338ed173993612fca939092879130918b9101613570565b600060405180830381600087803b158015612fe457600080fd5b505af1158015612ff8573d6000803e3d6000fd5b505050506040513d6000823e601f3d9081017fffffffffffffffffffffffffffffffffffffffffffffffffffffffffffffffe016820160405261303e91908101906132b6565b60018151811061305057613050613708565b60200260200101519150505b9392505050565b60045473ffffffffffffffffffffffffffffffffffffffff166130ae8184600060200201518660005b602002015173ffffffffffffffffffffffffffffffffffffffff169190612a14565b6130c281846001602002015186600161308c565b8351602080860151855191860151604080880151606089015191517fe8e3370000000000000000000000000000000000000000000000000000000000815273ffffffffffffffffffffffffffffffffffffffff9687166004820152938616602485015260448401949094526064830191909152608482019290925260a48101919091523060c482015260e481018490529082169063e8e337009061010401606060405180830381600087803b15801561317a57600080fd5b505af115801561318e573d6000803e3d6000fd5b505050506040513d601f19601f820116820180604052508101906120019190613453565b803561ffff811681146131c457600080fd5b919050565b805169ffffffffffffffffffff811681146131c457600080fd5b6000602082840312156131f557600080fd5b813561305c81613766565b60006020828403121561321257600080fd5b815161305c81613766565b6000806000806080858703121561323357600080fd5b843561323e81613766565b9350602085013561324e81613766565b925061325c604086016131b2565b915061326a606086016131b2565b905092959194509250565b60008060006060848603121561328a57600080fd5b833561329581613766565b925060208401356132a581613766565b929592945050506040919091013590565b600060208083850312156132c957600080fd5b825167ffffffffffffffff808211156132e157600080fd5b818501915085601f8301126132f557600080fd5b81518181111561330757613307613737565b8060051b91506133188483016135fb565b8181528481019084860184860187018a101561333357600080fd5b600095505b83861015613356578051835260019590950194918601918601613338565b5098975050505050505050565b60006020828403121561337557600080fd5b8151801515811461305c57600080fd5b60006020828403121561339757600080fd5b5035919050565b6000602082840312156133b057600080fd5b5051919050565b6000806000608084860312156133cc57600080fd5b83359250602080850135925085605f8601126133e757600080fd5b6040516040810181811067ffffffffffffffff8211171561340a5761340a613737565b806040525080604087018860808901111561342457600080fd5b60005b600281101561344457813583529184019190840190600101613427565b50505080925050509250925092565b60008060006060848603121561346857600080fd5b8351925060208401519150604084015190509250925092565b600080600080600060a0868803121561349957600080fd5b6134a2866131c9565b94506020860151935060408601519250606086015191506134c5608087016131c9565b90509295509295909350565b73ffffffffffffffffffffffffffffffffffffffff8516815260006020858184015284604084015260806060840152835180608085015260005b818110156135275785810183015185820160a00152820161350b565b8181111561353957600060a083870101525b50601f017fffffffffffffffffffffffffffffffffffffffffffffffffffffffffffffffe0169290920160a0019695505050505050565b600060a082018783526020878185015260a0604085015281875180845260c086019150828901935060005b818110156135cd57845173ffffffffffffffffffffffffffffffffffffffff168352938301939183019160010161359b565b505073ffffffffffffffffffffffffffffffffffffffff969096166060850152505050608001529392505050565b604051601f82017fffffffffffffffffffffffffffffffffffffffffffffffffffffffffffffffe016810167ffffffffffffffff8111828210171561364257613642613737565b604052919050565b600082613680577f4e487b7100000000000000000000000000000000000000000000000000000000600052601260045260246000fd5b500490565b6000817fffffffffffffffffffffffffffffffffffffffffffffffffffffffffffffffff04831182151516156136bd576136bd6136d9565b500290565b6000828210156136d4576136d46136d9565b500390565b7f4e487b7100000000000000000000000000000000000000000000000000000000600052601160045260246000fd5b7f4e487b7100000000000000000000000000000000000000000000000000000000600052603260045260246000fd5b7f4e487b7100000000000000000000000000000000000000000000000000000000600052604160045260246000fd5b73ffffffffffffffffffffffffffffffffffffffff8116811461378857600080fd5b5056fea164736f6c6343000806000a",
  "libraries": {
    "ERC1167": "0x7ecFCbdeb6f195030B9Bf2ECc402f6d5433d116D"
  },
  "devdoc": {
    "kind": "dev",
    "methods": {
      "changeProtocolFee(int256)": {
        "params": {
          "__protocolFee": "New protocol fee."
        }
      },
      "protocolFee()": {
        "returns": {
          "_0": "Current protocol fee."
        }
      },
      "transfer(address,address,uint256)": {
        "params": {
          "amount": "Transferred amount of tokens.",
          "recipient": "Token recipient address.",
          "token": "The address of the token to be transferred."
        }
      },
      "transferOwnership(address)": {
        "details": "Transfers ownership of the contract to a new account (`newOwner`). Can only be called by the current owner."
      }
    },
    "version": 1
  },
  "userdoc": {
    "kind": "user",
    "methods": {
      "changeProtocolFee(int256)": {
        "notice": "Change protocol fee."
      },
      "info()": {
        "notice": "Returns address of Storage contract."
      },
      "owner()": {
        "notice": "Returns the address of the current owner."
      },
      "pause()": {
        "notice": "Pause contract."
      },
      "paused()": {
        "notice": "Returns true if the contract is paused, and false otherwise."
      },
      "transfer(address,address,uint256)": {
        "notice": "Transfer ERC20 token to recipient."
      },
      "unpause()": {
        "notice": "Unpause contract."
      }
    },
    "version": 1
  },
  "storageLayout": {
    "storage": [
      {
        "astId": 4892,
        "contract": "automates/bondappetit/SynthetixUniswapLpRestake.automate.sol:SynthetixUniswapLpRestake",
        "label": "_info",
        "offset": 0,
        "slot": "0",
        "type": "t_address"
      },
      {
        "astId": 4895,
        "contract": "automates/bondappetit/SynthetixUniswapLpRestake.automate.sol:SynthetixUniswapLpRestake",
        "label": "_owner",
        "offset": 0,
        "slot": "1",
        "type": "t_address"
      },
      {
        "astId": 4898,
        "contract": "automates/bondappetit/SynthetixUniswapLpRestake.automate.sol:SynthetixUniswapLpRestake",
        "label": "_paused",
        "offset": 20,
        "slot": "1",
        "type": "t_bool"
      },
      {
        "astId": 4901,
        "contract": "automates/bondappetit/SynthetixUniswapLpRestake.automate.sol:SynthetixUniswapLpRestake",
        "label": "_protocolFee",
        "offset": 0,
        "slot": "2",
        "type": "t_int256"
      },
      {
        "astId": 4904,
        "contract": "automates/bondappetit/SynthetixUniswapLpRestake.automate.sol:SynthetixUniswapLpRestake",
        "label": "_initialized",
        "offset": 0,
        "slot": "3",
        "type": "t_bool"
      },
      {
        "astId": 1527,
        "contract": "automates/bondappetit/SynthetixUniswapLpRestake.automate.sol:SynthetixUniswapLpRestake",
        "label": "staking",
        "offset": 1,
        "slot": "3",
        "type": "t_contract(IStaking)6027"
      },
      {
        "astId": 1529,
        "contract": "automates/bondappetit/SynthetixUniswapLpRestake.automate.sol:SynthetixUniswapLpRestake",
        "label": "liquidityRouter",
        "offset": 0,
        "slot": "4",
        "type": "t_address"
      },
      {
        "astId": 1531,
        "contract": "automates/bondappetit/SynthetixUniswapLpRestake.automate.sol:SynthetixUniswapLpRestake",
        "label": "slippage",
        "offset": 20,
        "slot": "4",
        "type": "t_uint16"
      },
      {
        "astId": 1533,
        "contract": "automates/bondappetit/SynthetixUniswapLpRestake.automate.sol:SynthetixUniswapLpRestake",
        "label": "deadline",
        "offset": 22,
        "slot": "4",
        "type": "t_uint16"
      }
    ],
    "types": {
      "t_address": {
        "encoding": "inplace",
        "label": "address",
        "numberOfBytes": "20"
      },
      "t_bool": {
        "encoding": "inplace",
        "label": "bool",
        "numberOfBytes": "1"
      },
      "t_contract(IStaking)6027": {
        "encoding": "inplace",
        "label": "contract IStaking",
        "numberOfBytes": "20"
      },
      "t_int256": {
        "encoding": "inplace",
        "label": "int256",
        "numberOfBytes": "32"
      },
      "t_uint16": {
        "encoding": "inplace",
        "label": "uint16",
        "numberOfBytes": "2"
      }
    }
  }
}