{
  "address": "0xF11438cFDC2B8463A1F4d79C3825930a233C76bd",
  "abi": [
    {
      "inputs": [
        {
          "internalType": "address",
          "name": "_info",
          "type": "address"
        }
      ],
      "stateMutability": "nonpayable",
      "type": "constructor"
    },
    {
      "anonymous": false,
      "inputs": [
        {
          "indexed": true,
          "internalType": "address",
          "name": "previousOwner",
          "type": "address"
        },
        {
          "indexed": true,
          "internalType": "address",
          "name": "newOwner",
          "type": "address"
        }
      ],
      "name": "OwnershipTransferred",
      "type": "event"
    },
    {
      "anonymous": false,
      "inputs": [
        {
          "indexed": false,
          "internalType": "int256",
          "name": "protocolFee",
          "type": "int256"
        }
      ],
      "name": "ProtocolFeeChanged",
      "type": "event"
    },
    {
      "inputs": [
        {
          "internalType": "uint256",
          "name": "amount",
          "type": "uint256"
        }
      ],
      "name": "calcTokenAmount",
      "outputs": [
        {
          "internalType": "uint256",
          "name": "",
          "type": "uint256"
        }
      ],
      "stateMutability": "view",
      "type": "function"
    },
    {
      "inputs": [
        {
          "internalType": "int256",
          "name": "__protocolFee",
          "type": "int256"
        }
      ],
      "name": "changeProtocolFee",
      "outputs": [],
      "stateMutability": "nonpayable",
      "type": "function"
    },
    {
      "inputs": [],
      "name": "deadline",
      "outputs": [
        {
          "internalType": "uint16",
          "name": "",
          "type": "uint16"
        }
      ],
      "stateMutability": "view",
      "type": "function"
    },
    {
      "inputs": [],
      "name": "deposit",
      "outputs": [],
      "stateMutability": "nonpayable",
      "type": "function"
    },
    {
      "inputs": [],
      "name": "info",
      "outputs": [
        {
          "internalType": "address",
          "name": "",
          "type": "address"
        }
      ],
      "stateMutability": "view",
      "type": "function"
    },
    {
      "inputs": [
        {
          "internalType": "address",
          "name": "_staking",
          "type": "address"
        },
        {
          "internalType": "address",
          "name": "_swapToken",
          "type": "address"
        },
        {
          "internalType": "uint16",
          "name": "_slippage",
          "type": "uint16"
        },
        {
          "internalType": "uint16",
          "name": "_deadline",
          "type": "uint16"
        }
      ],
      "name": "init",
      "outputs": [],
      "stateMutability": "nonpayable",
      "type": "function"
    },
    {
      "inputs": [],
      "name": "owner",
      "outputs": [
        {
          "internalType": "address",
          "name": "",
          "type": "address"
        }
      ],
      "stateMutability": "view",
      "type": "function"
    },
    {
      "inputs": [],
      "name": "pause",
      "outputs": [],
      "stateMutability": "nonpayable",
      "type": "function"
    },
    {
      "inputs": [],
      "name": "paused",
      "outputs": [
        {
          "internalType": "bool",
          "name": "",
          "type": "bool"
        }
      ],
      "stateMutability": "view",
      "type": "function"
    },
    {
      "inputs": [],
      "name": "protocolFee",
      "outputs": [
        {
          "internalType": "uint256",
          "name": "",
          "type": "uint256"
        }
      ],
      "stateMutability": "view",
      "type": "function"
    },
    {
      "inputs": [],
      "name": "refund",
      "outputs": [],
      "stateMutability": "nonpayable",
      "type": "function"
    },
    {
      "inputs": [
        {
          "internalType": "uint256",
          "name": "gasFee",
          "type": "uint256"
        },
        {
          "internalType": "uint256",
          "name": "_deadline",
          "type": "uint256"
        },
        {
          "internalType": "uint256",
          "name": "swapOutMin",
          "type": "uint256"
        },
        {
          "internalType": "uint256",
          "name": "lpOutMin",
          "type": "uint256"
        }
      ],
      "name": "run",
      "outputs": [],
      "stateMutability": "nonpayable",
      "type": "function"
    },
    {
      "inputs": [],
      "name": "slippage",
      "outputs": [
        {
          "internalType": "uint16",
          "name": "",
          "type": "uint16"
        }
      ],
      "stateMutability": "view",
      "type": "function"
    },
    {
      "inputs": [],
      "name": "staking",
      "outputs": [
        {
          "internalType": "contract IGauge",
          "name": "",
          "type": "address"
        }
      ],
      "stateMutability": "view",
      "type": "function"
    },
    {
      "inputs": [],
      "name": "swapToken",
      "outputs": [
        {
          "internalType": "address",
          "name": "",
          "type": "address"
        }
      ],
      "stateMutability": "view",
      "type": "function"
    },
    {
      "inputs": [
        {
          "internalType": "address",
          "name": "token",
          "type": "address"
        },
        {
          "internalType": "address",
          "name": "recipient",
          "type": "address"
        },
        {
          "internalType": "uint256",
          "name": "amount",
          "type": "uint256"
        }
      ],
      "name": "transfer",
      "outputs": [],
      "stateMutability": "nonpayable",
      "type": "function"
    },
    {
      "inputs": [
        {
          "internalType": "address",
          "name": "newOwner",
          "type": "address"
        }
      ],
      "name": "transferOwnership",
      "outputs": [],
      "stateMutability": "nonpayable",
      "type": "function"
    },
    {
      "inputs": [],
      "name": "unpause",
      "outputs": [],
      "stateMutability": "nonpayable",
      "type": "function"
    }
  ],
  "transactionHash": "0x394bf1b9f53fa07eefcfc5d7dd8b07141ff3e55b4ecdffb4fc5b497a207a9e2f",
  "args": [
    "0x5AE235502Bf1de231AfD75364670d50e3C3694A6"
  ],
  "solcInputHash": "061c3579d3aa230f50b3cbdc338e6cf4",
  "bytecode": "0x60806040523480156200001157600080fd5b5060405162003ea738038062003ea7833981016040819052620000349162000069565b600080546001600160a01b039092166001600160a01b031992831617905560018054909116321790556000196002556200009b565b6000602082840312156200007c57600080fd5b81516001600160a01b03811681146200009457600080fd5b9392505050565b613dfc80620000ab6000396000f3fe608060405234801561001057600080fd5b50600436106101365760003560e01c80637b7902dd116100b2578063b0e21e8a11610081578063d0e30db011610066578063d0e30db0146102b3578063dc73e49c146102bb578063f2fde38b146102db57600080fd5b8063b0e21e8a14610298578063beabacc8146102a057600080fd5b80637b7902dd1461023e5780638456cb591461025f5780638da5cb5b146102675780639742b5c31461028557600080fd5b80633e032a3b116101095780634cf088d9116100ee5780634cf088d9146101fe578063590e1ae31461021e5780635c975abb1461022657600080fd5b80633e032a3b146101d05780633f4ba83a146101f657600080fd5b806315509d2b1461013b5780631b586aff1461015057806329dcb0cf14610163578063370158ea146101a3575b600080fd5b61014e6101493660046139f4565b6102ee565b005b61014e61015e3660046137c8565b6108e4565b60045461018b90760100000000000000000000000000000000000000000000900461ffff1681565b60405161ffff90911681526020015b60405180910390f35b6101ab610e9f565b60405173ffffffffffffffffffffffffffffffffffffffff909116815260200161019a565b60045461018b9074010000000000000000000000000000000000000000900461ffff1681565b61014e611001565b6003546101ab9073ffffffffffffffffffffffffffffffffffffffff1681565b61014e611393565b61022e6119e9565b604051901515815260200161019a565b61025161024c3660046139c2565b611b6e565b60405190815260200161019a565b61014e611dbf565b60015473ffffffffffffffffffffffffffffffffffffffff166101ab565b61014e6102933660046139c2565b612169565b6102516123a3565b61014e6102ae366004613820565b6127b0565b61014e612905565b6004546101ab9073ffffffffffffffffffffffffffffffffffffffff1681565b61014e6102e9366004613787565b612acd565b836040518060400160405280601881526020017f43757276654761756765556e697377617052657374616b65000000000000000081525061032f8282612d2c565b5060035473ffffffffffffffffffffffffffffffffffffffff166000610353610e9f565b6040517f21f8a7210000000000000000000000000000000000000000000000000000000081527fa446c21f636a27494eaafaffc073cc3325d32c4efaa774c3f2a297ebef869803600482015273ffffffffffffffffffffffffffffffffffffffff91909116906321f8a7219060240160206040518083038186803b1580156103da57600080fd5b505afa1580156103ee573d6000803e3d6000fd5b505050506040513d601f19601f8201168201806040525081019061041291906137ab565b905073ffffffffffffffffffffffffffffffffffffffff81166104bc576040517f08c379a000000000000000000000000000000000000000000000000000000000815260206004820152603b60248201527f4761756765556e697377617052657374616b653a3a72756e3a20756e6973776160448201527f7020726f7574657220636f6e7472616374206e6f7420666f756e64000000000060648201526084015b60405180910390fd5b600354604080517f07546172000000000000000000000000000000000000000000000000000000008152905160009273ffffffffffffffffffffffffffffffffffffffff16916307546172916004808301926020929190829003018186803b15801561052757600080fd5b505afa15801561053b573d6000803e3d6000fd5b505050506040513d601f19601f8201168201806040525081019061055f91906137ab565b6003546040517f6a62784200000000000000000000000000000000000000000000000000000000815273ffffffffffffffffffffffffffffffffffffffff9182166004820152919250821690636a62784290602401600060405180830381600087803b1580156105ce57600080fd5b505af11580156105e2573d6000803e3d6000fd5b5050505060008373ffffffffffffffffffffffffffffffffffffffff166376d8b1176040518163ffffffff1660e01b815260040160206040518083038186803b15801561062e57600080fd5b505afa158015610642573d6000803e3d6000fd5b505050506040513d601f19601f8201168201806040525081019061066691906137ab565b6040517f70a0823100000000000000000000000000000000000000000000000000000000815230600482015290915060009073ffffffffffffffffffffffffffffffffffffffff8316906370a082319060240160206040518083038186803b1580156106d157600080fd5b505afa1580156106e5573d6000803e3d6000fd5b505050506040513d601f19601f8201168201806040525081019061070991906139db565b905061072b73ffffffffffffffffffffffffffffffffffffffff831685612ffe565b6040805180820190915273ffffffffffffffffffffffffffffffffffffffff8084168252600454166020820152600090610769908690848d8f61302d565b6006546004549192506107959173ffffffffffffffffffffffffffffffffffffffff9081169116612ffe565b6006546107b99073ffffffffffffffffffffffffffffffffffffffff16828b6131a8565b6005546107dc9073ffffffffffffffffffffffffffffffffffffffff1687612ffe565b6005546040517f70a0823100000000000000000000000000000000000000000000000000000000815230600482015273ffffffffffffffffffffffffffffffffffffffff8881169263b6b55f25929116906370a082319060240160206040518083038186803b15801561084e57600080fd5b505afa158015610862573d6000803e3d6000fd5b505050506040513d601f19601f8201168201806040525081019061088691906139db565b6040518263ffffffff1660e01b81526004016108a491815260200190565b600060405180830381600087803b1580156108be57600080fd5b505af11580156108d2573d6000803e3d6000fd5b50505050505050505050505050505050565b60015473ffffffffffffffffffffffffffffffffffffffff1661095457600180547fffffffffffffffffffffffff000000000000000000000000000000000000000016321790557fffffffffffffffffffffffffffffffffffffffffffffffffffffffffffffffff6002556109fb565b60015473ffffffffffffffffffffffffffffffffffffffff1633146109fb576040517f08c379a000000000000000000000000000000000000000000000000000000000815260206004820152602160248201527f4175746f6d6174653a2063616c6c6572206973206e6f7420746865206f776e6560448201527f720000000000000000000000000000000000000000000000000000000000000060648201526084016104b3565b6000610a0561342e565b6003805473ffffffffffffffffffffffffffffffffffffffff8089167fffffffffffffffffffffffff000000000000000000000000000000000000000090921682179092556004805461ffff878116760100000000000000000000000000000000000000000000027fffffffffffffffff0000ffffffffffffffffffffffffffffffffffffffffffff918a1674010000000000000000000000000000000000000000027fffffffffffffffffffff00000000000000000000000000000000000000000000909316958b16959095179190911716929092178255604080517f82c63066000000000000000000000000000000000000000000000000000000008152905193945090926382c6306692828101926020929190829003018186803b158015610b2f57600080fd5b505afa158015610b43573d6000803e3d6000fd5b505050506040513d601f19601f82011682018060405250810190610b6791906137ab565b600580547fffffffffffffffffffffffff00000000000000000000000000000000000000001673ffffffffffffffffffffffffffffffffffffffff9283169081179091556040517fbdf475c300000000000000000000000000000000000000000000000000000000815260048101919091529082169063bdf475c39060240160206040518083038186803b158015610bfe57600080fd5b505afa158015610c12573d6000803e3d6000fd5b505050506040513d601f19601f82011682018060405250810190610c3691906137ab565b600680547fffffffffffffffffffffffff00000000000000000000000000000000000000001673ffffffffffffffffffffffffffffffffffffffff9283169081179091556040517f9ac90d3d0000000000000000000000000000000000000000000000000000000081526004810191909152600091831690639ac90d3d906024016101006040518083038186803b158015610cd057600080fd5b505afa158015610ce4573d6000803e3d6000fd5b505050506040513d601f19601f82011682018060405250810190610d089190613861565b90505b60065460097401000000000000000000000000000000000000000090910460ff161015610e975760065460087401000000000000000000000000000000000000000090910460ff1610610de0576040517f08c379a000000000000000000000000000000000000000000000000000000000815260206004820152603560248201527f4761756765556e697377617052657374616b653a3a696e69743a20696e76616c60448201527f6964207377617020746f6b656e2061646472657373000000000000000000000060648201526084016104b3565b60065473ffffffffffffffffffffffffffffffffffffffff861690829074010000000000000000000000000000000000000000900460ff1660088110610e2857610e28613d6c565b602002015173ffffffffffffffffffffffffffffffffffffffff161415610e4e57610e97565b6006805474010000000000000000000000000000000000000000900460ff16906014610e7983613d1d565b91906101000a81548160ff021916908360ff16021790555050610d0b565b505050505050565b6040517f6b8807180000000000000000000000000000000000000000000000000000000081523060048201526000908190737ecFCbdeb6f195030B9Bf2ECc402f6d5433d116D90636b8807189060240160206040518083038186803b158015610f0757600080fd5b505af4158015610f1b573d6000803e3d6000fd5b505050506040513d601f19601f82011682018060405250810190610f3f91906137ab565b905073ffffffffffffffffffffffffffffffffffffffff8116301415610f7d57505060005473ffffffffffffffffffffffffffffffffffffffff1690565b8073ffffffffffffffffffffffffffffffffffffffff1663370158ea6040518163ffffffff1660e01b815260040160206040518083038186803b158015610fc357600080fd5b505afa158015610fd7573d6000803e3d6000fd5b505050506040513d601f19601f82011682018060405250810190610ffb91906137ab565b91505090565b6040517f6b880718000000000000000000000000000000000000000000000000000000008152306004820181905290737ecFCbdeb6f195030B9Bf2ECc402f6d5433d116D90636b8807189060240160206040518083038186803b15801561106757600080fd5b505af415801561107b573d6000803e3d6000fd5b505050506040513d601f19601f8201168201806040525081019061109f91906137ab565b73ffffffffffffffffffffffffffffffffffffffff1614156112545760006110c5610e9f565b6040517f21f8a7210000000000000000000000000000000000000000000000000000000081527f689d13d8ed8ef1027633ba26e7121121cf427434450a529548f19bf175974395600482015273ffffffffffffffffffffffffffffffffffffffff91909116906321f8a7219060240160206040518083038186803b15801561114c57600080fd5b505afa158015611160573d6000803e3d6000fd5b505050506040513d601f19601f8201168201806040525081019061118491906137ab565b60015490915073ffffffffffffffffffffffffffffffffffffffff163314806111c257503373ffffffffffffffffffffffffffffffffffffffff8216145b61124e576040517f08c379a000000000000000000000000000000000000000000000000000000000815260206004820152602260248201527f4175746f6d6174653a2063616c6c6572206973206e6f7420746865207061757360448201527f657200000000000000000000000000000000000000000000000000000000000060648201526084016104b3565b506112fb565b60015473ffffffffffffffffffffffffffffffffffffffff1633146112fb576040517f08c379a000000000000000000000000000000000000000000000000000000000815260206004820152602260248201527f4175746f6d6174653a2063616c6c6572206973206e6f7420746865207061757360448201527f657200000000000000000000000000000000000000000000000000000000000060648201526084016104b3565b6113036119e9565b611369576040517f08c379a000000000000000000000000000000000000000000000000000000000815260206004820152601460248201527f4175746f6d6174653a206e6f742070617573656400000000000000000000000060448201526064016104b3565b600180547fffffffffffffffffffffff00ffffffffffffffffffffffffffffffffffffffff169055565b60015473ffffffffffffffffffffffffffffffffffffffff16331461143a576040517f08c379a000000000000000000000000000000000000000000000000000000000815260206004820152602160248201527f4175746f6d6174653a2063616c6c6572206973206e6f7420746865206f776e6560448201527f720000000000000000000000000000000000000000000000000000000000000060648201526084016104b3565b600061145b60015473ffffffffffffffffffffffffffffffffffffffff1690565b6003546040517f70a0823100000000000000000000000000000000000000000000000000000000815230600482015291925073ffffffffffffffffffffffffffffffffffffffff169060009082906370a082319060240160206040518083038186803b1580156114ca57600080fd5b505afa1580156114de573d6000803e3d6000fd5b505050506040513d601f19601f8201168201806040525081019061150291906139db565b9050801561158b576040517f2e1a7d4d0000000000000000000000000000000000000000000000000000000081526004810182905273ffffffffffffffffffffffffffffffffffffffff831690632e1a7d4d90602401600060405180830381600087803b15801561157257600080fd5b505af1158015611586573d6000803e3d6000fd5b505050505b6005546040517f70a0823100000000000000000000000000000000000000000000000000000000815230600482015260009173ffffffffffffffffffffffffffffffffffffffff16906370a082319060240160206040518083038186803b1580156115f557600080fd5b505afa158015611609573d6000803e3d6000fd5b505050506040513d601f19601f8201168201806040525081019061162d91906139db565b905080156116e3576005546040517fa9059cbb00000000000000000000000000000000000000000000000000000000815273ffffffffffffffffffffffffffffffffffffffff8681166004830152602482018490529091169063a9059cbb90604401602060405180830381600087803b1580156116a957600080fd5b505af11580156116bd573d6000803e3d6000fd5b505050506040513d601f19601f820116820180604052508101906116e191906139a0565b505b600354604080517f07546172000000000000000000000000000000000000000000000000000000008152905160009273ffffffffffffffffffffffffffffffffffffffff16916307546172916004808301926020929190829003018186803b15801561174e57600080fd5b505afa158015611762573d6000803e3d6000fd5b505050506040513d601f19601f8201168201806040525081019061178691906137ab565b6040517f6a62784200000000000000000000000000000000000000000000000000000000815273ffffffffffffffffffffffffffffffffffffffff868116600483015291925090821690636a62784290602401600060405180830381600087803b1580156117f357600080fd5b505af1158015611807573d6000803e3d6000fd5b5050505060008473ffffffffffffffffffffffffffffffffffffffff166376d8b1176040518163ffffffff1660e01b815260040160206040518083038186803b15801561185357600080fd5b505afa158015611867573d6000803e3d6000fd5b505050506040513d601f19601f8201168201806040525081019061188b91906137ab565b6040517f70a0823100000000000000000000000000000000000000000000000000000000815230600482015290915060009073ffffffffffffffffffffffffffffffffffffffff8316906370a082319060240160206040518083038186803b1580156118f657600080fd5b505afa15801561190a573d6000803e3d6000fd5b505050506040513d601f19601f8201168201806040525081019061192e91906139db565b905080156119e0576040517fa9059cbb00000000000000000000000000000000000000000000000000000000815273ffffffffffffffffffffffffffffffffffffffff88811660048301526024820183905283169063a9059cbb90604401602060405180830381600087803b1580156119a657600080fd5b505af11580156119ba573d6000803e3d6000fd5b505050506040513d601f19601f820116820180604052508101906119de91906139a0565b505b50505050505050565b6040517f6b8807180000000000000000000000000000000000000000000000000000000081523060048201526000908190737ecFCbdeb6f195030B9Bf2ECc402f6d5433d116D90636b8807189060240160206040518083038186803b158015611a5157600080fd5b505af4158015611a65573d6000803e3d6000fd5b505050506040513d601f19601f82011682018060405250810190611a8991906137ab565b905073ffffffffffffffffffffffffffffffffffffffff8116301415611acc57505060015474010000000000000000000000000000000000000000900460ff1690565b60015474010000000000000000000000000000000000000000900460ff1680610ffb57508073ffffffffffffffffffffffffffffffffffffffff16635c975abb6040518163ffffffff1660e01b815260040160206040518083038186803b158015611b3657600080fd5b505afa158015611b4a573d6000803e3d6000fd5b505050506040513d601f19601f82011682018060405250810190610ffb91906139a0565b60065460009073ffffffffffffffffffffffffffffffffffffffff1681611b9361342e565b6040517f940494f100000000000000000000000000000000000000000000000000000000815273ffffffffffffffffffffffffffffffffffffffff84811660048301529192509082169063940494f19060240160206040518083038186803b158015611bfe57600080fd5b505afa158015611c12573d6000803e3d6000fd5b505050506040513d601f19601f82011682018060405250810190611c3691906139db565b60031415611d2b57611c4661371a565b6006548590829074010000000000000000000000000000000000000000900460ff1660038110611c7857611c78613d6c565b60200201526040517f3883e11900000000000000000000000000000000000000000000000000000000815273ffffffffffffffffffffffffffffffffffffffff841690633883e11990611cd2908490600190600401613b93565b60206040518083038186803b158015611cea57600080fd5b505afa158015611cfe573d6000803e3d6000fd5b505050506040513d601f19601f82011682018060405250810190611d2291906139db565b95945050505050565b611d33613738565b6006548590829074010000000000000000000000000000000000000000900460ff1660028110611d6557611d65613d6c565b60200201526040517fed8e84f300000000000000000000000000000000000000000000000000000000815273ffffffffffffffffffffffffffffffffffffffff84169063ed8e84f390611cd2908490600190600401613b5b565b6040517f6b880718000000000000000000000000000000000000000000000000000000008152306004820181905290737ecFCbdeb6f195030B9Bf2ECc402f6d5433d116D90636b8807189060240160206040518083038186803b158015611e2557600080fd5b505af4158015611e39573d6000803e3d6000fd5b505050506040513d601f19601f82011682018060405250810190611e5d91906137ab565b73ffffffffffffffffffffffffffffffffffffffff161415612012576000611e83610e9f565b6040517f21f8a7210000000000000000000000000000000000000000000000000000000081527f689d13d8ed8ef1027633ba26e7121121cf427434450a529548f19bf175974395600482015273ffffffffffffffffffffffffffffffffffffffff91909116906321f8a7219060240160206040518083038186803b158015611f0a57600080fd5b505afa158015611f1e573d6000803e3d6000fd5b505050506040513d601f19601f82011682018060405250810190611f4291906137ab565b60015490915073ffffffffffffffffffffffffffffffffffffffff16331480611f8057503373ffffffffffffffffffffffffffffffffffffffff8216145b61200c576040517f08c379a000000000000000000000000000000000000000000000000000000000815260206004820152602260248201527f4175746f6d6174653a2063616c6c6572206973206e6f7420746865207061757360448201527f657200000000000000000000000000000000000000000000000000000000000060648201526084016104b3565b506120b9565b60015473ffffffffffffffffffffffffffffffffffffffff1633146120b9576040517f08c379a000000000000000000000000000000000000000000000000000000000815260206004820152602260248201527f4175746f6d6174653a2063616c6c6572206973206e6f7420746865207061757360448201527f657200000000000000000000000000000000000000000000000000000000000060648201526084016104b3565b6120c16119e9565b15612128576040517f08c379a000000000000000000000000000000000000000000000000000000000815260206004820152601060248201527f4175746f6d6174653a207061757365640000000000000000000000000000000060448201526064016104b3565b600180547fffffffffffffffffffffff00ffffffffffffffffffffffffffffffffffffffff1674010000000000000000000000000000000000000000179055565b6040517f6b880718000000000000000000000000000000000000000000000000000000008152306004820152600090737ecFCbdeb6f195030B9Bf2ECc402f6d5433d116D90636b8807189060240160206040518083038186803b1580156121cf57600080fd5b505af41580156121e3573d6000803e3d6000fd5b505050506040513d601f19601f8201168201806040525081019061220791906137ab565b90503373ffffffffffffffffffffffffffffffffffffffff821630146122aa578173ffffffffffffffffffffffffffffffffffffffff16638da5cb5b6040518163ffffffff1660e01b815260040160206040518083038186803b15801561226d57600080fd5b505afa158015612281573d6000803e3d6000fd5b505050506040513d601f19601f820116820180604052508101906122a591906137ab565b6122c4565b60015473ffffffffffffffffffffffffffffffffffffffff165b73ffffffffffffffffffffffffffffffffffffffff1614612367576040517f08c379a000000000000000000000000000000000000000000000000000000000815260206004820152603d60248201527f4175746f6d6174653a3a6368616e676550726f746f636f6c4665653a2063616c60448201527f6c6572206973206e6f74207468652070726f746f636f6c206f776e657200000060648201526084016104b3565b60028290556040518281527f3c1d43943224e49d951ce8295a5c8332b517083b3f89bed50feae2cb39caebb59060200160405180910390a15050565b6040517f6b8807180000000000000000000000000000000000000000000000000000000081523060048201526000908190737ecFCbdeb6f195030B9Bf2ECc402f6d5433d116D90636b8807189060240160206040518083038186803b15801561240b57600080fd5b505af415801561241f573d6000803e3d6000fd5b505050506040513d601f19601f8201168201806040525081019061244391906137ab565b905073ffffffffffffffffffffffffffffffffffffffff8116301480159061246d57506000600254125b156124f0578073ffffffffffffffffffffffffffffffffffffffff1663b0e21e8a6040518163ffffffff1660e01b815260040160206040518083038186803b1580156124b857600080fd5b505afa1580156124cc573d6000803e3d6000fd5b505050506040513d601f19601f82011682018060405250810190610ffb91906139db565b60006124fa610e9f565b90506000806002541261250f576002546125cc565b6040517fbd02d0f50000000000000000000000000000000000000000000000000000000081527fa93d95f96a5de25d7a41ddf1f5e8d45cfc929c4838163cf011dab4043a4a40d5600482015273ffffffffffffffffffffffffffffffffffffffff83169063bd02d0f59060240160206040518083038186803b15801561259457600080fd5b505afa1580156125a8573d6000803e3d6000fd5b505050506040513d601f19601f820116820180604052508101906125cc91906139db565b9050806125dd576000935050505090565b6040517f21f8a7210000000000000000000000000000000000000000000000000000000081527f65c90423fe7c880476633a7e36521740f87199d233dc56eb4ca6643eb76f605f600482015260009073ffffffffffffffffffffffffffffffffffffffff8416906321f8a7219060240160206040518083038186803b15801561266557600080fd5b505afa158015612679573d6000803e3d6000fd5b505050506040513d601f19601f8201168201806040525081019061269d91906137ab565b73ffffffffffffffffffffffffffffffffffffffff1663feaf968c6040518163ffffffff1660e01b815260040160a06040518083038186803b1580156126e257600080fd5b505afa1580156126f6573d6000803e3d6000fd5b505050506040513d601f19601f8201168201806040525081019061271a9190613a26565b5050509150506000811361278a576040517f08c379a000000000000000000000000000000000000000000000000000000000815260206004820152601760248201527f4175746f6d6174653a20696e76616c696420707269636500000000000000000060448201526064016104b3565b8061279d83670de0b6b3a7640000613ce0565b6127a79190613ca5565b94505050505090565b60015473ffffffffffffffffffffffffffffffffffffffff163314612857576040517f08c379a000000000000000000000000000000000000000000000000000000000815260206004820152602160248201527f4175746f6d6174653a2063616c6c6572206973206e6f7420746865206f776e6560448201527f720000000000000000000000000000000000000000000000000000000000000060648201526084016104b3565b6040517fa9059cbb00000000000000000000000000000000000000000000000000000000815273ffffffffffffffffffffffffffffffffffffffff83811660048301526024820183905284169063a9059cbb90604401602060405180830381600087803b1580156128c757600080fd5b505af11580156128db573d6000803e3d6000fd5b505050506040513d601f19601f820116820180604052508101906128ff91906139a0565b50505050565b60015473ffffffffffffffffffffffffffffffffffffffff1633146129ac576040517f08c379a000000000000000000000000000000000000000000000000000000000815260206004820152602160248201527f4175746f6d6174653a2063616c6c6572206973206e6f7420746865206f776e6560448201527f720000000000000000000000000000000000000000000000000000000000000060648201526084016104b3565b6003546005546129d59173ffffffffffffffffffffffffffffffffffffffff9182169116612ffe565b6003546005546040517f70a0823100000000000000000000000000000000000000000000000000000000815230600482015273ffffffffffffffffffffffffffffffffffffffff9283169263b6b55f259216906370a082319060240160206040518083038186803b158015612a4957600080fd5b505afa158015612a5d573d6000803e3d6000fd5b505050506040513d601f19601f82011682018060405250810190612a8191906139db565b6040518263ffffffff1660e01b8152600401612a9f91815260200190565b600060405180830381600087803b158015612ab957600080fd5b505af11580156128ff573d6000803e3d6000fd5b60015473ffffffffffffffffffffffffffffffffffffffff163314612b74576040517f08c379a000000000000000000000000000000000000000000000000000000000815260206004820152602160248201527f4175746f6d6174653a2063616c6c6572206973206e6f7420746865206f776e6560448201527f720000000000000000000000000000000000000000000000000000000000000060648201526084016104b3565b6040517f6b880718000000000000000000000000000000000000000000000000000000008152306004820181905290737ecFCbdeb6f195030B9Bf2ECc402f6d5433d116D90636b8807189060240160206040518083038186803b158015612bda57600080fd5b505af4158015612bee573d6000803e3d6000fd5b505050506040513d601f19601f82011682018060405250810190612c1291906137ab565b73ffffffffffffffffffffffffffffffffffffffff1614612cb5576040517f08c379a000000000000000000000000000000000000000000000000000000000815260206004820152602160248201527f4175746f6d6174653a206368616e676520746865206f776e6572206661696c6560448201527f640000000000000000000000000000000000000000000000000000000000000060648201526084016104b3565b6001805473ffffffffffffffffffffffffffffffffffffffff8381167fffffffffffffffffffffffff0000000000000000000000000000000000000000831681179093556040519116919082907f8be0079c531659141344cd1fd0a4f28419497f9722a3daafe3b4186f6b6457e090600090a35050565b6000612d366119e9565b15612d9d576040517f08c379a000000000000000000000000000000000000000000000000000000000815260206004820152601060248201527f4175746f6d6174653a207061757365640000000000000000000000000000000060448201526064016104b3565b6000612dbe60015473ffffffffffffffffffffffffffffffffffffffff1690565b90503273ffffffffffffffffffffffffffffffffffffffff82161415612de8576000915050612ff8565b6000612df2610e9f565b6040517f21f8a7210000000000000000000000000000000000000000000000000000000081527fe78c16c6d839536d3155985aab4e9c6013c8c3d446054bcebc48612f359d81f5600482015290915060009073ffffffffffffffffffffffffffffffffffffffff8316906321f8a7219060240160206040518083038186803b158015612e7d57600080fd5b505afa158015612e91573d6000803e3d6000fd5b505050506040513d601f19601f82011682018060405250810190612eb591906137ab565b905073ffffffffffffffffffffffffffffffffffffffff8116612f5a576040517f08c379a000000000000000000000000000000000000000000000000000000000815260206004820152602b60248201527f4175746f6d6174653a3a5f62696c6c3a2062616c616e636520636f6e7472616360448201527f74206e6f7420666f756e6400000000000000000000000000000000000000000060648201526084016104b3565b8073ffffffffffffffffffffffffffffffffffffffff1663e578a2258488612f806123a3565b896040518563ffffffff1660e01b8152600401612fa09493929190613abc565b602060405180830381600087803b158015612fba57600080fd5b505af1158015612fce573d6000803e3d6000fd5b505050506040513d601f19601f82011682018060405250810190612ff291906139db565b93505050505b92915050565b61302982827fffffffffffffffffffffffffffffffffffffffffffffffffffffffffffffffff6134fc565b5050565b604080516002808252606082018352600092839291906020830190803683375050875182519293509183915060009061306857613068613d6c565b73ffffffffffffffffffffffffffffffffffffffff929092166020928302919091018201528601518151829060019081106130a5576130a5613d6c565b73ffffffffffffffffffffffffffffffffffffffff92831660209182029290920101526040517f38ed1739000000000000000000000000000000000000000000000000000000008152908816906338ed17399061310e9088908890869030908a90600401613bcb565b600060405180830381600087803b15801561312857600080fd5b505af115801561313c573d6000803e3d6000fd5b505050506040513d6000823e601f3d9081017fffffffffffffffffffffffffffffffffffffffffffffffffffffffffffffffe016820160405261318291908101906138f3565b60018151811061319457613194613d6c565b602002602001015191505095945050505050565b60006131b261342e565b6040517f940494f100000000000000000000000000000000000000000000000000000000815273ffffffffffffffffffffffffffffffffffffffff86811660048301529192509082169063940494f19060240160206040518083038186803b15801561321d57600080fd5b505afa158015613231573d6000803e3d6000fd5b505050506040513d601f19601f8201168201806040525081019061325591906139db565b600314156133495761326561371a565b6006548490829074010000000000000000000000000000000000000000900460ff166003811061329757613297613d6c565b60200201526040517f4515cef300000000000000000000000000000000000000000000000000000000815273ffffffffffffffffffffffffffffffffffffffff861690634515cef3906132f09084908790600401613bb0565b602060405180830381600087803b15801561330a57600080fd5b505af115801561331e573d6000803e3d6000fd5b505050506040513d601f19601f8201168201806040525081019061334291906139db565b50506128ff565b613351613738565b6006548490829074010000000000000000000000000000000000000000900460ff166002811061338357613383613d6c565b60200201526040517f0b4c7e4d00000000000000000000000000000000000000000000000000000000815273ffffffffffffffffffffffffffffffffffffffff861690630b4c7e4d906133dc9084908790600401613b78565b602060405180830381600087803b1580156133f657600080fd5b505af115801561340a573d6000803e3d6000fd5b505050506040513d601f19601f82011682018060405250810190610e9791906139db565b6000613438610e9f565b6040517f21f8a7210000000000000000000000000000000000000000000000000000000081527fe3afe40301d08e5458680c2ac903d4fddf0931e5e1a5c6d9e21328d89e8d8e7c600482015273ffffffffffffffffffffffffffffffffffffffff91909116906321f8a7219060240160206040518083038186803b1580156134bf57600080fd5b505afa1580156134d3573d6000803e3d6000fd5b505050506040513d601f19601f820116820180604052508101906134f791906137ab565b905090565b6040517fdd62ed3e00000000000000000000000000000000000000000000000000000000815230600482015273ffffffffffffffffffffffffffffffffffffffff83811660248301526000919085169063dd62ed3e9060440160206040518083038186803b15801561356d57600080fd5b505afa158015613581573d6000803e3d6000fd5b505050506040513d601f19601f820116820180604052508101906135a591906139db565b905080158015906135b557508181105b15613664576040517f095ea7b300000000000000000000000000000000000000000000000000000000815273ffffffffffffffffffffffffffffffffffffffff84811660048301526000602483015285169063095ea7b390604401602060405180830381600087803b15801561362a57600080fd5b505af115801561363e573d6000803e3d6000fd5b505050506040513d601f19601f8201168201806040525081019061366291906139a0565b505b8181146128ff576040517f095ea7b300000000000000000000000000000000000000000000000000000000815273ffffffffffffffffffffffffffffffffffffffff84811660048301526024820184905285169063095ea7b390604401602060405180830381600087803b1580156136db57600080fd5b505af11580156136ef573d6000803e3d6000fd5b505050506040513d601f19601f8201168201806040525081019061371391906139a0565b5050505050565b60405180606001604052806003906020820280368337509192915050565b60405180604001604052806002906020820280368337509192915050565b803561ffff8116811461376857600080fd5b919050565b805169ffffffffffffffffffff8116811461376857600080fd5b60006020828403121561379957600080fd5b81356137a481613dca565b9392505050565b6000602082840312156137bd57600080fd5b81516137a481613dca565b600080600080608085870312156137de57600080fd5b84356137e981613dca565b935060208501356137f981613dca565b925061380760408601613756565b915061381560608601613756565b905092959194509250565b60008060006060848603121561383557600080fd5b833561384081613dca565b9250602084013561385081613dca565b929592945050506040919091013590565b600061010080838503121561387557600080fd5b83601f84011261388457600080fd5b60405181810181811067ffffffffffffffff821117156138a6576138a6613d9b565b60405280848381018710156138ba57600080fd5b600093505b60088410156138e85780516138d381613dca565b825260019390930192602091820191016138bf565b509095945050505050565b6000602080838503121561390657600080fd5b825167ffffffffffffffff8082111561391e57600080fd5b818501915085601f83011261393257600080fd5b81518181111561394457613944613d9b565b8060051b9150613955848301613c56565b8181528481019084860184860187018a101561397057600080fd5b600095505b83861015613993578051835260019590950194918601918601613975565b5098975050505050505050565b6000602082840312156139b257600080fd5b815180151581146137a457600080fd5b6000602082840312156139d457600080fd5b5035919050565b6000602082840312156139ed57600080fd5b5051919050565b60008060008060808587031215613a0a57600080fd5b5050823594602084013594506040840135936060013592509050565b600080600080600060a08688031215613a3e57600080fd5b613a478661376d565b9450602086015193506040860151925060608601519150613a6a6080870161376d565b90509295509295909350565b8060005b60028110156128ff578151845260209384019390910190600101613a7a565b8060005b60038110156128ff578151845260209384019390910190600101613a9d565b73ffffffffffffffffffffffffffffffffffffffff8516815260006020858184015284604084015260806060840152835180608085015260005b81811015613b125785810183015185820160a001528201613af6565b81811115613b2457600060a083870101525b50601f017fffffffffffffffffffffffffffffffffffffffffffffffffffffffffffffffe0169290920160a0019695505050505050565b60608101613b698285613a76565b82151560408301529392505050565b60608101613b868285613a76565b8260408301529392505050565b60808101613ba18285613a99565b82151560608301529392505050565b60808101613bbe8285613a99565b8260608301529392505050565b600060a082018783526020878185015260a0604085015281875180845260c086019150828901935060005b81811015613c2857845173ffffffffffffffffffffffffffffffffffffffff1683529383019391830191600101613bf6565b505073ffffffffffffffffffffffffffffffffffffffff969096166060850152505050608001529392505050565b604051601f82017fffffffffffffffffffffffffffffffffffffffffffffffffffffffffffffffe016810167ffffffffffffffff81118282101715613c9d57613c9d613d9b565b604052919050565b600082613cdb577f4e487b7100000000000000000000000000000000000000000000000000000000600052601260045260246000fd5b500490565b6000817fffffffffffffffffffffffffffffffffffffffffffffffffffffffffffffffff0483118215151615613d1857613d18613d3d565b500290565b600060ff821660ff811415613d3457613d34613d3d565b60010192915050565b7f4e487b7100000000000000000000000000000000000000000000000000000000600052601160045260246000fd5b7f4e487b7100000000000000000000000000000000000000000000000000000000600052603260045260246000fd5b7f4e487b7100000000000000000000000000000000000000000000000000000000600052604160045260246000fd5b73ffffffffffffffffffffffffffffffffffffffff81168114613dec57600080fd5b5056fea164736f6c6343000806000a",
  "deployedBytecode": "0x608060405234801561001057600080fd5b50600436106101365760003560e01c80637b7902dd116100b2578063b0e21e8a11610081578063d0e30db011610066578063d0e30db0146102b3578063dc73e49c146102bb578063f2fde38b146102db57600080fd5b8063b0e21e8a14610298578063beabacc8146102a057600080fd5b80637b7902dd1461023e5780638456cb591461025f5780638da5cb5b146102675780639742b5c31461028557600080fd5b80633e032a3b116101095780634cf088d9116100ee5780634cf088d9146101fe578063590e1ae31461021e5780635c975abb1461022657600080fd5b80633e032a3b146101d05780633f4ba83a146101f657600080fd5b806315509d2b1461013b5780631b586aff1461015057806329dcb0cf14610163578063370158ea146101a3575b600080fd5b61014e6101493660046139f4565b6102ee565b005b61014e61015e3660046137c8565b6108e4565b60045461018b90760100000000000000000000000000000000000000000000900461ffff1681565b60405161ffff90911681526020015b60405180910390f35b6101ab610e9f565b60405173ffffffffffffffffffffffffffffffffffffffff909116815260200161019a565b60045461018b9074010000000000000000000000000000000000000000900461ffff1681565b61014e611001565b6003546101ab9073ffffffffffffffffffffffffffffffffffffffff1681565b61014e611393565b61022e6119e9565b604051901515815260200161019a565b61025161024c3660046139c2565b611b6e565b60405190815260200161019a565b61014e611dbf565b60015473ffffffffffffffffffffffffffffffffffffffff166101ab565b61014e6102933660046139c2565b612169565b6102516123a3565b61014e6102ae366004613820565b6127b0565b61014e612905565b6004546101ab9073ffffffffffffffffffffffffffffffffffffffff1681565b61014e6102e9366004613787565b612acd565b836040518060400160405280601881526020017f43757276654761756765556e697377617052657374616b65000000000000000081525061032f8282612d2c565b5060035473ffffffffffffffffffffffffffffffffffffffff166000610353610e9f565b6040517f21f8a7210000000000000000000000000000000000000000000000000000000081527fa446c21f636a27494eaafaffc073cc3325d32c4efaa774c3f2a297ebef869803600482015273ffffffffffffffffffffffffffffffffffffffff91909116906321f8a7219060240160206040518083038186803b1580156103da57600080fd5b505afa1580156103ee573d6000803e3d6000fd5b505050506040513d601f19601f8201168201806040525081019061041291906137ab565b905073ffffffffffffffffffffffffffffffffffffffff81166104bc576040517f08c379a000000000000000000000000000000000000000000000000000000000815260206004820152603b60248201527f4761756765556e697377617052657374616b653a3a72756e3a20756e6973776160448201527f7020726f7574657220636f6e7472616374206e6f7420666f756e64000000000060648201526084015b60405180910390fd5b600354604080517f07546172000000000000000000000000000000000000000000000000000000008152905160009273ffffffffffffffffffffffffffffffffffffffff16916307546172916004808301926020929190829003018186803b15801561052757600080fd5b505afa15801561053b573d6000803e3d6000fd5b505050506040513d601f19601f8201168201806040525081019061055f91906137ab565b6003546040517f6a62784200000000000000000000000000000000000000000000000000000000815273ffffffffffffffffffffffffffffffffffffffff9182166004820152919250821690636a62784290602401600060405180830381600087803b1580156105ce57600080fd5b505af11580156105e2573d6000803e3d6000fd5b5050505060008373ffffffffffffffffffffffffffffffffffffffff166376d8b1176040518163ffffffff1660e01b815260040160206040518083038186803b15801561062e57600080fd5b505afa158015610642573d6000803e3d6000fd5b505050506040513d601f19601f8201168201806040525081019061066691906137ab565b6040517f70a0823100000000000000000000000000000000000000000000000000000000815230600482015290915060009073ffffffffffffffffffffffffffffffffffffffff8316906370a082319060240160206040518083038186803b1580156106d157600080fd5b505afa1580156106e5573d6000803e3d6000fd5b505050506040513d601f19601f8201168201806040525081019061070991906139db565b905061072b73ffffffffffffffffffffffffffffffffffffffff831685612ffe565b6040805180820190915273ffffffffffffffffffffffffffffffffffffffff8084168252600454166020820152600090610769908690848d8f61302d565b6006546004549192506107959173ffffffffffffffffffffffffffffffffffffffff9081169116612ffe565b6006546107b99073ffffffffffffffffffffffffffffffffffffffff16828b6131a8565b6005546107dc9073ffffffffffffffffffffffffffffffffffffffff1687612ffe565b6005546040517f70a0823100000000000000000000000000000000000000000000000000000000815230600482015273ffffffffffffffffffffffffffffffffffffffff8881169263b6b55f25929116906370a082319060240160206040518083038186803b15801561084e57600080fd5b505afa158015610862573d6000803e3d6000fd5b505050506040513d601f19601f8201168201806040525081019061088691906139db565b6040518263ffffffff1660e01b81526004016108a491815260200190565b600060405180830381600087803b1580156108be57600080fd5b505af11580156108d2573d6000803e3d6000fd5b50505050505050505050505050505050565b60015473ffffffffffffffffffffffffffffffffffffffff1661095457600180547fffffffffffffffffffffffff000000000000000000000000000000000000000016321790557fffffffffffffffffffffffffffffffffffffffffffffffffffffffffffffffff6002556109fb565b60015473ffffffffffffffffffffffffffffffffffffffff1633146109fb576040517f08c379a000000000000000000000000000000000000000000000000000000000815260206004820152602160248201527f4175746f6d6174653a2063616c6c6572206973206e6f7420746865206f776e6560448201527f720000000000000000000000000000000000000000000000000000000000000060648201526084016104b3565b6000610a0561342e565b6003805473ffffffffffffffffffffffffffffffffffffffff8089167fffffffffffffffffffffffff000000000000000000000000000000000000000090921682179092556004805461ffff878116760100000000000000000000000000000000000000000000027fffffffffffffffff0000ffffffffffffffffffffffffffffffffffffffffffff918a1674010000000000000000000000000000000000000000027fffffffffffffffffffff00000000000000000000000000000000000000000000909316958b16959095179190911716929092178255604080517f82c63066000000000000000000000000000000000000000000000000000000008152905193945090926382c6306692828101926020929190829003018186803b158015610b2f57600080fd5b505afa158015610b43573d6000803e3d6000fd5b505050506040513d601f19601f82011682018060405250810190610b6791906137ab565b600580547fffffffffffffffffffffffff00000000000000000000000000000000000000001673ffffffffffffffffffffffffffffffffffffffff9283169081179091556040517fbdf475c300000000000000000000000000000000000000000000000000000000815260048101919091529082169063bdf475c39060240160206040518083038186803b158015610bfe57600080fd5b505afa158015610c12573d6000803e3d6000fd5b505050506040513d601f19601f82011682018060405250810190610c3691906137ab565b600680547fffffffffffffffffffffffff00000000000000000000000000000000000000001673ffffffffffffffffffffffffffffffffffffffff9283169081179091556040517f9ac90d3d0000000000000000000000000000000000000000000000000000000081526004810191909152600091831690639ac90d3d906024016101006040518083038186803b158015610cd057600080fd5b505afa158015610ce4573d6000803e3d6000fd5b505050506040513d601f19601f82011682018060405250810190610d089190613861565b90505b60065460097401000000000000000000000000000000000000000090910460ff161015610e975760065460087401000000000000000000000000000000000000000090910460ff1610610de0576040517f08c379a000000000000000000000000000000000000000000000000000000000815260206004820152603560248201527f4761756765556e697377617052657374616b653a3a696e69743a20696e76616c60448201527f6964207377617020746f6b656e2061646472657373000000000000000000000060648201526084016104b3565b60065473ffffffffffffffffffffffffffffffffffffffff861690829074010000000000000000000000000000000000000000900460ff1660088110610e2857610e28613d6c565b602002015173ffffffffffffffffffffffffffffffffffffffff161415610e4e57610e97565b6006805474010000000000000000000000000000000000000000900460ff16906014610e7983613d1d565b91906101000a81548160ff021916908360ff16021790555050610d0b565b505050505050565b6040517f6b880718000000000000000000000000000000000000000000000000000000008152306004820152600090819073__$0bac19a4f6859fb91e3c64d76ce49d598f$__90636b8807189060240160206040518083038186803b158015610f0757600080fd5b505af4158015610f1b573d6000803e3d6000fd5b505050506040513d601f19601f82011682018060405250810190610f3f91906137ab565b905073ffffffffffffffffffffffffffffffffffffffff8116301415610f7d57505060005473ffffffffffffffffffffffffffffffffffffffff1690565b8073ffffffffffffffffffffffffffffffffffffffff1663370158ea6040518163ffffffff1660e01b815260040160206040518083038186803b158015610fc357600080fd5b505afa158015610fd7573d6000803e3d6000fd5b505050506040513d601f19601f82011682018060405250810190610ffb91906137ab565b91505090565b6040517f6b88071800000000000000000000000000000000000000000000000000000000815230600482018190529073__$0bac19a4f6859fb91e3c64d76ce49d598f$__90636b8807189060240160206040518083038186803b15801561106757600080fd5b505af415801561107b573d6000803e3d6000fd5b505050506040513d601f19601f8201168201806040525081019061109f91906137ab565b73ffffffffffffffffffffffffffffffffffffffff1614156112545760006110c5610e9f565b6040517f21f8a7210000000000000000000000000000000000000000000000000000000081527f689d13d8ed8ef1027633ba26e7121121cf427434450a529548f19bf175974395600482015273ffffffffffffffffffffffffffffffffffffffff91909116906321f8a7219060240160206040518083038186803b15801561114c57600080fd5b505afa158015611160573d6000803e3d6000fd5b505050506040513d601f19601f8201168201806040525081019061118491906137ab565b60015490915073ffffffffffffffffffffffffffffffffffffffff163314806111c257503373ffffffffffffffffffffffffffffffffffffffff8216145b61124e576040517f08c379a000000000000000000000000000000000000000000000000000000000815260206004820152602260248201527f4175746f6d6174653a2063616c6c6572206973206e6f7420746865207061757360448201527f657200000000000000000000000000000000000000000000000000000000000060648201526084016104b3565b506112fb565b60015473ffffffffffffffffffffffffffffffffffffffff1633146112fb576040517f08c379a000000000000000000000000000000000000000000000000000000000815260206004820152602260248201527f4175746f6d6174653a2063616c6c6572206973206e6f7420746865207061757360448201527f657200000000000000000000000000000000000000000000000000000000000060648201526084016104b3565b6113036119e9565b611369576040517f08c379a000000000000000000000000000000000000000000000000000000000815260206004820152601460248201527f4175746f6d6174653a206e6f742070617573656400000000000000000000000060448201526064016104b3565b600180547fffffffffffffffffffffff00ffffffffffffffffffffffffffffffffffffffff169055565b60015473ffffffffffffffffffffffffffffffffffffffff16331461143a576040517f08c379a000000000000000000000000000000000000000000000000000000000815260206004820152602160248201527f4175746f6d6174653a2063616c6c6572206973206e6f7420746865206f776e6560448201527f720000000000000000000000000000000000000000000000000000000000000060648201526084016104b3565b600061145b60015473ffffffffffffffffffffffffffffffffffffffff1690565b6003546040517f70a0823100000000000000000000000000000000000000000000000000000000815230600482015291925073ffffffffffffffffffffffffffffffffffffffff169060009082906370a082319060240160206040518083038186803b1580156114ca57600080fd5b505afa1580156114de573d6000803e3d6000fd5b505050506040513d601f19601f8201168201806040525081019061150291906139db565b9050801561158b576040517f2e1a7d4d0000000000000000000000000000000000000000000000000000000081526004810182905273ffffffffffffffffffffffffffffffffffffffff831690632e1a7d4d90602401600060405180830381600087803b15801561157257600080fd5b505af1158015611586573d6000803e3d6000fd5b505050505b6005546040517f70a0823100000000000000000000000000000000000000000000000000000000815230600482015260009173ffffffffffffffffffffffffffffffffffffffff16906370a082319060240160206040518083038186803b1580156115f557600080fd5b505afa158015611609573d6000803e3d6000fd5b505050506040513d601f19601f8201168201806040525081019061162d91906139db565b905080156116e3576005546040517fa9059cbb00000000000000000000000000000000000000000000000000000000815273ffffffffffffffffffffffffffffffffffffffff8681166004830152602482018490529091169063a9059cbb90604401602060405180830381600087803b1580156116a957600080fd5b505af11580156116bd573d6000803e3d6000fd5b505050506040513d601f19601f820116820180604052508101906116e191906139a0565b505b600354604080517f07546172000000000000000000000000000000000000000000000000000000008152905160009273ffffffffffffffffffffffffffffffffffffffff16916307546172916004808301926020929190829003018186803b15801561174e57600080fd5b505afa158015611762573d6000803e3d6000fd5b505050506040513d601f19601f8201168201806040525081019061178691906137ab565b6040517f6a62784200000000000000000000000000000000000000000000000000000000815273ffffffffffffffffffffffffffffffffffffffff868116600483015291925090821690636a62784290602401600060405180830381600087803b1580156117f357600080fd5b505af1158015611807573d6000803e3d6000fd5b5050505060008473ffffffffffffffffffffffffffffffffffffffff166376d8b1176040518163ffffffff1660e01b815260040160206040518083038186803b15801561185357600080fd5b505afa158015611867573d6000803e3d6000fd5b505050506040513d601f19601f8201168201806040525081019061188b91906137ab565b6040517f70a0823100000000000000000000000000000000000000000000000000000000815230600482015290915060009073ffffffffffffffffffffffffffffffffffffffff8316906370a082319060240160206040518083038186803b1580156118f657600080fd5b505afa15801561190a573d6000803e3d6000fd5b505050506040513d601f19601f8201168201806040525081019061192e91906139db565b905080156119e0576040517fa9059cbb00000000000000000000000000000000000000000000000000000000815273ffffffffffffffffffffffffffffffffffffffff88811660048301526024820183905283169063a9059cbb90604401602060405180830381600087803b1580156119a657600080fd5b505af11580156119ba573d6000803e3d6000fd5b505050506040513d601f19601f820116820180604052508101906119de91906139a0565b505b50505050505050565b6040517f6b880718000000000000000000000000000000000000000000000000000000008152306004820152600090819073__$0bac19a4f6859fb91e3c64d76ce49d598f$__90636b8807189060240160206040518083038186803b158015611a5157600080fd5b505af4158015611a65573d6000803e3d6000fd5b505050506040513d601f19601f82011682018060405250810190611a8991906137ab565b905073ffffffffffffffffffffffffffffffffffffffff8116301415611acc57505060015474010000000000000000000000000000000000000000900460ff1690565b60015474010000000000000000000000000000000000000000900460ff1680610ffb57508073ffffffffffffffffffffffffffffffffffffffff16635c975abb6040518163ffffffff1660e01b815260040160206040518083038186803b158015611b3657600080fd5b505afa158015611b4a573d6000803e3d6000fd5b505050506040513d601f19601f82011682018060405250810190610ffb91906139a0565b60065460009073ffffffffffffffffffffffffffffffffffffffff1681611b9361342e565b6040517f940494f100000000000000000000000000000000000000000000000000000000815273ffffffffffffffffffffffffffffffffffffffff84811660048301529192509082169063940494f19060240160206040518083038186803b158015611bfe57600080fd5b505afa158015611c12573d6000803e3d6000fd5b505050506040513d601f19601f82011682018060405250810190611c3691906139db565b60031415611d2b57611c4661371a565b6006548590829074010000000000000000000000000000000000000000900460ff1660038110611c7857611c78613d6c565b60200201526040517f3883e11900000000000000000000000000000000000000000000000000000000815273ffffffffffffffffffffffffffffffffffffffff841690633883e11990611cd2908490600190600401613b93565b60206040518083038186803b158015611cea57600080fd5b505afa158015611cfe573d6000803e3d6000fd5b505050506040513d601f19601f82011682018060405250810190611d2291906139db565b95945050505050565b611d33613738565b6006548590829074010000000000000000000000000000000000000000900460ff1660028110611d6557611d65613d6c565b60200201526040517fed8e84f300000000000000000000000000000000000000000000000000000000815273ffffffffffffffffffffffffffffffffffffffff84169063ed8e84f390611cd2908490600190600401613b5b565b6040517f6b88071800000000000000000000000000000000000000000000000000000000815230600482018190529073__$0bac19a4f6859fb91e3c64d76ce49d598f$__90636b8807189060240160206040518083038186803b158015611e2557600080fd5b505af4158015611e39573d6000803e3d6000fd5b505050506040513d601f19601f82011682018060405250810190611e5d91906137ab565b73ffffffffffffffffffffffffffffffffffffffff161415612012576000611e83610e9f565b6040517f21f8a7210000000000000000000000000000000000000000000000000000000081527f689d13d8ed8ef1027633ba26e7121121cf427434450a529548f19bf175974395600482015273ffffffffffffffffffffffffffffffffffffffff91909116906321f8a7219060240160206040518083038186803b158015611f0a57600080fd5b505afa158015611f1e573d6000803e3d6000fd5b505050506040513d601f19601f82011682018060405250810190611f4291906137ab565b60015490915073ffffffffffffffffffffffffffffffffffffffff16331480611f8057503373ffffffffffffffffffffffffffffffffffffffff8216145b61200c576040517f08c379a000000000000000000000000000000000000000000000000000000000815260206004820152602260248201527f4175746f6d6174653a2063616c6c6572206973206e6f7420746865207061757360448201527f657200000000000000000000000000000000000000000000000000000000000060648201526084016104b3565b506120b9565b60015473ffffffffffffffffffffffffffffffffffffffff1633146120b9576040517f08c379a000000000000000000000000000000000000000000000000000000000815260206004820152602260248201527f4175746f6d6174653a2063616c6c6572206973206e6f7420746865207061757360448201527f657200000000000000000000000000000000000000000000000000000000000060648201526084016104b3565b6120c16119e9565b15612128576040517f08c379a000000000000000000000000000000000000000000000000000000000815260206004820152601060248201527f4175746f6d6174653a207061757365640000000000000000000000000000000060448201526064016104b3565b600180547fffffffffffffffffffffff00ffffffffffffffffffffffffffffffffffffffff1674010000000000000000000000000000000000000000179055565b6040517f6b88071800000000000000000000000000000000000000000000000000000000815230600482015260009073__$0bac19a4f6859fb91e3c64d76ce49d598f$__90636b8807189060240160206040518083038186803b1580156121cf57600080fd5b505af41580156121e3573d6000803e3d6000fd5b505050506040513d601f19601f8201168201806040525081019061220791906137ab565b90503373ffffffffffffffffffffffffffffffffffffffff821630146122aa578173ffffffffffffffffffffffffffffffffffffffff16638da5cb5b6040518163ffffffff1660e01b815260040160206040518083038186803b15801561226d57600080fd5b505afa158015612281573d6000803e3d6000fd5b505050506040513d601f19601f820116820180604052508101906122a591906137ab565b6122c4565b60015473ffffffffffffffffffffffffffffffffffffffff165b73ffffffffffffffffffffffffffffffffffffffff1614612367576040517f08c379a000000000000000000000000000000000000000000000000000000000815260206004820152603d60248201527f4175746f6d6174653a3a6368616e676550726f746f636f6c4665653a2063616c60448201527f6c6572206973206e6f74207468652070726f746f636f6c206f776e657200000060648201526084016104b3565b60028290556040518281527f3c1d43943224e49d951ce8295a5c8332b517083b3f89bed50feae2cb39caebb59060200160405180910390a15050565b6040517f6b880718000000000000000000000000000000000000000000000000000000008152306004820152600090819073__$0bac19a4f6859fb91e3c64d76ce49d598f$__90636b8807189060240160206040518083038186803b15801561240b57600080fd5b505af415801561241f573d6000803e3d6000fd5b505050506040513d601f19601f8201168201806040525081019061244391906137ab565b905073ffffffffffffffffffffffffffffffffffffffff8116301480159061246d57506000600254125b156124f0578073ffffffffffffffffffffffffffffffffffffffff1663b0e21e8a6040518163ffffffff1660e01b815260040160206040518083038186803b1580156124b857600080fd5b505afa1580156124cc573d6000803e3d6000fd5b505050506040513d601f19601f82011682018060405250810190610ffb91906139db565b60006124fa610e9f565b90506000806002541261250f576002546125cc565b6040517fbd02d0f50000000000000000000000000000000000000000000000000000000081527fa93d95f96a5de25d7a41ddf1f5e8d45cfc929c4838163cf011dab4043a4a40d5600482015273ffffffffffffffffffffffffffffffffffffffff83169063bd02d0f59060240160206040518083038186803b15801561259457600080fd5b505afa1580156125a8573d6000803e3d6000fd5b505050506040513d601f19601f820116820180604052508101906125cc91906139db565b9050806125dd576000935050505090565b6040517f21f8a7210000000000000000000000000000000000000000000000000000000081527f65c90423fe7c880476633a7e36521740f87199d233dc56eb4ca6643eb76f605f600482015260009073ffffffffffffffffffffffffffffffffffffffff8416906321f8a7219060240160206040518083038186803b15801561266557600080fd5b505afa158015612679573d6000803e3d6000fd5b505050506040513d601f19601f8201168201806040525081019061269d91906137ab565b73ffffffffffffffffffffffffffffffffffffffff1663feaf968c6040518163ffffffff1660e01b815260040160a06040518083038186803b1580156126e257600080fd5b505afa1580156126f6573d6000803e3d6000fd5b505050506040513d601f19601f8201168201806040525081019061271a9190613a26565b5050509150506000811361278a576040517f08c379a000000000000000000000000000000000000000000000000000000000815260206004820152601760248201527f4175746f6d6174653a20696e76616c696420707269636500000000000000000060448201526064016104b3565b8061279d83670de0b6b3a7640000613ce0565b6127a79190613ca5565b94505050505090565b60015473ffffffffffffffffffffffffffffffffffffffff163314612857576040517f08c379a000000000000000000000000000000000000000000000000000000000815260206004820152602160248201527f4175746f6d6174653a2063616c6c6572206973206e6f7420746865206f776e6560448201527f720000000000000000000000000000000000000000000000000000000000000060648201526084016104b3565b6040517fa9059cbb00000000000000000000000000000000000000000000000000000000815273ffffffffffffffffffffffffffffffffffffffff83811660048301526024820183905284169063a9059cbb90604401602060405180830381600087803b1580156128c757600080fd5b505af11580156128db573d6000803e3d6000fd5b505050506040513d601f19601f820116820180604052508101906128ff91906139a0565b50505050565b60015473ffffffffffffffffffffffffffffffffffffffff1633146129ac576040517f08c379a000000000000000000000000000000000000000000000000000000000815260206004820152602160248201527f4175746f6d6174653a2063616c6c6572206973206e6f7420746865206f776e6560448201527f720000000000000000000000000000000000000000000000000000000000000060648201526084016104b3565b6003546005546129d59173ffffffffffffffffffffffffffffffffffffffff9182169116612ffe565b6003546005546040517f70a0823100000000000000000000000000000000000000000000000000000000815230600482015273ffffffffffffffffffffffffffffffffffffffff9283169263b6b55f259216906370a082319060240160206040518083038186803b158015612a4957600080fd5b505afa158015612a5d573d6000803e3d6000fd5b505050506040513d601f19601f82011682018060405250810190612a8191906139db565b6040518263ffffffff1660e01b8152600401612a9f91815260200190565b600060405180830381600087803b158015612ab957600080fd5b505af11580156128ff573d6000803e3d6000fd5b60015473ffffffffffffffffffffffffffffffffffffffff163314612b74576040517f08c379a000000000000000000000000000000000000000000000000000000000815260206004820152602160248201527f4175746f6d6174653a2063616c6c6572206973206e6f7420746865206f776e6560448201527f720000000000000000000000000000000000000000000000000000000000000060648201526084016104b3565b6040517f6b88071800000000000000000000000000000000000000000000000000000000815230600482018190529073__$0bac19a4f6859fb91e3c64d76ce49d598f$__90636b8807189060240160206040518083038186803b158015612bda57600080fd5b505af4158015612bee573d6000803e3d6000fd5b505050506040513d601f19601f82011682018060405250810190612c1291906137ab565b73ffffffffffffffffffffffffffffffffffffffff1614612cb5576040517f08c379a000000000000000000000000000000000000000000000000000000000815260206004820152602160248201527f4175746f6d6174653a206368616e676520746865206f776e6572206661696c6560448201527f640000000000000000000000000000000000000000000000000000000000000060648201526084016104b3565b6001805473ffffffffffffffffffffffffffffffffffffffff8381167fffffffffffffffffffffffff0000000000000000000000000000000000000000831681179093556040519116919082907f8be0079c531659141344cd1fd0a4f28419497f9722a3daafe3b4186f6b6457e090600090a35050565b6000612d366119e9565b15612d9d576040517f08c379a000000000000000000000000000000000000000000000000000000000815260206004820152601060248201527f4175746f6d6174653a207061757365640000000000000000000000000000000060448201526064016104b3565b6000612dbe60015473ffffffffffffffffffffffffffffffffffffffff1690565b90503273ffffffffffffffffffffffffffffffffffffffff82161415612de8576000915050612ff8565b6000612df2610e9f565b6040517f21f8a7210000000000000000000000000000000000000000000000000000000081527fe78c16c6d839536d3155985aab4e9c6013c8c3d446054bcebc48612f359d81f5600482015290915060009073ffffffffffffffffffffffffffffffffffffffff8316906321f8a7219060240160206040518083038186803b158015612e7d57600080fd5b505afa158015612e91573d6000803e3d6000fd5b505050506040513d601f19601f82011682018060405250810190612eb591906137ab565b905073ffffffffffffffffffffffffffffffffffffffff8116612f5a576040517f08c379a000000000000000000000000000000000000000000000000000000000815260206004820152602b60248201527f4175746f6d6174653a3a5f62696c6c3a2062616c616e636520636f6e7472616360448201527f74206e6f7420666f756e6400000000000000000000000000000000000000000060648201526084016104b3565b8073ffffffffffffffffffffffffffffffffffffffff1663e578a2258488612f806123a3565b896040518563ffffffff1660e01b8152600401612fa09493929190613abc565b602060405180830381600087803b158015612fba57600080fd5b505af1158015612fce573d6000803e3d6000fd5b505050506040513d601f19601f82011682018060405250810190612ff291906139db565b93505050505b92915050565b61302982827fffffffffffffffffffffffffffffffffffffffffffffffffffffffffffffffff6134fc565b5050565b604080516002808252606082018352600092839291906020830190803683375050875182519293509183915060009061306857613068613d6c565b73ffffffffffffffffffffffffffffffffffffffff929092166020928302919091018201528601518151829060019081106130a5576130a5613d6c565b73ffffffffffffffffffffffffffffffffffffffff92831660209182029290920101526040517f38ed1739000000000000000000000000000000000000000000000000000000008152908816906338ed17399061310e9088908890869030908a90600401613bcb565b600060405180830381600087803b15801561312857600080fd5b505af115801561313c573d6000803e3d6000fd5b505050506040513d6000823e601f3d9081017fffffffffffffffffffffffffffffffffffffffffffffffffffffffffffffffe016820160405261318291908101906138f3565b60018151811061319457613194613d6c565b602002602001015191505095945050505050565b60006131b261342e565b6040517f940494f100000000000000000000000000000000000000000000000000000000815273ffffffffffffffffffffffffffffffffffffffff86811660048301529192509082169063940494f19060240160206040518083038186803b15801561321d57600080fd5b505afa158015613231573d6000803e3d6000fd5b505050506040513d601f19601f8201168201806040525081019061325591906139db565b600314156133495761326561371a565b6006548490829074010000000000000000000000000000000000000000900460ff166003811061329757613297613d6c565b60200201526040517f4515cef300000000000000000000000000000000000000000000000000000000815273ffffffffffffffffffffffffffffffffffffffff861690634515cef3906132f09084908790600401613bb0565b602060405180830381600087803b15801561330a57600080fd5b505af115801561331e573d6000803e3d6000fd5b505050506040513d601f19601f8201168201806040525081019061334291906139db565b50506128ff565b613351613738565b6006548490829074010000000000000000000000000000000000000000900460ff166002811061338357613383613d6c565b60200201526040517f0b4c7e4d00000000000000000000000000000000000000000000000000000000815273ffffffffffffffffffffffffffffffffffffffff861690630b4c7e4d906133dc9084908790600401613b78565b602060405180830381600087803b1580156133f657600080fd5b505af115801561340a573d6000803e3d6000fd5b505050506040513d601f19601f82011682018060405250810190610e9791906139db565b6000613438610e9f565b6040517f21f8a7210000000000000000000000000000000000000000000000000000000081527fe3afe40301d08e5458680c2ac903d4fddf0931e5e1a5c6d9e21328d89e8d8e7c600482015273ffffffffffffffffffffffffffffffffffffffff91909116906321f8a7219060240160206040518083038186803b1580156134bf57600080fd5b505afa1580156134d3573d6000803e3d6000fd5b505050506040513d601f19601f820116820180604052508101906134f791906137ab565b905090565b6040517fdd62ed3e00000000000000000000000000000000000000000000000000000000815230600482015273ffffffffffffffffffffffffffffffffffffffff83811660248301526000919085169063dd62ed3e9060440160206040518083038186803b15801561356d57600080fd5b505afa158015613581573d6000803e3d6000fd5b505050506040513d601f19601f820116820180604052508101906135a591906139db565b905080158015906135b557508181105b15613664576040517f095ea7b300000000000000000000000000000000000000000000000000000000815273ffffffffffffffffffffffffffffffffffffffff84811660048301526000602483015285169063095ea7b390604401602060405180830381600087803b15801561362a57600080fd5b505af115801561363e573d6000803e3d6000fd5b505050506040513d601f19601f8201168201806040525081019061366291906139a0565b505b8181146128ff576040517f095ea7b300000000000000000000000000000000000000000000000000000000815273ffffffffffffffffffffffffffffffffffffffff84811660048301526024820184905285169063095ea7b390604401602060405180830381600087803b1580156136db57600080fd5b505af11580156136ef573d6000803e3d6000fd5b505050506040513d601f19601f8201168201806040525081019061371391906139a0565b5050505050565b60405180606001604052806003906020820280368337509192915050565b60405180604001604052806002906020820280368337509192915050565b803561ffff8116811461376857600080fd5b919050565b805169ffffffffffffffffffff8116811461376857600080fd5b60006020828403121561379957600080fd5b81356137a481613dca565b9392505050565b6000602082840312156137bd57600080fd5b81516137a481613dca565b600080600080608085870312156137de57600080fd5b84356137e981613dca565b935060208501356137f981613dca565b925061380760408601613756565b915061381560608601613756565b905092959194509250565b60008060006060848603121561383557600080fd5b833561384081613dca565b9250602084013561385081613dca565b929592945050506040919091013590565b600061010080838503121561387557600080fd5b83601f84011261388457600080fd5b60405181810181811067ffffffffffffffff821117156138a6576138a6613d9b565b60405280848381018710156138ba57600080fd5b600093505b60088410156138e85780516138d381613dca565b825260019390930192602091820191016138bf565b509095945050505050565b6000602080838503121561390657600080fd5b825167ffffffffffffffff8082111561391e57600080fd5b818501915085601f83011261393257600080fd5b81518181111561394457613944613d9b565b8060051b9150613955848301613c56565b8181528481019084860184860187018a101561397057600080fd5b600095505b83861015613993578051835260019590950194918601918601613975565b5098975050505050505050565b6000602082840312156139b257600080fd5b815180151581146137a457600080fd5b6000602082840312156139d457600080fd5b5035919050565b6000602082840312156139ed57600080fd5b5051919050565b60008060008060808587031215613a0a57600080fd5b5050823594602084013594506040840135936060013592509050565b600080600080600060a08688031215613a3e57600080fd5b613a478661376d565b9450602086015193506040860151925060608601519150613a6a6080870161376d565b90509295509295909350565b8060005b60028110156128ff578151845260209384019390910190600101613a7a565b8060005b60038110156128ff578151845260209384019390910190600101613a9d565b73ffffffffffffffffffffffffffffffffffffffff8516815260006020858184015284604084015260806060840152835180608085015260005b81811015613b125785810183015185820160a001528201613af6565b81811115613b2457600060a083870101525b50601f017fffffffffffffffffffffffffffffffffffffffffffffffffffffffffffffffe0169290920160a0019695505050505050565b60608101613b698285613a76565b82151560408301529392505050565b60608101613b868285613a76565b8260408301529392505050565b60808101613ba18285613a99565b82151560608301529392505050565b60808101613bbe8285613a99565b8260608301529392505050565b600060a082018783526020878185015260a0604085015281875180845260c086019150828901935060005b81811015613c2857845173ffffffffffffffffffffffffffffffffffffffff1683529383019391830191600101613bf6565b505073ffffffffffffffffffffffffffffffffffffffff969096166060850152505050608001529392505050565b604051601f82017fffffffffffffffffffffffffffffffffffffffffffffffffffffffffffffffe016810167ffffffffffffffff81118282101715613c9d57613c9d613d9b565b604052919050565b600082613cdb577f4e487b7100000000000000000000000000000000000000000000000000000000600052601260045260246000fd5b500490565b6000817fffffffffffffffffffffffffffffffffffffffffffffffffffffffffffffffff0483118215151615613d1857613d18613d3d565b500290565b600060ff821660ff811415613d3457613d34613d3d565b60010192915050565b7f4e487b7100000000000000000000000000000000000000000000000000000000600052601160045260246000fd5b7f4e487b7100000000000000000000000000000000000000000000000000000000600052603260045260246000fd5b7f4e487b7100000000000000000000000000000000000000000000000000000000600052604160045260246000fd5b73ffffffffffffffffffffffffffffffffffffffff81168114613dec57600080fd5b5056fea164736f6c6343000806000a",
  "libraries": {
    "ERC1167": "0x7ecFCbdeb6f195030B9Bf2ECc402f6d5433d116D"
  },
  "devdoc": {
    "kind": "dev",
    "methods": {
      "changeProtocolFee(int256)": {
        "params": {
          "__protocolFee": "New protocol fee."
        }
      },
      "protocolFee()": {
        "returns": {
          "_0": "Current protocol fee."
        }
      },
      "transfer(address,address,uint256)": {
        "params": {
          "amount": "Transferred amount of tokens.",
          "recipient": "Token recipient address.",
          "token": "The address of the token to be transferred."
        }
      },
      "transferOwnership(address)": {
        "details": "Transfers ownership of the contract to a new account (`newOwner`). Can only be called by the current owner."
      }
    },
    "version": 1
  },
  "userdoc": {
    "kind": "user",
    "methods": {
      "changeProtocolFee(int256)": {
        "notice": "Change protocol fee."
      },
      "info()": {
        "notice": "Returns address of Storage contract."
      },
      "owner()": {
        "notice": "Returns the address of the current owner."
      },
      "pause()": {
        "notice": "Pause contract."
      },
      "paused()": {
        "notice": "Returns true if the contract is paused, and false otherwise."
      },
      "transfer(address,address,uint256)": {
        "notice": "Transfer ERC20 token to recipient."
      },
      "unpause()": {
        "notice": "Unpause contract."
      }
    },
    "version": 1
  },
  "storageLayout": {
    "storage": [
      {
        "astId": 4620,
        "contract": "automates/curve/GaugeUniswapRestake.automate.sol:GaugeUniswapRestake",
        "label": "_info",
        "offset": 0,
        "slot": "0",
        "type": "t_address"
      },
      {
        "astId": 4623,
        "contract": "automates/curve/GaugeUniswapRestake.automate.sol:GaugeUniswapRestake",
        "label": "_owner",
        "offset": 0,
        "slot": "1",
        "type": "t_address"
      },
      {
        "astId": 4626,
        "contract": "automates/curve/GaugeUniswapRestake.automate.sol:GaugeUniswapRestake",
        "label": "_paused",
        "offset": 20,
        "slot": "1",
        "type": "t_bool"
      },
      {
        "astId": 4629,
        "contract": "automates/curve/GaugeUniswapRestake.automate.sol:GaugeUniswapRestake",
        "label": "_protocolFee",
        "offset": 0,
        "slot": "2",
        "type": "t_int256"
      },
      {
        "astId": 2389,
        "contract": "automates/curve/GaugeUniswapRestake.automate.sol:GaugeUniswapRestake",
        "label": "staking",
        "offset": 0,
        "slot": "3",
        "type": "t_contract(IGauge)4514"
      },
      {
        "astId": 2391,
        "contract": "automates/curve/GaugeUniswapRestake.automate.sol:GaugeUniswapRestake",
        "label": "swapToken",
        "offset": 0,
        "slot": "4",
        "type": "t_address"
      },
      {
        "astId": 2393,
        "contract": "automates/curve/GaugeUniswapRestake.automate.sol:GaugeUniswapRestake",
        "label": "slippage",
        "offset": 20,
        "slot": "4",
        "type": "t_uint16"
      },
      {
        "astId": 2395,
        "contract": "automates/curve/GaugeUniswapRestake.automate.sol:GaugeUniswapRestake",
        "label": "deadline",
        "offset": 22,
        "slot": "4",
        "type": "t_uint16"
      },
      {
        "astId": 2398,
        "contract": "automates/curve/GaugeUniswapRestake.automate.sol:GaugeUniswapRestake",
        "label": "_lpToken",
        "offset": 0,
        "slot": "5",
        "type": "t_contract(IERC20)669"
      },
      {
        "astId": 2400,
        "contract": "automates/curve/GaugeUniswapRestake.automate.sol:GaugeUniswapRestake",
        "label": "_pool",
        "offset": 0,
        "slot": "6",
        "type": "t_address"
      },
      {
        "astId": 2402,
        "contract": "automates/curve/GaugeUniswapRestake.automate.sol:GaugeUniswapRestake",
        "label": "_swapTokenN",
        "offset": 20,
        "slot": "6",
        "type": "t_uint8"
      }
    ],
    "types": {
      "t_address": {
        "encoding": "inplace",
        "label": "address",
        "numberOfBytes": "20"
      },
      "t_bool": {
        "encoding": "inplace",
        "label": "bool",
        "numberOfBytes": "1"
      },
      "t_contract(IERC20)669": {
        "encoding": "inplace",
        "label": "contract IERC20",
        "numberOfBytes": "20"
      },
      "t_contract(IGauge)4514": {
        "encoding": "inplace",
        "label": "contract IGauge",
        "numberOfBytes": "20"
      },
      "t_int256": {
        "encoding": "inplace",
        "label": "int256",
        "numberOfBytes": "32"
      },
      "t_uint16": {
        "encoding": "inplace",
        "label": "uint16",
        "numberOfBytes": "2"
      },
      "t_uint8": {
        "encoding": "inplace",
        "label": "uint8",
        "numberOfBytes": "1"
      }
    }
  }
}