{
  "_format": "hh-sol-artifact-1",
  "contractName": "UniswapV2RouterMock",
  "sourceName": "automates/bondappetit/mock/UniswapV2RouterMock.sol",
  "abi": [
    {
      "inputs": [
        {
          "internalType": "address",
          "name": "pair",
          "type": "address"
        }
      ],
      "stateMutability": "nonpayable",
      "type": "constructor"
    },
    {
      "inputs": [
        {
          "internalType": "address",
          "name": "tokenA",
          "type": "address"
        },
        {
          "internalType": "address",
          "name": "tokenB",
          "type": "address"
        },
        {
          "internalType": "uint256",
          "name": "amountADesired",
          "type": "uint256"
        },
        {
          "internalType": "uint256",
          "name": "amountBDesired",
          "type": "uint256"
        },
        {
          "internalType": "uint256",
          "name": "",
          "type": "uint256"
        },
        {
          "internalType": "uint256",
          "name": "",
          "type": "uint256"
        },
        {
          "internalType": "address",
          "name": "",
          "type": "address"
        },
        {
          "internalType": "uint256",
          "name": "",
          "type": "uint256"
        }
      ],
      "name": "addLiquidity",
      "outputs": [
        {
          "internalType": "uint256",
          "name": "amountA",
          "type": "uint256"
        },
        {
          "internalType": "uint256",
          "name": "amountB",
          "type": "uint256"
        },
        {
          "internalType": "uint256",
          "name": "liquidity",
          "type": "uint256"
        }
      ],
      "stateMutability": "nonpayable",
      "type": "function"
    },
    {
      "inputs": [
        {
          "internalType": "uint256",
          "name": "",
          "type": "uint256"
        },
        {
          "internalType": "address[]",
          "name": "path",
          "type": "address[]"
        }
      ],
      "name": "getAmountsOut",
      "outputs": [
        {
          "internalType": "uint256[]",
          "name": "amounts",
          "type": "uint256[]"
        }
      ],
      "stateMutability": "view",
      "type": "function"
    },
    {
      "inputs": [
        {
          "internalType": "address[]",
          "name": "path",
          "type": "address[]"
        },
        {
          "internalType": "uint256[]",
          "name": "amountsOut",
          "type": "uint256[]"
        }
      ],
      "name": "setAmountsOut",
      "outputs": [],
      "stateMutability": "nonpayable",
      "type": "function"
    },
    {
      "inputs": [
        {
          "internalType": "uint256",
          "name": "",
          "type": "uint256"
        },
        {
          "internalType": "uint256",
          "name": "",
          "type": "uint256"
        },
        {
          "internalType": "address[]",
          "name": "path",
          "type": "address[]"
        },
        {
          "internalType": "address",
          "name": "",
          "type": "address"
        },
        {
          "internalType": "uint256",
          "name": "",
          "type": "uint256"
        }
      ],
      "name": "swapExactTokensForTokens",
      "outputs": [
        {
          "internalType": "uint256[]",
          "name": "amounts",
          "type": "uint256[]"
        }
      ],
      "stateMutability": "nonpayable",
      "type": "function"
    }
  ],
  "bytecode": "0x608060405234801561001057600080fd5b50604051610a83380380610a8383398101604081905261002f91610054565b600180546001600160a01b0319166001600160a01b0392909216919091179055610084565b60006020828403121561006657600080fd5b81516001600160a01b038116811461007d57600080fd5b9392505050565b6109f0806100936000396000f3fe608060405234801561001057600080fd5b506004361061004c5760003560e01c806338ed1739146100515780638bbfd1b61461007a578063d06ca61f1461008f578063e8e33700146100a2575b600080fd5b61006461005f366004610875565b6100d0565b6040516100719190610932565b60405180910390f35b61008d610088366004610782565b610271565b005b61006461009d366004610829565b6102c1565b6100b56100b036600461070e565b610355565b60408051938452602084019290925290820152606001610071565b606060008086866040516020016100e89291906108e5565b60405160208183030381529060405280519060200120815260200190815260200160002080548060200260200160405190810160405280929190818152602001828054801561015657602002820191906000526020600020905b815481526020019060010190808311610142575b50505050509050848460018787905061016f9190610976565b81811061017e5761017e6109b4565b905060200201602081019061019391906106ec565b73ffffffffffffffffffffffffffffffffffffffff1663a9059cbb3383600185516101be9190610976565b815181106101ce576101ce6109b4565b60200260200101516040518363ffffffff1660e01b815260040161021492919073ffffffffffffffffffffffffffffffffffffffff929092168252602082015260400190565b602060405180830381600087803b15801561022e57600080fd5b505af1158015610242573d6000803e3d6000fd5b505050506040513d601f19601f8201168201806040525081019061026691906107ee565b509695505050505050565b818160008087876040516020016102899291906108e5565b60405160208183030381529060405280519060200120815260200190815260200160002091906102ba929190610617565b5050505050565b606060008084846040516020016102d99291906108e5565b60405160208183030381529060405280519060200120815260200190815260200160002080548060200260200160405190810160405280929190818152602001828054801561034757602002820191906000526020600020905b815481526020019060010190808311610333575b505050505090509392505050565b6040517f23b872dd000000000000000000000000000000000000000000000000000000008152336004820152306024820152604481018790526000908190819073ffffffffffffffffffffffffffffffffffffffff8c16906323b872dd90606401602060405180830381600087803b1580156103d057600080fd5b505af11580156103e4573d6000803e3d6000fd5b505050506040513d601f19601f8201168201806040525081019061040891906107ee565b506040517f23b872dd0000000000000000000000000000000000000000000000000000000081523360048201523060248201526044810189905273ffffffffffffffffffffffffffffffffffffffff8b16906323b872dd90606401602060405180830381600087803b15801561047d57600080fd5b505af1158015610491573d6000803e3d6000fd5b505050506040513d601f19601f820116820180604052508101906104b591906107ee565b506001546040517f70a082310000000000000000000000000000000000000000000000000000000081523060048201528a945089935073ffffffffffffffffffffffffffffffffffffffff909116906370a082319060240160206040518083038186803b15801561052557600080fd5b505afa158015610539573d6000803e3d6000fd5b505050506040513d601f19601f8201168201806040525081019061055d9190610810565b6001546040517fa9059cbb0000000000000000000000000000000000000000000000000000000081523360048201526024810183905291925073ffffffffffffffffffffffffffffffffffffffff169063a9059cbb90604401602060405180830381600087803b1580156105d057600080fd5b505af11580156105e4573d6000803e3d6000fd5b505050506040513d601f19601f8201168201806040525081019061060891906107ee565b50985098509895505050505050565b828054828255906000526020600020908101928215610652579160200282015b82811115610652578235825591602001919060010190610637565b5061065e929150610662565b5090565b5b8082111561065e5760008155600101610663565b803573ffffffffffffffffffffffffffffffffffffffff8116811461069b57600080fd5b919050565b60008083601f8401126106b257600080fd5b50813567ffffffffffffffff8111156106ca57600080fd5b6020830191508360208260051b85010111156106e557600080fd5b9250929050565b6000602082840312156106fe57600080fd5b61070782610677565b9392505050565b600080600080600080600080610100898b03121561072b57600080fd5b61073489610677565b975061074260208a01610677565b965060408901359550606089013594506080890135935060a0890135925061076c60c08a01610677565b915060e089013590509295985092959890939650565b6000806000806040858703121561079857600080fd5b843567ffffffffffffffff808211156107b057600080fd5b6107bc888389016106a0565b909650945060208701359150808211156107d557600080fd5b506107e2878288016106a0565b95989497509550505050565b60006020828403121561080057600080fd5b8151801515811461070757600080fd5b60006020828403121561082257600080fd5b5051919050565b60008060006040848603121561083e57600080fd5b83359250602084013567ffffffffffffffff81111561085c57600080fd5b610868868287016106a0565b9497909650939450505050565b60008060008060008060a0878903121561088e57600080fd5b8635955060208701359450604087013567ffffffffffffffff8111156108b357600080fd5b6108bf89828a016106a0565b90955093506108d2905060608801610677565b9150608087013590509295509295509295565b60008184825b858110156109275773ffffffffffffffffffffffffffffffffffffffff61091183610677565b16835260209283019291909101906001016108eb565b509095945050505050565b6020808252825182820181905260009190848201906040850190845b8181101561096a5783518352928401929184019160010161094e565b50909695505050505050565b6000828210156109af577f4e487b7100000000000000000000000000000000000000000000000000000000600052601160045260246000fd5b500390565b7f4e487b7100000000000000000000000000000000000000000000000000000000600052603260045260246000fdfea164736f6c6343000806000a",
  "linkReferences": {},
  "deployedLinkReferences": {}
}