{
  "_format": "hh-sol-artifact-1",
  "contractName": "UniswapV2RouterMock",
  "sourceName": "automates/bondappetit/mock/UniswapV2RouterMock.sol",
  "abi": [
    {
      "inputs": [
        {
          "internalType": "address",
          "name": "pair",
          "type": "address"
        }
      ],
      "stateMutability": "nonpayable",
      "type": "constructor"
    },
    {
      "inputs": [
        {
          "internalType": "address",
          "name": "tokenA",
          "type": "address"
        },
        {
          "internalType": "address",
          "name": "tokenB",
          "type": "address"
        },
        {
          "internalType": "uint256",
          "name": "amountADesired",
          "type": "uint256"
        },
        {
          "internalType": "uint256",
          "name": "amountBDesired",
          "type": "uint256"
        },
        {
          "internalType": "uint256",
          "name": "amountAMin",
          "type": "uint256"
        },
        {
          "internalType": "uint256",
          "name": "amountBMin",
          "type": "uint256"
        },
        {
          "internalType": "address",
          "name": "to",
          "type": "address"
        },
        {
          "internalType": "uint256",
          "name": "deadline",
          "type": "uint256"
        }
      ],
      "name": "addLiquidity",
      "outputs": [
        {
          "internalType": "uint256",
          "name": "amountA",
          "type": "uint256"
        },
        {
          "internalType": "uint256",
          "name": "amountB",
          "type": "uint256"
        },
        {
          "internalType": "uint256",
          "name": "liquidity",
          "type": "uint256"
        }
      ],
      "stateMutability": "nonpayable",
      "type": "function"
    },
    {
      "inputs": [
        {
          "internalType": "uint256",
          "name": "amountIn",
          "type": "uint256"
        },
        {
          "internalType": "address[]",
          "name": "path",
          "type": "address[]"
        }
      ],
      "name": "getAmountsOut",
      "outputs": [
        {
          "internalType": "uint256[]",
          "name": "amounts",
          "type": "uint256[]"
        }
      ],
      "stateMutability": "view",
      "type": "function"
    },
    {
      "inputs": [
        {
          "internalType": "address[]",
          "name": "path",
          "type": "address[]"
        },
        {
          "internalType": "uint256[]",
          "name": "amountsOut",
          "type": "uint256[]"
        }
      ],
      "name": "setAmountsOut",
      "outputs": [],
      "stateMutability": "nonpayable",
      "type": "function"
    },
    {
      "inputs": [
        {
          "internalType": "uint256",
          "name": "amountIn",
          "type": "uint256"
        },
        {
          "internalType": "uint256",
          "name": "amountOutMin",
          "type": "uint256"
        },
        {
          "internalType": "address[]",
          "name": "path",
          "type": "address[]"
        },
        {
          "internalType": "address",
          "name": "to",
          "type": "address"
        },
        {
          "internalType": "uint256",
          "name": "deadline",
          "type": "uint256"
        }
      ],
      "name": "swapExactTokensForTokens",
      "outputs": [
        {
          "internalType": "uint256[]",
          "name": "amounts",
          "type": "uint256[]"
        }
      ],
      "stateMutability": "nonpayable",
      "type": "function"
    }
  ],
  "bytecode": "0x608060405234801561001057600080fd5b506040516109ae3803806109ae83398101604081905261002f91610054565b600180546001600160a01b0319166001600160a01b0392909216919091179055610084565b60006020828403121561006657600080fd5b81516001600160a01b038116811461007d57600080fd5b9392505050565b61091b806100936000396000f3fe608060405234801561001057600080fd5b506004361061004c5760003560e01c806338ed1739146100515780638bbfd1b61461007a578063d06ca61f1461008f578063e8e33700146100a2575b600080fd5b61006461005f3660046107b6565b6100d0565b6040516100719190610866565b60405180910390f35b61008d6100883660046106c3565b610257565b005b61006461009d36600461076a565b6102a7565b6100b56100b036600461064f565b61033b565b60408051938452602084019290925290820152606001610071565b606060008086866040516020016100e8929190610826565b60405160208183030381529060405280519060200120815260200190815260200160002080548060200260200160405190810160405280929190818152602001828054801561015657602002820191906000526020600020905b815481526020019060010190808311610142575b50505050509050848460018787905061016f91906108aa565b81811061017e5761017e6108cf565b9050602002016020810190610193919061062d565b6001600160a01b031663a9059cbb3383600185516101b191906108aa565b815181106101c1576101c16108cf565b60200260200101516040518363ffffffff1660e01b81526004016101fa9291906001600160a01b03929092168252602082015260400190565b602060405180830381600087803b15801561021457600080fd5b505af1158015610228573d6000803e3d6000fd5b505050506040513d601f19601f8201168201806040525081019061024c919061072f565b509695505050505050565b8181600080878760405160200161026f929190610826565b60405160208183030381529060405280519060200120815260200190815260200160002091906102a0929190610565565b5050505050565b606060008084846040516020016102bf929190610826565b60405160208183030381529060405280519060200120815260200190815260200160002080548060200260200160405190810160405280929190818152602001828054801561032d57602002820191906000526020600020905b815481526020019060010190808311610319575b505050505090509392505050565b6040516323b872dd60e01b815233600482015230602482015260448101879052600090819081906001600160a01b038c16906323b872dd90606401602060405180830381600087803b15801561039057600080fd5b505af11580156103a4573d6000803e3d6000fd5b505050506040513d601f19601f820116820180604052508101906103c8919061072f565b506040516323b872dd60e01b8152336004820152306024820152604481018990526001600160a01b038b16906323b872dd90606401602060405180830381600087803b15801561041757600080fd5b505af115801561042b573d6000803e3d6000fd5b505050506040513d601f19601f8201168201806040525081019061044f919061072f565b506001546040516370a0823160e01b81523060048201528a94508993506001600160a01b03909116906370a082319060240160206040518083038186803b15801561049957600080fd5b505afa1580156104ad573d6000803e3d6000fd5b505050506040513d601f19601f820116820180604052508101906104d19190610751565b60015460405163a9059cbb60e01b8152336004820152602481018390529192506001600160a01b03169063a9059cbb90604401602060405180830381600087803b15801561051e57600080fd5b505af1158015610532573d6000803e3d6000fd5b505050506040513d601f19601f82011682018060405250810190610556919061072f565b50985098509895505050505050565b8280548282559060005260206000209081019282156105a0579160200282015b828111156105a0578235825591602001919060010190610585565b506105ac9291506105b0565b5090565b5b808211156105ac57600081556001016105b1565b80356001600160a01b03811681146105dc57600080fd5b919050565b60008083601f8401126105f357600080fd5b50813567ffffffffffffffff81111561060b57600080fd5b6020830191508360208260051b850101111561062657600080fd5b9250929050565b60006020828403121561063f57600080fd5b610648826105c5565b9392505050565b600080600080600080600080610100898b03121561066c57600080fd5b610675896105c5565b975061068360208a016105c5565b965060408901359550606089013594506080890135935060a089013592506106ad60c08a016105c5565b915060e089013590509295985092959890939650565b600080600080604085870312156106d957600080fd5b843567ffffffffffffffff808211156106f157600080fd5b6106fd888389016105e1565b9096509450602087013591508082111561071657600080fd5b50610723878288016105e1565b95989497509550505050565b60006020828403121561074157600080fd5b8151801515811461064857600080fd5b60006020828403121561076357600080fd5b5051919050565b60008060006040848603121561077f57600080fd5b83359250602084013567ffffffffffffffff81111561079d57600080fd5b6107a9868287016105e1565b9497909650939450505050565b60008060008060008060a087890312156107cf57600080fd5b8635955060208701359450604087013567ffffffffffffffff8111156107f457600080fd5b61080089828a016105e1565b90955093506108139050606088016105c5565b9150608087013590509295509295509295565b60008184825b8581101561085b576001600160a01b03610845836105c5565b168352602092830192919091019060010161082c565b509095945050505050565b6020808252825182820181905260009190848201906040850190845b8181101561089e57835183529284019291840191600101610882565b50909695505050505050565b6000828210156108ca57634e487b7160e01b600052601160045260246000fd5b500390565b634e487b7160e01b600052603260045260246000fdfea26469706673582212208ec11468c544bb8e003f05caf980e7720b7243c46a226470aaef12e3655153af64736f6c63430008060033",
  "linkReferences": {},
  "deployedLinkReferences": {}
}