{
  "_format": "hh-sol-artifact-1",
  "contractName": "MetaPoolMock",
  "sourceName": "automates/curve/mock/MetaPoolMock.sol",
  "abi": [
    {
      "inputs": [
        {
          "internalType": "address",
          "name": "_lpToken",
          "type": "address"
        },
        {
          "internalType": "address[2]",
          "name": "_tokens",
          "type": "address[2]"
        }
      ],
      "stateMutability": "nonpayable",
      "type": "constructor"
    },
    {
      "inputs": [
        {
          "internalType": "uint256[2]",
          "name": "amounts",
          "type": "uint256[2]"
        },
        {
          "internalType": "uint256",
          "name": "",
          "type": "uint256"
        }
      ],
      "name": "add_liquidity",
      "outputs": [
        {
          "internalType": "uint256",
          "name": "minted",
          "type": "uint256"
        }
      ],
      "stateMutability": "nonpayable",
      "type": "function"
    },
    {
      "inputs": [
        {
          "internalType": "uint256[2]",
          "name": "amounts",
          "type": "uint256[2]"
        },
        {
          "internalType": "bool",
          "name": "",
          "type": "bool"
        }
      ],
      "name": "calc_token_amount",
      "outputs": [
        {
          "internalType": "uint256",
          "name": "minted",
          "type": "uint256"
        }
      ],
      "stateMutability": "pure",
      "type": "function"
    },
    {
      "inputs": [],
      "name": "lpToken",
      "outputs": [
        {
          "internalType": "address",
          "name": "",
          "type": "address"
        }
      ],
      "stateMutability": "view",
      "type": "function"
    },
    {
      "inputs": [
        {
          "internalType": "uint256",
          "name": "",
          "type": "uint256"
        }
      ],
      "name": "tokens",
      "outputs": [
        {
          "internalType": "address",
          "name": "",
          "type": "address"
        }
      ],
      "stateMutability": "view",
      "type": "function"
    }
  ],
  "bytecode": "0x608060405234801561001057600080fd5b5060405161089338038061089383398101604081905261002f916100e8565b600080546001600160a01b0319166001600160a01b038416179055610057600182600261005f565b50505061019c565b82600281019282156100a7579160200282015b828111156100a757825182546001600160a01b0319166001600160a01b03909116178255602090920191600190910190610072565b506100b39291506100b7565b5090565b5b808211156100b357600081556001016100b8565b80516001600160a01b03811681146100e357600080fd5b919050565b600080606083850312156100fb57600080fd5b610104836100cc565b9150602084603f85011261011757600080fd5b604080519081016001600160401b038111828210171561013957610139610186565b604052808583016060870188101561015057600080fd5b60005b600281101561017757610165826100cc565b83529184019190840190600101610153565b50505080925050509250929050565b634e487b7160e01b600052604160045260246000fd5b6106e8806101ab6000396000f3fe608060405234801561001057600080fd5b506004361061004c5760003560e01c80630b4c7e4d146100515780634f64b2be146100775780635fcbd285146100af578063ed8e84f3146100cf575b600080fd5b61006461005f3660046105b3565b6100e2565b6040519081526020015b60405180910390f35b61008a610085366004610602565b610467565b60405173ffffffffffffffffffffffffffffffffffffffff909116815260200161006e565b60005461008a9073ffffffffffffffffffffffffffffffffffffffff1681565b6100646100dd36600461057b565b610494565b6000805b60028160ff1610156103b557600060018260ff166002811061010a5761010a61069b565b015473ffffffffffffffffffffffffffffffffffffffff16905060008560ff84166002811061013b5761013b61069b565b6020020151111561037b57848260ff166002811061015b5761015b61069b565b60200201516040517fdd62ed3e00000000000000000000000000000000000000000000000000000000815233600482015230602482015273ffffffffffffffffffffffffffffffffffffffff83169063dd62ed3e9060440160206040518083038186803b1580156101cb57600080fd5b505afa1580156101df573d6000803e3d6000fd5b505050506040513d601f19601f82011682018060405250810190610203919061061b565b1015610295576040517f08c379a000000000000000000000000000000000000000000000000000000000815260206004820152603060248201527f4d657461506f6f6c4d6f636b3a3a6164645f6c69717569646974793a20746f6b60448201527f656e206e6f7420616c6c6f77616e636500000000000000000000000000000000606482015260840160405180910390fd5b8073ffffffffffffffffffffffffffffffffffffffff166323b872dd3330888660ff16600281106102c8576102c861069b565b60200201516040517fffffffff0000000000000000000000000000000000000000000000000000000060e086901b16815273ffffffffffffffffffffffffffffffffffffffff93841660048201529290911660248301526044820152606401602060405180830381600087803b15801561034157600080fd5b505af1158015610355573d6000803e3d6000fd5b505050506040513d601f19601f8201168201806040525081019061037991906105de565b505b848260ff16600281106103905761039061069b565b602002015161039f9084610634565b92505080806103ad9061064c565b9150506100e6565b506000546040517fa9059cbb0000000000000000000000000000000000000000000000000000000081523360048201526024810183905273ffffffffffffffffffffffffffffffffffffffff9091169063a9059cbb90604401602060405180830381600087803b15801561042857600080fd5b505af115801561043c573d6000803e3d6000fd5b505050506040513d601f19601f8201168201806040525081019061046091906105de565b5092915050565b6001816002811061047757600080fd5b015473ffffffffffffffffffffffffffffffffffffffff16905081565b6000805b60028160ff16101561046057838160ff16600281106104b9576104b961069b565b60200201516104c89083610634565b9150806104d48161064c565b915050610498565b600082601f8301126104ed57600080fd5b6040516040810181811067ffffffffffffffff82111715610537577f4e487b7100000000000000000000000000000000000000000000000000000000600052604160045260246000fd5b806040525080838560408601111561054e57600080fd5b60005b6002811015610570578135835260209283019290910190600101610551565b509195945050505050565b6000806060838503121561058e57600080fd5b61059884846104dc565b915060408301356105a8816106ca565b809150509250929050565b600080606083850312156105c657600080fd5b6105d084846104dc565b946040939093013593505050565b6000602082840312156105f057600080fd5b81516105fb816106ca565b9392505050565b60006020828403121561061457600080fd5b5035919050565b60006020828403121561062d57600080fd5b5051919050565b600082198211156106475761064761066c565b500190565b600060ff821660ff8114156106635761066361066c565b60010192915050565b7f4e487b7100000000000000000000000000000000000000000000000000000000600052601160045260246000fd5b7f4e487b7100000000000000000000000000000000000000000000000000000000600052603260045260246000fd5b80151581146106d857600080fd5b5056fea164736f6c6343000806000a",
  "linkReferences": {},
  "deployedLinkReferences": {}
}