{
  "address": "0x770D64Ae34a52d8B60e0CC34F7991F19e026CfD7",
  "abi": [
    {
      "inputs": [
        {
          "internalType": "address",
          "name": "_info",
          "type": "address"
        }
      ],
      "stateMutability": "nonpayable",
      "type": "constructor"
    },
    {
      "anonymous": false,
      "inputs": [
        {
          "indexed": true,
          "internalType": "address",
          "name": "previousOwner",
          "type": "address"
        },
        {
          "indexed": true,
          "internalType": "address",
          "name": "newOwner",
          "type": "address"
        }
      ],
      "name": "OwnershipTransferred",
      "type": "event"
    },
    {
      "anonymous": false,
      "inputs": [
        {
          "indexed": false,
          "internalType": "int256",
          "name": "protocolFee",
          "type": "int256"
        }
      ],
      "name": "ProtocolFeeChanged",
      "type": "event"
    },
    {
      "inputs": [
        {
          "internalType": "int256",
          "name": "__protocolFee",
          "type": "int256"
        }
      ],
      "name": "changeProtocolFee",
      "outputs": [],
      "stateMutability": "nonpayable",
      "type": "function"
    },
    {
      "inputs": [],
      "name": "deadline",
      "outputs": [
        {
          "internalType": "uint16",
          "name": "",
          "type": "uint16"
        }
      ],
      "stateMutability": "view",
      "type": "function"
    },
    {
      "inputs": [],
      "name": "deposit",
      "outputs": [],
      "stateMutability": "nonpayable",
      "type": "function"
    },
    {
      "inputs": [],
      "name": "info",
      "outputs": [
        {
          "internalType": "address",
          "name": "",
          "type": "address"
        }
      ],
      "stateMutability": "view",
      "type": "function"
    },
    {
      "inputs": [
        {
          "internalType": "address",
          "name": "_staking",
          "type": "address"
        },
        {
          "internalType": "uint256",
          "name": "_pool",
          "type": "uint256"
        },
        {
          "internalType": "uint16",
          "name": "_slippage",
          "type": "uint16"
        },
        {
          "internalType": "uint16",
          "name": "_deadline",
          "type": "uint16"
        }
      ],
      "name": "init",
      "outputs": [],
      "stateMutability": "nonpayable",
      "type": "function"
    },
    {
      "inputs": [],
      "name": "owner",
      "outputs": [
        {
          "internalType": "address",
          "name": "",
          "type": "address"
        }
      ],
      "stateMutability": "view",
      "type": "function"
    },
    {
      "inputs": [],
      "name": "pause",
      "outputs": [],
      "stateMutability": "nonpayable",
      "type": "function"
    },
    {
      "inputs": [],
      "name": "paused",
      "outputs": [
        {
          "internalType": "bool",
          "name": "",
          "type": "bool"
        }
      ],
      "stateMutability": "view",
      "type": "function"
    },
    {
      "inputs": [],
      "name": "pool",
      "outputs": [
        {
          "internalType": "uint256",
          "name": "",
          "type": "uint256"
        }
      ],
      "stateMutability": "view",
      "type": "function"
    },
    {
      "inputs": [],
      "name": "protocolFee",
      "outputs": [
        {
          "internalType": "uint256",
          "name": "",
          "type": "uint256"
        }
      ],
      "stateMutability": "view",
      "type": "function"
    },
    {
      "inputs": [],
      "name": "refund",
      "outputs": [],
      "stateMutability": "nonpayable",
      "type": "function"
    },
    {
      "inputs": [],
      "name": "rewardToken",
      "outputs": [
        {
          "internalType": "contract IERC20",
          "name": "",
          "type": "address"
        }
      ],
      "stateMutability": "view",
      "type": "function"
    },
    {
      "inputs": [
        {
          "internalType": "uint256",
          "name": "gasFee",
          "type": "uint256"
        },
        {
          "internalType": "uint256",
          "name": "_deadline",
          "type": "uint256"
        },
        {
          "internalType": "uint256[2]",
          "name": "_outMin",
          "type": "uint256[2]"
        }
      ],
      "name": "run",
      "outputs": [],
      "stateMutability": "nonpayable",
      "type": "function"
    },
    {
      "inputs": [],
      "name": "slippage",
      "outputs": [
        {
          "internalType": "uint16",
          "name": "",
          "type": "uint16"
        }
      ],
      "stateMutability": "view",
      "type": "function"
    },
    {
      "inputs": [],
      "name": "staking",
      "outputs": [
        {
          "internalType": "contract IMasterChefJoeV2",
          "name": "",
          "type": "address"
        }
      ],
      "stateMutability": "view",
      "type": "function"
    },
    {
      "inputs": [],
      "name": "stakingToken",
      "outputs": [
        {
          "internalType": "contract IERC20",
          "name": "",
          "type": "address"
        }
      ],
      "stateMutability": "view",
      "type": "function"
    },
    {
      "inputs": [
        {
          "internalType": "address",
          "name": "token",
          "type": "address"
        },
        {
          "internalType": "address",
          "name": "recipient",
          "type": "address"
        },
        {
          "internalType": "uint256",
          "name": "amount",
          "type": "uint256"
        }
      ],
      "name": "transfer",
      "outputs": [],
      "stateMutability": "nonpayable",
      "type": "function"
    },
    {
      "inputs": [
        {
          "internalType": "address",
          "name": "newOwner",
          "type": "address"
        }
      ],
      "name": "transferOwnership",
      "outputs": [],
      "stateMutability": "nonpayable",
      "type": "function"
    },
    {
      "inputs": [],
      "name": "unpause",
      "outputs": [],
      "stateMutability": "nonpayable",
      "type": "function"
    }
  ],
  "transactionHash": "0x7015ef5e877bf6a417f81e647dd09671ed3d003db0f8a5d6efcc4e5472bafdce",
  "args": [
    "0xDdfbffEfacB7598Ad995D327Ea4fF2D42aCF7b77"
  ],
  "solcInputHash": "bfa3920b3f9fd269a12f61459aef8b57",
  "bytecode": "0x60806040523480156200001157600080fd5b50604051620038b1380380620038b1833981016040819052620000349162000069565b600080546001600160a01b039092166001600160a01b031992831617905560018054909116321790556000196002556200009b565b6000602082840312156200007c57600080fd5b81516001600160a01b03811681146200009457600080fd5b9392505050565b61380680620000ab6000396000f3fe608060405234801561001057600080fd5b50600436106101515760003560e01c80638456cb59116100cd578063beabacc811610081578063dd92555111610066578063dd925551146102b5578063f2fde38b146102c8578063f7c618c1146102db57600080fd5b8063beabacc81461029a578063d0e30db0146102ad57600080fd5b80639742b5c3116100b25780639742b5c31461026c578063b0e21e8a1461027f578063b9016aa51461028757600080fd5b80638456cb59146102465780638da5cb5b1461024e57600080fd5b80633f4ba83a11610124578063590e1ae311610109578063590e1ae3146101fe5780635c975abb1461020657806372f702f31461021e57600080fd5b80633f4ba83a146101d45780634cf088d9146101de57600080fd5b806316f0115b1461015657806329dcb0cf14610172578063370158ea146101995780633e032a3b146101c6575b600080fd5b61015f60045481565b6040519081526020015b60405180910390f35b6005546101869062010000900461ffff1681565b60405161ffff9091168152602001610169565b6101a16102fb565b60405173ffffffffffffffffffffffffffffffffffffffff9091168152602001610169565b6005546101869061ffff1681565b6101dc61045d565b005b6003546101a19073ffffffffffffffffffffffffffffffffffffffff1681565b6101dc6107f4565b61020e610cbc565b6040519015158152602001610169565b6005546101a190640100000000900473ffffffffffffffffffffffffffffffffffffffff1681565b6101dc610e41565b60015473ffffffffffffffffffffffffffffffffffffffff166101a1565b6101dc61027a366004613339565b6111eb565b61015f611425565b6101dc61029536600461321b565b611832565b6101dc6102a83660046131da565b611b82565b6101dc611c84565b6101dc6102c336600461341c565b611e81565b6101dc6102d63660046131a0565b61271c565b6006546101a19073ffffffffffffffffffffffffffffffffffffffff1681565b6040517f6b88071800000000000000000000000000000000000000000000000000000000815230600482015260009081907362cA8Ec7e7a6852D93Fb4e4b5583d6D7b2c10b7F90636b8807189060240160206040518083038186803b15801561036357600080fd5b505af4158015610377573d6000803e3d6000fd5b505050506040513d601f19601f8201168201806040525081019061039b91906131bd565b905073ffffffffffffffffffffffffffffffffffffffff81163014156103d957505060005473ffffffffffffffffffffffffffffffffffffffff1690565b8073ffffffffffffffffffffffffffffffffffffffff1663370158ea6040518163ffffffff1660e01b815260040160206040518083038186803b15801561041f57600080fd5b505afa158015610433573d6000803e3d6000fd5b505050506040513d601f19601f8201168201806040525081019061045791906131bd565b91505090565b6040517f6b8807180000000000000000000000000000000000000000000000000000000081523060048201819052907362cA8Ec7e7a6852D93Fb4e4b5583d6D7b2c10b7F90636b8807189060240160206040518083038186803b1580156104c357600080fd5b505af41580156104d7573d6000803e3d6000fd5b505050506040513d601f19601f820116820180604052508101906104fb91906131bd565b73ffffffffffffffffffffffffffffffffffffffff1614156106b55760006105216102fb565b6040517f21f8a7210000000000000000000000000000000000000000000000000000000081527f689d13d8ed8ef1027633ba26e7121121cf427434450a529548f19bf175974395600482015273ffffffffffffffffffffffffffffffffffffffff91909116906321f8a7219060240160206040518083038186803b1580156105a857600080fd5b505afa1580156105bc573d6000803e3d6000fd5b505050506040513d601f19601f820116820180604052508101906105e091906131bd565b60015490915073ffffffffffffffffffffffffffffffffffffffff1633148061061e57503373ffffffffffffffffffffffffffffffffffffffff8216145b6106af576040517f08c379a000000000000000000000000000000000000000000000000000000000815260206004820152602260248201527f4175746f6d6174653a2063616c6c6572206973206e6f7420746865207061757360448201527f657200000000000000000000000000000000000000000000000000000000000060648201526084015b60405180910390fd5b5061075c565b60015473ffffffffffffffffffffffffffffffffffffffff16331461075c576040517f08c379a000000000000000000000000000000000000000000000000000000000815260206004820152602260248201527f4175746f6d6174653a2063616c6c6572206973206e6f7420746865207061757360448201527f657200000000000000000000000000000000000000000000000000000000000060648201526084016106a6565b610764610cbc565b6107ca576040517f08c379a000000000000000000000000000000000000000000000000000000000815260206004820152601460248201527f4175746f6d6174653a206e6f742070617573656400000000000000000000000060448201526064016106a6565b600180547fffffffffffffffffffffff00ffffffffffffffffffffffffffffffffffffffff169055565b60015473ffffffffffffffffffffffffffffffffffffffff16331461089b576040517f08c379a000000000000000000000000000000000000000000000000000000000815260206004820152602160248201527f4175746f6d6174653a2063616c6c6572206973206e6f7420746865206f776e6560448201527f720000000000000000000000000000000000000000000000000000000000000060648201526084016106a6565b60035473ffffffffffffffffffffffffffffffffffffffff1660006108d560015473ffffffffffffffffffffffffffffffffffffffff1690565b600354600480546040517f93f1a40b0000000000000000000000000000000000000000000000000000000081529182015230602482015291925060009173ffffffffffffffffffffffffffffffffffffffff909116906393f1a40b90604401604080518083038186803b15801561094b57600080fd5b505afa15801561095f573d6000803e3d6000fd5b505050506040513d601f19601f8201168201806040525081019061098391906133d1565b6004805482516040517f441a3e7000000000000000000000000000000000000000000000000000000000815292830191909152602482015290915073ffffffffffffffffffffffffffffffffffffffff84169063441a3e7090604401600060405180830381600087803b1580156109f957600080fd5b505af1158015610a0d573d6000803e3d6000fd5b50506005546040517f70a0823100000000000000000000000000000000000000000000000000000000815230600482015264010000000090910473ffffffffffffffffffffffffffffffffffffffff16925063a9059cbb9150849083906370a082319060240160206040518083038186803b158015610a8b57600080fd5b505afa158015610a9f573d6000803e3d6000fd5b505050506040513d601f19601f82011682018060405250810190610ac39190613403565b6040517fffffffff0000000000000000000000000000000000000000000000000000000060e085901b16815273ffffffffffffffffffffffffffffffffffffffff90921660048301526024820152604401602060405180830381600087803b158015610b2e57600080fd5b505af1158015610b42573d6000803e3d6000fd5b505050506040513d601f19601f82011682018060405250810190610b669190613317565b506006546040517f70a0823100000000000000000000000000000000000000000000000000000000815230600482015273ffffffffffffffffffffffffffffffffffffffff9091169063a9059cbb90849083906370a082319060240160206040518083038186803b158015610bda57600080fd5b505afa158015610bee573d6000803e3d6000fd5b505050506040513d601f19601f82011682018060405250810190610c129190613403565b6040517fffffffff0000000000000000000000000000000000000000000000000000000060e085901b16815273ffffffffffffffffffffffffffffffffffffffff909216600483015260248201526044015b602060405180830381600087803b158015610c7e57600080fd5b505af1158015610c92573d6000803e3d6000fd5b505050506040513d601f19601f82011682018060405250810190610cb69190613317565b50505050565b6040517f6b88071800000000000000000000000000000000000000000000000000000000815230600482015260009081907362cA8Ec7e7a6852D93Fb4e4b5583d6D7b2c10b7F90636b8807189060240160206040518083038186803b158015610d2457600080fd5b505af4158015610d38573d6000803e3d6000fd5b505050506040513d601f19601f82011682018060405250810190610d5c91906131bd565b905073ffffffffffffffffffffffffffffffffffffffff8116301415610d9f57505060015474010000000000000000000000000000000000000000900460ff1690565b60015474010000000000000000000000000000000000000000900460ff168061045757508073ffffffffffffffffffffffffffffffffffffffff16635c975abb6040518163ffffffff1660e01b815260040160206040518083038186803b158015610e0957600080fd5b505afa158015610e1d573d6000803e3d6000fd5b505050506040513d601f19601f820116820180604052508101906104579190613317565b6040517f6b8807180000000000000000000000000000000000000000000000000000000081523060048201819052907362cA8Ec7e7a6852D93Fb4e4b5583d6D7b2c10b7F90636b8807189060240160206040518083038186803b158015610ea757600080fd5b505af4158015610ebb573d6000803e3d6000fd5b505050506040513d601f19601f82011682018060405250810190610edf91906131bd565b73ffffffffffffffffffffffffffffffffffffffff161415611094576000610f056102fb565b6040517f21f8a7210000000000000000000000000000000000000000000000000000000081527f689d13d8ed8ef1027633ba26e7121121cf427434450a529548f19bf175974395600482015273ffffffffffffffffffffffffffffffffffffffff91909116906321f8a7219060240160206040518083038186803b158015610f8c57600080fd5b505afa158015610fa0573d6000803e3d6000fd5b505050506040513d601f19601f82011682018060405250810190610fc491906131bd565b60015490915073ffffffffffffffffffffffffffffffffffffffff1633148061100257503373ffffffffffffffffffffffffffffffffffffffff8216145b61108e576040517f08c379a000000000000000000000000000000000000000000000000000000000815260206004820152602260248201527f4175746f6d6174653a2063616c6c6572206973206e6f7420746865207061757360448201527f657200000000000000000000000000000000000000000000000000000000000060648201526084016106a6565b5061113b565b60015473ffffffffffffffffffffffffffffffffffffffff16331461113b576040517f08c379a000000000000000000000000000000000000000000000000000000000815260206004820152602260248201527f4175746f6d6174653a2063616c6c6572206973206e6f7420746865207061757360448201527f657200000000000000000000000000000000000000000000000000000000000060648201526084016106a6565b611143610cbc565b156111aa576040517f08c379a000000000000000000000000000000000000000000000000000000000815260206004820152601060248201527f4175746f6d6174653a207061757365640000000000000000000000000000000060448201526064016106a6565b600180547fffffffffffffffffffffff00ffffffffffffffffffffffffffffffffffffffff1674010000000000000000000000000000000000000000179055565b6040517f6b8807180000000000000000000000000000000000000000000000000000000081523060048201526000907362cA8Ec7e7a6852D93Fb4e4b5583d6D7b2c10b7F90636b8807189060240160206040518083038186803b15801561125157600080fd5b505af4158015611265573d6000803e3d6000fd5b505050506040513d601f19601f8201168201806040525081019061128991906131bd565b90503373ffffffffffffffffffffffffffffffffffffffff8216301461132c578173ffffffffffffffffffffffffffffffffffffffff16638da5cb5b6040518163ffffffff1660e01b815260040160206040518083038186803b1580156112ef57600080fd5b505afa158015611303573d6000803e3d6000fd5b505050506040513d601f19601f8201168201806040525081019061132791906131bd565b611346565b60015473ffffffffffffffffffffffffffffffffffffffff165b73ffffffffffffffffffffffffffffffffffffffff16146113e9576040517f08c379a000000000000000000000000000000000000000000000000000000000815260206004820152603d60248201527f4175746f6d6174653a3a6368616e676550726f746f636f6c4665653a2063616c60448201527f6c6572206973206e6f74207468652070726f746f636f6c206f776e657200000060648201526084016106a6565b60028290556040518281527f3c1d43943224e49d951ce8295a5c8332b517083b3f89bed50feae2cb39caebb59060200160405180910390a15050565b6040517f6b88071800000000000000000000000000000000000000000000000000000000815230600482015260009081907362cA8Ec7e7a6852D93Fb4e4b5583d6D7b2c10b7F90636b8807189060240160206040518083038186803b15801561148d57600080fd5b505af41580156114a1573d6000803e3d6000fd5b505050506040513d601f19601f820116820180604052508101906114c591906131bd565b905073ffffffffffffffffffffffffffffffffffffffff811630148015906114ef57506000600254125b15611572578073ffffffffffffffffffffffffffffffffffffffff1663b0e21e8a6040518163ffffffff1660e01b815260040160206040518083038186803b15801561153a57600080fd5b505afa15801561154e573d6000803e3d6000fd5b505050506040513d601f19601f820116820180604052508101906104579190613403565b600061157c6102fb565b9050600080600254126115915760025461164e565b6040517fbd02d0f50000000000000000000000000000000000000000000000000000000081527fa93d95f96a5de25d7a41ddf1f5e8d45cfc929c4838163cf011dab4043a4a40d5600482015273ffffffffffffffffffffffffffffffffffffffff83169063bd02d0f59060240160206040518083038186803b15801561161657600080fd5b505afa15801561162a573d6000803e3d6000fd5b505050506040513d601f19601f8201168201806040525081019061164e9190613403565b90508061165f576000935050505090565b6040517f21f8a7210000000000000000000000000000000000000000000000000000000081527f65c90423fe7c880476633a7e36521740f87199d233dc56eb4ca6643eb76f605f600482015260009073ffffffffffffffffffffffffffffffffffffffff8416906321f8a7219060240160206040518083038186803b1580156116e757600080fd5b505afa1580156116fb573d6000803e3d6000fd5b505050506040513d601f19601f8201168201806040525081019061171f91906131bd565b73ffffffffffffffffffffffffffffffffffffffff1663feaf968c6040518163ffffffff1660e01b815260040160a06040518083038186803b15801561176457600080fd5b505afa158015611778573d6000803e3d6000fd5b505050506040513d601f19601f8201168201806040525081019061179c91906134c6565b5050509150506000811361180c576040517f08c379a000000000000000000000000000000000000000000000000000000000815260206004820152601760248201527f4175746f6d6174653a20696e76616c696420707269636500000000000000000060448201526064016106a6565b8061181f83670de0b6b3a76400006136f3565b61182991906136b8565b94505050505090565b60015473ffffffffffffffffffffffffffffffffffffffff166118a257600180547fffffffffffffffffffffffff000000000000000000000000000000000000000016321790557fffffffffffffffffffffffffffffffffffffffffffffffffffffffffffffffff600255611949565b60015473ffffffffffffffffffffffffffffffffffffffff163314611949576040517f08c379a000000000000000000000000000000000000000000000000000000000815260206004820152602160248201527f4175746f6d6174653a2063616c6c6572206973206e6f7420746865206f776e6560448201527f720000000000000000000000000000000000000000000000000000000000000060648201526084016106a6565b6003805473ffffffffffffffffffffffffffffffffffffffff86167fffffffffffffffffffffffff0000000000000000000000000000000000000000909116811790915560048481556005805461ffff85811662010000027fffffffffffffffffffffffffffffffffffffffffffffffffffffffff00000000909216908716171790556040517f1526fe2700000000000000000000000000000000000000000000000000000000815260009291631526fe2791611a0c9188910190815260200190565b60a06040518083038186803b158015611a2457600080fd5b505afa158015611a38573d6000803e3d6000fd5b505050506040513d601f19601f82011682018060405250810190611a5c9190613352565b8051600580547fffffffffffffffff0000000000000000000000000000000000000000ffffffff1664010000000073ffffffffffffffffffffffffffffffffffffffff93841602179055600354604080517fb985a3a0000000000000000000000000000000000000000000000000000000008152905193945091169163b985a3a091600480820192602092909190829003018186803b158015611afe57600080fd5b505afa158015611b12573d6000803e3d6000fd5b505050506040513d601f19601f82011682018060405250810190611b3691906131bd565b600680547fffffffffffffffffffffffff00000000000000000000000000000000000000001673ffffffffffffffffffffffffffffffffffffffff929092169190911790555050505050565b60015473ffffffffffffffffffffffffffffffffffffffff163314611c29576040517f08c379a000000000000000000000000000000000000000000000000000000000815260206004820152602160248201527f4175746f6d6174653a2063616c6c6572206973206e6f7420746865206f776e6560448201527f720000000000000000000000000000000000000000000000000000000000000060648201526084016106a6565b6040517fa9059cbb00000000000000000000000000000000000000000000000000000000815273ffffffffffffffffffffffffffffffffffffffff83811660048301526024820183905284169063a9059cbb90604401610c64565b60015473ffffffffffffffffffffffffffffffffffffffff163314611d2b576040517f08c379a000000000000000000000000000000000000000000000000000000000815260206004820152602160248201527f4175746f6d6174653a2063616c6c6572206973206e6f7420746865206f776e6560448201527f720000000000000000000000000000000000000000000000000000000000000060648201526084016106a6565b600354600554611d5c9173ffffffffffffffffffffffffffffffffffffffff6401000000009092048216911661297b565b600354600480546005546040517f70a08231000000000000000000000000000000000000000000000000000000008152309381019390935273ffffffffffffffffffffffffffffffffffffffff9384169363e2bbb1589364010000000090920416906370a082319060240160206040518083038186803b158015611ddf57600080fd5b505afa158015611df3573d6000803e3d6000fd5b505050506040513d601f19601f82011682018060405250810190611e179190613403565b6040517fffffffff0000000000000000000000000000000000000000000000000000000060e085901b16815260048101929092526024820152604401600060405180830381600087803b158015611e6d57600080fd5b505af1158015610cb6573d6000803e3d6000fd5b826040518060400160405280601a81526020017f417661784d6173746572436865664a6f654c5052657374616b65000000000000815250611ec282826129aa565b50600354600480546040517f93f1a40b0000000000000000000000000000000000000000000000000000000081529182015230602482015273ffffffffffffffffffffffffffffffffffffffff9091169060009082906393f1a40b90604401604080518083038186803b158015611f3857600080fd5b505afa158015611f4c573d6000803e3d6000fd5b505050506040513d601f19601f82011682018060405250810190611f7091906133d1565b90506000816020015111612006576040517f08c379a000000000000000000000000000000000000000000000000000000000815260206004820152602660248201527f4d6173746572436865664a6f654c7052657374616b653a3a72756e3a206e6f2060448201527f6561726e6564000000000000000000000000000000000000000000000000000060648201526084016106a6565b60006120106102fb565b6040517f21f8a7210000000000000000000000000000000000000000000000000000000081527fc828168a61c19f8f4b553118a6edf8ae80b7d20f13088ce788215c145d1f02af600482015273ffffffffffffffffffffffffffffffffffffffff91909116906321f8a7219060240160206040518083038186803b15801561209757600080fd5b505afa1580156120ab573d6000803e3d6000fd5b505050506040513d601f19601f820116820180604052508101906120cf91906131bd565b905073ffffffffffffffffffffffffffffffffffffffff8116612174576040517f08c379a000000000000000000000000000000000000000000000000000000000815260206004820152603a60248201527f4d6173746572436865664a6f654c7052657374616b653a3a72756e3a206a6f6560448201527f20726f7574657220636f6e7472616374206e6f7420666f756e6400000000000060648201526084016106a6565b600480546040517fe2bbb158000000000000000000000000000000000000000000000000000000008152918201526000602482015273ffffffffffffffffffffffffffffffffffffffff84169063e2bbb15890604401600060405180830381600087803b1580156121e457600080fd5b505af11580156121f8573d6000803e3d6000fd5b50506006546040517f70a082310000000000000000000000000000000000000000000000000000000081523060048201526000935073ffffffffffffffffffffffffffffffffffffffff90911691506370a082319060240160206040518083038186803b15801561226857600080fd5b505afa15801561227c573d6000803e3d6000fd5b505050506040513d601f19601f820116820180604052508101906122a09190613403565b6006549091506122c69073ffffffffffffffffffffffffffffffffffffffff168361297b565b6000600560049054906101000a900473ffffffffffffffffffffffffffffffffffffffff169050600060405180604001604052808373ffffffffffffffffffffffffffffffffffffffff16630dfe16816040518163ffffffff1660e01b815260040160206040518083038186803b15801561234057600080fd5b505afa158015612354573d6000803e3d6000fd5b505050506040513d601f19601f8201168201806040525081019061237891906131bd565b73ffffffffffffffffffffffffffffffffffffffff1673ffffffffffffffffffffffffffffffffffffffff1681526020018373ffffffffffffffffffffffffffffffffffffffff1663d21220a76040518163ffffffff1660e01b815260040160206040518083038186803b1580156123ef57600080fd5b505afa158015612403573d6000803e3d6000fd5b505050506040513d601f19601f8201168201806040525081019061242791906131bd565b73ffffffffffffffffffffffffffffffffffffffff9081169091526040805160a081018252878316818301908152600654841660608301528451909316608082015281518083019092529293506000929182916124a191908061248b60028b6136b8565b81526020018f60005b602002015190528f612c7c565b81526040805160608101825273ffffffffffffffffffffffffffffffffffffffff89811682526006548116602080840191909152878101519091168284015282518084019093529092019161251391806124fc60028b6136b8565b612506908b613730565b81526020018f6001612494565b81525090506000604051806040016040528060008152602001600081525090506125ba60405180606001604052808873ffffffffffffffffffffffffffffffffffffffff1673ffffffffffffffffffffffffffffffffffffffff1681526020018560006002811061258657612586613776565b6020908102919091015173ffffffffffffffffffffffffffffffffffffffff9081168352878201511691015283838f612e5d565b6005546125e590640100000000900473ffffffffffffffffffffffffffffffffffffffff168961297b565b600480546005546040517f70a08231000000000000000000000000000000000000000000000000000000008152309381019390935273ffffffffffffffffffffffffffffffffffffffff8b81169363e2bbb15893926401000000009004909116906370a082319060240160206040518083038186803b15801561266757600080fd5b505afa15801561267b573d6000803e3d6000fd5b505050506040513d601f19601f8201168201806040525081019061269f9190613403565b6040517fffffffff0000000000000000000000000000000000000000000000000000000060e085901b16815260048101929092526024820152604401600060405180830381600087803b1580156126f557600080fd5b505af1158015612709573d6000803e3d6000fd5b5050505050505050505050505050505050565b60015473ffffffffffffffffffffffffffffffffffffffff1633146127c3576040517f08c379a000000000000000000000000000000000000000000000000000000000815260206004820152602160248201527f4175746f6d6174653a2063616c6c6572206973206e6f7420746865206f776e6560448201527f720000000000000000000000000000000000000000000000000000000000000060648201526084016106a6565b6040517f6b8807180000000000000000000000000000000000000000000000000000000081523060048201819052907362cA8Ec7e7a6852D93Fb4e4b5583d6D7b2c10b7F90636b8807189060240160206040518083038186803b15801561282957600080fd5b505af415801561283d573d6000803e3d6000fd5b505050506040513d601f19601f8201168201806040525081019061286191906131bd565b73ffffffffffffffffffffffffffffffffffffffff1614612904576040517f08c379a000000000000000000000000000000000000000000000000000000000815260206004820152602160248201527f4175746f6d6174653a206368616e676520746865206f776e6572206661696c6560448201527f640000000000000000000000000000000000000000000000000000000000000060648201526084016106a6565b6001805473ffffffffffffffffffffffffffffffffffffffff8381167fffffffffffffffffffffffff0000000000000000000000000000000000000000831681179093556040519116919082907f8be0079c531659141344cd1fd0a4f28419497f9722a3daafe3b4186f6b6457e090600090a35050565b6129a682827fffffffffffffffffffffffffffffffffffffffffffffffffffffffffffffffff612f51565b5050565b60006129b4610cbc565b15612a1b576040517f08c379a000000000000000000000000000000000000000000000000000000000815260206004820152601060248201527f4175746f6d6174653a207061757365640000000000000000000000000000000060448201526064016106a6565b6000612a3c60015473ffffffffffffffffffffffffffffffffffffffff1690565b90503273ffffffffffffffffffffffffffffffffffffffff82161415612a66576000915050612c76565b6000612a706102fb565b6040517f21f8a7210000000000000000000000000000000000000000000000000000000081527fe78c16c6d839536d3155985aab4e9c6013c8c3d446054bcebc48612f359d81f5600482015290915060009073ffffffffffffffffffffffffffffffffffffffff8316906321f8a7219060240160206040518083038186803b158015612afb57600080fd5b505afa158015612b0f573d6000803e3d6000fd5b505050506040513d601f19601f82011682018060405250810190612b3391906131bd565b905073ffffffffffffffffffffffffffffffffffffffff8116612bd8576040517f08c379a000000000000000000000000000000000000000000000000000000000815260206004820152602b60248201527f4175746f6d6174653a3a5f62696c6c3a2062616c616e636520636f6e7472616360448201527f74206e6f7420666f756e6400000000000000000000000000000000000000000060648201526084016106a6565b8073ffffffffffffffffffffffffffffffffffffffff1663e578a2258488612bfe611425565b896040518563ffffffff1660e01b8152600401612c1e9493929190613516565b602060405180830381600087803b158015612c3857600080fd5b505af1158015612c4c573d6000803e3d6000fd5b505050506040513d601f19601f82011682018060405250810190612c709190613403565b93505050505b92915050565b6040830151602084015160009173ffffffffffffffffffffffffffffffffffffffff91821691161415612cb157508151612e56565b604080516002808252606082018352600092602083019080368337019050509050846001602002015181600081518110612ced57612ced613776565b73ffffffffffffffffffffffffffffffffffffffff90921660209283029190910190910152846002602002015181600181518110612d2d57612d2d613776565b73ffffffffffffffffffffffffffffffffffffffff928316602091820292909201015285516040870151612d6292169061297b565b8451845160208601516040517f38ed173900000000000000000000000000000000000000000000000000000000815273ffffffffffffffffffffffffffffffffffffffff909316926338ed173992612dc4929091869030908a906004016135b5565b600060405180830381600087803b158015612dde57600080fd5b505af1158015612df2573d6000803e3d6000fd5b505050506040513d6000823e601f3d9081017fffffffffffffffffffffffffffffffffffffffffffffffffffffffffffffffe0168201604052612e38919081019061326a565b600181518110612e4a57612e4a613776565b60200260200101519150505b9392505050565b835160208086015160408088015187518885015188519589015193517fe8e3370000000000000000000000000000000000000000000000000000000000815273ffffffffffffffffffffffffffffffffffffffff9586166004820152928516602484015260448301919091526064820152608481019390935260a48301523060c483015260e482018490529091169063e8e337009061010401606060405180830381600087803b158015612f1057600080fd5b505af1158015612f24573d6000803e3d6000fd5b505050506040513d601f19601f82011682018060405250810190612f489190613498565b50505050505050565b6040517fdd62ed3e00000000000000000000000000000000000000000000000000000000815230600482015273ffffffffffffffffffffffffffffffffffffffff83811660248301526000919085169063dd62ed3e9060440160206040518083038186803b158015612fc257600080fd5b505afa158015612fd6573d6000803e3d6000fd5b505050506040513d601f19601f82011682018060405250810190612ffa9190613403565b9050801580159061300a57508181105b156130b9576040517f095ea7b300000000000000000000000000000000000000000000000000000000815273ffffffffffffffffffffffffffffffffffffffff84811660048301526000602483015285169063095ea7b390604401602060405180830381600087803b15801561307f57600080fd5b505af1158015613093573d6000803e3d6000fd5b505050506040513d601f19601f820116820180604052508101906130b79190613317565b505b818114610cb6576040517f095ea7b300000000000000000000000000000000000000000000000000000000815273ffffffffffffffffffffffffffffffffffffffff84811660048301526024820184905285169063095ea7b390604401602060405180830381600087803b15801561313057600080fd5b505af1158015613144573d6000803e3d6000fd5b505050506040513d601f19601f820116820180604052508101906131689190613317565b5050505050565b803561ffff8116811461318157600080fd5b919050565b805169ffffffffffffffffffff8116811461318157600080fd5b6000602082840312156131b257600080fd5b8135612e56816137d4565b6000602082840312156131cf57600080fd5b8151612e56816137d4565b6000806000606084860312156131ef57600080fd5b83356131fa816137d4565b9250602084013561320a816137d4565b929592945050506040919091013590565b6000806000806080858703121561323157600080fd5b843561323c816137d4565b9350602085013592506132516040860161316f565b915061325f6060860161316f565b905092959194509250565b6000602080838503121561327d57600080fd5b825167ffffffffffffffff8082111561329557600080fd5b818501915085601f8301126132a957600080fd5b8151818111156132bb576132bb6137a5565b8060051b91506132cc848301613669565b8181528481019084860184860187018a10156132e757600080fd5b600095505b8386101561330a5780518352600195909501949186019186016132ec565b5098975050505050505050565b60006020828403121561332957600080fd5b81518015158114612e5657600080fd5b60006020828403121561334b57600080fd5b5035919050565b600060a0828403121561336457600080fd5b60405160a0810181811067ffffffffffffffff82111715613387576133876137a5565b6040528251613395816137d4565b8082525060208301516020820152604083015160408201526060830151606082015260808301516133c5816137d4565b60808201529392505050565b6000604082840312156133e357600080fd5b6133eb613640565b82518152602083015160208201528091505092915050565b60006020828403121561341557600080fd5b5051919050565b60008060006080848603121561343157600080fd5b83359250602080850135925085605f86011261344c57600080fd5b613454613640565b80604087018860808901111561346957600080fd5b60005b60028110156134895781358452928401929084019060010161346c565b50508093505050509250925092565b6000806000606084860312156134ad57600080fd5b8351925060208401519150604084015190509250925092565b600080600080600060a086880312156134de57600080fd5b6134e786613186565b945060208601519350604086015192506060860151915061350a60808701613186565b90509295509295909350565b73ffffffffffffffffffffffffffffffffffffffff8516815260006020858184015284604084015260806060840152835180608085015260005b8181101561356c5785810183015185820160a001528201613550565b8181111561357e57600060a083870101525b50601f017fffffffffffffffffffffffffffffffffffffffffffffffffffffffffffffffe0169290920160a0019695505050505050565b600060a082018783526020878185015260a0604085015281875180845260c086019150828901935060005b8181101561361257845173ffffffffffffffffffffffffffffffffffffffff16835293830193918301916001016135e0565b505073ffffffffffffffffffffffffffffffffffffffff969096166060850152505050608001529392505050565b6040805190810167ffffffffffffffff81118282101715613663576136636137a5565b60405290565b604051601f82017fffffffffffffffffffffffffffffffffffffffffffffffffffffffffffffffe016810167ffffffffffffffff811182821017156136b0576136b06137a5565b604052919050565b6000826136ee577f4e487b7100000000000000000000000000000000000000000000000000000000600052601260045260246000fd5b500490565b6000817fffffffffffffffffffffffffffffffffffffffffffffffffffffffffffffffff048311821515161561372b5761372b613747565b500290565b60008282101561374257613742613747565b500390565b7f4e487b7100000000000000000000000000000000000000000000000000000000600052601160045260246000fd5b7f4e487b7100000000000000000000000000000000000000000000000000000000600052603260045260246000fd5b7f4e487b7100000000000000000000000000000000000000000000000000000000600052604160045260246000fd5b73ffffffffffffffffffffffffffffffffffffffff811681146137f657600080fd5b5056fea164736f6c6343000806000a",
  "deployedBytecode": "0x608060405234801561001057600080fd5b50600436106101515760003560e01c80638456cb59116100cd578063beabacc811610081578063dd92555111610066578063dd925551146102b5578063f2fde38b146102c8578063f7c618c1146102db57600080fd5b8063beabacc81461029a578063d0e30db0146102ad57600080fd5b80639742b5c3116100b25780639742b5c31461026c578063b0e21e8a1461027f578063b9016aa51461028757600080fd5b80638456cb59146102465780638da5cb5b1461024e57600080fd5b80633f4ba83a11610124578063590e1ae311610109578063590e1ae3146101fe5780635c975abb1461020657806372f702f31461021e57600080fd5b80633f4ba83a146101d45780634cf088d9146101de57600080fd5b806316f0115b1461015657806329dcb0cf14610172578063370158ea146101995780633e032a3b146101c6575b600080fd5b61015f60045481565b6040519081526020015b60405180910390f35b6005546101869062010000900461ffff1681565b60405161ffff9091168152602001610169565b6101a16102fb565b60405173ffffffffffffffffffffffffffffffffffffffff9091168152602001610169565b6005546101869061ffff1681565b6101dc61045d565b005b6003546101a19073ffffffffffffffffffffffffffffffffffffffff1681565b6101dc6107f4565b61020e610cbc565b6040519015158152602001610169565b6005546101a190640100000000900473ffffffffffffffffffffffffffffffffffffffff1681565b6101dc610e41565b60015473ffffffffffffffffffffffffffffffffffffffff166101a1565b6101dc61027a366004613339565b6111eb565b61015f611425565b6101dc61029536600461321b565b611832565b6101dc6102a83660046131da565b611b82565b6101dc611c84565b6101dc6102c336600461341c565b611e81565b6101dc6102d63660046131a0565b61271c565b6006546101a19073ffffffffffffffffffffffffffffffffffffffff1681565b6040517f6b880718000000000000000000000000000000000000000000000000000000008152306004820152600090819073__$0bac19a4f6859fb91e3c64d76ce49d598f$__90636b8807189060240160206040518083038186803b15801561036357600080fd5b505af4158015610377573d6000803e3d6000fd5b505050506040513d601f19601f8201168201806040525081019061039b91906131bd565b905073ffffffffffffffffffffffffffffffffffffffff81163014156103d957505060005473ffffffffffffffffffffffffffffffffffffffff1690565b8073ffffffffffffffffffffffffffffffffffffffff1663370158ea6040518163ffffffff1660e01b815260040160206040518083038186803b15801561041f57600080fd5b505afa158015610433573d6000803e3d6000fd5b505050506040513d601f19601f8201168201806040525081019061045791906131bd565b91505090565b6040517f6b88071800000000000000000000000000000000000000000000000000000000815230600482018190529073__$0bac19a4f6859fb91e3c64d76ce49d598f$__90636b8807189060240160206040518083038186803b1580156104c357600080fd5b505af41580156104d7573d6000803e3d6000fd5b505050506040513d601f19601f820116820180604052508101906104fb91906131bd565b73ffffffffffffffffffffffffffffffffffffffff1614156106b55760006105216102fb565b6040517f21f8a7210000000000000000000000000000000000000000000000000000000081527f689d13d8ed8ef1027633ba26e7121121cf427434450a529548f19bf175974395600482015273ffffffffffffffffffffffffffffffffffffffff91909116906321f8a7219060240160206040518083038186803b1580156105a857600080fd5b505afa1580156105bc573d6000803e3d6000fd5b505050506040513d601f19601f820116820180604052508101906105e091906131bd565b60015490915073ffffffffffffffffffffffffffffffffffffffff1633148061061e57503373ffffffffffffffffffffffffffffffffffffffff8216145b6106af576040517f08c379a000000000000000000000000000000000000000000000000000000000815260206004820152602260248201527f4175746f6d6174653a2063616c6c6572206973206e6f7420746865207061757360448201527f657200000000000000000000000000000000000000000000000000000000000060648201526084015b60405180910390fd5b5061075c565b60015473ffffffffffffffffffffffffffffffffffffffff16331461075c576040517f08c379a000000000000000000000000000000000000000000000000000000000815260206004820152602260248201527f4175746f6d6174653a2063616c6c6572206973206e6f7420746865207061757360448201527f657200000000000000000000000000000000000000000000000000000000000060648201526084016106a6565b610764610cbc565b6107ca576040517f08c379a000000000000000000000000000000000000000000000000000000000815260206004820152601460248201527f4175746f6d6174653a206e6f742070617573656400000000000000000000000060448201526064016106a6565b600180547fffffffffffffffffffffff00ffffffffffffffffffffffffffffffffffffffff169055565b60015473ffffffffffffffffffffffffffffffffffffffff16331461089b576040517f08c379a000000000000000000000000000000000000000000000000000000000815260206004820152602160248201527f4175746f6d6174653a2063616c6c6572206973206e6f7420746865206f776e6560448201527f720000000000000000000000000000000000000000000000000000000000000060648201526084016106a6565b60035473ffffffffffffffffffffffffffffffffffffffff1660006108d560015473ffffffffffffffffffffffffffffffffffffffff1690565b600354600480546040517f93f1a40b0000000000000000000000000000000000000000000000000000000081529182015230602482015291925060009173ffffffffffffffffffffffffffffffffffffffff909116906393f1a40b90604401604080518083038186803b15801561094b57600080fd5b505afa15801561095f573d6000803e3d6000fd5b505050506040513d601f19601f8201168201806040525081019061098391906133d1565b6004805482516040517f441a3e7000000000000000000000000000000000000000000000000000000000815292830191909152602482015290915073ffffffffffffffffffffffffffffffffffffffff84169063441a3e7090604401600060405180830381600087803b1580156109f957600080fd5b505af1158015610a0d573d6000803e3d6000fd5b50506005546040517f70a0823100000000000000000000000000000000000000000000000000000000815230600482015264010000000090910473ffffffffffffffffffffffffffffffffffffffff16925063a9059cbb9150849083906370a082319060240160206040518083038186803b158015610a8b57600080fd5b505afa158015610a9f573d6000803e3d6000fd5b505050506040513d601f19601f82011682018060405250810190610ac39190613403565b6040517fffffffff0000000000000000000000000000000000000000000000000000000060e085901b16815273ffffffffffffffffffffffffffffffffffffffff90921660048301526024820152604401602060405180830381600087803b158015610b2e57600080fd5b505af1158015610b42573d6000803e3d6000fd5b505050506040513d601f19601f82011682018060405250810190610b669190613317565b506006546040517f70a0823100000000000000000000000000000000000000000000000000000000815230600482015273ffffffffffffffffffffffffffffffffffffffff9091169063a9059cbb90849083906370a082319060240160206040518083038186803b158015610bda57600080fd5b505afa158015610bee573d6000803e3d6000fd5b505050506040513d601f19601f82011682018060405250810190610c129190613403565b6040517fffffffff0000000000000000000000000000000000000000000000000000000060e085901b16815273ffffffffffffffffffffffffffffffffffffffff909216600483015260248201526044015b602060405180830381600087803b158015610c7e57600080fd5b505af1158015610c92573d6000803e3d6000fd5b505050506040513d601f19601f82011682018060405250810190610cb69190613317565b50505050565b6040517f6b880718000000000000000000000000000000000000000000000000000000008152306004820152600090819073__$0bac19a4f6859fb91e3c64d76ce49d598f$__90636b8807189060240160206040518083038186803b158015610d2457600080fd5b505af4158015610d38573d6000803e3d6000fd5b505050506040513d601f19601f82011682018060405250810190610d5c91906131bd565b905073ffffffffffffffffffffffffffffffffffffffff8116301415610d9f57505060015474010000000000000000000000000000000000000000900460ff1690565b60015474010000000000000000000000000000000000000000900460ff168061045757508073ffffffffffffffffffffffffffffffffffffffff16635c975abb6040518163ffffffff1660e01b815260040160206040518083038186803b158015610e0957600080fd5b505afa158015610e1d573d6000803e3d6000fd5b505050506040513d601f19601f820116820180604052508101906104579190613317565b6040517f6b88071800000000000000000000000000000000000000000000000000000000815230600482018190529073__$0bac19a4f6859fb91e3c64d76ce49d598f$__90636b8807189060240160206040518083038186803b158015610ea757600080fd5b505af4158015610ebb573d6000803e3d6000fd5b505050506040513d601f19601f82011682018060405250810190610edf91906131bd565b73ffffffffffffffffffffffffffffffffffffffff161415611094576000610f056102fb565b6040517f21f8a7210000000000000000000000000000000000000000000000000000000081527f689d13d8ed8ef1027633ba26e7121121cf427434450a529548f19bf175974395600482015273ffffffffffffffffffffffffffffffffffffffff91909116906321f8a7219060240160206040518083038186803b158015610f8c57600080fd5b505afa158015610fa0573d6000803e3d6000fd5b505050506040513d601f19601f82011682018060405250810190610fc491906131bd565b60015490915073ffffffffffffffffffffffffffffffffffffffff1633148061100257503373ffffffffffffffffffffffffffffffffffffffff8216145b61108e576040517f08c379a000000000000000000000000000000000000000000000000000000000815260206004820152602260248201527f4175746f6d6174653a2063616c6c6572206973206e6f7420746865207061757360448201527f657200000000000000000000000000000000000000000000000000000000000060648201526084016106a6565b5061113b565b60015473ffffffffffffffffffffffffffffffffffffffff16331461113b576040517f08c379a000000000000000000000000000000000000000000000000000000000815260206004820152602260248201527f4175746f6d6174653a2063616c6c6572206973206e6f7420746865207061757360448201527f657200000000000000000000000000000000000000000000000000000000000060648201526084016106a6565b611143610cbc565b156111aa576040517f08c379a000000000000000000000000000000000000000000000000000000000815260206004820152601060248201527f4175746f6d6174653a207061757365640000000000000000000000000000000060448201526064016106a6565b600180547fffffffffffffffffffffff00ffffffffffffffffffffffffffffffffffffffff1674010000000000000000000000000000000000000000179055565b6040517f6b88071800000000000000000000000000000000000000000000000000000000815230600482015260009073__$0bac19a4f6859fb91e3c64d76ce49d598f$__90636b8807189060240160206040518083038186803b15801561125157600080fd5b505af4158015611265573d6000803e3d6000fd5b505050506040513d601f19601f8201168201806040525081019061128991906131bd565b90503373ffffffffffffffffffffffffffffffffffffffff8216301461132c578173ffffffffffffffffffffffffffffffffffffffff16638da5cb5b6040518163ffffffff1660e01b815260040160206040518083038186803b1580156112ef57600080fd5b505afa158015611303573d6000803e3d6000fd5b505050506040513d601f19601f8201168201806040525081019061132791906131bd565b611346565b60015473ffffffffffffffffffffffffffffffffffffffff165b73ffffffffffffffffffffffffffffffffffffffff16146113e9576040517f08c379a000000000000000000000000000000000000000000000000000000000815260206004820152603d60248201527f4175746f6d6174653a3a6368616e676550726f746f636f6c4665653a2063616c60448201527f6c6572206973206e6f74207468652070726f746f636f6c206f776e657200000060648201526084016106a6565b60028290556040518281527f3c1d43943224e49d951ce8295a5c8332b517083b3f89bed50feae2cb39caebb59060200160405180910390a15050565b6040517f6b880718000000000000000000000000000000000000000000000000000000008152306004820152600090819073__$0bac19a4f6859fb91e3c64d76ce49d598f$__90636b8807189060240160206040518083038186803b15801561148d57600080fd5b505af41580156114a1573d6000803e3d6000fd5b505050506040513d601f19601f820116820180604052508101906114c591906131bd565b905073ffffffffffffffffffffffffffffffffffffffff811630148015906114ef57506000600254125b15611572578073ffffffffffffffffffffffffffffffffffffffff1663b0e21e8a6040518163ffffffff1660e01b815260040160206040518083038186803b15801561153a57600080fd5b505afa15801561154e573d6000803e3d6000fd5b505050506040513d601f19601f820116820180604052508101906104579190613403565b600061157c6102fb565b9050600080600254126115915760025461164e565b6040517fbd02d0f50000000000000000000000000000000000000000000000000000000081527fa93d95f96a5de25d7a41ddf1f5e8d45cfc929c4838163cf011dab4043a4a40d5600482015273ffffffffffffffffffffffffffffffffffffffff83169063bd02d0f59060240160206040518083038186803b15801561161657600080fd5b505afa15801561162a573d6000803e3d6000fd5b505050506040513d601f19601f8201168201806040525081019061164e9190613403565b90508061165f576000935050505090565b6040517f21f8a7210000000000000000000000000000000000000000000000000000000081527f65c90423fe7c880476633a7e36521740f87199d233dc56eb4ca6643eb76f605f600482015260009073ffffffffffffffffffffffffffffffffffffffff8416906321f8a7219060240160206040518083038186803b1580156116e757600080fd5b505afa1580156116fb573d6000803e3d6000fd5b505050506040513d601f19601f8201168201806040525081019061171f91906131bd565b73ffffffffffffffffffffffffffffffffffffffff1663feaf968c6040518163ffffffff1660e01b815260040160a06040518083038186803b15801561176457600080fd5b505afa158015611778573d6000803e3d6000fd5b505050506040513d601f19601f8201168201806040525081019061179c91906134c6565b5050509150506000811361180c576040517f08c379a000000000000000000000000000000000000000000000000000000000815260206004820152601760248201527f4175746f6d6174653a20696e76616c696420707269636500000000000000000060448201526064016106a6565b8061181f83670de0b6b3a76400006136f3565b61182991906136b8565b94505050505090565b60015473ffffffffffffffffffffffffffffffffffffffff166118a257600180547fffffffffffffffffffffffff000000000000000000000000000000000000000016321790557fffffffffffffffffffffffffffffffffffffffffffffffffffffffffffffffff600255611949565b60015473ffffffffffffffffffffffffffffffffffffffff163314611949576040517f08c379a000000000000000000000000000000000000000000000000000000000815260206004820152602160248201527f4175746f6d6174653a2063616c6c6572206973206e6f7420746865206f776e6560448201527f720000000000000000000000000000000000000000000000000000000000000060648201526084016106a6565b6003805473ffffffffffffffffffffffffffffffffffffffff86167fffffffffffffffffffffffff0000000000000000000000000000000000000000909116811790915560048481556005805461ffff85811662010000027fffffffffffffffffffffffffffffffffffffffffffffffffffffffff00000000909216908716171790556040517f1526fe2700000000000000000000000000000000000000000000000000000000815260009291631526fe2791611a0c9188910190815260200190565b60a06040518083038186803b158015611a2457600080fd5b505afa158015611a38573d6000803e3d6000fd5b505050506040513d601f19601f82011682018060405250810190611a5c9190613352565b8051600580547fffffffffffffffff0000000000000000000000000000000000000000ffffffff1664010000000073ffffffffffffffffffffffffffffffffffffffff93841602179055600354604080517fb985a3a0000000000000000000000000000000000000000000000000000000008152905193945091169163b985a3a091600480820192602092909190829003018186803b158015611afe57600080fd5b505afa158015611b12573d6000803e3d6000fd5b505050506040513d601f19601f82011682018060405250810190611b3691906131bd565b600680547fffffffffffffffffffffffff00000000000000000000000000000000000000001673ffffffffffffffffffffffffffffffffffffffff929092169190911790555050505050565b60015473ffffffffffffffffffffffffffffffffffffffff163314611c29576040517f08c379a000000000000000000000000000000000000000000000000000000000815260206004820152602160248201527f4175746f6d6174653a2063616c6c6572206973206e6f7420746865206f776e6560448201527f720000000000000000000000000000000000000000000000000000000000000060648201526084016106a6565b6040517fa9059cbb00000000000000000000000000000000000000000000000000000000815273ffffffffffffffffffffffffffffffffffffffff83811660048301526024820183905284169063a9059cbb90604401610c64565b60015473ffffffffffffffffffffffffffffffffffffffff163314611d2b576040517f08c379a000000000000000000000000000000000000000000000000000000000815260206004820152602160248201527f4175746f6d6174653a2063616c6c6572206973206e6f7420746865206f776e6560448201527f720000000000000000000000000000000000000000000000000000000000000060648201526084016106a6565b600354600554611d5c9173ffffffffffffffffffffffffffffffffffffffff6401000000009092048216911661297b565b600354600480546005546040517f70a08231000000000000000000000000000000000000000000000000000000008152309381019390935273ffffffffffffffffffffffffffffffffffffffff9384169363e2bbb1589364010000000090920416906370a082319060240160206040518083038186803b158015611ddf57600080fd5b505afa158015611df3573d6000803e3d6000fd5b505050506040513d601f19601f82011682018060405250810190611e179190613403565b6040517fffffffff0000000000000000000000000000000000000000000000000000000060e085901b16815260048101929092526024820152604401600060405180830381600087803b158015611e6d57600080fd5b505af1158015610cb6573d6000803e3d6000fd5b826040518060400160405280601a81526020017f417661784d6173746572436865664a6f654c5052657374616b65000000000000815250611ec282826129aa565b50600354600480546040517f93f1a40b0000000000000000000000000000000000000000000000000000000081529182015230602482015273ffffffffffffffffffffffffffffffffffffffff9091169060009082906393f1a40b90604401604080518083038186803b158015611f3857600080fd5b505afa158015611f4c573d6000803e3d6000fd5b505050506040513d601f19601f82011682018060405250810190611f7091906133d1565b90506000816020015111612006576040517f08c379a000000000000000000000000000000000000000000000000000000000815260206004820152602660248201527f4d6173746572436865664a6f654c7052657374616b653a3a72756e3a206e6f2060448201527f6561726e6564000000000000000000000000000000000000000000000000000060648201526084016106a6565b60006120106102fb565b6040517f21f8a7210000000000000000000000000000000000000000000000000000000081527fc828168a61c19f8f4b553118a6edf8ae80b7d20f13088ce788215c145d1f02af600482015273ffffffffffffffffffffffffffffffffffffffff91909116906321f8a7219060240160206040518083038186803b15801561209757600080fd5b505afa1580156120ab573d6000803e3d6000fd5b505050506040513d601f19601f820116820180604052508101906120cf91906131bd565b905073ffffffffffffffffffffffffffffffffffffffff8116612174576040517f08c379a000000000000000000000000000000000000000000000000000000000815260206004820152603a60248201527f4d6173746572436865664a6f654c7052657374616b653a3a72756e3a206a6f6560448201527f20726f7574657220636f6e7472616374206e6f7420666f756e6400000000000060648201526084016106a6565b600480546040517fe2bbb158000000000000000000000000000000000000000000000000000000008152918201526000602482015273ffffffffffffffffffffffffffffffffffffffff84169063e2bbb15890604401600060405180830381600087803b1580156121e457600080fd5b505af11580156121f8573d6000803e3d6000fd5b50506006546040517f70a082310000000000000000000000000000000000000000000000000000000081523060048201526000935073ffffffffffffffffffffffffffffffffffffffff90911691506370a082319060240160206040518083038186803b15801561226857600080fd5b505afa15801561227c573d6000803e3d6000fd5b505050506040513d601f19601f820116820180604052508101906122a09190613403565b6006549091506122c69073ffffffffffffffffffffffffffffffffffffffff168361297b565b6000600560049054906101000a900473ffffffffffffffffffffffffffffffffffffffff169050600060405180604001604052808373ffffffffffffffffffffffffffffffffffffffff16630dfe16816040518163ffffffff1660e01b815260040160206040518083038186803b15801561234057600080fd5b505afa158015612354573d6000803e3d6000fd5b505050506040513d601f19601f8201168201806040525081019061237891906131bd565b73ffffffffffffffffffffffffffffffffffffffff1673ffffffffffffffffffffffffffffffffffffffff1681526020018373ffffffffffffffffffffffffffffffffffffffff1663d21220a76040518163ffffffff1660e01b815260040160206040518083038186803b1580156123ef57600080fd5b505afa158015612403573d6000803e3d6000fd5b505050506040513d601f19601f8201168201806040525081019061242791906131bd565b73ffffffffffffffffffffffffffffffffffffffff9081169091526040805160a081018252878316818301908152600654841660608301528451909316608082015281518083019092529293506000929182916124a191908061248b60028b6136b8565b81526020018f60005b602002015190528f612c7c565b81526040805160608101825273ffffffffffffffffffffffffffffffffffffffff89811682526006548116602080840191909152878101519091168284015282518084019093529092019161251391806124fc60028b6136b8565b612506908b613730565b81526020018f6001612494565b81525090506000604051806040016040528060008152602001600081525090506125ba60405180606001604052808873ffffffffffffffffffffffffffffffffffffffff1673ffffffffffffffffffffffffffffffffffffffff1681526020018560006002811061258657612586613776565b6020908102919091015173ffffffffffffffffffffffffffffffffffffffff9081168352878201511691015283838f612e5d565b6005546125e590640100000000900473ffffffffffffffffffffffffffffffffffffffff168961297b565b600480546005546040517f70a08231000000000000000000000000000000000000000000000000000000008152309381019390935273ffffffffffffffffffffffffffffffffffffffff8b81169363e2bbb15893926401000000009004909116906370a082319060240160206040518083038186803b15801561266757600080fd5b505afa15801561267b573d6000803e3d6000fd5b505050506040513d601f19601f8201168201806040525081019061269f9190613403565b6040517fffffffff0000000000000000000000000000000000000000000000000000000060e085901b16815260048101929092526024820152604401600060405180830381600087803b1580156126f557600080fd5b505af1158015612709573d6000803e3d6000fd5b5050505050505050505050505050505050565b60015473ffffffffffffffffffffffffffffffffffffffff1633146127c3576040517f08c379a000000000000000000000000000000000000000000000000000000000815260206004820152602160248201527f4175746f6d6174653a2063616c6c6572206973206e6f7420746865206f776e6560448201527f720000000000000000000000000000000000000000000000000000000000000060648201526084016106a6565b6040517f6b88071800000000000000000000000000000000000000000000000000000000815230600482018190529073__$0bac19a4f6859fb91e3c64d76ce49d598f$__90636b8807189060240160206040518083038186803b15801561282957600080fd5b505af415801561283d573d6000803e3d6000fd5b505050506040513d601f19601f8201168201806040525081019061286191906131bd565b73ffffffffffffffffffffffffffffffffffffffff1614612904576040517f08c379a000000000000000000000000000000000000000000000000000000000815260206004820152602160248201527f4175746f6d6174653a206368616e676520746865206f776e6572206661696c6560448201527f640000000000000000000000000000000000000000000000000000000000000060648201526084016106a6565b6001805473ffffffffffffffffffffffffffffffffffffffff8381167fffffffffffffffffffffffff0000000000000000000000000000000000000000831681179093556040519116919082907f8be0079c531659141344cd1fd0a4f28419497f9722a3daafe3b4186f6b6457e090600090a35050565b6129a682827fffffffffffffffffffffffffffffffffffffffffffffffffffffffffffffffff612f51565b5050565b60006129b4610cbc565b15612a1b576040517f08c379a000000000000000000000000000000000000000000000000000000000815260206004820152601060248201527f4175746f6d6174653a207061757365640000000000000000000000000000000060448201526064016106a6565b6000612a3c60015473ffffffffffffffffffffffffffffffffffffffff1690565b90503273ffffffffffffffffffffffffffffffffffffffff82161415612a66576000915050612c76565b6000612a706102fb565b6040517f21f8a7210000000000000000000000000000000000000000000000000000000081527fe78c16c6d839536d3155985aab4e9c6013c8c3d446054bcebc48612f359d81f5600482015290915060009073ffffffffffffffffffffffffffffffffffffffff8316906321f8a7219060240160206040518083038186803b158015612afb57600080fd5b505afa158015612b0f573d6000803e3d6000fd5b505050506040513d601f19601f82011682018060405250810190612b3391906131bd565b905073ffffffffffffffffffffffffffffffffffffffff8116612bd8576040517f08c379a000000000000000000000000000000000000000000000000000000000815260206004820152602b60248201527f4175746f6d6174653a3a5f62696c6c3a2062616c616e636520636f6e7472616360448201527f74206e6f7420666f756e6400000000000000000000000000000000000000000060648201526084016106a6565b8073ffffffffffffffffffffffffffffffffffffffff1663e578a2258488612bfe611425565b896040518563ffffffff1660e01b8152600401612c1e9493929190613516565b602060405180830381600087803b158015612c3857600080fd5b505af1158015612c4c573d6000803e3d6000fd5b505050506040513d601f19601f82011682018060405250810190612c709190613403565b93505050505b92915050565b6040830151602084015160009173ffffffffffffffffffffffffffffffffffffffff91821691161415612cb157508151612e56565b604080516002808252606082018352600092602083019080368337019050509050846001602002015181600081518110612ced57612ced613776565b73ffffffffffffffffffffffffffffffffffffffff90921660209283029190910190910152846002602002015181600181518110612d2d57612d2d613776565b73ffffffffffffffffffffffffffffffffffffffff928316602091820292909201015285516040870151612d6292169061297b565b8451845160208601516040517f38ed173900000000000000000000000000000000000000000000000000000000815273ffffffffffffffffffffffffffffffffffffffff909316926338ed173992612dc4929091869030908a906004016135b5565b600060405180830381600087803b158015612dde57600080fd5b505af1158015612df2573d6000803e3d6000fd5b505050506040513d6000823e601f3d9081017fffffffffffffffffffffffffffffffffffffffffffffffffffffffffffffffe0168201604052612e38919081019061326a565b600181518110612e4a57612e4a613776565b60200260200101519150505b9392505050565b835160208086015160408088015187518885015188519589015193517fe8e3370000000000000000000000000000000000000000000000000000000000815273ffffffffffffffffffffffffffffffffffffffff9586166004820152928516602484015260448301919091526064820152608481019390935260a48301523060c483015260e482018490529091169063e8e337009061010401606060405180830381600087803b158015612f1057600080fd5b505af1158015612f24573d6000803e3d6000fd5b505050506040513d601f19601f82011682018060405250810190612f489190613498565b50505050505050565b6040517fdd62ed3e00000000000000000000000000000000000000000000000000000000815230600482015273ffffffffffffffffffffffffffffffffffffffff83811660248301526000919085169063dd62ed3e9060440160206040518083038186803b158015612fc257600080fd5b505afa158015612fd6573d6000803e3d6000fd5b505050506040513d601f19601f82011682018060405250810190612ffa9190613403565b9050801580159061300a57508181105b156130b9576040517f095ea7b300000000000000000000000000000000000000000000000000000000815273ffffffffffffffffffffffffffffffffffffffff84811660048301526000602483015285169063095ea7b390604401602060405180830381600087803b15801561307f57600080fd5b505af1158015613093573d6000803e3d6000fd5b505050506040513d601f19601f820116820180604052508101906130b79190613317565b505b818114610cb6576040517f095ea7b300000000000000000000000000000000000000000000000000000000815273ffffffffffffffffffffffffffffffffffffffff84811660048301526024820184905285169063095ea7b390604401602060405180830381600087803b15801561313057600080fd5b505af1158015613144573d6000803e3d6000fd5b505050506040513d601f19601f820116820180604052508101906131689190613317565b5050505050565b803561ffff8116811461318157600080fd5b919050565b805169ffffffffffffffffffff8116811461318157600080fd5b6000602082840312156131b257600080fd5b8135612e56816137d4565b6000602082840312156131cf57600080fd5b8151612e56816137d4565b6000806000606084860312156131ef57600080fd5b83356131fa816137d4565b9250602084013561320a816137d4565b929592945050506040919091013590565b6000806000806080858703121561323157600080fd5b843561323c816137d4565b9350602085013592506132516040860161316f565b915061325f6060860161316f565b905092959194509250565b6000602080838503121561327d57600080fd5b825167ffffffffffffffff8082111561329557600080fd5b818501915085601f8301126132a957600080fd5b8151818111156132bb576132bb6137a5565b8060051b91506132cc848301613669565b8181528481019084860184860187018a10156132e757600080fd5b600095505b8386101561330a5780518352600195909501949186019186016132ec565b5098975050505050505050565b60006020828403121561332957600080fd5b81518015158114612e5657600080fd5b60006020828403121561334b57600080fd5b5035919050565b600060a0828403121561336457600080fd5b60405160a0810181811067ffffffffffffffff82111715613387576133876137a5565b6040528251613395816137d4565b8082525060208301516020820152604083015160408201526060830151606082015260808301516133c5816137d4565b60808201529392505050565b6000604082840312156133e357600080fd5b6133eb613640565b82518152602083015160208201528091505092915050565b60006020828403121561341557600080fd5b5051919050565b60008060006080848603121561343157600080fd5b83359250602080850135925085605f86011261344c57600080fd5b613454613640565b80604087018860808901111561346957600080fd5b60005b60028110156134895781358452928401929084019060010161346c565b50508093505050509250925092565b6000806000606084860312156134ad57600080fd5b8351925060208401519150604084015190509250925092565b600080600080600060a086880312156134de57600080fd5b6134e786613186565b945060208601519350604086015192506060860151915061350a60808701613186565b90509295509295909350565b73ffffffffffffffffffffffffffffffffffffffff8516815260006020858184015284604084015260806060840152835180608085015260005b8181101561356c5785810183015185820160a001528201613550565b8181111561357e57600060a083870101525b50601f017fffffffffffffffffffffffffffffffffffffffffffffffffffffffffffffffe0169290920160a0019695505050505050565b600060a082018783526020878185015260a0604085015281875180845260c086019150828901935060005b8181101561361257845173ffffffffffffffffffffffffffffffffffffffff16835293830193918301916001016135e0565b505073ffffffffffffffffffffffffffffffffffffffff969096166060850152505050608001529392505050565b6040805190810167ffffffffffffffff81118282101715613663576136636137a5565b60405290565b604051601f82017fffffffffffffffffffffffffffffffffffffffffffffffffffffffffffffffe016810167ffffffffffffffff811182821017156136b0576136b06137a5565b604052919050565b6000826136ee577f4e487b7100000000000000000000000000000000000000000000000000000000600052601260045260246000fd5b500490565b6000817fffffffffffffffffffffffffffffffffffffffffffffffffffffffffffffffff048311821515161561372b5761372b613747565b500290565b60008282101561374257613742613747565b500390565b7f4e487b7100000000000000000000000000000000000000000000000000000000600052601160045260246000fd5b7f4e487b7100000000000000000000000000000000000000000000000000000000600052603260045260246000fd5b7f4e487b7100000000000000000000000000000000000000000000000000000000600052604160045260246000fd5b73ffffffffffffffffffffffffffffffffffffffff811681146137f657600080fd5b5056fea164736f6c6343000806000a",
  "libraries": {
    "ERC1167": "0x62cA8Ec7e7a6852D93Fb4e4b5583d6D7b2c10b7F"
  },
  "devdoc": {
    "kind": "dev",
    "methods": {
      "changeProtocolFee(int256)": {
        "params": {
          "__protocolFee": "New protocol fee."
        }
      },
      "protocolFee()": {
        "returns": {
          "_0": "Current protocol fee."
        }
      },
      "transfer(address,address,uint256)": {
        "params": {
          "amount": "Transferred amount of tokens.",
          "recipient": "Token recipient address.",
          "token": "The address of the token to be transferred."
        }
      },
      "transferOwnership(address)": {
        "details": "Transfers ownership of the contract to a new account (`newOwner`). Can only be called by the current owner."
      }
    },
    "version": 1
  },
  "userdoc": {
    "kind": "user",
    "methods": {
      "changeProtocolFee(int256)": {
        "notice": "Change protocol fee."
      },
      "info()": {
        "notice": "Returns address of Storage contract."
      },
      "owner()": {
        "notice": "Returns the address of the current owner."
      },
      "pause()": {
        "notice": "Pause contract."
      },
      "paused()": {
        "notice": "Returns true if the contract is paused, and false otherwise."
      },
      "transfer(address,address,uint256)": {
        "notice": "Transfer ERC20 token to recipient."
      },
      "unpause()": {
        "notice": "Unpause contract."
      }
    },
    "version": 1
  },
  "storageLayout": {
    "storage": [
      {
        "astId": 3779,
        "contract": "automates/avax/MasterChefJoeLpRestake.automate.sol:MasterChefJoeLpRestake",
        "label": "_info",
        "offset": 0,
        "slot": "0",
        "type": "t_address"
      },
      {
        "astId": 3782,
        "contract": "automates/avax/MasterChefJoeLpRestake.automate.sol:MasterChefJoeLpRestake",
        "label": "_owner",
        "offset": 0,
        "slot": "1",
        "type": "t_address"
      },
      {
        "astId": 3785,
        "contract": "automates/avax/MasterChefJoeLpRestake.automate.sol:MasterChefJoeLpRestake",
        "label": "_paused",
        "offset": 20,
        "slot": "1",
        "type": "t_bool"
      },
      {
        "astId": 3788,
        "contract": "automates/avax/MasterChefJoeLpRestake.automate.sol:MasterChefJoeLpRestake",
        "label": "_protocolFee",
        "offset": 0,
        "slot": "2",
        "type": "t_int256"
      },
      {
        "astId": 879,
        "contract": "automates/avax/MasterChefJoeLpRestake.automate.sol:MasterChefJoeLpRestake",
        "label": "staking",
        "offset": 0,
        "slot": "3",
        "type": "t_contract(IMasterChefJoeV2)860"
      },
      {
        "astId": 881,
        "contract": "automates/avax/MasterChefJoeLpRestake.automate.sol:MasterChefJoeLpRestake",
        "label": "pool",
        "offset": 0,
        "slot": "4",
        "type": "t_uint256"
      },
      {
        "astId": 883,
        "contract": "automates/avax/MasterChefJoeLpRestake.automate.sol:MasterChefJoeLpRestake",
        "label": "slippage",
        "offset": 0,
        "slot": "5",
        "type": "t_uint16"
      },
      {
        "astId": 885,
        "contract": "automates/avax/MasterChefJoeLpRestake.automate.sol:MasterChefJoeLpRestake",
        "label": "deadline",
        "offset": 2,
        "slot": "5",
        "type": "t_uint16"
      },
      {
        "astId": 888,
        "contract": "automates/avax/MasterChefJoeLpRestake.automate.sol:MasterChefJoeLpRestake",
        "label": "stakingToken",
        "offset": 4,
        "slot": "5",
        "type": "t_contract(IERC20)669"
      },
      {
        "astId": 891,
        "contract": "automates/avax/MasterChefJoeLpRestake.automate.sol:MasterChefJoeLpRestake",
        "label": "rewardToken",
        "offset": 0,
        "slot": "6",
        "type": "t_contract(IERC20)669"
      }
    ],
    "types": {
      "t_address": {
        "encoding": "inplace",
        "label": "address",
        "numberOfBytes": "20"
      },
      "t_bool": {
        "encoding": "inplace",
        "label": "bool",
        "numberOfBytes": "1"
      },
      "t_contract(IERC20)669": {
        "encoding": "inplace",
        "label": "contract IERC20",
        "numberOfBytes": "20"
      },
      "t_contract(IMasterChefJoeV2)860": {
        "encoding": "inplace",
        "label": "contract IMasterChefJoeV2",
        "numberOfBytes": "20"
      },
      "t_int256": {
        "encoding": "inplace",
        "label": "int256",
        "numberOfBytes": "32"
      },
      "t_uint16": {
        "encoding": "inplace",
        "label": "uint16",
        "numberOfBytes": "2"
      },
      "t_uint256": {
        "encoding": "inplace",
        "label": "uint256",
        "numberOfBytes": "32"
      }
    }
  }
}