{
  "address": "0xF9bfA344c2c25ecdFBd208872FaffA9105E44503",
  "abi": [
    {
      "inputs": [
        {
          "internalType": "address",
          "name": "_info",
          "type": "address"
        }
      ],
      "stateMutability": "nonpayable",
      "type": "constructor"
    },
    {
      "anonymous": false,
      "inputs": [
        {
          "indexed": true,
          "internalType": "address",
          "name": "previousOwner",
          "type": "address"
        },
        {
          "indexed": true,
          "internalType": "address",
          "name": "newOwner",
          "type": "address"
        }
      ],
      "name": "OwnershipTransferred",
      "type": "event"
    },
    {
      "anonymous": false,
      "inputs": [
        {
          "indexed": false,
          "internalType": "int256",
          "name": "protocolFee",
          "type": "int256"
        }
      ],
      "name": "ProtocolFeeChanged",
      "type": "event"
    },
    {
      "anonymous": false,
      "inputs": [
        {
          "indexed": false,
          "internalType": "uint256",
          "name": "amount",
          "type": "uint256"
        }
      ],
      "name": "Run",
      "type": "event"
    },
    {
      "inputs": [
        {
          "internalType": "int256",
          "name": "__protocolFee",
          "type": "int256"
        }
      ],
      "name": "changeProtocolFee",
      "outputs": [],
      "stateMutability": "nonpayable",
      "type": "function"
    },
    {
      "inputs": [],
      "name": "deposit",
      "outputs": [],
      "stateMutability": "nonpayable",
      "type": "function"
    },
    {
      "inputs": [],
      "name": "info",
      "outputs": [
        {
          "internalType": "address",
          "name": "",
          "type": "address"
        }
      ],
      "stateMutability": "view",
      "type": "function"
    },
    {
      "inputs": [
        {
          "internalType": "address",
          "name": "_staking",
          "type": "address"
        }
      ],
      "name": "init",
      "outputs": [],
      "stateMutability": "nonpayable",
      "type": "function"
    },
    {
      "inputs": [],
      "name": "owner",
      "outputs": [
        {
          "internalType": "address",
          "name": "",
          "type": "address"
        }
      ],
      "stateMutability": "view",
      "type": "function"
    },
    {
      "inputs": [],
      "name": "pause",
      "outputs": [],
      "stateMutability": "nonpayable",
      "type": "function"
    },
    {
      "inputs": [],
      "name": "paused",
      "outputs": [
        {
          "internalType": "bool",
          "name": "",
          "type": "bool"
        }
      ],
      "stateMutability": "view",
      "type": "function"
    },
    {
      "inputs": [],
      "name": "protocolFee",
      "outputs": [
        {
          "internalType": "uint256",
          "name": "",
          "type": "uint256"
        }
      ],
      "stateMutability": "view",
      "type": "function"
    },
    {
      "inputs": [],
      "name": "refund",
      "outputs": [],
      "stateMutability": "nonpayable",
      "type": "function"
    },
    {
      "inputs": [
        {
          "internalType": "uint256",
          "name": "gasFee",
          "type": "uint256"
        }
      ],
      "name": "run",
      "outputs": [],
      "stateMutability": "nonpayable",
      "type": "function"
    },
    {
      "inputs": [],
      "name": "staking",
      "outputs": [
        {
          "internalType": "contract EthStaking",
          "name": "",
          "type": "address"
        }
      ],
      "stateMutability": "view",
      "type": "function"
    },
    {
      "inputs": [
        {
          "internalType": "address",
          "name": "token",
          "type": "address"
        },
        {
          "internalType": "address",
          "name": "recipient",
          "type": "address"
        },
        {
          "internalType": "uint256",
          "name": "amount",
          "type": "uint256"
        }
      ],
      "name": "transfer",
      "outputs": [],
      "stateMutability": "nonpayable",
      "type": "function"
    },
    {
      "inputs": [
        {
          "internalType": "address",
          "name": "newOwner",
          "type": "address"
        }
      ],
      "name": "transferOwnership",
      "outputs": [],
      "stateMutability": "nonpayable",
      "type": "function"
    },
    {
      "inputs": [],
      "name": "unpause",
      "outputs": [],
      "stateMutability": "nonpayable",
      "type": "function"
    }
  ],
  "transactionHash": "0x27a55cf4ca2c94ca29ea760134400cdab960fe9ad2e5d2495e49e7a22adf4f5d",
  "args": [
    "0xDdfbffEfacB7598Ad995D327Ea4fF2D42aCF7b77"
  ],
  "solcInputHash": "3fe8b7eef3b480190444ef49d98cd9da",
  "bytecode": "0x60806040523480156200001157600080fd5b506040516200282638038062002826833981016040819052620000349162000069565b600080546001600160a01b039092166001600160a01b031992831617905560018054909116321790556000196002556200009b565b6000602082840312156200007c57600080fd5b81516001600160a01b03811681146200009457600080fd5b9392505050565b61277b80620000ab6000396000f3fe608060405234801561001057600080fd5b50600436106100ea5760003560e01c80638da5cb5b1161008c578063b0e21e8a11610066578063b0e21e8a146101ca578063beabacc8146101e0578063d0e30db0146101f3578063f2fde38b146101fb57600080fd5b80638da5cb5b146101865780639742b5c3146101a4578063a444f5e9146101b757600080fd5b80634cf088d9116100c85780634cf088d91461013e578063590e1ae31461015e5780635c975abb146101665780638456cb591461017e57600080fd5b806319ab453c146100ef578063370158ea146101045780633f4ba83a14610136575b600080fd5b6101026100fd3660046124e5565b61020e565b005b61010c610371565b60405173ffffffffffffffffffffffffffffffffffffffff90911681526020015b60405180910390f35b6101026104d3565b60035461010c9073ffffffffffffffffffffffffffffffffffffffff1681565b610102610865565b61016e610c28565b604051901515815260200161012d565b610102610dad565b60015473ffffffffffffffffffffffffffffffffffffffff1661010c565b6101026101b2366004612589565b611157565b6101026101c5366004612589565b611391565b6101d261170f565b60405190815260200161012d565b6101026101ee366004612526565b611b1c565b610102611c71565b6101026102093660046124e5565b611f95565b60015473ffffffffffffffffffffffffffffffffffffffff1661027e57600180547fffffffffffffffffffffffff000000000000000000000000000000000000000016321790557fffffffffffffffffffffffffffffffffffffffffffffffffffffffffffffffff60025561032a565b60015473ffffffffffffffffffffffffffffffffffffffff16331461032a576040517f08c379a000000000000000000000000000000000000000000000000000000000815260206004820152602160248201527f4175746f6d6174653a2063616c6c6572206973206e6f7420746865206f776e6560448201527f720000000000000000000000000000000000000000000000000000000000000060648201526084015b60405180910390fd5b600380547fffffffffffffffffffffffff00000000000000000000000000000000000000001673ffffffffffffffffffffffffffffffffffffffff92909216919091179055565b6040517f6b88071800000000000000000000000000000000000000000000000000000000815230600482015260009081907362cA8Ec7e7a6852D93Fb4e4b5583d6D7b2c10b7F90636b8807189060240160206040518083038186803b1580156103d957600080fd5b505af41580156103ed573d6000803e3d6000fd5b505050506040513d601f19601f820116820180604052508101906104119190612509565b905073ffffffffffffffffffffffffffffffffffffffff811630141561044f57505060005473ffffffffffffffffffffffffffffffffffffffff1690565b8073ffffffffffffffffffffffffffffffffffffffff1663370158ea6040518163ffffffff1660e01b815260040160206040518083038186803b15801561049557600080fd5b505afa1580156104a9573d6000803e3d6000fd5b505050506040513d601f19601f820116820180604052508101906104cd9190612509565b91505090565b6040517f6b8807180000000000000000000000000000000000000000000000000000000081523060048201819052907362cA8Ec7e7a6852D93Fb4e4b5583d6D7b2c10b7F90636b8807189060240160206040518083038186803b15801561053957600080fd5b505af415801561054d573d6000803e3d6000fd5b505050506040513d601f19601f820116820180604052508101906105719190612509565b73ffffffffffffffffffffffffffffffffffffffff161415610726576000610597610371565b6040517f21f8a7210000000000000000000000000000000000000000000000000000000081527f689d13d8ed8ef1027633ba26e7121121cf427434450a529548f19bf175974395600482015273ffffffffffffffffffffffffffffffffffffffff91909116906321f8a7219060240160206040518083038186803b15801561061e57600080fd5b505afa158015610632573d6000803e3d6000fd5b505050506040513d601f19601f820116820180604052508101906106569190612509565b60015490915073ffffffffffffffffffffffffffffffffffffffff1633148061069457503373ffffffffffffffffffffffffffffffffffffffff8216145b610720576040517f08c379a000000000000000000000000000000000000000000000000000000000815260206004820152602260248201527f4175746f6d6174653a2063616c6c6572206973206e6f7420746865207061757360448201527f65720000000000000000000000000000000000000000000000000000000000006064820152608401610321565b506107cd565b60015473ffffffffffffffffffffffffffffffffffffffff1633146107cd576040517f08c379a000000000000000000000000000000000000000000000000000000000815260206004820152602260248201527f4175746f6d6174653a2063616c6c6572206973206e6f7420746865207061757360448201527f65720000000000000000000000000000000000000000000000000000000000006064820152608401610321565b6107d5610c28565b61083b576040517f08c379a000000000000000000000000000000000000000000000000000000000815260206004820152601460248201527f4175746f6d6174653a206e6f74207061757365640000000000000000000000006044820152606401610321565b600180547fffffffffffffffffffffff00ffffffffffffffffffffffffffffffffffffffff169055565b60015473ffffffffffffffffffffffffffffffffffffffff16331461090c576040517f08c379a000000000000000000000000000000000000000000000000000000000815260206004820152602160248201527f4175746f6d6174653a2063616c6c6572206973206e6f7420746865206f776e6560448201527f72000000000000000000000000000000000000000000000000000000000000006064820152608401610321565b6003546040517f70a0823100000000000000000000000000000000000000000000000000000000815230600482015273ffffffffffffffffffffffffffffffffffffffff90911690632e1a7d4d9082906370a082319060240160206040518083038186803b15801561097d57600080fd5b505afa158015610991573d6000803e3d6000fd5b505050506040513d601f19601f820116820180604052508101906109b591906125a2565b6040518263ffffffff1660e01b81526004016109d391815260200190565b600060405180830381600087803b1580156109ed57600080fd5b505af1158015610a01573d6000803e3d6000fd5b505050506000600360009054906101000a900473ffffffffffffffffffffffffffffffffffffffff1673ffffffffffffffffffffffffffffffffffffffff166372f702f36040518163ffffffff1660e01b815260040160206040518083038186803b158015610a6f57600080fd5b505afa158015610a83573d6000803e3d6000fd5b505050506040513d601f19601f82011682018060405250810190610aa79190612509565b90508073ffffffffffffffffffffffffffffffffffffffff1663a9059cbb610ae460015473ffffffffffffffffffffffffffffffffffffffff1690565b6040517f70a0823100000000000000000000000000000000000000000000000000000000815230600482015273ffffffffffffffffffffffffffffffffffffffff8516906370a082319060240160206040518083038186803b158015610b4957600080fd5b505afa158015610b5d573d6000803e3d6000fd5b505050506040513d601f19601f82011682018060405250810190610b8191906125a2565b6040517fffffffff0000000000000000000000000000000000000000000000000000000060e085901b16815273ffffffffffffffffffffffffffffffffffffffff90921660048301526024820152604401602060405180830381600087803b158015610bec57600080fd5b505af1158015610c00573d6000803e3d6000fd5b505050506040513d601f19601f82011682018060405250810190610c249190612567565b5050565b6040517f6b88071800000000000000000000000000000000000000000000000000000000815230600482015260009081907362cA8Ec7e7a6852D93Fb4e4b5583d6D7b2c10b7F90636b8807189060240160206040518083038186803b158015610c9057600080fd5b505af4158015610ca4573d6000803e3d6000fd5b505050506040513d601f19601f82011682018060405250810190610cc89190612509565b905073ffffffffffffffffffffffffffffffffffffffff8116301415610d0b57505060015474010000000000000000000000000000000000000000900460ff1690565b60015474010000000000000000000000000000000000000000900460ff16806104cd57508073ffffffffffffffffffffffffffffffffffffffff16635c975abb6040518163ffffffff1660e01b815260040160206040518083038186803b158015610d7557600080fd5b505afa158015610d89573d6000803e3d6000fd5b505050506040513d601f19601f820116820180604052508101906104cd9190612567565b6040517f6b8807180000000000000000000000000000000000000000000000000000000081523060048201819052907362cA8Ec7e7a6852D93Fb4e4b5583d6D7b2c10b7F90636b8807189060240160206040518083038186803b158015610e1357600080fd5b505af4158015610e27573d6000803e3d6000fd5b505050506040513d601f19601f82011682018060405250810190610e4b9190612509565b73ffffffffffffffffffffffffffffffffffffffff161415611000576000610e71610371565b6040517f21f8a7210000000000000000000000000000000000000000000000000000000081527f689d13d8ed8ef1027633ba26e7121121cf427434450a529548f19bf175974395600482015273ffffffffffffffffffffffffffffffffffffffff91909116906321f8a7219060240160206040518083038186803b158015610ef857600080fd5b505afa158015610f0c573d6000803e3d6000fd5b505050506040513d601f19601f82011682018060405250810190610f309190612509565b60015490915073ffffffffffffffffffffffffffffffffffffffff16331480610f6e57503373ffffffffffffffffffffffffffffffffffffffff8216145b610ffa576040517f08c379a000000000000000000000000000000000000000000000000000000000815260206004820152602260248201527f4175746f6d6174653a2063616c6c6572206973206e6f7420746865207061757360448201527f65720000000000000000000000000000000000000000000000000000000000006064820152608401610321565b506110a7565b60015473ffffffffffffffffffffffffffffffffffffffff1633146110a7576040517f08c379a000000000000000000000000000000000000000000000000000000000815260206004820152602260248201527f4175746f6d6174653a2063616c6c6572206973206e6f7420746865207061757360448201527f65720000000000000000000000000000000000000000000000000000000000006064820152608401610321565b6110af610c28565b15611116576040517f08c379a000000000000000000000000000000000000000000000000000000000815260206004820152601060248201527f4175746f6d6174653a20706175736564000000000000000000000000000000006044820152606401610321565b600180547fffffffffffffffffffffff00ffffffffffffffffffffffffffffffffffffffff1674010000000000000000000000000000000000000000179055565b6040517f6b8807180000000000000000000000000000000000000000000000000000000081523060048201526000907362cA8Ec7e7a6852D93Fb4e4b5583d6D7b2c10b7F90636b8807189060240160206040518083038186803b1580156111bd57600080fd5b505af41580156111d1573d6000803e3d6000fd5b505050506040513d601f19601f820116820180604052508101906111f59190612509565b90503373ffffffffffffffffffffffffffffffffffffffff82163014611298578173ffffffffffffffffffffffffffffffffffffffff16638da5cb5b6040518163ffffffff1660e01b815260040160206040518083038186803b15801561125b57600080fd5b505afa15801561126f573d6000803e3d6000fd5b505050506040513d601f19601f820116820180604052508101906112939190612509565b6112b2565b60015473ffffffffffffffffffffffffffffffffffffffff165b73ffffffffffffffffffffffffffffffffffffffff1614611355576040517f08c379a000000000000000000000000000000000000000000000000000000000815260206004820152603d60248201527f4175746f6d6174653a3a6368616e676550726f746f636f6c4665653a2063616c60448201527f6c6572206973206e6f74207468652070726f746f636f6c206f776e65720000006064820152608401610321565b60028290556040518281527f3c1d43943224e49d951ce8295a5c8332b517083b3f89bed50feae2cb39caebb59060200160405180910390a15050565b806040518060400160405280600f81526020017f4d6f636b4574684175746f6d61746500000000000000000000000000000000008152506113d282826121f4565b506003546040517f70a0823100000000000000000000000000000000000000000000000000000000815230600482015260009173ffffffffffffffffffffffffffffffffffffffff16906370a082319060240160206040518083038186803b15801561143d57600080fd5b505afa158015611451573d6000803e3d6000fd5b505050506040513d601f19601f8201168201806040525081019061147591906125a2565b6003546040517f2e1a7d4d0000000000000000000000000000000000000000000000000000000081526004810183905291925073ffffffffffffffffffffffffffffffffffffffff1690632e1a7d4d90602401600060405180830381600087803b1580156114e257600080fd5b505af11580156114f6573d6000803e3d6000fd5b505050506000600360009054906101000a900473ffffffffffffffffffffffffffffffffffffffff1673ffffffffffffffffffffffffffffffffffffffff166372f702f36040518163ffffffff1660e01b815260040160206040518083038186803b15801561156457600080fd5b505afa158015611578573d6000803e3d6000fd5b505050506040513d601f19601f8201168201806040525081019061159c9190612509565b6003546040517f095ea7b300000000000000000000000000000000000000000000000000000000815273ffffffffffffffffffffffffffffffffffffffff91821660048201526024810185905291925082169063095ea7b390604401602060405180830381600087803b15801561161257600080fd5b505af1158015611626573d6000803e3d6000fd5b505050506040513d601f19601f8201168201806040525081019061164a9190612567565b506003546040517fb6b55f250000000000000000000000000000000000000000000000000000000081526004810184905273ffffffffffffffffffffffffffffffffffffffff9091169063b6b55f2590602401600060405180830381600087803b1580156116b757600080fd5b505af11580156116cb573d6000803e3d6000fd5b505050507f94f5b294c14bd89ee21c4c869a1013a487c7c8d0611568bb6757a14ad739f6bd8260405161170091815260200190565b60405180910390a15050505050565b6040517f6b88071800000000000000000000000000000000000000000000000000000000815230600482015260009081907362cA8Ec7e7a6852D93Fb4e4b5583d6D7b2c10b7F90636b8807189060240160206040518083038186803b15801561177757600080fd5b505af415801561178b573d6000803e3d6000fd5b505050506040513d601f19601f820116820180604052508101906117af9190612509565b905073ffffffffffffffffffffffffffffffffffffffff811630148015906117d957506000600254125b1561185c578073ffffffffffffffffffffffffffffffffffffffff1663b0e21e8a6040518163ffffffff1660e01b815260040160206040518083038186803b15801561182457600080fd5b505afa158015611838573d6000803e3d6000fd5b505050506040513d601f19601f820116820180604052508101906104cd91906125a2565b6000611866610371565b90506000806002541261187b57600254611938565b6040517fbd02d0f50000000000000000000000000000000000000000000000000000000081527fa93d95f96a5de25d7a41ddf1f5e8d45cfc929c4838163cf011dab4043a4a40d5600482015273ffffffffffffffffffffffffffffffffffffffff83169063bd02d0f59060240160206040518083038186803b15801561190057600080fd5b505afa158015611914573d6000803e3d6000fd5b505050506040513d601f19601f8201168201806040525081019061193891906125a2565b905080611949576000935050505090565b6040517f21f8a7210000000000000000000000000000000000000000000000000000000081527f65c90423fe7c880476633a7e36521740f87199d233dc56eb4ca6643eb76f605f600482015260009073ffffffffffffffffffffffffffffffffffffffff8416906321f8a7219060240160206040518083038186803b1580156119d157600080fd5b505afa1580156119e5573d6000803e3d6000fd5b505050506040513d601f19601f82011682018060405250810190611a099190612509565b73ffffffffffffffffffffffffffffffffffffffff1663feaf968c6040518163ffffffff1660e01b815260040160a06040518083038186803b158015611a4e57600080fd5b505afa158015611a62573d6000803e3d6000fd5b505050506040513d601f19601f82011682018060405250810190611a8691906125bb565b50505091505060008113611af6576040517f08c379a000000000000000000000000000000000000000000000000000000000815260206004820152601760248201527f4175746f6d6174653a20696e76616c69642070726963650000000000000000006044820152606401610321565b80611b0983670de0b6b3a76400006126e5565b611b1391906126aa565b94505050505090565b60015473ffffffffffffffffffffffffffffffffffffffff163314611bc3576040517f08c379a000000000000000000000000000000000000000000000000000000000815260206004820152602160248201527f4175746f6d6174653a2063616c6c6572206973206e6f7420746865206f776e6560448201527f72000000000000000000000000000000000000000000000000000000000000006064820152608401610321565b6040517fa9059cbb00000000000000000000000000000000000000000000000000000000815273ffffffffffffffffffffffffffffffffffffffff83811660048301526024820183905284169063a9059cbb90604401602060405180830381600087803b158015611c3357600080fd5b505af1158015611c47573d6000803e3d6000fd5b505050506040513d601f19601f82011682018060405250810190611c6b9190612567565b50505050565b60015473ffffffffffffffffffffffffffffffffffffffff163314611d18576040517f08c379a000000000000000000000000000000000000000000000000000000000815260206004820152602160248201527f4175746f6d6174653a2063616c6c6572206973206e6f7420746865206f776e6560448201527f72000000000000000000000000000000000000000000000000000000000000006064820152608401610321565b600354604080517f72f702f3000000000000000000000000000000000000000000000000000000008152905160009273ffffffffffffffffffffffffffffffffffffffff16916372f702f3916004808301926020929190829003018186803b158015611d8357600080fd5b505afa158015611d97573d6000803e3d6000fd5b505050506040513d601f19601f82011682018060405250810190611dbb9190612509565b6040517f70a0823100000000000000000000000000000000000000000000000000000000815230600482015290915060009073ffffffffffffffffffffffffffffffffffffffff8316906370a082319060240160206040518083038186803b158015611e2657600080fd5b505afa158015611e3a573d6000803e3d6000fd5b505050506040513d601f19601f82011682018060405250810190611e5e91906125a2565b6003546040517f095ea7b300000000000000000000000000000000000000000000000000000000815273ffffffffffffffffffffffffffffffffffffffff91821660048201526024810183905291925083169063095ea7b390604401602060405180830381600087803b158015611ed457600080fd5b505af1158015611ee8573d6000803e3d6000fd5b505050506040513d601f19601f82011682018060405250810190611f0c9190612567565b506003546040517fb6b55f250000000000000000000000000000000000000000000000000000000081526004810183905273ffffffffffffffffffffffffffffffffffffffff9091169063b6b55f2590602401600060405180830381600087803b158015611f7957600080fd5b505af1158015611f8d573d6000803e3d6000fd5b505050505050565b60015473ffffffffffffffffffffffffffffffffffffffff16331461203c576040517f08c379a000000000000000000000000000000000000000000000000000000000815260206004820152602160248201527f4175746f6d6174653a2063616c6c6572206973206e6f7420746865206f776e6560448201527f72000000000000000000000000000000000000000000000000000000000000006064820152608401610321565b6040517f6b8807180000000000000000000000000000000000000000000000000000000081523060048201819052907362cA8Ec7e7a6852D93Fb4e4b5583d6D7b2c10b7F90636b8807189060240160206040518083038186803b1580156120a257600080fd5b505af41580156120b6573d6000803e3d6000fd5b505050506040513d601f19601f820116820180604052508101906120da9190612509565b73ffffffffffffffffffffffffffffffffffffffff161461217d576040517f08c379a000000000000000000000000000000000000000000000000000000000815260206004820152602160248201527f4175746f6d6174653a206368616e676520746865206f776e6572206661696c6560448201527f64000000000000000000000000000000000000000000000000000000000000006064820152608401610321565b6001805473ffffffffffffffffffffffffffffffffffffffff8381167fffffffffffffffffffffffff0000000000000000000000000000000000000000831681179093556040519116919082907f8be0079c531659141344cd1fd0a4f28419497f9722a3daafe3b4186f6b6457e090600090a35050565b60006121fe610c28565b15612265576040517f08c379a000000000000000000000000000000000000000000000000000000000815260206004820152601060248201527f4175746f6d6174653a20706175736564000000000000000000000000000000006044820152606401610321565b600061228660015473ffffffffffffffffffffffffffffffffffffffff1690565b90503273ffffffffffffffffffffffffffffffffffffffff821614156122b05760009150506124c0565b60006122ba610371565b6040517f21f8a7210000000000000000000000000000000000000000000000000000000081527fe78c16c6d839536d3155985aab4e9c6013c8c3d446054bcebc48612f359d81f5600482015290915060009073ffffffffffffffffffffffffffffffffffffffff8316906321f8a7219060240160206040518083038186803b15801561234557600080fd5b505afa158015612359573d6000803e3d6000fd5b505050506040513d601f19601f8201168201806040525081019061237d9190612509565b905073ffffffffffffffffffffffffffffffffffffffff8116612422576040517f08c379a000000000000000000000000000000000000000000000000000000000815260206004820152602b60248201527f4175746f6d6174653a3a5f62696c6c3a2062616c616e636520636f6e7472616360448201527f74206e6f7420666f756e640000000000000000000000000000000000000000006064820152608401610321565b8073ffffffffffffffffffffffffffffffffffffffff1663e578a225848861244861170f565b896040518563ffffffff1660e01b8152600401612468949392919061260b565b602060405180830381600087803b15801561248257600080fd5b505af1158015612496573d6000803e3d6000fd5b505050506040513d601f19601f820116820180604052508101906124ba91906125a2565b93505050505b92915050565b805169ffffffffffffffffffff811681146124e057600080fd5b919050565b6000602082840312156124f757600080fd5b813561250281612749565b9392505050565b60006020828403121561251b57600080fd5b815161250281612749565b60008060006060848603121561253b57600080fd5b833561254681612749565b9250602084013561255681612749565b929592945050506040919091013590565b60006020828403121561257957600080fd5b8151801515811461250257600080fd5b60006020828403121561259b57600080fd5b5035919050565b6000602082840312156125b457600080fd5b5051919050565b600080600080600060a086880312156125d357600080fd5b6125dc866124c6565b94506020860151935060408601519250606086015191506125ff608087016124c6565b90509295509295909350565b73ffffffffffffffffffffffffffffffffffffffff8516815260006020858184015284604084015260806060840152835180608085015260005b818110156126615785810183015185820160a001528201612645565b8181111561267357600060a083870101525b50601f017fffffffffffffffffffffffffffffffffffffffffffffffffffffffffffffffe0169290920160a0019695505050505050565b6000826126e0577f4e487b7100000000000000000000000000000000000000000000000000000000600052601260045260246000fd5b500490565b6000817fffffffffffffffffffffffffffffffffffffffffffffffffffffffffffffffff0483118215151615612744577f4e487b7100000000000000000000000000000000000000000000000000000000600052601160045260246000fd5b500290565b73ffffffffffffffffffffffffffffffffffffffff8116811461276b57600080fd5b5056fea164736f6c6343000806000a",
  "deployedBytecode": "0x608060405234801561001057600080fd5b50600436106100ea5760003560e01c80638da5cb5b1161008c578063b0e21e8a11610066578063b0e21e8a146101ca578063beabacc8146101e0578063d0e30db0146101f3578063f2fde38b146101fb57600080fd5b80638da5cb5b146101865780639742b5c3146101a4578063a444f5e9146101b757600080fd5b80634cf088d9116100c85780634cf088d91461013e578063590e1ae31461015e5780635c975abb146101665780638456cb591461017e57600080fd5b806319ab453c146100ef578063370158ea146101045780633f4ba83a14610136575b600080fd5b6101026100fd3660046124e5565b61020e565b005b61010c610371565b60405173ffffffffffffffffffffffffffffffffffffffff90911681526020015b60405180910390f35b6101026104d3565b60035461010c9073ffffffffffffffffffffffffffffffffffffffff1681565b610102610865565b61016e610c28565b604051901515815260200161012d565b610102610dad565b60015473ffffffffffffffffffffffffffffffffffffffff1661010c565b6101026101b2366004612589565b611157565b6101026101c5366004612589565b611391565b6101d261170f565b60405190815260200161012d565b6101026101ee366004612526565b611b1c565b610102611c71565b6101026102093660046124e5565b611f95565b60015473ffffffffffffffffffffffffffffffffffffffff1661027e57600180547fffffffffffffffffffffffff000000000000000000000000000000000000000016321790557fffffffffffffffffffffffffffffffffffffffffffffffffffffffffffffffff60025561032a565b60015473ffffffffffffffffffffffffffffffffffffffff16331461032a576040517f08c379a000000000000000000000000000000000000000000000000000000000815260206004820152602160248201527f4175746f6d6174653a2063616c6c6572206973206e6f7420746865206f776e6560448201527f720000000000000000000000000000000000000000000000000000000000000060648201526084015b60405180910390fd5b600380547fffffffffffffffffffffffff00000000000000000000000000000000000000001673ffffffffffffffffffffffffffffffffffffffff92909216919091179055565b6040517f6b880718000000000000000000000000000000000000000000000000000000008152306004820152600090819073__$0bac19a4f6859fb91e3c64d76ce49d598f$__90636b8807189060240160206040518083038186803b1580156103d957600080fd5b505af41580156103ed573d6000803e3d6000fd5b505050506040513d601f19601f820116820180604052508101906104119190612509565b905073ffffffffffffffffffffffffffffffffffffffff811630141561044f57505060005473ffffffffffffffffffffffffffffffffffffffff1690565b8073ffffffffffffffffffffffffffffffffffffffff1663370158ea6040518163ffffffff1660e01b815260040160206040518083038186803b15801561049557600080fd5b505afa1580156104a9573d6000803e3d6000fd5b505050506040513d601f19601f820116820180604052508101906104cd9190612509565b91505090565b6040517f6b88071800000000000000000000000000000000000000000000000000000000815230600482018190529073__$0bac19a4f6859fb91e3c64d76ce49d598f$__90636b8807189060240160206040518083038186803b15801561053957600080fd5b505af415801561054d573d6000803e3d6000fd5b505050506040513d601f19601f820116820180604052508101906105719190612509565b73ffffffffffffffffffffffffffffffffffffffff161415610726576000610597610371565b6040517f21f8a7210000000000000000000000000000000000000000000000000000000081527f689d13d8ed8ef1027633ba26e7121121cf427434450a529548f19bf175974395600482015273ffffffffffffffffffffffffffffffffffffffff91909116906321f8a7219060240160206040518083038186803b15801561061e57600080fd5b505afa158015610632573d6000803e3d6000fd5b505050506040513d601f19601f820116820180604052508101906106569190612509565b60015490915073ffffffffffffffffffffffffffffffffffffffff1633148061069457503373ffffffffffffffffffffffffffffffffffffffff8216145b610720576040517f08c379a000000000000000000000000000000000000000000000000000000000815260206004820152602260248201527f4175746f6d6174653a2063616c6c6572206973206e6f7420746865207061757360448201527f65720000000000000000000000000000000000000000000000000000000000006064820152608401610321565b506107cd565b60015473ffffffffffffffffffffffffffffffffffffffff1633146107cd576040517f08c379a000000000000000000000000000000000000000000000000000000000815260206004820152602260248201527f4175746f6d6174653a2063616c6c6572206973206e6f7420746865207061757360448201527f65720000000000000000000000000000000000000000000000000000000000006064820152608401610321565b6107d5610c28565b61083b576040517f08c379a000000000000000000000000000000000000000000000000000000000815260206004820152601460248201527f4175746f6d6174653a206e6f74207061757365640000000000000000000000006044820152606401610321565b600180547fffffffffffffffffffffff00ffffffffffffffffffffffffffffffffffffffff169055565b60015473ffffffffffffffffffffffffffffffffffffffff16331461090c576040517f08c379a000000000000000000000000000000000000000000000000000000000815260206004820152602160248201527f4175746f6d6174653a2063616c6c6572206973206e6f7420746865206f776e6560448201527f72000000000000000000000000000000000000000000000000000000000000006064820152608401610321565b6003546040517f70a0823100000000000000000000000000000000000000000000000000000000815230600482015273ffffffffffffffffffffffffffffffffffffffff90911690632e1a7d4d9082906370a082319060240160206040518083038186803b15801561097d57600080fd5b505afa158015610991573d6000803e3d6000fd5b505050506040513d601f19601f820116820180604052508101906109b591906125a2565b6040518263ffffffff1660e01b81526004016109d391815260200190565b600060405180830381600087803b1580156109ed57600080fd5b505af1158015610a01573d6000803e3d6000fd5b505050506000600360009054906101000a900473ffffffffffffffffffffffffffffffffffffffff1673ffffffffffffffffffffffffffffffffffffffff166372f702f36040518163ffffffff1660e01b815260040160206040518083038186803b158015610a6f57600080fd5b505afa158015610a83573d6000803e3d6000fd5b505050506040513d601f19601f82011682018060405250810190610aa79190612509565b90508073ffffffffffffffffffffffffffffffffffffffff1663a9059cbb610ae460015473ffffffffffffffffffffffffffffffffffffffff1690565b6040517f70a0823100000000000000000000000000000000000000000000000000000000815230600482015273ffffffffffffffffffffffffffffffffffffffff8516906370a082319060240160206040518083038186803b158015610b4957600080fd5b505afa158015610b5d573d6000803e3d6000fd5b505050506040513d601f19601f82011682018060405250810190610b8191906125a2565b6040517fffffffff0000000000000000000000000000000000000000000000000000000060e085901b16815273ffffffffffffffffffffffffffffffffffffffff90921660048301526024820152604401602060405180830381600087803b158015610bec57600080fd5b505af1158015610c00573d6000803e3d6000fd5b505050506040513d601f19601f82011682018060405250810190610c249190612567565b5050565b6040517f6b880718000000000000000000000000000000000000000000000000000000008152306004820152600090819073__$0bac19a4f6859fb91e3c64d76ce49d598f$__90636b8807189060240160206040518083038186803b158015610c9057600080fd5b505af4158015610ca4573d6000803e3d6000fd5b505050506040513d601f19601f82011682018060405250810190610cc89190612509565b905073ffffffffffffffffffffffffffffffffffffffff8116301415610d0b57505060015474010000000000000000000000000000000000000000900460ff1690565b60015474010000000000000000000000000000000000000000900460ff16806104cd57508073ffffffffffffffffffffffffffffffffffffffff16635c975abb6040518163ffffffff1660e01b815260040160206040518083038186803b158015610d7557600080fd5b505afa158015610d89573d6000803e3d6000fd5b505050506040513d601f19601f820116820180604052508101906104cd9190612567565b6040517f6b88071800000000000000000000000000000000000000000000000000000000815230600482018190529073__$0bac19a4f6859fb91e3c64d76ce49d598f$__90636b8807189060240160206040518083038186803b158015610e1357600080fd5b505af4158015610e27573d6000803e3d6000fd5b505050506040513d601f19601f82011682018060405250810190610e4b9190612509565b73ffffffffffffffffffffffffffffffffffffffff161415611000576000610e71610371565b6040517f21f8a7210000000000000000000000000000000000000000000000000000000081527f689d13d8ed8ef1027633ba26e7121121cf427434450a529548f19bf175974395600482015273ffffffffffffffffffffffffffffffffffffffff91909116906321f8a7219060240160206040518083038186803b158015610ef857600080fd5b505afa158015610f0c573d6000803e3d6000fd5b505050506040513d601f19601f82011682018060405250810190610f309190612509565b60015490915073ffffffffffffffffffffffffffffffffffffffff16331480610f6e57503373ffffffffffffffffffffffffffffffffffffffff8216145b610ffa576040517f08c379a000000000000000000000000000000000000000000000000000000000815260206004820152602260248201527f4175746f6d6174653a2063616c6c6572206973206e6f7420746865207061757360448201527f65720000000000000000000000000000000000000000000000000000000000006064820152608401610321565b506110a7565b60015473ffffffffffffffffffffffffffffffffffffffff1633146110a7576040517f08c379a000000000000000000000000000000000000000000000000000000000815260206004820152602260248201527f4175746f6d6174653a2063616c6c6572206973206e6f7420746865207061757360448201527f65720000000000000000000000000000000000000000000000000000000000006064820152608401610321565b6110af610c28565b15611116576040517f08c379a000000000000000000000000000000000000000000000000000000000815260206004820152601060248201527f4175746f6d6174653a20706175736564000000000000000000000000000000006044820152606401610321565b600180547fffffffffffffffffffffff00ffffffffffffffffffffffffffffffffffffffff1674010000000000000000000000000000000000000000179055565b6040517f6b88071800000000000000000000000000000000000000000000000000000000815230600482015260009073__$0bac19a4f6859fb91e3c64d76ce49d598f$__90636b8807189060240160206040518083038186803b1580156111bd57600080fd5b505af41580156111d1573d6000803e3d6000fd5b505050506040513d601f19601f820116820180604052508101906111f59190612509565b90503373ffffffffffffffffffffffffffffffffffffffff82163014611298578173ffffffffffffffffffffffffffffffffffffffff16638da5cb5b6040518163ffffffff1660e01b815260040160206040518083038186803b15801561125b57600080fd5b505afa15801561126f573d6000803e3d6000fd5b505050506040513d601f19601f820116820180604052508101906112939190612509565b6112b2565b60015473ffffffffffffffffffffffffffffffffffffffff165b73ffffffffffffffffffffffffffffffffffffffff1614611355576040517f08c379a000000000000000000000000000000000000000000000000000000000815260206004820152603d60248201527f4175746f6d6174653a3a6368616e676550726f746f636f6c4665653a2063616c60448201527f6c6572206973206e6f74207468652070726f746f636f6c206f776e65720000006064820152608401610321565b60028290556040518281527f3c1d43943224e49d951ce8295a5c8332b517083b3f89bed50feae2cb39caebb59060200160405180910390a15050565b806040518060400160405280600f81526020017f4d6f636b4574684175746f6d61746500000000000000000000000000000000008152506113d282826121f4565b506003546040517f70a0823100000000000000000000000000000000000000000000000000000000815230600482015260009173ffffffffffffffffffffffffffffffffffffffff16906370a082319060240160206040518083038186803b15801561143d57600080fd5b505afa158015611451573d6000803e3d6000fd5b505050506040513d601f19601f8201168201806040525081019061147591906125a2565b6003546040517f2e1a7d4d0000000000000000000000000000000000000000000000000000000081526004810183905291925073ffffffffffffffffffffffffffffffffffffffff1690632e1a7d4d90602401600060405180830381600087803b1580156114e257600080fd5b505af11580156114f6573d6000803e3d6000fd5b505050506000600360009054906101000a900473ffffffffffffffffffffffffffffffffffffffff1673ffffffffffffffffffffffffffffffffffffffff166372f702f36040518163ffffffff1660e01b815260040160206040518083038186803b15801561156457600080fd5b505afa158015611578573d6000803e3d6000fd5b505050506040513d601f19601f8201168201806040525081019061159c9190612509565b6003546040517f095ea7b300000000000000000000000000000000000000000000000000000000815273ffffffffffffffffffffffffffffffffffffffff91821660048201526024810185905291925082169063095ea7b390604401602060405180830381600087803b15801561161257600080fd5b505af1158015611626573d6000803e3d6000fd5b505050506040513d601f19601f8201168201806040525081019061164a9190612567565b506003546040517fb6b55f250000000000000000000000000000000000000000000000000000000081526004810184905273ffffffffffffffffffffffffffffffffffffffff9091169063b6b55f2590602401600060405180830381600087803b1580156116b757600080fd5b505af11580156116cb573d6000803e3d6000fd5b505050507f94f5b294c14bd89ee21c4c869a1013a487c7c8d0611568bb6757a14ad739f6bd8260405161170091815260200190565b60405180910390a15050505050565b6040517f6b880718000000000000000000000000000000000000000000000000000000008152306004820152600090819073__$0bac19a4f6859fb91e3c64d76ce49d598f$__90636b8807189060240160206040518083038186803b15801561177757600080fd5b505af415801561178b573d6000803e3d6000fd5b505050506040513d601f19601f820116820180604052508101906117af9190612509565b905073ffffffffffffffffffffffffffffffffffffffff811630148015906117d957506000600254125b1561185c578073ffffffffffffffffffffffffffffffffffffffff1663b0e21e8a6040518163ffffffff1660e01b815260040160206040518083038186803b15801561182457600080fd5b505afa158015611838573d6000803e3d6000fd5b505050506040513d601f19601f820116820180604052508101906104cd91906125a2565b6000611866610371565b90506000806002541261187b57600254611938565b6040517fbd02d0f50000000000000000000000000000000000000000000000000000000081527fa93d95f96a5de25d7a41ddf1f5e8d45cfc929c4838163cf011dab4043a4a40d5600482015273ffffffffffffffffffffffffffffffffffffffff83169063bd02d0f59060240160206040518083038186803b15801561190057600080fd5b505afa158015611914573d6000803e3d6000fd5b505050506040513d601f19601f8201168201806040525081019061193891906125a2565b905080611949576000935050505090565b6040517f21f8a7210000000000000000000000000000000000000000000000000000000081527f65c90423fe7c880476633a7e36521740f87199d233dc56eb4ca6643eb76f605f600482015260009073ffffffffffffffffffffffffffffffffffffffff8416906321f8a7219060240160206040518083038186803b1580156119d157600080fd5b505afa1580156119e5573d6000803e3d6000fd5b505050506040513d601f19601f82011682018060405250810190611a099190612509565b73ffffffffffffffffffffffffffffffffffffffff1663feaf968c6040518163ffffffff1660e01b815260040160a06040518083038186803b158015611a4e57600080fd5b505afa158015611a62573d6000803e3d6000fd5b505050506040513d601f19601f82011682018060405250810190611a8691906125bb565b50505091505060008113611af6576040517f08c379a000000000000000000000000000000000000000000000000000000000815260206004820152601760248201527f4175746f6d6174653a20696e76616c69642070726963650000000000000000006044820152606401610321565b80611b0983670de0b6b3a76400006126e5565b611b1391906126aa565b94505050505090565b60015473ffffffffffffffffffffffffffffffffffffffff163314611bc3576040517f08c379a000000000000000000000000000000000000000000000000000000000815260206004820152602160248201527f4175746f6d6174653a2063616c6c6572206973206e6f7420746865206f776e6560448201527f72000000000000000000000000000000000000000000000000000000000000006064820152608401610321565b6040517fa9059cbb00000000000000000000000000000000000000000000000000000000815273ffffffffffffffffffffffffffffffffffffffff83811660048301526024820183905284169063a9059cbb90604401602060405180830381600087803b158015611c3357600080fd5b505af1158015611c47573d6000803e3d6000fd5b505050506040513d601f19601f82011682018060405250810190611c6b9190612567565b50505050565b60015473ffffffffffffffffffffffffffffffffffffffff163314611d18576040517f08c379a000000000000000000000000000000000000000000000000000000000815260206004820152602160248201527f4175746f6d6174653a2063616c6c6572206973206e6f7420746865206f776e6560448201527f72000000000000000000000000000000000000000000000000000000000000006064820152608401610321565b600354604080517f72f702f3000000000000000000000000000000000000000000000000000000008152905160009273ffffffffffffffffffffffffffffffffffffffff16916372f702f3916004808301926020929190829003018186803b158015611d8357600080fd5b505afa158015611d97573d6000803e3d6000fd5b505050506040513d601f19601f82011682018060405250810190611dbb9190612509565b6040517f70a0823100000000000000000000000000000000000000000000000000000000815230600482015290915060009073ffffffffffffffffffffffffffffffffffffffff8316906370a082319060240160206040518083038186803b158015611e2657600080fd5b505afa158015611e3a573d6000803e3d6000fd5b505050506040513d601f19601f82011682018060405250810190611e5e91906125a2565b6003546040517f095ea7b300000000000000000000000000000000000000000000000000000000815273ffffffffffffffffffffffffffffffffffffffff91821660048201526024810183905291925083169063095ea7b390604401602060405180830381600087803b158015611ed457600080fd5b505af1158015611ee8573d6000803e3d6000fd5b505050506040513d601f19601f82011682018060405250810190611f0c9190612567565b506003546040517fb6b55f250000000000000000000000000000000000000000000000000000000081526004810183905273ffffffffffffffffffffffffffffffffffffffff9091169063b6b55f2590602401600060405180830381600087803b158015611f7957600080fd5b505af1158015611f8d573d6000803e3d6000fd5b505050505050565b60015473ffffffffffffffffffffffffffffffffffffffff16331461203c576040517f08c379a000000000000000000000000000000000000000000000000000000000815260206004820152602160248201527f4175746f6d6174653a2063616c6c6572206973206e6f7420746865206f776e6560448201527f72000000000000000000000000000000000000000000000000000000000000006064820152608401610321565b6040517f6b88071800000000000000000000000000000000000000000000000000000000815230600482018190529073__$0bac19a4f6859fb91e3c64d76ce49d598f$__90636b8807189060240160206040518083038186803b1580156120a257600080fd5b505af41580156120b6573d6000803e3d6000fd5b505050506040513d601f19601f820116820180604052508101906120da9190612509565b73ffffffffffffffffffffffffffffffffffffffff161461217d576040517f08c379a000000000000000000000000000000000000000000000000000000000815260206004820152602160248201527f4175746f6d6174653a206368616e676520746865206f776e6572206661696c6560448201527f64000000000000000000000000000000000000000000000000000000000000006064820152608401610321565b6001805473ffffffffffffffffffffffffffffffffffffffff8381167fffffffffffffffffffffffff0000000000000000000000000000000000000000831681179093556040519116919082907f8be0079c531659141344cd1fd0a4f28419497f9722a3daafe3b4186f6b6457e090600090a35050565b60006121fe610c28565b15612265576040517f08c379a000000000000000000000000000000000000000000000000000000000815260206004820152601060248201527f4175746f6d6174653a20706175736564000000000000000000000000000000006044820152606401610321565b600061228660015473ffffffffffffffffffffffffffffffffffffffff1690565b90503273ffffffffffffffffffffffffffffffffffffffff821614156122b05760009150506124c0565b60006122ba610371565b6040517f21f8a7210000000000000000000000000000000000000000000000000000000081527fe78c16c6d839536d3155985aab4e9c6013c8c3d446054bcebc48612f359d81f5600482015290915060009073ffffffffffffffffffffffffffffffffffffffff8316906321f8a7219060240160206040518083038186803b15801561234557600080fd5b505afa158015612359573d6000803e3d6000fd5b505050506040513d601f19601f8201168201806040525081019061237d9190612509565b905073ffffffffffffffffffffffffffffffffffffffff8116612422576040517f08c379a000000000000000000000000000000000000000000000000000000000815260206004820152602b60248201527f4175746f6d6174653a3a5f62696c6c3a2062616c616e636520636f6e7472616360448201527f74206e6f7420666f756e640000000000000000000000000000000000000000006064820152608401610321565b8073ffffffffffffffffffffffffffffffffffffffff1663e578a225848861244861170f565b896040518563ffffffff1660e01b8152600401612468949392919061260b565b602060405180830381600087803b15801561248257600080fd5b505af1158015612496573d6000803e3d6000fd5b505050506040513d601f19601f820116820180604052508101906124ba91906125a2565b93505050505b92915050565b805169ffffffffffffffffffff811681146124e057600080fd5b919050565b6000602082840312156124f757600080fd5b813561250281612749565b9392505050565b60006020828403121561251b57600080fd5b815161250281612749565b60008060006060848603121561253b57600080fd5b833561254681612749565b9250602084013561255681612749565b929592945050506040919091013590565b60006020828403121561257957600080fd5b8151801515811461250257600080fd5b60006020828403121561259b57600080fd5b5035919050565b6000602082840312156125b457600080fd5b5051919050565b600080600080600060a086880312156125d357600080fd5b6125dc866124c6565b94506020860151935060408601519250606086015191506125ff608087016124c6565b90509295509295909350565b73ffffffffffffffffffffffffffffffffffffffff8516815260006020858184015284604084015260806060840152835180608085015260005b818110156126615785810183015185820160a001528201612645565b8181111561267357600060a083870101525b50601f017fffffffffffffffffffffffffffffffffffffffffffffffffffffffffffffffe0169290920160a0019695505050505050565b6000826126e0577f4e487b7100000000000000000000000000000000000000000000000000000000600052601260045260246000fd5b500490565b6000817fffffffffffffffffffffffffffffffffffffffffffffffffffffffffffffffff0483118215151615612744577f4e487b7100000000000000000000000000000000000000000000000000000000600052601160045260246000fd5b500290565b73ffffffffffffffffffffffffffffffffffffffff8116811461276b57600080fd5b5056fea164736f6c6343000806000a",
  "libraries": {
    "ERC1167": "0x62cA8Ec7e7a6852D93Fb4e4b5583d6D7b2c10b7F"
  },
  "devdoc": {
    "kind": "dev",
    "methods": {
      "changeProtocolFee(int256)": {
        "params": {
          "__protocolFee": "New protocol fee."
        }
      },
      "protocolFee()": {
        "returns": {
          "_0": "Current protocol fee."
        }
      },
      "transfer(address,address,uint256)": {
        "params": {
          "amount": "Transferred amount of tokens.",
          "recipient": "Token recipient address.",
          "token": "The address of the token to be transferred."
        }
      },
      "transferOwnership(address)": {
        "details": "Transfers ownership of the contract to a new account (`newOwner`). Can only be called by the current owner."
      }
    },
    "version": 1
  },
  "userdoc": {
    "kind": "user",
    "methods": {
      "changeProtocolFee(int256)": {
        "notice": "Change protocol fee."
      },
      "info()": {
        "notice": "Returns address of Storage contract."
      },
      "owner()": {
        "notice": "Returns the address of the current owner."
      },
      "pause()": {
        "notice": "Pause contract."
      },
      "paused()": {
        "notice": "Returns true if the contract is paused, and false otherwise."
      },
      "transfer(address,address,uint256)": {
        "notice": "Transfer ERC20 token to recipient."
      },
      "unpause()": {
        "notice": "Unpause contract."
      }
    },
    "version": 1
  },
  "storageLayout": {
    "storage": [
      {
        "astId": 4025,
        "contract": "automates/mock/EthAutomate.automate.sol:EthAutomate",
        "label": "_info",
        "offset": 0,
        "slot": "0",
        "type": "t_address"
      },
      {
        "astId": 4028,
        "contract": "automates/mock/EthAutomate.automate.sol:EthAutomate",
        "label": "_owner",
        "offset": 0,
        "slot": "1",
        "type": "t_address"
      },
      {
        "astId": 4031,
        "contract": "automates/mock/EthAutomate.automate.sol:EthAutomate",
        "label": "_paused",
        "offset": 20,
        "slot": "1",
        "type": "t_bool"
      },
      {
        "astId": 4034,
        "contract": "automates/mock/EthAutomate.automate.sol:EthAutomate",
        "label": "_protocolFee",
        "offset": 0,
        "slot": "2",
        "type": "t_int256"
      },
      {
        "astId": 3604,
        "contract": "automates/mock/EthAutomate.automate.sol:EthAutomate",
        "label": "staking",
        "offset": 0,
        "slot": "3",
        "type": "t_contract(EthStaking)3872"
      }
    ],
    "types": {
      "t_address": {
        "encoding": "inplace",
        "label": "address",
        "numberOfBytes": "20"
      },
      "t_bool": {
        "encoding": "inplace",
        "label": "bool",
        "numberOfBytes": "1"
      },
      "t_contract(EthStaking)3872": {
        "encoding": "inplace",
        "label": "contract EthStaking",
        "numberOfBytes": "20"
      },
      "t_int256": {
        "encoding": "inplace",
        "label": "int256",
        "numberOfBytes": "32"
      }
    }
  }
}